:020000040000FA
:040000001FD00ED02F
:0400080004EF04F00D
:040018000CEF04F0F5
:100020007F6E05A01200550E7E6EAA0E7E6E7F8238
:1000300000007FB2FED712000A26D8B00B2A1200A9
:100040000E01030E436F7F6A746875687F8000003D
:10005000733C00EF04F0066A1C0E056E000EE06FA4
:10006000080EE16FE81EE56F000EE26F070EE36F0A
:10007000FF0EF86FEB0EF96FFF0EFA6FF80EFB6FC5
:100080009E0E446F030E456F0F015D6B5C6B200E7F
:10009000706E6F6A9490949482908294939E939CD5
:1000A000818E818C609E040060AEFDD70FEE66F0FD
:1000B00065500F0B096EF46EF5E064B02CD010EEB5
:1000C00001F0EECFE6FFF42EFCD70650EBE0010A7C
:1000D000D8A408D074687568736A040EA1DF8280A2
:1000E000819CFF000650020A05E10B6A0A6A0C9027
:1000F0000C6AD8D70650030A0AE107500A2606E11F
:1001000008500B2203E10CB001D074D077D0065018
:10011000040AC8E177D00350F86EF00BF36E02507A
:10012000F76E756E0150F66E746E05A605D0095017
:100130000126E86A02220322300EF36001D008D0C3
:10014000F350300A01E12AD0F350F00AABE132D08B
:1001500005A405D0F6503F0B02E1940E61DF05B215
:10016000A1D7F650070B9EE1080EF46EEE50F56E27
:1001700063DF0D00F42EFAD7080EF46E0A00ED507E
:10018000F42EFCD7840E4CDF080EF46E0900F550F7
:10019000EE18D8A40C80F42EF9D784D7EF50F56E62
:1001A0004BDF0C00C40E3CDF0900F550EE18F42EB6
:1001B000F5D778D7EF50736E3FDF040E31DF7F6ADB
:1001C0007F8000007350EE18D8A40C80744A752A02
:1001D000F42EF0D767D720B7FED7800E216F080E18
:1001E000226F000E236F040E246F248164A02491DB
:1001F000208758D7010E266F256FEDD7266B010E8D
:0E020000256FE9D7020E266F010E256FE4D799
:0808000000005BEF39F012006B
:0808080007ED04F012000600E8
:06081000E3EF2AF01200E4
:0108160000E1
:060818008CEF2AF0120033
:02081E00447C18
:10082000A5623C6401FE020B0D01000800000000FF
:10083000000001020000000014004008000028032E
:08084000434F4D505554450093
:080848000301400E656F120070
:100850000300FE720000F9000000020000001E0804
:100860000000F70000000200000016080000FC0075
:0608700000000100000081
:0A0876001200D9CFE6FFE1CFD9FF51
:10088000E652FE0EDB50070D0001F751F324F66E21
:10089000F851F420F76EF6CF14F0F7CF15F014C02E
:1008A000E6FF15C0E6FF0AEC25F0E552E552DF6EE3
:1008B000D9CFE9FFDACFEAFFEF50800B09E1D9CFBA
:1008C000E9FFDACFEAFFEF50200B02E1010E01D081
:1008D000000EE552E552E7CFD9FF1200D9CFE6FF6F
:1008E000E1CFD9FFE652DF6A640EDF5C19E2E66809
:1008F000DF50070D0001F751F324F66EF851F42094
:10090000F76EF6CF14F0F7CF15F014C0E6FF15C060
:10091000E6FF1DEC26F0E552E552E552DF2AE4D76A
:1009200001EC25F0E552E552E7CFD9FF1200D9CF0F
:10093000E6FFE1CFD9FF030EE126DF6A010EDB6A95
:10094000640EF36E010EDBCFF4FFF350F45C26E28D
:10095000010EDB50070D0001F751F324F66EF8513C
:10096000F420F76EF6CF14F0F7CF15F014C0E6FFC1
:1009700015C0E6FF0AEC25F0E552E552E76E020EDF
:10098000E7CFDBFFD950020FE96EDACFEAFFEF5075
:10099000800B01E0DF2A010EDB2AD2D7DFCFE6F39E
:1009A000DD0EE66E030EE66E700EE66EE66A46EC4F
:1009B0002BF0E552E552E552E552030EE15C02E20E
:1009C000E16AE552E16EE552E7CFD9FF120003017B
:1009D000020EFB6F0301FC6B1200D9CFE6FFE1CFE3
:1009E000D9FF030EE126FE0EDBCFE6FF7CEC0DF017
:1009F000E552DF6EDFCFE6FF3FDFE552000905E19C
:100A0000070EE66EC7EC14F055D0DFCFE6FFD1EC51
:100A10000BF0E552DE52F3CFDEFFF4CFDDFFDD5207
:100A2000010EDBCF14F0020EDBCF15F015C014F071
:100A3000156A14C0E6F3FF0EE76E010EDBCF14F06B
:100A4000020EDBCF15F0E7501416156A14C0E7F359
:100A5000DFCFE6FF5EEC0CF0E552DE52F3CFDEFFB7
:100A6000F4CFDDFFDD52010EDBCF14F0020EDBCF41
:100A700015F015C014F0156A14C0E8F3FF0EE76E08
:100A8000010EDBCF14F0020EDBCF15F0E750141689
:100A9000156A14C0E9F3FE0EDBCFEAF3DD0EE66E55
:100AA000030EE66EF20EE66EE66A46EC2BF0E552B9
:100AB000E552E552E552030EE15C02E2E16AE552DD
:100AC000E16EE552E7CFD9FF1200D9CFE6FFE1CFC3
:100AD000D9FF020EE126DF6A010EDB6A640EF36EB7
:100AE000010EDBCFF4FFF350F45C0BE2010EDBCF21
:100AF000E6FFC2DEE552000901E0DF2A010EDB2A33
:100B0000EDD7DFCFE6F3DD0EE66E030EE66E740E74
:100B1000E66EE66A46EC2BF0E552E552E552E55208
:100B2000020EE15C02E2E16AE552E16EE552E7CFD6
:100B3000D9FF1200D9CFE6FFE1CFD9FFE652FB0E75
:100B4000DBCFE6FFFC0EDBCFE6FFFD0EDBCFE6FFE3
:100B5000FE0EDBCFE6FFCED9E552E552E552E55277
:100B6000DF6EFF0EDF5C02E1060E04D0DFCFE6FF92
:100B700006D8E552E552E552E7CFD9FF1200D9CFAA
:100B8000E6FFE1CFD9FFE652FE0EDBCFE6FF74DED3
:100B9000E552000901E18ED0E668FE0EDB50070D3C
:100BA0000001F751F324F66EF851F420F76EF6CFFA
:100BB00014F0F7CF15F014C0E6FF15C0E6FF1DECEA
:100BC00026F0E552E552E552FE0EDB50070D00011E
:100BD000F751F324F66EF851F420F76EF6CF14F0C7
:100BE000F7CF15F014C0E6FF15C0E6FF0AEC25F0BC
:100BF000E552E552DF6ED9CFE9FFDACFEAFFEF50D9
:100C0000100B56E0FE0EDB50070D0001F751F324E8
:100C1000F66EF851F420F76EF62A000EF722F6CFA2
:100C200014F0F7CF15F014C0E6FF15C0E6FF0AEC8C
:100C300025F0E552E552E76EFE0EE7CFDBFFDB5015
:100C4000070D0001F751F324F66EF851F420F76E0A
:100C5000F6CF14F0F7CF15F014C0E6FF15C0E6FF8D
:100C60000AEC25F0E552E552DF6E640EF36EFE0EDF
:100C7000DBCFF4FFF350F45C02E3060E1CD0E66811
:100C8000FE0EDB50070D0001F751F324F66EF8510C
:100C9000F420F76EF6CF14F0F7CF15F014C0E6FF8E
:100CA00015C0E6FF1DEC26F0E552E552E552A3D74C
:100CB00001EC25F0000EE552E552E7CFD9FF120016
:100CC000D9CFE6FFE1CFD9FF040EE126FB0EDBCF43
:100CD000E6FFFC0EDBCFE6FFFD0EDBCFE6FFFE0EF0
:100CE000DBCFE6FF07D9E552E552E552E552DF6E6C
:100CF000FF0EDF5C01E0DFD0F90EDB5001E1EDD04B
:100D0000DE52010EDD6EDF6A640EDF5C01E3CED0E1
:100D1000DF50070D0001F751F324F66EF851F4206F
:100D2000F76EF6CF14F0F7CF15F014C0E6FF15C03C
:100D3000E6FF0AEC25F0E552E552E76E020EE7CF3A
:100D4000DBFFD950020FE96EDACFEAFFEF50800BDC
:100D500001E1AAD0FD0EDBCFE6FFFE0EDBCFE6FF02
:100D6000DF50070D0001F751F324F66EF851F4201F
:100D7000F76E020EF626000EF722F6CF14F0F7CF2C
:100D800015F014C0E6FF15C0E6FF33EC26F0E5527F
:100D9000E552E552E552FB0EDBCFE6FFFC0EDBCF62
:100DA000E6FFDF50070D0001F751F324F66EF8510E
:100DB000F420F76E020EF626000EF722020EF6263B
:100DC000000EF722F6CF14F0F7CF15F014C0E6FFAF
:100DD00015C0E6FF33EC26F0E552E552E552E55248
:100DE000020EDB6AF80EDB50146ED950020FE96E6A
:100DF000DACFEAFF1450010BF36EF346F346F346E5
:100E0000F346F346F346BF0EEF14F310EF6E020EF7
:100E1000DBCFE6FFDF50070D0001F751F324F66E3C
:100E2000F851F420F76EF6CF14F0F7CF15F014C098
:100E3000E6FF15C0E6FF1DEC26F0E552E552E5524F
:100E4000030EDB6A010EF36E030EDBCFF4FFF350EB
:100E5000F45C25E2E66ADF50070D0001F751F32448
:100E6000F66EF851F420F76E060EF626000EF72205
:100E7000F6CF16F0F7CF17F0030EDB500001162463
:100E8000146E000E1720156E14C0E6FFE66E1DEC02
:100E900026F0E552E552E552030EDB2AD3D701ECEA
:100EA00025F0010EDB6A02D0DF2A2ED7010EDB50BF
:100EB00002E0040E13D0F90EDBCFE6FFFA0EDBCF13
:100EC000E6FFDFCFE6FF8CD8E552E552E552000998
:100ED00002E0060E03D001EC25F0000E146E040EA5
:100EE000E15C02E2E16AE552E16E1450E552E7CFBF
:100EF000D9FF1200D9CFE6FFE1CFD9FF060EE126D8
:100F0000DF6A640EDF5C5FE2DF50070D0001F7511E
:100F1000F324F66EF851F420F76EF6CF14F0F7CF05
:100F200015F014C0E6FF15C0E6FF0AEC25F0E55207
:100F3000E552E76E010EE7CFDBFFD950010FE96EF6
:100F4000DACFEAFFEF50800B3CE1D950010FE96E98
:100F5000DACFEAFFEF50200B34E1DFCFE6FFD1EC30
:100F60000BF0E552020EF3CFDBFF030EF4CFDBFFF5
:100F7000DFCFE6FF5EEC0CF0E552040EF3CFDBFFB3
:100F8000050EF4CFDBFF020EDBCF14F0030EDBCF38
:100F900015F0FD0EDB50141814E1FE0EDB50151891
:100FA00010E1040EDBCF16F0050EDBCF17F0FB0EC1
:100FB000DB50161806E1FC0EDB50171802E1DF507B
:100FC00003D0DF2A9ED7FF0E146E060EE15C02E20C
:100FD000E16AE552E16E1450E552E7CFD9FF120005
:100FE000D9CFE6FFE1CFD9FF050EE126FE0EDB509B
:100FF000E76E010EE7CFDBFFF36EFD0EDBCFF4FFF4
:10100000F350F45C02E3060ECED1010EF36EFD0E3A
:10101000DBCFF4FFF350F45C01E24ED1FD0EDB06B2
:10102000FE0EDB50070D0001F751F324F66EF85168
:10103000F420F76EF6CF14F0F7CF15F014C0E6FFEA
:1010400015C0E6FF0AEC25F0E552E552DF6ED9CF78
:10105000E9FFDACFEAFFEF50100B22E0FE0EDB5083
:10106000070D0001F751F324F66EF851F420F76EE6
:10107000F62A000EF722F6CF14F0F7CF15F014C0C1
:10108000E6FF15C0E6FF0AEC25F0E552E552E76EF3
:10109000FE0EE7CFDBFFDB50FF08B7E1070E83D181
:1010A000FC0EDB5002E1000E7ED1FE0EDB28E76E67
:1010B000020EE7CFDBFF640EF36E020EDBCFF4FF10
:1010C000F350F45C01E3EDD0020EDB50070D00019C
:1010D000F751F324F66EF851F420F76EF6CF14F0C2
:1010E000F7CF15F014C0E6FF15C0E6FF0AEC25F0B7
:1010F000E552E552E76E030EE7CFDBFFD950030F51
:10110000E96EDACFEAFFEF50800B01E1C7D0E66865
:10111000E668020EDB50070D0001F751F324F66E6E
:10112000F851F420F76E020EF626000EF722F6CFE5
:1011300014F0F7CF15F014C0E6FF15C0E6FF33EC4E
:1011400026F0E552E552E552E552E668E668020E01
:10115000DB50070D0001F751F324F66EF851F4202F
:10116000F76E020EF626000EF722020EF626000E8D
:10117000F722F6CF14F0F7CF15F014C0E6FF15C034
:10118000E6FF33EC26F0E552E552E552E552200E3B
:10119000E66E020EDB50070D0001F751F324F66EE8
:1011A000F851F420F76EF6CF14F0F7CF15F014C015
:1011B000E6FF15C0E6FF1DEC26F0E552E552E552CC
:1011C000040EDB6A010EF36E040EDBCFF4FFF35066
:1011D000F45C26E2E66A020EDB50070D0001F751CF
:1011E000F324F66EF851F420F76E060EF626000E84
:1011F000F722F6CF16F0F7CF17F0040EDB50000100
:101200001624146E000E1720156E14C0E6FFE66E4D
:101210001DEC26F0E552E552E552040EDB2AD2D74A
:10122000020EDBCFE6FFFE0EDB50070D0001F7518B
:10123000F324F66EF851F420F76EF62A000EF7222A
:10124000F6CF14F0F7CF15F014C0E6FF15C0E6FF97
:101250001DEC26F0E552E552E552DF88DFCFE6FFD0
:10126000FE0EDB50070D0001F751F324F66EF85126
:10127000F420F76EF6CF14F0F7CF15F014C0E6FFA8
:1012800015C0E6FF1DEC26F0E552E552E552020ED0
:10129000DB50E76EFE0EE7CFDBFF03D0020EDB2A4A
:1012A0000AD7640EF36E020EDBCFF4FFF350F45C4A
:1012B00001E2ABD6040E77D0FC0EDBCFE6FFFE0ECC
:1012C000DB50070D0001F751F324F66EF851F420BE
:1012D000F76E060EF626000EF722F6CF16F0F7CFC1
:1012E00017F0FD0EDB5000011624146E000E1720BF
:1012F000156E14C0E6FFE66E1DEC26F0E552E552D1
:10130000E552FE0EDB50070D0001F751F324F66E97
:10131000F851F420F76EF6CF14F0F7CF15F014C0A3
:10132000E6FF15C0E6FF0AEC25F0E552E552DF6E58
:10133000D9CFE9FFDACFEAFFEF500F0B146EFD0EA5
:10134000DB50D880145426E3FD0EDB28D9CFE9FF0B
:10135000DACFEAFFE8500F0BF36EF00EEF14F31044
:10136000EF6EDFCFE6FFFE0EDB50070D0001F751F9
:10137000F324F66EF851F420F76EF6CF14F0F7CFA1
:1013800015F014C0E6FF15C0E6FF1DEC26F0E5528F
:10139000E552E552FC0EDB5005E1010EDBCFE6FF26
:1013A000BFDBE552000E146E050EE15C02E2E16A5D
:1013B000E552E16E1450E552E7CFD9FF1200D9CFC4
:1013C000E6FFE1CFD9FFE652FE0EDBCFE6FF3CECB5
:1013D00004F0E552000952E0010EF36EFD0EDBCF82
:1013E000F4FFF350F45C02E3FA0E71D0FE0EDB5012
:1013F000070D0001F751F324F66EF851F420F76E53
:10140000F6CF14F0F7CF15F014C0E6FF15C0E6FFD5
:101410000AEC25F0E552E552DF6E010EF36EFD0E8B
:10142000DBCFF4FFF350F45C45E3D9CFE9FFDACF2B
:10143000EAFFEF50100B02E1FB0E49D0FE0EDB502D
:10144000070D0001F751F324F66EF851F420F76E02
:10145000F62A000EF722F6CF14F0F7CF15F014C0DD
:10146000E6FF15C0E6FF0AEC25F0E552E552E76E0F
:10147000FE0EE7CFDBFFDB50FF0802E1F90E27D0BD
:10148000FE0EDB50070D0001F751F324F66EF85104
:10149000F420F76EF6CF14F0F7CF15F014C0E6FF86
:1014A00015C0E6FF0AEC25F0E552E552DF6EFD0EB1
:1014B000DB06B3D7FD0EDB28146ED9CFE9FFDACFF8
:1014C000EAFFEF500F0BD880145404E2FB0EF36ECA
:1014D000F46826D0FE0EDB50070D0001F751F3240F
:1014E000F66EF851F420F76E060EF626000EF7227F
:1014F000F6CF18F0F7CF19F0FD0EDB5000011824DD
:10150000166E000E1920176E16C0E6FFE66E0AEC86
:1015100025F0E552E552146E156AF36E15C0F4FF1E
:10152000E552E552E7CFD9FF1200D9CFE6FFE1CF70
:10153000D9FF020EE126010EDB6AFE0EDBCFE6FFCD
:101540003CEC04F0E55200093EE0FE0EDB50070DD6
:101550000001F751F324F66EF851F420F76EF6CF40
:1015600014F0F7CF15F014C0E6FF15C0E6FF0AEC43
:1015700025F0E552E552DF6ED9CFE9FFDACFEAFF79
:10158000EF50100B3CE0FE0EDB50070D0001F75151
:10159000F324F66EF851F420F76EF62A000EF722C7
:1015A000F6CF14F0F7CF15F014C0E6FF15C0E6FF34
:1015B0000AEC25F0E552E552E76EFE0EE7CFDBFFC1
:1015C000DB50FF0802E1000E2AD0FE0EDB50070DB3
:1015D0000001F751F324F66EF851F420F76EF6CFC0
:1015E00014F0F7CF15F014C0E6FF15C0E6FF0AECC3
:1015F00025F0E552E552DF6E010EDB2ABDD7D9CFCB
:10160000E9FFDACFEAFFEF500F0B146E010EDBCFCC
:10161000E7FF1450E726010EE7CFDBFFDB50146E27
:10162000020EE15C02E2E16AE552E16E1450E5521D
:10163000E7CFD9FF1200D9CFE6FFE1CFD9FF030EE4
:10164000E126FE0EDBCFE6FF3CEC04F0E55200099C
:1016500001E198D0010EDB6A010EF36EDBCFF4FFDF
:10166000E850F45C01E390D0020EDB6A010EF36EE9
:10167000020EDBCFF4FFF350F45C31E2FE0EDB50E0
:10168000070D0001F751F324F66EF851F420F76EC0
:10169000060EF626000EF722F6CF16F0F7CF17F05B
:1016A000020EDB5000011624146E000E1720156E7A
:1016B00014C0E6FFE66E0AEC25F0E552E552E66E50
:1016C000010EDB50EA6AFB0FE96E000EEA22E552DA
:1016D000E750EF6E010EDB2A020EDB2AC7D7FE0EA3
:1016E000DB50070D0001F751F324F66EF851F4209A
:1016F000F76EF6CF14F0F7CF15F014C0E6FF15C063
:10170000E6FF0AEC25F0E552E552DF6ED9CFE9FF9E
:10171000DACFEAFFEF50100B14E1010EF36EDBCFCE
:10172000F4FFE850F45C0BE2010EDB50EA6AFB0FB9
:10173000E96E000EEA22EF6A010EDB2AEED7000EF8
:1017400024D0FE0EDB50070D0001F751F324F66E96
:10175000F851F420F76EF62A000EF722F6CF14F0B7
:10176000F7CF15F014C0E6FF15C0E6FF0AEC25F030
:10177000E552E552E76EFE0EE7CFDBFFDB50FF08D8
:1017800001E06AD7070E01D0000E146E030EE15C73
:1017900002E2E16AE552E16E1450E552E7CFD9FF6B
:1017A0001200D9CFE6FFE1CFD9FF050EE126FE0EEC
:1017B000DB50070D0001F751F324F66EF851F420C9
:1017C000F76EF6CF14F0F7CF15F014C0E6FF15C092
:1017D000E6FF0AEC25F0E552E552E76E040EE7CF8E
:1017E000DBFFD950040FE96EDACFEAFFEF50400B70
:1017F00005E0DBC3F3FFDCC3F4FF56D0FE0EDB5085
:10180000070D0001F751F324F66EF851F420F76E3E
:10181000020EF626000EF722F6CF14F0F7CF15F0E1
:1018200014C0E6FF15C0E6FF0AEC25F0E552E552CC
:10183000E66ED950020FE96EDACFEAFFE552E750C3
:10184000EE6EED6AFE0EDB50070D0001F751F3243A
:10185000F66EF851F420F76E020EF626000EF7220F
:10186000F6CF14F0F7CF15F0010E1426000E152256
:1018700014C0E6FF15C0E6FF0AEC25F0E552E5527C
:10188000DE6EDD6ADECF16F0DDCF17F016C017F082
:10189000166A020EDB501610146E030EDB50171082
:1018A000156E14C0F3FFF46E050EE15C02E2E16A0E
:1018B000E552E16EE552E7CFD9FF1200D9CFE6FF3E
:1018C000E1CFD9FF040EE126FE0EDB50070D00012B
:1018D000F751F324F66EF851F420F76E020EF62657
:1018E000000EF722020EF626000EF722F6CF14F0B5
:1018F000F7CF15F014C0E6FF15C0E6FF0AEC25F09F
:10190000E552E552E66ED950020FE96EDACFEAFFF2
:10191000E552E750EE6EED6AFE0EDB50070D00015A
:10192000F751F324F66EF851F420F76E020EF62606
:10193000000EF722020EF626000EF722F6CF14F064
:10194000F7CF15F0010E1426000E152214C0E6FF85
:1019500015C0E6FF0AEC25F0E552E552DE6EDD6AC1
:10196000DECF16F0DDCF17F016C017F0166A020EA4
:10197000DB501610146E030EDB501710156E14C0DA
:10198000F3FFF46E040EE15C02E2E16AE552E16EFF
:10199000E552E7CFD9FF1200D9CFE6FFE1CFD9FF5B
:1019A000050EE126060EE76EFD0EDBCFE9FFFE0E0B
:1019B000DBCFEAFFE750E926000EEA22EF50080BE2
:1019C00003E0DE6ADD6A28D0070EE76EFD0EDBCF8E
:1019D000E9FFFE0EDBCFEAFFE750E926000EEA2220
:1019E000EF50DE6EDD6ADECF14F0DDCF15F014C0EF
:1019F00015F0146A14C0DEFF15C0DDFF080EE76E97
:101A0000FD0EDBCFE9FFFE0EDBCFEAFFE750E92654
:101A1000000EEA22EF50DF12090EE76EFD0EDBCF5B
:101A2000E9FFFE0EDBCFEAFFE750E926000EEA22CF
:101A3000EF50E66ED950020FE96EDACFEAFFE552B9
:101A4000E750EE6EED6A020EDBCF14F0030E14C009
:101A500015F0146A020E14C0DBFF030E15C0DBFF85
:101A60000A0EE76EFD0EDBCFE9FFFE0EDBCFEAFFCD
:101A7000E750E926000EEA22EF50146E156AD9509D
:101A8000020FE96EDACFEAFF1450EE121550ED1294
:101A9000020EDBCFE6FF030EDBCFE6FFDECFE6FF75
:101AA000DDCFE6FF7AEC07F0E552E552E552E5526C
:101AB000E76E040EE7CFDBFFDB50FF0810E0FD0E02
:101AC000DBCFE6FFFE0EDBCFE6FF040EDBCFE6FF4B
:101AD000DEEC2DF0E552E552E552010E01D0000E8C
:101AE000146E050EE15C02E2E16AE552E16E14500B
:101AF000E552E7CFD9FF1200D9CFE6FFE1CFD9FFFA
:101B0000FE0EDB04E552E7CFD9FF1200D9CFE6FF86
:101B1000E1CFD9FFFE0EDB28E552E7CFD9FF120057
:101B2000D9CFE6FFE1CFD9FFE652FE0EDBCFE6FFCD
:101B30003CEC04F0E55200091BE0FE0EDBCFE6FFB3
:101B40007ADDE552000914E1DF6A010EDF5C0AE28A
:101B5000DF50EA6AFB0FE96E000EEA22EF5008E15F
:101B6000DF2AF3D7FE0EDBCFE6FFBFEC05F0E55230
:0A1B7000E552E552E7CFD9FF12005D
:061B7A00FB0EE66E030EF7
:101B8000E66EA1EC26F0E552E5520301666F676F41
:101B9000000EE66EE66AF4EC2AF0E552E5523BEC04
:101BA00004F00301FE6B0301660502E0000E01D0A4
:101BB000010EE66EAEEC36F0E5520301FF6B12004B
:101BC00003016651090A01E197D00D0A01E185D0B0
:101BD000070A6AE0010A20E0030A03E0010A01E0C3
:101BE000120080B4B2D066C367F3020E666FDCC326
:101BF00014F0156A14500301E46F0301DB51030173
:101C0000E56FAEEC37F006C068F307C069F308C0B3
:101C10006AF309C06BF3120080B420D0AEEC37F049
:101C200003016851065C146E69510758156E6A51BC
:101C30000858166E6B510958176ED880900E1454C0
:101C4000D00E1554030E1654000E17542CE2030E3A
:101C5000666FE66AC8EC36F0E5521200670521E1CE
:101C6000AEEC37F003016851065C146E69510758F9
:101C7000156E6A510858166E6B510958176ED88048
:101C80006A0E1454180E1554000E1654000E1754F4
:101C900008E2040E666FE66AC8EC36F0E552A6EF7D
:101CA0000EF067C366F3120080A44FD0675104E1C1
:101CB000040E666FA6EF0EF0666B67D8A4EC36F0E4
:101CC0000301DB6BDC6BE66ADBC3E6FFDCC3E6FF2C
:101CD0002BEC15F0E552E55234D080B436D0090E25
:101CE000666FAEEC37F006C068F307C069F308C052
:101CF0006AF309C06BF3120080A427D0AEEC37F072
:101D000003016851065C146E69510758156E6A51DB
:101D10000858166E6B510958176ED8806A0E145405
:101D2000180E1554000E1654000E17540CE267C31B
:101D300066F3660502E0000E01D0010EE66EAEEC21
:101D400036F0E5521200040E666F1200D9CFE6FF9E
:101D5000E1CFD9FF090EE126D9CFE6FFDACFE6FFC2
:101D6000E668E668500EE66EE6686AEC2BF0146EE4
:101D7000060EE15E1450090EE15C02E2E16AE552F2
:101D8000E16EE552E7CFD9FF1200DD0EE66E030EDD
:101D9000E66EE668E668510EE66EE6686AEC2BF0E1
:101DA000146E060EE15E14501200D9CFE6FFE1CFAB
:101DB000D9FF060EE76EFD0EDBCFE9FFFE0EDBCF8F
:101DC000EAFFE750E926000EEA22EF50900B900858
:101DD00019E1060EE76EFD0EDBCFE9FFFE0EDBCF4D
:101DE000EAFFE750E926000EEA22EF1C060B060880
:101DF00009E1FD0EDBCFE6FFFE0EDBCFE6FFCCEC0C
:101E00000CF007D0FD0EDBCFE6FFFE0EDBCFE6FFCA
:101E100006D8E552E552E552E7CFD9FF1200D9CFF7
:101E2000E6FFE1CFD9FF0C01006B070E0301665DF1
:101E300001E0DAD10C01010E006F060EE76EFD0E17
:101E4000DBCFE9FFFE0EDBCFEAFFE750E926000E0D
:101E5000EA22EF50B20A01E15FD1470A01E1E9D07D
:101E6000270A74E0470A1BE0C00A16E0010A10E0E6
:101E7000070A01E0B6D1FD0EDBCFE6FFFE0EDBCF99
:101E8000E6FFE2EC14F0E552E552000901E0ACD1C6
:101E90000301010E666FA8D14FEC15F0A5D1090E14
:101EA000E76EFD0EDBCFE9FFFE0EDBCFEAFFE7506A
:101EB000E926000EEA22EFCF16F016C017F0166AD8
:101EC0000A0EE76EFD0EDBCFE9FFFE0EDBCFEAFF69
:101ED000E750E926000EEA22EF5000011624146EA6
:101EE000000E1720156E14C0E6FF15C0E6FF070EA2
:101EF000E76EFD0EDBCFE9FFFE0EDBCFEAFFE7501A
:101F0000E926000EEA22EFCF1AF01AC01BF01A6A77
:101F1000080EE76EFD0EDBCFE9FFFE0EDBCFEAFF1A
:101F2000E750E926000EEA22EF5000011A24186E4D
:101F3000000E1B20196E18C0E6FF19C0E6FF3DEC2D
:101F400016F0E552E552E552E5524ED10C0EE76E21
:101F5000FD0EDBCFE9FFFE0EDBCFEAFFE750E926FF
:101F6000000EEA22EF50E66E0B0EE76EFD0EDBCFA1
:101F7000E9FFFE0EDBCFEAFFE750E926000EEA227A
:101F8000EF50E66E090EE76EFD0EDBCFE9FFFE0EA9
:101F9000DBCFEAFFE750E926000EEA22EFCF16F08A
:101FA00016C017F0166A0A0EE76EFD0EDBCFE9FFCA
:101FB000FE0EDBCFEAFFE750E926000EEA22EF50E3
:101FC00000011624146E000E1720156E14C0E6FFD3
:101FD00015C0E6FF070EE76EFD0EDBCFE9FFFE0E34
:101FE000DBCFEAFFE750E926000EEA22EFCF1AF036
:101FF0001AC01BF01A6A080EE76EFD0EDBCFE9FF70
:10200000FE0EDBCFEAFFE750E926000EEA22EF5092
:1020100000011A24186E000E1B20196E18C0E6FF6E
:1020200019C0E6FF6CEC15F01C6E060EE15E1C504C
:10203000DBD00D0EE76EFD0EDBCFE9FFFE0EDBCF32
:10204000EAFFE750E926000EEA22EF50E66E0C0E9A
:10205000E76EFD0EDBCFE9FFFE0EDBCFEAFFE750B8
:10206000E926000EEA22EF50E66E090EE76EFD0E3D
:10207000DBCFE9FFFE0EDBCFEAFFE750E926000EDB
:10208000EA22EFCF16F016C017F0166A0A0EE76EB6
:10209000FD0EDBCFE9FFFE0EDBCFEAFFE750E926BE
:1020A000000EEA22EF5000011624146E000E1720D5
:1020B000156E14C0E6FF15C0E6FF070EE76EFD0EB5
:1020C000DBCFE9FFFE0EDBCFEAFFE750E926000E8B
:1020D000EA22EFCF1AF01AC01BF01A6A080EE76E58
:1020E000FD0EDBCFE9FFFE0EDBCFEAFFE750E9266E
:1020F000000EEA22EF5000011A24186E000E1B2079
:10210000196E18C0E6FF19C0E6FF6CEC15F01C6EE6
:10211000060EE15E1C5068D00B0EE76EFD0EDBCFA5
:10212000E9FFFE0EDBCFEAFFE750E926000EEA22C8
:10213000EF50E66E090EE76EFD0EDBCFE9FFFE0EF7
:10214000DBCFEAFFE750E926000EEA22EFCF16F0D8
:1021500016C017F0166A0A0EE76EFD0EDBCFE9FF18
:10216000FE0EDBCFEAFFE750E926000EEA22EF5031
:1021700000011624146E000E1720156E14C0E6FF21
:1021800015C0E6FF070EE76EFD0EDBCFE9FFFE0E82
:10219000DBCFEAFFE750E926000EEA22EFCF1AF084
:1021A0001AC01BF01A6A080EE76EFD0EDBCFE9FFBE
:1021B000FE0EDBCFEAFFE750E926000EEA22EF50E1
:1021C00000011A24186E000E1B20196E18C0E6FFBD
:1021D00019C0E6FF57EC16F01C6E050EE15E1C50B0
:1021E00003D00C01006B00D00C01005101E0E9D0DC
:1021F000FD0EDBCFE6FFFE0EDBCFE6FFE3DBE552B5
:10220000E552000901E1DDD00C01010E006F060E60
:10221000E76EFD0EDBCFE9FFFE0EDBCFEAFFE750F6
:10222000E926000EEA22EF505D0A01E1C1D0280A3A
:1022300001E1A6D0290A01E198D0C00A75E00A0A96
:1022400053E0E70A40E0290A3BE02A0A27E0250A92
:1022500022E0010A1DE0050A14E0200A01E0AED0E8
:10226000090EE76EFD0EDBCFE9FFFE0EDBCFEAFFC6
:10227000E750E926000EEA22EF50E66E5ED9E552FD
:10228000A0D00301660503E10301070E666F99D034
:1022900097EC04F096D0E7EC04F093D0090EE76ECB
:1022A000FD0EDBCFE9FFFE0EDBCFEAFFE750E926AC
:1022B000000EEA22EF50E66EEDEC04F0E55281D01C
:1022C00065EC05F07ED0090EE76EFD0EDBCFE9FF71
:1022D000FE0EDBCFEAFFE750E926000EEA22EF50C0
:1022E000E66EB3D9E5526DD00A0EE76EFD0EDBCF78
:1022F000E9FFFE0EDBCFEAFFE750E926000EEA22F7
:10230000EF50E66E090EE76EFD0EDBCFE9FFFE0E25
:10231000DBCFEAFFE750E926000EEA22EF50E66E37
:10232000D9D9E552E5524DD00A0EE76EFD0EDBCF4E
:10233000E9FFFE0EDBCFEAFFE750E926000EEA22B6
:10234000EF50E66E090EE76EFD0EDBCFE9FFFE0EE5
:10235000DBCFEAFFE750E926000EEA22EF50E66EF7
:10236000B0EC15F0E552E5522CD0E668E668030EB5
:10237000E66ECBEC26F0E552E552E552FF0021D0A7
:10238000090EE76EFD0EDBCFE9FFFE0EDBCFEAFFA5
:10239000E750E926000EEA22EF50E66E2AEC1FF025
:1023A000E552000904E1070EE66EF1DAE55209D0C4
:1023B000010EE66EA5EC22F0E55203D00C01006B95
:1023C00000D00C01005115E1060EE76EFD0EDBCFCB
:1023D000E9FFFE0EDBCFEAFFE750E926000EEA2216
:1023E000EF500D0A01E005D06FD80C01010E006F0F
:1023F00000D00C0100512CE1040E0301665D28E1C0
:102400000C01010E006F060EE76EFD0EDBCFE9FF3B
:10241000FE0EDBCFEAFFE750E926000EEA22EF507E
:10242000420A09E0530A05E0010A01E00ED0C2D9D0
:102430000FD00DDA0DD0FD0EDBCFE6FFFE0EDBCFA9
:10244000E6FF5EDAE552E55203D00C01006B00D0E6
:102450000C01005100D0E552E7CFD9FF1200D9CFCF
:10246000E6FFE1CFD9FF020EE126200EDE6E080E58
:10247000DD6E070E0301665D0CE1DECFF6FFDDCFFA
:10248000F7FF070EF626000EF7220800F550240984
:102490000FD066050CE1DECFF6FFDDCFF7FF070EAC
:1024A000F626000EF7220800F550040901D0000EB0
:1024B000146E020EE15C02E2E16AE552E16E145034
:1024C000E552E7CFD9FF1200D9CFE6FFE1CFD9FF20
:1024D000020EE126200EDE6E080EDD6E0301B60E42
:1024E000E36FDECFF6FFDDCFF7FF0800F5CFE6F3B1
:1024F000DECFF6FFDDCFF7FF020EF626000EF72245
:102500000800F5CFE7F3ABDF0301E86FDD0EE66E01
:10251000030EE66EE668E668E668D1EC2CF0146E11
:10252000050EE15E1450020EE15C02E2E16AE55242
:10253000E16EE552E7CFD9FF1200D9CFE6FFE1CF38
:10254000D9FF020EE126200EDE6E080EDD6EFE0EB5
:10255000DBCF14F0380EF66E080EF76E0900F5CFDB
:1025600015F00800F5CF16F01450155C000E165843
:102570005EE303019B0EE36FFE0EDBCFE6F3DB5061
:1025800004E1380EF66E080E37D00F0EF36EFE0E15
:10259000DBCFF4FFF350F45C20E3130EF36EFE0E7A
:1025A000DBCFF4FFF350F45C18E2A8EC27F0F3CF94
:1025B00016F0F4CF17F0FE0EDB50F10F080DF350BC
:1025C00016C014F017C015F005E0D890153214327B
:1025D000E804FBE114C0E7F313D0DECFF6FFDDCF54
:1025E000F7FFF6CF14F0F7CF15F0FE0EDB040F0166
:1025F0001424F66E000E1520F76E0800F5CFE7F3F1
:10260000FE0EDB50080805E10301660502E1030147
:10261000E785DD0EE66E030EE66EE668E668E668C0
:10262000D1EC2CF0146E050EE15E145004D0090EAE
:10263000E66EADD9E552020EE15C02E2E16AE552D6
:10264000E16EE552E7CFD9FF1200D9CFE6FFE1CF27
:10265000D9FF020EE126FE0EDB500CE0FE0EDB5031
:10266000146E156AD890155004E6FF0E145C000E27
:10267000155804E30A0EE66E8AD921D0DE6A7F0E71
:10268000DD6EFE0EDB50DE26000EDD220301970E0E
:10269000E36FFE0EDBCFE6F3DECFE6FFDDCFE6FF36
:1026A0000AEC25F0E552E5520301E76FDD0EE66E18
:1026B000030EE66EE66A99EC2CF0E552E552E5521F
:1026C000020EE15C02E2E16AE552E16EE552E7CF1B
:1026D000D9FF1200D9CFE6FFE1CFD9FF030EE126E3
:1026E000FE0EDB500CE0FE0EDB50146E156AD89027
:1026F000155004E6FF0E145C000E155802E30A0E96
:102700004CD0DE6A7F0EDD6EFE0EDB50DE26000E44
:10271000DD22FE0EDB500001F76AF925F66EFA5154
:10272000F7220800020EF5CFDBFFFD0EDBCFE6FF40
:10273000020EDBCFE6FFFE0EDBCFE6FF86EC38F0C5
:10274000E552E552E552000927E0FD0EDBCFE6FF3A
:10275000DECFE6FFDDCFE6FF1DEC26F0E552E552C9
:10276000E552FD0EDBCFE6FF020EDBCFE6FFFE0EED
:10277000DBCFE6FF8DEC38F0E552E552E552DD0E99
:10278000E66E030EE66E590EE66EE66A46EC2BF038
:10279000E552E552E55203D00C0EE66EF8D8E5524C
:1027A000030EE15C02E2E16AE552E16EE552E7CF39
:1027B000D9FF1200D9CFE6FFE1CFD9FF030EE12602
:1027C000200EDE6E080EDD6E0301EF0EE36F070EC6
:1027D000F36E020EF3CFDBFFDB500D0821E3DECFFB
:1027E000F6FFDDCFF7FFF6CF14F0F7CF15F0020EAE
:1027F000DB50F90F0F011424F66E000E1520F76E52
:102800000800F550E66E020EDB50EA6ADD0FE96E55
:10281000030EEA22E552E750EF6E020EDB2ADCD708
:102820001EDE0301EB6FDD0EE66E030EE66EE66A5A
:1028300024EC2DF0E552E552E552030EE15C02E294
:10284000E16AE552E16EE552E7CFD9FF1200D9CF38
:10285000E6FFE1CFD9FF080EE1263A0EF66E080E2C
:10286000F76E040E0900F5CFDBFF050E0900F5CF6A
:10287000DBFF060E0900F5CFDBFF070E0900F5CFE1
:10288000DBFF040EDBCF08F0050EDBCF09F0020EF4
:1028900008C0DBFF030E09C0DBFF0301E20EE36F9C
:1028A000DF6A070EDF5C18E2020EDBCFF6FFDB2AE1
:1028B000030EDBCFF7FF01E3DB2A0800F550E66EDD
:1028C000070EDF24EA6ADD0FE96E030EEA22E55205
:1028D000E750EF6EDF2AE5D7DD0EE66E030EE66EFB
:1028E000E66A24EC2DF0E552E552E552080EE15C73
:1028F00002E2E16AE552E16EE552E7CFD9FF12004C
:10290000D9CFE6FFE1CFD9FF070EE76EFD0EDBCF93
:10291000E9FFFE0EDBCFEAFFE750E926000EEA22D0
:10292000EF500301DC6BDC6FDB6B080EE76EFD0E16
:10293000DBCFE9FFFE0EDBCFEAFFE750E926000E12
:10294000EA22EF50146E156AE850DB271550DC239D
:102950000301010E666FE66EDBC3E6FFDCC3E6FF34
:102960007AD8E552E552E552DD0EE66E030EE66ECC
:10297000520EE66EE66A46EC2BF0E552E552E55261
:10298000E552A9EC36F0E552E7CFD9FF1200D9CFD6
:10299000E6FFE1CFD9FF03016F0EE36FFE0EDBCF41
:1029A000E6F3DD0EE66E030EE66EE668E668E668C0
:1029B000D1EC2CF0146E050EE15E1450E552E7CF19
:1029C000D9FF1200D9CFE6FFE1CFD9FF060EE76E9F
:1029D000FD0EDBCFE9FFFE0EDBCFEAFFE750E92675
:1029E000000EEA22EF50E00BE838E840146E020EC9
:1029F000145C2CE3070EE76EFD0EDBCFE9FFFE0E45
:102A0000DBCFEAFFE750E926000EEA22EFCF17F00E
:102A100017C018F0176A080EE76EFD0EDBCFE9FF4E
:102A2000FE0EDBCFEAFFE750E926000EEA22EF5068
:102A30001724156E000E1820166E0301DB511518B1
:102A400005E1DC51161802E1010E01D0000EE5523D
:102A5000E7CFD9FF1200D9CFE6FFE1CFD9FFFD0EB6
:102A6000DBCFE6FFFE0EDBCFE6FFFC0EE66E030ECD
:102A7000E66E66EC27F0E552E552E552E552FC0EB3
:102A8000DBCFE6FFFB0EE66E030EE66ECBEC26F028
:102A9000E552E552E552E552E7CFD9FF1200070EA5
:102AA0000301665D08E16EEC04F0DD0EE66E030ED8
:102AB000E66E590E08D00301020EE66FDD0EE66EDB
:102AC000030EE66E6F0EE66EE66A46EC2BF0E552FC
:102AD000E552E552E5521200D9CFE6FFE1CFD9FF2A
:102AE000E652FA0EDB5004E10301060EE66F20D039
:102AF000FA0EDB06E66AF90EDBCFE6FFFA0EDBCF55
:102B0000E6FFFB0EDBCFE6FFFC0EDBCFE6FFFD0EA4
:102B1000DBCFE6FFFE0EDBCFE6FF60EC06F0146EC7
:102B2000070EE15E1450DF6EDF5008E0DFCFE6F302
:102B3000DD0EE66E030EE66E6F0E05D0DD0EE66E60
:102B4000030EE66E590EE66EE66A46EC2BF0E55291
:102B5000E552E552E552E552E552E7CFD9FF1200C2
:102B6000D9CFE6FFE1CFD9FF040EE126FE0EDBCF81
:102B7000E6FF7CEC0DF0E552E76E010EE7CFDBFFE0
:102B8000FD0EDB50010803E20301060E5ED0FD0ED0
:102B9000DB04DF6E640EF36E010EDBCFF4FFF35047
:102BA000F45C51E2010EDBCFE6FF3CEC04F0E552B1
:102BB000000949E0FD0EDB5011E1010EDBCFE6FF1D
:102BC00095EC0AF0E552E66ED950020FE96EDACFC5
:102BD000EAFFE552E750EE6EED6A0FD0DFCFE6FF79
:102BE000010EDBCFE6FFDFEC09F0E552E552020E05
:102BF000F3CFDBFF030EF4CFDBFF020EDBCF14F0CD
:102C0000030EDBCF15F00001800E15140FE1FE0E50
:102C1000DBCFE6F3FD0EDBCFE7F3020EDBCFE8F30D
:102C2000DD0EE66E030EE66EB50E15D00868096877
:102C3000020EDBCF0DF0030EDBCF0EF00FEC38F001
:102C400006C0E6F303D00301070EE66FDD0EE66E65
:102C5000030EE66E6F0EE66EE66A46EC2BF0E5526A
:102C6000E552E552E552040EE15C02E2E16AE5520A
:102C7000E16EE552E7CFD9FF1200D9CFE6FFE1CFF1
:102C8000D9FFFB0EDBCFE6FFFC0EDBCFE6FFFD0E30
:102C9000DBCFE6FFFE0EDBCFE6FF9AEC05F0E55258
:102CA000E552E552E552E552E7CFD9FF1200D9CF00
:102CB000E6FFE1CFD9FF030EE126FB0EDBCFE6FFF7
:102CC000FC0EDBCFE6FFFD0EDBCFE6FFFE0EDBCF1B
:102CD000E6FF7AEC07F0E552E552E552E552E76E81
:102CE000020EE7CFDBFFDB50FF0803E10301070E15
:102CF00006D0FA0EDB50010804E20301060EE66F6F
:102D000050D0FB0EDBCF14F0FC0EDBCF15F015C05E
:102D100014F0156A14C0E6F3FF0EE76EFB0EDBCF6E
:102D200014F0FC0EDBCF15F0E7501416156A14C032
:102D3000E7F3FA0EDBCFE8F3DB5009E1020EDBCF5D
:102D4000E6FF95EC0AF0E552DE6EDD6A10D0FA0E71
:102D5000DB06FA0EDBCFE6FF020EDBCFE6FFDFEC91
:102D600009F0E552E552F3CFDEFFF4CFDDFFDECF11
:102D700014F0DDCF15F00001800E151408E1DFCF4F
:102D8000E9F3DD0EE66E030EE66ED30E0FD0086893
:102D90000968DECF0DF0DDCF0EF00FEC38F006C085
:102DA000E6F3DD0EE66E030EE66E6F0EE66EE66A85
:102DB00046EC2BF0E552E552E552E552030EE15C9C
:102DC00002E2E16AE552E16EE552E7CFD9FF120077
:102DD000D9CFE6FFE1CFD9FF020EE1260E017C0E2E
:102DE000006F7B0E016F240E026F790E036FDF6A96
:102DF000320EDF5C09E2DF50EA6A090FE96E0E0E5F
:102E0000EA22EF6ADF2AF4D7230EE66E790EE66E29
:102E10000AEC25F0E552E5520E01046F220EE66E33
:102E2000790EE66E0AEC25F0E552E5520E01056FCB
:102E3000210EE66E790EE66E0AEC25F0E552E552BB
:102E40000E01066F200EE66E790EE66E0AEC25F096
:102E5000E552E5520E01076FDF6A0E010451DF5C97
:102E600044E2DF50040D0051F324F66E0151F420CA
:102E7000F76EF62A000EF722F6CF14F0F7CF15F012
:102E800014C0E6FF15C0E6FF0AEC25F0E552E55256
:102E9000E76E010EE7CFDBFFDF50040D0E0100519E
:102EA000F324F66E0151F420F76EF6CF14F0F7CF4D
:102EB00015F014C0E6FF15C0E6FF0AEC25F0E55258
:102EC000E5520E01086F010EDBCFE6FF08EC1CF0A7
:102ED000E552E66EDF50EA6A090FE96E0E0EEA224D
:102EE000E552E750EF6EDF2AB8D7020EE15C02E24E
:102EF000E16AE552E16EE552E7CFD9FF1200D9CF82
:102F0000E6FFE1CFD9FF040EE1268A88DF6A0E01D1
:102F10000451DF5C01E389D0DF50040D0051F3243C
:102F2000F66E0151F420F76EF62A000EF722F6CF66
:102F300014F0F7CF15F014C0E6FF15C0E6FF0AEC59
:102F400025F0E552E552E76E020EE7CFDBFFDF50DA
:102F5000040D0E010051F324F66E0151F420F76EBA
:102F6000F6CF14F0F7CF15F014C0E6FF15C0E6FF5A
:102F70000AEC25F0E552E5520E01086F020EDBCF98
:102F8000E6FF08EC1CF0E552E76E010EE7CFDBFF31
:102F9000DF50EA6A090FE96E0E0EEA22EFCF14F055
:102FA000010EDB50145C3FE0DF50EA6A090FE96E66
:102FB0000E0EEA22010EDBCFEFFFDB500BE0DF50FD
:102FC000040D0E010051F324F66E0151F420F76E4A
:102FD000020E0AD0DF50040D0E010051F324F66EEC
:102FE0000151F420F76E030EF626000EF722F6CFFD
:102FF00014F0F7CF15F014C0E6FF15C0E6FF0AEC99
:1030000025F0E552E552E76E020EE7CFDBFFDB501D
:10301000E76E030EE7CFDBFFDBCFE6FFC2EC35F058
:10302000E55292EC36F0DF2A72D78A98040EE15C02
:1030300002E2E16AE552E16EE552E7CFD9FF120004
:10304000D9CFE6FFE1CFD9FF040EE1260E01066BD2
:10305000046B056B010E076F0E01065101E0E6D00F
:103060000751072BE66EB4EC38F0E552E76E010E1F
:10307000E7CFDBFFFE0EF36E010EDBCFF4FFF35064
:10308000F45C01E3D3D0010EDB50F50803E00E0140
:10309000050E3CD051EC1EF0E76E020EE7CFDBFFD1
:1030A000000EF36E020EDBCFF4FFF350F45C03E28C
:1030B0000E01010E2BD00E010751072BE66EB4EC6A
:1030C00038F0E552E66E020EDB50040D0E010051A1
:1030D000F324F66E0151F420F76EF6CF14F0F7CF1B
:1030E00015F014C0E6FF15C0E6FF1DEC26F0E55212
:1030F000E552E55259EC1EF0E76E030EE7CFDBFF19
:10310000DB50FF0805E10E010407020E066F8ED0AA
:10311000030EDBCFE6FF020EDB50040D0E01005163
:10312000F324F66E0151F420F76EF62A000EF72212
:10313000F6CF14F0F7CF15F014C0E6FF15C0E6FF88
:103140001DEC26F0E552E552E552030EDBCFE6FF1B
:10315000A3D8E5520E01065169E107CEE6FF020E43
:10316000DB50040D0051F324F66E0151F420F76E8C
:10317000020EF626000EF722F6CF14F0F7CF15F068
:1031800014C0E6FF15C0E6FF1DEC26F0E552E5523F
:10319000E55201DB0E01065149E107CEE6FFB4EC32
:1031A00038F0E552E76E010EE7CFDBFFDB50EB08AE
:1031B00020E10E01072B07CEE6FF020EDB50040DC7
:1031C0000051F324F66E0151F420F76E030EF6263B
:1031D000000EF722F6CF14F0F7CF15F014C0E6FF7B
:1031E00015C0E6FF1DEC26F0E552E552E552D3DAB4
:1031F00033D7E66A020EDB50040D0E010051F324B2
:10320000F66E0151F420F76E030EF626000EF7223B
:10321000F6CF14F0F7CF15F014C0E6FF15C0E6FFA7
:103220001DEC26F0E552E552E55216D704CEE6FF36
:10323000230EE66E790EE66E1DEC26F0E552E552A1
:10324000E55205CEE6FF220EE66E790EE66E1DEC27
:1032500026F0E552E552E55206CEE6FF210EE66E77
:10326000790EE66E1DEC26F0E552E552E55207CEEA
:10327000E6FF200EE66E790EE66E1DEC26F0E552B6
:10328000E552E552040EE15C02E2E16AE552E16ECC
:10329000E552E7CFD9FF1200D9CFE6FFE1CFD9FF42
:1032A000050EE1260E010751072BE66EB4EC38F04F
:1032B000E552DF6EFE0EDB50146E156AD890155085
:1032C00004E6C80E145C000E155801E35AD2C80E6D
:1032D000DF5C03E20E01050EC9D1DFCFE6FFFE0E73
:1032E000DB50030D0E010251F324F66E0351F4205E
:1032F000F76EF6CF14F0F7CF15F014C0E6FF15C047
:10330000E6FF1DEC26F0E552E552E552DF50F60AE5
:1033100001E1D4D10E0A01E1D1D10B0A01E1CED1F4
:10332000070A01E1CBD1050A01E1C8D1030A01E195
:10333000C5D11D0A01E1C2D11F0A01E1BFD11D0A99
:1033400001E1BCD1030A01E1B9D1190A01E184D13B
:103350001B0A01E159D10D0A01E124D1030A01E15F
:1033600021D1010A01E11ED1070A01E11BD1010AA5
:1033700001E118D11C0A01E1E6D0190A01E1B2D03D
:103380001A0A01E1AFD0240A61E0380A03E00C0A0E
:1033900001E0F4D10E010751072BE66EB4EC38F0D2
:1033A000E552E76E010EE7CFDBFFDBCFE6FFFE0E57
:1033B000DB50030D0E010251F324F66E0351F4208D
:1033C000F76EF62A000EF722F6CF14F0F7CF15F0BD
:1033D00014C0E6FF15C0E6FF1DEC26F0E552E552ED
:1033E000E552010EDB507F0B630801E20AD10E01AA
:1033F0000751072BE66EB4EC38F0E552E76E010E8C
:10340000E7CFDBFFDBCFE6FFFE0EDB50030D0E0147
:103410000251F324F66E0351F420F76E020EF626E5
:10342000000EF722F6CF14F0F7CF15F014C0E6FF28
:1034300015C0E6FF1DEC26F0E552E552E552010EFF
:10344000DB507F0B630801E39CD1DBD00E010751F9
:10345000072BE66EB4EC38F0E552E76E020EE7CFCC
:10346000DBFFDBCFE6FFFE0EDB50030D0E0102514A
:10347000F324F66E0351F420F76EF62A000EF722BD
:10348000F6CF14F0F7CF15F014C0E6FF15C0E6FF35
:103490001DEC26F0E552E552E552010E07CEDBFFAA
:1034A000DBCFE6FFFE0EDB50030D0E010251F324CD
:1034B000F66E0351F420F76E020EF626000EF72288
:1034C000F6CF14F0F7CF15F014C0E6FF15C0E6FFF5
:1034D0001DEC26F0E552E552E552020EDB500E01DE
:1034E00007274FD10E010751072BE66EB4EC38F0D9
:1034F000E552E76E010EE7CFDBFFDBCFE6FFFE0E06
:10350000DB50030D0E010251F324F66E0351F4203B
:10351000F76EF62A000EF722F6CF14F0F7CF15F06B
:1035200014C0E6FF15C0E6FF1DEC26F0E552E5529B
:10353000E552010EDB5065E0010EDB507F0B6408A5
:1035400001E31FD15ED00E010751072BE66EB4ECEC
:1035500038F0E552E76E010EE7CFDBFFDBCFE6FF89
:10356000FE0EDB50030D0E010251F324F66E0351E3
:10357000F420F76EF62A000EF722F6CF14F0F7CFFC
:1035800015F014C0E6FF15C0E6FF1DEC26F0E5526D
:10359000E552E552010EDB50010801E3F2D00E01C5
:1035A000090E64D00E010751072BE66EB4EC38F01B
:1035B000E552E76E010EE7CFDBFFDBCFE6FFFE0E45
:1035C000DB50030D0E010251F324F66E0351F4207B
:1035D000F76EF62A000EF722F6CF14F0F7CF15F0AB
:1035E00014C0E6FF15C0E6FF1DEC26F0E552E552DB
:1035F000E552010EDB5005E0010EDB50640801E3EB
:10360000C0D00E01070E32D00E010751072BE66E17
:10361000B4EC38F0E552E76E010EE7CFDBFFDBCF0D
:10362000E6FFFE0EDB50030D0E010251F324F66E91
:103630000351F420F76EF62A000EF722F6CF14F0AD
:10364000F7CF15F014C0E6FF15C0E6FF1DEC26F01D
:10365000E552E552E55295D02CDBE76E040EE7CF3C
:10366000DBFFDB50FF0804E10E01020E066F89D07C
:10367000040EDBCFE6FFFE0EDB50030D0E01025100
:10368000F324F66E0351F420F76EF62A000EF722AB
:10369000F6CF14F0F7CF15F014C0E6FF15C0E6FF23
:1036A0001DEC26F0E552E552E552040EDBCFE6FFB5
:1036B000F3DDE5520E01065164E063D0FADAE76EFD
:1036C000040EE7CFDBFFDB50FF082DE0040EDBCF5D
:1036D000E6FFFE0EDB50030D0E010251F324F66EE1
:1036E0000351F420F76EF62A000EF722F6CF14F0FD
:1036F000F7CF15F014C0E6FF15C0E6FF1DEC26F06D
:10370000E552E552E552040EDBCFE6FFC5DDE5529A
:103710000E01065136E1CDDAE76E040EE7CFDBFF8E
:10372000DB50FF0804E10E01020E066F2AD0040EE2
:10373000DBCFE6FFFE0EDB50030D0E010251F3243A
:10374000F66E0351F420F76E020EF626000EF722F5
:10375000F6CF14F0F7CF15F014C0E6FF15C0E6FF62
:103760001DEC26F0E552E552E552040EDBCFE6FFF4
:1037700093DDE5520E01065104E003D00E01050E63
:10378000066F050EE15C02E2E16AE552E16EE55288
:10379000E7CFD9FF1200D9CFE6FFE1CFD9FF020E64
:1037A000E126DF6A0E010751072BE66EB4EC38F014
:1037B000E552DF6EDF50FC0A0DE0010A08E0060A60
:1037C00006E00E010707020EE15C1DE21AD00E01B1
:1037D000072BE8D70E010751072BE66EB4EC38F043
:1037E000E552E76E010EE7CFDBFFDB50E00BE83878
:1037F000E840E76E010EE7CFDBFFDB500E01072745
:10380000D1D7E16AE552E16EE552E7CFD9FF120068
:10381000D9CFE6FFE1CFD9FF030EE126FE0EDB5044
:10382000030D0E010251F324F66E0351F420F76EDE
:10383000F6CF14F0F7CF15F014C0E6FF15C0E6FF81
:103840000AEC25F0E552E552DF6EFE0EDB50030D6B
:103850000E010251F324F66E0351F420F76EF62A9E
:10386000000EF722F6CF14F0F7CF15F014C0E6FFE4
:1038700015C0E6FF0AEC25F0E552E552E76E010EB1
:10388000E7CFDBFFFE0EDB50030D0E010251F324E8
:10389000F66E0351F420F76E020EF626000EF722A4
:1038A000F6CF14F0F7CF15F014C0E6FF15C0E6FF11
:1038B0000AEC25F0E552E552E76E020EE7CFDBFF9A
:1038C000DF50F70A01E123D11B0A01E11DD1150ADE
:1038D00001E10BD1190A01E1F9D01A0A01E1E8D09E
:1038E0001F0A01E1D0D0010A01E1B9D0060A01E1C5
:1038F00097D0030A01E180D0020A01E17DD03D0AA0
:1039000001E170D0340A55E00C0A3EE0FE0EDB50B7
:10391000030D0E010251F324F66E0351F420F76EED
:10392000020EF626000EF722F6CF14F0F7CF15F0B0
:1039300014C0E6FF15C0E6FF0AEC25F0E552E5529B
:10394000E76E020EE7CFDBFFDF50EE0A01E188D120
:10395000030A01E174D11D0A01E15ED11F0A01E1F0
:1039600049D11D0A01E133D1030A01E11ED1050A43
:1039700001E109D1070A01E1F3D00B0A01E1E1D02D
:103980000E0A01E1CDD07DD1010EDB507F0B146E0C
:10399000640E145C01E378D1020EDB507F0B146ED1
:1039A000640E145C01E370D1020EDBCFE6FF010E62
:1039B00014D0010EDB507F0B146E640E145C01E317
:1039C00063D1020EDB507F0B146E640E145C01E3B6
:1039D0005BD1010EDBCFE6FF020EDBCFE6FF37EC5B
:1039E0002FF008D0020EDBCFE6FF010EDBCFE6FFA3
:1039F000D9EC2FF0E55277D0640EF36E010EDBCFD9
:103A0000F4FFF350F45C01E33FD1010EDB50EA6AAE
:103A1000010FE96E030EEA22EF0401E10ED134D169
:103A2000640EF36E010EDBCFF4FFF350F45C01E3A0
:103A30002BD1010EDB50EA6A010FE96E030EEA2278
:103A4000EF5001E1FAD0010EDB50EA6A010FE96E96
:103A5000030EEA22EF50020801E1EFD015D1640E07
:103A6000F36E010EDBCFF4FFF350F45C01E30CD1F5
:103A7000010EDB50EA6A010FE96E030EEA22EF50F5
:103A800001E1DBD001D1640EF36E010EDBCFF4FF58
:103A9000F350F45C01E3F8D0010EDB50EA6A010F49
:103AA000E96E030EEA22EF50020801E1C6D0ECD025
:103AB000010EDB507F0B146E640E145C01E3E4D046
:103AC000010EDBCFE6FFCFEC2EF00DD0010EDB5068
:103AD0007F0B146E640E145C01E3D6D0010EDBCFB5
:103AE000E6FF72EC2EF0E552D0D0010EDB50020A58
:103AF00006E0030A01E0C8D08150010BC6D0815016
:103B0000020B01E1C2D099D0010EDB50BED0010EF4
:103B1000DBCFE6FF7DDEE552000901E18ED0B4D0B7
:103B2000010EDBCFE6FF74DEE552000901E1ACD007
:103B3000020EDBCFE6FF6CDEE552000901E07DD02E
:103B4000A3D0010EDBCFE6FF63DEE552000975E18D
:103B5000020EDBCFE6FF5CDEE55200096EE194D099
:103B6000010EDBCFE6FF54DEE552146EE66E020E68
:103B7000DBCFE6FF4DDEE552E552E7CF14F0D8800B
:103B800014545BE381D0010EDBCFE6FF41DEE5524A
:103B9000146EE66E020EDBCFE6FF3ADEE552E5522A
:103BA000E7CF14F0145C49E26FD0010EDBCFE6FFE3
:103BB0002FDEE552146EE66E020EDBCFE6FF28DE46
:103BC000E552E552E7CF14F0145C37E35DD0010E07
:103BD000DBCFE6FF1DDEE552146EE66E020EDBCF94
:103BE000E6FF16DEE552E552E7CF14F0D880145414
:103BF00024E24AD0010EDBCFE6FF0ADEE552146E66
:103C0000E66E020EDBCFE6FF03DEE552E552E7CFBC
:103C100014F0145C12E038D0010EDBCFE6FFF8DDC3
:103C2000E552146EE66E020EDBCFE6FFF1DDE552E3
:103C3000E552E7CF14F0145C27E0010E26D0020E07
:103C4000DBCFE6FFE5DDE552146EE66E010EDBCF5D
:103C5000E6FFDEDDE552E552E7CF14F0142415D07F
:103C6000010EDBCFE6FFD4DDE552146EE66E020EE8
:103C7000DBCFE6FFCDDDE552E552E7CF14F0145C73
:103C800004D00E01050E066F000E146E030EE15CEB
:103C900002E2E16AE552E16E1450E552E7CFD9FF46
:103CA0001200320E0E01045D01E3FF0C0451042BDF
:103CB00012000E010551146E156AD890155004E6D5
:103CC000C80E145C000E155801E3FF0C0551052BBE
:023CD0001200E0
:0E3CD200D9CFE6FFE1CFD9FF0301BA6BBB6B80
:103CE000BC6BB96BB56BB66BB76BB86BBD6BBE6BB2
:103CF000C06BBF6BB06BB16BB26BB36BC16BC26BA4
:103D0000786A800E6F6E6EAEFED7B00E726E0E01C8
:103D10007D6B0F0E436F3F0E4315010F040DF3CF64
:103D200065F39E0E446F030E456F200E706EF86BA8
:103D3000080EF96FFA6BFB6BFC6BFD6FFE6BFF6B94
:103D4000800EE16F716B726B736B746B756B766B5E
:103D5000776B786B796B7A6B7B6B7C6B200E606E0C
:103D60000F01306F0E01806B906BA06BB06BC06B5E
:103D7000D06B7E6B7F857F977F996F6AFD0EDB50DE
:103D800010E1FE0EE66E030EE66EA1EC26F0E552A3
:103D9000E5520301DA6FFF0EDA5D11E1010EDA6F11
:103DA0000ED0FD0EDBCFDAF3DAC3E6FFFE0EE66ED1
:103DB000030EE66ECBEC26F0E552E552E5520F011C
:103DC000206B20912093256B780E0301DA15E840D3
:103DD000E840E8401F0BB0090F01216F070E0301F7
:103DE000DA15200DF3CF22FF0F01106B1091108315
:103DF000400E156F780E0301DA15E840E840E84000
:103E00001F0BB0090F01116F22CF12FF006B008151
:103E10000083056B780E0301DA15E840E840E840BE
:103E20001F0BB0090F01016F22CF02FF0301C96B05
:103E3000C9C3C7F3AEEC37F006C0C3F307C0C4F381
:103E400008C0C5F309C0C6F37680768AE552E7CF8D
:103E5000D9FF1200D9CFE6FFE1CFD9FF010EF36EF3
:103E6000FE0EDBCFF4FFF350F45C3DE3FE0EDB50BF
:103E7000630839E3FE0EDBCFDAF3F00E0F012117F2
:103E8000FE0EDB50780BE840E840E8401F0B2113A2
:103E9000FE0EDB50070B200DF3CF22FFF00E1117A3
:103EA000FE0EDB50780BE840E840E8401F0B111392
:103EB00022CF12FFF00E0117FE0EDB50780BE84008
:103EC000E840E8401F0B011322CF02FFFE0EDBCFBC
:103ED000E6FFE66E030EE66ECBEC26F0E552E55209
:103EE000E552010E01D0000EE552E7CFD9FF1200D6
:103EF000D9CFE6FFE1CFD9FFE652050EE76EFD0E02
:103F0000DBCFE9FFFE0EDBCFEAFFE750E926000E2C
:103F1000EA22FC0EDBCFEFFFFD0EDBCFE6FFFE0E4D
:103F2000DBCFE6FF09D8E552E552DF6EDF50E55200
:103F3000E552E7CFD9FF1200D9CFE6FFE1CFD9FF95
:103F4000040EE126FD0EDBCFE9FFFE0EDBCFEAFF1C
:103F5000EF6A0F0E146EFD0EDBCFE9FFFE0EDBCF16
:103F6000EAFF050EE926000EEA221450EF16780E3D
:103F70000301DA15E840E840E8401F0BB009E66E9F
:103F8000FD0EDBCFE9FFFE0EDBCFEAFF010EE926D7
:103F9000000EEA22E552E750EF6E070EDA15200D0B
:103FA000F350E66EFD0EDBCFE9FFFE0EDBCFEAFF3E
:103FB000020EE926000EEA22E552E750EF6EFD0EF2
:103FC000DBCFE9FFFE0EDBCFEAFF050EE926000E90
:103FD000EA22EF5008080CE2FD0EDBCFE9FFFE0EEF
:103FE000DBCFEAFF050EE926000EEA22080EEF6E8F
:103FF0007698B051B15D02E0B95142E00F01205115
:10400000080B3EE1200EDE6E0F0EDD6EFD0EDBCFE7
:10401000E9FFFE0EDBCFEAFF050EE926000EEA22DD
:10402000EF50060FE66EE66AFD0EDBCFE9FFFE0EEF
:10403000DBCFEAFFE9CF14F0EACF15F0E9CFE6FFD6
:10404000EACFE6FFDECFE6FFDDCFE6FF0EEC39F08C
:10405000166E060EE15E165003010A0EB46FAEEC4A
:1040600037F006C0B5F307C0B6F308C0B7F309C010
:10407000B8F30301B96B0F012087020EDB6A66D02B
:10408000FF0E0301B05D02E0000E01D0010EE76EED
:10409000020EE7CFDBFFDB503FE1FD0EDBCFE9FF98
:1040A000FE0EDBCFEAFF050EE926000EEA22EF50F6
:1040B000060FE66EE66AFD0EDBCFE9FFFE0EDBCFF4
:1040C000EAFFE9CF14F0EACF15F0E9CFE6FFEACF37
:1040D000E6FFB051100DF3CFE9FFF4CFEAFF000E79
:1040E000E926010EEA22E9CF16F0EACF17F0E9CF70
:1040F000E6FFEACFE6FF0EEC39F0186E060EE15E41
:1041000018500301B02B100EB05D01E1B06BB0513F
:10411000B15D03E1B06901D0BF2BC12BB151B05DDE
:1041200003E2100EB02501D0B051E76E030EE7CFC9
:10413000DBFFDB50D880B155146EBD51D8801454CC
:1041400005E2030EDB50D880B155BD6F7688020EB4
:10415000DB5002E0000E01D0010E146E040EE15C93
:1041600002E2E16AE552E16E1450E552E7CFD9FF71
:104170001200D9CFE6FFE1CFD9FF7690FD0EDBCF5D
:10418000E6FFFE0EDBCFE6FF49D9E552E552768029
:10419000010EE552E7CFD9FF1200D9CFE6FFE1CFFC
:1041A000D9FF020EE1260301B96B77980F0120B702
:1041B0005DD00301B56BB66BB76BB86BB051B15D39
:1041C00050E0200EDE6E0F0EDD6EB151100DF3CFFC
:1041D000E9FFF4CFEAFF000EE926010EEA22050E00
:1041E000E926000EEA22EF50060FE66EE66AB151AC
:1041F000100DF3CFE9FFF4CFEAFF000EE926010E20
:10420000EA22E9CF14F0EACF15F0E9CFE6FFEACFD2
:10421000E6FFDECFE6FFDDCFE6FF0EEC39F0166EEF
:10422000060EE15E16500301C1070A0EB46FAEEC34
:1042300037F006C0B5F307C0B6F308C0B7F309C03E
:10424000B8F30301B96B0F012087FF0E0301B05DC6
:1042500002E1B1C3B0F3B12B100EB15D08E1B16B57
:1042600006D00F01206B7798769802D077987688E1
:10427000020EE15C02E2E16AE552E16EE552E7CF4F
:10428000D9FF12000301B551B611B711B8111FE0E3
:10429000AEEC37F00301B551065C146EB651075809
:1042A000156EB7510858166EB8510958176ED88058
:1042B000240E1454F40E1554000E1654000E175408
:1042C00006E2010EB96FBC2B0F01209766DF1200CA
:1042D000D9CFE6FFE1CFD9FF030EE126769045D98D
:1042E0000301B251B35D45E0B351100DF3CFE9FFC7
:1042F000F4CFEAFF000EE926020EEA22050EE926B7
:10430000000EEA22EF50060FE66EE66AB351100D7A
:10431000F3CFE9FFF4CFEAFF000EE926020EEA220E
:10432000E9CF14F0EACF15F0E9CFE6FFEACFE6FFD8
:10433000FD0EDBCFE9FFFE0EDBCFEAFFE9CF16F083
:10434000EACF17F0E9CFE6FFEACFE6FF0EEC39F04F
:10435000186E060EE15E18500301C207B32B100E53
:10436000B35D01E3B36B010EF36E020EF3CFDBFF1F
:1043700046D0020EDB6A71AE42D0070E6F14E66EB5
:104380008FDAE552F3CFDEFFF4CFDDFF7792DECF99
:10439000E6FFDDCFE6FFABD9E552E552E76E020E50
:1043A000E7CFDBFFDB5024E0DECFE9FFDDCFEAFF24
:1043B000050EE926000EEA22EF50060FE66EE66AC9
:1043C000DECFE6FFDDCFE6FFFD0EDBCFE9FFFE0E21
:1043D000DBCFEAFFE9CF14F0EACF15F0E9CFE6FF33
:1043E000EACFE6FF0EEC39F0166E060EE15E1650CF
:1043F00077BE779EDECFE9FFDDCFEAFFEF9E7680C6
:10440000020EDB50146E030EE15C02E2E16AE5523B
:10441000E16E1450E552E7CFD9FF1200D9CFE6FF85
:10442000E1CFD9FFFD0EDBCFE9FFFE0EDBCFEAFFC8
:10443000050EE926000EEA22EF50060FE66EE66A48
:10444000FD0EDBCFE6FFFE0EDBCFE6FF0301B25130
:10445000100DF3CFE9FFF4CFEAFF000EE926020EBC
:10446000EA22E9CF14F0EACF15F0E9CFE6FFEACF70
:10447000E6FF0EEC39F0166E060EE15E16500301F3
:10448000C22BB22B100EB25D01E3B26BB351B25D21
:1044900007E1C02BB25103E10F0EB26F01D0B2079A
:1044A000010EE552E7CFD9FF1200D9CFE6FFE1CFE9
:1044B000D9FF030EE12671AE3DD0070E6F14E66EF4
:1044C000EFD9E552F3CFDEFFF4CFDDFF779271BC79
:1044D000719CDECFE6FFDDCFE6FF09D9E552E5525C
:1044E000000907E0DECFE6FFDDCFE6FF97DFE5520C
:1044F000E55277BE779EDECFE9FFDDCFEAFFEF9E84
:104500000301B351B25D03E2100EB22501D0B251E6
:10451000E76E020EE7CFDBFFDB50D880B355146E99
:10452000BE51D8801454C7E2020EDB50D880B35578
:10453000BE6FC1D77790030EE15C02E2E16AE552FB
:10454000E16EE552E7CFD9FF1200D9CFE6FFE1CF08
:10455000D9FFFE0EDBCFC8F30301C95102E1010E02
:10456000C76FE552E7CFD9FF1200D9CFE6FFE1CF01
:10457000D9FF030EE1260301C75139E0AEEC37F055
:104580000301C351065C146EC4510758156EC55122
:104590000858166EC6510958176ED880D40E145498
:1045A000300E1554000E1654000E175420E2010E62
:1045B000DF6E100EDF5C09E2DF50EA6ACA0FE96EB7
:1045C000030EEA22EF6ADF2AF4D70301010ECA6F55
:1045D000C96FC76BAEEC37F006C0C3F307C0C4F3B6
:1045E00008C0C5F309C0C6F30F01108776D0C951C2
:1045F00074E0AEEC37F00301C351065C146EC45195
:104600000758156EC5510858166EC6510958176ED1
:10461000D8806A0E1454180E1554000E1654000E4D
:1046200017545BE2DF6ADF50EA6ACA0FE96E030ED5
:10463000EA22EF50FF0805E1100EDF5C02E2DF2AFC
:10464000F2D7DF50EA6ACA0FE96E030EEA22020EC1
:10465000EFCFDBFFEF50FF0834E0080EDF02010E62
:10466000F3CFDBFF020EDBA009D0DBCFF3FFF3902B
:10467000F342F3CFDBFF010EDB2AF4D7010EF36E1A
:10468000DBCFF4FFE850F45C24E3010EDB50630859
:1046900020E3010EDBCFDAF3DAC3E6FF2AEC1FF0EA
:1046A000E5520301C85115E0DD0EE66E030EE66E1D
:1046B000520EE66EE66A46EC2BF0E552E552E55204
:1046C00007D00301C85105E0070EE66EC7EC14F0F1
:1046D000E5520301C96BC9C3C7F3030EE15C02E2F3
:1046E000E16AE552E16EE552E7CFD9FF1200D9CF7A
:1046F000E6FFE1CFD9FF020EE126010EDB6AFD0ED7
:10470000DBCFE9FFFE0EDBCFEAFF020EE926000E4B
:10471000EA22EF50E00BE838E840146EFD0EDBCFE4
:10472000E9FFFE0EDBCFEAFF010EE926000EEA22CA
:10473000EF50080DF35014247F0BDF6E0301C951B5
:1047400018E0070EDF14156E010E155204E0E8465E
:10475000FE0B1506FCE1146EDF50E840E840E8402F
:104760001F0BEA6ACA0FE96E030EEA221450EF1219
:1047700012D0C75110E1DA51DF5C0DE1E66AE5DEE7
:10478000E552AEEC37F006C0C3F307C0C4F308C06F
:10479000C5F309C0C6F3FD0EDBCFE9FFFE0EDBCF8C
:1047A000EAFF050EE926000EEA22EF50400B0DE06D
:1047B0000F010087AEEC37F006C0C3F307C0C4F3A7
:1047C00008C0C5F309C0C6F329D0FD0EDBCFE9FF51
:1047D000FE0EDBCFEAFF050EE926000EEA22EF50BF
:1047E0000F0BE76E010EE7CFDBFFFD0EDBCFE9FF1E
:1047F000FE0EDBCFEAFF050EE926000EEA22EF509F
:1048000008080CE2FD0EDBCFE9FFFE0EDBCFEAFF6E
:10481000050EE926000EEA22080EEF6E010EDB50AF
:10482000146E020EE15C02E2E16AE552E16E1450A0
:10483000E552E7CFD9FF12000F0120AB15D00301DD
:10484000B4510BE1010EB96FB56BB66BB76BB86BBA
:104850000F0120970301BA2B07D0B40705E10F0120
:1048600020973F0E211720870F0120A90BD00301AD
:10487000010EB96FB56BB66BB76BB86B0F012097B4
:104880000301BB2B0301B95101E087DC779A1200C9
:1048900077B00BDE77BAD0DF77B87FDC42EF21F05C
:1048A000D9CFE6FFE1CFD9FF020EE126FE0EDB50A5
:1048B000060A24E0030A1EE0010A18E0070A12E0D3
:1048C000010A0CE0030A06E0010A1CE1600EDE6E3C
:1048D0000F0E1BD0300EDE6E0F0E17D0800EDE6E68
:1048E0000E0E13D0900EDE6E0E0E0FD0A00EDE6EEA
:1048F0000E0E0BD0B00EDE6E0E0E07D0C00EDE6EAA
:104900000E0E03D0D00EDE6E0E0EDD6EDECF14F076
:10491000DDCF15F014C0F3FF15C0F4FF020EE15C0B
:1049200002E2E16AE552E16EE552E7CFD9FF1200FB
:1049300003016C6BAE69AF691200D9CFE6FFE1CF1E
:10494000D9FF020EE1266D0EDE6E030EDD6E030151
:10495000000EAE5D790EAF5907E30301FF0ED8805C
:10496000AE557F0EAF5501E228D051EC29F0000979
:1049700001E1FBD7F29EF29CAEC3F6FFAFC3F7FF97
:10498000F86AF86ADECFE9FFDDCFEAFF0301400EE7
:10499000AD6FEE50F56E0D00AD07FBE10A007F8EA6
:1049A0007F9C7F987F84550E7E6EAA0E7E6E7F82DE
:1049B0007F940900F86AF28EF28C020EE15C02E24A
:1049C000E16AE552E16EE552E7CFD9FF120051EC02
:1049D00029F00009FCE0AEC3F6FFAFC3F7FFF86AA9
:1049E000F86A7F8E7F9C7F847F88F29EF29C550EB2
:1049F0007E6EAA0E7E6E7F82F28EF28C7F949DEF89
:104A000024F003016CA905D06CAB02D0E7EF24F0D1
:104A100094DF1200D9CFE6FFE1CFD9FF020EE126E5
:104A2000FD0EDBCF14F0FE0EDBCF15F0000E145C94
:104A3000790E15580CE3D950FD0FE96EFF0EDA2000
:104A4000EA6EFF0ED880EE547F0EED5402E2FF0EA8
:104A50006AD003016C51070B050803E00301050E42
:104A60006C6F030103016C51080B15E0FD0EDBCFE9
:104A700014F0FE0EDBCF15F0C00E1416FF0E151647
:104A800014500301AE1902E11550AF1904E0B9DF6B
:104A90000301050E6C6F03016CB734D0FD0EDBCF44
:104AA000AEF3FE0EDBCFAFF3C00E0301AE17FF0E69
:104AB0000301AF176D0EDE6E030EDD6EDECFE9FF74
:104AC000DDCFEAFFFD0EDBCFAEF3FE0EDBCFAFF3A3
:104AD000C00E0301AE17FF0E0301AF17AEC3F6FF02
:104AE000AFC3F7FFF86AF86A800E7F6E0301400ECD
:104AF000AD6F09000000F5CFEEFFAD07FAE1F86AEF
:104B000003016C873F0EE76EFD0EDBCFE9FFFE0E63
:104B1000DBCFEAFFE750E916EA6A6D0EE926030EDD
:104B2000EA22EF5000D0146E020EE15C02E2E16A6C
:104B3000E552E16E1450E552E7CFD9FF1200D9CF0C
:104B4000E6FFE1CFD9FF020EE126FD0EDBCF14F028
:104B5000FE0EDBCF15F0000E145C790E155863E3E2
:104B6000D950FD0FE96EFF0EDA20EA6EFF0ED880F5
:104B7000EE547F0EED5457E303016C51070B05080B
:104B800003E06C816C936C856C51080B10E0FD0E9A
:104B9000DBCF14F0FE0EDBCF15F0C00E1416FF0EA7
:104BA00015161450AE1902E11550AF1909E0FD0EAB
:104BB000DBCFE6FFFE0EDBCFE6FF2CDFE552E55252
:104BC0003F0EE76EFD0EDBCF14F0FE0EDBCF15F0CF
:104BD000E7501416156A6D0E1426030E152214C024
:104BE000DEFF15C0DDFFDECFE9FFDDCFEAFFEF50CE
:104BF000F36EFC0EDB50F35C02E003016C89FC0EEB
:104C0000DBCFE6FFDECFE9FFDDCFEAFFEF1CE552A9
:104C1000E71402E003016C8BDECFE9FFDDCFEAFF92
:104C2000FC0EDBCFEFFF020EE15C02E2E16AE5522F
:104C3000E16EE552E7CFD9FF1200D9CFE6FFE1CF11
:104C4000D9FFFC0EDBCFE6FFFD0EDBCFE6FFFE0E4D
:104C5000DBCFE6FF74DFE552E552E552D2DEE552E6
:104C6000E7CFD9FF1200D9CFE6FFE1CFD9FFFF0E82
:104C7000E76EFB0EDBCF14F0E7501416156A1450E4
:104C8000E66EFD0EDBCFE6FFFE0EDBCFE6FF57DF65
:104C9000E552E552E552FB0EDBCF14F0FC0EDBCF04
:104CA00015F015C014F0156A1450E66E010EE76E8B
:104CB000FD0EDBCF16F0FE0EDBCF17F0E750162609
:104CC000000E172216C0E6FF17C0E6FF38DFE552D8
:104CD000E552E552E552E7CFD9FF1200D9CFE6FF02
:104CE000E1CFD9FFE652DF6AFA0EDB50DF5C24E247
:104CF000DF50E76EFB0EDBCFE9FFFC0EDBCFEAFFF8
:104D0000E750E926000EEA22EF50E66EDF50E76E2C
:104D1000FD0EDBCF14F0FE0EDBCF15F0E7501426AE
:104D2000000E152214C0E6FF15C0E6FF08DFE552AD
:104D3000E552E552DF2AD8D7E552E552E7CFD9FF51
:104D40001200D9CFE6FFE1CFD9FF7FB2FED7FD0E2B
:104D5000DBCF14F0FE0EDBCF15F015C014F0156A92
:104D60001450756EFF0EE76EFD0EDBCF14F0FE0ED5
:104D7000DBCF15F0E7501416156A1450746E7F9E41
:104D80007F9C7F807FB0FED70000735000D0E5523B
:104D9000E7CFD9FF1200D9CFE6FFE1CFD9FFE65226
:104DA000F250800B01E0010EDF6EFD0EDBCF14F040
:104DB000FE0EDBCF15F015C014F0156A1450756E99
:104DC000FF0EE76EFD0EDBCF14F0FE0EDBCF15F00D
:104DD000E7501416156A1450746EFC0EDB50736E97
:104DE0007F9E7F9C7F84F29EF29C550E7E6EAA0E63
:104DF0007E6E7F8200000000DF5002E0F28EF28CB7
:104E0000B7ACFED7B79C7F94FD0EDBCFE6FFFE0E5E
:104E1000DBCFE6FF96DFE552E552146EFC0EDB5069
:104E2000145CC3E1E552E552E7CFD9FF1200D9CFB8
:104E3000E6FFE1CFD9FF040EE126FD0EDBCFDEFF5A
:104E4000DBCFDDFFDFCF14F0DF2A010EDBCF15F063
:104E500001E3DB2A14C0E6FF15C0E6FF72DFE5526E
:104E6000E552E66ED950020FE96EDACFEAFFE5525D
:104E7000E750EE6EED6ADECFE6FFDDCFE6FF61DFE5
:104E8000E552E552176E166A020EDB501610146ECC
:104E9000030EDB501710156E020E14C0DBFF030E5D
:104EA00015C0DBFF020EDBCF14F0030EDBCF15F0D5
:104EB00014C0F3FF15C0F4FF040EE15C02E2E16AE6
:104EC000E552E16EE552E7CFD9FF1200D9CFE6FFF8
:104ED000E1CFD9FF020EE126FD0EDBCFDEFFDBCFF7
:104EE000DDFFFF0EE76EFB0EDBCF14F0E75014166C
:104EF000156A1450E66EDFCF16F0DF2A010EDBCF05
:104F000017F001E3DB2A16C0E6FF17C0E6FF43DF18
:104F1000E552E552E552FB0EDBCF14F0FC0EDBCF81
:104F200015F015C014F0156A1450E66EDECFE6FFDA
:104F3000DDCFE6FF30DFE552E552E552020EE15CDF
:104F400002E2E16AE552E16EE552E7CFD9FF1200D5
:104F5000D9CFE6FFE1CFD9FF020EE126FE0EF66EB5
:104F6000F7683F0EF86E0900F5CFDEFF0A00F5CFB7
:104F7000DDFFF86ADECF14F0DDCF15F014C0F3FFCB
:104F800015C0F4FF020EE15C02E2E16AE552E16E57
:084F9000E552E7CFD9FF120042
:084F9800D9CFE6FFE1CFD9FFFC
:104FA000020EE126010EDB6A98EC24F099EC36F053
:104FB0009398AEEC37F006C0EDF307C0EEF308C0EF
:104FC000EFF309C0F0F306C0F1F307C0F2F308C035
:104FD000F3F309C0F4F306C0F7F307C0F8F308C011
:104FE000F9F309C0FAF30301F56BF66BA0D8E66894
:104FF000B4EC38F0E552DF6E010EDB5041E1AEEC6F
:1050000037F00301ED51065C146EEE510758156E32
:10501000EF510858166EF0510958176EDFCF18F08F
:10502000196A1A6A6A0E0C6E180E0D6E0E6A18C096
:1050300007F019C008F01AC009F03CEC38F004C0C1
:1050400018F005C019F006C01AF0480E1826E80E30
:105050001922010E1A221B6A1ABE1B681450185C12
:105060001550195816501A5817501B5809E2DE529D
:10507000010EDD6EE66EE66855EC34F0E552E55261
:1050800011D9E0EC0DF0AEEC37F00301F151065C04
:10509000146EF2510758156EF3510858166EF451FC
:1050A0000958176ED880380E1454180E1554000E77
:1050B0001654000E175414E2F52B000EF623010EC1
:1050C000DB500EE07FEC17F0AEEC37F006C0F1F3EA
:1050D00007C0F2F308C0F3F309C0F4F36EEC32F04A
:1050E000AEEC37F00301F751065C146EF851075827
:1050F000156EF9510858166EFA510958176ED88076
:105100006C0E1454020E1554000E1654000E175453
:105110000BE215D9AEEC37F006C0F7F307C0F8F391
:1051200008C0F9F309C0FAF3D9EC36F065D79B8CC7
:10513000FA0EE66E030EE66EA1EC26F0E552E5529D
:10514000010817E050D87ED8010EE66EFA0EE66E22
:10515000030EE66ECBEC26F0E552E552E552020E68
:10516000E66EE66A7F0EE66E1DEC26F0E552E5522D
:10517000E552E66AB4EC38F0E552020816E0E66A59
:10518000B4EC38F0E552010805E120EC18F0CDEC64
:105190002DF001D057D8020EE66EE66A7F0EE66E5D
:1051A0001DEC26F0E552E552E552E66A7EEC37F05A
:1051B000E552F19E0F01330E5B6FCDEC2DF0000137
:1051C000FC6B6DEC35F050EC32F0CDEC2DF039ECA1
:1051D00039F0E8EC16F00F015D6B5C6BD08EACD84B
:1051E000F28EF28C1200E66AE668030EE66ECBECF5
:1051F00026F0E552E552E552010EE66EFE0EE66E31
:10520000030EE66ECBEC26F0E552E552E552000EB9
:10521000E66EE66AFC0EE66E030EE66E66EC27F0BE
:10522000E552E552E552E552E66AFB0EE66E030EE4
:10523000E66ECBEC26F0E552E552E5521200D3DFE4
:1052400022EF29F09FEC38F06EEC04F0E66A230EB2
:10525000E66E790EE66E1DEC26F0E552E552E5525B
:10526000E66A220EE66E790EE66E1DEC26F0E55239
:10527000E552E552E66A210EE66E790EE66E1DEC09
:1052800026F0E552E552E552010EE66E200EE66E7E
:10529000790EE66E1DEC26F0E552E552E55201EF7F
:1052A00025F0010CD9CFE6FFE1CFD9FF140EE1269E
:1052B000D9CFE6FFDACFE6FFE66A19EC2BF0E5522C
:1052C000E552E55200092AE039EC37F0D9CFE6FF84
:1052D000DACFE6FFD5EC0EF0E552E552000904E026
:1052E00069EC37F0010E1CD0D9CFE6FFDACFE6FF2C
:1052F000E2EC14F0E552E552000910E0060EDB5036
:105300005A0A09E0040A06E0110A01E007D097DF13
:10531000010E06D0FF00F1D8010E02D0000E00D021
:10532000146E140EE15C02E2E16AE552E16E145083
:10533000E552E7CFD9FF12000301FB6B1200D9CF72
:10534000E6FFE1CFD9FF030EE1260301FB51020A7C
:1053500067E0090A3CE0010A01E0C3D0640EFC5D8D
:1053600004E30B0EFB6FFC6BBED0FCC3E6FF3CEC12
:1053700004F0E552000901E1B4D00301FC51EA6AEE
:10538000010FE96E030EEA22EFCFDFFF0301E66BA8
:10539000FCC3E7F30301FC51EA6A010FE96E030E57
:1053A000EA22EFCFE8F30301E96BEA6BDD0EE66E6C
:1053B000030EE66EF70EE66EE66A46EC2BF0E5525B
:1053C000E552E552E552000901E08BD08CD00E0188
:1053D00004510301FC5D03E3FB6BFC6B84D0030110
:1053E000010EE66FFCC3E7F30301FC51EA6A090F03
:1053F000E96E0E0EEA22EFCFE8F30301E96BEA6BE8
:10540000DD0EE66E030EE66EF70EE66EE66A46EC1D
:105410002BF0E552E552E552E552000962E163D016
:10542000640EFC5D03E3FB6BFC6B5DD0FCC3E6FF2D
:105430003CEC04F0E552000954E0FCC3E6FFD1EC7B
:105440000BF0E552DE52F3CFDEFFF4CFDDFFDD528D
:10545000010E020EDBCF15F015C014F0156A14C052
:10546000E6F3FF0EE76E010EDBCF14F0020EE750FD
:105470001416156A14C0E7F3FCC3E6FF5EEC0CF0EB
:10548000E552DE52F3CFDEFFF4CFDDFFDD52010E39
:10549000020EDBCF15F015C014F0156A14C0E8F346
:1054A000FF0EE76E010EDBCF14F0020EE75014166C
:1054B000156A14C0E9F3FCC3E6FF86EC0DF0E55273
:1054C0000301EA6FDD0EE66E030EE66EF20EE66E87
:1054D000E66A46EC2BF0E552E552E552E55200094A
:1054E00002E00301FC2B030EE15C02E2E16AE552FB
:1054F000E16EE552E7CFD9FF120003010A0EFB6F00
:10550000FC6B12000001F96B7F0EFA6F0001440E74
:10551000F76F7C0EF86F1200D8CFE4FFE0CFE4FF06
:10552000E46EDACFE4FFE2CFDAFFE9CFE4FFEACFBF
:10553000E4FFF6CFE4FFF7CFE4FFF5CFE4FFF3CFCE
:10554000E4FFF4CFE4FFFACFE4FF00EE00F0140E26
:10555000E80403E3EECFE4FFFBD700EE14F0090EFE
:10556000E80403E3EECFE4FFFBD7E65204EC38F0A7
:1055700048EC24F0E55200EE1CF0090EE80403E3C9
:10558000E5CFEDFFFBD700EE13F0140EE80403E3C4
:10559000E5CFEDFFFBD7E5CFFAFFE5CFF4FFE5CF91
:1055A000F3FFE5CFF5FFE5CFF7FFE5CFF6FFE5CF5A
:1055B000EAFFE5CFE9FFE5CFDAFFE550E5CFE0FF11
:1055C000E5CFD8FF1000D8CFE4FFE0CFE4FFE46ED2
:1055D000DACFE4FFE652E552E5CFDAFFE550E5CF5A
:0855E000E0FFE5CFD8FF100049
:0855E800D9CFE6FFE1CFD9FFA6
:1055F000FC0EE66E030EE66E17EC27F0E552E55260
:10560000F3CFDBF3F4CFDCF30301F31C08E1DC1D83
:1056100006E1FD0EDBCFDBF3FE0EDBCFDCF3E66A4B
:10562000E66A69EC1EF0E552E552E552E7CFD9FF94
:105630001200D9CFE6FFE1CFD9FFFE0EDB500BE120
:10564000FC0EDBCFE6FFFD0EDBCFE6FF68EC21F0C2
:10565000E552E55201D0000EE552E7CFD9FF120026
:10566000D9CFE6FFE1CFD9FFFD0EDBCFE3F3DD0EAF
:10567000E66E030EE66EFE0EDBCFE6FFE5D9E552E1
:10568000E552E552E552E7CFD9FF1200D9CFE6FF48
:10569000E1CFD9FF060EE76EFB0EDBCFE9FFFC0E74
:1056A000DBCFEAFFE750E926000EEA22FD0EDBCF52
:1056B000EFFFFB0EDBCFE6FFFC0EDBCFE6FFFE0EBF
:1056C000DBCFE6FF36D9E552E552E552E552E7CFAA
:1056D000D9FF1200D9CFE6FFE1CFD9FF060EE76E62
:1056E000F90EDBCFE9FFFA0EDBCFEAFFE750E92640
:1056F000000EEA22FD0EDBCFEFFFF90EDBCFE6FF57
:10570000FA0EDBCFE6FFFB0EDBCFE6FFFC0EDBCFB6
:10571000E6FFFE0EDBCFE6FF44D9146E050EE15E18
:105720001450E552E7CFD9FF1200D9CFE6FFE1CF01
:10573000D9FF0A0EE126E66AD9CFE6FFDACFE6FF07
:10574000FB0EDBCFE6FFFC0EDBCFE6FFFD0EDBCF73
:10575000E6FFE668E668FE0EDBCFE6FF3ED8146E95
:10576000090EE15E1450146E0A0EE15C02E2E16A79
:10577000E552E16E1450E552E7CFD9FF1200D9CFC0
:10578000E6FFE1CFD9FF0A0EE126E66AD9CFE6FFB0
:10579000DACFE6FFF90EDBCFE6FFFA0EDBCFE6FF4E
:1057A000FB0EDBCFE6FFFC0EDBCFE6FFFD0EDBCF13
:1057B000E6FFFE0EDBCFE6FF10D8146E090EE15EA9
:1057C0001450146E0A0EE15C02E2E16AE552E16EE9
:1057D0001450E552E7CFD9FF1200D9CFE6FFE1CF51
:1057E000D9FFE652060EE76EF70EDBCFE9FFF80EA3
:1057F000DBCFEAFFE750E926000EEA22900EEF6EBB
:10580000D950FC0FE96EFF0EDA20EA6EEE50ED1073
:1058100013E1060EE76EF70EDBCFE9FFF80EDBCFE4
:10582000EAFFE750E926000EEA22EF86FC0EDBC312
:10583000DBFFFD0EDCC3DBFFF90EDB500DE1060ED6
:10584000E76EF70EDBCFE9FFF80EDBCFEAFFE7509C
:10585000E926000EEA22EF80F60EDB50000811E286
:10586000F60EDB50200D060EE76EF70EDBCFE9FFDC
:10587000F80EDBCFEAFFE750E926000EEA22F350EC
:10588000EF12FA0EFB0EDBCF15F015C014F0156AFF
:10589000090EE76EF70EDBCFE9FFF80EDBCFEAFF6C
:1058A000E750E926000EEA2214C0EFFFFF0EE76E74
:1058B000FA0EDBCF14F0FB0EE7501416156A0A0E31
:1058C000E76EF70EDBCFE9FFF80EDBCFEAFFE7501C
:1058D000E926000EEA2214C0EFFFF70EDBCFE6FF49
:1058E000F80EDBCFE6FFFC0EDBCFE6FFFD0EDBCFD5
:1058F000E6FFFE0EDBCFE6FF54D8146E050EE15E28
:105900001450DF6EFE0EDB5004E0FE0EDB50FF088D
:105910000AE1F70EDBCFE6FFF80EDBCFE6FFB9ECCE
:1059200020F0E552E552DF50E552E552E7CFD9FFCE
:105930001200D9CFE6FFE1CFD9FFDCC314F0156A1E
:10594000070EE76EFC0EDBCFE9FFFD0EDBCFEAFFB3
:10595000E750E926000EEA22DCC3EFFF0301DB512A
:10596000E66E080EE76EFC0EDBCFE9FFFD0EDBCF27
:10597000EAFFE750E926000EEA22E552E750EF6E13
:10598000FC0EDBCFE6FFFD0EDBCFE6FFFE0EDBCF2E
:10599000E6FF5AD8E552E552E552E552E7CFD9FF86
:1059A0001200D9CFE6FFE1CFD9FFE150FC0FE96E3D
:1059B000FF0EDA20EA6EFF0EEE1809E1FF0EED1879
:1059C00006E1FC0EDBC3DBFFFD0EDCC3DBFFFC0EE0
:1059D000FD0EDBCF15F015C014F0156A070EE76E4B
:1059E000FA0EDBCFE9FFFB0EDBCFEAFFE750E9263B
:1059F000000EEA2214C0EFFFFF0EE76EFC0EDBCFB5
:105A000014F0FD0EE7501416156A080EE76EFA0E34
:105A1000DBCFE9FFFB0EDBCFEAFFE750E926000E04
:105A2000EA2214C0EFFFFA0EDBCFE6FFFB0EDBCF5E
:105A3000E6FFFE0EDBCFE6FF07D8E552E552E55262
:105A4000E552E7CFD9FF1200D9CFE6FFE1CFD9FF6A
:105A5000FE0EDB5004E0FE0EDB50FF081EE1060EDA
:105A6000E76EFC0EDBCFE9FFFD0EDBCFEAFFE75070
:105A7000E926000EEA22EF50E00BE838E840010F7B
:105A8000E66EFC0EDBCFE6FFFD0EDBCFE6FF78EC2B
:105A90001FF0E552E552E55201D0010EE552E7CF85
:105AA000D9FF1200D9CFE6FFE1CFD9FF0E0EE126D4
:105AB000F60EF36E060EF3CFDBFFFA0EDBCFE9FF37
:105AC000FB0EDBCFEAFF090EEFCFDBFF010EE76E27
:105AD000FA0EDBCFE9FFFB0EDBCFEAFFE750E9264A
:105AE000000EEA220A0EEFCFDBFF020EE76EFA0E7F
:105AF000DBCFE9FFFB0EDBCFEAFFE750E926000E24
:105B0000EA220B0EEFCFDBFF030EE76EFA0EDBCFC0
:105B1000E9FFFB0EDBCFEAFFE750E926000EEA22A1
:105B20000C0EEFCFDBFF040EE76EFA0EDBCFE9FFC2
:105B3000FB0EDBCFEAFFE750E926000EEA220D0E4E
:105B4000EFCFDBFFD9CFE6FFDACFE6FFFC0EDBCFEE
:105B5000E6FFFD0EDBCFE6FFFE0EDBCFE6FF21DF2B
:105B6000146E050EE15E1450FE0EDB5004E0FE0ED6
:105B7000DB50FF0808E1D9CFE6FFDACFE6FFB9EC4A
:105B800020F0E552E5520E0EE15C02E2E16AE552D8
:0A5B9000E16EE552E7CFD9FF1200E5
:065B9A000301006B640E24
:105BA000005D0AE20051EA6A010FE96E030EEA2283
:105BB000020EEF6E002BF3D7006B1200D9CFE6FF79
:105BC000E1CFD9FF030EE126060EE76EFC0EDBCF18
:105BD000E9FFFD0EDBCFEAFFE750E926000EEA22DF
:105BE000020EEFCFDBFFFE0EDBCFE6FF1BEC0BF070
:105BF000E552E66AFE0EDBCFE6FFDFEC09F0E55288
:105C0000E552F3CFDEFFF4CFDDFFDECF14F0DDCFC2
:105C100015F00001800E151454E1020EDBB00BD01C
:105C2000800EE76E000EDFCF14F0010EDBCF15F013
:105C3000E750141208D0DECF14F0DDCF15F07F0E40
:105C40001416000E151603010051030DF3CFE9FFE2
:105C5000F4CFEAFF000EE9260A0EEA2214C0EFFF95
:105C6000F29A0051030DF3CFE9FFF4CFEAFF000EE3
:105C7000E9260A0EEA22EE52F5C3EEFFF6C3EDFF67
:105C8000F28A020EDB50010B02E1010E01D0000E80
:105C9000E66EDECFE9FFDDCFEAFF010EE926030E57
:105CA000EA22E552E750EF6E002B0051146E156AA0
:105CB000D890155004E6800E145C000E155801E3D0
:105CC000006B030EE15C02E2E16AE552E16EE5522F
:105CD000E7CFD9FF1200D9CFE6FF000EE552E7CF9C
:105CE000D9FF1200D9CFE6FFE1CFD9FF020EE1269E
:105CF0000301005102E17F0E01D00005DF6E010EAD
:105D0000DB6ADB50146E156AD890155004E6800EDD
:105D1000145C000E155836E2DF50030DF3CFE9FF97
:105D2000F4CFEAFF000EE9260A0EEA22EE52030142
:105D3000EE50F55D146EEE50F659156E0E010851D9
:105D4000166E176A1450165C155017581BE3DF5077
:105D5000030DF3CFE9FFF4CFEAFF000EE9260A0EA8
:105D6000EA22EFCF14F0FE0EDB50145C02E1010ECC
:105D70000AD0DF5003E17F0EDF6E01D0DF06010E97
:105D8000DB2ABFD7000E146E020EE15C02E2E16A6C
:105D9000E552E16E1450E552E7CFD9FF1200D9CF9A
:105DA000E6FFE1CFD9FF030EE126010EDB6A030116
:105DB000005102E17F0E01D00005DF6E020EDB6AAA
:105DC000DB50146E156AD890155004E6800E145CF2
:105DD000000E15583EE2DF50030DF3CFE9FFF4CF7C
:105DE000EAFF000EE9260A0EEA22EE520301EE5007
:105DF000F55D146EEE50F659156E0E010851166ED3
:105E0000176A1450165C1550175823E3DF50030D22
:105E1000F3CFE9FFF4CFEAFF000EE9260A0EEA22EB
:105E2000EFCF14F0FE0EDB50145C0AE1010EDB2A0A
:105E3000DB50146E156AFF0E141802E1155009E0CC
:105E4000DF5003E17F0EDF6E01D0DF06020EDB2A9A
:105E5000B7D7010EDB50146E030EE15C02E2E16A7B
:105E6000E552E16E1450E552E7CFD9FF1200D9CFC9
:105E7000E6FFE1CFD9FF030EE126010EDB6A030145
:105E8000005102E17F0E01D00005DF6E020EDB6AD9
:105E9000DB50146E156AD890155004E6800E145C21
:105EA000000E155801E378D0DF50030DF3CFE9FF62
:105EB000F4CFEAFF000EE9260A0EEA22EE520301B1
:105EC000EE50F55D146EEE50F659156E0E01085148
:105ED000166E176A1450165C155017585DE3DF50A4
:105EE000030DF3CFE9FFF4CFEAFF000EE9260A0E17
:105EF000EA22EFCF14F0FD0EDB50145C44E1020EF9
:105F0000DB50146E156AD890155004E6800E145CB0
:105F1000000E155836E2DF50030DF3CFE9FFF4CF42
:105F2000EAFF000EE9260A0EEA22EE520301EE50C5
:105F3000F55D146EEE50F659156E0E010851166E91
:105F4000176A1450165C155017581BE3DF50030DE9
:105F5000F3CFE9FFF4CFEAFF000EE9260A0EEA22AA
:105F6000EFCF14F0FE0EDB50145C02E1010E15D0F1
:105F7000DF5003E17F0EDF6E01D0DF06020EDB2A69
:105F8000BED7000E0AD0DF5003E17F0EDF6E01D0D6
:105F9000DF06020EDB2A7CD7000E146E030EE15CD6
:105FA00002E2E16AE552E16E1450E552E7CFD9FF13
:105FB0001200D9CFE6FFE1CFD9FF050EE126010E91
:105FC000DB6A0301005102E17F0E01D00005DF6EA4
:105FD000FE0EDB5054E0FE0EDBCFE6FFFD0EDB5085
:105FE000E552E724FF0FE76E030EE7CFDBFF020E5B
:105FF000DB6ADB50146E156AD890155004E6800EEB
:10600000145C000E155846E2DF50030DF3CFE9FF94
:10601000F4CFEAFF000EE9260A0EEA22EE5203014F
:10602000EE50F55D146EEE50F659156E0E010851E6
:10603000166E176A1450165C155017582BE3030E92
:10604000DBCFE6FFB4EC38F0E552E76E040EE7CFA5
:10605000DBFFDF50030DF3CFE9FFF4CFEAFF000EC3
:10606000E9260A0EEA22EFCF14F0040EDB50145C8E
:1060700008E1030EDB06FE0EDB06DB5002E1010E3B
:106080000AD0DF5003E17F0EDF6E01D0DF06020E83
:10609000DB2AAFD7000E146E050EE15C02E2E16A66
:0E60A000E552E16E1450E552E7CFD9FF120031
