:020000040000FA
:040000001FD00ED02F
:0400080004EF04F00D
:040018000CEF04F0F5
:100020007F6E05A01200550E7E6EAA0E7E6E7F8238
:1000300000007FB2FED712000A26D8B00B2A1200A9
:100040000E01030E436F7F6A746875687F8000003D
:10005000733C00EF04F0066A1C0E056E000EE06FA4
:10006000080EE16FE81EE56F000EE26F070EE36F0A
:10007000FF0EF86FEB0EF96FFF0EFA6FF80EFB6FC5
:100080009E0E446F030E456F0F015D6B5C6B200E7F
:10009000706E6F6A9490949482908294939E939CD5
:1000A000818E818C609E040060AEFDD70FEE66F0FD
:1000B00065500F0B096EF46EF5E064B02CD010EEB5
:1000C00001F0EECFE6FFF42EFCD70650EBE0010A7C
:1000D000D8A408D074687568736A040EA1DF8280A2
:1000E000819CFF000650020A05E10B6A0A6A0C9027
:1000F0000C6AD8D70650030A0AE107500A2606E11F
:1001000008500B2203E10CB001D074D077D0065018
:10011000040AC8E177D00350F86EF00BF36E02507A
:10012000F76E756E0150F66E746E05A605D0095017
:100130000126E86A02220322300EF36001D008D0C3
:10014000F350300A01E12AD0F350F00AABE132D08B
:1001500005A405D0F6503F0B02E1940E61DF05B215
:10016000A1D7F650070B9EE1080EF46EEE50F56E27
:1001700063DF0D00F42EFAD7080EF46E0A00ED507E
:10018000F42EFCD7840E4CDF080EF46E0900F550F7
:10019000EE18D8A40C80F42EF9D784D7EF50F56E62
:1001A0004BDF0C00C40E3CDF0900F550EE18F42EB6
:1001B000F5D778D7EF50736E3FDF040E31DF7F6ADB
:1001C0007F8000007350EE18D8A40C80744A752A02
:1001D000F42EF0D767D720B7FED7800E216F080E18
:1001E000226F000E236F040E246F248164A02491DB
:1001F000208758D7010E266F256FEDD7266B010E8D
:0E020000256FE9D7020E266F010E256FE4D799
:080800000000FDEF35F01200CD
:0808080007ED04F012000600E8
:060810006BEF24F0120062
:0108160000E1
:0608180043EF24F0120082
:02081E00806FE9
:10082000A56220FF147F021B0D01000800000000DC
:1008300000000105000000001400400800004E0305
:080840004D494F20202020004B
:0808480046EC0CF0F3EF2DF07B
:100850000300666C00003B0E0000020000001E0852
:100860000000390E000002000000160800003D0ED6
:0608700000000100000081
:0A087600E3EF09F043EC0CF088EC0E
:100880000BF0B8EC0AF0800B06E1B8EC0AF0200B94
:1008900002E1010E01D0000EE5526BEF0AF043ECCD
:1008A0000CF0DF6A26EC0CF002E6E1EC0AF006E25E
:1008B000E668DF5032EC0CF0DF2AF4D723EC0BF0C3
:1008C000E5526BEF0AF0ACEC0BF0DF6A010EDB6A6D
:1008D000F6EC0BF002E6E1EC0AF009E2010EDB5067
:1008E000CCEC0BF001E0DF2A010EDB2AF1D7DFCFE1
:1008F00034FE27EC0BF0700E03EC0BF0030EE15C02
:1009000002E2E16AE552E16E6BEF0AF0ACEC0BF04B
:10091000DF6A26EC0CF002E6E1EC0AF022E209ECD8
:100920000BF01DE0FDEC0BF0EAEC0BF0E7501416B9
:10093000156AD2EC0BF0F0EC0BF0E7501416156AC8
:1009400014C037FEDFCFE6FFDDDBE5520E01386F66
:1009500027EC0BF0F20E03EC0BF00009F9E0DF2AB4
:10096000D8D7030EE15C02E2E16AE552E16E6BEF7B
:100970000AF0ACEC0BF03BEC0CF0C0DBE552DF6EA8
:1009800009EC0BF006E1070EE66EE66A10EC12F0D9
:100990001ED0FDEC0BF0DBCF14F0EAEC0BF02CECEE
:1009A0000BF0D2EC0BF0DBCF14F0F0EC0BF02CECF6
:1009B0000BF014C037FEFE0EDBCF38FE27EC0BF039
:1009C000F20EE66EE66A65EC2CF0E552E552E55271
:1009D000E552030EE15C02E2E16AE552E16E6BEF83
:1009E0000AF066EC0AF0020EE126DF6A010EDB6A0D
:1009F000F6EC0BF002E6E1EC0AF008E2010ED5ECB1
:100A00000AF001E0DF2A010EDB2AF2D7DFCF34FE45
:100A100027EC0BF0740E03EC0BF0020EE15C02E22B
:100A2000E16AE552E16E6BEF0AF00FEC0CF0A7EC17
:100A30000AF0E76E030EE7CFDBFFDB50FF0801E1B2
:100A400084D0E66A030EDBCFE6FF29DAE552CCEC70
:100A50000AF0DBCF14F0020EDBCF15F00001800EA0
:100A600015140EE0010EDBCF14F0020EDBCF15F0F3
:100A7000146C151E000ED9EC0BF010EC12F063D0C4
:100A8000010EDB50DF6E000EDF5C5FE3480EDF5CC3
:100A90005CE2070EDF14E76E040EE7CFDBFFDF50EA
:100AA000E840E840E8401F0BE76E050EE7CFDBFFAC
:100AB000010EF36E040EDB5004E0D890F336E80626
:100AC000FCE1F350166EF3CFE6FF050E03EC0CF0DD
:100AD000E552E7CF16F01614E76E060EE7CFDBFF00
:100AE000FD0EDBCF14F0FE0EFAEC0AF014C032FE5D
:100AF000FF0EE76EFD0EDBCF14F0FE0E2CEC0BF0BC
:100B000014C033FEFB0EDBCF14F0FC0EFAEC0AF03F
:100B100014C034FEFF0EE76EFB0EDBCF14F0FC0EAC
:100B20002CEC0BF014C035FE060EDB5003E00E017A
:100B3000930E02D00E01940E316F27EC0BF0E66895
:100B400036EC2DF0E552E552E552070EE15C02E28B
:100B5000E16AE552E16E6BEF0AF043EC0CF0A7ECB2
:100B60000AF0DF6EFF0EDF5C02E1060E04D0DFCF7D
:100B7000E6FF04D8E552E5526BEF0AF0BDEC0BF04E
:100B80001DE0E6689BEC0BF088EC0BF029EC0CF018
:100B900013E059EC0AF056EC0AF0BEEC0AF0FE0E37
:100BA000F6EC0BF002E6E1EC0AF002E3060E07D0E9
:100BB000E6689BEC0BF0EAD723EC0BF0000EE55255
:100BC0006BEF0AF066EC0AF0040EE126A7EC0AF0DF
:100BD000DF6EFF0EDF5C53E1DE52010EDD6EDF6A79
:100BE00026EC0CF002E6E1EC0AF044E2DF50CCEC3B
:100BF0000BF03EE09FEC0BF0DF5063EC0AF084EC6E
:100C00000AF0C1EC0BF0DF50A4EC0BF084EC0AF01E
:100C1000020EDB6AF80EDB50146EE6EC0AF014509C
:100C2000010BF36EF346F346F346F346F346F34601
:100C3000BF0EEF14F310EF6EF9EC0BF0DF5032EC57
:100C40000CF0030EDB6A0A0EF36E030E7FEC0AF063
:100C50000AE2E66ADF50DFEC0BF0030E13EC0CF057
:100C6000030EDB2AF0D723EC0BF0010EDB6A02D077
:100C7000DF2AB6D7010EDB5002E0040E0FD0F90ECA
:100C8000DBCFE6FFFA0EDBCFE6FF1EEC0BF0000930
:100C900002E0060E03D023EC0BF0000E146E040EDF
:100CA000E15C02E2E16AE552E16E14506BEF0AF09A
:100CB0000FEC0CF0C1EC0BF09FEC0BF03DEC0BF0EB
:100CC000A7EC0BF036E2ADEC0AF0020EEFCFDBFF43
:100CD000DB50FF0802E1FF0E2DD066EC0BF0030E97
:100CE000F3CFDBFF040EF4CFDBFF6AEC0BF0050E55
:100CF000F3CFDBFF060E50EC0BF0FD0EDB501418AB
:100D000015E1FE0EDB50151811E1050EDBCF16F0D4
:100D1000060EDBCF17F0FB0EDB50161807E1FC0EBA
:100D2000DB50171803E1020EDB5004D0010EDB2A62
:100D3000C7D7FF0E146E070EE15C02E2E16AE552CE
:100D4000E16E1450C8D309EC0CF075EC0BF0140EE6
:100D5000E2EC0BF002E3060E99D00A0EE2EC0BF087
:100D600069E332EC0BF088EC0BF029EC0CF005E0B9
:100D7000A0DBFF08F2E1070E89D0FE0EDB2816EC9F
:100D80000CF0F6EC0BF002E6E1EC0AF04BE2020E9E
:100D9000DB508CDB96EC0BF0E76E030EE7CFDBFF4E
:100DA000D950030FE96EDACFEAFFEF50800B37E03E
:100DB000E668E668020EDB5086DBA6DBE668E668DE
:100DC000020EDB50A4EC0BF09FDB200EE66E020E51
:100DD000DB5032EC0CF0040EDB6A0A0EF36E040EEC
:100DE0008EDB0BE2E66A020EDB50DFEC0BF0040E4A
:100DF00013EC0CF0040EDB2AF0D7020E61EC0BF0C2
:100E000035EC0CF0B2DBDF88DFCFE6FF9BEC0BF0BC
:100E1000020EDB50E76EFE0EE7CFDBFF03D0020EC3
:100E2000DB2AAFD7020EF6EC0BF001E6CADB95E346
:100E3000040E2CD0FC0E61EC0BF0DFEC0BF0FD0E81
:100E400013EC0CF088EC0BF093DB0F0B146EFD0E23
:100E5000DB50D880145411E3FD0EDB28D9CFE9FF15
:100E6000DACFEAFFE8500F0BF36EF00EEF14F31039
:100E7000EF6EDFCFE6FF9BEC0BF0FC0EDB5005E1E5
:100E8000010EDBCFE6FFB1D9E552000E146E050E60
:100E9000E15C02E2E16AE552E16E14501CD3BDEC64
:100EA0000BF014E0140EE2EC0BF002E3FA0E1DD08E
:100EB00088EC0BF00A0EE2EC0BF00EE329EC0CF0E0
:100EC00002E1FB0E12D0F5DAFF0802E1F90E0DD0B7
:100ED00088EC0BF0C7DBEED7FD0EDB28146E48DB89
:100EE0000F0BD880145404E2FB0EF36EF46819D093
:100EF000FE0EDB50F4DAF6CF18F0F7CF19F0FD0E46
:100F0000DB5000011824166E000E1920176E16C053
:100F1000E6FFE66E96EC0BF0146E156AF36E15C0E4
:100F2000F4FFE552D8D2D2DA020EE126010EDB6AD6
:100F3000FE0E3BDB07E0ECDB29EC0CF009E0B9DA54
:100F4000FF0802E1000E09D0E3DB0A0E9FDBF4D7B5
:100F50000FDB0F0B9BDBDB06DB50146E020EE15C3C
:100F600002E2E16AE552E16E1450B5D2F5DBFE0E05
:100F70001CDB2CE0010EDB6AEADB2AE2020EDB6AF4
:100F80000A0EE6EC0BF011E2FE0EDB50DFEC0BF08C
:100F9000020EF7DA8EDB010E4ADBE552E750EF6E08
:100FA000010EDB2A020EDB2AEBD7B2DB29EC0CF0B8
:100FB0000AE1CDDB06E2010E3ADBEF6A010EDB2A25
:100FC000F8D7000E06D075DAFF08D6E1070E01D07B
:100FD000000E146E030EE15C02E2E16AE552E16E7E
:100FE000145079D209EC0CF061DAB5EC25F076DB1F
:100FF000D950040FE96EDACFEAFFEF50400B05E05D
:1010000029CEF3FF2ACEF4FF07D0FE0EDB505BDAC9
:101010002CEC0CF058DA7DDA050EE15C02E2E16AB4
:10102000E552E16E58D252DA040EE126FE0EDB5094
:101030008BDB2CEC0CF088DB6CDA040EE15C02E25A
:10104000E16AE552E16E47D241DA050EE126060E6D
:1010500049DA080B03E0DE6ADD6A12D0070E42DAD5
:10106000DE6EDD6ADECF14F0DDCF15F014C015F0B2
:10107000146A14C0DEFF15C0DDFF080E33DADF127C
:10108000090E30DAE66ED7DB020EDBCF14F0030E6A
:1010900014C015F0146A020E14C0DBFF030E15C055
:1010A000DBFF0A0E1FDA146E156A90DA1450EE1286
:1010B0001550ED129EDB030EDBCFE6FFDECFE6FF21
:1010C000DDCFE6FFF5DDE552E55208DBDB50FF083A
:1010D0000BE035DB040EDBCFE6FFB8EC19F0E55290
:1010E000E552E552010E01D0000E146E050EE15CD2
:1010F00002E2E16AE552E16E1450EDD1E7D9FE0E4D
:10110000DB04E9D1E3D9FE0EDB28E5D125DBDF6A7C
:101110009DDB01E656DA36E27CDA32E0010EDB6A6C
:10112000DFCFE6FF23DFE55200092DE1010EF36E6C
:10113000020EF3CFDBFF140E49DB1BE2020E77DA5F
:10114000EFCF14F0FE0EDB50145C10E3020E6FDAEA
:10115000EFCF15F0FD0EB5DAE552E724155C06E297
:10116000E66A47DB6BDADE52010EDD6E020EDB2A29
:10117000E2D7010EDB5004E0DFCFE6FF36D8E552C0
:10118000DF2AC6D760DA030EE15C02E2E16AE552CB
:10119000E16EA1D1E1DADF6A59DB01E612DA1DE284
:1011A00038DA19E0DF5082D9C1DA9FDADF5097D9F7
:1011B000A6DA26DAFE0EDB5009DB0DE3FD0E81DA3E
:1011C000E552E72403DB07E2E66AE66A37DADFCFB7
:1011D000E6FF0BD8E552DF2ADFD735DA030EE15CF4
:1011E00002E2E16AE552E16E76D1C7DA16E043DB4E
:1011F000BDDEE552000911E1DF6A140EDF5C0AE290
:10120000DF50EA6A000FE96E0E0EEA22EF5005E1A8
:10121000DF2AF3D730DBB2DCE552E5525CD156D998
:10122000000EF36EFE0E6BD908E3480EF36EFE0E51
:1012300066D903E203DBFF0802E1000E11D0FEDAFB
:10124000E66ED0DEE552F3CF14FEF4CF15FEF6DAEB
:10125000E66EE9DEE552F3CF16FEF4CF17FE010E7F
:101260003AD17ADAFE0EDB50070BDF6EFE0EDB4062
:10127000E840E8401F0B39DAC6DAD8DAFD0EDB5059
:1012800010E0010EDF5206E0DFCFF3FFE846FE0B71
:10129000F306FCE1146E020EDBCFE7FF1450E712F9
:1012A00010D0010EDF5206E0DFCFF3FFE846FE0B61
:1012B000F306FCE1E81C146E020EDBCFE7FF1450CE
:1012C000E716020EE7CFDBFFDBCFE6FF010E84D986
:1012D00013EC27F0E552E552E552CDDAA0DFE552F6
:1012E00000090AE1C8DA5BEC19F0E552000915E0E3
:1012F0000E01165117110FE0FD0EDBCFE6FF16CEE3
:10130000E6FF17CEE6FF14CEE6FF15CEE6FFE66A4F
:10131000A0EC2CF022D0010E24D0FE0EDBCF34FE48
:10132000080E146EFE0EDB5014C0E7FFE75204E017
:10133000E8427F0BE706FCE10E01356FFD0EDBCFC7
:1013400036FE020EDBCF37FE386B81D9E668E668E1
:10135000F60EE66EE6687EEC2CF0146E060EE15E8C
:101360001450146E030EE15C02E2E16AE552E16E94
:101370001450B1D088DAFE0EDBCF17F017C016F08C
:10138000176AFD0EDB501618146EE850DF6E070E5C
:10139000DF02F350146E156AFB0EFC0EDBCF19F062
:1013A00019C018F0196AFB0EDB501818166EFC0EE7
:1013B000DB501918176EF3501624DF6E1F0EDF1660
:1013C000DF50E55288D02BDA050EDB6A480E3ADA98
:1013D00006E2050E08D9EF68050EDB2AF7D7DF6AAB
:1013E000200EDF5C0BE2010EDB6AB1D905E2B5D855
:1013F000EF68010EDB2AF9D7DF2AF2D7020EDB6A8B
:10140000F5D901E6DED84BE2020ECFD845E0E66A18
:10141000F0D945DDE552E552030EF3CFDBFF040EB4
:101420003FD90001800E151411E1030EDB50E76E69
:10143000050EE7CFDBFF000E05DA08E3480E02DAFF
:1014400005E2050ED0D8020EDBCFEFFF43D9F3CF74
:1014500014F0F4CF15F0F3CFE6FFF4CFE6FF36D962
:10146000F3CF16F0F4CF17F0F3CFE6FFF4CFE6FF9B
:1014700004D96DD911E271D8EF50FF080AE170D993
:101480001424E96E000E1520EA6E020EDBCFEFFF8A
:1014900003D0010EDB2AEDD7020EDB2AB1D7070EEF
:1014A000E15C02E2E16AE552E16E15D036D97FEFE8
:1014B0000BF0FE0EDB50D9D939D9E76EFE0EE7CF1F
:1014C000DBFFDB50120029D9020ED9D1D9CFE6FFBC
:1014D000E1CFD9FF1200E552E7CFD9FF12001DD9A5
:1014E000060ECDD1E76EFD0EDBCFE9FFFE0EDBCFA2
:1014F000EAFFE750E926000EEA22EF501200DBCFA8
:10150000F4FFF350F45C1200FAD8ADEC26F0E5528B
:101510003FD1F6CF14F0F7CF15F0010E1426000ED0
:1015200048D904D9DE6EDD6ADECF16F0DDCF17F0C4
:1015300016C017F0166A020EDB501610146E030E5A
:10154000DB501710156E14C0F3FFF46E120019D99A
:10155000F6D858EC06F0E5521BD102D90F0114243D
:10156000E96E000E1520EA6E1200A5EC26F010D1EF
:10157000D9CFE9FFDACFEAFFEF501200D7D8DF6EFC
:101580001200DB5000011624146E000E1720156E99
:1015900014C0E6FFE66E1200E552DE52F3CFDEFF26
:1015A000F4CFDDFFDD52010E1200DBCFE6FF3DEC94
:1015B00004F0E55200091200146E156AD890155017
:1015C0001200FF0E145C000E15581200D950020FC5
:1015D000E96EDACFEAFF1200DB50156AD80F146EFD
:1015E000030ED9EF0BF0DB50EA6A380FE96E090EF3
:1015F000EA221200DBCF15F015C014F0156A1200B4
:1016000095D816EF0CF0E66EE66A65EC2CF0E55224
:10161000BFD0DFCFE6FF3DEC04F0E5520009120039
:10162000FF0EE76E010EDBCF14F0020E1200DB504E
:10163000EA6A000FE96E0E0EEA221200DFCFE6FF23
:10164000A3EC06F0A5D0ACEC25F0E3EF09F02B0EEF
:10165000E66E0E0EE66E1200DBCF15F0E7501416A4
:10166000156A12000A0E146EFD0EDBCFE7FF145050
:10167000E75EFD0EE7CFDBFF12007CDEE552E552B0
:10168000E552E552DF6E010EDB6A1200146E010EA8
:10169000DBCFE7FF1450E726010EE7CFDBFF120098
:1016A000F4CFDBFF030EDBCF14F0040EDBCF15F01D
:1016B00012003CD8E66E1200F6CF16F0F7CF17F006
:1016C0001200DBCFE6FFFE0EDB50120092D88ADC60
:1016D000E55212008ED8A7DCE5521200E552E55221
:1016E000E76E040EE7CFDBFF1200E76E010EE7CFD7
:1016F000DBFF1200E552E750EE6EED6A1200F6CF06
:1017000014F0F7CF15F014C0E6FF15C0E6FF120085
:10171000FE0EDB50CBDEBEEF0AF0100D0E0139518C
:10172000F324F66E3A51F420F76E1200B5EC25F072
:10173000E552E5521200FE0EDB5032EF0CF0FD0ECA
:10174000DBCFE6FF3BEF0CF0BEDE020E98D0140EAE
:10175000F36E010E7FEF0AF0B9DE030EE1261200F0
:10176000DF50140DF3CF14F0F4CF15F0800E1426D3
:10177000090E1522010EDB50120085D8FE0ED5EFA2
:101780000AF0FB0EDBCFE6FFFC0EDBCFE6FF12001C
:10179000E552E552E552120089DE32DF17DFEF50E5
:1017A000800B120014C035FEDFCFE6FF3CDCCCEF2F
:1017B0000AF0152214C0E6FF15C0E6FF12008FDE06
:1017C0005CEF0BF0F36EFD0E7FEF0AF0F36E020E8E
:1017D0007FEF0AF0020E0EDF14C034FE10EF0BF0A4
:1017E000020E08DF14C036FE10EF0BF0DB50DCEF0A
:1017F0000AF0020EDBCFE6FF1200DFCFE6FFF2ECCD
:1018000007F0CCEF0AF0E8DEE9EC26F0E552E5520D
:1018100012005CDE050EE126FE0EDB50120056DEE5
:10182000070EE1261200ADDEB5EF0AF0E76E020EFC
:10183000E7CFDBFF1200CADE7AEF0BF0FE0ED3DE3D
:10184000EF501200F36E050E7FEF0AF0DF50DCEF71
:101850000AF08EDE100B120052DF2BDFECDFFE0EE3
:10186000DB50120023DEB5EF0AF057DFF62A000E38
:10187000F7227FEF0BF0FE0EDBCFE6FF1200F6261D
:0C188000000EF722120022DEE6521200D9
:04188C00FB0EE66EFB
:10189000030EE66EE9EC26F0E552E5520401586FBE
:1018A000596F000EE66EE66A31EC2CF0E552E55217
:1018B0003BEC04F00901326B0401580502E0000E14
:1018C00001D0010EE66EBBEC31F0E5520901336B3D
:1018D000120004015851090A5CE00D0A54E0070A9D
:1018E0003FE0010A17E0030A03E0010A01E01200E9
:1018F00080B464D058C459F4020E586F2ACE14F044
:10190000156A14500E01326F0E0129510E01336F0A
:10191000A1EF13F080B412D079EC13F0900E1454B0
:10192000D00E1554030E1654000E175418E2030E71
:10193000586FE66AD0EC31F0E552120059050DE11E
:1019400079EC13F0BBEC13F008E2040E586FE66A72
:10195000D0EC31F0E552DFEF0CF059C458F412002E
:1019600080A42CD0595104E1040E586FDFEF0CF025
:10197000586B3AD8B1EC31F00E01296B2A6BE66A4C
:10198000C4EC13F017D080B419D0090E586FA1EF32
:1019900013F080A413D079EC13F0BBEC13F00CE23D
:1019A00059C458F4580502E0000E01D0010EE66E4D
:1019B000BBEC31F0E5521200040E586F12006BECD4
:1019C00013F0090EE126D9CFE6FFDACFE6FFE6688D
:1019D000E668500ECCEC13F0090EE15C02E2E16A1D
:1019E000E552E16E70EF13F074EC13F0E668E66810
:1019F000510ECCEF13F018EC14F0900B90080DE1A1
:101A0000060E5FEC13F0EF1C060B060806E1FD0E58
:101A100091EC13F024EC08F004D0FD0E91EC13F0DF
:101A200004D8E552E55270EF13F0D9CFE6FFE1CFCD
:101A3000D9FF0C01006B070E0401585D01E033D2A1
:101A40000C01010E006F060EE76EFD0EDBCFE9FF05
:101A5000FE0EDBCFEAFFE750E926000EEA22EF5048
:101A6000920A01E1C6D1200A01E15ED1470A01E1F3
:101A7000E9D0270A74E0470A1BE0C00A16E0010A11
:101A800010E0070A01E00CD2FD0EDBCFE6FFFE0EF0
:101A9000DBCFE6FF19EC12F0E552E552000901E058
:101AA00002D20401010E586FFED153EC12F0FBD1AB
:101AB000090EE76EFD0EDBCFE9FFFE0EDBCFEAFF7E
:101AC000E750E926000EEA22EFCF16F016C017F015
:101AD000166A0A0EE76EFD0EDBCFE9FFFE0EDBCFC6
:101AE000EAFFE750E926000EEA22EF500001162433
:101AF000146E000E1720156E14C0E6FF15C0E6FF29
:101B0000070EE76EFD0EDBCFE9FFFE0EDBCFEAFF2F
:101B1000E750E926000EEA22EFCF1AF01AC01BF0B8
:101B20001A6A080EE76EFD0EDBCFE9FFFE0EDBCF73
:101B3000EAFFE750E926000EEA22EF5000011A24DE
:101B4000186E000E1B20196E18C0E6FF19C0E6FFC4
:101B5000FFEC12F0E552E552E552E552A4D10C0E2D
:101B6000E76EFD0EDBCFE9FFFE0EDBCFEAFFE750AD
:101B7000E926000EEA22EF50E66E0B0EE76EFD0E30
:101B8000DBCFE9FFFE0EDBCFEAFFE750E926000ED0
:101B9000EA22EF50E66E090EE76EFD0EDBCFE9FF9D
:101BA000FE0EDBCFEAFFE750E926000EEA22EFCF78
:101BB00016F016C017F0166A0A0EE76EFD0EDBCFA0
:101BC000E9FFFE0EDBCFEAFFE750E926000EEA222E
:101BD000EF5000011624146E000E1720156E14C06D
:101BE000E6FF15C0E6FF070EE76EFD0EDBCFE9FF4F
:101BF000FE0EDBCFEAFFE750E926000EEA22EFCF28
:101C00001AF01AC01BF01A6A080EE76EFD0EDBCF41
:101C1000E9FFFE0EDBCFEAFFE750E926000EEA22DD
:101C2000EF5000011A24186E000E1B20196E18C008
:101C3000E6FF19C0E6FF60EC12F01C6E060EE15ED6
:101C40001C5031D10D0EE76EFD0EDBCFE9FFFE0E0D
:101C5000DBCFEAFFE750E926000EEA22EF50E66EFE
:101C60000C0EE76EFD0EDBCFE9FFFE0EDBCFEAFFC9
:101C7000E750E926000EEA22EF50E66E090EE76E05
:101C8000FD0EDBCFE9FFFE0EDBCFEAFFE750E926D2
:101C9000000EEA22EFCF16F016C017F0166A0A0EF1
:101CA000E76EFD0EDBCFE9FFFE0EDBCFEAFFE7506C
:101CB000E926000EEA22EF5000011624146E000EF1
:101CC0001720156E14C0E6FF15C0E6FF070EE76E7D
:101CD000FD0EDBCFE9FFFE0EDBCFEAFFE750E92682
:101CE000000EEA22EFCF1AF01AC01BF01A6A080E93
:101CF000E76EFD0EDBCFE9FFFE0EDBCFEAFFE7501C
:101D0000E926000EEA22EF5000011A24186E000E98
:101D10001B20196E18C0E6FF19C0E6FFD1DB1C6E50
:101D2000060EE15E1C50BFD00B0EE76EFD0EDBCF42
:101D3000E9FFFE0EDBCFEAFFE750E926000EEA22BC
:101D4000EF50E66E090EE76EFD0EDBCFE9FFFE0EEB
:101D5000DBCFEAFFE750E926000EEA22EFCF16F0CC
:101D600016C017F0166A0A0EE76EFD0EDBCFE9FF0C
:101D7000FE0EDBCFEAFFE750E926000EEA22EF5025
:101D800000011624146E000E1720156E14C0E6FF15
:101D900015C0E6FF070EE76EFD0EDBCFE9FFFE0E76
:101DA000DBCFEAFFE750E926000EEA22EFCF1AF078
:101DB0001AC01BF01A6A080EE76EFD0EDBCFE9FFB2
:101DC000FE0EDBCFEAFFE750E926000EEA22EF50D5
:101DD00000011A24186E000E1B20196E18C0E6FFB1
:101DE00019C0E6FF06EC13F01C6E050EE15E1C50F8
:101DF0005AD0090EE76EFD0EDBCFE9FFFE0EDBCFFA
:101E0000EAFFE750E926000EEA22EFCF16F016C0EF
:101E100017F0166A0A0EE76EFD0EDBCFE9FFFE0E25
:101E2000DBCFEAFFE750E926000EEA22EF5000017F
:101E30001624146E000E1720156E14C0E6FF15C090
:101E4000E6FF070EE76EFD0EDBCFE9FFFE0EDBCFF0
:101E5000EAFFE750E926000EEA22EFCF1AF01AC097
:101E60001BF01A6A080EE76EFD0EDBCFE9FFFE0ECF
:101E7000DBCFEAFFE750E926000EEA22EF5000012F
:101E80001A24186E000E1B20196E18C0E6FF19C028
:101E9000E6FF15EC05F0E552E552E552E55203D0B8
:101EA0000C01006B00D00C01005101E0EAD0FD0EE6
:101EB000DBCFE6FFFE0EDBCFE6FFBBDAE552E552F5
:101EC000000901E1DED00C01010E006F060EE76E85
:101ED000FD0EDBCFE9FFFE0EDBCFEAFFE750E92680
:101EE000000EEA22EF505D0A01E1C2D0280A01E1AA
:101EF000A5D0290A01E197D0C00A75E00A0A53E08B
:101F0000E70A40E0290A3BE02A0A27E0250A22E006
:101F1000010A1DE0050A14E0200A01E0AFD0090E15
:101F2000E76EFD0EDBCFE9FFFE0EDBCFEAFFE750E9
:101F3000E926000EEA22EF50E66E16D9E552A1D04E
:101F40000401580503E10401070E586F9AD063ECB1
:101F500004F097D086EC04F094D0090EE76EFD0EE5
:101F6000DBCFE9FFFE0EDBCFEAFFE750E926000EEC
:101F7000EA22EF50E66EB9EC04F0E55282D0F1ECC3
:101F800004F07FD0090EE76EFD0EDBCFE9FFFE0EF9
:101F9000DBCFEAFFE750E926000EEA22EF50E66EBB
:101FA00044D9E5526ED00A0EE76EFD0EDBCFE9FF95
:101FB000FE0EDBCFEAFFE750E926000EEA22EF50E3
:101FC000E66E090EE76EFD0EDBCFE9FFFE0EDBCFFE
:101FD000EAFFE750E926000EEA22EF50E66E4FD9FD
:101FE000E552E5524ED00A0EE76EFD0EDBCFE9FF5B
:101FF000FE0EDBCFEAFFE750E926000EEA22EF50A3
:10200000E66E090EE76EFD0EDBCFE9FFFE0EDBCFBD
:10201000EAFFE750E926000EEA22EF50E66E76DA94
:10202000E552E5522ED0E668E668030EE66E13EC44
:1020300027F0E552E552E552FF0023D0090EE76E86
:10204000FD0EDBCFE9FFFE0EDBCFEAFFE750E9260E
:10205000000EEA22EF50E66E1FEC1EF0E55200097A
:1020600006E1070EE66EE66ADBD9E552E55209D0D5
:10207000010EE66EB8EC1FF0E55203D00C01006BC8
:1020800000D00C01005113E1060EE76EFD0EDBCF10
:10209000E9FFFE0EDBCFEAFFE750E926000EEA2259
:1020A000EF500D0804E139D80C01010E006F0C014E
:1020B00000512CE1040E0401585D28E10C01010ED1
:1020C000006F060EE76EFD0EDBCFE9FFFE0EDBCFE5
:1020D000EAFFE750E926000EEA22EF50420A09E043
:1020E000530A05E0010A01E00ED00AD90FD037D912
:1020F0000DD0FD0EDBCFE6FFFE0EDBCFE6FF73D982
:10210000E552E55203D00C01006B00D00C010051E8
:1021100000D0E552E7CFD9FF1200DDDA020E57DB1F
:102120000E01B60E316F18DB0800F5CF34FE14DB5C
:10213000020EF626000EF7220800F5CF35FE0CDB66
:10214000070EF626000EF7220800F5CF36FE040132
:10215000580502E10E0136857CDB020EE15C02E2ED
:10216000E16AE552E16EBCD2B6DA020E30DBFE0E59
:10217000DBCF14F0380EF66E080EF76E0900F5CFBF
:1021800015F00800F5CF16F01450155C000E165827
:1021900041E30E019B0E316FFE0EDBCF34FEDB50B0
:1021A00004E1380EF66E080E26D00F0E16DB1BE388
:1021B000130E13DB18E2BBEC27F0F3CF16F0F4CFCD
:1021C00017F0FE0EDB50F10F080DF35016C014F09F
:1021D00017C015F005E0D89015321432E804FBE181
:1021E00014C035FE0CD029DBFE0EDB040F011424D5
:1021F000F66E000E1520F76E0800F5CF35FEFE0EC8
:10220000DB50080805E10401580502E10E0135859F
:1022100020DB04D0090EFBDAE552E552020EE15C48
:1022200002E2E16AE552E16E5BD255DA020EE12686
:10223000FE0EDB5002E0B9DA03E30A0EE8DA16D04C
:1022400090DA0E01970E316FFE0EDBCF34FEDECF3B
:10225000E6FFDDCFE6FFB5EC25F0E552E5520E01D5
:10226000356F42DAE66AFCEC2CF0E552E552E552B5
:10227000020EE15C02E2E16AE552E16E31D22BDA54
:10228000030EE126FE0EDB5002E08FDA02E30A0EB7
:102290002DD067DAFE0EDB500E01F76A3B25F66E95
:1022A0003C51F7220800020EF5CFDBFFCCDAF4EC4C
:1022B0002DF0BADA000919E0FD0EDBCFE6FFDECF24
:1022C000E6FFDDCFE6FFA5EC26F0AEDA1CEC35F03C
:1022D000BADA0CEC2EF0A8DA07DA590EE66EE66AE6
:1022E00065EC2CF0E552E55202D00C0E90DAE55286
:1022F000E552030EE15C02E2E16AE552E16EF0D1E3
:10230000EAD9030E64DA0E01EF0E316F070EF36E99
:10231000020EF3CFDBFFDB500D0813E38EDA020E63
:10232000DB50F90F0F011424F66E000E1520F76E26
:102330000800F550E66E020EDB5040DA020EDB2A92
:10234000EAD70401580502E10E013985CDD94CDAEE
:10235000030EE15C02E2E16AE552E16EC1D1BBD954
:10236000080EE1263A0EF66E080EF76E040E09000E
:10237000F5CFDBFF050E0900F5CFDBFF060E0900E8
:10238000F5CFDBFF070E0900F5CFDBFF040EDBCF37
:1023900008F0050EDBCF09F0020E08C0DBFF030ECC
:1023A00009C0DBFF0E01E20E316FDF6A070EDF5C52
:1023B00011E2020EDBCFF6FFDB2A030EDBCFF7FFC5
:1023C00001E3DB2A0800F550E66E070EDF24F6D99C
:1023D000DF2AECD789D908DA080EE15C02E2E16A6B
:1023E000E552E16E7DD177D9070E69D9EF500E0124
:1023F0002A6B2A6F296B080E62D9EF50146E156A8A
:10240000E850292715502A230401010E586FE66E63
:10241000BBD9E55269D9520E7DD9B6EC31F060D105
:102420005AD90E016F0E316FFD0EDBCF34FE11DA7B
:1024300057D1FED9E00BE838E840146E020E145C68
:1024400018E3070E3CD9EFCF17F017C018F0176A42
:10245000080E35D9EF501724156E000E1820166E91
:102460000E012951151805E12A51161802E1010E35
:1024700001D0000E35D12FD9FD0E53D9FC0EE66EDA
:10248000030EE66E9AEC27F0CFD9E552FC0EDBCFB7
:10249000E6FFFB0EE66E030EE66E13EC27F0C4D9E2
:1024A000E3EC09F01DD1070E0401585D02E14FEF86
:1024B00004F00E01020E346F17D96F0E8AEF13F07D
:1024C0000AD9E652FA0EDB5004E10E01060E346F13
:1024D00015D0FA0EDB06E66AF90EDBCFE6FFFA0E40
:1024E000DBCFE6FF98D9E2EC05F0146E070EE15E53
:1024F0001450DF6EDF5005E0DFCF34FEF5D86F0EED
:1025000002D0F2D8590E06D9E552EAD0E4D8040E2A
:10251000E126FE0EDBCFE6FF7EEC08F0E552E76E2B
:10252000010EE7CFDBFFFD0EDB50140803E20E01C6
:10253000060E5AD0FD0EDB04DF6E010EDB50146E6A
:10254000156AD890155004E6FF0E145C000E15585D
:1025500049E2010EDBCFE6FF3DEC04F0E552000955
:1025600041E0FD0EDB5011E1010EDBCFE6FF93EC05
:1025700007F0E552E66ED950020FE96EDACFEAFFB6
:10258000E552E750EE6EED6A0AD0DFCFE6FF010EAE
:1025900030D9020EF3CFDBFF030EF4CFDBFF020EC8
:1025A000DBCF14F0030EDBCF15F00001800E151405
:1025B0000CE1FE0EDBCF34FEFD0EDBCF35FE020E4E
:1025C000DBCF36FE91D8B50E12D008680968020E2E
:1025D000DBCF0DF0030EDBCF0EF097EC32F006C030
:1025E00034FE03D00E01070E346F7ED86F0E92D8E2
:1025F000040EE15C02E2E16AE552E16E71D06BD853
:102600000AD9ADEC05F010D9E5526AD064D8030EB2
:10261000E12601D958EC06F007D9E552E76E020E23
:10262000E7CFDBFFDB50FF0803E10E01070E09D007
:10263000FA0EDB5004E0FA0EDB50140804E20E013F
:10264000060E346F32D0DCD815C014F0156A14C0F1
:1026500034FEFF0EE76ED4D8E7501416156A14C086
:1026600035FEFA0EDBCF36FEDB06FA0EDBCFE6FFD9
:10267000020EBFD8F3CFDEFFF4CFDDFFDECF14F0C4
:10268000DDCF15F00001800E151405E1DFCF37FE18
:102690002BD8D30E0CD008680968DECF0DF0DDCF43
:1026A0000EF097EC32F006C034FE1ED86F0E32D812
:1026B000030EE15C02E2E16AE552E16E11D0E76EE1
:1026C000FD0EDBCFE9FFFE0EDBCFEAFFE750E92688
:1026D000000EEA221200D9CFE6FFE1CFD9FF1200A7
:1026E000E552E7CFD9FF12002B0EE66E0E0EE66E16
:1026F0001200BBEC34F004015A51065C146E5B51BD
:102700000758156E5C510858166E5D510958176EC2
:10271000D8801200E66EE66A65EC2CF085D8E552AA
:102720001200DBCFE6FFFE0EDBCFE6FF1200E6680D
:10273000E668E6680EEC2DF0146E050EE15E1450AE
:102740001200BBEC34F006C05AF407C05BF408C0BA
:102750005CF409C05DF41200DECFF6FFDDCFF7FFB9
:102760001200800EDE6E7F0EDD6EFE0EDB50DE266A
:10277000000EDD2212006A0E1454180E1554000EBD
:102780001654000E1754120029CEE6FF2ACEE6FF9B
:1027900072DEE552E5521200E66EE6687EEC2CF041
:1027A000146E060EE15E14501200FE0EDB50146E25
:1027B000156A800E145C000E15581200EA6A2B0F81
:1027C000E96E0E0EEA22E552E750EF6E1200E126A6
:1027D000200EDE6E080EDD6E1200F36EFE0EDBCFF5
:1027E000F4FFF350F45C1200E66A36EC2DF014EFBF
:1027F00014F0DBCFE6FF4FEC07F0E552E552120094
:10280000FB0EDBCF14F0FC0EDBCF15F01200E66EF2
:10281000E66A10EF12F0FB0EDBCFE6FFFC0EDBCF1B
:10282000E6FFFD0E91EF13F0E552E552E55212007E
:1028300052DF060E44DFEF5012008EDFF6CF14F0A9
:10284000F7CF15F01200FD0EDBCFE6FF020E91EF81
:0828500013F04ADF97EF13F0CB
:0828580084EC18F0E652DF6A7F
:10286000100EDF5C30E244EC18F0DF504EEC18F054
:10287000EE52EF50040B05E039EC18F0010EEF6E4C
:1028800003D039EC18F0EF6A8EDBDF5024DBDF5029
:10289000D9DBE9EC26F0E552E552E66EDF50EA6A54
:1028A000200FE96E030EEA22D8EC18F0E66EDF5036
:1028B000EBEC18F0D8EC18F0DF50C6EC18F0EA2278
:1028C000EF6ADF2ACDD7AA9E3F0ECD140009CD6E48
:1028D000CF0ECD142009CD6ECD86CD829D80B09EC9
:1028E0003F0EB1140009B16ECF0EB1142009B16EC4
:1028F000B186B182A082DF040301D06FE55271D3AB
:1029000084EC18F0E6520301D02B080ED05D02E3F0
:10291000D06B69D8B9DB0301D05183DB06E0030E2D
:10292000DF5C03E0040EDF5C08E1D051E7DBEF5031
:1029300004E0D0C3E6FF19D8E552A6DB080E030178
:10294000D0256FDB06E0030EDF5C03E0040EDF5CE6
:102950000AE1080ED025D2DBEF5005E0080ED025A5
:10296000E66E18D8E552E5523CD3D8DACF6ECBEC00
:1029700018F01450CE6EF1EC18F002E0000E01D009
:10298000010E6EDBCD80020EE15C02E2E16AE552EF
:10299000E16E27D3C3DAB36ECBEC18F01450B26EED
:1029A000F1EC18F002E0000E01D0010E59DBB1800D
:1029B000020EE15C02E2E16AE552E16E12D3CD90D3
:1029C00063DB0301D051FEDAE66ED0C3E6FFC4D369
:1029D000B1905ADB080E0301D025F4DAE66E080E3A
:1029E000D025E66EB9D390DB040EE126020EDB6A39
:1029F000100EF36E020EDBCFF4FFF350F45C01E334
:102A0000B6D1F6EC18F0EF50040A01E1E8D0070A5D
:102A100001E19DD0010A01E065D1CEDBE9CF17F0DD
:102A2000EACF18F00AEC19F0020E73DBFE0BE84255
:102A3000166EDBDAEE52EF50FE0BE8421624DF6E24
:102A4000010EDB6AADDB0DE0010A01E04BD131DAAA
:102A5000EF50145C02E14ADB02D048DB020FACDA33
:102A6000A3DB43DAD88014542EE2B1DA145C03E21B
:102A7000DE52010EDD6E5FDB10E0020E3DDAEFCFBD
:102A800015F008DBEF501524E7DA145C03E202DBF3
:102A9000EF6808D043DBEF2605D02BDB03E1FADA41
:102AA000EF2A04DB61DAD880145401E20DDA8FDA00
:102AB000145C39E3010EDB5036E08ADB02E0000EE5
:102AC0002FD0010E2DD011DA145C2DE280DAD880DF
:102AD000145403E2DE52010EDD6E2DDB0FE0DADA74
:102AE000EFCF15F028DB155CB7DAD880145403E279
:102AF000D1DAEF6A08D012DBEF5E05D0FADA03E133
:102B0000C9DAEF06D3DA30DA145C01E2DDD95FDA34
:102B1000D880145408E3010EDB5005E0C6D9400B01
:102B2000F6D9010F49DAE1D9145C01E0DBD0CFDA44
:102B3000C0D9EF50145C03E14BDB41E142D048DBEC
:102B400002E0000E01D0010EE2D9020FBFD028DB57
:102B50000CE0010A01E0C6D0020EDBCFE6FF1BEC61
:102B600028F0E55221DB56DAEF6A020E53DAEF2A3B
:102B7000020E50DAEF50146E156AD890155004E624
:102B8000FF0E145C000E155803E341DB18E119D069
:102B90002CDA030EEFCFDBFF020EA1DAEFCF14F039
:102BA000030EDB50145C0FE1020EDBCFE6FF05ECF9
:102BB00029F0E552000901E195D029DB02E0000E81
:102BC0000CD0010E0AD0020EDBCFE6FF25EC28F078
:102BD000E552000901E186D01ADB99D977D0E0DA15
:102BE00022E0010A01E07ED064D9EE52EF50145C7D
:102BF00002E17CDAE1D9FDDA03E178DA010FDCD910
:102C000058D93ADA03E172DA020FD6D943DA8FDA09
:102C1000E9CF15F0EACF16F0D8DA30DA03E166DA58
:102C2000030FCAD9C1DA61D9D88014540FE283DA0C
:102C300003E074DAEF2605D05CDA03E12BDAEF2A41
:102C400035DA92D9D880145412E210D04ED9145CDF
:102C50000EE271DA03E062DAEF5E05D04ADA03E1F0
:102C600019DAEF0623DA80D9145C01E22DD93DD9B7
:102C7000145C38E12CDA1DD9EE52EF50145C07E1F8
:102C8000A7DA02E0000E01D0010E41D995D9B1DAE0
:102C900008E19EDA02E0000E01D0010E38D9010FE2
:102CA0008BD907D9E9D908E193DA02E0000E01D007
:102CB000010E2DD9020F80D9FCD8E0D908E188DABD
:102CC00002E0000E01D0010E22D9030F75D9E2D91E
:102CD000EF50E66E020EDB50B5D913EC27F0E5524B
:102CE000E552E5520DD9EF503FE0010A3DE1DDD854
:102CF000020B3AE0020EDB5022DAEECF18F0EECFF4
:102D000019F0EECF1AF0EFCF1BF018C0E6FF19C094
:102D1000E6FF1AC0E6FF1BC0E6FFBBEC34F0E5524D
:102D2000E7CF1BF0E552E7CF1AF0E552E7CF19F0F5
:102D3000E552E7CF18F000011850065C146E1950E8
:102D40000758156E1A500858166E1B500958176E02
:102D5000D880240E1454F40E1554000E1654000E90
:102D6000175402E2CDD8EF6A020EDB2A41D6040ED8
:102D7000E15C02E2E16AE552E16E33D141D9010A38
:102D800005E0030A0BE1A0D9030E02D09DD9020E83
:102D9000C0D9E66EDED9E552E750EF6E2DDA07E2D4
:102DA0001450EA08000E155402E22CDA02D0D1D9F0
:102DB000E2D8EA22EF6A28D914D122D9010A05E023
:102DC000030A07E134D9EE6A03D031D90C0EEE6E56
:102DD000ED6A1AD9FE0E1ED9EF6A03D195D936C90C
:102DE000E9FF37C9EAFF030EEB50E66EB2D9E0D92E
:102DF00003DA07E21450EA08000E155402E202DA80
:102E000002D0A7D9B8D8EA22EF6AFED8EAD0F8D81B
:102E1000010A05E0030A0AE185D905E102D082D959
:102E200002E052D902D050D9EE52E4D8DAD0E8D834
:102E3000010A05E0030A0AE175D906E102D072D958
:102E400003E042D9EE5201D03FD9D4D8CAD0D8D865
:102E5000030A14E0010A0AE0030A05E0010A19E185
:102E600033D9EE5215D030D9020E0FD028D808D958
:102E7000030E145C0EE328D9030E07D020D800D926
:102E8000040E145C06E320D9040EE926000EEA22A3
:102E9000B1D8A7D039D9FE0E22D9FD0EDBCFEFFF76
:102EA00063D9FD0EDBCFEFFF9CD0A0D9EE52EF50DF
:102EB0001200F0D83CD9EACF16F0E5EF18F07CD933
:102EC000FE0EDB504EEF18F0020E09D9EF50E66E01
:102ED000E1D8D8EF18F033D906C0EEFF15C0EEFFE9
:102EE00016C0EEFF17C0EEFF1200020EF8D8EFCFAB
:102EF00014F0D0D8EF501200DB5048D9EA2212006B
:102F0000020EDB507EEF18F0020EB8EF18F0E66EFE
:102F1000020EDB50040DF350080F1200F5D8020E1C
:102F2000E12622D9EF50166E176A130E086E096A51
:102F300016C00DF017C00EF0C4EC32F006C014F04D
:102F400007C015F0100E14260E0E1522FF0ED880A5
:102F50001456155614C0DEFF15C0DDFF1CD915C070
:102F600014F0156A1450120095D8EFCF14F0020E29
:102F7000B6D8EF501200EF50146E156AEA0ED880E2
:102F80001456000E1556010E1426000E1522F7D801
:102F9000EA2214C0EFFFFE0EEBD8010EEF6EFE0E1C
:102FA000DB50C6EF18F0BBEC34F007C015F008C0DA
:102FB00016F009C017F01200E66E31EC09F0E55288
:102FC000E55212006BD8EE52EF50200B120062D87F
:102FD000EFCF14F0DF501200EFCF14F05BD8145095
:102FE0001200E552E7CFD9FF1200E6D8EACF15F07C
:102FF000E5EF18F0EF50E66EFE0E71D8D8EF18F03E
:1030000083D8FD0EDB501200FE0EDB5077D8030E86
:10301000EF6E1200DB50EA6A800FE96E030EEA22BF
:1030200012003CD8EFCFDFFF020EDF5C1200FE0E75
:10303000EA6ADB34FE0BEA36E96E600EE926030E1F
:10304000EA221200156AC60F146E030E152214C070
:10305000E6FF15C0E6FF1200146E1CD8EF501200F8
:10306000E66EFE0EDBCFE6FF77D01450EF5EBFEFCB
:1030700018F0DF507EEF18F0030ED0D0040ECED043
:10308000D0D8EFCF14F0120097D8E9CF14F0EACFE0
:1030900015F01200020EDB50EBEF18F0070DE950AF
:1030A000F324E96EEA50F420EA6E1200020EDB50BF
:1030B000EA6A400FE96E030EEA22EF50E66E24DF63
:1030C000E552E750EF6E1200FADE11EF19F018DF4B
:1030D000010EEF6E68DF020EDB506BEF17F0DB5076
:1030E000EA6A200FE96E030EEA22120071D887EF18
:1030F00017F00ADFEF0608DFEF501200EA6A000F50
:10310000E96E030EEA221200D9CFE6FFE1CFD9FF24
:103110001200E926000EEA22EF501200020EECDE49
:10312000ECEF17F0CCDEEE52EF50010B1200EFCFB8
:1031300014F0DCEF18F0020EDFDEEF501200040D89
:10314000F3CFE9FFF4CFEAFF900EE926030EEA225F
:103150001200FE0E7CEF17F066EC2BF0E552E55204
:103160001200B2DEE8EF18F0FE0EDB50EBEF18F0C5
:10317000DB50EA6A500FE96E030EEA221200FE0EDF
:10318000DB50EA6A400FE96E030E1200EA6A300F64
:10319000E96E030E1200DECF14F0DDCF15F0120041
:1031A000AFDEEF50020A1200ABDE020EEF6E12002D
:1031B000E552E750EF6E120036C9E9FF37C9EAFF62
:1031C000100EE926000EEA22120024D811EF19F0A1
:1031D0006CDE400B1200EA6A100FE96E030EEA2261
:1031E000120052DFFE0EDB50E2EF17F04DDF0AEF68
:1031F00019F05FDE020E12D0ACDFEF50146E156ACC
:1032000015341200EA0E146EA4DF35EF18F05FDFFC
:10321000B1EF18F0020EDB504EEF18F07ADF145CBD
:0C3220001200020EE926000EEA22120045
:04322C000301FC6B33
:10323000FD6BFE6BFF6B12001200ACDB020EE12691
:10324000FE0EDB28DE6EDD6AFE0EDBCFE6FF84D8E5
:10325000E552FD0EDB50060A27E0030A25E0010ACD
:1032600023E0060A20E0020A1FE0010A02E0020A47
:103270001BE150DB010EF3DB030FE66E010EE66E81
:10328000DECF14F0DDCF15F0C80E1426000E152287
:1032900014C0E6FF15C0E6FF62EC1DF0166E070EC7
:1032A000E15E165001D036DB020EE15C02E2E16A1B
:1032B000E552E16E74D36EDBE652080EF36EFE0E3D
:1032C00088DB47E3FE0E7FDBDF6E29CE14FE2ACEBD
:1032D00015FEB1DB76DBEF50020A1AE0010A15E0B9
:1032E000020A13E0040A0DE0030A09E0060A31E1CC
:1032F00023DB09E04BDB2DE10E01166B0FD046DB23
:1033000009E01ADB26E1DF2807D016DB22E102D034
:1033100013DB06E1650EDF240E01166F176B17D065
:1033200035DB09E1DF500E01166F176B2D0E1627E6
:10333000010E17230FD0CCDB020FCFDB0AE1DF50E9
:103340000E01166F176BC90E1627000E1723010EFC
:1033500001D0000EE55223D31DDB040E80DB29DBF8
:10336000800927DBE66ECAEC08F0E552E55217D378
:1033700011DB090EE126FE0EDBCFE6FFB6EC07F00F
:10338000E552E76E050EE7CFDBFF060EE76EFC0E9B
:10339000DBCFE9FFFD0EDBCFEAFFE750B8DB050E20
:1033A000EFCFDBFFDBB041D0010EDF6E140EDF5C30
:1033B00001E3BAD0DF5072DBF6DAE552E750EE6E89
:1033C000ED6AF1DAEE50ED102EE04DDB153404E23B
:1033D00014504808000E155426E345DBD8901550CC
:1033E00004E6080E145C000E15581CE33CDB81DA81
:1033F000F5DA39DB27DB16E0060A08E0010A06E009
:10340000020A11E153DB02E04BEC34F0020EDB5018
:1034100005E1030EDB2A040E01E3DB2AEFDA4FECB1
:1034200034F001D0EBDADF2AC1D7130EE66EFE0EC0
:10343000DBCFE6FF4FEC07F0E552E552060EF3CF87
:10344000DBFF070EF4CFDBFF130EDF6E010EDF5C38
:103450006BE3060EDBCF08F0070EDBCF09F0030E9F
:1034600008C0DBFF040E09C0DBFF800EF36E080E00
:10347000F3CFDBFFDF50010817E2DF040FDBD95089
:10348000060FE96EDACFEAFFE552E750EE6EED6A1D
:10349000800EE76E060EDBCF14F0070EDBCF15F0C3
:1034A000C4DA080E14C0DBFF7EDAEE50ED103AE00D
:1034B0007ADAEE9EED6A16DA153404E21450480802
:1034C000000E15542FE30EDAD890155004E6080EBE
:1034D000145C000E155825E305DA0BDA7FDA02DA00
:1034E000B1DA1FE0060A11E0010A0FE0020A1AE150
:1034F000DDDA02E04BEC34F0020EDB50030805E1AC
:10350000030EDB06040E01E2DB06020EDB5005E1D2
:103510004ADA020EEE26000EED22CEDA4FEC34F03F
:1035200001D0CADADF0692D7090EE15C02E2E16A55
:10353000E552E16E34D22EDA090EE12600EC34F0C9
:10354000E76E020EE7CFDBFFDB5001E1A3D0020EF6
:10355000DB0402E1EAD89ED0020EDB50020802E151
:10356000050E11D0020EDB50030802E10A0E0BD04B
:10357000020EDB50040802E1140E05D0020EDB50EF
:10358000050807E1320EE66EE66A8DD8E552E5528F
:1035900083D0020E38DA020EDB507F0B41DA080EC0
:1035A000F36E030E16DA76E3480EF36E030E11DAAD
:1035B00071E2030E08DADF6E030EDB50F80F030B27
:1035C0002FDA87D9FED9010EEFCFDBFFD9D9E0EC96
:1035D00030F0E552E552E552010ED2D91BDA07E090
:1035E000010ECED9C2EC30F0E552E552E552010EA3
:1035F000F36E050EF3CFDBFF040EDB5047E0050E44
:10360000DBCFE6FF14EC34F0E552E76E060EE7CFB1
:10361000DBFFDB503BE0060EF6D9060EDB9ED3D96E
:10362000E76E070EE7CFDBFFDF50F36E070EDB50D0
:10363000F35C2CE0060EDB50F80F030BE76E060E72
:10364000E7CFDBFF46D9070EF4D9080EEFCFDBFF3B
:1036500076D9E0EC30F0E552E552E552080E6FD92C
:10366000D9D907E0080E6BD9C2EC30F0E552E5522B
:10367000E552080E64D9D1D906E0050EDBCFE6FF8E
:1036800033EC34F0E552050EDB2AB6D7010E78D9BB
:10369000C4D902E012EC34F0090EE15C02E2E16A06
:1036A000E552E16E7CD176D90301FC51FD11FE118A
:1036B000FF110BE1BBEC34F006C0FCF307C0FDF3D7
:1036C00008C0FEF309C0FFF32FD0BBEC34F00301B8
:1036D000FC51065C146EFD510758156EFE510858DA
:1036E000166EFF510958176EFD0EDBCF06F0FE0E69
:1036F000DBCF07F0086A096A6A0E0B6E180E0C6EB3
:103700000D6A0E6A64EC35F01450025C15500358D3
:10371000165004581750055807E212EC34F0030114
:10372000FC6BFD6BFE6BFF6B3AD134D9040EE126C6
:10373000020EDB6A100EF36E020E4BD901E3A4D029
:103740001BD9EE52EF50400B6BD9C3D8020E71D982
:10375000EF50040A61E0070A55E0010A1EE0030A7F
:1037600010E0010A01E08DD0C9D9020EDB50EA6AEF
:10377000100FE96E090EEA22EF508DD901E081D0D9
:10378000F3D7E6D8BBD9010EDB50020802E1000EE8
:1037900001D0010E80D975E1F5D793D8EF50145CB4
:1037A00002E0000E01D0010E76D9F7E08AD8EE5281
:1037B000EF50145C02E0000E01D0010EA7D8020FFA
:1037C0008ED8F4E038D9E9CF17F0EACF18F092D9C3
:1037D000EF50FE0BE842166E2ED9EACF15F08AD9CB
:1037E000EE52EF50FE0BE8421624DF6E41D9DF5057
:1037F000145C02E2000E01D0010E88D8010F6FD8D0
:1038000040E1F4D7A5D87AD9010EDBCFE6FF020E4E
:1038100079D965D836E1F7D754D8EE52EF50145C19
:1038200002E0000E01D0010E36D9F6E04AD82BD9BD
:10383000EF50145C02E0000E01D0010E67D8010FBA
:103840004ED8F4E03ED8030E62D9EF50145C02E08B
:10385000000E01D0010E5AD8020F41D8F3E08CD8E7
:1038600012D9EF5003080DE22CD8040E50D9EF50B6
:10387000145C02E0000E01D0010E48D8030F2FD8CF
:10388000F3E0020EDB2A56D7040EE15C02E2E16AA5
:10389000E552E16E84D07ED8FC0EDB5007E0FD0ED1
:1038A000DB5002E0000E04D0010E02D0FD0EDB5012
:1038B000E66EFE0EDBCFE6FF31EC09F0E552E55295
:1038C0006ED0D6D8B8D8E9CF15F0EACF16F07AEF97
:1038D0001DF0B1D8E9CF14F0EACF15F01200E66E72
:1038E000DADFD4D0030EDBCF14F0040EDBCF15F0FB
:1038F0001200080E145E000E155A040E0D6E0E6AAC
:1039000014C008F015C009F071EF32F0E66E020E37
:1039100082EF1DF0010EA3D8E66E010EE66EDECF3B
:10392000E6FFDDCFE6FFCED8146E070EE15E145041
:103930001200010E19EF1DF0CBD86DEF1DF0DBCF9B
:10394000E6FF060EDBCFE6FF070EDBCFE6FF120039
:10395000020EDB50156AC60F146E030E152214C03A
:10396000E6FF15C0E6FFE9EC26F0E552E552E76E0A
:10397000010EE7CFDBFF12005ED8020E19EF1DF03B
:10398000DBCFE6FFBBD8DFCFE6FF1200A1D8010FE7
:103990006DEF1DF0D9CFE6FFE1CFD9FF1200E55260
:1039A000E7CFD9FF1200D950030FE96EDACFEAFF53
:1039B0001200E66E86EC08F0E552E552040E2FEF99
:1039C0001DF0DF508FD0DB50F80FFC0BE842E842CF
:1039D0001200DBCFF4FFF350F45C120008C014F0C7
:1039E00009C015F0010E08C0DBFF1200E7501412E9
:1039F0001450E66EF3EC33F0E55212007FD8F3EC8E
:103A000033F0E5521200DB50800BE76E040EE7CF77
:103A1000DBFF120038EC31F039D053EC31F036D006
:103A2000E76E030EE7CFDBFF1200E7501416156AAE
:103A30001200DB5057D036C9E9FF37C9EAFF100E34
:103A400087EF1DF056DF04C014F005C015F0020E1C
:103A500004C0DBFF3EDF6DDFEF50040A1200E66EAC
:103A6000FE0E82EF1DF07F0EE76E3CDF15EF1DF0BE
:103A700045D8020EDB50EA6A100FE96E030EEA2207
:103A8000EFCF14F01200020E87EF1DF0E552E55261
:103A9000E552000912003ADF6FEF1CF0EA6A000FEE
:103AA000E96E0E0EEA22EF50E66E120012DF41DFE1
:103AB000EE52EF50800B1200080EDB50E76E12DF63
:103AC000F6EF1CF029CEE6FF2ACEE6FFE2EF05F086
:103AD000040EDF02F350080F1200F36EFE0EDB50EF
:103AE000F35C1200070DE950F324E96EEA50F4206C
:103AF000EA6E1200020E9DDF43EF1DF0030EDBCFD6
:103B0000E6FF1200DB50040DF350080F1200E92607
:063B1000000EEA22120083
:0A3B16008CDB0301DB6BDC6BDD6B65
:103B2000DA6BCFEC21F0DE6BDF6BE16BE06BD16B1E
:103B3000D26BD36BD46BE26BE36B786A800E6F6EE3
:103B40006EAEFED7B00E726E0E017D6B0F0E436F20
:103B50003F0E4315010F040DF3CF57F49E0E446F33
:103B6000030E456F200E706EF86B080EF96FFA6B3E
:103B7000FB6BFC6BFD6FFE6BFF6B800EE16F716B7F
:103B8000726B736B746B756B766B776B786B796B31
:103B90007A6B7B6B7C6B200E606E0F01306F0E01B9
:103BA000806B906BA06BB06BC06BD06B7E6B7F85B6
:103BB0007F977F996F6AFD0EDB5010E1FE0EE66E77
:103BC000030EE66EE9EC26F0E552E5520301FB6FC9
:103BD000FF0EFB5D0AE1010EFB6F07D0FD0EDBCF90
:103BE000FBF3FBC3E6FFFE0E92DB0F01206B20917F
:103BF0002093256B26DB0F01216F070E0301FB15B8
:103C0000200DF3CF22FF0F01106B10911083400E97
:103C1000156F17DB0F01116F22CF12FF006B0081B0
:103C20000083056B0EDB0F01016F22CF02FF030142
:103C3000EA6BEAC3E8F3F1DA7680768AFED2F8DA44
:103C4000010EF36EFE0EDBCFF4FFF350F45C24E3C1
:103C5000FE0EDB50630820E3FE0EDBCFFBF3F00E1D
:103C60000F01211732DB2113FE0EDB50070B200D55
:103C7000F3CF22FFF00E111728DB111322CF12FF12
:103C8000F00E011722DB011322CF02FFFE0EDBCF65
:103C9000E6FF3DDB010E01D0000ECFD2C9DAE652BD
:103CA000050EE76EA4DAE75092DBFC0EDBCFEFFFE8
:103CB00027DB06D8E552E552DF6EDF50E552BDD274
:103CC000B7DA040EE12693DAEF6A0F0E146E7CDB8E
:103CD0001450EF16B6DAE66E8ADA010E33DB070E01
:103CE000FB15200DF350E66E82DA020E2BDB7FDA35
:103CF0002EDB02E27CDA2FDB7698D151D25D02E036
:103D0000DA5110E00F012051080B0CE1200EDE6E9D
:103D10000F0EDD6E36DBDEDAD1DA03019EDA020E3B
:103D2000DB6A32D0FF0E0301D15D02E0000E01D04C
:103D3000010EFCDA0FE125DBD15136DBB0DA0301ED
:103D4000D12B100ED15D01E1D16BD151D25D03E1D8
:103D5000D16901D0E02BE22BD251D15D03E2100EEC
:103D6000D12501D0D151E76E030EE7CFDBFFDB5049
:103D7000D880D255146EDE51D880145405E2030E5B
:103D8000DB50D880D255DE6F7688020EDB5002E021
:103D9000000E01D0010E146E040EE15C02E2E16A35
:103DA000E552E16E145049D243DA7690A9DA96D8FA
:103DB000E552E5527680010E40D2F9DA0301DA6B62
:103DC00077980F0120B725D00301E9DAD151D25DF0
:103DD0001BE0200EDE6E0F0EDD6ED251E5DA17DA33
:103DE000D251E2DA0BDA76DA69DA0301E20735DA80
:103DF000FF0E0301D15D02E1D2C3D1F3D22B100E2D
:103E0000D25D08E1D26B06D00F01206B77987698CF
:103E100002D077987688020EE15C02E2E16AE55210
:103E2000E16E0BD20301D651D711D811D9111BE085
:103E3000BBEC34F00301D651065C146ED751075821
:103E4000156ED8510858166ED9510958176ED8807A
:103E5000240E1454F40E70DA06E2010EDA6FDD2B34
:103E60000F012097AADF1200A6DA76908BD8030103
:103E7000D351D45D15E0D451EAD976DAC8D9D451FA
:103E800085DAB5D90CDA0301E307D42B100ED45D23
:103E900001E3D46B010EF36E020EF3CFDBFF12D001
:103EA000020EDB6A71AE0ED01ADA74DA3FDA06E07F
:103EB00060DAADD90FDA9BD9A1D900DA77BE779E47
:103EC00058DAEF9E7680020EDB50146E030EE15C32
:103ED00002E2E16AE552E16E1450AFD1A9D987D967
:103EE00096D90EDA0301D35151DAE8D90301E32B55
:103EF000D32B100ED35D01E3D36BD451D35D07E117
:103F0000E12BD35103E10F0ED36F01D0D307010E84
:103F100094D151DA71AE24D0E2D971BC719C3ADAF5
:103F2000000904E0D7D9DADFE552E55277BE779E83
:103F300020DAEF9E0301D451D35D03E2100ED325A6
:103F400001D0D351F3D9D880D455146EDF51D88025
:103F50001454E0E2020EDB50D880D455DF6FDAD77C
:103F60007790030EE15C02E2E16AE552E16E65D111
:103F70005FD9FE0EDBCFE9F30301EA5102E1010E46
:103F8000E86F5BD118DA0301E85119E077D9D40E54
:103F90001454300ED1D913E2010EDF6E100EDF5C27
:103FA00005E2DF50A7D9EF6ADF2AF8D70301010E37
:103FB000EB6FEA6FE86B31D90F0110875BD0EA51E4
:103FC00059E05CD96A0E1454180EB6D953E2DF6A70
:103FD000DF5090D9EF50FF0805E1100EDF5C02E2E0
:103FE000DF2AF6D7DF5086D9020EEFCFDBFFEF5086
:103FF000FF0832E0080EDF02010EF3CFDBFF020EF6
:10400000DBA009D0DBCFF3FFF390F342F3CFDBFF6C
:10401000010EDB2AF4D7010EF36EDBCFF4FFE8507C
:10402000F45C24E3010EDB50630820E3010EDBCFD8
:10403000FBF3FBC3E6FF03DEE5520301E95116E0A3
:104040002B0EE66E0E0EE66E520EE66EE66A65EC1E
:104050002CF0E552E55208D00301E95107E0070EC4
:10406000E66EE66A10EC12F0E552E5520301EA6BE7
:10407000EAC3E8F3030EE15C02E2E16AE552E16EB5
:10408000DCD095D9010EDB6AB2D8020EA0D9EF5070
:10409000E00BE838E840146EAAD8010E98D9EF502A
:1040A000080DF35014247F0BDF6E0301EA5111E079
:1040B000070EDF14156E010E155204E0E846FE0BE4
:1040C0001506FCE1146EDF507AD914D91450EF12A2
:1040D00009D0E85107E1FB51DF5C04E1E66A48DF03
:1040E000E5529BD871D9EF50400B04E00F010087D7
:1040F00094D80CD069D9EF500F0BE76E010EE7CFC3
:10410000DBFF75D824D902E272D825D9010EDB5025
:10411000146E020EE15C02E2E16AE552E16E1450B7
:104120008CD00F0120AB0ED00301D55104E1F8D89B
:104130000301DB2B07D0D50705E10F0120973F0EC8
:10414000211720870F0120A904D00301E9D803011A
:10415000DC2B0301DA5101E030DE779A120077B0F0
:10416000D8DE77BADEDF77B828DE12EF1FF01FD96E
:10417000FE0EDB50060A24E0030A1EE0010A18E0E6
:10418000070A12E0010A0CE0030A06E0010A1CE13A
:10419000600EDE6E0F0E1BD0300EDE6E0F0E17D0CF
:1041A000800EDE6E0E0E13D0900EDE6E0E0E0FD051
:1041B000A00EDE6E0E0E0BD0B00EDE6E0E0E07D011
:1041C000C00EDE6E0E0E03D0D00EDE6E0E0EDD6E55
:1041D000DECF14F0DDCF15F014C0F3FF15C0F4FFEF
:1041E000020EE15C02E2E16AE552E16E26D0FD0ECC
:1041F000DBCFE9FFFE0EDBCFEAFF1200E9CF14F0C0
:10420000EACF15F0E9CFE6FFEACFE6FF1200B6D815
:10421000EF50060FE66EE66A1200BBEC34F006C003
:10422000E4F307C0E5F308C0E6F309C0E7F31200C2
:10423000D9CFE6FFE1CFD9FF1200E552E7CFD9FF92
:104240001200780E0301FB15BAD8B0091200100D48
:10425000F3CFE9FFF4CFEAFF12000A0ED56FBBECF3
:1042600034F006C0D6F307C0D7F308C0D8F309C0AE
:10427000D9F30301DA6B0F0120871200BBEC34F095
:104280000301E451065C146EE5510758156EE651C2
:104290000858166EE7510958176ED8801200E9CFFA
:1042A00016F0EACF17F0E9CFE6FFEACFE6FF9CEC85
:1042B00035F0186E060EE15E185012009CEC35F0D9
:1042C000166E060EE15E16501200FE0EDB50780BE5
:1042D000DFEF21F0DECFE6FFDDCFE6FF1200070EB5
:1042E0006F14E66E44DFE552F3CFDEFFF4CFDDFF5F
:1042F00077921200EA6AEB0FE96E030EEA221200CF
:10430000FD0EDBCFE6FFFE0EDBCFE6FF1200E66E12
:10431000030EE66E13EC27F0E552E552E55212006B
:10432000010EDA6F3CD80F0120971200E76E020EE3
:10433000E7CFDBFFDB5012001554000E1654000EC1
:104340001754120044D8E552E750EF6E120016D809
:10435000EF500808120012D8080EEF6E1200000E7F
:10436000E926010EEA221200000EE926020EEA22D8
:104370001200DECFE9FFDDCFEAFF1200050EE7EF06
:1043800021F035DF44DF33DFFEEF20F060DFECDFCC
:10439000FEEF20F09FDF75DEE552E5521200D66B8E
:1043A000D76BD86BD96B120052DFAFEF21F040DF33
:1043B000020EE12612003CDF030EE1261200E84067
:1043C000E840E8401F0B120012DFBEEF21F0E926A3
:0643D000000EEA221200BB
:0A43D6004CEC25F01CEC35F0F3CFA1
:1043E00036F9F4CF37F9A6EC31F0BBEC34F006C067
:1043F00018FE07C019FE08C01AFE09C01BFEF3DA3A
:10440000FBDA03DBA4D80E013D5148E1BBEC34F0EC
:104410000E011851065C146E19510758156E1A5189
:104420000858166E1B510958176E12DB010EEB501F
:10443000186E196A1A6A6A0E0C6E180E0D6E0E6AE4
:1044400018C007F019C008F01AC009F0E2EC32F009
:1044500004C018F005C019F006C01AF0480E18265E
:10446000E80E1922010E1A221B6A1ABE1B6814508C
:10447000185C1550195816501A5817501B580EE250
:104480000E01010E3D6FE4DAEB50000807E2010E69
:10449000E66EE66E31EC09F0E552E5521BD969ECA7
:1044A0000CF00E013D5150E0BBEC34F00E011C51FC
:1044B000065C146E1D510758156E1E510858166E75
:1044C0001F510958176ED8809B0E1454000EA6DA9F
:1044D00005E280EC14F0BBEC34F085DABBEC34F090
:1044E0000E012051065C146E21510758156E2251A1
:1044F0000858166E23510958176ED880360E14547A
:10450000010E8CDA05E286EC2FF0BBEC34F074DAA5
:10451000BBEC34F00E012451065C146E2551075893
:10452000156E26510858166E27510958176ED880F7
:10453000380E1454180E72DA07E29BEC1AF0B6EC3F
:104540002AF0BBEC34F061DADCEC31F05CD79B8C08
:10455000FA0EE66E030EE66EE9EC26F0E552E55241
:10456000010808E036D852D8010EE66EFA0EE66E63
:1045700025DA2CDA6DDAEF50010802E047D826DAA6
:10458000E66A8BEC34F0E552F19E62DA040EEB50F1
:104590000F015B6FE0EC33F016EC19F024EC04F043
:1045A0000F015D6B5C6B2CEC14F036EC2AF00E0105
:1045B000286B100E285D07E228CEE6FFE5D8E5520D
:1045C0000E01282BF6D762EC2FF0D08EF28EF28CF3
:1045D0001200E66AE668F2D9010EE66EFE0EE66E9D
:1045E000EDD9000EE66EE66AFC0EE66E030EE66E90
:1045F0009AEC27F0E552E552E552E552E66AFB0EE9
:10460000E66EDEEF24F0E5DF06EF23F018DAE6527F
:10461000A3EC2EF01CEC19F04FEC04F0DF6A100E46
:10462000DF5C08E2E66ADFCFE6FF08D8E552E55234
:10463000DF2AF5D7ACEC25F0E55206D200DA020EFF
:10464000E126FE0EDB50070DF350100F156A800FA8
:10465000146E7F0E152214C0DEFF15C0DDFFFD0EA7
:10466000DBCFE6FFDECFE6FFDDCFE6FFA5EC26F0F1
:10467000E552E552E5529CD9FD0EDBCFEFFFD8D9CC
:10468000B3EC2EF0E552E552FE0EDBCFE6FF7CD810
:10469000E552FD0EDB50020808E0FD0EDB5003087A
:1046A00004E0FD0EDB50040809E1FE0EDB50EA6A6F
:1046B000100FE96E030EEA22800EEF6EB9D91DECE1
:1046C00019F0E552E552020EE15C02E2E16AE552C0
:1046D000E16EBAD1D9CFE6FFE1CFD9FF140EE126C2
:1046E000D9CFE6FFDACFE6FFE66A50EC2CF0E552D0
:1046F000E552E55200093AE01EEC32F0D9CFE6FF70
:10470000DACFE6FFFBEC0CF0E552E552000904E0DD
:1047100040EC32F0010E2CD0D9CFE6FFDACFE6FF25
:1047200019EC12F0E552E552000920E0060EDB50CC
:104730005E0A1BE0110A01E019D0070E0401585D62
:1047400002E161DF10D00E01020E346F2B0EE66E17
:104750000E0EE66E6F0EE66EE66A65EC2CF0E55224
:10476000E552E552E552010E03D0FF00000E00D0E5
:10477000146E140EE15C02E2E16AE552E16E14503F
:10478000E552E7CFD9FF12005AD9100EF36EFE0E94
:10479000DBCFF4FFF350F45C6AE2CBD8EE52EF507B
:1047A000040B1BE005D9EF50E66EFE0EDB50176AD6
:1047B000C60F166E030E172216C0E6FF17C0E6FFDF
:1047C000E9EC26F0E552E552E66EFE0EDBCFE6FFA1
:1047D000FEEC30F0E552E552E5523FD9F62A000EE4
:1047E000F7220800F550430A2EE0010A17E0030AF9
:1047F0003EE149D906E047D9050803E044D9060857
:1048000006E199D802E010D9FEE1921230D093D897
:1048100002E00AD9FEE1E81C921629D034D906E05C
:1048200032D9050803E02FD9060806E184D802E052
:10483000FBD8FEE193121BD07ED802E0F5D8FEE152
:10484000E81C931614D01FD906E01DD9050803E013
:104850001AD9060806E16FD802E0E6D8FEE1941204
:1048600006D069D802E0E0D8FEE1E81C9416ECD04E
:104870000E01800E3B6F7F0E3C6F0E01800E396F74
:104880006F0E3A6F120062D800EE00F0140EE804CA
:1048900003E3EECFE4FFFBD700EE14F00C0EE804C8
:1048A00003E3EECFE4FFFBD7E65211EC35F0AFECBB
:1048B00020F0E55200EE1FF00C0EE80403E3E5CF14
:1048C000EDFFFBD700EE13F0140EE80403E3E5CF91
:1048D000EDFFFBD755D03AD800EE00F0140EE804F7
:1048E00003E3EECFE4FFFBD700EE14F00C0EE80478
:1048F00003E3EECFE4FFFBD7E6529EA003D0DFEC4C
:1049000014F09E90A1A203D0E8EC14F0A192E5521D
:1049100000EE1FF00C0EE80403E3E5CFEDFFFBD73C
:1049200000EE13F0140EE80403E3E5CFEDFFFBD730
:1049300027D0ACD89ED091D8020EF626000EF722D2
:104940000800F550146E010E14521200D8CFE4FF87
:10495000E0CFE4FFE46EDACFE4FFE2CFDAFFE9CFA5
:10496000E4FFEACFE4FFF6CFE4FFF7CFE4FFF5CFB3
:10497000E4FFF3CFE4FFF4CFE4FFFACFE4FF12004B
:10498000E5CFFAFFE5CFF4FFE5CFF3FFE5CFF5FF85
:10499000E5CFF7FFE5CFF6FFE5CFEAFFE5CFE9FF8B
:1049A000E5CFDAFFE550E5CFE0FFE5CFD8FF100017
:1049B0006DD8E9CF14F0EACF15F05BD0030EE66EA8
:1049C00013EC27F0E552E552E5521200010EE66EB7
:1049D000800EE66E7F0EE66EA5EC26F0E552E552FF
:1049E000E5521CEF35F006C01CFE07C01DFE08C0D6
:1049F0001EFE09C01FFE120006C020FE07C021FED9
:104A000008C022FE09C023FE120006C024FE07C013
:104A100025FE08C026FE09C027FE12001554000E10
:104A20001654000E17541200E846FE0B140612002E
:104A3000FD0EDBCFE6FFFE0EDBCFE6FF1200D9CF87
:104A4000E6FFE1CFD9FF1200E552E7CFD9FF120010
:104A500036C9E9FF37C9EAFF1200FE0EDB50040D2C
:104A6000F3CFF6FFF4CFF7FF8E0EF6266B0EF7228C
:104A70001200FE0EDB50070DE950F324E96EEA50F8
:104A8000F420EA6E120055DFEF501200E1DF100E45
:084A9000E926000EEA221200E3
:084A980004015E6BA069A16935
:104AA0001200D9CFE6FFE1CFD9FF020EE126F29E38
:104AB000F29C5F0EDE6E040EDD6E0401800EA05DC2
:104AC0006F0EA15907E30401FF0ED880A0557F0E99
:104AD000A15501E221D0A0C4F6FFA1C4F7FFF86AF6
:104AE000F86ADECFE9FFDDCFEAFF0401400E9F6FD9
:104AF000EE50F56E0D009F07FBE10A007F8E7F9C54
:104B00007F987F84550E7E6EAA0E7E6E7F827F9484
:104B10000900F86AF28EF28C020EE15C02E2E16AB0
:104B2000E552E16EE552E7CFD9FF1200A0C4F6FFCF
:104B3000A1C4F7FFF86AF86A7F8E7F9C7F847F8824
:104B4000F29EF29C550E7E6EAA0E7E6E7F82F28ED3
:104B5000F28C7F9451EF25F004015EA905D05EAB85
:104B600002D096EF25F09DDF1200D9CFE6FFE1CF0E
:104B7000D9FF020EE126FD0EDBCF14F0FE0EDBCFD7
:104B800015F0800E145C6F0E15580CE3D950FD0F14
:104B9000E96EFF0EDA20EA6EFF0ED880EE547F0E2B
:104BA000ED5402E2FF0E6AD004015E51070B0508C6
:104BB00003E00401050E5E6F040104015E51080B61
:104BC00015E0FD0EDBCF14F0FE0EDBCF15F0C00EAE
:104BD0001416FF0E151614500401A01902E1155009
:104BE000A11904E0B9DF0401050E5E6F04015EB790
:104BF00034D0FD0EDBCFA0F4FE0EDBCFA1F4C00E4F
:104C00000401A017FF0E0401A1175F0EDE6E040E53
:104C1000DD6EDECFE9FFDDCFEAFFFD0EDBCFA0F4D6
:104C2000FE0EDBCFA1F4C00E0401A017FF0E04019D
:104C3000A117A0C4F6FFA1C4F7FFF86AF86A800EB6
:104C40007F6E0401400E9F6F09000000F5CFEEFF5C
:104C50009F07FAE1F86A04015E873F0EE76EFD0EDA
:104C6000DBCFE9FFFE0EDBCFEAFFE750E916EA6A89
:104C70005F0EE926040EEA22EF5000D0146E020EF9
:104C8000E15C02E2E16AE552E16E1450E552E7CFE1
:104C9000D9FF1200A4D9020EE1269AD9800E145C25
:104CA0006F0E15584BE3D950FD0FE96EFF0EDA2059
:104CB000EA6EFF0ED880EE547F0EED543FE3040100
:104CC0005E51070B050803E05E815E935E855E51D1
:104CD000080B0BE07DD9C00E1416FF0E15161450EC
:104CE000A01902E11550A11904E08DD93EDFE5526B
:104CF000E5523F0EE76E6CD9E7501416156A5F0E49
:104D00001426040E152214C0DEFF15C0DDFF89D95C
:104D1000EF50F36EFC0EDB50F35C02E004015E89A1
:104D2000FC0EDBCFE6FF7DD9EF1CE552E71402E075
:104D300004015E8B76D9FC0EDBCFEFFF020EE15C47
:104D400002E2E16AE552E16E4FD149D9FC0EDBCFB8
:104D5000E6FF59D96BD900DF47D141D949D953D999
:104D600099DF27D9010EE76EFD0EDBCF16F0FE0EA0
:104D7000DBCF17F0E7501626000E172216C0E6FF0D
:104D800017C0E6FF53D930D12AD9E652DF6AFA0EAE
:104D9000DB50DF5C1CE2DF50E76EFB0EDBCFE9FF90
:104DA000FC0EDBCFEAFFE750E926000EEA22EF50C7
:104DB000E66EDF50E76E0CD9E7501426000E152280
:104DC00014C0E6FF15C0E6FF31D9DF2AE0D7E5526F
:104DD0000BD1D9CFE6FFE1CFD9FF7FB2FED7FD0ED1
:104DE000DBCF14F0FE0EDBCF15F015C014F0156A02
:104DF0001450756EFF0EE76EFD0EDBCF14F0FE0E45
:104E0000DBCF15F0E7501416156A1450746E7F9EB0
:104E10007F9C7F807FB0FED70000735000D0E552AA
:104E2000E7CFD9FF1200D9CFE6FFE1CFD9FFFD0EC2
:104E3000DBCF14F0FE0EDBCF15F015C014F0156AB1
:104E40001450756EFF0EE76EFD0EDBCF14F0FE0EF4
:104E5000DBCF15F0E7501416156A1450746EFC0E73
:104E6000DB50736E7F9E7F9C7F84F29EF29C550E7A
:104E70007E6EAA0E7E6E7F8200000000F28EF28CA3
:104E8000B7ACFED7B79C7F94FD0EDBCFE6FFFE0EDE
:104E9000DBCFE6FF9EDFE552E552146EFC0EDB50E1
:104EA000145CC5E1E552E7CFD9FF120098D8040E93
:104EB000B1D8DFCF14F0DF2A010EDBCF15F001E30C
:104EC000DB2A14C0E6FF15C0E6FF83DFE552E5529A
:104ED000E66ED950020FE96EDACFEAFFE552E750ED
:104EE000EE6EED6ADECFE6FFDDCFE6FF72DFE55264
:104EF000E552176E166A020EDB501610146E030E82
:104F0000DB501710156E020E14C0DBFF030E15C028
:104F1000DBFF020EDBCF14F0030EDBCF15F014C065
:104F2000F3FF15C0F4FF040EE15C02E2E16AE55212
:104F3000E16E5AD054D8020E6DD85AD8DFCF16F091
:104F4000DF2A010EDBCF17F001E3DB2A16C0E6FFF4
:104F500017C0E6FF68DF2DD8DECFE6FFDDCFE6FF26
:104F600062DFE552E552E552020EE15C02E2E16ADF
:104F7000E552E16E39D033D8020EE126FE0EF66E10
:104F8000F7683F0EF86E0900F5CFDEFF0A00F5CF97
:104F9000DDFFF86ADECF14F0DDCF15F014C0F3FFAB
:104FA00015C0F4FF020EE15C02E2E16AE552E16E37
:104FB0001BD0E552E552E552FB0EDBCF14F0FC0EA0
:104FC000DBCF15F015C014F0156A1450E66E120010
:104FD000FD0EDBCF14F0FE0EDBCF15F01200D9CFA3
:104FE000E6FFE1CFD9FF1200E552E7CFD9FF12006B
:104FF000FF0EE76EFB0EDBCF14F0E7501416156AB8
:105000001450E66E1200FD0EDBCFE6FFFE0EDBCF86
:10501000E6FF1200E126FD0EDBCFDEFFDBCFDDFF7A
:105020001200DECFE9FFDDCFEAFF120033DEE552EA
:06503000E552E5521200FA
:0A503600B4D989D9EF6A60D9EE6A97
:10504000ED6AE552E7CFD9FF1200AAD9030EE12697
:10505000EBD9030FD88014541EE363D9EFCF15F0BA
:105060007DD9FD0F155C17E34AD99FD9173404E2A7
:1050700016500308000E17540EE341D9EECF18F076
:10508000EFCF19F0D880195004E7FD0E185CFF0E21
:10509000195801E3B2D03ED9EACF16F0CED9E9CF04
:1050A00017F0EACF18F01FD9EF50D880145402E35C
:1050B000000E01D0010EDF6EDF505CE132D9EF50FF
:1050C000146E156A1CD9EECF1AF0EFCF1BF01E0E2E
:1050D0000D6E0E6A1AC008F01BC009F071EC32F0B8
:1050E00008C01AF009C01BF015D9E9CF18F0EACFB3
:1050F00019F09FD900010824166E000E0920176EC2
:1051000015501718E8AE02D0173404D01650145CAE
:10511000175015582CE27ED955D9FCD8E9CF19F093
:10512000EACF1AF0E0D8EE52EFCF18F0FAD8EFCF6E
:105130001BF0F0D8E9CF1CF0EACF1DF07AD91B5C48
:10514000185C166E176ADBD8EECF1EF0EFCF1FF09B
:105150001E0E0D6E0E6A1EC008F01FC009F071EC25
:1051600032F00850165C146E0950175836D03FD9EB
:10517000EF5E41D0D6D8EF50146E156A6AD959D96E
:10518000186E196ABCD8F3D808C01CF009C01DF00D
:105190000850185C166E09501958176EE85015180B
:1051A000E8AE02D0153404D01450165C15501758D0
:1051B00020E230D9000106D9A2D8D9D850D9EE5270
:1051C000EFCF19F0AED8EF50195C186EA3D831D9D3
:1051D00018240824146E000E0920156E010E14C048
:1051E000DBFF020E15C0DBFF9CD8010EDBCFEFFF0B
:1051F00002D0FDD8EF26000E01D0010E146E030E72
:10520000E15C02E2E16AE552C5D0CAD8020EE126AD
:1052100081D813D968D8EF50D880145402E3000E17
:1052200001D0010EDF6E92D8EF50020A3FE0030A70
:1052300031E0010A50E113D9EF50FE0BE842166E3F
:1052400069D8E9CF14F0F5D8FE0BE8421624E76ED2
:10525000010EE7CFDBFFDF5007E0ACD8EF5EF3D8FD
:10526000D880145438E305D0A5D8EF26ECD8145CC8
:1052700032E36CD8010EEF6E4DD8E9CF14F033D87D
:10528000040EF0D8EF50E66E3AD8E552E750EE6ED5
:10529000ED6A21D034D8EE06000EEF5A30D8EE5029
:1052A000ED1019E153D8020EEF6E15D0DF5008E073
:1052B00081D8EF5EB9D8FD0FD88014540CE306D026
:1052C00079D8EF26B1D8FD0F145C05E33FD8030E63
:1052D000EF6E010E01D0000E146E020EE15C02E2D0
:1052E000E16AE55257D0FE0EDB50070DE950F3247A
:1052F000E96EEA50F420EA6E020E32EF2AF0FE0E5A
:10530000EA6ADB34FE0BEA36E96E600EE926030E2C
:10531000EA22120036C9E9FF37C9EAFF100E32EF60
:105320002AF0FE0EDB50EA6A100FE96E030EEA2245
:1053300012000D6E0E6A14C008F015C009F071EC71
:1053400032F008C014F009C015F01200FE0EDB5058
:10535000EA6AA20FE96E040EEA221200FE0EDB508A
:10536000EA6A200FE96E030EEA22EF501200EECF38
:105370001CF0EFCF1DF01E0E0D6E0E6A1CC008F063
:105380001DC009F071EF32F0020E6CD8EF50186EAC
:10539000196A1200E16E1450E552E7CFD9FF1200EE
:1053A000D9CFE6FFE1CFD9FF1200EECF16F0EFCF55
:1053B00017F0120054D8030E55D8EFCF14F0B1DF18
:1053C00014501200E8501602F3CF14F0F4CF15F089
:1053D0001702F350152619501602F3501526640EC5
:1053E000A8DF8DDF08C0EEFF15C0EDFF120087DFDC
:1053F000030EEE26000EED2282DFEECF14F0EFCF8B
:1054000015F01E0E96DF010E1426000E152289DF00
:105410001450120074DFC9DF166C171E000E17221D
:1054200018D861DFC4EF29F07CDFEFCF14F0AEEFC6
:1054300029F059DFEE52EF50120055DFEE52EFCF58
:1054400014F08AEF29F06DDFEFCF14F0010EDB507E
:10545000120060DFE9CF1AF0EACF1BF012005ADF2A
:0C54600073EF29F0E926000EEA2212008A
:04546C00ACD9E6527F
:10547000DF6A100EDF5C10E2DF50EA6AE00FE96ECF
:10548000000EEA22EF6ADF50EA6AF00FE96E000EC2
:10549000EA22EF6ADF2AEDD7E5529AD194D9E65293
:1054A000FD0EDB5003080DE1C9D9FE0E6DD9EF6A80
:1054B000010EE66EFE0E6FD9FD0EDBCFE6FF76D94C
:1054C00050D0FD0EDB0402E0000E01D0010EBBD96E
:1054D00006E0DF5002E0000E01D0010EDF6EFE0E8E
:1054E0004CD9EF6ADF5014E07BD997D9EF5010E028
:1054F000FE0E4AD9EF5013E173D98FD9EF50E66E03
:10550000FE0E42D9E552E750EF6E020EE66E03D072
:10551000FD0EDBCFE6FF4AD9E552E552E55299D9B7
:10552000200B07E0DF5002E0000E01D0010EE66E16
:1055300002D0DFCFE6FFFE0E2ED952D9EE52EF5049
:10554000080B02E0DF5010E084D9400BE66EDFCF9D
:10555000E6FFFE0EDB50040DF350080FE66E4BEC39
:105560001CF0E552E552E552E55232D12CD9020E3B
:10557000E126010EDB6A100EF36E010EDBCFF4FFA5
:10558000F350F45C6EE239D9EF0468E154D9EF04CA
:105590000EE1E66A010EFFD830D903D9010E28D9F1
:1055A0004AD9EF50FF0DF350E66E010E21D943D9D1
:1055B000EF50FF0809E1010EE66EEDD833D9010E78
:1055C000D3D8EFD8010E14D936D9EFCF14F0010E8D
:1055D000E76E1418E8AE02D0143403D0E750D88038
:1055E000145403E228D9EF060FD025D9EFCF14F0D9
:1055F000FF0EE76E1418E8AE02D0E73402D0E75091
:10560000145C02E218D9EF2A010EBED8EF041FE1A4
:1056100024D9200B03E0010EE66E02D0E66A010EEB
:10562000BAD81BD9080B11E118D902E0000E01D03D
:10563000010E400BE66E010EDB50040DF350080F17
:10564000E66E31EC09F0E552E55212EC34F0010E51
:105650009BD8EF5003E0010E97D8EF06010EDB2A2E
:105660008AD7020EE15C02E2E16AE552E16EB0D057
:10567000AAD8E652FD0EDB50030A21E0020A07E039
:10568000030A05E0020EF36EFD0EF3CFDBFFFD0E05
:10569000DB0402E0000E01D0010ED5D806E0DF5099
:1056A00002E0000E01D0010EDF6ED3D8200B04E023
:1056B000DF5006E0000E05D0DFCFE6FF03D0BED8F6
:1056C000010EE66EFE0E67D8E55282D07CD899D8DE
:1056D000F62A000EF7220800F550430A24E0010ADA
:1056E00012E0030A2FE1FD0EDB5006E02CD802E0A9
:1056F00073D8FEE1891226D026D802E06DD8FEE1EB
:10570000E81C89161FD0FD0EDB5006E01CD802E015
:1057100063D8FEE18A1216D016D802E05DD8FEE109
:10572000E81C8A160FD0FD0EDB5006E00CD802E014
:1057300053D8FEE18B1206D006D802E04DD8FEE128
:10574000E81C8B1645D05DD8020EF626000EF72217
:105750000800F550146E010E1452120063D8E9CF00
:1057600014F0EACF15F01200DB50070DE950F324D6
:10577000E96EEA50F420EA6E1200DB50EA6AF00F9C
:10578000E96E000EEA221200DB50EA6AE00FE96ED1
:10579000000EEA221200DBCFE6FF98DFE552E55269
:1057A00012003BD8EE52EF50E66E1200FE0EDB50B8
:1057B000156AC60F146E030E152214C0E6FF15C03D
:1057C000E6FF13EF27F0D9CFE6FFE1CFD9FF1200B4
:1057D000E552E7CFD9FF1200E846FE0B140612008F
:1057E00021D8FE0EB4EF2BF0B9DFFE0EB4EF2BF094
:1057F000C4DFE552E750EF6E1200B0DF010EB4EFE8
:105800002BF0FE0EDB50040DF3CFF6FFF4CFF7FFC5
:105810008E0EF6266B0EF7221200020EE926000EFF
:10582000EA22120036C9E9FF37C9EAFF100EE9265D
:10583000000EEA221200010EBDEF2BF0D5DFB1DF22
:10584000FE0EF8EF2BF0DF6ECBDFEE52EF50010BC8
:105850001200CADFEE52EF501200CFDFEE52EF50CF
:02586000120034
:0E58620066D9FC0EE66E030EE66E56EC27F0DD
:10587000E552E552F3CF29FEF4CF2AFE0E01F31CC8
:1058800008E12A1D06E1FD0EDBCF29FEFE0EDBCF6F
:105890002AFEE66AE66A8BEC1DF0E552E5524DD130
:1058A00047D9FE0EDB5006E13CD934EC1FF0E5523F
:1058B000E55201D0000E41D13BD9FD0EDBCF31FEC8
:1058C0002B0EE66E0E0EE66E79D132D9060EE76E1D
:1058D000FB0EDBCFE9FFFC0E1DD9FD0EDBCFEFFF8A
:1058E000FB0EDBCFE6FFFC0EDBCFE6FFFE0EDBCFD1
:1058F000E6FF82D8E552E552E5521FD119D9060ECE
:10590000E76EF90EDBCFE9FFFA0E04D9FD0EDBCF0F
:10591000EFFFF90EDBCFE6FF29D9FC0EDBCFE6FF68
:1059200010D90BD15AD9FB0EDBCFE6FFFAD8E668C7
:10593000E66810D902E2E16AE552E16E1450FDD04A
:105940004CD9F90EDBCFE6FF11D9EBD803D902E22F
:10595000E16AE552E16E1450F0D0EAD8E652060E44
:105960001FD9900EEF6ED950FC0FE96EFF0EDA20B2
:10597000EA6EEE50ED1004E1060E12D9EF8602D960
:10598000F90EDB5003E1060E0BD9EF80F60EDB506B
:10599000000807E2F60EDB50200D060E01D9F35089
:1059A000EF12FA0EFB0EDBCF15F015C014F0156ADE
:1059B000090EF6D814C0EFFFFF0EE76EFA0EDBCF2C
:1059C00014F0FB0EE7501416156A0A0EE9D814C03D
:1059D000EFFFDFD8A6D8B5D8DF6EFE0EDB5004E0AF
:1059E000FE0EDB50FF0805E1D4D8D4EC1EF0E552E2
:1059F000E552DF50E552A1D09BD82ACE14F0156AAB
:105A0000070EE4D82ACEEFFF0E012951E66E080EEC
:105A1000DDD8E552E750EF6E84D8D0D089D8E15078
:105A2000FC0FE96EFF0EDA20EA6EFF0EEE1804E1BD
:105A3000FF0EED1801E1A6D8FC0EFD0EDBCF15F030
:105A400015C014F0156A070EB2D814C0EFFFFF0E90
:105A5000E76EFC0EDBCF14F0FD0EE7501416156A4E
:105A6000080EA5D814C0EFFF81D8A8D061D8FE0ECB
:105A7000DB5004E0FE0EDB50FF080FE1060EA6D857
:105A8000EF50E00BE838E840010FE66E4AD84EECE4
:105A90001EF0E552E552E55201D0010E4ED048D835
:105AA0000E0EE126F60EF36E060EF3CFDBFFFA0EB6
:105AB000DBCFE9FFFB0EDBCFEAFF090EEFCFDBFF09
:105AC000010E75D80A0EEFCFDBFF020E70D80B0E59
:105AD000EFCFDBFF030E6BD80C0EEFCFDBFF040E16
:105AE00066D80D0EEFCFDBFF48D81BD82AD8FE0EA4
:105AF000DB5004E0FE0EDB50FF0805E13ED8D4EC9D
:105B00001EF0E552E5520E0EE15C02E2E16AE5525A
:105B1000E16E13D0DBCFEAFFE750E926000EEA2260
:105B20001200FC0EDBCFE6FFFD0EDBCFE6FF12001E
:105B3000D9CFE6FFE1CFD9FF1200E552E7CFD9FF79
:105B40001200FE0EDBCFE6FF69DF146E050EE15E8C
:105B500014501200FE0EDBCFE6FFFFDE146E090EBE
:105B6000E15E1450146E0A0EE15C1200FA0EDBCFF7
:105B7000E6FFFB0EDBCFE6FF1200D9CFE6FFDACF60
:105B8000E6FF1200FC0E29CEDBFFFD0E2ACEDBFF66
:105B90001200F70EDBCFE6FFF80EDBCFE6FF1200B8
:105BA000E76EF70EDBCFE9FFF80E8AEF2DF0E76E18
:105BB000FA0EDBCFE9FFFB0E8AEF2DF0FE0EDBCFF6
:105BC000E6FF54DFE552E552E552B7D7E76EFC0E2B
:105BD000DBCFE9FFFD0E8AEF2DF0AADF0A0EE126EA
:065BE000E66ABDEF2DF0A6
:0A5BE600120040D9E65226D911E35F
:105BF00006D905500EE1FC0EDB50010A0AE0010A4D
:105C000008E0020A06E0010A04E0070A02E0000ECA
:105C100001D0010EE5522ED128D9020EE126EFD88F
:105C200005501DE1FE0EDB50F00FDF6E070E146E07
:105C30000E6EDFCF09F021EC36F009C0DFFFFC0E5D
:105C4000DB50F36EFD0EDB50F35C09E0FC0EDBCFA6
:105C5000E6FFDFCFE6FF1EEC23F0E552E552EDD87C
:105C60006BE3CDD80950DF6ECAD8010E05C0DBFF4B
:105C700036C9E9FF37C9EAFF100EE926000EEA220D
:105C8000E9CF14F0EACF15F0DF50070DE950F32407
:105C9000E96EEA50F420EA6EEF50040A26E0070AA3
:105CA00013E0010A49E1C5D804E1020ECED8020E84
:105CB00005D0B4D841E1010EC8D8010EE66EDFCFA1
:105CC000E6FFBEEC16F036D0A9D804E1020EC5D826
:105CD000020E05D0AED830E1010EBFD8010EE66E3F
:105CE000DFCFE6FFDDEC16F025D098D804E1E66AB8
:105CF00099D8E66A1BD0C8D8040FCBD805E1010EAD
:105D0000E66E90D8010E11D0BFD8050FC2D805E1BC
:105D1000020EE66E87D8020E08D0B6D8060FB9D8A4
:105D20000BE1030EE66E7ED8030EE66EDFCFE6FFD4
:105D3000EEEC16F0E552E552020EE15C02E2E16A99
:105D4000E552E16E97D0E66A810E64D8E66A820E6B
:105D500061D8EA0EE66E830E5DD8330EE66E840ED1
:105D600059D81CEF35F081D8060E46D8010F3AD825
:105D7000FD0EDB50040A2BE0070A19E0010A11E0CE
:105D8000030A07E0010A2BE1040E98D8040EE66E20
:105D900005D0E66A83D8020F25D8E66A7FD8030FBC
:105DA0001DD0800E6BD8EB0E7FD8EB0E15D0800E79
:105DB00085D87F0E21D8030F15D8400E75D8030E55
:105DC0001BD8050F0FD83C0E17D8060F07D0030EAF
:105DD00055D8800E69D8800E0FD8050F03D81CEC5B
:105DE00035F048D0156A800F146E7F0E152214C04E
:105DF000E6FF15C0E6FF5CD0E66E4EEF2FF0FE0E1C
:105E0000DB50F00F146E070E156E0E6E14C009F005
:105E100021EF36F0E66E7F0EE66E4AD035D8030FDE
:105E200049EF2FF0DFCFE6FF27EC17F0E552E55200
:105E300012002AD8020F49EF2FF0100EF36EFE0E5B
:105E4000DBCFF4FFF350F45C1200E66EDFCFE6FF29
:105E500007EC17F0E552E5521200E66EDFCFE6FFE1
:105E600017EC17F0E552E5521200D9CFE6FFE1CF6B
:105E7000D9FF1200E552E7CFD9FF12001FD8800EDC
:105E8000BBDF030FF2EF2EF0070EDF02F350100F0F
:105E90001200F36EFE0EDB50F35C1200FE0EDB50C0
:105EA000070DF350100F1200A7DF040FF2EF2EF0D2
:105EB000A5EC26F0E552E552E55212009DDF020FF7
:045EC000F2EF2EF0DF
:0C5EC40034D9E6520901306B100E305D3D
:105ED0001BE230C9E6FFC2D8E552DF6E090120D9C6
:105EE000DFCFEFFFE8D8EE52EF50010B06E1DF50B5
:105EF00002E0000E01D0010EDF6E04D9DFCFEFFF0C
:105F000008D9EF6A302BE2D7E55216D110D9040E2A
:105F1000E1260901306B100E305D01E398D0CBD83B
:105F2000EF5001E091D030C9E6FF98D8E552E76E16
:105F3000020EE7CFDBFF0901F3D8EF50F36E020E3C
:105F4000DB50F35C01E17ED0030EDB6AE9D8EF5051
:105F50000BE0CAD8DED8EF500001145C05E1010E59
:105F6000F36E030EF3CFDBFF0901DAD8EF500DE13A
:105F7000BBD8EFCF15F0CDD8EF500001155C05E18F
:105F8000010EF36E030EF3CFDBFF030EDB5056E082
:105F90000901BFD8EF6AC4D8020EDBCFEFFF9ED84D
:105FA000010B0AE1020EDB5002E0000E01D0010EEF
:105FB000E76E020EE7CFDBFF91D8100B0FE0020E69
:105FC000DB5042E09FD8EF5002E0000E01D0010EFE
:105FD000E66E98D8E552E750EF6E04D093D8020EE3
:105FE000DBCFEFFF7BD8080B13E08CD8EF5004E039
:105FF000C4D815E0E66A18D0C0D802E0E66A02D03C
:10600000010EE66E040E3003F350080F010F10D09E
:10601000B4D807E077D8EF5002E0000E04D0010EAC
:1060200002D070D8EF50E66E040E3003F350080F24
:10603000E66E31EC09F0E552E55206D0090169D867
:10604000EF2A02D066D8EF6A0901302B64D7040E1C
:10605000E15C02E2E16AE552E16E6ED068D870D888
:10606000FE0EDB5076D8EF5024E17BD8F62A000EE6
:10607000F7220800F550430A14E0010A0AE0030A77
:1060800018E121D804E0E846FE0B1406FCE1801478
