:020000040000FA
:040000001FD00ED02F
:0400080004EF04F00D
:040018000CEF04F0F5
:100020007F6E05A01200550E7E6EAA0E7E6E7F8238
:1000300000007FB2FED712000A26D8B00B2A1200A9
:100040000E01030E436F7F6A746875687F8000003D
:10005000733C00EF04F0066A1C0E056E000EE06FA4
:10006000080EE16FE81EE56F000EE26F070EE36F0A
:10007000FF0EF86FEB0EF96FFF0EFA6FF80EFB6FC5
:100080009E0E446F030E456F0F015D6B5C6B200E7F
:10009000706E6F6A9490949482908294939E939CD5
:1000A000818E818C609E040060AEFDD70FEE66F0FD
:1000B00065500F0B096EF46EF5E064B02CD010EEB5
:1000C00001F0EECFE6FFF42EFCD70650EBE0010A7C
:1000D000D8A408D074687568736A040EA1DF8280A2
:1000E000819CFF000650020A05E10B6A0A6A0C9027
:1000F0000C6AD8D70650030A0AE107500A2606E11F
:1001000008500B2203E10CB001D074D077D0065018
:10011000040AC8E177D00350F86EF00BF36E02507A
:10012000F76E756E0150F66E746E05A605D0095017
:100130000126E86A02220322300EF36001D008D0C3
:10014000F350300A01E12AD0F350F00AABE132D08B
:1001500005A405D0F6503F0B02E1940E61DF05B215
:10016000A1D7F650070B9EE1080EF46EEE50F56E27
:1001700063DF0D00F42EFAD7080EF46E0A00ED507E
:10018000F42EFCD7840E4CDF080EF46E0900F550F7
:10019000EE18D8A40C80F42EF9D784D7EF50F56E62
:1001A0004BDF0C00C40E3CDF0900F550EE18F42EB6
:1001B000F5D778D7EF50736E3FDF040E31DF7F6ADB
:1001C0007F8000007350EE18D8A40C80744A752A02
:1001D000F42EF0D767D720B7FED7800E216F080E18
:1001E000226F000E236F040E246F248164A02491DB
:1001F000208758D7010E266F256FEDD7266B010E8D
:0E020000256FE9D7020E266F010E256FE4D799
:080800000000EAEF3CF01200D9
:0808080007ED04F012000600E8
:0608100035EF16F01200A6
:0208160080EF71
:060818000DEF16F01200C6
:02081E0080FF59
:10082000A56420FF147F031B0F01000800000000D7
:1008300000000100000000001400400800004E030A
:080840004D494F20202020004B
:0808480035EC04F0F7EF33F08A
:1008500002001E080000D404000002000000160878
:0A0860000000D204000002000000B6
:06086A00FB0EE66E030E1A
:10087000E66E26EC28F0E552E5520401586F596FF8
:10088000000EE66EE66A35EC32F0E552E5529EEC7B
:100890000CF00901366B0401580502E0000E01D08E
:1008A000010EE66E32EC38F0E5520901376B1200AA
:1008B00004015851090A5CE00D0A54E0070A3FE0C0
:1008C000010A17E0030A03E0010A01E0120080B404
:1008D00064D058C459F4020E586FA3C414F0156ABA
:1008E00014500401AB6F0401A2510401AC6F0AEF74
:1008F0000CF080B412D0DEEC0BF0900E1454D00E3D
:100900001554030E1654000E175418E2030E586FB8
:10091000E66A47EC38F0E552120059050DE1DEECCD
:100920000BF01BEC0CF008E2040E586FE66A47EC83
:1009300038F0E552CEEF04F059C458F4120080A408
:100940002CD0595104E1040E586FCEEF04F0586BCF
:100950003AD828EC38F00401A26BA36BE66A24ECC9
:100960000CF017D080B419D0090E586F0AEF0CF0B4
:1009700080A413D0DEEC0BF01BEC0CF00CE259C49D
:1009800058F4580502E0000E01D0010EE66E32EC7C
:1009900038F0E5521200040E586F1200D0EC0BF044
:1009A000090EE126D9CFE6FFDACFE6FFE668E66872
:1009B000500E2CEC0CF0090EE15C02E2E16AE5520B
:1009C000E16ED5EF0BF0D9EC0BF0E668E668510E5E
:1009D0002CEF0CF087EC0CF0900B90080DE1060E5C
:1009E000C4EC0BF0EF1C060B060806E1FD0EF5EC5F
:1009F0000BF08FEC0FF004D0FD0EF5EC0BF004D8EB
:100A0000E552E552D5EF0BF0D9CFE6FFE1CFD9FFA4
:100A10000C01006B070E0401585D01E0DAD10C01F6
:100A2000010E006F060EE76EFD0EDBCFE9FFFE0E36
:100A3000DBCFEAFFE750E926000EEA22EF50B20AC8
:100A400001E15FD1470A01E1E9D0270A74E0470AD2
:100A50001BE0C00A16E0010A10E0070A01E0B6D167
:100A6000FD0EDBCFE6FFFE0EDBCFE6FF72EC0AF0F9
:100A7000E552E552000901E0ACD10401010E586FC6
:100A8000A8D1ACEC0AF0A5D1090EE76EFD0EDBCFC4
:100A9000E9FFFE0EDBCFEAFFE750E926000EEA226F
:100AA000EFCF16F016C017F0166A0A0EE76EFD0EAD
:100AB000DBCFE9FFFE0EDBCFEAFFE750E926000EB1
:100AC000EA22EF5000011624146E000E1720156E56
:100AD00014C0E6FF15C0E6FF070EE76EFD0EDBCF84
:100AE000E9FFFE0EDBCFEAFFE750E926000EEA221F
:100AF000EFCF1AF01AC01BF01A6A080EE76EFD0E4F
:100B0000DBCFE9FFFE0EDBCFEAFFE750E926000E60
:100B1000EA22EF5000011A24186E000E1B20196EF5
:100B200018C0E6FF19C0E6FF5BEC0BF0E552E5529A
:100B3000E552E5524ED10C0EE76EFD0EDBCFE9FF1C
:100B4000FE0EDBCFEAFFE750E926000EEA22EF5067
:100B5000E66E0B0EE76EFD0EDBCFE9FFFE0EDBCF80
:100B6000EAFFE750E926000EEA22EF50E66E090E92
:100B7000E76EFD0EDBCFE9FFFE0EDBCFEAFFE750AD
:100B8000E926000EEA22EFCF16F016C017F0166A1B
:100B90000A0EE76EFD0EDBCFE9FFFE0EDBCFEAFFAC
:100BA000E750E926000EEA22EF5000011624146EE9
:100BB000000E1720156E14C0E6FF15C0E6FF070EE5
:100BC000E76EFD0EDBCFE9FFFE0EDBCFEAFFE7505D
:100BD000E926000EEA22EFCF1AF01AC01BF01A6ABB
:100BE000080EE76EFD0EDBCFE9FFFE0EDBCFEAFF5E
:100BF000E750E926000EEA22EF5000011A24186E91
:100C0000000E1B20196E18C0E6FF19C0E6FFBCECF1
:100C10000AF01C6E060EE15E1C50DBD00D0EE76E76
:100C2000FD0EDBCFE9FFFE0EDBCFEAFFE750E92642
:100C3000000EEA22EF50E66E0C0EE76EFD0EDBCFE3
:100C4000E9FFFE0EDBCFEAFFE750E926000EEA22BD
:100C5000EF50E66E090EE76EFD0EDBCFE9FFFE0EEC
:100C6000DBCFEAFFE750E926000EEA22EFCF16F0CD
:100C700016C017F0166A0A0EE76EFD0EDBCFE9FF0D
:100C8000FE0EDBCFEAFFE750E926000EEA22EF5026
:100C900000011624146E000E1720156E14C0E6FF16
:100CA00015C0E6FF070EE76EFD0EDBCFE9FFFE0E77
:100CB000DBCFEAFFE750E926000EEA22EFCF1AF079
:100CC0001AC01BF01A6A080EE76EFD0EDBCFE9FFB3
:100CD000FE0EDBCFEAFFE750E926000EEA22EF50D6
:100CE00000011A24186E000E1B20196E18C0E6FFB2
:100CF00019C0E6FFBCEC0AF01C6E060EE15E1C504B
:100D000068D00B0EE76EFD0EDBCFE9FFFE0EDBCFEA
:100D1000EAFFE750E926000EEA22EF50E66E090EE0
:100D2000E76EFD0EDBCFE9FFFE0EDBCFEAFFE750FB
:100D3000E926000EEA22EFCF16F016C017F0166A69
:100D40000A0EE76EFD0EDBCFE9FFFE0EDBCFEAFFFA
:100D5000E750E926000EEA22EF5000011624146E37
:100D6000000E1720156E14C0E6FF15C0E6FF070E33
:100D7000E76EFD0EDBCFE9FFFE0EDBCFEAFFE750AB
:100D8000E926000EEA22EFCF1AF01AC01BF01A6A09
:100D9000080EE76EFD0EDBCFE9FFFE0EDBCFEAFFAC
:100DA000E750E926000EEA22EF5000011A24186EDF
:100DB000000E1B20196E18C0E6FF19C0E6FF62EC9A
:100DC0000BF01C6E050EE15E1C5003D00C01006B95
:100DD00000D00C01005101E0E8D0FD0EDBCFE6FFB2
:100DE000FE0EDBCFE6FF7EDBE552E552000901E1B6
:100DF000DCD00C01010E006F060EE76EFD0EDBCF9E
:100E0000E9FFFE0EDBCFEAFFE750E926000EEA22FB
:100E1000EF505D0A01E1C0D0280A01E1A5D0290AFE
:100E200001E197D0C00A75E00A0A53E0E70A40E002
:100E3000290A3BE02A0A27E0250A22E0010A1DE0F0
:100E4000050A14E0200A01E0ADD0090EE76EFD0EA0
:100E5000DBCFE9FFFE0EDBCFEAFFE750E926000E0D
:100E6000EA22EF50E66EEAD9E5529FD00401580518
:100E700003E10401070E586F98D0C7EC0CF095D031
:100E8000E8EC0CF092D0090EE76EFD0EDBCFE9FF27
:100E9000FE0EDBCFEAFFE750E926000EEA22EF5014
:100EA000E66EEEEC0CF0E55280D029EC0DF07DD032
:100EB000090EE76EFD0EDBCFE9FFFE0EDBCFEAFF8A
:100EC000E750E926000EEA22EF50E66E13DAE5520B
:100ED0006CD00A0EE76EFD0EDBCFE9FFFE0EDBCF16
:100EE000EAFFE750E926000EEA22EF50E66E090E0F
:100EF000E76EFD0EDBCFE9FFFE0EDBCFEAFFE7502A
:100F0000E926000EEA22EF50E66E1CDAE552E552C1
:100F10004CD00A0EE76EFD0EDBCFE9FFFE0EDBCFF5
:100F2000EAFFE750E926000EEA22EF50E66E090ECE
:100F3000E76EFD0EDBCFE9FFFE0EDBCFEAFFE750E9
:100F4000E926000EEA22EF50E66E3CDBE552E55260
:100F50002CD0E668E668030EE66E50EC28F0E55209
:100F6000E552E552FF0021D0090EE76EFD0EDBCF02
:100F7000E9FFFE0EDBCFEAFFE750E926000EEA228A
:100F8000EF50E66EB5EC22F0E552000904E1070EE1
:100F9000E66EA2DAE55209D0010EE66E4EEC24F0C0
:100FA000E55203D00C01006B00D00C01005101E0B0
:100FB000DBD0060EE76EFD0EDBCFE9FFFE0EDBCFCA
:100FC000EAFFE750E926000EEA22EF500D0A01E1A0
:100FD000C6D0970A5DE0080A01E0C6D0090EE76EA8
:100FE000FD0EDBCFE9FFFE0EDBCFEAFFE750E9267F
:100FF000000EEA22EFCF16F016C017F0166A0A0E9E
:10100000E76EFD0EDBCFE9FFFE0EDBCFEAFFE75018
:10101000E926000EEA22EF5000011624146E000E9D
:101020001720156E14C0E6FF15C0E6FF070EE76E29
:10103000FD0EDBCFE9FFFE0EDBCFEAFFE750E9262E
:10104000000EEA22EFCF1AF01AC01BF01A6A080E3F
:10105000E76EFD0EDBCFE9FFFE0EDBCFEAFFE750C8
:10106000E926000EEA22EF5000011A24186E000E45
:101070001B20196E18C0E6FF19C0E6FF2EEC2AF0FF
:10108000E552E552E552E5520C01010E006F6CD0BD
:10109000070EE76EFD0EDBCFE9FFFE0EDBCFEAFFAA
:1010A000E750E926000EEA22EFCF16F016C017F03F
:1010B000166A080EE76EFD0EDBCFE9FFFE0EDBCFF2
:1010C000EAFFE750E926000EEA22EF50000116245D
:1010D000146E000E1720156E145015100BE0FD0E47
:1010E000DBCFE6FFFE0EDBCFE6FFFCD9E552E55293
:1010F000000934E0090EE76EFD0EDBCFE9FFFE0EBE
:10110000DBCFEAFFE750E926000EEA22EFCF16F028
:1011100016C017F0166A0A0EE76EFD0EDBCFE9FF68
:10112000FE0EDBCFEAFFE750E926000EEA22EF5081
:1011300000011624146E000E1720156E14C0E6FF71
:1011400015C0E6FF000EE66EE66A2EEC2AF0E552C8
:10115000E552E552E5520C01010E006F05D053D85F
:101160000C01010E006F00D00C0100512CE1040EA7
:101170000401585D28E10C01010E006F060EE76EB8
:10118000FD0EDBCFE9FFFE0EDBCFEAFFE750E926DD
:10119000000EEA22EF50420A09E0530A05E0010A74
:1011A00001E00ED00BD90FD036D90DD0FD0EDBCF1C
:1011B000E6FFFE0EDBCFE6FF72D9E552E55203D023
:1011C0000C01006B00D00C01005100D0E552E7CFBC
:1011D000D9FF120098DB070E0401585D04E115DB0E
:1011E0005FDB240907D0580504E10FDB59DB040954
:1011F00001D0000E146E020EE15C02E2E16AE552DB
:10120000E16E1450D2D27FDB0401B60EAA6FFDDA74
:101210000800F5CFADF4F9DA020EF626000EF7223B
:101220000800F5CFAEF4D6DF0401AF6F81DB020E0C
:10123000E15C02E2E16AE552E16EB7D264DBFE0EE8
:10124000DBCF14F0380EF66E080EF76E0900F5CFFE
:1012500015F00800F5CF16F01450155C000E165866
:101260003EE304019B0E3DDBDB5004E1380EF66EDD
:10127000080E26D00F0E1BDB1BE3130E18DB18E243
:1012800001EC29F0F3CF16F0F4CF17F0FE0EDB508F
:10129000F10F080DF35016C014F017C015F005E05B
:1012A000D89015321432E804FBE114C0AEF40CD02F
:1012B00033DBFE0EDB040F011424F66E000E152046
:1012C000F76E0800F5CFAEF4FE0EDB50080805E11E
:1012D0000401580502E10401AE852ADB04D0090EA1
:1012E000E66EFAD8E552020EE15C02E2E16AE552EE
:1012F000E16E5BD255DA020EE126FE0EDB5002E013
:10130000B4DA04E30A0EE66EE7D814D0B7DA0401C3
:10131000970EE7DADECFE6FFDDCFE6FFF2EC26F050
:10132000E552E5520401AE6F44DAE66A00EC33F0B0
:10133000E552E552E552020EE15C02E2E16AE55255
:10134000E16E33D22DDA030EE126FE0EDB5002E011
:101350008CDA02E30A0E28D091DAFE0EDB5004018B
:10136000F76AD425F66ED551F7220800020EF5CFA4
:10137000DBFFD8DAF8EC33F0C2DA000914E0FD0E36
:10138000DBCFE6FFDECFE6FFDDCFE6FFE2EC27F0C6
:10139000B6DA09EC3CF0C6DA29EC34F0B0DA09DA56
:1013A000590E1DDA03D00C0EE66E96D8E552030EE8
:1013B000E15C02E2E16AE552E16EF7D1F1D9030E98
:1013C00034DA0401EF0EAA6F070EF36E020EF3CFAC
:1013D000DBFFDB500D0813E39FDA020EDB50F90F41
:1013E0000F011424F66E000E1520F76E0800F5505C
:1013F000E66E020EDB504BDA020EDB2AEAD7EADE9B
:101400000401B26FD6D95ADA030EE15C02E2E16A56
:10141000E552E16ECAD1C4D9080EE1263A0EF66E45
:10142000080EF76E040E0900F5CFDBFF050E09006C
:10143000F5CFDBFF060E0900F5CFDBFF070E090035
:10144000F5CFDBFF040EDBCF08F0050EDBCF09F094
:10145000020E08C0DBFF030E09C0DBFF0401E20E31
:10146000AA6FDF6A070EDF5C11E2020EDBCFF6FF28
:10147000DB2A030EDBCFF7FF01E3DB2A0800F55080
:10148000E66E070EDF2403DADF2AECD792D916DAEC
:10149000080EE15C02E2E16AE552E16E86D180D994
:1014A000070E72D9EF500401A36BA36FA26B080E55
:1014B0006BD9EF50146E156AE850A2271550A3237C
:1014C0000401010E586FE66EBFD9E55272D9520E73
:1014D00032DA2DEC38F069D163D904016F0E01DAEC
:1014E00027DA63D114DAE00BE838E840146E020E14
:1014F000145C18E3070E48D9EFCF17F017C018F0A7
:10150000176A080E41D9EF501724156E000E1820E7
:10151000166E0401A251151805E1A351161802E137
:10152000010E01D0000E41D13BD9FD0E5ED9FC0E5B
:10153000E66E030EE66EE0EC28F0E1D9E552FC0E13
:10154000DBCFE6FFFB0EE66E030EE66E50EC28F0F6
:10155000D6D932EC10F029D1070E0401585D05E10F
:10156000B2EC0CF026D9590E05D00401020EAD6F75
:1015700020D96F0E9BEF0CF013D9E652FA0EDB5018
:1015800004E10401060EAD6F15D0FA0EDB06E66A23
:10159000F90EDBCFE6FFFA0EDBCFE6FFA7D924EC8E
:1015A00018F0146E070EE15E1450DF6EDF5005E098
:1015B000DFCFADF4FED86F0E02D0FBD8590EBBD9E9
:1015C000E552F3D0EDD8040EE126FE0EDBCFE6FFA8
:1015D000E7EC0FF0E552E76E010EE7CFDBFFFD0E03
:1015E000DB50140803E20401060E5AD0FD0EDB04A2
:1015F000DF6E010EDB50146E156AD890155004E6AC
:10160000FF0E145C000E155849E2010EDBCFE6FF19
:10161000A0EC0CF0E552000941E0FD0EDB5011E1B9
:10162000010EDBCFE6FF02EC0FF0E552E66ED9507B
:10163000020FE96EDACFEAFFE552E750EE6EED6A8F
:101640000AD0DFCFE6FF010E3ED9020EF3CFDBFF5B
:10165000030EF4CFDBFF020EDBCF14F0030EDBCF63
:1016600015F00001800E15140CE1FE0EDBCFADF479
:10167000FD0EDBCFAEF4020EDBCFAFF49AD8B50E81
:1016800012D008680968020EDBCF0DF0030EDBCF25
:101690000EF00EEC39F006C0ADF403D00401070ED5
:1016A000AD6F87D86F0E47D9040EE15C02E2E16AA4
:1016B000E552E16E7AD074D819D949EC0DF01FD9F2
:1016C000E55273D06DD8030EE12610D9E3EC0DF08E
:1016D00016D9E552E76E020EE7CFDBFFDB50FF08BD
:1016E00003E10401070E06D0FA0EDB50140804E2F1
:1016F0000401060EAD6F3ED0EDD815C014F0156A8A
:1017000014C0ADF4FF0EE76EE5D8E7501416156A65
:1017100014C0AEF4FA0EDBCFAFF4DB5009E1020ED9
:10172000DBCFE6FF02EC0FF0E552DE6EDD6A0BD098
:10173000FA0EDB06FA0EDBCFE6FF020EC4D8F3CFBB
:10174000DEFFF4CFDDFFDECF14F0DDCF15F00001BA
:10175000800E151405E1DFCFB0F42BD8D30E0CD0DA
:1017600008680968DECF0DF0DDCF0EF00EEC39F021
:1017700006C0ADF41ED86F0EDED8030EE15C02E2A7
:10178000E16AE552E16E11D0E76EFD0EDBCFE9FFB5
:10179000FE0EDBCFEAFFE750E926000EEA22120038
:1017A000D9CFE6FFE1CFD9FF1200E552E7CFD9FF4D
:1017B0001200A40EE66E040EE66E120032EC3BF050
:1017C00004015A51065C146E5B510758156E5C514A
:1017D0000858166E5D510958176ED8801200E66ED3
:1017E000E66A69EC32F07FEF0CF0DBCFE6FFFE0E2D
:1017F000DBCFE6FF1200E668E668E66812EC33F03D
:10180000146E050EE15E14501200DECFF6FFDDCF40
:10181000F7FF120032EC3BF006C05AF407C05BF44D
:1018200008C05CF409C05DF41200E126200EDE6EF3
:10183000080EDD6E12006A0E1454180E1554000EB8
:101840001654000E17541200A2C4E6FFA3C4E6FF0C
:101850006BDEE552E5521200E66EE66882EC32F08D
:10186000146E060EE15E14501200FE0EDB50146E74
:10187000156A800E145C000E15581200800EDE6E84
:10188000DD68FE0EDB50DE26000EDD221200EA6A65
:10189000A40FE96E040EEA22E552E750EF6E120043
:1018A000070EF626000EF7220800F5501200F36E20
:1018B000FE0EDBCFF4FFF350F45C1200E66A3AEC64
:1018C00033F07FEF0CF0DBCFE6FFC5EC0EF0E55216
:1018D000E5521200FB0EDBCF14F0FC0EDBCF15F04F
:1018E0001200AA6FFE0EDBCFADF41200FB0EDBCFB1
:1018F000E6FFFC0EDBCFE6FFFD0EF5EF0BF0E55249
:10190000E552E55212004CDF020E15EF0CF048DFF5
:10191000060E3ADFEF50120078DFF6CF14F0F7CF63
:1019200015F01200FD0EDBCFE6FF020EF5EF0BF017
:0C19300040DFFBEF0BF053DFE55212002C
:04193C0032EF10F086
:101940004AEC12F0AFEC11F016EC11F0800B06E14E
:1019500016EC11F0200B02E1010E01D0000EE55251
:10196000DEEF10F04AEC12F0DF6ADF5020EC12F0EC
:1019700002E64EEC11F006E2E668DF5040EC12F0B1
:10198000DF2AF3D78BEC11F0E552DEEF10F025ECF7
:1019900012F0DF6A010EDB6A3FEC11F002E64EEC5A
:1019A00011F009E2010EDB5043EC12F001E0DF2AF6
:1019B000010EDB2AF1D78FEC11F0700E53EC11F011
:1019C000E552030EE15C02E2E16AE552E16EF6D314
:1019D0000E01020E3E6F0E013F6B120025EC12F05D
:1019E000FE0EDBCFE6FFF3DAE552DF6EDFCFE6FF78
:1019F000A7DFE552000905E1070EE66E6CEC0AF080
:101A000020D0DFCFE6FF5CDA42EC11F014C0ADF479
:101A100059EC11F014C0AEF4DFCFE6FF70DA42ECFF
:101A200011F014C0AFF459EC11F014C0B0F4FE0E74
:101A3000DBCFB1F4A40EE66E040EE66EF20E53ECAC
:101A400011F0E552030EE15C02E2E16AE552E16E5B
:101A5000B5D3AFDB020EE126DF6A010EDB6A3FEC95
:101A600011F002E64EEC11F007E2010EF8DB01E0A6
:101A7000DF2A010EDB2AF3D78FEC11F0740E53EC42
:101A800011F0E552020EE15C02E2E16AE552E16E1C
:101A900095D34AEC12F0EFEC11F002E1060E04D0FF
:101AA000DFCFE6FF03D8E552E55288D3E4EC11F02E
:101AB00018E0E668CBEC11F0AFEC11F02FEC12F06F
:101AC0000EE059DB55DBB8DBFE0ED9DB01E6E6DBC9
:101AD00002E3060E07D0E668CBEC11F0EFD78BECF3
:101AE00011F0000EE5526AD364DB040EE126EFEC40
:101AF00011F04FE1F90EDB505CE0DE52010EDD6EBD
:101B0000DF6ADF5020EC12F001E6C8DB3DE2DF5077
:101B100043EC12F037E0E8EC11F0DF5034DB52DB3D
:101B200007EC12F0DF50CFEC11F04CDB020EDB6A59
:101B3000F80EDB50146E9DDB1450010BF36EF34670
:101B4000F346F346F346F346F346BF0EEF14F310A5
:101B5000EF6EFAEC11F0DF5040EC12F0030EDB6A8E
:101B60000A0EF36E030E6BDB09E2E66ADF500EDB52
:101B7000030E29EC12F0030EDB2AF2D7CCDB010EA8
:101B8000DB6A02D0DF2ABDD7010EDB5002E0040E73
:101B900011D0F90EDBCFE6FFFA0EDBCFE6FFDFCF89
:101BA000E6FF55D8FEEC11F0000902E0060E02D067
:101BB000B2DB000E146E040EE15C02E2E16AE55253
:101BC000E16E1450FBD2F5DA070EE1264FDB0EEC86
:101BD00012F0E8DB32E21EDB020EEFCFDBFFDB5060
:101BE000FF0802E1FF0E2AD0A1DB030EF3CFDBFFDB
:101BF000040EF4CFDBFF9EDB050EF3CFDBFF060EFA
:101C000078DBFD0EDB50141815E1FE0EDB501518C5
:101C100011E1050EDBCF16F0060EDBCF17F0FB0E41
:101C2000DB50161807E1FC0EDB50171803E1020E1B
:101C3000DB5004D0010EDB2ACCD7FF0E146E070E4A
:101C4000E15C02E2E16AE552E16E1450B7D2EBDBEF
:101C5000E76E010EE7CFDBFF140EC8DB02E3060ED2
:101C60008BD00A0EC3DB5EE32FDB79DBF8DB05E00C
:101C700082DAFF08F6E1070E7FD0FC0EDB5002E1AE
:101C8000000E7AD0FE0EDB2860DBF9DA01E606DB17
:101C900042E2020EDB506CDA79DBE76E030EE7CF2F
:101CA000DBFFD950030FE96EDACFEAFFEF50800B6C
:101CB0002FE0E668E668020EDB5065DA83DAE66854
:101CC000E668020EDB506BDB7DDA200EE66E020E5C
:101CD000DB50D6DB040EDB6A0A0EF36E040EAFDABD
:101CE00009E2E66A020EDB5051DA040EB2DB040EA2
:101CF000DB2AF2D77FDBB6DB95DADF88DFCFE6FFC2
:101D00004ADB020EDB50E76EFE0EE7CFDBFF03D0AF
:101D1000020EDB2ABAD7020EB2DA01E6BFDAA1E37D
:101D2000040E2AD0FC0EDBCFE6FFFE0EDB502EDACF
:101D3000FD0E8FDB14DB7ADA0F0B146EFD0EDB5019
:101D4000D880145410E3FD0EDB28D9CFE9FFDACF99
:101D5000EAFFE8500F0BF36EF00EEF14F310EF6E86
:101D6000DFCFE6FF18DBFC0EDB5005E1010EDBCF19
:101D7000E6FF35D9E552000E146E050EE15C02E275
:101D8000E16AE552E16E145019D21EDB10E0140E28
:101D90002DDB02E3FA0E19D0E2DA0A0E27DB0CE3A0
:101DA0005EDB02E1FB0E11D0E6D9FF0802E1F90E7D
:101DB0000CD0D5DA89DAF1D7FD0EDB28146E36DACD
:101DC0000F0BD880145404E2FB0EF36EF46818D0A5
:101DD000FE0EDB505CDBF6CF18F0F7CF19F0FD0EEE
:101DE000DB5000011824166E000E1920176E16C065
:101DF000E6FFE66ECBDA146E156AF36E15C0F4FFDB
:101E0000E552DCD1D6D9020EE126010EDB6AFE0EC8
:101E100026DA06E0A4DA23DB09E0ADD9FF0802E107
:101E2000000E08D09CDA0A0E5ADAF5D7FFD90F0B4C
:101E300056DADB50146E020EE15C02E2E16AE55212
:101E4000E16E1450BBD101DBFE0E09DA2DE0010E6C
:101E5000DB6AA8DA2BE2020EDB6A0A0EF36E020ED0
:101E6000EED911E2FE0EDB5091D9020EEDD950DA17
:101E7000010EDB5047DAE552E750EF6E010EDB2A28
:101E8000020EDB2AEAD76BDAEADA0BE18BDA07E239
:101E9000010EDB5037DAEF6A010EDB2AF7D7000EAE
:101EA00006D069D9FF08D5E1070E01D0000E146EE7
:101EB000030EE15C02E2E16AE552E16E14507ED16C
:101EC000B2DA56D9F2EC26F039DAD950040FE96EBD
:101ED000DACFEAFFEF50400B05E0A2C4F3FFA3C442
:101EE000F4FF06D0FE0EDB504ED9C4DA4CD970D9BF
:101EF000050EE15C02E2E16AE552E16E5FD159D97B
:101F0000040EE126FE0EDB504ADAB4DA48DA60D974
:101F1000040EE15C02E2E16AE552E16E4FD149D97B
:101F2000050EE126060E38D9080B03E0DE6ADD6AED
:101F300012D0070E31D9DE6EDD6ADECF14F0DDCFB0
:101F400015F014C015F0146A14C0DEFF15C0DDFFD3
:101F5000080E22D9DF12090E1FD9E66E7DDA020EB5
:101F6000DBCF14F0030E14C015F0146A020E14C077
:101F7000DBFF030E15C0DBFF0A0E0ED9146E156AC7
:101F800078D91450EE121550ED1234DA030EDBCF6F
:101F9000E6FFDECFE6FFDDCFE6FF15DEE552E552D8
:101FA000CDD9DB50FF0809E013DA040EDBCFE6FFE2
:101FB00082EC18F023DA010E01D0000E146E050E2B
:101FC000E15C02E2E16AE552E16E1450F7D0F1D82B
:101FD000FE0EDB04F3D0EDD8FE0EDB28EFD0F4D9F3
:101FE00016E0FE0EDBCFE6FF2EDFE55200090FE123
:101FF000DF6A140EDF5C06E2DF5084D9EF5007E1A0
:10200000DF2AF7D7FE0EDBCFE6FF50DDE552E552C3
:10201000D5D040DAFE0EDBCF17F017C016F0176AE6
:10202000FD0EDB501618146EE850DF6E070EDF024F
:10203000F350146E156AFB0EFC0EDBCF19F019C0BD
:1020400018F0196AFB0EDB501818166EFC0EDB50E8
:102050001918176EF3501624DF6E1F0EDF16DF50AF
:10206000E552ACD0A6D8070EE126050EDB6A480E75
:10207000F36E050EE4D80BE2050EDB50EA6A380F6A
:10208000E96E090EEA22EF68050EDB2AF0D7DF6A57
:10209000200EDF5C0BE2010EDB6A84D905E2BAD8C0
:1020A000EF68010EDB2AF9D7DF2AF2D7020EDB6ACE
:1020B000E6D801E6F3D855E2020ED1D84FE0E66A41
:1020C00099D963DEE552E552030EF3CFDBFF040E30
:1020D00010D90001800E15141BE1030EDB50E76ED2
:1020E000050EE7CFDBFF010EF36E050EA8D810E357
:1020F000050EDB04146E480E145C0AE2050EDB04C8
:10210000EA6A380FE96E090EEA22020EDBCFEFFF12
:1021100011D9F3CF14F0F4CF15F0F3CFE6FFF4CFDD
:10212000E6FF04D9F3CF16F0F4CF17F0F3CFE6FFB4
:10213000F4CFE6FF73D936D911E26CD8EF50FF081F
:102140000AE135D91424E96E000E1520EA6E020E5C
:10215000DBCFEFFF03D0010EDB2AEDD7020EDB2A27
:10216000A7D7070EE15C02E2E16AE552E16E26D0F4
:10217000FBD8BDEF11F076D909D9E76EFE0EE7CF97
:10218000DBFFDB501200F0D8020E87D180D9F6CFEA
:1021900016F0F7CF17F01200E76EFD0EDBCFE9FF68
:1021A000FE0EDBCFEAFFE750E926000EEA22EF50F1
:1021B0001200D9CFE6FFE1CFD9FF1200E552E7CFF9
:1021C000D9FF1200DAD8EAEC27F018D9E55212004C
:1021D000F6CF14F0F7CF15F0010E1426000E1522DD
:1021E00014C0E6FF15C0E6FFD1D8DE6EDD6ADECF93
:1021F00016F0DDCF17F016C017F0166A020EDB508E
:102200001610146E030EDB501710156E14C0F3FF7A
:10221000F46E1200CCD80F011424E96E000E1520C4
:10222000EA6E1200E2EC27F0FEEF11F0D9CFE9FFE1
:10223000DACFEAFFEF501200A9D8DF6E1200DBCF31
:10224000F4FFF350F45C1200DB5000011624146E0E
:10225000000E1720156E14C0E6FFE66E1200DBCFED
:10226000E6FFA0EC0CF0E55200091200D0D8E8EF30
:1022700011F0D950020FE96EDACFEAFF1200DB50FD
:1022800020EF12F0E552DE52F3CFDEFFF4CFDDFF98
:10229000DD52CFD815C014F0156A1200FF0E145C81
:1022A000000E15581200E66EE66A69EC32F0FEEF99
:1022B00011F0FF0EE76EBDD8E7501416156A120034
:1022C0009DD8E552DF6E12000A0E146EFD0EDBCFB4
:1022D000E7FF1450E75EFD0EE7CFDBFF1200146E40
:1022E000010EDBCFE7FF1450E726010EE7CFDBFF3F
:1022F0001200F4CFDBFF030EDBCF14F0040EDBCFB4
:1023000015F01200EA6A160FE96E0E0EEA221200AC
:102310003DD8E66E1200E9EC26F032EF10F0DFCF88
:10232000ADF4A40EE66E040EE66E120063D8C8DDAE
:10233000E55212005FD8E3DDE5521200E552E552A6
:10234000E76E040EE7CFDBFF1200E76E020EE7CF69
:10235000DBFF1200E552E750EE6EED6A1200FE0E52
:10236000DB5006DF1CEF11F0100D0401D251F324F5
:10237000F66ED351F420F76E1200F6CF14F0F7CFBB
:1023800015F014C0E6FF15C0E6FF1200F2EC26F0CF
:10239000E552E5521200FE0EDB5040EF12F0F3DE84
:1023A000020E7BD0140EF36E010E1FEF11F0DF5002
:1023B000140DF3CF14F0F4CF15F0800E1426090E8F
:1023C0001522010EDB50120065D8FE0E2FEF11F022
:1023D000FD0EDBCFE6FFFE0EDBCFE6FF120046DF91
:1023E000E3EC0DF06DDFFF0EDF5C1200F36EFD0E0F
:1023F0001FEF11F0020EDBCFE6FF1200E552E552AF
:10240000E5521200A2DF35DFEF50800B1200FB0E09
:10241000DBCFE6FFFC0EDBCFE6FF1200FADD50DF7C
:10242000010EDB6A1200C5DE050EE126FE0EDB5052
:102430001200010EDBCF14F0020EDBCF15F01200FC
:10244000146E156AD89015501200B3DE030EE12603
:102450001200FADE12EF11F00CDFAAEF11F0E6DE47
:10246000100B1200FE0EDB507FDFF62A000EF72263
:10247000BDEF11F082DF4CDFEFDFFE0EDB5012000C
:1024800077DE12EF11F074DE81DF02EF12F06CDF05
:10249000060E03D08EDEE6521200F626000EF7225C
:0224A000120028
:0E24A20080EC26F009EC3CF0F3CFD0F4F4CF40
:1024B000D1F41DEC38F0CBD832EC3BF006C000FE76
:1024C00007C001FE08C002FE09C003FE38EC17F089
:1024D00041EC17F04AEC17F053EC17F00E01046BC7
:1024E0000E0104512FE132EC3BF00E010051065C6D
:1024F000146E01510758156E02510858166E03519B
:102500007EEC17F0010EEB50186E196A1A6A6A0E0B
:102510000C6E180E0D6EF8EC16F0480E1826E80E2C
:102520001922010E1A221B6A1ABE1B685CEC17F0F6
:1025300009E20E01010E046FE66EE66E81EC29F0F1
:10254000E552E55247DA58EC04F032EC3BF00E016C
:102550000551065C146E06510758156E0751085850
:10256000166E08510958176ED8809B0E1454000E31
:1025700065EC17F006E282EC1DF032EC3BF038EC33
:1025800017F00E01045160E032EC3BF00E010951EE
:10259000065C146E0A510758156E0B510858166EDA
:1025A0000C510958176ED880360E1454010E65EC84
:1025B00017F006E2E4EC35F032EC3BF041EC17F0BA
:1025C00032EC3BF00E010D51065C146E0E510758B3
:1025D000156E0F510858166E10510958176ED88095
:1025E000380E1454180E65EC17F008E2A6EC19F03A
:1025F00092EC2EF032EC3BF04AEC17F032EC3BF070
:102600000E011151065C146E12510758156E1351CC
:102610000858166E14517EEC17F0050EEB50186E2C
:10262000196A1A6A3E0E0C6E0D6AE2DB1B6A1ABE4C
:102630001B685CEC17F006E296EC3BF032EC3BF0EA
:1026400053EC17F0E7EC2BF053EC38F049D771EC72
:1026500017F00A0EE1269B8CD08EFA0EE66E030E62
:10266000E66E26EC28F0E552E552010808E019D99B
:1026700035D9010EE66EFA0EE66EAADBC9DBBAECBE
:1026800017F0EF50020801E1DAD0BAEC17F0EF5082
:10269000010801E0D2D0DF6ADF50146E156AD890CD
:1026A000155004E6FF0E145C000E155873E2DE525E
:1026B000010EDD6E140EF36E010EDBCFF4FFF3504E
:1026C000F45C66E2010EDBCFE6FFDFCFE6FFC5EC90
:1026D0000EF0E552E552020EF3CFDBFF030EF4CF0E
:1026E000DBFF9DEC17F0153449E214500008000E92
:1026F000155444E27F0EAEDBD890155004E6080E68
:10270000145C000E15583AE3800EA4DB060E14C0CC
:10271000DBFFE1DBEE9EED6A4DDB08C014F009C083
:1027200015F0040E08C0DBFF45DB04C014F005C043
:1027300015F0050E04C0DBFF060EDBCFE6FF050E2D
:10274000DBCFE6FF040EDB50050DF350080FE5521A
:10275000E724E552E710E66EBEDBE552E750EE6E89
:10276000ED6A020EDBCFE6FF010EDBCFE6FFDFCF27
:10277000E6FF27EC0EF0E552E552E552ACDBFB0E2E
:10278000EE1803E1FF0EED1803E0010EDB2A92D7ED
:10279000DF2A82D70E01156B100E155D4FE2152949
:1027A000E66ED950080FE96EDACFEAFFE552E7503E
:1027B000EE6EED6AE4DB1551B8DBEF50060A2DE052
:1027C000030A28E0010A36E0050A21E0020A1FE0B8
:1027D000010A06E0020A2EE19FDB2CE196DA2AD0FC
:1027E0009BDB05E1A3DA640E1426000EA6DA28DBD3
:1027F000010F7ADA05E19ADA2C0E1426010E9DDA21
:102800001FDB020F71DA16E191DAC80E10D084DBFB
:1028100011E10BD081DB01E178DA12DB010F64DA20
:1028200001E173DA0DDB60DA05E180DA640E14266B
:10283000000E83DA0E01152BAFD750D8E9DAE66A1D
:1028400002EC3BF0E552F19E95DB040EEB500F01DC
:102850005B6F57EC3AF0C5EC17F024EC04F0BCECDD
:102860002BF00F015D6B5C6B19EC1DF0F7EC2DF09C
:102870000E01156B100E155D07E215CEE6FF04D9AB
:10288000E5520E01152BF6D7B2EC35F093EC3BF088
:10289000F28EF28C0A0EE15C02E2E16AE552E16E30
:1028A00025D3E66AE66894DA010EE66EFE0EE66E61
:1028B0008FDA000EE66EE66AFC0EE66E030EE66E3A
:1028C000E0EC28F0E552E552E552E552E66AFB0EEF
:1028D000E66EE8EF16F0E5DF6EEF14F002DBE6528D
:1028E000D8EC34F0B2EC0CF0CBEC17F0DF6A100E41
:1028F000DF5C0EE2080EDF5C02E2000E01D0000E8B
:10290000E66EDFCFE6FF0AD8E552E552DF2AEFD7C1
:10291000E9EC26F0E552EAD25CEF20F0E2DA020EB2
:10292000E126FE0EDB50070DF350100F156A800FE5
:10293000146EFF0E152214C0DEFF15C0DDFFFD0E64
:10294000DBCFE6FFDECFE6FFDDCFE6FFE2EC27F0F0
:10295000E552E552E552E5D9FD0EDBCFEFFFFD0E66
:10296000DBCFE6FFC7DAECEC34F0E552E552C2DA31
:102970008BD8E552FD0EDB50020808E0FD0EDB505F
:10298000030804E0FD0EDB50040809E1FE0EDB50F5
:10299000EA6A100FE96E030EEA22800EEF6EFD0E5A
:1029A000DBCFE6FFA7DACCEC17F0E552E552FD0EDF
:1029B000DB50050804E0FD0EDB50060804E19ADA5E
:1029C000D8EC2BF0E552020EE15C02E2E16AE5523E
:1029D000E16E8CD2D9CFE6FFE1CFD9FF140EE1260C
:1029E000D9CFE6FFDACFE6FFE66A54EC32F0E552E3
:1029F000E552E55200093AE095EC38F0D9CFE6FF10
:102A0000DACFE6FFEAEC04F0E552E552000904E013
:102A1000B7EC38F0010E2CD0D9CFE6FFDACFE6FFC5
:102A200072EC0AF0E552E552000920E0060EDB5098
:102A30005E0A1BE0110A01E019D0070E0401585D7F
:102A400002E149DF10D00401020EAD6FA40EE66E64
:102A5000040EE66E6F0EE66EE66A69EC32F0E55241
:102A6000E552E552E552010E03D0FF00000E00D002
:102A7000146E140EE15C02E2E16AE552E16E14505C
:102A8000E552E7CFD9FF12002CDAE652100EF36EB2
:102A9000FE0EDBCFF4FFF350F45C01E3B3D042DA77
:102AA000020A26E0010A24E0020A2CE10CD9EE52C7
:102AB000EF50040B06E0B8D926EC28F0E552E552B9
:102AC0001BD02FD9EE52EF50200B02E0010E01D0A7
:102AD000020EDF6EDFCFE6FF0DDA0BEC2FF0E552D2
:102AE000E552DFCFE6FFA0D950EC28F0E55208D040
:102AF00018D9EE52EF50100BE66EFCD90BEC2FF00C
:102B0000E552E552E5D8F62A30DA430A2EE0010A0A
:102B100017E0030A3EE106DA06E004DA050803E0FE
:102B200001DA060806E1EED902E090D9FEE1921240
:102B300030D0E8D902E08AD9FEE1E81C921629D00B
:102B4000F1D906E0EFD9050803E0ECD9060806E163
:102B5000D9D902E07BD9FEE193121BD0D3D902E090
:102B600075D9FEE1E81C931614D0DCD906E0DAD959
:102B7000050803E0D7D9060806E1C4D902E066D902
:102B8000FEE1941206D0BED902E060D9FEE1E81C55
:102B90009416C8D9050803E0C5D9060819E1D4D9A7
:102BA000080E145C09E294D8030EA9D802E04ED9AD
:102BB000FEE10F015D1326D0C7D9100E145C22E28E
:102BC00087D84ED902E042D9FEE10F015C131AD03A
:102BD000BBD9080E145C0AE27BD8030E90D802E041
:102BE00035D9FEE1E81C0F015D170CD0ADD9100EF0
:102BF000145C08E26DD834D902E028D9FEE1E81C63
:102C00000F015C17E55272D10401800ED46FD569B3
:102C10000401D26FEF0ED36F12009AD800EE00F0CD
:102C2000140EE80403E3EECFE4FFFBD700EE14F04C
:102C30000C0EE80403E3EECFE4FFFBD7E65288EC8A
:102C40003BF044EC25F0E55200EE1FF00C0EE804DA
:102C500003E3E5CFEDFFFBD700EE13F0140EE8041D
:102C600003E3E5CFEDFFFBD78DD072D800EE00F087
:102C7000140EE80403E3EECFE4FFFBD700EE14F0FC
:102C80000C0EE80403E3EECFE4FFFBD7E6529EA070
:102C900003D0E3EC1DF09E90A1A203D0EDEC1DF05B
:102CA000A192E55200EE1FF00C0EE80403E3E5CF1D
:102CB000EDFFFBD700EE13F0140EE80403E3E5CFBD
:102CC000EDFFFBD75FD022D9FE0EDB5095EF17F05A
:102CD000FE0EDB50040DF3CFF6FFF4CFF7FF680EC6
:102CE000F626790EF7221200E76E070EE7CFDBFF1C
:102CF000DBCFE6FF61EC29F0E55200091200F62671
:102D000034D9146E010E1452120021D9DBCFE6FF24
:102D1000090EDBCFE6FF23D9146E070EE15E1450D7
:102D200012002DD9FE0EDB5095EF17F010D9DBCF36
:102D300014F0090EDBCF15F01200152214C0E6FFC7
:102D400015C0E6FF0CD9166E070EE15E1650120094
:102D5000D8CFE4FFE0CFE4FFE46EDACFE4FFE2CFC8
:102D6000DAFFE9CFE4FFEACFE4FFF6CFE4FFF7CFE5
:102D7000E4FFF5CFE4FFF3CFE4FFF4CFE4FFFACFB5
:102D8000E4FF1200E5CFFAFFE5CFF4FFE5CFF3FF54
:102D9000E5CFF5FFE5CFF7FFE5CFF6FFE5CFEAFF9B
:102DA000E5CFE9FFE5CFDAFFE550E5CFE0FFE5CF7E
:102DB000D8FF1000C2D8080E145E000E155A040E7B
:102DC0000D6E0E6A14C008F015C009F0E8EF38F077
:102DD000030EE66E50EC28F0E552E552E552120083
:102DE000030EF626000EF7220800F5CF14F01200AD
:102DF0000E6A18C007F019C008F01AC009F059ECA3
:102E000039F004C018F005C019F006C01AF012001D
:102E1000020EE66E800EE66EE668E2EC27F0E55202
:102E2000E552E55209EF3CF0FE0EDB50156AC60F85
:102E3000146E030E152214C0E6FF15C0E6FF120043
:102E4000040E0E011503F350080F1200E846FE0BA6
:102E500014061200E76E71D8E7501416156A1200B6
:102E6000030EF62682D8F80F146E010E14521200CB
:102E700006C005FE07C006FE08C007FE09C008FE22
:102E8000120006C009FE07C00AFE08C00BFE09C0FA
:102E90000CFE120006C00DFE07C00EFE08C00FFE9D
:102EA00009C010FE120006C011FE07C012FE08C0C5
:102EB00013FE09C014FE12001450185C1550195866
:102EC00016501A5817501B5812001554000E16545D
:102ED000000E17541200D950020FE96EDACFEAFF44
:102EE0001200D9CFE6FFE1CFD9FF1200E552E7CFBC
:102EF000D9FF1200FE0EDBCFE6FF12000958176E55
:102F0000BAEF17F0E5DE020E7FEF16F033D8100EA1
:102F1000E926000EEA221200040E1503F350080FF2
:102F200074EF16F0D0DEEF501200070DE950F324D5
:102F3000E96EEA50F420EA6E1200020EDBCF14F0C4
:102F4000030EDBCF15F01200C3DEF0EF16F0010E1A
:102F5000E66E070EDBCFE6FFE66A080E1200A2C49B
:102F6000E6FFA3C4E6FF74EF0DF0000EF7220800A1
:102F7000F5501200D0C4E9FFD1C4EAFF1200C6DF49
:0A2F8000E9CF14F0EACF15F01200BB
:062F8A000301FC6BFD6B6E
:102F9000FE6BFF6B1200120055EC1CF0020EE126D6
:102FA000FE0EDB28DE6EDD6AFE0EDBCFE6FF8ED87E
:102FB000E552FD0EDB50060A36E0030A2DE0010A59
:102FC0003BE0060A0CE0020A27E0010A1EE0020AC2
:102FD00033E129EC1CF042EC1CF0640E12D0DBEC67
:102FE0001CF029EC1CF0010F42EC1CF02C0E1426F6
:102FF000010E19EC1CF029EC1CF0020F42EC1CF045
:10300000C80E1426000E19EC1CF0010E8BEC1CF0FF
:10301000E66E010EE66E04D029EC1CF0E66EE66A60
:103020005AEC1CF009D029EC1CF0010FE66EE66AA0
:103030005AEC1CF0DBEC1CF0020EE15C02E2E16AEF
:10304000E552E16E49EF1CF055EC1CF0E652FA0E29
:10305000DB501FE1F90EDB501CE0F90EDB04EA6ADD
:10306000380FE96E090EEA22EFCFDFFFFF0EDF5CBB
:1030700010E0E66AE66ADFCFE6FF27EC0EF0E552E5
:10308000E552E552DFCFE6FFEFEC0FF0E55232EC10
:1030900010F0F80EDBCFE6FFF90EDBCFE6FFFA0EFD
:1030A000DBCFE6FFFB0EDBCFE6FFFC0EDBCFE6FF60
:1030B000FD0EDBCFE6FFFE0EDBCFE6FFE8EC1CF0FB
:1030C000E552E7D3D9CFE6FF000EE3D355EC1CF071
:1030D000050E8BEC1CF0E66EECEC2AF0E552E552A6
:1030E000050E8BEC1CF08009E66EECEC2AF0E55244
:1030F000E552040EEFEC1CF0E66EF5EC29F0E5521B
:10310000E552C7D3D2DB0B0EE126FE0EDBCFE6FF86
:1031100023EC0FF0E552C4EC1CF0E76EFC0EDBCFA5
:10312000E9FFFD0EDBCFEAFFE75015EC1DF0060EC0
:10313000EFCFDBFFDBB05FD0010EDF6E140EDF5C84
:1031400001E3FDD0DF50F6EC1CF0E66E8CDBE552BF
:10315000E750EE6EED6A87DBEE50ED104AE07F0E31
:10316000E76E7ADBE7501416156A050E14C0DBFF14
:10317000DB5058083EE3050EDB50070801E1DFD0C5
:10318000080EF36E050EDBCFF4FFF350F45C30E372
:10319000050E45DB010E09C0DBFF050E40DB020E0C
:1031A00005C0DBFF32DBEF50040A22E0060A0BE029
:1031B000010A09E0020A1DE128DBEE52EF50800B04
:1031C00002E0C2EC3AF0020EDB5005E1030EDB2A0E
:1031D000040E01E3DB2A020EDB50040805E143DBA9
:1031E000020EEE5E000EED5AB3DBC6EC3AF001D0F3
:1031F000AFDBDF2AA3D70E01295182DB130EDF6E6E
:10320000010EDF5C01E29BD00A0EDB6A070EDBCF0A
:1032100008F0080EDBCF09F0030E08C0DBFF040E38
:1032200009C0DBFFDF50010812E2DF04DFDB68DBEF
:10323000800EE76E070EDBCF14F0080EDBCF15F023
:10324000E7501416156A090E14C0DBFF07D00A0EEA
:10325000DB50800BE76E090EE7CFDBFF04DBEE509F
:10326000ED106BE00A0EDB5006E1030EDB50E76E5B
:103270000A0EE7CFDBFFF7DAEE9EED6AEDDA1534E2
:1032800004E214505808000E155457E3ECDA070E08
:10329000EE1802E1ED5053E0DFDAD890155004E665
:1032A000080E145C000E155806E2DDDA010EEE1869
:1032B00043E1ED5041E1D0DA16DB08C014F009C05B
:1032C00015F0010E08C0DBFFC7DA0DDB04C014F0F7
:1032D00005C015F0020E04C0DBFF97DAEF50040AB8
:1032E0002BE0060A14E0010A12E0020A26E18DDA58
:1032F000EE52EF50800B02E0C2EC3AF0020EDB50CF
:10330000030805E1030EDB06040E01E2DB06020EF4
:10331000DB5005E1A8DA020EEE26000EED22020EC9
:10332000DB50040805E19FDA030EEE5E000EED5A55
:1033300049DBC6EC3AF001D045DBDF0661D70B0E66
:10334000E15C02E2E16AE552E16EA3D2AEDA090E77
:10335000E12677EC3AF0E76E020EE7CFDBFFDB50B9
:1033600001E1A2D0020EDB0402E1E9D89DD0020EF9
:10337000DB50020802E1050E11D0020EDB500308FB
:1033800002E10A0E0BD0020EDB50040802E1140E1B
:1033900005D0020EDB50050807E1320EE66EE66A44
:1033A0008CD8E552E55282D0020EE0DA020EDB50F4
:1033B0007F0BE76E030EE7CFDBFF080ED0DA74E376
:1033C000580ECDDA71E2030E2ADA0950DF6E030ED1
:1033D00026DA030E25DBDF50E3DA010EEFCFDBFF49
:1033E0005CDA57EC37F0E552E552E552010E55DA5A
:1033F000AFEC37F0A0DA07E0010E4FDA39EC37F026
:10340000E552E552E552010EF36E050EF3CFDBFFF8
:10341000040EDB5043E0050EDBCFE6FF8BEC3AF009
:10342000E552B2DADB503AE0060EA0DA060EDB9E79
:10343000F6D9070E09C0DBFFDF50F36E070EDB5035
:10344000F35C2CE0060EEBD9060EEADA070EDB5031
:10345000A7DA080EEFCFDBFF0CDA57EC37F0E552B6
:10346000E552E552080E05DAAFEC37F064DA07E012
:10347000080EFFD939EC37F0E552E552E552080E57
:10348000F8D9CAEC37F057DA06E0050EDBCFE6FFD5
:10349000AAEC3AF0E552050EDB2ABAD7010EFDD9A7
:1034A000CAEC37F048DA02E089EC3AF0090EE15C48
:1034B00002E2E16AE552E16EECD1F7D90301FC5179
:1034C000FD11FE11FF110BE132EC3BF006C0FCF3E5
:1034D00007C0FDF308C0FEF309C0FFF32FD032ECA4
:1034E0003BF00301FC51065C146EFD510758156E4C
:1034F000FE510858166EFF510958176EFD0EDBCFAE
:1035000006F0FE0EDBCF07F0086A096A6A0E0B6E42
:10351000180E0C6E0D6A0E6A51EC3CF01450025CF1
:1035200015500358165004581750055807E289ECF7
:103530003AF00301FC6BFD6BFE6BFF6BAAD10E0131
:10354000010E3E6F0E013F6B1200AFD9090EE1264E
:10355000FE0EDB50FC0BE842E842DF6E100EDF5C33
:1035600002E3000E1ED1FE0EDB50030BE76E010ED0
:10357000E7CFDBFF50D9EE52070EEFCFDBFFDB507A
:10358000200B02DA070EDB50400BE76E050EE7CF8B
:10359000DBFF070EDB50080BE76E020EE7CFDBFF09
:1035A000DB5005E0050EDB5002E0000E01D0010EFD
:1035B000E76E030EE7CFDBFF020EDB5005E0050EE2
:1035C000DB5002E1000E01D0010EE76E040EE7CFE2
:1035D000DBFF080EDB681FD9EF50050A01E19ED022
:1035E000030A01E19BD0020A59E0070A52E0010AEE
:1035F00027E0030A1CE0010A01E0AAD0060EDB5016
:1036000001E08FD0010EDB50010A08E0010A01E061
:103610009FD0B3D9080EEFCFDBFF9AD0020EDB505C
:1036200001E196D0AAD9EF5001E08BD085D0010EF0
:10363000DB5001E08DD048D9020801E07DD081D077
:10364000010EDB50010A0FE0030A07E0020A5BE10A
:10365000D7D8EF50145C50E142D0D2D8EE52EF50A0
:10366000145C4AE13CD0CED9E9CF18F0EACF19F08A
:10367000D3D9EF50FE0BE842176E8BD9EACF16F084
:10368000CBD9EE52EF50FE0BE8421724145C27E230
:1036900033D0010EDB5037E117D931D0010EDB50AA
:1036A000030A1FE0010A10E0030A08E0010A2BE107
:1036B000A7D8EE52EF50145C1FE111D0A1D878D9F1
:1036C000EF50145C0CE018D0A6D872D9EF50020865
:1036D0001AE296D8030EA9D9EF50145C0DE1010E41
:1036E0000ED099D865D9EF5003080DE289D8040EA1
:1036F0009CD9EF50145C02E0000E01D0010EE76E81
:10370000080EE7CFDBFF010EF36E030EF3CFDBFFF6
:10371000010EF36E040EF3CFDBFF1AD0060EDB5062
:1037200002E0020E3ED0010EDB50010A07E0010A62
:103730000FE1F8D8010805E1010E06D0F3D8020820
:1037400002E0000E01D0010EE76E080EE7CFDBFFAE
:10375000080EDB50146E156AFF0E141801E11550A7
:103760001FE0040EDBCFE6FF030EDBCFE6FF050E06
:10377000DBCFE6FF080EDBCFE6FF010EDBCFE6FF77
:10378000040EDF02F350080FE552E724E66E12D86C
:10379000146E050EE15E1450000902E1010E01D025
:1037A000020E146E090EE15C02E2E16AE552E16E7E
:1037B00014506FD07AD8E652FC0EDB5007E0FD0EB5
:1037C000DB5002E0000E04D0010E02D0FD0EDB50F3
:1037D000DF6EDF5003E0FB0EDB5005E1DF500DE153
:1037E000FA0EDB500AE0DFCFE6FFFE0EDBCFE6FF8E
:1037F00081EC29F0E552E55201D0010EE55249D0A5
:1038000001D9EACF16F00CEF1DF0C3D8F6D8010E9F
:10381000DB50D0EF1CF0BDD8DF50D0EF1CF0DB50F8
:10382000F80F146E050E156E0E6E14C009F00EEF33
:103830003DF0152214C0E6FF15C0E6FFA2C4E6FF66
:10384000A3C4E6FF74EC0DF0166E070EE15E165091
:103850001200010EEFEF1CF0030EDBCF14F0040E8C
:10386000DBCF15F01200D950030FE96EDACFEAFF73
:103870001200DBCFE6FF060EDBCFE6FF070EDBCF45
:10388000E6FF1200E66EE66ADECF14F0DDCF15F03B
:103890001200E552E7CFD9FF1200DBCFE6FF030E9F
:1038A000DBCFE6FFDFCFE6FF1200D9CFE6FFE1CFA7
:1038B000D9FF1200DECFE6FFDDCFE6FFA2C4E6FFB0
:1038C000A3C4E6FFE8EF1CF0DF50156AC60F146EC4
:1038D000030E152214C0E6FF15C0E6FF26EC28F003
:1038E000E552E5521200080E145E000E155A050E40
:1038F0000D6E0E6A14C008F015C009F0E8EF38F03C
:10390000E66ED950070FE96EDACFEAFFE552E750CD
:10391000EE6EED6A1200E66EFE0EDB50050DF35002
:10392000080F1200DF50EA6A2B0FE96E0E0EEA2232
:10393000EF50030B1200E552E552E5520009120068
:10394000E75014121450E66E6AEC3AF0E552120099
:10395000030EDBCFE6FF6AEC3AF0E5521200F36E9D
:10396000030EDBCFF4FFF350F45C1200DB50800B4E
:10397000E76E040EE7CFDBFF1200DF50EA6A100F9C
:10398000E96E090EEA221200E76E060EE7CFDBFFB2
:103990001200D0C4E9FFD1C4EAFF100E15EF1DF0EC
:1039A000070DE950F324E96EEA50F420EA6E1200A4
:1039B000020E15EF1DF04DDF65DF640E1426000EBC
:1039C00019EF1CF0090EDB50E76E46DFA0EF1CF08C
:1039D00074EC0DF0146E070EE15E14501200E66EEA
:1039E000FE0EDB50040DF350080F1200EA6A160FAA
:1039F000E96E0E0EEA22EF501200E9CF14F0EACF82
:103A000015F01200DF50EA6A100FE96E030EEA2289
:103A1000EFCF14F0C9EF1CF0DF50C2DFD8EF1CF07D
:103A200005C0DBFFB6DFFDEF1CF0E926000EEA2241
:023A3000120082
:0E3A32008CEC21F0E652DF6A100EDF5C45E2FC
:103A40009FDBEE52EF50040B05E026EC21F0010E57
:103A5000EF6E03D026EC21F0EF6AAEDBDF5047DBE0
:103A60002DEC21F0DF50F3EC21F0040B12E088DBA9
:103A7000EF50E66EDF50176AC60F166E030E172260
:103A800016C0E6FF17C0E6FF26EC28F0E552E55227
:103A90000DD076DBEF50E66EE0DBE9CF16F0EACF33
:103AA00017F0DF50EEDB020E91EC21F0E66EDFCF77
:103AB000E6FF75EC37F0E552E552E552DF50C7EC12
:103AC00021F0EA22EF6ADF2AB8D7AA9E3F0ECD1472
:103AD0000009CD6ECF0ECD142009CD6ECD86CD82DE
:103AE0009D80B09E3F0EB1140009B16ECF0EB1148F
:103AF0002009B16EB186B182A082DF040301D06FCC
:103B0000E5526CD38CEC21F0E6520301D02B080E69
:103B1000D05D02E3D06B6DD8E9EC21F00301D05108
:103B200077DB06E0030EDF5C03E0040EDF5C08E1F8
:103B3000D051ECDBEF5004E0D0C3E6FF1AD8E552D9
:103B4000E9EC21F0080E0301D02562DB06E0030E4C
:103B5000DF5C03E0040EDF5C0AE1080ED025D6DB53
:103B6000EF5005E0080ED025E66E18D8E552E55274
:103B700035D3DFDACF6ECCEC21F01450CE6E19ECD9
:103B800022F002E0000E01D0010E53DBCD80020EC8
:103B9000E15C02E2E16AE552E16E20D3CADAB36E7B
:103BA000CCEC21F01450B26E19EC22F002E0000EC1
:103BB00001D0010E3EDBB180020EE15C02E2E16A5F
:103BC000E552E16E0BD3CD90E9EC21F00301D05129
:103BD00002DBE66ED0C3E6FFC7D3B190E9EC21F07B
:103BE000080E0301D025F7DAE66E080ED025E66E42
:103BF000BBD392DB040EE126020EDB6A100EF36EDD
:103C0000020EDBCFF4FFF350F45C01E3B8D1E1DB4B
:103C1000020EDB5036DBEF50040A01E1D8D0070A70
:103C200001E18ED0010A01E065D117DBE9CF17F081
:103C3000EACF18F0020E4DDAEF50FE0BE842166E96
:103C4000DDDBEE52EF50FE0BE8421624DF6E010E74
:103C5000DB6AA7DB0DE0010A01E04CD107DBEF5086
:103C6000145C02E132DB02D030DB020FAEDA9DDB06
:103C70001BDBE8DA27E22CDBDF50145C03E2DE52C8
:103C8000010EDD6EA9DB08E027DB03E21FDAEF6837
:103C900008D00FDBEF2605D034DB03E117DAEF2A7B
:103CA000F8DAA5DBCFDA01E284DB12DBDF50145C4B
:103CB00034E3010EDB5031E093DB02E0000E2AD04A
:103CC000010E28D097DB29E203DBDF50D8801454A3
:103CD00003E2DE52010EDD6E7FDB08E009DB03E26A
:103CE000F5D9EF6A08D0E5DAEF5E05D00ADB03E12B
:103CF000EDD9EF06CEDA7BDBEF50145C01E259DB45
:103D0000E7DADF50D880145408E3010EDB5005E0F9
:103D1000D8D9400B07DA010F58DA6CDB01E0EAD0A2
:103D200050DBA4DAEF50145C03E15ADB40E141D0F0
:103D300057DB02E0000E01D0010EF4D9020FC6D00D
:103D400030DB0CE0010A01E0D5D0020EDBCFE6FF4C
:103D50001AEC30F0E55229DB54DAEF6A020E51DA40
:103D6000EF2A020E4EDAEF50146E156AD8901550F5
:103D700004E6FF0E145C000E155803E37EDA17E12B
:103D800018D03CDB030EEFCFDBFFAAD9EFCF14F046
:103D9000030EDB50145C0FE1020EDBCFE6FF04ECF8
:103DA00031F0E552000901E1A5D067DA02E0000E2A
:103DB0000CD0010E0AD0020EDBCFE6FF24EC30F06F
:103DC000E552000901E196D058DAACD97FD0E9DAA2
:103DD00023E0010A01E08ED049DAEE52EF50145C84
:103DE00002E173DAF2D910DB03E16FDA010FEDD9EA
:103DF0003DDA2FDA03E169DA020FE7D967D981D911
:103E0000E9CF15F0EACF16F0020E63D924DA03E108
:103E10005CDA030FDAD9C9DA47DA14DA13E2DCDA4A
:103E200008E05ADA03E252D9EF6808D042DAEF2606
:103E300005D067DA03E14AD9EF2A2BDAD8DA02DAB9
:103E400017E215D0D7DA14E2C7DA08E051DA03E254
:103E50003DD9EF6A08D02DDAEF5E05D052DA03E1E2
:103E600035D9EF0616DAC3DAEF50145C01E2A1DAB5
:103E7000C1DA40E1A6DAFAD9EE52EF50145C07E15C
:103E8000AFDA02E0000E01D0010E4CD99ED9BCDAA7
:103E900008E1A6DA02E0000E01D0010E43D9010FBD
:103EA00094D9E4D9D6D908E19BDA02E0000E01D01A
:103EB000010E38D9020F89D9D9D9CDD908E190DAC4
:103EC00002E0000E01D0010E2DD9030F7ED9FED8DD
:103ED000EF50E66E020EDB50156AC60F146E030E2D
:103EE000152214C0E6FF15C0E6FF50EC28F0E5529D
:103EF000E552E5520AD9EF503FE0010A3DE1E1D831
:103F0000020B3AE0020EDB5022DAEECF18F0EECFD1
:103F100019F0EECF1AF0EFCF1BF018C0E6FF19C072
:103F2000E6FF1AC0E6FF1BC0E6FF32EC3BF0E552AD
:103F3000E7CF1BF0E552E7CF1AF0E552E7CF19F0D3
:103F4000E552E7CF18F000011850065C146E1950C6
:103F50000758156E1A500858166E1B500958176EE0
:103F6000D880240E1454F40E1554000E1654000E6E
:103F7000175402E2CAD8EF6A020EDB2A3FD6040EBB
:103F8000E15C02E2E16AE552E16E28D130D9010A32
:103F900005E0030A07E112DA030E02D00FDA020E7F
:103FA000C0D935DA37DA07E21450EA08000E1554A2
:103FB00002E236DA02D0D5D9E7D8EA22EF6A1BD975
:103FC0000DD115D9010A05E0030A07E127D9EE6AE8
:103FD00003D024D90C0EEE6EED6A0DD9FE0E11D968
:103FE000EF6AFCD099D9D0C4E9FFD1C4EAFF030E2F
:103FF000EB500DDA0FDA07E21450EA08000E155400
:1040000002E20EDA02D0ADD9BFD8EA22EF6AF3D8C5
:10401000E5D0EDD8010A05E0030A0AE17DD805E103
:1040200002D07AD802E0CAD902D0C8D9EE52DAD882
:10403000D5D0DDD8010A05E0030A0CE16DD806E110
:1040400002D06AD803E0BAD9EE5203D006D9FE0EE8
:1040500040D8C8D8C3D0CBD8030A15E0010A0AE07B
:10406000030A05E0010A1BE1A9D9EE5217D0A6D92F
:10407000020E11D0A3D9EFCF14F0030E145C0FE39E
:104080009DD9030E08D09AD9EFCF14F0040E145C1A
:1040900006E394D9040EE926000EEA22A3D89ED0A6
:1040A0003BD9FE0E4DD9FD0EDBCFEFFFFE0E41D901
:1040B000FD0EDBCFEFFF92D0CDB0000CB1B0000C05
:1040C000010C87D9020EDB50F3EF21F0020E99EFBD
:1040D00021F0DB50D6D8020EE926000EEA221200AB
:1040E000020EA0EF21F0DB5052D9EA2212002FD9A4
:1040F00006C0EEFF15C0EEFF16C0EEFF17C0EEFFC4
:104100001200EFCF14F02DEF21F0020EDB5086EFFE
:1041100021F0020EB9EF21F0A0D8FE0EDB5063D9DA
:10412000010B1200E66E020EDB50040DF350080F77
:104130001200F2D8020EE126FE0EFBD8EF50166EEA
:10414000176A130E086E096A16C00DF017C00EF03C
:104150003BEC39F006C014F007C015F0100E142621
:104160000E0E1522FF0ED8801456155614C0DEFF11
:1041700015C0DDFF11D915C014F0156A14501200D6
:1041800028D9DF5041EF21F0EF50146E156AEA0E86
:10419000D8801456000E1556010E1426000E152256
:1041A000EFD8EA2214C0EFFFFE0EE3D8010EEF6E47
:1041B000FE0EDB50C7EF21F032EC3BF007C015F0EC
:1041C00008C016F009C017F01200E66E81EC29F065
:1041D000E552E552120007D9200B1200E552E7CF55
:1041E000D9FF1200EF50E66EFE0EAAD81ED194D869
:1041F000FD0EDB501200FE0EDB5088D8030EEF6E72
:104200001200DB50EA6A800FE96E030EEA22120008
:1042100038D8EFCFDFFF020EDF5C1200FE0EEA6A35
:10422000DB34FE0BEA36E96E600EE926030EEA2265
:104230001200E66EFE0EDBCFE6FF96D01450EF5E66
:10424000C0EF21F0EF50D88014541200DF5086EFF9
:1042500021F0030EF3D0040EF1D0D0C4E9FFD1C495
:10426000EAFF100EE926000EEA2212002FDF49DFD6
:10427000EACF16F0020E69EF20F0A3D89AD8F0EF3B
:1042800021F0070DE950F324E96EEA50F420EA6EBC
:104290001200020EDB50EA6A400FE96E030EEA22BA
:1042A000EF50E66E36DFC1D01BDFEFCF14F066EFC4
:1042B00020F0020E18DFEFCF14F008DF14501200C8
:1042C000E9CF14F0EACF15F012008AD892EF20F06F
:1042D000FDDEEFCF14F01200020E05DFEFCF15F078
:1042E000F5DEEF501524146EF1DEEF50145C120071
:1042F000EDDEEFCF15F070D8155C146EE7DE22EF1F
:1043000021F007DFEF0605DFEF501200EA6A000F29
:10431000E96E030EEA221200D9CFE6FFE1CFD9FF02
:104320001200E926000EEA22EF501200FE0E69EF9D
:1043300020F0DB50EA6A100FE96E030EEA22120049
:10434000DB50EA6A200FE96E030EEA221200040D28
:10435000F3CFE9FFF4CFEAFF900EE926030EEA223D
:104360001200FE0E73EF20F032EC2FF0E552E55212
:104370001200DB50EA6A500FE96E030EEA221200C7
:10438000FE0EDB50EA6A400FE96E030E1200EA6A85
:10439000300FE96E030E1200DECF14F0DDCF15F002
:1043A0001200B3DEEF50020A1200AFDE020EEF6E13
:1043B000120096DEEF50E66E89DE37D04EDF96EFC4
:1043C00021F0A3DE010EEF6EF7DE020EDB5077EF79
:1043D00020F043DF60EF21F0020E85DEEF50120087
:1043E00070DE400B12004DDFEE52EF50120070DF16
:1043F00070EF20F059DFEF50145C12002EDFEACF8F
:1044000015F0020E69EF20F031DF020E17D0E66ED4
:10441000A8DF0BD0A6DFEF50146E156A153412001A
:10442000EA0E146E9EDF1EEF21F0E552E750EF6EAC
:104430001200CFDFFE0EDB50EBEF20F072DF145CDA
:02444000120068
:0E4442008BDB0301DB6BDC6BDD6BDA6B64EC98
:1044500026F0DE6BDF6BE16BE06BD16BD26BD36B65
:10446000D46BE26BE36B786A800E6F6E6EAEFED734
:10447000B00E726E0E017D6B0F0E436F3F0E431533
:10448000010F040DF3CF57F49E0E446F030E456FDA
:10449000200E706EF86B080EF96FFA6BFB6BFC6BFD
:1044A000FD6FFE6BFF6B800EE16F716B726B736B58
:1044B000746B756B766B776B786B796B7A6B7B6BE8
:1044C0007C6B200E606E0F01306F0E01806B906B65
:1044D000A06BB06BC06BD06B7E6B7F857F977F9935
:1044E0006F6AFD0EDB5010E1FE0EE66E030EE66E07
:1044F00026EC28F0E552E5520301FB6FFF0EFB5D51
:104500000AE1010EFB6F07D0FD0EDBCFFBF3FBC30F
:10451000E6FFFE0E91DB0F01206B20912093256BAF
:1045200025DB0F01216F070E0301FB15200DF3CFD3
:1045300022FF0F01106B10911083400E156F16DBD8
:104540000F01116F22CF12FF006B00810083056BFA
:104550000DDB0F01016F22CF02FF0301EA6BEAC3FB
:10456000E8F3F0DA7680768AFDD2F7DA010EF36EA0
:10457000FE0EDBCFF4FFF350F45C24E3FE0EDB50C1
:10458000630820E3FE0EDBCFFBF3F00E0F012117D3
:1045900031DB2113FE0EDB50070B200DF3CF22FF82
:1045A000F00E111727DB111322CF12FFF00E0117A7
:1045B00021DB011322CF02FFFE0EDBCFE6FF3CDB47
:1045C000010E01D0000ECED2C8DAE652050EE76E1B
:1045D000A3DAE75091DBFC0EDBCFEFFF26DB06D83A
:1045E000E552E552DF6EDF50E552BCD2B6DA040E7A
:1045F000E12692DAEF6A0F0E146E7BDB1450EF1691
:10460000B5DAE66E89DA010E32DB070EFB15200DF6
:10461000F350E66E81DA020E2ADB7EDA2DDB02E24F
:104620007BDA2EDB7698D151D25D02E0DA5110E0D0
:104630000F012051080B0CE1200EDE6E0F0EDD6E17
:1046400035DBDDDAD0DA03019DDA020EDB6A32D027
:10465000FF0E0301D15D02E0000E01D0010EFBDA76
:104660000FE124DBD15135DBAFDA0301D12B100E82
:10467000D15D01E1D16BD151D25D03E1D16901D0AE
:10468000E02BE22BD251D15D03E2100ED12501D0F7
:10469000D151E76E030EE7CFDBFFDB50D880D25558
:1046A000146EDE51D880145405E2030EDB50D8801E
:1046B000D255DE6F7688020EDB5002E0000E01D08C
:1046C000010E146E040EE15C02E2E16AE552E16E55
:1046D000145048D242DA7690A8DA96D8E552E552DC
:1046E0007680010E3FD2F8DA0301DA6B77980F017A
:1046F00020B725D00301E8DAD151D25D1BE0200EAE
:10470000DE6E0F0EDD6ED251E4DA16DAD251E1DA46
:104710000ADA75DA68DA0301E20734DAFF0E030118
:10472000D15D02E1D2C3D1F3D22B100ED25D08E1EC
:10473000D26B06D00F01206B7798769802D07798CD
:104740007688020EE15C02E2E16AE552E16E0AD28D
:104750000301D651D711D811D9111BE032EC3BF02F
:104760000301D651065C146ED7510758156ED85107
:104770000858166ED9510958176ED880240E145453
:10478000F40E6FDA06E2010EDA6FDD2B0F012097CF
:10479000AADF1200A5DA76908BD80301D351D45D3D
:1047A00015E0D451E9D975DAC7D9D45184DAB4D92E
:1047B0000BDA0301E307D42B100ED45D01E3D46BB5
:1047C000010EF36E020EF3CFDBFF12D0020EDB6A96
:1047D00071AE0ED019DA73DA3EDA06E05FDAACD9E0
:1047E0000EDA9AD9A0D9FFD977BE779E57DAEF9E15
:1047F0007680020EDB50146E030EE15C02E2E16A89
:10480000E552E16E1450AED1A8D986D995D90DDA0A
:104810000301D35150DAE7D90301E32BD32B100E58
:10482000D35D01E3D36BD451D35D07E1E12BD351C9
:1048300003E10F0ED36F01D0D307010E93D150DAED
:1048400071AE24D0E1D971BC719C39DA000904E061
:10485000D6D9DADFE552E55277BE779E1FDAEF9EB2
:104860000301D451D35D03E2100ED32501D0D351FF
:10487000F2D9D880D455146EDF51D8801454E0E2B8
:10488000020EDB50D880D455DF6FDAD77790030E55
:10489000E15C02E2E16AE552E16E64D15ED9FE0EAE
:1048A000DBCFE9F30301EA5102E1010EE86F5AD1CF
:1048B00017DA0301E85119E076D9D40E1454300EFA
:1048C000D0D913E2010EDF6E100EDF5C05E2DF507F
:1048D000A6D9EF6ADF2AF8D70301010EEB6FEA6F62
:1048E000E86B30D90F0110875AD0EA5158E05BD9F4
:1048F0006A0E1454180EB5D952E2DF6ADF508FD910
:10490000EF50FF0805E1100EDF5C02E2DF2AF6D768
:10491000DF5085D9020EEFCFDBFFEF50FF0833E009
:10492000080EDF02010EF3CFDBFF020EDBA009D081
:10493000DBCFF3FFF390F342F3CFDBFF010EDB2A73
:10494000F4D7010EF36EDBCFF4FFE850F45C23E301
:10495000010EDB5063081FE3010EDBCFFBF3FBC34B
:10496000E6FF03DEE5520301E95115E0A40EE66E11
:10497000040EE66E520EE66EE66A69EC32F0E5521F
:10498000E552E55207D00301E95105E0070EE66E56
:104990006CEC0AF0E5520301EA6BEAC3E8F3030E9C
:1049A000E15C02E2E16AE552E16EDCD095D9010EEC
:1049B000DB6AB2D8020EA0D9EF50E00BE838E8402D
:1049C000146EAAD8010E98D9EF50080DF350142494
:1049D0007F0BDF6E0301EA5111E0070EDF14156E45
:1049E000010E155204E0E846FE0B1506FCE1146EBC
:1049F000DF507AD914D91450EF1209D0E85107E1E9
:104A0000FB51DF5C04E1E66A49DFE5529BD871D9CE
:104A1000EF50400B04E00F01008794D80CD069D907
:104A2000EF500F0BE76E010EE7CFDBFF75D824D9EF
:104A300002E272D825D9010EDB50146E020EE15C41
:104A400002E2E16AE552E16E14508CD00F0120AB16
:104A50000ED00301D55104E1F8D80301DB2B07D0B8
:104A6000D50705E10F0120973F0E211720870F0181
:104A700020A904D00301E9D80301DC2B0301DA519A
:104A800001E031DE779A120077B0D9DE77BADEDF47
:104A900077B829DEA8EF23F01FD9FE0EDB50060AF7
:104AA00024E0030A1EE0010A18E0070A12E0010AE6
:104AB0000CE0030A06E0010A1CE1600EDE6E0F0E38
:104AC0001BD0300EDE6E0F0E17D0800EDE6E0E0E77
:104AD00013D0900EDE6E0E0E0FD0A00EDE6E0E0EF8
:104AE0000BD0B00EDE6E0E0E07D0C00EDE6E0E0EB8
:104AF00003D0D00EDE6E0E0EDD6EDECF14F0DDCFF5
:104B000015F014C0F3FF15C0F4FF020EE15C02E2E1
:104B1000E16AE552E16E26D0FD0EDBCFE9FFFE0E25
:104B2000DBCFEAFF1200E9CF14F0EACF15F0E9CFAE
:104B3000E6FFEACFE6FF1200B6D8EF50060FE66EAA
:104B4000E66A120032EC3BF006C0E4F307C0E5F37E
:104B500008C0E6F309C0E7F31200D9CFE6FFE1CFC2
:104B6000D9FF1200E552E7CFD9FF1200780E0301FA
:104B7000FB15BAD8B0091200100DF3CFE9FFF4CF3E
:104B8000EAFF12000A0ED56F32EC3BF006C0D6F3F6
:104B900007C0D7F308C0D8F309C0D9F30301DA6B13
:104BA0000F012087120032EC3BF00301E451065C58
:104BB000146EE5510758156EE6510858166EE75108
:104BC0000958176ED8801200E9CF16F0EACF17F017
:104BD000E9CFE6FFEACFE6FF89EC3CF0186E060E5F
:104BE000E15E1850120089EC3CF0166E060EE15E94
:104BF00016501200FE0EDB50780B74EF26F0DECF5D
:104C0000E6FFDDCFE6FF1200070E6F14E66E44DF0D
:104C1000E552F3CFDEFFF4CFDDFF77921200EA6AB0
:104C2000EB0FE96E030EEA221200FD0EDBCFE6FF6A
:104C3000FE0EDBCFE6FF1200E66E030EE66E50ECD2
:104C400028F0E552E552E5521200010EDA6F3CD829
:104C50000F0120971200E76E020EE7CFDBFFDB505B
:104C600012001554000E1654000E1754120044D8AA
:104C7000E552E750EF6E120016D8EF500808120008
:104C800012D8080EEF6E1200000EE926010EEA227D
:104C90001200000EE926020EEA221200DECFE9FF22
:104CA000DDCFEAFF1200050E7CEF26F035DF44DF92
:104CB00033DF93EF25F060DFECDF93EF25F09FDF2C
:104CC00075DEE552E5521200D66BD76BD86BD96B07
:104CD000120052DF44EF26F040DF020EE126120000
:104CE0003CDF030EE1261200E840E840E8401F0BDD
:104CF000120012DF53EF26F0E926000EEA2212001E
:104D000004015E6BA069A1691200D9CFE6FFE1CF73
:104D1000D9FF020EE1265F0EDE6E040EDD6E040189
:104D2000800EA05DEF0EA15907E30401FF0ED880AD
:104D3000A055FF0EA15501E228D08CEC14F000091B
:104D400001E1FBD7F29EF29CA0C4F6FFA1C4F7FFDD
:104D5000F86AF86ADECFE9FFDDCFEAFF0401400E12
:104D60009F6FEE50F56E0D009F07FBE10A007F8EEE
:104D70007F9C7F987F84550E7E6EAA0E7E6E7F820A
:104D80007F940900F86AF28EF28C020EE15C02E276
:104D9000E16AE552E16EE552E7CFD9FF12008CECF3
:104DA00014F00009FCE0A0C4F6FFA1C4F7FFF86A04
:104DB000F86A7F8E7F9C7F847F88F29EF29C550EDE
:104DC0007E6EAA0E7E6E7F82F28EF28C7F9485EFCD
:104DD00026F004015EA905D05EAB02D0CFEF26F02D
:104DE00094DF1200D9CFE6FFE1CFD9FF020EE12612
:104DF000FD0EDBCF14F0FE0EDBCF15F0800E145C41
:104E0000EF0E15580CE3D950FD0FE96EFF0EDA20B6
:104E1000EA6EFF0ED880EE54FF0EED5402E2FF0E54
:104E20006AD004015E51070B050803E00401050E7A
:104E30005E6F040104015E51080B15E0FD0EDBCF2F
:104E400014F0FE0EDBCF15F0C00E1416FF0E151673
:104E500014500401A01902E11550A11904E0B9DFB2
:104E60000401050E5E6F04015EB734D0FD0EDBCF8A
:104E7000A0F4FE0EDBCFA1F4C00E0401A017FF0EBC
:104E80000401A1175F0EDE6E040EDD6EDECFE9FFBA
:104E9000DDCFEAFFFD0EDBCFA0F4FE0EDBCFA1F4E9
:104EA000C00E0401A017FF0E0401A117A0C4F6FF55
:104EB000A1C4F7FFF86AF86A800E7F6E0401400E05
:104EC0009F6F09000000F5CFEEFF9F07FAE1F86A37
:104ED00004015E873F0EE76EFD0EDBCFE9FFFE0E9D
:104EE000DBCFEAFFE750E916EA6A5F0EE926040E17
:104EF000EA22EF5000D0146E020EE15C02E2E16A99
:104F0000E552E16E1450E552E7CFD9FF1200ADD95A
:104F1000020EE126A3D9800E145CEF0E15584BE368
:104F2000D950FD0FE96EFF0EDA20EA6EFF0ED88031
:104F3000EE54FF0EED543FE304015E51070B0508EC
:104F400003E05E815E935E855E51080B0BE086D9BF
:104F5000C00E1416FF0E15161450A01902E11550BC
:104F6000A11904E096D93EDFE552E5523F0EE76E07
:104F700075D9E7501416156A5F0E1426040E152213
:104F800014C0DEFF15C0DDFF92D9EF50F36EFC0EAA
:104F9000DB50F35C02E004015E89FC0EDBCFE6FF30
:104FA00086D9EF1CE552E71402E004015E8B7FD93D
:104FB000FC0EDBCFEFFF020EE15C02E2E16AE5529C
:104FC000E16E58D152D9FC0EDBCFE6FF62D974D91D
:104FD00000DF50D14AD952D95CD999DF30D9010EBE
:104FE000E76EFD0EDBCF16F0FE0EDBCF17F0E750BD
:104FF0001626000E172216C0E6FF17C0E6FF5CD982
:1050000039D133D9E652DF6AFA0EDB50DF5C1CE29D
:10501000DF50E76EFB0EDBCFE9FFFC0EDBCFEAFFD4
:10502000E750E926000EEA22EF50E66EDF50E76E09
:1050300015D9E7501426000E152214C0E6FF15C03E
:10504000E6FF3AD9DF2AE0D7E55214D1D9CFE6FFFF
:10505000E1CFD9FF7FB2FED7FD0EDBCF14F0FE0EFD
:10506000DBCF15F015C014F0156A1450756EFF0EE5
:10507000E76EFD0EDBCF14F0FE0EDBCF15F0E75030
:105080001416156A1450746E7F9E7F9C7F807FB0CB
:10509000FED70000735000D0E552E7CFD9FF1200D1
:1050A000D9CFE6FFE1CFD9FFE652F250800B01E005
:1050B000010EDF6EFD0EDBCF14F0FE0EDBCF15F020
:1050C00015C014F0156A1450756EFF0EE76EFD0ED4
:1050D000DBCF14F0FE0EDBCF15F0E7501416156A87
:1050E0001450746EFC0EDB50736E7F9E7F9C7F8429
:1050F000F29EF29C550E7E6EAA0E7E6E7F8200009E
:105100000000DF5002E0F28EF28CB7ACFED7B79C05
:105110007F94FD0EDBCFE6FFFE0EDBCFE6FF96DFD2
:10512000E552E552146EFC0EDB50145CC3E1E5520F
:10513000E552E7CFD9FF120098D8040EB1D8DFCFDF
:1051400014F0DF2A010EDBCF15F001E3DB2A14C0D7
:10515000E6FF15C0E6FF7ADFE552E552E66ED9506C
:10516000020FE96EDACFEAFFE552E750EE6EED6A24
:10517000DECFE6FFDDCFE6FF69DFE552E552176ED1
:10518000166A020EDB501610146E030EDB50171059
:10519000156E020E14C0DBFF030E15C0DBFF020EFE
:1051A000DBCF14F0030EDBCF15F014C0F3FF15C0F6
:1051B000F4FF040EE15C02E2E16AE552E16E5AD0CE
:1051C00054D8020E6DD85AD8DFCF16F0DF2A010E60
:1051D000DBCF17F001E3DB2A16C0E6FF17C0E6FFBE
:1051E0005FDF2DD8DECFE6FFDDCFE6FF59DFE552EA
:1051F000E552E552020EE15C02E2E16AE552E16E3F
:1052000039D033D8020EE126FE0EF66EF7683F0E57
:10521000F86E0900F5CFDEFF0A00F5CFDDFFF86A72
:10522000DECF14F0DDCF15F014C0F3FF15C0F4FF8E
:10523000020EE15C02E2E16AE552E16E1BD0E5524A
:10524000E552E552FB0EDBCF14F0FC0EDBCF15F080
:1052500015C014F0156A1450E66E1200FD0EDBCF77
:1052600014F0FE0EDBCF15F01200D9CFE6FFE1CF30
:10527000D9FF1200E552E7CFD9FF1200FF0EE76E0B
:10528000FB0EDBCF14F0E7501416156A1450E66ECF
:105290001200FD0EDBCFE6FFFE0EDBCFE6FF1200B5
:1052A000E126FD0EDBCFDEFFDBCFDDFF1200DECF20
:1052B000E9FFDDCFEAFF12002ADEE552E552E552B2
:0252C0001200DA
:0E52C20055DA010E31DA06E3490E2EDA03E268
:1052D000DBD9FF0802E1000E13D0D6D9E66E60ECF0
:1052E0000FF0E552F3CF31F9F4CF32F9CDD9E66EB4
:1052F0007FEC0FF0E552F3CF33F9F4CF34F9010E20
:10530000EED1E2D9FE0EDB50070BDF6EFE0EDB4066
:10531000E840E8401F0BE76E010EE7CFDBFF21DA24
:10532000E76E020EE7CFDBFFFD0EDB5010E0010E53
:10533000DF5206E0DFCFF3FFE846FE0BF306FCE1A9
:10534000146E020EDBCFE7FF1450E71210D0010EEF
:10535000DF5206E0DFCFF3FFE846FE0BF306FCE189
:10536000E81C146E020EDBCFE7FF1450E716020EA6
:10537000E7CFDBFFDBCFE6FF010E7BD950EC28F057
:10538000E552E552E552FE0EDBCFE6FF9ADFE5522D
:1053900000090CE1FE0EDBCFE6FF62EC18F0E552EF
:1053A000000919E009013351341113E0FD0EDBCF80
:1053B000E6FF33C9E6FF34C9E6FF31C9E6FF32C96B
:1053C000E6FFE66AA4EC32F0146E060EE15E1450BD
:1053D00003D0010E01D0010E146E030EE15C02E257
:1053E000E16AE552E16E14507AD16ED9DF6ADF507E
:1053F000146E156AD890155004E6FF0E145C000E6A
:10540000155821E299D91DE06ED950D9010EE7CF88
:10541000DBFF69D9060EF626000EF72247D9020EE9
:10542000E7CFDBFFFE0EDB5053D90BE366D950D933
:1054300008E2E66AE66A69D9DFCFE6FFEFEC0FF033
:10544000E552DF2AD4D7E9EC26F032EC10F0030E57
:10545000E15C02E2E16AE552E16E41D188D9070ED2
:10546000E126FB0EDBCFE6FFFC0EDBCFE6FFFD0EF9
:10547000DBCFE6FFFE0EDBCFE6FFE3EC0DF0E552FF
:10548000E552E552E552E76E030EE7CFDBFFDB5056
:10549000FF0801E19AD0E66A030EDBCFE6FFC5EC18
:1054A0000EF0E552E552DE52F3CFDEFFF4CFDDFF22
:1054B000DD52010EDBCF14F0020EDBCF15F0000140
:1054C000800E15140FE008680968010EDBCF0DF09F
:1054D000020EDBCF0EF00EEC39F00650E66E6CECEF
:1054E0000AF072D0010EDB50DF6E010EDF5C6DE35F
:1054F000DF04146E480E145C68E2070EDF14E76EDA
:10550000040EE7CFDBFFDF50E840E840E8401F0B28
:10551000E76E050EE7CFDBFF010EF36E040EDB50E6
:1055200004E0D890F336E806FCE1F350166EF3CFB2
:10553000E6FF050E16D9E552E7CF16F01614E76E12
:10554000060EE7CFDBFFA9D80AE1A3C414F0156A61
:10555000A3C4ABF40401A2510401AC6F0ED0F3D884
:1055600015C014F0156A14C0ABF4FF0EE76EEBD84B
:10557000E7501416156A14C0ACF4ECD815C014F03A
:10558000156A14C0ADF4FF0EE76EE4D8E7501416A8
:10559000156A14C0AEF4060EDB5006E07ED802E1B8
:1055A0009D0E07D0930E05D078D802E19E0E01D053
:1055B000940E0401AA6FA40EE66E040EE66EE66871
:1055C0003AEC33F0E552E552E552070EE15C02E2B7
:1055D000E16AE552E16E83D077D8DF6ADF50146E5E
:1055E000156AD890155004E6FF0E145C000E15588D
:1055F00035E2A2D831E0010EDB6ADFCFE6FF23EC13
:105600000FF0E55200092EE1010EF36E020EF3CF0A
:10561000DBFF140E5DD818E280D8EFCF14F0FE0E39
:10562000DB50145C0EE379D8EFCF15F066D8155C2B
:1056300008E2E66A020EDBCFE6FF67D8DE52010E13
:10564000DD6E020EDB2AE5D7010EDB5005E0DFCF71
:10565000E6FFEFEC0FF0E552DF2AC0D7E9EC26F0C9
:1056600032EC10F0030EE15C02E2E16AE552E16E19
:1056700036D0DB50156AD80F146E030E152214C0F5
:10568000E6FF15C0E6FF1200FE0EDB04EA6A380FE3
:10569000E96E090EEA22EF501200D950FD0FE96EB3
:1056A000FF0EDA20EA6EEE50ED101200F6CF14F085
:1056B000F7CF15F014C0E6FF15C0E6FFF2EC26F0B8
:1056C000E552E552E76E120052D8030EE1261200B1
:1056D000F36E020EDBCFF4FFF350F45C1200E552E0
:1056E000E7CFD9FF1200DF50100D0401D251F3248F
:1056F000F66ED351F420F76E1200FD0EDBCFE6FFFD
:10570000FE0EDB50E552E7241200DFCFE6FF27EC68
:105710000EF0E552E552E5521200020EDB50EA6A45
:10572000160FE96E0E0EEA221200F36EFE0EDBCFAC
:10573000F4FFF350F45C1200DFCFE6FFA0EC0CF0B6
:10574000E55200091200FD0EDBCF14F0FE0EDBCF98
:1057500015F01200FB0EDBCF14F0FC0EDBCF15F0C2
:10576000120087DF26EC28F0E552E5521200D9CF6F
:08577000E6FFE1CFD9FF1200B2
:08577800CF0EC1140009C16E3F
:10578000C1963F0EC1144009C16EF80EC114000944
:10579000C16EC08EC70EC0141009C06EF80EC014C2
:1057A0000609C06E0E012A6BC2803C6B3D6B120075
:1057B000D9CFE6FFE1CFD9FFD4D9FC0EEF14000911
:1057C000EF6ECFD9EF94E552E7CFD9FF1200D9CFD2
:1057D000E6FFE1CFD9FF0A0EE126C2B259D17DD949
:1057E000EF5005080AE0D5D9E9CF16F0EACF17F057
:1057F000D9D9EF50060801E023D13D5101E120D174
:10580000C450DE6EDD6A6DD914C015F0146A14C080
:10581000DEFF15C0DDFFC350DF123C5104E03B51F9
:105820002A5D01E1D2D03ED9EF50060801E087D0D1
:10583000C2D9030EE926000EEA2267D9020EDBCF99
:1058400014F0030E14C015F0146A020E14C0DBFF2E
:10585000030E15C0DBFFAFD9040EE926000EEA22C5
:105860006DD9EE121550ED12020EDBCF08F0030ECB
:10587000DBCF09F0040E08C0DBFF050E09C0DBFF1B
:105880009AD9EE525BD9EE5E1550ED5A94D9EE528C
:10589000EF50146E156AD950040FE96EDACFEAFFA3
:1058A0001450EE261550ED2286D99CD9EF50E76EA4
:1058B000020EDBCF14F0030EDBCF15F0E7501426F9
:1058C000000E152251D9FDD8040EDBCF08F0050ECD
:1058D0003FD9080E14C0DBFF090E15C0DBFF73D9DA
:1058E000030B020813E0FDD8040EDBCF16F0050E03
:1058F00042D90CE368D9040B06E0D7D802E0000EC9
:1059000001D0010E0ED95AD9020917D05CD9030B68
:1059100002082BE1E6D8080EDBCF16F0090E32D9CB
:1059200024E351D9040B07E0BDD8EE52EF50080B29
:1059300002E1BBD8F6D842D90009EF6E16D0D1D813
:10594000040ED89015321432E804FBE114C0DEFFD7
:1059500015C0DDFFC2D846D9EE52D7D8B2D8020E54
:10596000DBCF08F0030EF4D8FFD82DD9030B0108C4
:1059700013E0B7D8020EDBCF16F0030E03D90CE309
:1059800022D9040B06E091D802E0000E01D0010EEE
:10599000CFD814D9010917D016D9030B01084EE14D
:1059A000A0D8060EDBCF16F0070EE5D847E30BD9DB
:1059B000040B07E077D8EE52EF50080B02E175D8E0
:1059C000B7D8FCD80009EF6E39D00401AD6B0E01D9
:1059D0002A290401AE6F0E012A290401AF6F81D874
:1059E0001450B16F7ED815C014F0156A14C0B0F40D
:1059F000A40EE66E040EE66EE668E668FD0EE66E40
:105A0000E66882EC32F0146E060EE15E1450020E6F
:105A10000E013C5D11E1B0C4E6FF070E2A03F3500E
:105A2000100F050F63D8B1C4E6FF070E0E012A035D
:105A3000F350100F060F5AD80E013C6B40D8EF847C
:105A40002A2B100E2A5D01E32A6B2CD8EF50050893
:105A500004E028D8EF5006081BE12A51040DF3CFCB
:105A6000F6FFF4CFF7FF680EF626790EF722030E45
:105A7000F626000EF7220800F5501F0BF36EF346D2
:105A8000F346830EC214F310C26EC282010E3D6F44
:105A90000A0EE15C02E2E16AE552E16EE552E7CF0F
:105AA000D9FF120076D8D2EF2DF073D8E9CF14F0D9
:105AB000EACF15F077D8EE52EF50400B12002A5182
:105AC00085D067D8E9CF18F0EACF19F06BD88AD81B
:105AD00089D8EF50166E176A12005BD80E01D2EF0C
:105AE0002DF0DECF14F0DDCF15F01200156A800F17
:105AF000146EFF0E152214C0E6FF15C0E6FFE2EC9F
:105B000027F0E552E552E5521200EF50E66ED9500B
:105B1000020FE96EDACFEAFFE552E750EE6EED6A6A
:105B20001200E66E040E2A03F350080F010F54D042
:105B3000E66E040E2A03F350080F4ED0EF50146E99
:105B4000156AD950020FE96EDACFEAFF145012003D
:105B5000DBCF09F01650085C146E17500958156E0B
:105B60001200FE0EDB5032D0060E14C0DBFF070E13
:105B700015C0DBFF1200DBCF17F01650145C175076
:105B800015581200DBCF17F01450165C155017583B
:105B90001200D0C4E9FFD1C4EAFF100EE926000EBE
:105BA000EA2212002A51070DE950F324E96EEA5067
:105BB000F420EA6E120076DFF2EF2DF00E017FDFA7
:105BC000FC0EEF1412007BDFEF501200EA6A2B0F7D
:105BD000E96E0E0EEA221200E66E81EC29F0E55223
:0E5BE000E5521200020EE926000EEA22120023
:025BEE00C7D915
:105BF000E652DF6A100EDF5C10E2DF50EA6AE00F67
:105C0000E96E000EEA22EF6ADF50EA6AF00FE96EF1
:105C1000000EEA22EF6ADF2AEDD7E552B5D1AFD9FF
:105C2000020EE126FD0EDB50030814E1DBD9EAD9B0
:105C3000FE0E79D9EF6AF5D902E0000E01D0010E0F
:105C4000E66EFE0E77D9FD0EDBCFE6FF7ED9E4D9F6
:105C5000E66E55D0FE0E60D9EF6AFD0EDB0402E061
:105C6000000E01D0010EE76E010EE7CFDBFFBAD9BF
:105C7000EE52EF50010B0AE0010EDB5002E0000E85
:105C800001D0010EE76E010EE7CFDBFF010EDB5006
:105C900002E1CAD940E1010EDB500FE0C5D90DE0A9
:105CA000FE0E41D9EF5009E1BFD9E66EFE0E3BD999
:105CB000E552E750EF6E020E06D0010EDB5002E017
:105CC000010E01D0020EE66E40D9DB50DF6EA9D97D
:105CD00006E0DF5002E0000E01D0010EDF6EDFCFE4
:105CE000E6FFFE0E27D97ED9EE52EF50080B03E0F7
:105CF000010EDB5010E0010E8FD9DBCFE6FFFE0E68
:105D0000DB50040DF350080FE66EDAEC1BF0166E54
:105D1000050EE15E1650020EE15C02E2E16AE55218
:105D2000E16E32D12CD9020EE126010EDB6A100E93
:105D3000F36E010EDBCFF4FFF350F45C65E2CFD8D5
:105D4000010ED6D8EF045DE164D9EF040BE16FD901
:105D50003DD95FD9EF50FF0DF350E66E5AD9E552A9
:105D6000E750EF6E56D9EF50FF0806E160D902E028
:105D7000000E01D0010E2AD94CD9EFCF14F0010E3C
:105D8000E76E1418E8AE02D0143403D0E750D88080
:105D9000145403E23ED9EF060FD03BD9EFCF14F0F5
:105DA000FF0EE76E1418E8AE02D0E73402D0E750D9
:105DB000145C02E22ED9EF2A010EB5D8EF041AE1E5
:105DC00036D903E0010EE66E02D0E66A010EB2D8C3
:105DD000F8D8EE52EF50080B0BE1F3D8D9D8DB50CE
:105DE000040DF350080FE66E81EC29F0E552E55200
:105DF00089EC3AF0010E97D8EF5003E0010E93D8EA
:105E0000EF06010EDB2A93D7020EE15C02E2E16AA3
:105E1000E552E16EB9D0B3D8E652FD0EDB50030A6D
:105E200019E0020A07E0030A05E0020EF36EFD0E18
:105E3000F3CFDBFFFD0EDB0402E0000E01D0010E0C
:105E4000DF6EEFD804E0DF5007E0000E06D0DFCFB2
:105E5000E6FF04D0B1D8D6D8010EE66EFE0E6AD8A1
:105E6000E55292D08CD8C2D8F62A000EF72208004C
:105E7000F550430A24E0010A12E0030A2FE1FD0E67
:105E8000DB5006E03ED802E093D8FEE1891226D02E
:105E900038D802E08DD8FEE1E81C89161FD0FD0E2F
:105EA000DB5006E02ED802E083D8FEE18A1216D03D
:105EB00028D802E07DD8FEE1E81C8A160FD0FD0E3E
:105EC000DB5006E01ED802E073D8FEE18B1206D04C
:105ED00018D802E06DD8FEE1E81C8B1655D0D0C46E
:105EE000E9FFD1C4EAFF100EE926000EEA221200F3
:105EF000DB50070DE950F324E96EEA50F420EA6E16
:105F0000120074D8020EF626000EF7220800F55093
:105F1000146E010E14521200DB50EA6AF00FE96EA3
:105F2000000EEA221200DB50EA6AE00FE96E000E72
:105F3000EA221200DBCFE6FF95DFE552E5521200C0
:105F4000E9CF14F0EACF15F01200FE0EDB50156A0F
:105F5000C60F146E030E152214C0E6FF15C0E6FF2F
:105F600050EC28F0E552E552E552010E1200020E07
:105F7000E926000EEA22EE52EF50E66E1200D9CF6B
:105F8000E6FFE1CFD9FF1200E552E7CFD9FF1200BB
:105F9000EE52EF50400BE66E010E1200020EE926A3
:105FA000000EEA22EF501200EE52EF50200B1200CA
:105FB000E846FE0B1406120092DFC2DFFE0E78EFF9
:105FC0002FF08DDFBDDF010E78EF2FF0E66E010EB2
:105FD000B1DF85DF010E8CDFCADF1BD8E552E75049
:105FE000EF6E12007CDFFE0E78EF2FF0FE0EDB501E
:105FF000040DF3CFF6FFF4CFF7FF680EF626790E07
:10600000F7221200B4DFFE0E87DFE552E750EF6E95
:106010001200010E8CEF2FF0E66EE66ECDDFC8EFBA
:106020002FF0CADFD4EF2FF0DDDFCEEF2FF0C9DF86
:04603000D4EF2FF08A
:0C603400B4D989D9EF6A60D9EE6AED6A30
:10604000E552E7CFD9FF1200AAD9030EE126EBD91A
:10605000030FD88014541EE363D9EFCF15F07DD918
:10606000FD0F155C17E34AD99FD9173404E2165087
:106070000308000E17540EE341D9EECF18F0EFCF0E
:1060800019F0D880195004E7FD0E185CFF0E19585E
