:04000000ECEF00F031
:0400080004EF04F00D
:040018000CEF04F0F5
:1001A8000800F55012007FB2FED77F9E7F9C7F80AB
:1001B8007FB0FED70000735012007F8E7F9C7F8433
:1001C8007F88550E7E6EAA0E7E6E7F827F94120007
:1001D80000EE60F0400EEE6AE806FDE100EE01F088
:1001E800190EEE6AE806FDE100015DEF02F0000E6F
:1001F8000F6E000E0E6E3F0E0E6401D012000E50F0
:10020800600FD96EDA6AFF0EDF6E0E2AF4D71A6E07
:100218001AC0F5FF0C00C40E7F6E550E7E6EAA0E36
:100228007E6E7F8200007FB2FED77F9412001A6E26
:100238000F0120B7FDD7800E216F080E226F000E28
:10024800236F040E246F1A50D8B402D0248101D031
:100258002491208712001A6E1AC073FF7F9E7F9C1C
:100268007F84550E7E6EAA0E7E6E7F827FB2FED789
:10027800B7ACFED7B79C7F94D7EC00F01A18D8B467
:100288001200EAD7000E786E800E6F6E6EAEFED743
:10029800000E726E9E0E0E01446F030E456F200E07
:1002A800706E000EE06F080EE16FF30EE56F000E42
:1002B800E26F070EE36FF869EB0EF96FFA69F80E53
:1002C800FB6F010E466F9E0E446F030E456F000EC6
:1002D8007E6F000E6F6E1200000E1F6E1DAE06D0F0
:1002E8001C6C1D1ED8B01D2A010E1F6E1BAE06D039
:1002F8001A6C1B1ED8B01B2A010E1F1A000E216E85
:10030800000E206E1C501D10D8B41CD0010E1E6E9D
:1003180004D0D8901C361D361E2A1DAEFAD7D890A8
:10032800203621361C501A5C1D501B58D8A005D009
:100338001C501A5E1D501B5A2080D8901D321C324A
:100348001E2EEDD71F50D8B404D0206C211ED8B073
:10035800212A20C01AF021C01BF012000F50D8B477
:10036800120011C0F6FF10C0F7FFE1EC00F0000E1C
:100378000E6E3F0E0E6401D009D00E50600FD96E7C
:10038800DA6ADF50F56E0D000E2AF3D7010EF65E1D
:10039800000EF75A000EF85A840E7F6E550E7E6EC8
:1003A800AA0E7E6E7F8200007FB2FED77F94000E79
:1003B8000F6E000E0E6E3F0E0E6401D0120011502B
:1003C8000E24F66E10C0F7FF800E7F6E0E50600F81
:1003D800D96EDA6AD4EC00F01B6EDE501B18D8B464
:1003E80002D0010E0B6E0E2AE6D7226E11C01CF049
:1003F800C00E1C161C5010C01DF01E6A1DC01EF039
:100408001D6A1D12000E1E12F6CF1FF0C00E1F1619
:100418001F50F7CF20F0216A20C021F0206A201257
:10042800000E21121D50201804E11E502118D8B4C6
:1004380023D0F6CF0DF0F7CF0CF0B2EC01F00D5051
:10044800C00B116E0CC010F0000E0E6E3F0E0E6445
:1004580001D00ED011500E24F66E800E7F6E0E5015
:10046800600FD96EDA6AD4EC00F0DF6E0E2AEED790
:100478000DC0F6FF0CC0F7FFF6CF1CF03F0E1C16A0
:100488001C50600FD96EDA6ADF501D6E2250FF0AC9
:100498001D140009D8B402D0010E0F6EF6CF1CF05F
:1004A8003F0E1C161C50600FD96EDA6A22C0DFFF9F
:1004B8001200100E276E030E0E01436F000E0F017F
:1004C8005D6F000E5C6F74687568D7EC00F000090A
:1004D800D8B480A402D000EF04F0400E276E9B8CA5
:1004E80027C01AF01B6A000E1D6E040E1C6E70ECFD
:1004F80001F01A040E01436F000E176E1C0E166EE3
:10050800939C939E8A8C8A8E46EC01F0FBEC00F05B
:10051800000E046E000E036E000E0B6E0400609E4B
:1005280060AEFED765500F0B0A6E64A007D1145059
:100538001F0BF86E13C0F7FF12C0F6FFF7CF75FF59
:10054800F6CF74FF16A60AD00A50236E246A256ACD
:1005580023501226245013222550142214C023F0AD
:10056800F00E2316D8A452D064A220D0000E096E33
:10057800800E7F6E260E0924D96EDA6A0F0EDA22F3
:10058800D4EC00F0DF6EF62AF650D8A404D0F72A8F
:10059800F750D8B4F82A092A080E0964E9D7080ED2
:1005A8000F01256F010E1BEC01F030D0070EF76428
:1005B8002BD016A203D0E1EC00F028D0000E096E73
:1005C8001ED0660E0924D96EDA6A0F0EDA22DF50C1
:1005D800F9EC01F0660E0924D96EDA6A0F0EDA22F8
:1005E800DF50236E23500326000E0422F62AF6500D
:1005F800D8A404D0F72AF750D8B4F82A092A0A5000
:10060800095CD8B003D0DDD7020E0B6E1450F00B86
:10061800300AD8A440D064A21CD0000E096EC00EC7
:100628007F6E260E0924D96EDA6A0F0EDA22D4EC10
:1006380000F0DF6EF62AF650D8B4F72A092A080E19
:100648000964EDD7080E0F01256F010E1BEC01F0B0
:1006580022D0000E096E1BD00400660E0924D96E44
:10066800DA6A0F0EDA22DF500BEC01F0660E09246D
:10067800D96EDA6A0F0EDA22DF50236E2350032672
:10068800000E0422F62AF650D8B4F72A092A0A508E
:10069800095CD8A0E1D71450F00BF00AD8A43DD0DB
:1006A80064A21AD0000E096E260E0924D96EDA6AE1
:1006B8000F0EDA22D7EC00F0DF6E742A7450D8B42B
:1006C800752A092A080E0964EFD7080E0F01256F4D
:1006D800010E1BEC01F021D0000E096E1AD0660E37
:1006E8000924D96EDA6A0F0EDA22DF502FEC01F0F6
:1006F800660E0924D96EDA6A0F0EDA22DF50236EED
:1007080023500326000E0422742A7450D8B4752A84
:10071800092A0A50095CD8A0E2D764A216A8FED616
:100728000B50D8A402D0010E01D0000E0F01266F85
:10073800010E256F000E1BEC01F0F0D6B2EC01F0B3
:10074800120E056E066A660E016E0F0E026E000E20
:10075800096E0FD001C0D9FF02C0DAFF05C0E1FF62
:1007680006C0E2FFDFCFE7FF054A062A014A022A50
:10077800092A0A50095CD8A0EDD71704D8A408D0D4
:1007880074687568000E2FEC01F08A9C8A9EFF0041
:10079800020E1718D8A406D0000E046E000E036EC1
:1007A800000E0B6E030E1718D8A419D0000E266E73
:1007B80003501824236E04501920246E235024104B
:1007C800D8A405D00B50D8A402D0010E266E26C09E
:1007D80026FF010E0F01256F000E1BEC01F0040E21
:1007E8001718D8A49BD6020E0F01266F010E256F8D
:0C07F800000E1BEC01F092D60EEF04F096
:04080800A3EF41F029
:1008180062EF41F039EF57F0A56120FF147F040B18
:100828000F010008000000000000010200000000A5
:0808380014004808000046030B
:100848004D494F2020202000000E0101D46FF0EF09
:100858000AF00101D451070DF350120F25EC5DF099
:1008680000018D51976F986B000E9A6F020E996F69
:100878004EEC52F097C0C9F198C0CAF10101D451A9
:10088800070DF350130F25EC5DF000018D51976FA4
:10089800986B000E9A6F020E996F4EEC52F00001A1
:1008A80097510101C925D36F000ED26F39D2D451A7
:1008B800070DF350120F25EC5DF00101D451A90F7B
:1008C800D96EDA6ADF50C96FCA6B00018D51010118
:1008D800C91918E100018E510101CA19D8A412D012
:1008E800D451070DF350110F25EC5DF000018D5127
:1008F800400B0101C16FD451040DF350080F7AEC7D
:100908004BF011D0D451070DF350110F25EC5DF0C9
:1009180000018D51400B0101C16FD451040DF350FA
:100928000A0F7AEC4BF0300E0101D425D96EDA6A41
:10093800010EDA22020EDF6E400ED425D96EDA6A75
:10094800010EDA22D451A90FE16EE26ADE50E65CAC
:10095800D8B0AAD0D451A90FD96EDA6AD351DE5CC7
:10096800D8B002D0010ED26F200ED425D96EDA6A23
:10097800010EDA22DF50D8B43AD0D451A90FD96E7B
:10098800DA6ADF50C96FCA6BD451A90FD96EDA6A17
:10099800DF50CB6FCC6B200ED425D96EDA6A010EEE
:1009A800DA22DF50CD6FCD51CB27000ECC23C951B1
:1009B800CB5DCC51800ACE6FCA51800ACE59D8B0CF
:1009C80007D0D451A90FD96EDA6AFF0EDF6E32D084
:1009D800200ED425D96EDA6A010EDA22DF50C96FEB
:1009E800D451A90FD96EDA6AC951DF2623D0840EF3
:1009F800D425D96EDA6A020EDA22DF06840ED425EF
:100A0800D96EDA6A020EDA22DF50D8A413D0D45194
:100A1800A90FD96EDA6ADF2A940ED425D96EDA6A5C
:100A2800020EDA22840ED425E16EE26A020EE22278
:100A3800DFCFE7FFD451A90FD96EDA6A400ED4256B
:100A4800E16EE26A010EE222DE50E65CD8B00CD01C
:100A5800400ED425D96EDA6A010EDA22D451A90FD4
:100A6800E16EE26ADFCFE7FFD451A90FD96EDA6AE7
:100A7800D351DE5CD8A0CBD0D251D8B4C8D0D45191
:100A8800070DF350110F25EC5DF000018DBD02D06C
:100A9800010E01D0000E0101C16FD451040DF350B5
:100AA800090F7AEC4BF0B3D0D451A90FD96EDA6A9A
:100AB800400ED425E16EE26A010EE222DE50E65CC9
:100AC800D8B0A5D0D451A90FD96EDA6ADE50D35D5B
:100AD800D8B002D0010ED26F200ED425D96EDA6AB2
:100AE800010EDA22DF50D8B439D0D451A90FD96E0B
:100AF800DA6ADF50C96FCA6B200ED425D96EDA6A5C
:100B0800010EDA22DF50CB6FCB51C95F000ECA5BF2
:100B1800D451A90FD96EDA6ADF50CC6FCD6BC951A9
:100B2800CC5DCD51800ACE6FCA51800ACE59D8B05B
:100B380006D0D451A90FD96EDA6ADF6A32D0200EF6
:100B4800D425D96EDA6A010EDA22DF50C96FD45182
:100B5800A90FD96EDA6AC951DF5E23D0840ED42575
:100B6800D96EDA6A020EDA22DF06840ED425D96E2F
:100B7800DA6A020EDA22DF50D8A413D0D451A90FB2
:100B8800D96EDA6ADF06940ED425D96EDA6A020EB7
:100B9800DA22840ED425E16EE26A020EE222DFCF69
:100BA800E7FF400ED425D96EDA6A010EDA22D45155
:100BB800A90FE16EE26ADE50E65CD8B00CD0400EB8
:100BC800D425D96EDA6A010EDA22D451A90FE16E62
:100BD800E26ADFCFE7FFD451A90FD96EDA6ADE5097
:100BE800D35DD8A014D0D251D8B411D0D451070DA8
:100BF800F350110F25EC5DF000018D51400B010100
:100C0800C16FD451040DF350090F7AEC4BF0010178
:100C1800D451A90FD96EDA6A400ED425E16EE26A82
:100C2800010EE222DE50E618D8A449EF0BF0300E90
:100C3800D425D96EDA6A010EDA22010EDF6EDAECFB
:100C480059F00101D451040D000EF324D96E020E9F
:100C5800F420DA6E00018DC0DEFF8EC0DEFF8FC08B
:100C6800DEFF90C0DEFF0101D451070DF350120FD3
:100C780025EC5DF00101D451A90FD96EDA6ADF5075
:100C8800C96FCA6B00018D510101C9191BE100012F
:100C98008E510101CA19D8A415D0D451070DF350AB
:100CA800110F25EC5DF000018DBD02D0010E01D0C1
:100CB800000E0101C16FD451040DF350080F7AECF6
:100CC8004BF014D0D451070DF350110F25EC5DF003
:100CD80000018DBD02D0010E01D0000E0101C16FCF
:100CE800D451040DF3500A0F7AEC4BF0DE0E0101DB
:100CF800D425C96FCA6B030ECA23C9C1A4F0CAC1DF
:100D0800A5F00001A66B0101D451A90FD96EDA6ACA
:100D1800DF500001A76F000E56EC5BF049EF0BF0B7
:100D2800300ED425D96EDA6A010EDA22DF50C96F87
:100D3800CA6BCA51000AD8A449EF0BF0C951000A7E
:100D4800D8B449EF0BF0010AD8B449EF0BF0030A05
:100D5800D8B4F2D5010AD8B4AAD549EF0BF0D451CA
:100D6800D8EC5FF0300E0101D425D96EDA6A010E95
:100D7800DA22020EDF6E740ED425D96EDA6A020EFC
:100D8800DA22DF6A740ED425D96EDA6A020EDA2204
:100D9800DF2A740ED425D96EDA6A020EDA22DE282A
:100DA800D8A457D0300ED425D96EDA6A010EDA22CB
:100DB800010EDF6EDAEC59F00101D451040D000E7A
:100DC800F324D96E020EF420DA6E00018DC0DEFF26
:100DD8008EC0DEFF8FC0DEFF90C0DEFF400E010137
:100DE800D425D96EDA6A010EDA22D451A90FE16E40
:100DF800E26ADFCFE7FFD451070DF350110F25EC5E
:100E08005DF000018DBD02D0010E01D0000E010180
:100E1800C16FD451040DF350080F7AEC4BF0DE0E7D
:100E28000101D425C96FCA6B030ECA23C9C1A4F036
:100E3800CAC1A5F00001A66B0101D451A90FD96E52
:100E4800DA6ADF500001A76F000E56EC5BF049EF3D
:100E58000BF0D451070DF350120F25EC5DF0000193
:100E68008D510101D16F400ED425D96EDA6A010E79
:100E7800DA22D151DE18D8A45ED0D451F6EC2CF089
:100E88000009D8B449EF0BF0300E0101D425D96E12
:100E9800DA6A010EDA22010EDF6EDAEC59F001018E
:100EA800D451040D000EF324D96E020EF420DA6E2C
:100EB80000018DC0DEFF8EC0DEFF8FC0DEFF90C058
:100EC800DEFF400E0101D425D96EDA6A010EDA225E
:100ED800D451A90FE16EE26ADFCFE7FFD451070DC5
:100EE800F350110F25EC5DF000018DBD02D0010E0D
:100EF80001D0000E0101C16FD451040DF350080F49
:100F08007AEC4BF0DE0E0101D425C96FCA6B030ED3
:100F1800CA23C9C1A4F0CAC1A5F00001A66B01018A
:100F2800D451A90FD96EDA6ADF500001A76F000EFD
:100F380056EC5BF0AAD3D45123EC14F00009D8B4D2
:100F4800A4D3300E0101D425D96EDA6A010EDA2253
:100F5800010EDF6EDAEC59F00101D451040D000ED8
:100F6800F324D96E020EF420DA6E00018DC0DEFF84
:100F78008EC0DEFF8FC0DEFF90C0DEFF400E010195
:100F8800D425D96EDA6A010EDA22D451A90FE16E9E
:100F9800E26ADFCFE7FFD451070DF350110F25ECBC
:100FA8005DF000018D51400B0101C16FD451040D5A
:100FB800F350080F7AEC4BF0DE0E0101D425C96F0F
:100FC800CA6B030ECA23C9C1A4F0CAC1A5F00001A7
:100FD800A66B0101D451A90FD96EDA6ADF5000015E
:100FE800A76F000E56EC5BF050D3300E0101D425EC
:100FF800D96EDA6A010EDA22DF50C96FCA6BCA519C
:10100800000AD8A442D3C951000AD8B43ED3010A71
:10101800D8B43BD3030AD8B4B5D6010AD8B49FD6FE
:1010280034D3D451070DF350130F25EC5DF00101B3
:10103800D451A90FD96EDA6ADF50C96FCA6B0001A3
:101048008D510101C91917E100018E510101CA1919
:10105800D8A411D0D451070DF350110F25EC5DF031
:1010680000018D51400B0101C16FD451040DF350A3
:10107800080F7AEC4BF00101D451070DF350140F0F
:1010880025EC5DF00101D451A90FD96EDA6ADF5061
:10109800C96FCA6B00018D510101C91917E100011F
:1010A8008E510101CA19D8A411D0D451070DF3509B
:1010B800110F25EC5DF000018D51400B0101C16F4E
:1010C800D451040DF350090F7AEC4BF00101D451BF
:1010D800070DF350150F25EC5DF00101D451A90F50
:1010E800D96EDA6ADF50C96FCA6B00018D510101F0
:1010F800C91917E100018E510101CA19D8A411D0EC
:10110800D451070DF350110F25EC5DF000018D51FE
:10111800400B0101C16FD451040DF3500A0F7AEC52
:101128004BF00101D451070DF350160F25EC5DF07B
:101138000101D451A90FD96EDA6ADF50C96FCA6BA1
:1011480000018D510101C91917E100018E510101FA
:10115800CA19D8A411D0D451070DF350110F25EC9A
:101168005DF000018D51400B0101C16FD451040D98
:10117800F3500B0F7AEC4BF0300E0101D425D96EE9
:10118800DA6A010EDA22020EDF6E400ED425D96E1D
:10119800DA6A010EDA22D451A90FE16EE26ADE5052
:1011A800E65CD8B081D0200ED425D96EDA6A010E5B
:1011B800DA22DF50D8B43AD0D451A90FD96EDA6AFE
:1011C800DF50C96FCA6BD451A90FD96EDA6ADF50E4
:1011D800CB6FCC6B200ED425D96EDA6A010EDA22D9
:1011E800DF50CD6FCD51CB27000ECC23C951CB5D3D
:1011F800CC51800ACE6FCA51800ACE59D8B007D0D8
:10120800D451A90FD96EDA6AFF0EDF6E32D0200EE4
:10121800D425D96EDA6A010EDA22DF50C96FD451AB
:10122800A90FD96EDA6AC951DF2623D0840ED425D6
:10123800D96EDA6A020EDA22DF06840ED425D96E58
:10124800DA6A020EDA22DF50D8A413D0D451A90FDB
:10125800D96EDA6ADF2A940ED425D96EDA6A020EBC
:10126800DA22840ED425E16EE26A020EE222DFCF92
:10127800E7FFD451A90FD96EDA6A400ED425E16E82
:10128800E26A010EE222DE50E65CD8B08ED0400E53
:10129800D425D96EDA6A010EDA22D451A90FE16E8B
:1012A800E26ADFCFE7FF81D0D451A90FD96EDA6A9D
:1012B800400ED425E16EE26A010EE222DE50E65CC1
:1012C800D8B073D0200ED425D96EDA6A010EDA228E
:1012D800DF50D8B439D0D451A90FD96EDA6ADF50AB
:1012E800C96FCA6B200ED425D96EDA6A010EDA22CC
:1012F800DF50CB6FCB51C95F000ECA5BD451A90F29
:10130800D96EDA6ADF50CC6FCD6BC951CC5DCD5147
:10131800800ACE6FCA51800ACE59D8B006D0D451AF
:10132800A90FD96EDA6ADF6A32D0200ED425D96EB9
:10133800DA6A010EDA22DF50C96FD451A90FD96ECB
:10134800DA6AC951DF5E23D0840ED425D96EDA6AF1
:10135800020EDA22DF06840ED425D96EDA6A020E6E
:10136800DA22DF50D8A413D0D451A90FD96EDA6A83
:10137800DF06940ED425D96EDA6A020EDA22840EBC
:10138800D425E16EE26A020EE222DFCFE7FF400ECB
:10139800D425D96EDA6A010EDA22D451A90FE16E8A
:1013A800E26ADE50E65CD8A072D7D451A90FD96E94
:1013B800DA6A400ED425E16EE26A010EE222DE50BE
:1013C800E618D8A462D1300ED425D96EDA6A010E97
:1013D800DA22010EDF6EDAEC59F00101D451040D66
:1013E800000EF324D96E020EF420DA6E00018DC0CF
:1013F800DEFF8EC0DEFF8FC0DEFF90C0DEFF010182
:10140800D451070DF350130F25EC5DF00101D451B1
:10141800A90FD96EDA6ADF50C96FCA6B00018D5106
:101428000101C9191AE100018E510101CA19D8A494
:1014380014D0D451070DF350110F25EC5DF00001C5
:101448008DBD02D0010E01D0000E0101C16FD45133
:10145800040DF350080F7AEC4BF00101D451070D3D
:10146800F350140F25EC5DF00101D451A90FD96E8A
:10147800DA6ADF50C96FCA6B00018D510101C919C1
:101488001AE100018E510101CA19D8A414D0D4510F
:10149800070DF350110F25EC5DF000018DBD02D052
:1014A800010E01D0000E0101C16FD451040DF3509B
:1014B800090F7AEC4BF00101D451070DF350150FC9
:1014C80025EC5DF00101D451A90FD96EDA6ADF501D
:1014D800C96FCA6B00018D510101C9191AE10001D8
:1014E8008E510101CA19D8A414D0D451070DF35054
:1014F800110F25EC5DF000018DBD02D0010E01D069
:10150800000E0101C16FD451040DF3500A0F7AEC9B
:101518004BF00101D451070DF350160F25EC5DF087
:101528000101D451A90FD96EDA6ADF50C96FCA6BAD
:1015380000018D510101C9191AE100018E51010103
:10154800CA19D8A414D0D451070DF350110F25ECA3
:101558005DF000018DBD02D0010E01D0000E010129
:10156800C16FD451040DF3500B0F7AEC4BF0DE0E23
:101578000101D425C96FCA6B030ECA23C9C1A4F0DF
:10158800CAC1A5F00001A66B0101D451A90FD96EFB
:10159800DA6ADF500001A76F000E56EC5BF075D0D9
:1015A800300E0101D425D96EDA6A010EDA22DF5035
:1015B800C96FCA6BCA51000AD8A467D0C951000ABA
:1015C800D8B463D0010AD8B460D0030AD8B4DDD542
:1015D800010AD8B426D559D0D451070DF350100FAD
:1015E80025EC5DF000018E51000AD8A44ED08D5133
:1015F800020AD8B42DEF04F0010AD8B4F6D4070AC9
:10160800D8B4CED742D0D451070DF350110F25ECE2
:101618005DF000018DA351D00101D451040D000EDD
:10162800F324D96E020EF420DA6EDECFC9F1DECFD4
:10163800CAF1DECFCBF1DECFCCF1DAEC59F0010103
:10164800C95100018D5D0101CD6FCA5100018E594C
:101658000101CE6FCB5100018F590101CF6FCC51E1
:10166800000190590101D06FD051CF1106E1250E2C
:10167800CD5DF40ECE59D8A020D0300ED425D96E29
:10168800DA6A010EDA22DF6A18D0300E0101D42599
:10169800D96EDA6A010EDA22DF50C96FCA6BCA51F5
:1016A800000AD8A40AD0C951000AD8B406D0010A41
:1016B800D8B4A9D7030AD8A4010A0101D42B0F0E64
:1016C800D4658AD712000001C851D8B4BCD027D13C
:1016D800F7C1D9FFF8C1DAFF030EDF600FD0C0C031
:1016E800C0F1BFC0C1F1710E0101C26F010EC36F1D
:1016F800010EC46FAF0E52EC5FF03CD0010120EE3A
:1017080002F0F751D926F851DA22DF500001C06FF4
:10171800010120EE03F0F751D926F851DA22DF5003
:101728000001BF6FFC0EA46F030EA56F000EA66F1D
:10173800C0C0A7F0000E56EC5BF0FD0E0001A46FD0
:10174800030EA56F000EA66FBFC0A7F0000E56ECE3
:101758005BF0010E0001C86F40EC3EF0C0C0A5F080
:10176800BFC0A6F0520E22EC5FF001019F4BA02BE8
:1017780091EC5EF0010E1200A50E0101C06F610E22
:10178800C16F200EC26FFF0EC36F140EC46F7F0EA1
:10179800C56F040EC66FEF0E3AEC5FF0EBD7480E3C
:1017A800F66E080EF76E000EF86E0800F5CFC0F161
:1017B800490EF66E080EF76E000EF86E0800F5CFAB
:1017C800C1F14A0EF66E080EF76E000EF86E0800AC
:1017D800F5CFC2F14B0EF66E080EF76E000EF86EDE
:1017E8000800F5CFC3F14C0EF66E080EF76E000E2A
:1017F800F86E0800F5CFC4F14D0EF66E080EF76EC0
:10180800000EF86E0800F5CFC5F14E0EF66E080E04
:10181800F76E000EF86E0800F5CFC6F1E20E3AEC4E
:101828005FF0A8D7000E0101C06F000EC16FA50EB2
:10183800C26F200EC36FAEEC59F00101C46FB60E33
:1018480052EC5FF097D7010120EE01F0F751D9264D
:10185800F851DA22DF500301C86FC96BC951000A79
:10186800D8A40DD0C8510D0AD8B4DCD71D0AD8B4F5
:1018780083D7010AD8B493D7530AD8B429D7000E0E
:101888001200C0C0C0F1BFC0C1F1A50E0101C26FF6
:10189800200EC36FAEEC59F00101C46FB60E52ECC6
:1018A8005FF068D7F7C1D9FFF8C1DAFF040EDF602F
:1018B8000FD0C0C0C0F1BFC0C1F1760E0101C26F28
:1018C800010EC36F010EC46FAF0E52EC5FF052D71A
:1018D800010120EE02F0F751D926F851DA22DF5043
:1018E800D8A433D020EE03F0F751D926F851DA22E4
:1018F800DF50D8A42AD020EE04F0F751D926F851A9
:10190800DA22DF50FC6F0C0EFC19D8A402D07685C1
:1019180031D70D0EFC19D8A418D076952BD7010114
:1019280020EE01F0F751D926F851DA22DF500301F1
:10193800C86FC96BC951000AD8A407D0C8510D0A8D
:10194800D8B49FD77B0AD8B4ADD7F7C1D9FFF8C1AF
:10195800DAFF030EDF6001D092D7010120EE02F01A
:10196800F751D926F851DA22DE500001C019D8A45F
:1019780086D7010120EE03F0F751D926F851DA2273
:101988000001BF51DE18D8A47AD7DAEF10F0F7C1FA
:10199800D9FFF8C1DAFF040EDF600FD0C0C0C0F174
:1019A800BFC0C1F1730E0101C26F010EC36F010EFA
:1019B800C46FAF0E52EC5FF0DDD6010120EE04F0EB
:1019C800F751D926F851DA22140EDF6419D0C0C0B5
:1019D800A5F0BFC0A6F0090E0001A76F6F0E0AECB4
:1019E8005FF0C0C0C0F1BFC0C1F1730E0101C26F8A
:1019F800010EC36F090EC46FAF0E52EC5FF0BAD67A
:101A080020EE04F0F751D926F851DA22DF50BEEC67
:101A180042F00101F96FC0C0A5F0BFC0A6F020EEEA
:101A280004F0F751D926F851DA22DF500001A76FE8
:101A3800F9C1A8F09B0E81EC5FF0010120EE04F0E3
:101A4800F751D926F851DA22DF50D8A493D6010EDF
:101A5800B8EC55F00001916FB40E926FBD0E936F04
:101A6800070EE7EC5CF086D6BFC070F1C0C071F11C
:101A78004BEC42F0010170517111D8B47BD671C1A1
:101A8800A5F070C1A6F0510E22EC5FF073D6F7C135
:101A9800D9FFF8C1DAFF050EDF600FD0C0C0C0F172
:101AA800BFC0C1F1870E0101C26F010EC36F010EE5
:101AB800C46FAF0E52EC5FF05DD6010120EE04F06A
:101AC800F751D926F851DA22DF50D8A40BD0000EEE
:101AD8000001916FB00E926F830E936F040EE7ECC6
:101AE8005CF048D620EE04F0F751D926F851DA22F6
:101AF800090EDF640ED0C0C0C0F1BFC0C1F1870EAF
:101B0800C26F010EC36FFC0EC46FAF0E52EC5FF0D4
:101B180031D620EE04F0F751D926F851DA22DF50F9
:101B28000301C86FC96BD890C837C937FE0EC825DE
:101B3800CA6FFF0EC921CB6F750ECA25F66EEE0E61
:101B4800CB21F76EF86A000EF8220900F5CFCCF326
:101B58000900F5CFCDF3100ECC27000ECD23CCC352
:101B6800F6FFCDC3F7FFF86A0900F5500900F51034
:101B7800D8A40ED0C0C0C0F1BFC0C1F1870E01010A
:101B8800C26F010EC36FFD0EC46FAF0E52EC5FF053
:101B9800010120EE05F0F751D926F851DA22DF507D
:101BA800D8A411D020EE04F0F751D926F851DA2242
:101BB800DF500001916FB00E926F830E936F040E89
:101BC800E7EC5CF0D7D520EE04F0F751D926F851B0
:101BD800DA22DF500301C86FC96BD890C837C937FC
:101BE800FE0EC825CA6FFF0EC921CB6F750ECA2518
:101BF800F66EEE0ECB21F76EF86A000EF822090099
:101C0800F5CFCCF30900F5CFCDF3100ECC27000E9D
:101C1800CD23CCC3F6FFCDC3F7FFF86A0900F5CF93
:101C2800CEF30900F5CFCFF301D811D00500FA6E35
:101C3800CE51FD6ECF51FE6EFF6AFA50010120EEC3
:101C480005F0F751D926F851DA22DF5012008DC07D
:101C5800FAF18EC0FBF10101FA51FB11D8A40ED0A4
:101C6800C0C0C0F1BFC0C1F1870EC26F010EC36F03
:101C7800FD0EC46FAF0E52EC5FF07CD5C0C0C0F152
:101C8800BFC0C1F120EE04F0F751D926F851DA228D
:101C9800DF50C26F20EE05F0F751D926F851DA224D
:101CA800DF50C36F20EE01F0FA51D926FB51DA223A
:101CB800DF50C46FFAC1D9FFFBC1DAFFDF50C56F2F
:101CC800C70EF2EC5EF056D5F7C1D9FFF8C1DAFFBE
:101CD800040EDF600FD0C0C0C0F1BFC0C1F1780EE4
:101CE8000101C26F010EC36F010EC46FAF0E52EC3B
:101CF8005FF040D5010120EE04F0F751D926F851E4
:101D0800DA22DF50D8A418D0C0C0C0F1BFC0C1F1DA
:101D1800000EC26F000EC36F090EC46FAC0E52ECFA
:101D28005FF0010E0001916F6A0E926FA20E936F21
:101D3800030EE7EC5CF01ED520EE04F0F751D9262F
:101D4800F851DA22090EDF640ED0C0C0C0F1BFC05E
:101D5800C1F1780EC26F010EC36FFC0EC46FAF0ED7
:101D680052EC5FF007D520EE04F0F751D926F85170
:101D7800DA22DF500301C86FC96BD890C837C9375A
:101D8800FE0EC825CA6FFF0EC921CB6F750ECA2576
:101D9800F66EEE0ECB21F76EF86A000EF8220900F7
:101DA800F5CFCCF30900F5CFCDF30E0ECC27000EFE
:101DB800CD23CCC3F6FFCDC3F7FFF86A0900F55071
:101DC8000900F510D8A442D0C0C0C0F1BFC0C1F10D
:101DD800010120EE04F0F751D926F851DA22DF503C
:101DE800C26F20EE04F0F751D926F851DA22DF50FD
:101DF8000301C86FC96BD890C837C937FE0EC8250C
:101E0800CA6FFF0EC921CB6F750ECA25F66EEE0E8E
:101E1800CB21F76EF86A000EF8220900F5CFCCF353
:101E28000900F5CFCDF3CCC3F6FFCDC3F7FFF86AB1
:101E38000800F5CFC3F1000E0101C46F000EC56F95
:101E4800000EC66FE70E3AEC5FF094D4C0C0C0F144
:101E5800BFC0C1F1010120EE04F0F751D926F851B5
:101E6800DA22DF50C26F20EE04F0F751D926F8517C
:101E7800DA22DF500301C86FC96BD890C837C93759
:101E8800FE0EC825CA6FFF0EC921CB6F750ECA2575
:101E9800F66EEE0ECB21F76EF86A000EF8220900F6
:101EA800F5CFCCF30900F5CFCDF3CCC3F6FFCDC306
:101EB800F7FFF86A0800F5CFC3F1010120EE04F03E
:101EC800F751D926F851DA22DF500301CE6FCF6BD4
:101ED800D890CE37CF37FE0ECE25D06FFF0ECF214C
:101EE800D16F750ED025F66EEE0ED121F76EF86A19
:101EF800000EF8220900F5CFD2F30900F5CFD3F38D
:101F08000E0ED227000ED323D2C3F6FFD3C3F7FF9A
:101F1800F86A0900F5CFD4F30900F5CFD5F301D855
:101F28000AD00500FA6ED451FD6ED551FE6EFF6AD7
:101F3800FA50010E12000101C46F20EE04F0F751AF
:101F4800D926F851DA22DF500301D66FD76BD89023
:101F5800D637D737FE0ED625D86FFF0ED721D96FC3
:101F6800750ED825F66EEE0ED921F76EF86A000EBA
:101F7800F8220900F5CFDAF30900F5CFDBF30E0EEE
:101F8800DA27000EDB23DAC3F6FFDBC3F7FFF86AB4
:101F98000900F5CFDCF30900F5CFDDF301D80AD04D
:101FA8000500FA6EDC51FD6EDD51FE6EFF6AFA50D7
:101FB800020E12000101C56F20EE04F0F751D92678
:101FC800F851DA22DF500301DE6FDF6BD890DE377D
:101FD800DF37FE0EDE25E06FFF0EDF21E16F750EA5
:101FE800E025F66EEE0EE121F76EF86A000EF82293
:101FF8000900F5CFE2F30900F5CFE3F30E0EE2276F
:10200800000EE323E2C3F6FFE3C3F7FFF86A090013
:10201800F5CFE4F30900F5CFE5F301D80AD00500C0
:10202800FA6EE451FD6EE551FE6EFF6AFA50030E3A
:1020380012000101C66FE70E3AEC5FF0BEEF0BF03D
:10204800F7C1D9FFF8C1DAFF040EDF6010D0C0C0B5
:10205800C0F1BFC0C1F1760E0101C26F010EC36F9E
:10206800010EC46FAF0E52EC5FF0BEEF0BF0010132
:1020780020EE04F0F751D926F851DA22DF50FC6F30
:10208800BFC070F1C0C071F15BD00101FC51D8A490
:1020980060D0000E0001C86F0101756971C1C0F1FF
:1020A80070C1C1F1760EC26F010EC36F000EC46F0E
:1020B800AF0E52EC5FF0C0C0A5F0BFC0A6F0500E46
:1020C80022EC5FF0BCEF0BF00101FC51D8A441D029
:1020D800C0C0C0F1BFC0C1F1760EC26F010EC36FA0
:1020E800000EC46FAF0E52EC5FF0C0C0A5F0BFC0C9
:1020F800A6F0500E22EC5FF0000E0001C06FC0C0C9
:10210800BFF0FC0EA46F030EA56F000EA66FC0C033
:10211800A7F0000E56EC5BF0FD0E0001A46F030E55
:10212800A56F000EA66FBFC0A7F0000E56EC5BF0BF
:10213800000E0001C86F010E0101756FBCEF0BF0B6
:102148000001C851000AD8B404D0FF0AD8B49DD7FA
:10215800BBD70C0E0101FC19D8A410D07685C0C0DD
:10216800C0F1BFC0C1F1760EC26F010EC36F000E81
:10217800C46FAF0E52EC5FF0BEEF0BF00D0EFC1902
:10218800D8A443EF0CF07695C0C0C0F1BFC0C1F130
:10219800760EC26F010EC36F000EC46FAF0E52EC05
:1021A8005FF0BEEF0BF0FF00BEEF0BF0010120EE79
:1021B80001F0F751D926F851DA22DF500301C86F30
:1021C800C96BC951000AD8A443EF0CF0C8514F0A93
:1021D800D8B44AD4110AD8B4E6D72D0AD8B4CBEF6C
:1021E8000CF0050AD8B42CD70E0AD8B46DD5FF0A5E
:1021F800D8B44DD443EF0CF0EBD2F7C1C9F1F8C114
:10220800CAF1030ECB6F000ECC6F66EC58F0E806EF
:10221800D8A402D0010E1200010120EE02F0F751FD
:10222800D926F851DA22DE500001C019D8A40FD0FF
:10223800010120EE03F0F751D926F851DA22000106
:10224800BF51DE18D8A403D001017681E3D701017C
:102258007691E0D7F7C1C9F1F8C1CAF1040ECB6F86
:10226800000ECC6F66EC58F0E806D8B4D3D701015D
:1022780020EE02F0F751D926F851DA22DE5000019B
:10228800C019D8A422D0010120EE03F0F751D926B5
:10229800F851DA220001BF51DE18D8A416D0010186
:1022A80020EE04F0F751D926F851DA22080EDE188C
:1022B800D8B4CAD720EE04F0F751D926F851DA225B
:1022C800090EDE18D8B4C3D702D001017691000EEA
:1022D8001200F7C1C9F1F8C1CAF1070ECB6F010EA0
:1022E800CC6F66EC58F0E806D8A40BD0C0C0A5F0B7
:1022F800BFC0A6F0010E0001A76F6F0E0AEC5FF0D9
:1023080089D7010176A186D720EE03F0F751D926A7
:10231800F851DA22DF50F96F20EE02F0F751D92692
:10232800F851DA22DF50FA6FF951EC6FFAC1EDF18A
:1023380020EE05F0F751D926F851DA22DF50FC6F6C
:1023480020EE04F0F751D926F851DA22DF50FD6F5C
:10235800FC51EE6FFDC1EFF120EE06F0F751D926E2
:10236800F851DA22DF50F06F20EE07F0F751D92646
:10237800F851DA22DF50F16F30EC48F04BD7F7C153
:10238800C9F1F8C1CAF1050ECB6F010ECC6F66EC2E
:1023980058F0E806D8B43ED7010176A13BD720EE25
:1023A80003F0F751D926F851DA22DF50F96F20EE01
:1023B80002F0F751D926F851DA22DF50FA6FF951B5
:1023C800CC6FFAC1CDF120EE05F0F751D926F851BE
:1023D800DA22DF50FC6F20EE04F0F751D926F851CD
:1023E800DA22DF50FD6FFC51CE6FFDC1CFF190ECCA
:1023F80054F010D7F7C1C9F1F8C1CAF1060ECB6F76
:10240800010ECC6F66EC58F0E806D8B403D701018A
:1024180076A100D720EE03F0F751D926F851DA2239
:10242800DF50F96F20EE02F0F751D926F851DA2281
:10243800DF50FA6FF951C66FFAC1C7F120EE05F007
:10244800F751D926F851DA22DF50FC6F20EE04F05C
:10245800F751D926F851DA22DF50FD6FFC51C86FC9
:10246800FDC1C9F120EE06F0F751D926F851DA225C
:10247800DF50CA6F0CEC3DF0CDD6F7C1C9F1F8C1F9
:10248800CAF1030ECB6F000ECC6F66EC58F0E8066D
:10249800D8B4C0D6010120EE02F0F751D926F85180
:1024A800DA22DE500001C019D8A4B4D6010120EE0A
:1024B80003F0F751D926F851DA220001BF51DE188E
:1024C800D8A4A8D6C4D6F7C1C9F1F8C1CAF1030E79
:1024D800CB6F010ECC6F66EC58F0E806D8B49AD6EC
:1024E800010120EE02F0F751D926F851DA22DE5028
:1024F8000001C019D8A48ED6010120EE03F0F751CF
:10250800D926F851DA220001BF51DE18D8A482D6A4
:10251800010176B119D0C0C0A5F0BFC0A6F0020E67
:102528000001A76F6F0E0AEC5FF0C0C0C0F1BFC01A
:10253800C1F1550E0101C26F040EC36F020EC46FC4
:10254800AF0E52EC5FF066D6C2EC5EF0C0D6F7C1B3
:10255800C9F1F8C1CAF1030ECB6F000ECC6F66EC5F
:1025680058F0E806D8B456D6010120EE02F0F7512B
:10257800D926F851DA22DE500001C019D8A44AD66B
:10258800010120EE03F0F751D926F851DA220001B3
:10259800BF51DE18D8A43ED63AEC61F03BD6F7C15D
:1025A800C9F1F8C1CAF1030ECB6F000ECC6F66EC0F
:1025B80058F0E806D8B42ED6010120EE02F0F75103
:1025C800D926F851DA22DE500001C019D8A422D643
:1025D800010120EE03F0F751D926F851DA22000163
:1025E800BF51DE18D8A416D6D1EC56F013D6F7C1D1
:1025F800C9F1F8C1CAF1030ECB6F000ECC6F66ECBF
:1026080058F0E806D8B406D6010120EE02F0F751DA
:10261800D926F851DA22DE500001C019D8A4FAD51B
:10262800010120EE03F0F751D926F851DA22000112
:10263800BF51DE18D8A4EED59CEC5DF0EBD5F7C100
:10264800C9F1F8C1CAF1040ECB6F000ECC6F66EC6D
:1026580058F0E806D8B4DED5010120EE02F0F751B3
:10266800D926F851DA22DE500001C019D8A4D2D5F3
:10267800010120EE03F0F751D926F851DA220001C2
:10268800BF51DE18D8A4C6D5010120EE04F0F751D9
:10269800D926F851DA22DF5063EC56F0BBD5F7C1E2
:1026A800C9F1F8C1CAF1050ECB6F000ECC6F66EC0C
:1026B80058F0E806D8B4AED5010120EE02F0F75183
:1026C800D926F851DA22DE500001C019D8A4A2D5C3
:1026D800010120EE03F0F751D926F851DA22000162
:1026E800BF51DE18D8A496D5010120EE05F0F751A8
:1026F800D926F851DA22DF50C56F20EE04F0F751E1
:10270800D926F851DA22DF5056EC49F083D5F7C1C3
:10271800C9F1F8C1CAF1080ECB6F010ECC6F66EC97
:1027280058F0E806D8B476D5010120EE02F0F7514A
:10273800D926F851DA22DE500001C019D8A46AD58A
:10274800010120EE03F0F751D926F851DA220001F1
:10275800BF51DE18D8A45ED5010120EE03F0F75171
:10276800D926F851DA22DF50F96F20EE02F0F7513E
:10277800D926F851DA22DF50FA6FF951EC6FFAC115
:10278800EDF120EE05F0F751D926F851DA22DF50A5
:10279800FC6F20EE04F0F751D926F851DA22DF5009
:1027A800FD6FFC51EE6FFDC1EFF120EE07F0F75120
:1027B800D926F851DA22DF50F06F20EE08F0F751F1
:1027C800D926F851DA22DF50F16F30EC48F022D5E3
:1027D800010120EE01F0F751D926F851DA22DF5035
:1027E800F96FFA6BFA51000AD8A471D5F951530A56
:1027F800D8B403D5070AD8B440D6010AD8B463D6EA
:10280800030AD8B4CCD6010AD8B4A1D60F0AD8B4D2
:10281800EED62A0AD8B413D7040AD8B41BD5E30ACB
:10282800D8B4ADD5090AD8B43AD72E0AD8B4E2D567
:10283800600AD8B44ED5270AD8B469D748D501015B
:10284800BB6F0101BB51A90FD96EDA6ADF500001D5
:102858009F6FA06B400E0101BB25D96EDA6A010E8D
:10286800DA22DF500001A16FA26B030EA127000E30
:10287800A2239F51A15DA251800AA36FA051800A93
:10288800A359D8A047D0400E0101BB25D96EDA6AFA
:10289800010EDA22DF5000019F6FFD0E9F25A06F09
:1028A800A16BFF0EA1230101BB51A90FD96EDA6AF2
:1028B800DF500001A26FA36BA051A25DA351800A53
:1028C800A46FA151800AA459D8A024D00101BB51FA
:1028D800020D000EF324D96E010EF420DA6E010EFB
:1028E800DBBE07D0010EDB5015E1040EDE5CD8B06C
:1028F80011D0BB51020D000EF324D96E010EF42045
:10290800DA6E010EDBAEF3D1FD0EDE5CFF0EDE5893
:10291800D8B0EDD10101BB51070DF350120F25ECD2
:102928005DF08DC09FF08EC0A0F00101BB51070D76
:10293800F350130F25EC5DF000018D519F5DD8B069
:1029480002D0010E01D0000E0101B86FB851D8A411
:10295800E8D0BB51020D000EF324D96E010EF4200D
:10296800DA6EDECF97F0DDCF98F0000E00019A6F97
:102978001E0E996F4EEC52F097C09FF098C0A0F0D1
:102988000101BB51070DF350130F25EC5DF0000159
:102998008D519F25A16F000EA021A26F0101BB518F
:1029A800A90FD96EDA6ADF500001A36FA46BA15199
:1029B800A35DA451800AA56FA251800AA559D8B079
:1029C80084D00101BB51070DF350140F25EC5DF0C5
:1029D8008DC091F08EC092F00101BB51020D000E26
:1029E800F324D96E010EF420DA6EDECF9FF0DDCF2E
:1029F800A0F000019F1FA01F9F4BA02B9FC093F02A
:102A0800A0C094F015EC60F091C097F092C098F0D7
:102A1800000E00019A6F640E996F4EEC52F001019E
:102A2800BB51020D000EF324D96E010EF420DA6EAC
:102A3800000197C0DEFF98C0DDFF0101BB51070D03
:102A4800F350130F25EC5DF000018D519F6FA06BC3
:102A58000101BB51070DF350130F25EC5DF0000188
:102A68008D519F27000EA0230101BB51A90FD96EDC
:102A7800DA6ADF500001A16FA1519F5F000EA05BD1
:102A88000101BB51020D000EF324D96E010EF42092
:102A9800DA6EDECF97F0DDCF98F0000E00019A6F66
:102AA8001E0E996F4EEC52F0000197519F5D010187
:102AB800B96F00019851A0590101BA6FBB51A90F14
:102AC800D96EDA6AB9C1DFFF10D10101BB51020D1D
:102AD800000EF324D96E010EF420DA6E030EDE2602
:102AE800000EDD22BB51020D000EF324D96E010E3B
:102AF800F420DA6EDECF97F0DDCF98F0000E0001FB
:102B08009A6F1E0E996F4EEC52F0010E0001972736
:102B18000101BB51A90FD96EDA6A00019751DF5E36
:102B2800E4D0BB51A90FD96EDA6ADF5000019F6F5C
:102B3800A06B0101BB51070DF350130F25EC5DF09D
:102B48008DC0A1F08EC0A2F00101BB51020D000E94
:102B5800F324D96E010EF420DA6EDECF97F0DDCFC4
:102B680098F0000E00019A6F1E0E996F4EEC52F00D
:102B780000019751A15DA36F9851D8A09829A46B23
:102B8800A45F9F51A35DA451800AA56FA051800A3C
:102B9800A559D8B07FD00101BB51070DF350140FD0
:102BA80025EC5DF08DC091F08EC092F00101BB5113
:102BB800020D000EF324D96E010EF420DA6EDECF7A
:102BC8009FF0DDCFA0F000019F1FA01F9F4BA02BFF
:102BD8009FC093F0A0C094F015EC60F091C097F0FE
:102BE80092C098F0000E00019A6F640E996F4EEC37
:102BF80052F00101BB51020D000EF324D96E010EF3
:102C0800F420DA6E000197C0DEFF98C0DDFF0101F5
:102C1800BB51070DF350130F25EC5DF000018D51EA
:102C28009F6FA06B0101BB51070DF350130F25ECEB
:102C38005DF000018D519F27000EA0230101BB51BB
:102C4800020D000EF324D96E010EF420DA6EDECFE9
:102C580097F0DDCF98F0000E00019A6F1E0E996F65
:102C68004EEC52F0000197519F25A16F9851A02179
:102C7800A26F0101BB51A90FD96EDA6ADF500001BA
:102C8800A36FA351A15D0101B96F0001A251D8A0A2
:102C9800A20512D70101BB51020D000EF324D96E13
:102CA800010EF420DA6E030EDE26000EDD22BB5183
:102CB800020D000EF324D96E010EF420DA6EDECF79
:102CC80097F0DDCF98F0000E00019A6F1E0E996FF5
:102CD8004EEC52F0010E000197270101BB51A90FDC
:102CE800D96EDA6A00019751DF26000E1200010E34
:102CF80012000101F06FF00E0101F02500018D6F47
:102D08008E6BFF0E8E23000E906F070E8F6F2AECCE
:102D180056F000018D518E11D8A41BD00101F0513D
:102D2800F00FF16FF1C197F00001986B000E9A6FE8
:102D3800070E996F4EEC52F0000197510101F16FA7
:102D4800EB51EC19D8B405D0EBC1E8F1F15196EC90
:102D580058F0050E0101F019D8A403D0EB51E7ECA7
:102D680061F0040E0101F019D8B4EBC15BFF0F0E3E
:102D7800F0651200F00EF0250001976F986BFF0EBA
:102D88009823000E9A6F070E996F4EEC52F00001CF
:102D980097510101F16FF00EF02500018D6F8E6BD8
:102DA800FF0E8E23000E906F070E8F6F2AEC56F0E1
:102DB800CFD10101F051ED6FEE6BF151070D120EFD
:102DC800F326000EF422ED51F31813E1EE51F41836
:102DD800D8A40FD0020E0001916F0101F151B5EC9A
:102DE80049F0020E0001916F0101F15193EC48F096
:102DF8001200F051ED6FEE6BF151070D130EF32633
:102E0800000EF422ED51F31813E1EE51F418D8A492
:102E18000FD0010E0001916F0101F151B5EC49F09D
:102E2800010E0001916F0101F15193EC48F012007D
:102E3800F051ED6FEE6BF151070D110EF326000EF8
:102E4800F422ED51F31803E1EE51F418D8A412005E
:102E5800EBAF1200ECBF1200F151070DF350120F47
:102E680025EC5DF08DC097F08EC098F0000E000143
:102E78009A6F020E996F4EEC52F097C0EDF198C020
:102E8800EEF10101F151070DF350130F25EC5DF040
:102E98008DC097F08EC098F0000E00019A6F020E58
:102EA800996F4EEC52F0000197510101ED25000198
:102EB8009F6F0101F15161EC60F012000101F051C6
:102EC800ED6FEE6BF151070D130EF326000EF42291
:102ED800ED51F31813E1EE51F418D8A40FD0020EF7
:102EE8000001916F0101F15113EC4AF0020E00014B
:102EF8008D6F0101F1519FEC57F01200F051ED6F09
:102F0800EE6BF151070D120EF326000EF422ED516F
:102F1800F31813E1EE51F418D8A40FD0010E0001F4
:102F2800916F0101F15113EC4AF0010E00018D6F10
:102F38000101F1519FEC57F01200F051ED6FEE6B6B
:102F4800F151070D110EF326000EF422ED51F3187E
:102F580003E1EE51F418D8A41200EBAF1200ECBF55
:102F68001200F151070DF350120F25EC5DF08DC0E2
:102F780097F08EC098F0000E00019A6F020E996FBC
:102F88004EEC52F097C0EDF198C0EEF10101F1510D
:102F9800070DF350130F25EC5DF08DC097F08EC030
:102FA80098F0000E00019A6F020E996F4EEC52F0E5
:102FB800000197510101ED25EF6FF151A90FD96E6D
:102FC800DA6AEFC1DFFF12000101F051ED6FEE6B1D
:102FD800F151070D130EF326000EF422ED51F318EC
:102FE80013E1EE51F418D8A40FD0000E0001916F30
:102FF8000101F151A2EC43F0000E0001916F0101B3
:10300800F1511DEC4DF01200F051ED6FEE6BF151E6
:10301800070D140EF326000EF422ED51F31813E1F8
:10302800EE51F418D8A40FD0010E0001916F0101E0
:10303800F151A2EC43F0010E0001916F0101F15131
:103048001DEC4DF01200F051ED6FEE6BF151070DD4
:10305800150EF326000EF422ED51F31813E1EE518C
:10306800F418D8A40FD0020E0001916F0101F1519C
:10307800A2EC43F0020E0001916F0101F1511DEC29
:103088004DF01200F051ED6FEE6BF151070D160E79
:10309800F326000EF422ED51F31813E1EE51F41863
:1030A800D8A40FD0030E0001916F0101F151A2ECD9
:1030B80043F0030E0001916F0101F1511DEC4DF039
:1030C8001200F051ED6FEE6BF151070D110EF32662
:1030D800000EF422ED51F31852E1EE51F418D8A481
:1030E8001200EBAF1200ECBF1200F151070DF350C4
:1030F800120F25EC5DF08DC097F08EC098F0000E91
:1031080000019A6F020E996F4EEC52F097C0EDF1E4
:1031180098C0EEF10101F151070DF350130F25ECA2
:103128005DF08DC097F08EC098F0000E00019A6F88
:10313800020E996F4EEC52F0000197510101ED25F6
:10314800EF6FF151A90FD96EDA6AEFC1DFFF1200F4
:103158000101F151070DF350100F25EC5DF000014E
:103168008E51000AD8A412008D51020AD8B421D673
:10317800010AD8B4A3D6070AD8A4120025D712008A
:103188000101D36FD3C1CFF1130E0101C9654FD12E
:10319800060E12000A0EC95FD351CB6FCC6BCB3B26
:1031A800CC3BF00ECC17CB510F0BCC13F00ECB173A
:1031B800800ECB25CD6FEF0ECC21CE6FCDC191F017
:1031C800CEC192F00001936B010EC6EC58F00001DD
:1031D80091510101D26FD2A91ED0D351100DF3CF56
:1031E800CBF1F4CFCCF1810ECB25CD6FEF0ECC21F6
:1031F800CE6FCDC191F0CEC192F00001936B010E5C
:10320800C6EC58F0000191510101D36FD329D8A41D
:103218000ED1070E1200CA51D8A402D0000E120017
:10322800D329D46FFBD0D451CB6FCC6BCB3BCC3BE9
:10323800F00ECC17CB510F0BCC13F00ECB17800E22
:10324800CB25CD6FEF0ECC21CE6FCDC191F0CEC185
:1032580092F00001936B010EC6EC58F000019151F9
:103268000101D06FD0AFD9D0D451100DF3CFCBF12D
:10327800F4CFCCF1820ECB25CD6FEF0ECC21CE6FE3
:10328800CDC1A4F0CEC1A5F00001A66BFF0EA76FBB
:10329800010E56EC5BF00101D451100DF3CFCBF1C8
:1032A800F4CFCCF1830ECB25CD6FEF0ECC21CE6FB2
:1032B800CDC1A4F0CEC1A5F00001A66BFF0EA76F8B
:1032C800010E56EC5BF00101D451100DF3CFCBF198
:1032D800F4CFCCF1840ECB25CD6FEF0ECC21CE6F81
:1032E800CDC1A4F0CEC1A5F00001A66BFF0EA76F5B
:1032F800010E56EC5BF00101D451100DF3CFCBF168
:10330800F4CFCCF1850ECB25CD6FEF0ECC21CE6F4F
:10331800CDC1A4F0CEC1A5F00001A66BFF0EA76F2A
:10332800010E56EC5BF00101D451CB6FCC6BCB3B5B
:10333800CC3BF00ECC17CB510F0BCC13F00ECB17A8
:10334800800ECB25CD6FEF0ECC21CE6FCDC1A4F072
:10335800CEC1A5F00001A66B200EA76F010E56EC9A
:103368005BF0000E0101D16FD451100DF3CFCBF1FA
:10337800F4CFCCF1D151CB27000ECC23860ECB2530
:10338800CD6FEF0ECC21CE6FCDC1A4F0CEC1A5F08C
:103398000001A66B000EA76F010E56EC5BF0010151
:1033A800D12B090ED165E0D7D351100DF3CFCBF156
:1033B800F4CFCCF1810ECB25CD6FEF0ECC21CE6FA3
:1033C800CDC1A4F0CEC1A5F00001A66BD4C1A7F071
:1033D800010E56EC5BF00101D289D351CB6FCC6B57
:1033E800CB3BCC3BF00ECC17CB510F0BCC13F00ED4
:1033F800CB17800ECB25CD6FEF0ECC21CE6FCDC174
:10340800A4F0CEC1A5F00001A66BD2C1A7F0010EB1
:1034180056EC5BF0D4C1D3F104D0D42BD429D8A472
:1034280002D70101D429D8A402D0040E12000A0E32
:10343800C961B0D6D351100DF3CFCBF1F4CFCCF195
:10344800C951CB27000ECC23860ECB25CD6FEF0EAE
:10345800CC21CE6FCDC1A4F0CEC1A5F00001A66BE2
:10346800CAC1A7F0010E56EC5BF00101D351CB6F36
:10347800CC6BCB3BCC3BF00ECC17CB510F0BCC130A
:10348800F00ECB17800ECB25CD6FEF0ECC21CE6F73
:10349800CDC191F0CEC192F00001936B010EC6EC44
:1034A80058F0000191510101D26FD2510F0BCB6F2F
:1034B800CB51C95DD8A026D0C9C1CBF1010ECB270D
:1034C800D251CB19F00BCB19D26FD351CB6FCC6B38
:1034D800CB3BCC3BF00ECC17CB510F0BCC13F00EE3
:1034E800CB17800ECB25CD6FEF0ECC21CE6FCDC183
:1034F800A4F0CEC1A5F00001A66BD2C1A7F0010EC1
:1035080056EC5BF00101CA51D8A488D6CF515CECC7
:103518005CF084D6F7C1D9FFF8C1DAFF050EDF6089
:1035280002D0000E1200010120EE03F0F751D92657
:10353800F851DA22DF50F96F20EE02F0F751D92660
:10354800F851DA22DF50FA6FF9510301CB6FFAC153
:10355800CCF314D0000E0301CC6F000ECB6F140E09
:103568000301C86F010EC96F49D0000E0301CC6F6B
:10357800000ECB6F000E0301C86F40D0010120EE92
:1035880001F0F751D926F851DA22DF50F96FFA6BBA
:10359800FA51000AD8A4C5D7F951900AD8B4DFD790
:1035A800010AD8B4E7D7090AD8B4D4D7010AD8B4DD
:1035B800DCD7290AD8B4D3D7010AD8B4DBD7090A8B
:1035C800D8B4C8D7010AD8B4D0D7690AD8B4C7D7ED
:1035D800010AD8B4CFD7090AD8B4BCD7010AD8B4DD
:1035E800C4D7290AD8B4BBD7010AD8B4C3D7090AA3
:1035F800D8B4B0D7010AD8B4B8D793D7CBC3B8F1E9
:10360800CCC3B9F1010120EE05F0F751D926F851E4
:10361800DA22DF50F96F20EE04F0F751D926F8517D
:10362800DA22DF50FA6FF951BA6FFAC1BBF1EDEC4B
:1036380050F00301CD6FCD29D8B473D7CD5161ECCB
:1036480040F0010120EE01F0F751D926F851DA22B5
:10365800DF500301CA6FCAB17FD0010ED46F400E8C
:10366800D425D96EDA6A020EDA22DF50D56FD55129
:10367800D8B46CD0D5517F0BD26F590ED26166D0B9
:10368800070ED219D8B406D1080ED26104D0D5518C
:10369800F6EC58F05BD0F80ED2250001976F986BC6
:1036A800FF0E9823000E9A6F050E996F4EEC52F09C
:1036B800000197510301D16FF80ED22500018D6FDB
:1036C8008E6BFF0E8E23000E906F050E8F6F2AEC07
:1036D80056F000018D510301D36F20D00301D15161
:1036E800070DF350110F25EC5DF000018DBFFAECCA
:1036F80061F00301D351D8B4D52B040ED319D8A443
:1037080002D0020ED55FD551F6EC58F0F7EC61F017
:103718001DD00301D551F6EC58F018D0D151070D42
:10372800F350100F25EC5DF000018E51000AD8A46B
:103738000DD08D51010AD8B4D1D7030AD8B4D9D73E
:10374800010AD8B4D6D7070AD8B4E3D70301D42BD3
:10375800130ED46584D79ED053C2CEF3130ED46F04
:10376800000ECF6FCEC3D5F3010ED4650AD03F0E3D
:10377800D425D96EDA6A020EDA22DF50CE6FCE5126
:1037880001D0CF51800BD06FD551D8B47ED0CF5156
:10379800D8B4D5C3CFF3D59F590ED56176D0070ECF
:1037A800D519D8B477D0080ED56109D0D505D8B4C5
:1037B80006D0D051D513D551F6EC58F066D0F80E96
:1037C800D5250001976F986BFF0E9823000E9A6F0E
:1037D800050E996F4EEC52F0000197510301D16F1D
:1037E800F80ED52500018D6F8E6BFF0E8E23000E0F
:1037F800906F050E8F6F2AEC56F000018D51030172
:10380800D36F2BD00301D151070DF350110F25ECC5
:103818005DF000018DBFFAEC61F0030E0301D319CE
:10382800D8B4D5070301D351D8A402D0020ED527A6
:10383800040ED319D8A402D0030ED55FD051D513E6
:10384800D551F6EC58F0F7EC61F01FD00301D051D8
:10385800D513D551F6EC58F0F6D7D151070DF350E2
:10386800100F25EC5DF000018E51000AD8A40DD090
:103878008D51010AD8B4C6D7030AD8B4D3D7010AE0
:10388800D8B4D0D7070AD8B4E1D70301D407D451A4
:10389800D8A466D70101B64BB72B010E1200DAEC9B
:1038A80059F00101545100018D5D0301E66F0101DA
:1038B800555100018E590301E76F0101565100016E
:1038C8008F590301E86F0101575100019059030115
:1038D800E96F010174510001916F926B936B946BC6
:1038E8003E0E956F000E966F000E976F000E986F44
:1038F80006EC5AF00301E6510001915D0301E7511E
:10390800000192590301E851000193590301E9515B
:1039180000019459D8B00CD014EC54F0DAEC59F0FA
:103928008DC054F18EC055F18FC056F190C057F13B
:10393800DAEC59F00101505100018D5D0301E66F89
:103948000101515100018E590301E76F01015251E4
:1039580000018F590301E86F01015351000190598B
:103968000301E96FE951E81106E1250EE65DF40E61
:10397800E759D8A00CD091EC52F0DAEC59F08DC090
:1039880050F18EC051F18FC052F190C053F1000E2A
:103998000301EB6FEB51020D750EF324F66EEE0E7C
:1039A800F420F76EF86A000EF8220900F5500900B5
:1039B800F510D8B44BD0EB51020D750EF324F66E0A
:1039C800EE0EF420F76EF86A000EF8220900F5CF23
:1039D800E6F30900F5CFE7F3080EE627000EE72324
:1039E800E6C3F6FFE7C3F7FFF86A0900F5500900D8
:1039F800F510D8B42BD0EB51020D750EF324F66EEA
:103A0800EE0EF420F76EF86A000EF8220900F5CFE2
:103A1800E6F30900F5CFE7F3080EE627000EE723E3
:103A2800E6C3F6FFE7C3F7FFF86A0900F5CFE8F346
:103A38000900F5CFE9F301D809D00500FA6EE8517D
:103A4800FD6EE951FE6EFF6AFA5012000301EB2B7E
:103A5800080EEB659FD775EC2FF0000E0301EA6F97
:103A6800010172517311D8B4CAD0020E7225030134
:103A7800E66F000E010173210301E76FE6C3F6FF4D
:103A8800E7C3F7FFF86A0900F5500900F510D8B444
:103A9800B6D0EC0E0101C26F030EC36F020E722581
:103AA8000301E66F000E010173210301E76FE6C30E
:103AB800F6FFE7C3F7FFF86A0900F5CFE8F3090056
:103AC800F5CFE9F301D809D00500FA6EE851FD6E8B
:103AD800E951FE6EFF6AFA5012000009D8B48FD07F
:103AE8000301EC51D8B48BD0070E30EC43F0EC0E48
:103AF80000018D6F030E8E6F03EC62F00301EA6F15
:103B0800EA51D8A47CD0000EEB6FEB51020D750E74
:103B1800F324F66EEE0EF420F76EF86A000EF82223
:103B28000900F5500900F510D8B458D0EB51020D32
:103B3800750EF324F66EEE0EF420F76EF86A000E9A
:103B4800F8220900F5CFE6F30900F5CFE7F3060EF2
:103B5800E627000EE723E6C3F6FFE7C3F7FFF86A98
:103B68000900F5500900F510D8B438D0EC0E010161
:103B7800F76F030EF86F0301EB51020D750EF32476
:103B8800F66EEE0EF420F76EF86A000EF8220900C1
:103B9800F5CFE6F30900F5CFE7F3060EE627000EAA
:103BA800E723E6C3F6FFE7C3F7FFF86A0900F5CF96
:103BB800E8F30900F5CFE9F301D809D00500FA6E5A
:103BC800E851FD6EE951FE6EFF6AFA501200E806F0
:103BD800D8A404D0010E0301EA6F05D00301EB2B32
:103BE800080EEB6592D7EA51D8A409D0EC0E000173
:103BF8008D6F030E8E6F05EC62F00301EA6F03010F
:103C0800EA51D8B41200080E30EC43F0120001015A
:103C1800BA6FF80E0101BA250001976F986BFF0E75
:103C28009823000E9A6F040E996F4EEC52F0000123
:103C38009751D16F0F0ED16502D0FF0E120001010E
:103C4800BA51F80F030BBB6F0001D151070DF350A8
:103C5800110F25EC5DF000018D510101B86FB851CD
:103C6800080BB96F6BD1E40E0001D125D96EDA6A61
:103C7800020EDA22DF50D8B402D0010E1200000E74
:103C88001200B951D8B4D9D7E40E0001D125D96EA4
:103C9800DA6A020EDA22DF50D8A402D0010E12002E
:103CA800000E12000101BB51000AD8B4DCD7010A8A
:103CB800D8B4E7D7C2D7DE0E0001D1259F6FA06B1D
:103CC800030EA0239FC091F0A0C092F0936B000E4A
:103CD800C6EC58F0020E000191199211D8B402D026
:103CE800010E1200000E12000101BB51000AD8B4E7
:103CF800E2D7A3D70001D151070DF350120F25ECDD
:103D08005DF00001D151A90FD96EDA6ADE508D1924
:103D1800D8A402D0010E1200000E12000001D151E9
:103D2800070DF350130F25EC5DF00001D151A90FD9
:103D3800D96EDA6ADE508D19D8A402D0010E1200AD
:103D4800000E12000001D151070DF350130F25EC9E
:103D58005DF000018D51976F986B000E9A6F020EFF
:103D6800996F4EEC52F097C09FF098C0A0F00001F8
:103D7800D151070DF350120F25EC5DF000018D5164
:103D8800976F986B000E9A6F020E996F4EEC52F077
:103D9800000197519F25A16F9851A021A26FD15181
:103DA800A90FD96EDA6ADF50A36FA46BA151A35D86
:103DB800A451800AA56FA251800AA559D8A002D0A3
:103DC800010E1200000E12000101BB51000AD8B406
:103DD80091D7010AD8B4B6D7030AD8B49FD72DD73C
:103DE800DE0E0001D1259F6FA06B030EA0239FC09C
:103DF80091F0A0C092F0936B000EC6EC58F0000151
:103E08009167010E12000101BB51000AD8B4E8D72E
:103E180014D70001D151070DF350130F25EC5DF0B5
:103E28000001D151A90FD96EDA6ADF509F6FA06BDC
:103E38008D519F1906E18E51A019D8A402D0010E08
:103E48001200000E12000001D151070DF350140F9B
:103E580025EC5DF00001D151A90FD96EDA6ADF5067
:103E68009F6FA06B8D519F1906E18E51A019D8A4A0
:103E780002D0010E1200000E12000001D151070DF0
:103E8800F350120F25EC5DF000018EBFD6D68E518F
:103E980004E1030E8D5DD8A0D0D6D151070DF350A3
:103EA800150F25EC5DF00001D151A90FD96EDA6A22
:103EB800DF509F6FA06B8D519F1906E18E51A0199D
:103EC800D8A402D0010E1200000E12000001D15138
:103ED800070DF350120F25EC5DF000018EBFADD633
:103EE8008E5104E1040E8D5DD8A0A7D6D151070DDF
:103EF800F350160F25EC5DF00001D151A90FD96ED2
:103F0800DA6ADF509F6FA06B8D519F1906E18E51C1
:103F1800A019D8A402D0010E1200000E120001014F
:103F2800BB51000AD8B475D7010AD8B48CD7030A94
:103F3800D8B4A3D7010AD8B4C9D77FD60001D151C4
:103F4800070DF350100F25EC5DF000018D51000AAC
:103F5800D8B4A8D6010AD8B4C7D6030AD8B434D777
:103F6800010AD8B450D7070AD8B4D9D766D6000101
:103F78008D51D96EDA6A020ED926DF50906F916B97
:103F88008D51D96EDA6A040ED926DF50926FFF0E72
:103F98009225936F946BFF0E94238D51D96EDA6A34
:103FA800030ED926DF50956F966B010E9527000EEC
:103FB800962393519515976F94519615986F905134
:103FC800971906E191519819D8A402D0000E120051
:103FD80020EE01F08E51D9268F51DA228D51E16EF3
:103FE800E26A030EE126E750906F9051090DF3CF76
:103FF80091F0F4CF92F08D51E16EE26AE6CF93F042
:10400800E5CF94F091519325956F92519421966F35
:10401800010E9525E16E000E9621E26EDFCFE7FFD7
:1040280020EE02F08E51D9268F51DA228D51E16EA1
:10403800E26A030EE126E750906F9051090DF3CF25
:1040480091F0F4CF92F08D51E16EE26AE6CF93F0F1
:10405800E5CF94F091519325956F92519421966FE5
:10406800020E9525E16E000E9621E26EDFCFE7FF86
:1040780020EE03F08E51D9268F51DA228D51E16E50
:10408800E26A030EE126E750906F9051090DF3CFD5
:1040980091F0F4CF92F08D51E16EE26AE6CF93F0A1
:1040A800E5CF94F091519325956F92519421966F95
:1040B800030E9525E16E000E9621E26EDFCFE7FF35
:1040C80020EE04F08E51D9268F51DA228D51E16EFF
:1040D800E26A030EE126E750906F9051090DF3CF85
:1040E80091F0F4CF92F08D51E16EE26AE6CF93F051
:1040F800E5CF94F091519325956F92519421966F45
:10410800040E9525E16E000E9621E26EDFCFE7FFE3
:1041180020EE05F08E51D9268F51DA228D51E16EAD
:10412800E26A030EE126E750906F9051090DF3CF34
:1041380091F0F4CF92F08D51E16EE26AE6CF93F000
:10414800E5CF94F091519325956F92519421966FF4
:10415800050E9525E16E000E9621E26EDFCFE7FF92
:1041680020EE06F08E51D9268F51DA228D51E16E5C
:10417800E26A030EE126E750906F9051090DF3CFE4
:1041880091F0F4CF92F08D51E16EE26AE6CF93F0B0
:10419800E5CF94F091519325956F92519421966FA4
:1041A800060E9525E16E000E9621E26EDFCFE7FF41
:1041B80020EE07F08E51D9268F51DA228D51E16E0B
:1041C800E26A030EE126E750906F9051090DF3CF94
:1041D80091F0F4CF92F08D51E16EE26AE6CF93F060
:1041E800E5CF94F091519325956F92519421966F54
:1041F800070E9525E16E000E9621E26EDFCFE7FFF0
:1042080020EE08F08E51D9268F51DA228D51E16EB9
:10421800E26A030EE126E750906F9051090DF3CF43
:1042280091F0F4CF92F08D51E16EE26AE6CF93F00F
:10423800E5CF94F091519325956F92519421966F03
:10424800080E9525E16E000E9621E26EDFCFE7FF9E
:104258008EC0D9FF8FC0DAFF8D51E16EE26A030E7E
:10426800E126E750906F9051090DF3CF91F0F4CF0C
:1042780092F08D51E16EE26AE6CF93F0E5CF94F0CB
:1042880091519325E16E92519421E26EDFCFE7FFC1
:104298008D51D96EDA6A030ED926DF2A8D51D96E6F
:1042A800DA6A040ED9268D51E16EE26A030EE12620
:1042B800DE50E65CD8A006D08D51D96EDA6A030EBE
:1042C800D926DF6A010E12000001C805D8A43FD024
:1042D800DAEC59F00101605100018D5D0101C56FF3
:1042E800615100018E590101C66F625100018F5959
:1042F8000101C76F6351000190590101C86FC8518E
:1043080008E1B50EC55DC40EC659040EC759D8A03C
:104318001ED076A50ED0C0C0C0F1BFC0C1F145C047
:10432800C2F197C1C3F1000EC46FAB0E52EC5FF03F
:10433800452ADAEC59F08DC060F18EC061F18FC06A
:1043480062F190C063F101019751D8A497074650D4
:1043580001017619D8B40ED0F90E0001A46F030E2E
:10436800A56F000EA66F76C1A7F0000E56EC5BF0A5
:1043780076C146F00001C751C819D8B413D0C8296E
:10438800D8B403D0C805D8A40BD0FB0EA46F030E75
:10439800A56F000EA66FC8C0A7F0000E56EC5BF024
:1043A800C8C0C7F0DAEC59F001015C5100018D5D1D
:1043B8000101C56F5D5100018E590101C66F5E5143
:1043C80000018F590101C76F5F5100019059010128
:1043D800C86FC851C71106E1250EC55DF40EC65950
:1043E800D8A00ED1DAEC59F08DC05CF18EC05DF129
:1043F8008FC05EF190C05FF101019B4B9C2B9B51DC
:104408009C11D8A4FDD0994B9A2BFAD080A40BD03C
:10441800DAEC59F08DC033F08EC034F08FC035F02F
:1044280090C036F01200DAEC59F0335000018D5D7F
:104438000101C56F345000018E590101C66F355016
:1044480000018F590101C76F3650000190590101D1
:10445800C86FC85108E1910EC55DD00EC659030E4C
:10446800C759D8A01200FD0E0001C86F0101756977
:1044780091EC5EF0120080A4CBD7000EC86F01014A
:104488007569DAEC59F08DC033F08EC034F08FC006
:1044980035F090C036F0C0C0A5F0BFC0A6F0500EF1
:1044A80022EC5FF091EC5EF0B3D780A41200DAEC56
:1044B80059F0335000018D5D0101C56F3450000182
:1044C8008E590101C66F355000018F590101C76F20
:1044D8003650000190590101C86FC85108E1910E8A
:1044E800C55DD00EC659030EC759D8A015D075C1E1
:1044F800C8F00001C805D8A4D5D770C1BFF071C1F4
:10450800C0F0C0C0A5F0BFC0A6F0520E22EC5FF00C
:1045180001019F4BA02BC6D7DAEC59F033500001AC
:104528008D5D0101C56F345000018E590101C66FC0
:10453800355000018F590101C76F3650000190595D
:104548000101C86FC851C71106E1250EC55DF40EFB
:10455800C659D8A05DD70001BF51C011D8B407D043
:10456800C0C0A5F0BFC0A6F0510E22EC5FF0000E4F
:104578000001C06F000EBF6FC86994D780A41200F5
:10458800DAEC59F0335000018D5D0101C56F3450EC
:1045980000018E590101C66F355000018F59010184
:1045A800C76F3650000190590101C86FC85108E122
:1045B800910EC55DD00EC659030EC759D8A028D78D
:1045C800BFC070F1C0C071F1000E0001C06FC0C063
:1045D800BFF0000EC86F010E0101756FDAEC59F0DB
:1045E8008DC033F08EC034F08FC035F090C036F0F7
:1045F80071C1A5F070C1A6F0500E22EC5FF052D741
:104608000001C851000AD8B450D7FD0AD8B433D72E
:10461800020AD8B4FBD6B2D7F7C1D9FFF8C1DAFF7E
:10462800030EDF6002D0000E1200010120EE02F03E
:10463800F751D926F851DA22DE500001C019D8A462
:10464800F2D7010120EE03F0F751D926F851DA220A
:104658000001BF51DE18D8A4E6D757D1F7C1D9FF5A
:10466800F8C1DAFF040EDF601DD0C0C0A5F0BFC0DE
:10467800A6F0010E0001A76F6F0E0AEC5FF0C0C034
:10468800C0F1BFC0C1F1710E0101C26F010EC36F4D
:10469800010EC46FAF0E52EC5FF00101AE4BAF2BB1
:1046A800010E120020EE04F0F751D926F851DA2253
:1046B800DF5025EC5DF08DC0FBF18EC0FCF10101EF
:1046C800FCAF1BD0C0C0A5F0BFC0A6F0FB510008CE
:1046D8000001A76F6F0E0AEC5FF0C0C0C0F1BFC049
:1046E800C1F1710E0101C26F010EC36FFB510008C9
:1046F800C46FAF0E52EC5FF0D0D7AC4BAD2BC0C03F
:10470800A5F0BFC0A6F020EE04F0F751D926F85165
:10471800DA22DF500001A76FFBC1A8F0970E81ECE9
:104728005FF0010120EE04F0F751D926F851DA22A2
:10473800DF50D8A4B5D7020EB8EC55F00001916F40
:104748008C0E926FB90E936F060EE7EC5CF0A8D74B
:10475800F7C1D9FFF8C1DAFF050EDF600ED0C0C07F
:10476800C0F1BFC0C1F1960EC26F010EC36F010E3A
:10477800C46FAF0E52EC5FF090D720EE05F0F75102
:10478800D926F851DA22DF50F26F20EE04F0F75103
:10479800D926F851DA22DF5052EC54F00101F96FB2
:1047A800F951FB6FFC6BFCBF0FD0FC5103E1FB051B
:1047B800D8A00AD0C0C0A5F0BFC0A6F0FBC1A7F022
:1047C8006F0E0AEC5FF069D7C0C0A5F0BFC0A6F0B5
:1047D800590E22EC5FF0C0C0C0F1BFC0C1F1960E07
:1047E8000101C26F010EC36F000EC46FAF0E52EC11
:1047F8005FF056D7F7C1D9FFF8C1DAFF050EDF60C1
:104808000ED0C0C0C0F1BFC0C1F18E0EC26F010E84
:10481800C36F010EC46FAF0E52EC5FF03ED720EEAF
:1048280005F0F751D926F851DA22DF50F26F20EE61
:1048380004F0F751D926F851DA22DF5052EC54F03F
:104848000101F96FF951FB6FFC6BFCBF1DD0FC51E6
:1048580003E1FB05D8A018D0C0C0A5F0BFC0A6F0E2
:10486800FBC1A7F06F0E0AEC5FF0C0C0C0F1BFC07B
:10487800C1F18E0E0101C26F010EC36FFBC1C4F1FD
:10488800AF0E52EC5FF009D720EE04F0F751D926AD
:10489800F851DA22DF5025EC5DF08DC0FBF18EC0B7
:1048A800FCF10101FCAF1BD0C0C0A5F0BFC0A6F051
:1048B800FB5100080001A76F6F0E0AEC5FF0C0C043
:1048C800C0F1BFC0C1F18E0E0101C26F010EC36FEE
:1048D800FB510008C46FAF0E52EC5FF0DED6C0C0CB
:1048E800A5F0BFC0A6F020EE04F0F751D926F85184
:1048F800DA22DF500001A76FFBC1A8F0970E81EC08
:104908005FF00101AC4BAD2BCBD6010120EE01F0DD
:10491800F751D926F851DA22DF50F96FFA6BFA51BC
:10492800000AD8A480D6F951710AD8B497D6FF0ADC
:10493800D8B460D7180AD8B40BD775D6000E0001C2
:10494800D06F0F0ED06501D01200D051070DF35073
:10495800100F25EC5DF000018D518E11D8A45DD1AA
:10496800D05159EC3FF00101CC6FB40E0001D025B5
:10497800D96EDA6A020EDA220101CC51DE18D8B4F7
:1049880044D1000ECB6FB40E0001D025D96EDA6A7F
:10499800020EDA22DF50D8B41ED0D051070DF350E2
:1049A800120F25EC5DF0A40E0001D025D96EDA6A4D
:1049B800020EDA22DF500101C96FCA6B00018D5166
:1049C8000101C91908E100018E510101CA19D8A4D1
:1049D80002D0010ECB6FB40E0001D025D96EDA6A71
:1049E800020EDA22DF50D8A41ED0D051070DF350A2
:1049F800130F25EC5DF0A40E0001D025D96EDA6AFC
:104A0800020EDA22DF500101C96FCA6B00018D5115
:104A18000101C91908E100018E510101CA19D8A480
:104A280002D0010ECB6F0101CB51D8B4E5D0A40E52
:104A38000001D025D96EDA6A020EDA22DF6AB40ED6
:104A4800D025D96EDA6A020EDA22CCC1DFFFD05146
:104A5800070DF350110F25EC5DF000018DB108D062
:104A68000101CC51D8A402D0010E01D0000ECC6FA8
:104A78000001D051070DF350110F25EC5DF0000136
:104A88008DA931D00101CC51D8B4C7D0E40E0001B2
:104A9800D025D96EDA6A020EDA22E40ED025E16E4C
:104AA800E26A020EE222E750D8A402D0010E01D039
:104AB800000EDF6EDE0ED0250101C96FCA6B030E32
:104AC800CA23C9C1A4F0CAC1A5F00001A66BE40EAF
:104AD800D025D96EDA6A020EDA22DF50A76F000EEF
:104AE80056EC5BF008D0E40ED025D96EDA6A020ED7
:104AF800DA22CCC1DFFF0001D051070DF350110FAE
:104B080025EC5DF000018DA747D0E40ED025D96EC5
:104B1800DA6A020EDA22DF50D8B41FD0D051070D5E
:104B2800F350110F25EC5DF000018DAD0BD0000E98
:104B38000101C16F0001D051040DF350080F7AEC48
:104B48004BF06BD0010E0101C16F0001D051040D73
:104B5800F350080F7AEC4BF060D0D051070DF350AA
:104B6800110F25EC5DF000018DAD0BD0000E010199
:104B7800C16F0001D051040DF350090F7AEC4BF0CE
:104B88004CD0010E0101C16F0001D051040DF3504A
:104B9800090F7AEC4BF041D0D051070DF350110FAB
:104BA80025EC5DF000018DAD16D0E40ED025D96E50
:104BB800DA6A020EDA22DF50D8A402D0010E01D040
:104BC800000E0101C16F0001D051040DF350080F10
:104BD8007AEC4BF022D0E40ED025D96EDA6A020EB8
:104BE800DA22DF500101C16F0001D051040DF350EA
:104BF800080F7AEC4BF011D0A40E0001D025D96E25
:104C0800DA6A020EDA22DF2A08D0A40E0001D025C3
:104C1800D96EDA6A020EDA22DF6A0001D02B91D649
:104C28000101C16F0F0E0101C16501D01200C15110
:104C3800070DF350100F25EC5DF000018D510101B7
:104C4800C06F60D0C151070DF350110F25EC5DF016
:104C580000018DA518D0DE0E0101C125BA6FBB6B0E
:104C6800030EBB23BAC191F0BBC192F00001936B54
:104C7800000EC6EC58F000019151976F0101C15127
:104C88007CEC51F022D10101C151070DF350110FF5
:104C980025EC5DF000018DBB05D0000E0101BE6F53
:104CA800020E04D0000E0101BE6F010EBD6FBDC122
:104CB800BFF1BFC197F0C1517CEC51F0DE0E01018C
:104CC800C125BA6FBB6B030EBB23BAC1A4F0BBC12D
:104CD800A5F00001A66BBFC1A7F0000E56EC5BF073
:104CE800F4D0C151070DF350110F25EC5DF0000110
:104CF8008D51100B0101BC6FBCC197F0C1517CEC08
:104D080051F0E3D0C051010AD8B49CD7030AD8B4F3
:104D1800E8D7010AD8B4E5D7D8D0C051D8B408D05C
:104D2800050EC019D8B404D0060EC019D8A41ED0D8
:104D3800C151040D020EF326000EF422350EF324A1
:104D4800F66EEE0EF420F76EF86A000EF8220800F0
:104D5800F5CFBAF1010EBB6FBA2B02D0D890BB3792
:104D6800BA2FFCD70101BB5192121200C151040D98
:104D7800020EF326000EF422350EF324F66EEE0E24
:104D8800F420F76EF86A000EF8220800F5CFBAF1A1
:104D9800010EBB6FBA2B02D0D890BB37BA2FFCD705
:104DA8000101BB51FF0A92161200C051D8B408D0B5
:104DB800050EC019D8B404D0060EC019D8A41ED048
:104DC800C151040D020EF326000EF422350EF32411
:104DD800F66EEE0EF420F76EF86A000EF822080060
:104DE800F5CFBAF1010EBB6FBA2B02D0D890BB3702
:104DF800BA2FFCD70101BB5193121200C151040D07
:104E0800020EF326000EF422350EF324F66EEE0E93
:104E1800F420F76EF86A000EF8220800F5CFBAF110
:104E2800010EBB6FBA2B02D0D890BB37BA2FFCD774
:104E38000101BB51FF0A93161200C051D8B408D023
:104E4800050EC019D8B404D0060EC019D8A41ED0B7
:104E5800C151040D020EF326000EF422350EF32480
:104E6800F66EEE0EF420F76EF86A000EF8220800CF
:104E7800F5CFBAF1010EBB6FBA2B02D0D890BB3771
:104E8800BA2FFCD70101BB5194121200C151040D75
:104E9800020EF326000EF422350EF324F66EEE0E03
:104EA800F420F76EF86A000EF8220800F5CFBAF180
:104EB800010EBB6FBA2B02D0D890BB37BA2FFCD7E4
:104EC8000101BB51FF0A941612000101C151040DE2
:104ED800010EF326000EF422350EF324F66EEE0EC4
:104EE800F420F76EF86A000EF8220800F550410A1F
:104EF800D8B413D7030AD8B458D7010AD8A41200D3
:104F08009CD77698480E00018D6FB8EC5DF00009CB
:104F1800D8A450D10F0120B74DD10001C351D8A456
:104F280007D0C151D8A404D0010EC16F010EC36FC0
:104F3800768899C0D9FF9AC0DAFF080EDF6406D0D8
:104F480099C0D9FF9AC0DAFF080EDF6E20EE01F093
:104F58009951D9269A51DA22DF509B6F9C6B350EF6
:104F68009B25F66EED0E9C21F76EF86A000EF8226E
:104F78000800F5509D6F9E6B870E9D25F66EEE0E10
:104F88009E21F76EF86A000EF8220800F5CF9FF010
:104F9800C339E8461F0B0F0B9F110F01216FC3C0C8
:104FA8009BF0070E00019B17050E9C6FD8909B374E
:104FB8009C2FFCD79B510F01226F000120EE01F0BE
:104FC8009951D9269A51DA22DF500F01266F000134
:104FD80020EE02F09951D9269A51DA22DF500F01BA
:104FE800276F000120EE03F09951D9269A51DA2251
:104FF800DF500F01286F000120EE04F09951D926E7
:105008009A51DA22DF500F01296F000120EE05F0D6
:105018009951D9269A51DA22DF500F012A6F0001DF
:1050280020EE06F09951D9269A51DA22DF500F0165
:105038002B6F000120EE07F09951D9269A51DA22F8
:10504800DF500F012C6F000120EE08F09951D9268E
:105058009A51DA22DF500F012D6F99C0D9FF9AC0FB
:10506800DAFFDF500F0B256F20870101814B822B60
:10507800000120EE01F09951D9269A51DA22DF5029
:1050880001EC60F00009D8B41200080EF1EC55F0FC
:105098000009D8B412004D0E00018D6F5AEC45F08E
:1050A8008DC0A0F08EC0A1F00001A051A111D8A41C
:1050B80006D00101854B862BCBEC61F0120020EE67
:1050C80001F09951D9269A51DA2210EE01F0A05137
:1050D800E126A151E222DFCFE7FF99C0D9FF9AC0AC
:1050E800DAFFA0C0E1FFA1C0E2FFDFCFE7FF20EEBB
:1050F80002F09951D9269A51DA2210EE02F0A05105
:10510800E126A151E222DFCFE7FF20EE03F099511B
:10511800D9269A51DA2210EE03F0A051E126A151C6
:10512800E222DFCFE7FF20EE04F09951D9269A5109
:10513800DA2210EE04F0A051E126A151E222DFCFDD
:10514800E7FF20EE05F09951D9269A51DA2210EEA0
:1051580005F0A051E126A151E222DFCFE7FF20EEC2
:1051680006F09951D9269A51DA2210EE06F0A0518C
:10517800E126A151E222DFCFE7FF20EE07F09951A7
:10518800D9269A51DA2210EE07F0A051E126A15152
:10519800E222DFCFE7FF20EE08F09951D9269A5195
:1051A800DA2210EE08F0A051E126A151E222DFCF69
:1051B800E7FF1200480E00018D6F99C08EF09AC06B
:1051C8008FF0BBEC1FF00009D8A407D001017F4B7A
:1051D800802BCBEC61F076881200768812007798E5
:1051E8000F0120B758D1480E0001606FB8EC4DF0A0
:1051F80060C073F061C074F0000173517411D8B4C9
:105208003CD120EE01F07351D9267451DA22DF50D7
:105218006C6F6D6B350E6C25F66EED0E6D21F76EAD
:10522800F86A000EF8220800F5506E6F6F6B870E53
:105238006E25F66EEE0E6F21F76EF86A000EF822F4
:105248000800F5CF70F0C339E8461F0B0F0B70113B
:105258000F01216FC3C06CF0070E00016C17050E1B
:105268006D6FD8906C376D2FFCD76C510F01226F82
:10527800000120EE01F07351D9267451DA22DF5073
:105288000F01266F000120EE02F07351D9267451E8
:10529800DA22DF500F01276F000120EE03F073516F
:1052A800D9267451DA22DF500F01286F000120EE51
:1052B80004F07351D9267451DA22DF500F01296F97
:1052C800000120EE05F07351D9267451DA22DF501F
:1052D8000F012A6F000120EE06F07351D926745190
:1052E800DA22DF500F012B6F000120EE07F0735117
:1052F800D9267451DA22DF500F012C6F000120EEFD
:1053080008F07351D9267451DA22DF500F012D6F3E
:1053180073C0D9FF74C0DAFFDF50256F32EC5AF042
:1053280060C02FF061C030F062C031F063C032F06D
:10533800000E0001C26F0F01208776880101814BA2
:10534800822B000120EE01F07351D9267451DA2224
:10535800DF5029EC60F00009D8B412004D0E0001AE
:10536800606F2CEC46F060C071F061C072F0000113
:1053780071517211D8A406D00101854B862BD1EC4E
:1053880061F0120020EE01F07351D9267451DA222F
:1053980010EE01F07151E1267251E222DFCFE7FFF2
:1053A80073C0D9FF74C0DAFF71C0E1FF72C0E2FFB9
:1053B800DFCFE7FF20EE02F07351D9267451DA22CD
:1053C80010EE02F07151E1267251E222DFCFE7FFC1
:1053D80020EE03F07351D9267451DA2210EE03F04F
:1053E8007151E1267251E222DFCFE7FF20EE04F08F
:1053F8007351D9267451DA2210EE04F07151E12666
:105408007251E222DFCFE7FF20EE05F07351D92673
:105418007451DA2210EE05F07151E1267251E22240
:10542800DFCFE7FF20EE06F07351D9267451DA2258
:1054380010EE06F07151E1267251E222DFCFE7FF4C
:1054480020EE07F07351D9267451DA2210EE07F0D6
:105458007151E1267251E222DFCFE7FF20EE08F01A
:105468007351D9267451DA2210EE08F07151E126F1
:105478007251E222DFCFE7FF1200000E2F6E000EFE
:10548800306E000E316E000E326E000E0F01206F6E
:105498007798769812007798768812000101D86F6D
:1054A800030E0101D119D8A458D0D851070DF350D3
:1054B800130F25EC5DF0C40E0101D825D96EDA6A08
:1054C800020EDA2200018DC0DFFFD40E0101D825BB
:1054D800D96EDA6A020EDA22010EDF6ED851070D94
:1054E800F350110F200B25EC5DF000018D518E114A
:1054F800D8A402D0010E01D0000E916F0101D8513D
:1055080066EC36F0DE0E0101D825D26FD36B030EA0
:10551800D323D2C1A4F0D3C1A5F00001A66BD1C199
:10552800A7F0000E56EC5BF0010E0101C96FD851CF
:10553800070DF350110F25EC5DF000018D51400B64
:105548000101CA6F010ECB6F010ECC6FD851040D4B
:10555800F350080FEDEC5BF01200C40ED825D96E9D
:10556800DA6A020EDA22DF6AD105D8A402D0010E67
:1055780001D0000ED76FD851070DF350110F25EC4D
:105588005DF000018DA108D00101D751D8A402D047
:10559800010E01D0000ED76F0101D751D8A415D044
:1055A800D851070DF350120F25EC5DF000018D5115
:1055B8008E11D8B40AD0D40E0101D825D96EDA6A72
:1055C800020EDA22010EDF6E12000101D751D8B4A3
:1055D80038D0D851070DF350120F25EC5DF00001BB
:1055E8008D518E11D8B42DD0D40E0101D825D96E85
:1055F800DA6A020EDA22DF50D8A423D0D851070D78
:10560800F350120F25EC5DF0D40E0101D825D96EA8
:10561800DA6A020EDA2200018DC0DFFFDE0E010118
:10562800D825D26FD36B030ED323D2C1A4F0D3C134
:10563800A5F00001A66B020EA76F000E56EC5BF0FA
:1056480025D0D40E0101D825D96EDA6A020EDA22E5
:10565800010EDF6ED751D8A404D0000ED56F020E0C
:1056680003D0000ED56F010ED46FDE0ED825D26F91
:10567800D36B030ED323D2C1A4F0D3C1A5F000018C
:10568800A66BD4C1A7F0000E56EC5BF0D7C1D6F1DB
:105698000101D851070DF350110F25EC5DF0000101
:1056A8008DAB08D00101D651D8A402D0010E01D08B
:1056B800000ED66FD6C191F00101D85166EC36F0D4
:1056C8000101D851070DF350110F25EC5DF00001D1
:1056D8008DA721D00101D751D8B41200D751D8B421
:1056E80002D0010E01D0000EC96FD851070DF3503A
:1056F800110F25EC5DF000018D51400B0101CA6FBF
:10570800010ECB6F010ECC6FD851040DF350080F6A
:10571800EDEC5BF012000101D751D8B402D0010EB4
:1057280001D0000EC96FD851070DF350110F25ECA9
:105738005DF000018D51400B0101CA6F010ECB6F66
:10574800010ECC6FD851040DF350080FEDEC5BF04F
:10575800120077980F0120B742D1480E016E51EC24
:105768004EF001C014F002C015F014501510D8B452
:1057780028D120EE01F01450D9261550DA22DF5036
:105788000D6E0E6A350E0D24F66EED0E0E20F76EB8
:10579800F86A000EF8220800F5500F6E106A870E9E
:1057A8000F24F66EEE0E1020F76EF86A000EF8223F
:1057B8000800F5CF11F00001C339E8461F0B0F0BA5
:1057C80011100F01216FC3C00DF0070E0D16050E45
:1057D8000E6ED8900D360E2EFCD70D50226F20EE8F
:1057E80001F01450D9261550DA22DF50266F20EE2A
:1057F80002F01450D9261550DA22DF50276F20EE18
:1058080003F01450D9261550DA22DF50286F20EE05
:1058180004F01450D9261550DA22DF50296F20EEF3
:1058280005F01450D9261550DA22DF502A6F20EEE1
:1058380006F01450D9261550DA22DF502B6F20EECF
:1058480007F01450D9261550DA22DF502C6F20EEBD
:1058580008F01450D9261550DA22DF502D6F14C0E5
:10586800D9FF15C0DAFFDF50256F81EC59F001C070
:105878002FF002C030F003C031F004C032F0000E47
:105888000001C26F0F01208776880101814B822BAE
:1058980020EE01F01450D9261550DA22DF50A9EC79
:1058A80060F00009D8B412004D0E016E95EC46F078
:1058B80001C012F002C013F012501310D8A406D081
:1058C8000101854B862BD7EC61F0120020EE01F028
:1058D8001450D9261550DA2210EE01F01250E126A4
:1058E8001350E222DFCFE7FF14C0D9FF15C0DAFF5B
:1058F80012C0E1FF13C0E2FFDFCFE7FF20EE02F0A6
:105908001450D9261550DA2210EE02F01250E12672
:105918001350E222DFCFE7FF20EE03F01450D92620
:105928001550DA2210EE03F01250E1261350E2224D
:10593800DFCFE7FF20EE04F01450D9261550DA2205
:1059480010EE04F01250E1261350E222DFCFE7FFF9
:1059580020EE05F01450D9261550DA2210EE05F085
:105968001250E1261350E222DFCFE7FF20EE06F0C7
:105978001450D9261550DA2210EE06F01250E126FE
:105988001350E222DFCFE7FF20EE07F01450D926AC
:105998001550DA2210EE07F01250E1261350E222D9
:1059A800DFCFE7FF20EE08F01450D9261550DA2291
:1059B80010EE08F01250E1261350E222DFCFE7FF85
:1059C8001200000E2F6E000E306E000E316E000EAB
:1059D800326E000E0F01206F779876981200779834
:1059E800768812000001A76F0001A751070DF35038
:1059F800120F25EC5DF08DC09FF08EC0A0F0000165
:105A0800A751070DF350130F25EC5DF000018D51E0
:105A18009F5DD8B002D0010E01D0000EA56F0AD14B
:105A2800A751070DF350120F25EC5DF000018D51C1
:105A3800976F986B000E9A6F020E996F4EEC52F0AA
:105A480097C09FF098C0A0F00001A751070DF35030
:105A5800130F25EC5DF000018D51976F986B000EC8
:105A68009A6F020E996F4EEC52F0000197519F25E4
:105A7800A66FA551D8B424D0A751070DF350150F20
:105A880025EC5DF00001A751A90FD96EDA6A8D5196
:105A9800DF5EA751A90FD96EDA6ADE50A65DD8A0DD
:105AA800E1D0640EA725D96EDA6A020EDA22010E59
:105AB800DF6EA751070DF350160F25EC5DF023D0CC
:105AC800A751070DF350150F25EC5DF00001A75104
:105AD800A90FD96EDA6A8D51DF26A751A90FD96EA1
:105AE800DA6AA651DE5CD8A0BDD0640EA725D96EAF
:105AF800DA6A020EDA22010EDF6EA751070DF350A3
:105B0800160F25EC5DF000018D519F6FA06BA7511A
:105B1800020D000EF324D96E010EF420DA6E9FC038
:105B2800DEFFA0C0DDFF9ED0A751020D000EF324BA
:105B3800D96E010EF420DA6EDE50DE10D8A408D03B
:105B4800640EA725D96EDA6A020EDA22020EDF6E1B
:105B5800A751020D000EF324D96E010EF420DA6E5F
:105B6800DE06000EDD5A7ED0A551D8B436D0A75136
:105B7800070DF350150F25EC5DF00001A751A90F93
:105B8800D96EDA6A8D51DF5EA751A90FD96EDA6A2C
:105B9800DF509F6FA06B400EA725D96EDA6A010E01
:105BA800DA22DF50A16FFD0EA125A26FA36BFF0EB5
:105BB800A3239F51A25DA351800AA46FA051800A1C
:105BC800A459D8A04FD0640EA725D96EDA6A020E60
:105BD800DA22030EDF6E010E1200A751070DF350F3
:105BE800150F25EC5DF00001A751A90FD96EDA6AEF
:105BF8008D51DF26400EA725D96EDA6A010EDA220A
:105C0800DF509F6FFD0E9F25A06FA16BFF0EA12394
:105C1800A751A90FD96EDA6ADF50A26FA36BA05102
:105C2800A25DA351800AA46FA151800AA459D8B0DB
:105C3800CAD718D0640EA725D96EDA6A020EDA22FE
:105C4800DF509F6FA06BA051000AD8A40BD09F51C2
:105C5800000AD8B4E5D6010AD8B466D7030AD8B47E
:105C680083D7010A000E120025D1F7C1D9FFF8C168
:105C7800DAFF050EDF600CD0C0C0A5F0BFC0A6F0EB
