:04000000FEEF03F01C
:0400080004EF04F00D
:040018000CEF04F0F5
:1000700000370800F5501200380E0001456FF80EE9
:100080004117408140B1FED7070E4113465112007F
:100090001F6E010103511F18F80B1F18036F02395F
:1000A000E832070B1F18D8B41200F9D700014151EC
:1000B000F80B0609416F550E426FAA0E426F408140
:1000C00040B1FED7070E411312001F6E000140B170
:1000D000FDD71FC546F0000E476F4151F80B0309CD
:1000E000416F550E426FAA0E426F4081070E4113B9
:1000F0001200700EF66E000EF76E000EF86E09001C
:10010000F5C433F50900F5C434F501EE01F11E0E16
:10011000EE6AE806FDE10001ADEF01F0000E0C6EA5
:10012000000E0B6E000E0B24D96E370E0C20DA6E0B
:10013000FF0EDF6E0B4A0C2A0C04D8A0F3D7000E7A
:10014000166E000E156E000E146E12001F6E380E25
:100150000001456F1FC546F04151F80B0309416F7F
:10016000550E426FAA0E426F408140B1FED7070E76
:1001700041133CEC00F01F18D8B41200E8D7080E69
:10018000156003D01450D8B4120016C543F015C53D
:1001900044F014C545F056EC00F04151F80B050948
:1001A000416F550E426FAA0E426F408140B1FED79B
:1001B000070E411312001F6E07C5D9F408C5DAF403
:1001C000DF6A20EE01F00750D9260850DA22240E0B
:1001D000DF6E20EE02F00750D9260850DA22DF6ADF
:1001E00020EE03F00750D9260850DA22DF6A1F50AC
:1001F000D8B409D020EE01F00750D9260850DA22F1
:10020000000EDB8608D020EE01F00750D9260850FA
:10021000DA22F70EDF16030E010169131200460EF3
:1002200002010B6F0B0E3D6FC794C786000E0301D2
:10023000676F0101018F040E48EC00F0000E4C6F57
:10024000380E4D6F000E4E6F000E4F6F000E006F98
:10025000870E016F100E026F500E036F000E046FB9
:10026000030E056F020E066F3F0E076F800E686F5C
:10027000040E696F600E6A6F5F0E6B6F080E746F0D
:10028000040E756F000E766F5F0E776F400E8F6FE6
:10029000400E936F830E806F060E48EC00F0120044
:1002A0002F6E1550206E1F6A1450236E226A216A29
:1002B0001F502110246E20502210256E000E20BEEB
:1002C000FF0E2310266E00014451286E276A455107
:1002D0002B6E2A6A296A275029102C6E28502A1062
:1002E0002D6E000E28BEFF0E2B102E6E24502C18E3
:1002F00007E125502D1804E126502E18D8B424D03B
:1003000043C013F544C012F545C011F5BFEC00F031
:10031000000E166E12C515F511C514F5000140B199
:10032000FDD714C545F015C544F016C543F041513D
:10033000F80B0209416F4081070E411313C543F0CA
:1003400012C544F011C545F0000E4325D96EDA6A96
:10035000370EDA222FC5DFF41200100E356E000EB4
:100360000401006F000E086F280E016FC79EC79C26
:10037000C686380E0001456F030E446F43693CEC9E
:1003800000F00009D8B4CEA602D000EF04F0400E71
:10039000356E0001AD518F0B2009AD6F000E1C6E44
:1003A0001C0E1B6EC79CC79EBF8CBF8E0FEC01F04E
:1003B0008EEC00F0000E046E000E036E04000101CE
:1003C00078A1FDD77CC109F57DC10AF520EE04F0C6
:1003D0000950D9260A50DA22DF500F0B106E20EE9A
:1003E00001F00950D9260A50DA22DFA67CD119C5BE
:1003F00045F018C544F017C543F01BA60AD01050AD
:10040000306E316A326A305017263150182232501D
:100410001922020E196074D020EE01F00950D9267D
:100420000A50DA22DFA82FD06CA1FED770C107F5E1
:1004300071C108F5000E0F6E0F500724306E000ECC
:100440000820316E080E3024D96E000E3120DA6E8D
:1004500039EC00F0DF6EF62AF650D8A404D0F72A63
:10046000F750D8B4F82A0F2A080E0F64E5D720EE0B
:1004700004F00750D9260850DA22180EDF6E010E5C
:10048000DBEC00F03DD000014551D8A403D0070EAD
:10049000446536D01BA203D056EC00F031D0000EDC
:1004A0000F6E2AD00F500924306E000E0A20316ED4
:1004B000080E3024D96E000E3120DA6EDF5050EC79
:1004C00001F00F500924306E000E0A20316E080E24
:1004D0003024D96E000E3120DA6EDF50326E325089
:1004E0000326000E0422432B4351D8A404D0442BEE
:1004F0004451D8B4452B0F2A10500F5CD8A0D2D746
:10050000300E1918D8A466D020EE01F00950D92673
:100510000A50DA22DFA830D001016CA1FDD770C1EA
:1005200007F571C108F5000E0F6E0F500724306EED
:10053000000E0820316E080E3024D96E000E3120D6
:10054000DA6E39EC00F0DF6EF62AF650D8A404D04B
:10055000F72AF750D8B4F82A0F2A080E0F64E5D707
:1005600020EE04F00750D9260850DA22180EDF6E6C
:10057000010EDBEC00F02ED0000E0F6E27D0040031
:100580000F500924306E000E0A20316E080E302400
:10059000D96E000E3120DA6EDF5065EC00F00F509E
:1005A0000924306E000E0A20316E080E3024D96EF8
:1005B000000E3120DA6EDF50326E32500326000E0C
:1005C0000422F62AF650D8B4F72A0F2A10500F5CEE
:1005D000D8A0D5D7380E1918D8A461D020EE01F0D4
:1005E0000950D9260A50DA22DFA82CD001016CA1CB
:1005F000FDD770C107F571C108F5000E0F6E0F50E1
:100600000724306E000E0820316E080E3024D96E9B
:10061000000E3120DA6E3CEC00F0DF6E432B4351CC
:10062000D8B4442B0F2A080E0F64E9D720EE04F04B
:100630000750D9260850DA22180EDF6E010EDBECC7
:1006400000F02DD0000E0F6E26D00F500924306E12
:10065000000E0A20316E080E3024D96E000E3120B3
:10066000DA6EDF50A6EC00F00F500924306E000E59
:100670000A20316E080E3024D96E000E3120DA6E59
:10068000DF50326E32500326000E0422432B4351BA
:10069000D8B4442B0F2A10500F5CD8A0D6D720EE28
:1006A00001F00950D9260A50DA22DFA81BA89CD0F5
:1006B00001016CA1FDD770C107F571C108F520EEED
:1006C00008F00750D9260850DA22010EDF6E20EE1E
:1006D00004F00750D9260850DA22110EDF6E000E02
:1006E000DBEC00F081D0BFEC00F0170E056E050EBC
:1006F000066E080E0924016E000E0A20026E000E1E
:100700000F6E0FD001C5D9F402C5DAF405C5E1F4C6
:1007100006C5E2F4DFC4E7F4054A062A014A022AC4
:100720000F2A10500F5CD8A0EDD71C04D8A40CD011
:10073000380E0001456F030E446F4369000EA6ECAE
:1007400000F0BF9CBF9EFF00020E1C18D8A404D06E
:10075000000E046E000E036E030E1C18D8A426D0E3
:1007600001016CA1FDD770C107F571C108F520EE3C
:1007700008F00750D9260850DA2203501D24306EA5
:1007800004501E20316E30503110D8A402D0010E1A
:1007900001D0000EDF6E20EE04F00750D92608507D
:1007A000DA22110EDF6E000EDBEC00F0040E1C18D6
:1007B000D8A41AD001016CA1FDD770C107F571C191
:1007C00008F520EE08F00750D9260850DA22020E6C
:1007D000DF6E20EE04F00750D9260850DA22110E01
:1007E000DF6E000EDBEC00F001017581E7D5424CB5
:0B07F0005F56455253494F4E3D030138
:0807FC0079EF00F001EF05F0B8
:10082000A5631DFE0D01040B170100080000000068
:100830000000016C000000001400480800003103B3
:0808480050414E202020200049
:10090000CF58CF58CF58CF58CF58CF586158CF581D
:10091000CF58CF58CF58CF58CF58CF58CF58CF589F
:10092000CF58CF58CF58CF58CF58CF58CF58CF588F
:10093000CF58CF58CF588053CF58CF58CF58A25800
:10094000CF58CF58CF58CF58CF58CF58CF58CF586F
:10095000CF58CF58CF58CF58CF58CF58CF58CF585F
:10096000CF58CF58CF58CF58CF58CF58CF58CF584F
:10097000CF58CF58CF58CF588002CF58CF58CF58E4
:10098000CF58CF58CF58CF58CF58CF58CF58CF582F
:10099000CF58CF58CF58CF588002CF58CF58CF58C4
:1009A000CF58CF58CF58CF58CF58CF58CF58CF580F
:1009B000CF58CF58CF58CF58CF58CF58CF58CF58FF
:1009C000CF58CF58CF58CF58CF58CF58CF58CF58EF
:1009D000CF58CF58CF58CF58CF58CF58CF58CF58DF
:1009E0008002CF58CF58CF58CF58CF58CF58CF5874
:1009F000CF58CF58CF58CF58CF58CF58CF58CF58BF
:060A0000FF007AEFABF0ED
:10FE220000010103020202020302020301000001B7
:10FE320001010101010101010101010101010101B0
:10FE420001010101010101010101010101010101A0
:10FE52000101010101010101010101010101010190
:10FE62000001010101010101010100010100000085
:10FE7200000000000000000000000000000001017E
:10FE82000101010301010101010101010000000062
:10FE92000000000001000101010101010001010156
:10FEA2000101010100010101010101000100000045
:10FEB200000000000000000000000000000101013D
:10FEC2000101010101010101000001010000000026
:10FED2000000000001000001010100000001010119
:10FEE2000101010100010101010101010100000004
:10FEF20000000001010000010101000000010100F9
:10FF020001010100000100010101010100000000E6
:10FF120000000000000000000000000100000000DE
:10FF220000E5FFD1FFBDFFA9FF95FF81FF6DFF59DE
:10FF3200FF45FF424C5F56455253494F4E3D0B0A17
:10FF42000908000901000000545E0142240100007A
:10FF520000000000D4600108010000000000000061
:10FF62000000000000000000000000050100000089
:10FF7200FC5D015A2001000000DE6101686001069B
:10FF820001000000285E01043101000000CE620180
:10FF9200805E0104011C63013C5D01AA0A010000AC
:10FFA20000626101F860010A020000009C3C014607
:10FFB20046010000004460010000000201685C018B
:10FFC2006E5D01001B010000003262018C600101C4
:10FFD20001AC4C015A330100000130140100000051
:10FFE200B060010302A46101122D0170430110638C
:0EFFF200014862015E4801721001AA29010057
:020000040001F9
:100000005450D8B4B0D016D145C5D9F446C5DAF4A9
:10001000030EDF600ED09CC525F59BC526F5420E6C
:10002000276E010E286E010E296EAF0EAAECAFF0FE
:1000300034D020EE02F04550D9264650DA22DF5067
:100040009C6F20EE03F04550D9264650DA22DF504F
:100050009B6FFD0E106E030E116E000E126E9CC58E
:1000600013F5000EC8ECABF0FC0E106E030E116E13
:10007000000E126E9BC513F5000EC8ECABF0010E1E
:10008000546E9CC525F59BC526F5520E80ECAFF04D
:100090000501C44BC52BCFECAEF0010E1200A50E2E
:1000A000256E630E266E1D0E276EFE0E286E0D0E3B
:1000B000296E010E2A6E040E2B6EEF0E95ECAFF03A
:1000C000ECD7480EF66E080EF76E000EF86E0800BC
:1000D000F5C425F5490EF66E080EF76E000EF86EA3
:1000E0000800F5C426F54A0EF66E080EF76E000EEF
:1000F000F86E0800F5C427F54B0EF66E080EF76E85
:10010000000EF86E0800F5C428F54C0EF66E080EC9
:10011000F76E000EF86E0800F5C429F54D0EF66E68
:10012000080EF76E000EF86E0800F5C42AF54E0EA4
:10013000F66E080EF76E000EF86E0800F5C42BF58B
:10014000E20E95ECAFF0A9D7000E256E000E266EDC
:10015000A50E276E1D0E286EE7ECACF0296EB60ECC
:10016000AAECAFF09AD720EE01F04550D9264650C0
:10017000DA22DF500501E36FE46BE451000AD8A4F2
:100180000DD0E3510D0AD8B4DFD71D0AD8B487D7F4
:10019000010AD8B496D7530AD8B436D7000E120045
:1001A0009CC525F59BC526F5A50E276E1D0E286E50
:1001B000E7ECACF0296EB60EAAECAFF06ED745C5F1
:1001C000D9F446C5DAF4040EDF600ED09CC525F5DF
:1001D0009BC526F5760E276E010E286E010E296E40
:1001E000AF0EAAECAFF059D720EE02F04550D92659
:1001F0004650DA22DF50D8A432D020EE03F045502A
:10020000D9264650DA22DF50D8A429D020EE04F0B7
:100210004550D9264650DA22DF504B6E0C0E4B1853
:10022000D8A402D0B78539D70D0E4B18D8A417D053
:10023000B79533D720EE01F04550D9264650DA2243
:10024000DF500501E36FE46BE451000AD8A407D046
:10025000E3510D0AD8B4A4D77B0AD8B4B0D745C5AA
:10026000D9F446C5DAF4030EDF6001D097D720EE4B
:1002700002F04550D9264650DA22DE509C19D8A407
:100280008DD720EE03F04550D9264650DA229B51F7
:10029000DE18D8A483D7E6D345C5D9F446C5DAF429
:1002A000040EDF600ED09CC525F59BC526F5730EA8
:1002B000276E010E286E010E296EAF0EAAECAFF06C
:1002C000ECD620EE04F04550D9264650DA22140E22
:1002D000DF6417D09CC525F59BC526F5090E276E52
:1002E0006F0E6BECAFF09CC525F59BC526F5730E24
:1002F000276E010E286E090E296EAF0EAAECAFF024
:10030000CCD620EE04F04550D9264650DA22DF50F4
:1003100036EC9AF0476E9CC525F59BC526F520EE78
:1003200004F04550D9264650DA22DF50276E47C5E3
:1003300028F59B0EBFECAFF020EE04F04550D92617
:100340004650DA22DF50D8A4A8D6010E90ECA6F0D1
:10035000066EA80E076E5F0E086E010E096E070E80
:1003600008ECADF09AD69BC599F59CC59AF5BAEC08
:100370009BF0050199519A11D8B407D09AC525F57B
:1003800099C526F5510E80ECAFF0FF0045C5D9F4B4
:1003900046C5DAF4050EDF600ED09CC525F59BC579
:1003A00026F5870E276E010E286E010E296EAF0E00
:1003B000AAECAFF072D620EE04F04550D926465094
:1003C000DA22DF50D8A40CD0000E066E7C0E076E29
:1003D000350E086E010E096E040E08ECADF05DD608
:1003E00020EE04F04550D9264650DA22090EDF648B
:1003F0000ED09CC525F59BC526F5870E276E010EF0
:10040000286EFC0E296EAF0EAAECAFF046D620EE99
:1004100004F04550D9264650DA22DF500501E36F3B
:10042000E46BD890E337E437FE0EE325E56FFF0E6B
:10043000E421E66F230EE525F66EFF0EE621F76E4A
:10044000F86A000EF8220900F5C4E7F50900F5C4C2
:10045000E8F5110EE727000EE823E7C5F6F4E8C536
:10046000F7F4000EF86E0900F5500900F5100900C8
:10047000F510D8A413D09CC525F59BC526F5870E8D
:10048000276E20EE04F04550D9264650DA22DF5080
:10049000286E000E296EC70EAAECAFF020EE05F014
:1004A0004550D9264650DA22DF50D8A412D020EE8B
:1004B00004F04550D9264650DA22DF50066E7C0EF5
:1004C000076E350E086E010E096E040E08ECADF0D5
:1004D000E4D520EE04F04550D9264650DA22DF500C
:1004E0000501E36FE46BD890E337E437FE0EE325B4
:1004F000E56FFF0EE421E66F230EE525F66EFF0E95
:10050000E621F76EF86A000EF8220900F5C4E7F557
:100510000900F5C4E8F5110EE727000EE823E7C54A
:10052000F6F4E8C5F7F4000EF86E01D814D0050013
:10053000FA6E0900F550FD6E0900F550FE6E0900D7
:10054000F550FF6EFA5020EE05F04550D926465082
:10055000DA22DF50120008C549F509C54AF54950AD
:100560004A10D8A40ED09CC525F59BC526F5870E4C
:10057000276E010E286EFD0E296EAF0EAAECAFF0AD
:100580008CD59CC525F59BC526F520EE04F045507D
:10059000D9264650DA22DF50276E20EE05F045506E
:1005A000D9264650DA22DF50286E20EE01F049505D
:1005B000D9264A50DA22DF50296E49C5D9F44AC5F6
:1005C000DAF4DF502A6EC70E56ECAFF066D545C59B
:1005D000D9F446C5DAF4040EDF600ED09CC525F5CB
:1005E0009BC526F5780E276E010E286E010E296E2A
:1005F000AF0EAAECAFF051D520EE04F04550D9264D
:100600004650DA22DF50D8A419D09CC525F59BC5E9
:1006100026F5000E276E000E286E090E296EAC0E10
:10062000AAECAFF0010E066E2C0E076E450E086E9A
:10063000010E096E030E08ECADF02FD520EE04F08C
:100640004550D9264650DA22090EDF640ED09CC5EB
:1006500025F59BC526F5780E276E010E286EFC0E3B
:10066000296EAF0EAAECAFF018D520EE04F045507D
:10067000D9264650DA22DF50E36FE46BD890E33797
:10068000E437FE0EE325E56FFF0EE421E66F230E4F
:10069000E525F66EFF0EE621F76EF86A000EF822E9
:1006A0000900F5C4E7F50900F5C4E8F50E0EE727E3
:1006B000000EE823E7C5F6F4E8C5F7F4000EF86E7F
:1006C0000900F5500900F5100900F510D8A440D034
:1006D0009CC525F59BC526F520EE04F04550D9268E
:1006E0004650DA22DF50276E20EE04F04550D9261E
:1006F0004650DA22DF50E36FE46BD890E337E437FB
:10070000FE0EE325E56FFF0EE421E66F230EE525DF
:10071000F66EFF0EE621F76EF86A000EF822090069
:10072000F5C4E7F50900F5C4E8F5E7C5F6F4E8C552
:10073000F7F4000EF86E0800F5C428F5000E296ED7
:10074000000E2A6E000E2B6EE70E95ECAFF0A5D4CE
:100750009CC525F59BC526F520EE04F04550D9260D
:100760004650DA22DF50276E20EE04F04550D9269D
:100770004650DA22DF50E36FE46BD890E337E4377A
:10078000FE0EE325E56FFF0EE421E66F230EE5255F
:10079000F66EFF0EE621F76EF86A000EF8220900E9
:1007A000F5C4E7F50900F5C4E8F5E7C5F6F4E8C5D2
:1007B000F7F4000EF86E0800F5C428F520EE04F0FA
:1007C0004550D9264650DA22DF50E96FEA6BD890BF
:1007D000E937EA37FE0EE925EB6FFF0EEA21EC6FF1
:1007E000230EEB25F66EFF0EEC21F76EF86A000E75
:1007F000F8220900F5C4EDF50900F5C4EEF50E0E7A
:10080000ED27000EEE23EDC5F6F4EEC5F7F4000E6D
:10081000F86E01D80ED00500FA6E0900F550FD6E95
:100820000900F550FE6E0900F550FF6EFA50010EFA
:100830001200296E20EE04F04550D9264650DA22E7
:10084000DF500501EF6FF06BD890EF37F037FE0EF9
:10085000EF25F16FFF0EF021F26F230EF125F66EFA
:10086000FF0EF221F76EF86A000EF8220900F5C4B7
:10087000F3F50900F5C4F4F50E0EF327000EF4238A
:10088000F3C5F6F4F4C5F7F4000EF86E01D80ED0F7
:100890000500FA6E0900F550FD6E0900F550FE6E78
:1008A0000900F550FF6EFA50020E12002A6E20EE7B
:1008B00004F04550D9264650DA22DF500501F56F85
:1008C000F66BD890F537F637FE0EF525F76FFF0E6D
:1008D000F621F86F230EF725F66EFF0EF821F76E5E
:1008E000F86A000EF8220900F5C4F9F50900F5C40C
:1008F000FAF50E0EF927000EFA23F9C5F6F4FAC53B
:10090000F7F4000EF86E01D80ED00500FA6E09005B
:10091000F550FD6E0900F550FE6E0900F550FF6EB2
:10092000FA50030E12002B6EE70E95ECAFF04DEF70
:1009300080F045C5D9F446C5DAF4040EDF600FD067
:100940009CC525F59BC526F5760E276E010E286EF3
:10095000010E296EAF0EAAECAFF04DEF80F020EE45
:1009600004F04550D9264650DA22DF504B6E9BC525
:1009700099F59CC59AF55404D8A448D04B50D8B4E6
:1009800003D04B28D8A442D04B50D8B402D0510E3B
:1009900001D0500E486E9CC525F59BC526F54850E4
:1009A00080ECAFF09CC525F59BC526F5760E276E2D
:1009B000010E286E000E296EAF0EAAECAFF0000EED
:1009C00005019C6F9CC59BF5FD0E106E030E116E0C
:1009D000000E126E9CC513F5000EC8ECABF0FC0EB9
:1009E000106E030E116E000E126E9BC513F5000EF5
:1009F000C8ECABF04B50D8B402D0546802D0000E13
:100A0000546E010E0501AB6F4BEF80F00C0E4B18CE
:100A1000D8A410D0B7859CC525F59BC526F5760EC4
:100A2000276E010E286E000E296EAF0EAAECAFF0F5
:100A30004DEF80F00D0E4B18D8A4CEEF80F0B79597
:100A40009CC525F59BC526F5760E276E010E286EF2
:100A5000000E296EAF0EAAECAFF04DEF80F0FF0054
:100A60004DEF80F020EE01F04550D9264650DA22B5
:100A7000DF50E36FE46BE451000AD8A4CEEF80F0BE
:100A8000E3514F0AD8B46FD4110AD8B4E8D72D0A6D
:100A9000D8B402D4050AD8B44CD70E0AD8B497D526
:100AA000FF0AD8B473D4CEEF80F0ADD245C530F58F
:100AB00046C531F5030E326E000E336EABECA8F076
:100AC000E806D8A402D0010E120020EE02F0455034
:100AD000D9264650DA22DE5005019C19D8A40CD044
:100AE00020EE03F04550D9264650DA229B51DE18FD
:100AF000D8A402D0B781E7D7B791E5D745C530F57F
:100B000046C531F5040E326E000E336EABECA8F024
:100B1000E806D8B4D8D720EE02F04550D926465082
:100B2000DA22DE5005019C19D8A41FD020EE03F074
:100B30004550D9264650DA229B51DE18D8A415D04C
:100B400020EE04F04550D9264650DA22080EDE1871
:100B5000D8B4D0D720EE04F04550D9264650DA223A
:100B6000090EDE18D8B4C8D701D0B791000E120014
:100B700045C530F546C531F5070E326E010E336EB0
:100B8000ABECA8F0E806D8A40AD09CC525F59BC517
:100B900026F5010E276E6F0E6BECAFF094D70501B2
:100BA000B7A191D720EE03F04550D9264650DA225E
:100BB000DF50476E20EE02F04550D9264650DA222B
:100BC000DF50486E47503E6E48C53FF520EE05F0B9
:100BD0004550D9264650DA22DF504A6E20EE04F006
:100BE0004550D9264650DA22DF504B6E4A50406EAF
:100BF0004BC541F520EE06F04550D9264650DA2285
:100C0000DF50426E20EE07F04550D9264650DA22DA
:100C1000DF50436E0FEC9FF056D745C530F546C503
:100C200031F5050E326E010E336EABECA8F0E8061E
:100C3000D8B449D70501B7A146D720EE03F04550F7
:100C4000D9264650DA22DF50476E20EE02F045509A
:100C5000D9264650DA22DF50486E47502B6E48C5E1
:100C60002CF520EE05F04550D9264650DA22DF500B
:100C70004A6E20EE04F04550D9264650DA22DF5065
:100C80004B6E4A502D6E4BC52EF51CECA6F01BD7B3
:100C900045C530F546C531F5060E326E010E336E90
:100CA000ABECA8F0E806D8B40ED70501B7A10BD776
:100CB00020EE03F04550D9264650DA22DF50476E29
:100CC00020EE02F04550D9264650DA22DF50486E19
:100CD00047502C6E48C52DF520EE05F04550D9261D
:100CE0004650DA22DF504A6E20EE04F04550D926F5
:100CF0004650DA22DF504B6E4A502E6E4BC52FF510
:100D000020EE06F04550D9264650DA22DF50306EEC
:100D100018EC99F0D8D645C530F546C531F5030E27
:100D2000326E000E336EABECA8F0E806D8B4CBD62A
:100D300020EE02F04550D9264650DA22DE50050159
:100D40009C19D8A4C0D620EE03F04550D9264650B1
:100D5000DA229B51DE18D8A4B6D6CED645C530F5DA
:100D600046C531F5030E326E010E336EABECA8F0C2
:100D7000E806D8B4A8D620EE02F04550D926465051
:100D8000DA22DE5005019C19D8A49DD620EE03F08E
:100D90004550D9264650DA229B51DE18D8A493D666
:100DA000B7B117D09CC525F59BC526F5020E276E59
:100DB0006F0E6BECAFF09CC525F59BC526F5550E67
:100DC000276E040E286E020E296EAF0EAAECAFF04D
:100DD0007AD6E7ECAEF0CAD645C530F546C531F552
:100DE000030E326E000E336EABECA8F0E806D8B4FA
:100DF0006AD620EE02F04550D9264650DA22DE505F
:100E000005019C19D8A45FD620EE03F04550D926E1
:100E10004650DA229B51DE18D8A455D6E1ECB0F04A
:100E200052D645C530F546C531F5030E326E000E7B
:100E3000336EABECA8F0E806D8B445D620EE02F04D
:100E40004550D9264650DA22DE5005019C19D8A417
:100E50003AD620EE03F04550D9264650DA229B516F
:100E6000DE18D8A430D6C2ECADF02DD645C530F58D
:100E700046C531F5030E326E000E336EABECA8F0B2
:100E8000E806D8B420D620EE02F04550D9264650C8
:100E9000DA22DE5005019C19D8A415D620EE03F005
:100EA0004550D9264650DA229B51DE18D8A40BD6DD
:100EB000A5ECADF008D645C530F546C531F5040EB4
:100EC000326E000E336EABECA8F0E806D8B4FBD55A
:100ED00020EE02F04550D9264650DA22DE500501B8
:100EE0009C19D8A4F0D520EE03F04550D9264650E1
:100EF000DA229B51DE18D8A4E6D520EE04F0455046
:100F0000D9264650DA22DF506BECA5F0DCD545C57A
:100F100030F546C531F5050E326E000E336EABEC82
:100F2000A8F0E806D8B4CFD520EE02F04550D92677
:100F30004650DA22DE5005019C19D8A4C4D520EE13
:100F400003F04550D9264650DA229B51DE18D8A42A
:100F5000BAD520EE05F04550D9264650DA22DF50AA
:100F60002B6E20EE04F04550D9264650DA22DF5091
:100F700017ECA1F0A8D545C530F546C531F5080EEA
:100F8000326E010E336EABECA8F0E806D8B49BD5F8
:100F900020EE03F04550D9264650DA22DF50476E46
:100FA00020EE02F04550D9264650DA22DF50486E36
:100FB00047503E6E48C53FF520EE05F04550D92616
:100FC0004650DA22DF504A6E20EE04F04550D92612
:100FD0004650DA22DF504B6E4A50406E4BC541F509
:100FE00020EE07F04550D9264650DA22DF50426EF7
:100FF00020EE08F04550D9264650DA22DF50436EE5
:101000000FEC9FF060D520EE01F04550D9264650F8
:10101000DA22DF50476E486A4850000AD8A4A6D5A5
:101020004750530AD8B442D5070AD8B474D6010A37
:10103000D8B494D6030AD8B4F4D6010AD8B4CCD61E
:101040000F0AD8B413D72A0AD8B435D7040AD8B4AB
:1010500055D5E30AD8B4E1D5090AD8B458D72E0A31
:10106000D8B416D6600AD8B483D5270AD8B483D7A3
:101070007DD520EE01F00E50D9260F50DA22DF5038
:101080008EECB0F00009D8B4A5D0080EC8ECA6F0DC
:101090000009D8B49FD0CE0E026E050E036E2CEC64
:1010A0009CF002C518F503C519F518501910D8A4FD
:1010B00006D00601E14BE22B6EECB1F07AD020EEC7
:1010C00001F00E50D9260F50DA2210EE01F0185020
:1010D000E1261950E222DFC4E7F40EC5D9F40FC5AA
:1010E000DAF418C5E1F419C5E2F4DFC4E7F420EE40
:1010F00002F00E50D9260F50DA2210EE02F01850EE
:10110000E1261950E222DFC4E7F420EE03F00E508E
:10111000D9260F50DA2210EE03F01850E1261950AC
:10112000E222DFC4E7F420EE04F00E50D9260F507F
:10113000DA2210EE04F01850E1261950E222DFC442
:10114000E7F420EE05F00E50D9260F50DA2210EE0B
:1011500005F01850E1261950E222DFC4E7F420EE32
:1011600006F00E50D9260F50DA2210EE06F0185075
:10117000E1261950E222DFC4E7F420EE07F00E501A
:10118000D9260F50DA2210EE07F01850E126195038
:10119000E222DFC4E7F420EE08F00E50D9260F500B
:1011A000DA2210EE08F01850E1261950E222DFC4CE
:1011B000E7F421ECAAF0106E1050166E176A165064
:1011C0000601F55D1750F659D8B004D016C5F5F6EE
:1011D00017C5F6F601016CB106D00601DB4BDC2B1E
:1011E0006EECB1F012006CAD03D00601E94BEA2BB6
:1011F0000501B251D8A407D0AF51D8A404D0010E34
:10120000AF6F010EB26F70C11AF571C11BF5B2C597
:1012100010F57F0E101620EE01F00E50D9260F505B
:10122000DA22DF50116E126A230E1124F66EFE0EC2
:101230001220F76EF86A000EF8220800F550136EBF
:10124000146A400E1324F66EFF0E1420F76EF86A2F
:10125000000EF8220800F5C415F5010E1516000E53
:1012600015B0800E156E155010101AC5D9F41BC597
:10127000DAF4DF6E20EE01F01A50D9261B50DA2284
:1012800010EE01F00E50E1260F50E222E750106EF2
:10129000116A230E1024F66EFE0E1120F76EF86A06
:1012A000000EF8220800F550126E136A400E122448
:1012B000F66EFF0E1320F76EF86A000EF822080093
:1012C000F5C414F5D8901430DF6E20EE04F01A50F7
:1012D000D9261B50DA220EC5E1F40FC5E2F4E7501F
:1012E0000F0BDF6E20EE05F01A50D9261B50DA22C4
:1012F000DF6A20EE06F01A50D9261B50DA22DF6A88
:1013000020EE07F01A50D9261B50DA22DF6A20EEB1
:1013100001F00E50D9260F50DA2210EE08F01A50C4
:10132000E1261B50E222DFC4E7F420EE02F00E506B
:10133000D9260F50DA2210EE09F01A50E1261B5080
:10134000E222DFC4E7F420EE03F00E50D9260F505E
:10135000DA2210EE0AF01A50E1261B50E222DFC416
:10136000E7F420EE04F00E50D9260F50DA2210EEEA
:101370000BF01A50E1261B50E222DFC4E7F420EE06
:1013800005F00E50D9260F50DA2210EE0CF01A504C
:10139000E1261B50E222DFC4E7F420EE06F00E50F7
:1013A000D9260F50DA2210EE0DF01A50E1261B500C
:1013B000E222DFC4E7F420EE07F00E50D9260F50EA
:1013C000DA2210EE0EF01A50E1261B50E222DFC4A2
:1013D000E7F420EE08F00E50D9260F50DA2210EE76
:1013E0000FF01A50E1261B50E222DFC4E7F4060199
:1013F000DD4BDE2B01016981DBECA8F0106E105093
:10140000166E176A16500601F35D1750F459D8B0DE
:1014100004D016C5F3F617C5F4F60501B251D8A4E9
:1014200004D0010E29ECABF0120001016983120017
:101430005404D8A438D04EECAAF005017051025CD7
:101440002B6E715103582C6E725104582D6E7351CE
:1014500005582E6E2E5008E1B50E2B5CC40E2C588C
:10146000040E2D58D8A01FD0B7A50FD09CC525F5C8
:101470009BC526F5A9C527F5BCC528F5000E296E24
:10148000AB0EAAECAFF00501A92B4EECAAF002C5F9
:1014900070F503C571F504C572F505C573F5050151
:1014A000BC51D8A4BC070501AC51B719D8B40DD0B4
:1014B000F90E106E030E116E000E126EB7C513F505
:1014C000000EC8ECABF0B7C5ACF50501AD51541832
:1014D000D8B413D05428D8B403D05404D8A40BD013
:1014E000FB0E106E030E116E000E126E54C513F536
:1014F000000EC8ECABF054C5ADF54EECAAF00501FA
:101500006C51025C2B6E6D5103582C6E6E51045859
:101510002D6E6F5105582E6E2E502D1006E1250EA2
:101520002B5CF40E2C58D8A049D14EECAAF002C581
:101530006CF503C56DF504C56EF505C56FF50501C0
:10154000C04BC12BC051C111D8A438D1BE4BBF2B49
:1015500035D1CEA60BD04EECAAF002C574F503C56A
:1015600075F504C576F505C577F512004EECAAF0C1
:1015700005017451025C2B6E755103582C6E765127
:1015800004582D6E775105582E6E2E5008E1910E9D
:101590002B5CD00E2C58030E2D58D8A01200FD0E37
:1015A000546EAB69CFECAEF01200CEA6D4D7000ECD
:1015B000546EAB694EECAAF002C574F503C575F51F
:1015C00004C576F505C577F59CC525F59BC526F5BB
:1015D000500E80ECAFF0CFECAEF0BDD7CEA670D001
:1015E0004EECAAF005017451025C2B6E7551035844
:1015F0002C6E765104582D6E775105582E6E2E5054
:101600002D1006E1250E2B5CF40E2C58D8A02ED000
:101610004EECAAF005017451025C2B6E7551035813
:101620002C6E765104582D6E775105582E6E2E5023
:101630001DE1480E2B5CE80E2C58010E2D58D8B039
:1016400015D0ABC554F55404D8A40ED099C59BF55C
:101650009AC59CF59CC525F59BC526F5520E80ECD8
:10166000AFF00501C44BC52BCFECAEF04EECAAF0A9
:1016700005017451025C2B6E755103582C6E765126
:1016800004582D6E775105582E6E2E5008E1910E9C
:101690002B5CD00E2C58030E2D58D8A003D05468C4
:1016A000CFECAEF04EECAAF002C574F503C575F5AB
:1016B00004C576F505C577F5000E0501AA6F120081
:1016C000010EAA6F1200CEA6FBD7AA51D8B446D0FD
:1016D0004EECAAF005017451025C2B6E7551035853
:1016E0002C6E765104582D6E775105582E6E2E5063
:1016F0002D1006E1250E2B5CF40E2C58D8A02ED010
:101700004EECAAF005017451025C2B6E7551035822
:101710002C6E765104582D6E775105582E6E2E5032
:101720001DE1480E2B5CE80E2C58010E2D58D8B048
:1017300015D09BC599F59CC59AF5000E9C6F9CC56C
:101740009BF5000E546E010EAB6F9AC525F599C539
:1017500026F5500E80ECAFF0CFECAEF00501AA51AB
:10176000D8B4A0D74EECAAF005017451025C2B6EE0
:10177000755103582C6E765104582D6E77510558CB
:101780002E6E2E5008E1900E2B5CD00E2C58030EBE
:101790002D58D8A087D79BC599F59CC59AF5000E02
:1017A0009C6F9CC59BF55468010EAB6F9AC525F5DF
:1017B00099C526F5510E80ECAFF072D75450000A4F
:1017C000D8B40CD7FD0AD8B4F0D6020AD8B4C1D622
:1017D0007AD74EECAAF005016451025C506E655157
:1017E0000358516E66510458526E67510558536E36
:1017F000A051026E036A046A056A3E0E066E000E70
:10180000076E000E086E000E096EFEECAAF0505036
:10181000025C515003585250045853500558D8B0E8
:101820000CD0B1ECA4F04EECAAF002C564F503C5EF
:1018300065F504C566F505C567F54EECAAF005012A
:101840006051025C506E61510358516E62510458F0
:10185000526E63510558536E5350521006E1250ED7
:10186000505CF40E5158D8A00CD098ECA9F04EEC76
:10187000AAF002C560F503C561F504C562F505C5AA
:1018800063F5000E0701036F0351020D230EF324CD
:10189000F66EFF0EF420F76EF86A000EF8220900CB
:1018A000F5500900F510D8B44DD00351020D230EA8
:1018B000F324F66EFF0EF420F76EF86A000EF8229D
:1018C0000900F5C450F50900F5C451F50B0E50267A
:1018D000000E512250C5F6F451C5F7F4000EF86E13
:1018E0000900F5500900F5100900F510D8B42AD008
:1018F0000351020D230EF324F66EFF0EF420F76E53
:10190000F86A000EF8220900F5C450F50900F5C484
:1019100051F50B0E5026000E512250C5F6F451C55C
:10192000F7F4000EF86E01D80DD00500FA6E09002C
:10193000F550FD6E0900F550FE6E0900F550FF6E82
:10194000FA5012000701032B080E03659DD701EC26
:101950008FF0000E0701026F05019D519E11D8B452
:10196000C4D0030E9D25506E000E9E21516E50C5B1
:10197000F6F451C5F7F4000EF86E0900F5500900B1
:10198000F5100900F510D8B4B0D0040E116E070E92
:10199000126E030E9D25506E000E9E21516E50C595
:1019A000F6F451C5F7F4000EF86E01D80DD005001D
:1019B000FA6E0900F550FD6E0900F550FE6E090043
:1019C000F550FF6EFA5012000009D8B48ED007010E
:1019D0000451D8B48AD0070E40EC9BF0040E0701E6
:1019E000006F070E016FB1EC9EF00701026F02510C
:1019F000D8A47BD0000E036F0351020D230EF324F5
:101A0000F66EFF0EF420F76EF86A000EF822090059
:101A1000F5500900F510D8B458D00351020D230E2B
:101A2000F324F66EFF0EF420F76EF86A000EF8222B
:101A30000900F5C450F50900F5C451F5080E50260B
:101A4000000E512250C5F6F451C5F7F4000EF86EA1
:101A50000900F5500900F5100900F510D8B435D08B
:101A6000040E456E070E466E0351020D230EF3243D
:101A7000F66EFF0EF420F76EF86A000EF8220900E9
:101A8000F5C450F50900F5C451F5080E5026000EB6
:101A9000512250C5F6F451C5F7F4000EF86E01D886
:101AA0000DD00500FA6E0900F550FD6E0900F550E5
:101AB000FE6E0900F550FF6EFA501200E806D8A439
:101AC00004D0010E0701026F05D00701032B080E99
:101AD000036592D70251D8A408D0040E026E070EF7
:101AE000036E96ECB1F00701026F07010251D8B402
:101AF00012000501C64BC72B080E40EC9BF01200EC
:101B000045C5D9F446C5DAF4030EDF6002D0000EF5
:101B1000120020EE02F04550D9264650DA22DE505F
:101B200005019C19D8A4F3D720EE03F04550D9261F
:101B30004650DA229B51DE18D8A4E9D74AD145C5D0
:101B4000D9F446C5DAF4040EDF601BD09CC525F538
:101B50009BC526F5010E276E6F0E6BECAFF09CC592
:101B600025F59BC526F5710E276E010E286E010E18
:101B7000296EAF0EAAECAFF00501CC4BCD2B010EB8
:101B8000120020EE04F04550D9264650DA22DF50EC
:101B9000FCECADF002C549F503C54AF54AAE19D0D3
:101BA0009CC525F59BC526F549500008276E6F0E8C
:101BB0006BECAFF09CC525F59BC526F5710E276E25
:101BC000010E286E49500008296EAF0EAAECAFF046
:101BD000D3D70501CA4BCB2B9CC525F59BC526F554
:101BE00020EE04F04550D9264650DA22DF50276E09
:101BF00049C528F5970EBFECAFF020EE04F0455034
:101C0000D9264650DA22DF50D8A4B9D7020E90EC7C
:101C1000A6F0066ED20E076E5A0E086E010E096E01
:101C2000060E08ECADF0ABD745C5D9F446C5DAF4DD
:101C3000050EDF600ED09CC525F59BC526F5960EDA
:101C4000276E010E286E010E296EAF0EAAECAFF0C2
:101C500093D720EE05F04550D9264650DA22DF50C2
:101C6000176E20EE04F04550D9264650DA22DF5098
:101C7000A6ECA5F0476E4750496E4A6A4ABE0FD09F
:101C80004A5003E14904D8A00AD09CC525F59BC55C
:101C900026F549C527F56F0E6BECAFF06DD79CC5E7
:101CA00025F59BC526F5590E80ECAFF09CC525F5B2
:101CB0009BC526F5960E276E010E286E000E296E26
:101CC000AF0EAAECAFF05BD745C5D9F446C5DAF440
:101CD000050EDF600ED09CC525F59BC526F58E0E42
:101CE000276E010E286E010E296EAF0EAAECAFF022
:101CF00043D720EE05F04550D9264650DA22DF5072
:101D0000176E20EE04F04550D9264650DA22DF50F7
:101D1000A6ECA5F0476E4750496E4A6A4ABE1CD0F1
:101D20004A5003E14904D8A017D09CC525F59BC5AE
:101D300026F549C527F56F0E6BECAFF09CC525F570
:101D40009BC526F58E0E276E010E286E49C529F516
:101D5000AF0EAAECAFF010D720EE04F04550D92614
:101D60004650DA22DF50FCECADF002C549F503C560
:101D70004AF54AAE19D09CC525F59BC526F54950B4
:101D80000008276E6F0E6BECAFF09CC525F59BC568
:101D900026F58E0E276E010E286E49500008296E1A
:101DA000AF0EAAECAFF0E8D69CC525F59BC526F58D
:101DB00020EE04F04550D9264650DA22DF50276E37
:101DC00049C528F5970EBFECAFF00501CA4BCB2BE8
:101DD000D6D620EE01F04550D9264650DA22DF5003
:101DE000476E486A4850000AD8A491D64750710AF5
:101DF000D8B4A5D6FF0AD8B467D7180AD8B414D770
:101E000086D64EECAAF005016851025C0C6E695151
:101E100003580D6E6A5104580E6E6B5105580F6EC3
:101E20000F500E1006E1720E0C5C020E0D58D8A079
:101E300069D0932B942B4EECAAF002C568F503C52C
:101E400069F504C56AF505C56BF55CD0BF8C000E5D
:101E5000946FDCD0BF9CFBD794C502F5036A000EDB
:101E6000056E190E046EEDECA3F0023A024602462E
:101E7000BF500218BF0B0218BF6E310E05019465EA
:101E8000C5D0E5D794C502F5036A000E056E320E83
:101E9000046EEDECA3F0023A02460246BF5002186F
:101EA000BF0B0218BF6E630EE9D794C502F5036A33
:101EB000000E056E640E046EEDECA3F0023A0246CD
:101EC0000246BF500218BF0B0218BF6EC70ED6D70E
:101ED000BF8C180E94659AD0000E946F000E07D038
:101EE000BF9C180E946592D0000E946F010E966FF1
:101EF0008DD0BF8C310EEED7BF9C310EF3D7BF9C77
:101F0000630EF0D7050196510C6E0D6A0D50000A54
:101F1000D8A47CD00C50000AD8B49CD7010AD8B4FD
:101F200095D7030AD8B498D7010AD8B4ABD7070A13
:101F3000D8B4BBD7010AD8B4D3D7030AD8B4C8D70A
:101F4000010AD8B4D9D70F0AD8B4D3D7010AD8B464
:101F5000D6D75CD0BF8E000E936F1200BF9EFBD70A
:101F600093C502F5036A000E056E190E046EEDECC2
:101F7000A3F002320232BF5002187F0B0218BF6E6C
:101F8000310E050193651200E6D793C502F5036A89
:101F9000000E056E320E046EEDECA3F0023202323A
:101FA000BF5002187F0B0218BF6E630EEAD793C5AD
:101FB00002F5036A000E056E640E046EEDECA3F0EC
:101FC00002320232BF5002187F0B0218BF6EC70EDA
:101FD000D8D7BF8E180E0FD0000E936F000E956FDE
:101FE0001200BF9E180E0CD0000E936F010E956F5D
:101FF0001200BF8E310E93651200EED7BF9E310ED8
:1020000093651200F1D7BF9E630EFAD795510C6EFF
:102010000D6A0D50000AD8A412000C50000AD8B462
:102020009DD7010AD8B496D7030AD8B499D7010A24
:10203000D8B4ABD7070AD8B4BAD7010AD8B4D1D725
:10204000030AD8B4C6D7010AD8B4D8D70F0AD8B46F
:10205000D0D7010AD8A41200D6D7F3D045C5D9F4F9
:1020600046C5DAF4050EDF600BD09CC525F59BC58F
:1020700026F5010E276E6F0E6BECAFF0010E12000D
:1020800020EE01F04550D9264650DA22920EDE1895
:10209000D8A42BD020EE03F04550D9264650DA22A2
:1020A000DF50476E20EE02F04550D9264650DA2226
:1020B000DF50486E4750196E48C51AF520EE05F0FE
:1020C0004550D9264650DA22DF504A6E20EE04F001
:1020D0004550D9264650DA22DF504B6E4A501B6ECF
:1020E0004BC51CF5EFECABF01AD0000E1A6E000ECB
:1020F000196E20EE05F04550D9264650DA22DF5001
:10210000476E20EE04F04550D9264650DA22DF50C3
:10211000486E47501B6E48C51CF5EFECABF04D6E9A
:102120004D28D8B4ABD720EE01F04550D926465003
:10213000DA22920EDE18D8A44ED04D5081ECACF0CD
:10214000E806D8A424D020EE02F04550D926465007
:10215000DA22DF50256E20EE03F04550D926465096
:10216000DA22DF50266E20EE04F04550D926465084
:10217000DA22DF50276E20EE05F04550D926465072
:10218000DA22DF50286E930EBFECAFF077D720EE47
:1021900002F04550D9264650DA22DF50256E20EE57
:1021A00003F04550D9264650DA22DF50266E20EE45
:1021B00004F04550D9264650DA22DF50276E20EE33
:1021C00005F04550D9264650DA22DF50286E940E8D
:1021D000BFECAFF053D74D5081ECACF0E806D8A47B
:1021E00018D09CC525F59BC526F520EE04F045507A
:1021F000D9264650DA22DF50276E20EE05F04550F2
:10220000D9264650DA22DF50286E9D0EBFECAFF083
:1022100035D79CC525F59BC526F520EE04F0455025
:10222000D9264650DA22DF50276E20EE05F04550C1
:10223000D9264650DA22DF50286E9E0EBFECAFF052
:102240001DD720EE01F04550D9264650DA22DF5046
:10225000476E486A4850000AD8A407D04750920AEF
:10226000D8B4FCD6080AD8B4F9D6000E120023C59B
:1022700019F524C51AF525C51BF526C51CF5EFEC87
:10228000ABF0366E3628D8A4CAD0040E0501AE6F66
:10229000000E366EFD0E366401D0BBD0365038ECE1
:1022A000A7F00EC533F50FC534F533503410D8A45C
:1022B000AED03650120DF3C42AF5F4C42BF52C6AB7
:1022C000010E2A24106EE80E2B20116E010E2C2018
:1022D000126E23C513F5010EC8ECABF03650120D8B
:1022E000F3C42AF5F4C42BF52C6A000E2A24106ED0
:1022F000E80E2B20116E010E2C20126E2450136E4E
:10230000010EC8ECABF03650120DF3C42AF5F4C43C
:102310002BF52C6A030E2A24106EE80E2B20116E6A
:10232000010E2C20126E25C513F5010EC8ECABF082
:102330003650120DF3C42AF5F4C42BF52C6A020EA4
:102340002A24106EE80E2B20116E010E2C20126E26
:102350002650136E010EC8ECABF02950D8B416D03D
:102360003650120DF3C42AF5F4C42BF52C6A040E72
:102370002A24106EE80E2B20116E010E2C20126EF6
:10238000010E136E010EC8ECABF015D03650120DD5
:10239000F3C42AF5F4C42BF52C6A040E2A24106E1B
:1023A000E80E2B20116E010E2C20126E000E136E03
:1023B000010EC8ECABF0000E356E35502A6E2B6A5C
:1023C0002C6A3650120DF3C42DF5F4C42EF52F6A85
:1023D0002A502D24306E2B502E20316E2C502F2061
:1023E000326E050E3024106EE80E3120116E010E93
:1023F0003220126E000E136E010EC8ECABF0352ABF
:102400000C0E3564DAD7000E0501AE6F02D0362A05
:1024100041D70501AE51D8B402D0FF0E120027C536
:1024200017F528C518F536503AECA9F00009D8B4CC
:1024300004D0060E0501AE6FF0D798ECA9F0365027
:10244000120020EE01F04550D9264650DA22760ED1
:10245000DE18D8A43CD045C530F546C531F5040E8C
:10246000326E2FECB1F0E806D8A402D0010E1200B3
:1024700020EE02F04550D9264650DA22DE50050102
:102480009C19D8A422D020EE03F04550D9264650FE
:10249000DA229B51DE18D8A418D020EE04F0455063
:1024A000D9264650DA220A0EDE18D8A402D0B78107
:1024B000DDD720EE04F04550D9264650DA220B0E27
:1024C000DE18D8A402D0B791D1D7000E12000501B2
:1024D000B7A3FBD7060E03ECA2F002500310D8B44A
:1024E000F4D745C5D9F446C5DAF4050EDF6001D04E
:1024F000ECD720EE02F04550D9264650DA22DF50C4
:102500004D6E20EE03F04550D9264650DA22DF50BA
:102510004C6E20EE04F04550D9264650DA22DF50AA
:102520004A6E20EE05F04550D9264650DA22DF509B
:10253000496E17D04CC519F54DC51AF54CC51BF59C
:102540004DC51CF5EFECABF00AD0000E1A6E000E74
:10255000196E4CC51BF54DC51CF5EFECABF04B6E81
:102560001BD020EE01F04550D9264650DA22DF502C
:10257000476E486A4850000AD8A4A7D74750900A27
:10258000D8B4D8D7010AD8B4D5D7090AD8B4DDD77A
:10259000010AD8B4DAD799D74B28D8B496D74B507C
:1025A00079ECB1F00009D8B490D79CC525F59BC54E
:1025B00026F520EE01F04550D9264650DA22DF50AC
:1025C000276E20EE02F04550D9264650DA22DF5021
:1025D000286E20EE03F04550D9264650DA22DF500F
:1025E000296E20EE04F04550D9264650DA22DF50FD
:1025F0002A6E20EE05F04550D9264650DA22DF50EB
:102600002B6EE60E95ECAFF00501E14BE22B5DD7AA
:10261000D0C432F5030E3216D8903236D890323408
:10262000376ECF50030B37127D0E0501B625D96EDC
:10263000DA6A060EDA22DF503718346E000E386E72
:1026400038C532F5010E336E322A02D0D8903336B7
:10265000322EFCD7335034140009D8B4A8D038C572
:1026600032F5010E336E322A02D0D8903336322E34
:10267000FCD7335037140009D8B402D0010E01D072
:10268000000E3A6E0501B651040DF35038243B6E2E
:10269000B7A10ED09CC525F59BC526F5000E276E6B
:1026A000000E286E3B28296EB30EAAECAFF07FD047
:1026B0003B504EECB1F0356E3528D8B478D072C6A8
:1026C00039F5010E366E39A002D0010E07D039A4BB
:1026D00002D0020E03D039A602D0030E366E0501D9
:1026E000B7A102D0010E366E3650D8A43CD05FD0D0
:1026F00039A207D03A50D8A402D0010E01D0000E62
:102700003A6E400E3B24D96EDA6A060EDA223AC5DA
:10271000DFF433D039A204D03A50D8A448D0F1D74E
:102720003A50D8B444D0EDD73A50D8B440D0400E47
:102730003B24D96EDA6A060EDA22400E3B24E16EA3
:10274000E26A060EE222E750D8A402D0010E01D0C0
:10275000000EDF6E400E3B24D96EDA6A060EDA22D6
:10276000DF503A6E0AD03650010AD8B4C1D7030AF6
:10277000D8B4D0D7010AD8B4D7D73B50106E116A5D
:10278000126A400E3B24D96EDA6A060EDA22DF5056
:10279000136E000EC8ECABF00501B951D8B407D0E8
:1027A0003AC52AF539C52BF5355046ECA8F0382A3C
:1027B000030E386445D77D0E0501B625D96EDA6A59
:1027C000060EDA2237C5DFF4B62B070EB66504D045
:1027D000010EB96F000EB66F52ECABF01200396EFD
:1027E0009BC523F59CC524F539C525F5266A000E41
:1027F000276E010E286E010E296E37EC91F09BC5F5
:1028000023F59CC524F539C525F5266A010E276EEA
:1028100039C528F5010E296E37EC91F09BC523F5DB
:102820009CC524F539C525F5266A020E276E180EBB
:10283000286E010E296E37EC91F09BC523F59CC5DF
:1028400024F539C525F5266A040E276E39C537F5F6
:10285000FF0E3726010E386E372A02D0D890383650
:10286000372EFCD73850286E010E296E37EC91F0C8
:102870009BC523F59CC524F539C525F5266A050EAB
:10288000276E39C537F5F70E3726010E386E372A11
:1028900002D0D8903836372EFCD73850286E010E2B
:1028A000296E37EC91F09BC523F59CC524F539C5FD
:1028B00025F5266A060E276E39C537F5EF0E372641
:1028C000010E386E372A02D0D8903836372EFCD712
:1028D0003850286E010E296E37EC91F09BC523F518
:1028E0009CC524F539C525F5266A070E276E39C51E
:1028F00037F5E70E3726010E386E372A02D0D8900A
:102900003836372EFCD73850286E010E296E37EC3A
:1029100091F09BC523F59CC524F539C525F5266A9C
:10292000080E276E000E286E010E296E37EC91F00E
:102930009BC523F59CC524F539C525F5266A090EE6
:10294000276E000E286E010E296E37EC91F09BC5A4
:1029500023F59CC524F539C525F5266A0A0E276E90
:10296000000E286E010E296E37EC91F09BC523F501
:102970009CC524F539C525F5266A0B0E276E000E79
:10298000286E010E296E37EC91F09BC523F59CC58E
:1029900024F539C525F5266A0C0E276EFF0E286E24
:1029A000010E296E37EC91F01200CE0E026E050E6C
:1029B000036E71ECA0F002C515F503C516F51550B0
:1029C0001610D8B410D011C502F512C503F515C5FF
:1029D00004F516C505F5000E076E090E066E5FECD0
:1029E000ACF0010E1200010178B102D0000E12000D
:1029F00021ECAAF0136E1350176E186A17500601D7
:102A0000F55D1850F659D8B004D017C5F5F618C5BD
:102A1000F6F67CC119F57DC11AF519C5D9F41AC5A8
:102A2000DAF4DF507F0B146E145068ECA3F006014B
:102A3000E34BE42B20EE04F01950D9261A50DA2289
:102A4000DFAA04D0030E01015D1315D020EE04F0BF
:102A50001950D9261A50DA22DF500F0B11C5D9F4BC
:102A600012C5DAF4DF6E11C5D9F412C5DAF4DF50FD
:102A7000D8A403D001017581B9D720EE08F0195010
:102A8000D9261A50DA2210EE01F01150E126125028
:102A9000E222DFC4E7F420EE09F01950D9261A50DB
:102AA000DA2210EE02F01150E1261250E222DFC4C9
:102AB000E7F420EE0AF01950D9261A50DA2210EE67
:102AC00003F01150E1261250E222DFC4E7F420EEB9
:102AD0000BF01950D9261A50DA2210EE04F01150DA
:102AE000E1261250E222DFC4E7F420EE0CF0195088
:102AF000D9261A50DA2210EE05F01150E1261250B4
:102B0000E222DFC4E7F420EE0DF01950D9261A5066
:102B1000DA2210EE06F01150E1261250E222DFC454
:102B2000E7F420EE0EF01950D9261A50DA2210EEF2
:102B300007F01150E1261250E222DFC4E7F420EE44
:102B40000FF01950D9261A50DA2210EE08F0115061
:102B5000E1261250E222DFC4E7F40101758141D77A
:102B60001E6E20EE01F01950D9261A50DA22DFB07D
:102B700002D0010E01D0000E226E1E50A5ECA7F06F
:102B80000009D8B402D0010E12002250D8B40AD0E5
:102B9000020E06017019D8B403D0030E7019D8B410
:102BA000FDECB0F07CC61FF5000E236E23C502F5C8
:102BB000036A000E056E080E046EEDECA3F0740EB1
:102BC0000224D96E060E0320DA6EDF501B6E23C579
:102BD0001CF5070E1C16010E1D6E1C2A02D0D89083
:102BE0001D361C2EFCD71D501B14206E2050D8B44F
:102BF0008BD023C502F5036A000E056E080E046E25
:102C0000EDECA3F0780E0224D96E060E0320DA6EE6
:102C1000DF501B6E23C51CF5070E1C16010E1D6E22
:102C20001C2A02D0D8901D361C2EFCD71D501B1418
:102C3000216E5DD02150D8B40FD02250D8B406D028
:102C4000010E0E6E2350D3ECAAF05ED0000E0E6E75
:102C50002350D3ECAAF058D02250D8B406D0000E9E
:102C60000E6E2350D3ECAAF04FD0010E0E6E2350FF
:102C7000D3ECAAF049D02250D8B446D02150D8B4D1
:102C800006D0010E0E6E2350D3ECAAF03DD0000EFC
:102C90000E6E2350D3ECAAF037D02250D8A434D0F3
:102CA0002150D8B406D0000E0E6E2350D3ECAAF0FB
:102CB0002BD0010E0E6E2350D3ECAAF025D022505B
:102CC000D8B40FD02150D8B406D0030E0E6E2350C6
:102CD000D3ECAAF019D0020E0E6E2350D3ECAAF05A
:102CE00013D0010E0E6E2350D3ECAAF00DD01F505E
:102CF000F80AD8B4E4D7050AD8B4CFD7030AD8B4B1
:102D0000BAD7010AD8B496D7232A1F0E23644ED708
:102D10003AD7000E0501D06F000ED16F890ECE6F2D
:102D2000060ECF6F080ED26FFE0E086E030E096EF0
:102D3000000E0A6E000E69ECA9F008C50EF509C573
:102D40000FF50FAE04D0000E0501B26F02D00EC514
:102D5000B2F5000E0F6E010E0E6ED8900E34D96EC5
:102D60000F34DA6ED10ED926060EDA22DE6ADD6A5B
:102D70000E4A0F2A0FBEF1D70F5004E1120E0E5C5F
:102D8000D8A0EBD7000E0601D26F120ED16F000E45
:102D90000501B16F460E02010B6F0B0E3D6FC7941C
:102DA000C786000E0301676F0101018F040E3AEC24
:102DB000ACF00009D8A44ED0B00E01014C6F3B0E10
:102DC0004D6F000E4E6F000E4F6F000E006F870E9E
:102DD000016F100E026F500E036F000E046F030E92
:102DE000056F020E066F3F0E076F100E506F040E38
:102DF000516F6F0E526F030E536F800E5C6F040E97
:102E00005D6F6F0E5E6F000E5F6F800E686F040E59
:102E1000696F600E6A6F1F0E6B6F080E746F040E81
:102E2000756F000E766F1F0E776F000E8C6F000EA1
:102E30008D6F000E8E6F000E8F6F000E906F000E64
:102E4000916F000E926F400E936F830E806F060E8F
:102E50003AECACF06FECA7F0000E0501AF6F4EEC52
:102E6000AAF002C578F503C579F504C57AF505C55C
:102E70007BF50301629DAE9C01011E811F871F8FA0
:102E80009E8C120091D04EECAAF005017851025CA4
:102E9000186E79510358196E7A5104581A6E7B5185
:102EA00005581B6E1B501A1006E1D50E185C300E2B
:102EB0001958D8A01200000E29ECABF012004EEC0D
:102EC000AAF005017851025C186E79510358196E09
:102ED0007A5104581A6E7B5105581B6E1B501A10FC
:102EE00006E16B0E185C180E1958D8A01200000EDF
:102EF0001E6E01D01E2A600E1E24D96EDA6A060EDE
:102F0000DA22DE28D8A403D00F0E1E64F3D7600E99
:102F10001E24D96EDA6A060EDA22DF501C6E1C28D7
:102F2000D8B417D01E50080DF3C41DF503D0D890A7
:102F30001C321D2A1CB0FBD71D50D8B40AD0640E19
:102F40001D6007D01DC5B2F50501B25184ECAEF08D
:102F500005D00601F14BF22B6EECB1F0030E05012A
:102F6000AF19D8A41DD0000E1E6E1E50186E196A1F
:102F7000183A193AF00E191618500F0B1912F00ED4
:102F80001816000E1824D96E3C0E1920DA6EB251B4
:102F90007F0BDF6E1E2A1F0E1E64E7D701016983B7
:102FA000000E0501AF6F12000501AF51186E196ACE
:102FB0001950000AD8A412001850010AD8B463D7D7
:102FC000030AD8B47CD7010AD8A4120078D7206E9F
:102FD0002050120DF3C417F5F4C418F5196A000E49
:102FE0001724106EE80E1820116E010E1920126EB3
:102FF000000E136E010EC8ECABF02050120DF3C49E
:1030000017F5F4C418F5196A010E1724106EE80EAE
:103010001820116E010E1920126E000E136E010E93
:10302000C8ECABF02050120DF3C417F5F4C418F53A
:10303000196A020E1724106EE80E1820116E010E88
:103040001920126E000E136E010EC8ECABF020506A
:10305000120DF3C417F5F4C418F5196A030E1724FA
:10306000106EE80E1820116E010E1920126E000E5F
:10307000136E010EC8ECABF02050120DF3C417F51F
:10308000F4C418F5196A040E1724106EE80E1820FF
:10309000116E010E1920126E000E136E010EC8EC97
:1030A000ABF0000E1F6E1F50176E186A050E172624
:1030B000000E18222050120DF3C419F5F4C41AF5AD
:1030C0001B6A175019241C6E18501A201D6E000E12
:1030D00018BEFF0E1B201E6E000E1C24106EE80E84
:1030E0001D20116E010E1E20126E000E136E010EB9
:1030F000C8ECABF01F2A0C0E1F64D5D798ECA9F0D2
:10310000000E120045C5D9F446C5DAF4050EDF609D
:1031100002D0000E120020EE03F04550D926465092
:10312000DA22DF50476E20EE02F04550D926465095
:10313000DA22DF50486E47504A6E48C54BF505D03D
:10314000000E4B6E000E4A6E3FD020EE01F045504F
:10315000D9264650DA22DF50476E486A4850000AA6
:10316000D8A4D7D74750900AD8B42ED0010AD8B4E3
:103170002BD0090AD8B4E4D7010AD8B4E1D7290A78
:10318000D8B422D0010AD8B41FD0090AD8B4D8D7ED
:10319000010AD8B4D5D7690AD8B416D0010AD8B470
:1031A00013D0090AD8B4CCD7010AD8B4C9D7290A90
:1031B000D8B40AD0010AD8B407D0090AD8B4C0D705
:1031C000010AD8B4BDD7A5D74AC519F54BC51AF51C
:1031D00020EE05F04550D9264650DA22DF50476EE2
:1031E00020EE04F04550D9264650DA22DF50486ED2
:1031F00047501B6E48C51CF5EFECABF04D6E4D28EB
:10320000D8B487D74D5079ECB1F00009D8B481D744
:1032100045C519F546C51AF54D50B0EC95F04C6E04
:103220004C04D8A403D00501DD4BDE2B4C5012001A
:103230002CC519F52DC51AF52EC51BF52FC51CF586
:10324000EFECABF0336E3328D8A417D09CC525F52E
:103250009BC526F5070E276E6F0E6BECAFF09CC575
:1032600025F59BC526F5B20E276E040E286E070EB7
:10327000296EAF0EAAECAFF012000D0E306417D01D
:103280009CC525F59BC526F5060E276E6F0E6BECCB
:10329000AFF09CC525F59BC526F5B20E276E040E32
:1032A000286E060E296EAF0EAAECAFF01200305059
:1032B000D8A41FD02D50256E2CC526F52F50276E73
:1032C0002EC528F5000E296E335094ECB1F02A6E0D
:1032D000D30E56ECAFF0040E90ECA6F0066EBC0ECA
:1032E000076E450E086E010E096E335008ECADF006
:1032F000120030040E6E335011ECA8F00EC531F5FB
:103300000FC532F532AE19D09CC525F59BC526F503
:1033100031500008276E6F0E6BECAFF09CC525F5A1
:103320009BC526F5B20E276E040E286E315000089C
:10333000296EAF0EAAECAFF012002D50256E2CC5F1
:1033400026F52F50276E2EC528F530C529F531C535
:103350002AF5D30E56ECAFF01200FD0E086E030EE8
:10336000096E000E0A6E000E69ECA9F008C50FF593
:1033700009C510F510AE06D0000E05019C6F000EB9
:103380009B6F13D00FC59CF5FC0E086E030E096EE3
:10339000000E0A6E000E69ECA9F008C50FF509C50C
:1033A00010F510BEE9D70FC59BF5FB0E086E030E96
:1033B000096E000E0A6E000E69ECA9F008C50FF543
:1033C00009C510F510AE02D0546802D00FC554F5EF
:1033D00054C5ABF5F90E086E030E096E000E0A6EA9
:1033E000000E69ECA9F008C50FF509C510F510AE7F
:1033F00004D0040E0501B76F02D00FC5B7F5CFECAE
:10340000AEF04EECAAF002C574F503C575F504C51F
:1034100076F505C577F5000E0501AA6F010E0E6E53
:103420000E50020DBA0EF324D96E050EF420DA6E9A
:10343000DE6ADD6A0E2A060E0E64F2D7000E050162
:10344000BB6F060EBA6F000EA96F000E706F000EF4
:10345000716F000E726F000E736F000E6C6F000EB6
:103460006D6F000E6E6F000E6F6F1200076E45D00D
:10347000140E1200A50E1200630E12001D0E120093
:10348000FE0E12000D0E1200010E1200040E1200AC
:10349000E7ECACF01200170E1200030EC8ECA6F019
:1034A0000009D8A4F1D7000E1200080E1200FC0E7D
:1034B000F66EFF0EF76E3F0EF86E0800F550120024
:1034C000FD0EF66EFF0EF76E3F0EF86E0800F5501B
:1034D0001200FE0EF66EFF0EF76E3F0EF86E08003D
:1034E000F5501200FF0EF66EFF0EF76E3F0EF86EEF
:1034F0000800F55012006C0E12000750000AD8B4F4
:10350000B7D7010AD8B4B6D7030AD8B4B5D7010AD9
:10351000D8B4B4D7070AD8B4B3D7010AD8B4B2D74D
:10352000030AD8B4B1D7010AD8B4B0D70F0AD8B4B7
:10353000AFD7010AD8B4AFD7030AD8B4AED7010ABF
:10354000D8B4B1D7070AD8B4B0D7010AD8B4ABD72A
:10355000030AD8B4A8D7010AD8B4A9D71F0AD8B487
:10356000AFD7010AD8B4B5D7030AD8B4BBD7010A7C
:10357000D8B48AD7070AD8B4BED795D73250020D2F
:10358000230EF324F66EFF0EF420F76EF86A000E99
:10359000F8220900F5C434F50900F5C435F5110E1B
:1035A0003426000E352234C5F6F435C5F7F4000E86
:1035B000F86E0900F5500900F5100900F510D8A4BF
:1035C00011D09CC525F59BC526F53228276E000E27
:1035D000286E000E296E000E2A6EC70E56ECAFF054
:1035E000000E12003250020D230EF324F66EFF0E71
:1035F000F420F76EF86A000EF8220900F5C434F5DD
:103600000900F5C435F5110E3426000E352234C5F7
:10361000F6F435C5F7F4000EF86E01D80ED00500AB
:10362000FA6E0900F550FD6E0900F550FE6E0900B6
:10363000F550FF6EFA503350120008C536F509C533
:1036400037F536503710D8B4CBD79CC525F59BC578
:1036500026F53228276E33C528F520EE01F03650C6
:10366000D9263750DA22DF50296E36C5D9F437C54E
:10367000DAF4DF502A6EC70E56ECAFF0020E1200DD
:10368000046E48D0000E0501956F000E966F120073
:10369000010E0501956F000E966F1200000E0501D8
:1036A000956F030E966F1200000E0501956F010EC7
:1036B000966F1200000E0501946F190E936F020EA3
:1036C000956F020E966F12005428D8A404D0060EEF
:1036D0000501966F12005404D8A41200060E0501CD
:1036E000956F12005428D8A404D0080E0501966FD7
:1036F00012005404D8A41200080E0501956F1200A0
:10370000000E0501946F000E936F020E956F020E6E
:10371000966F12000450026E036A0350000AD8A488
:1037200012000250000AD8B4ADD7010AD8B4B0D7FD
:10373000030AD8B4B3D7010AD8B4B6D7070AD8B4A5
:10374000B9D7010AD8B4B0D7030AD8B4ADD7010AA3
:10375000D8B4BAD70F0AD8B4C5D7010AD8B4A4D7F9
:10376000030AD8B4A1D7010AD8B4CAD7070AD8A483
:103770001200C6D7000E426E4250020D230EF324F3
:10378000F66EFF0EF420F76EF86A000EF8220900BC
:10379000F5500900F510D8B44DD04250020D230E5B
:1037A000F324F66EFF0EF420F76EF86A000EF8228E
:1037B0000900F5C440F50900F5C441F5020E4026A4
:1037C000000E412240C5F6F441C5F7F4000EF86E34
:1037D0000900F5500900F5100900F510D8B42AD0F9
:1037E0004250020D230EF324F66EFF0EF420F76E06
:1037F000F86A000EF8220900F5C440F50900F5C486
:1038000041F5020E4026000E412240C5F6F441C5A6
:10381000F7F4000EF86E01D80DD00500FA6E09001D
:10382000F550FD6E0900F550FE6E0900F550FF6E73
:10383000FA501200422A080E42649ED7FA0E106E09
:10384000030E116E000E126E010E136E000EC8EC08
:10385000ABF0FCECAFF0120020EE02F00250D926E3
:103860000350DA22DF50046E056A20EE04F00250A5
:10387000D9260350DA22DF50066EFF0E0624076EAB
:10388000086AFF0E082220EE03F00250D9260350EA
:10389000DA22DF50096E0A6A010E0926000E0A229A
:1038A000075009140B6E08500A140C6E04500B18C4
:1038B00009E105500C18D8A405D0000E026E000EC8
:1038C000036E120020EE03F00250D9260350DA22D4
:1038D000DF500D6E20EE03F00250D9260350DA229D
:1038E000DF2A20EE04F00250D9260350DA2210EE2F
:1038F00003F00250E1260350E222DE50E65CD8A03D
:1039000007D020EE03F00250D9260350DA22DF6AF6
:103910000D50090DF3C404F5F4C405F502C5D9F43E
:1039200003C5DAF4DEC406F5DDC407F50450062449
:10393000026E05500720036E1200000E07140B6E76
:10394000FF0E08140C6EFF0E09140D6E0501FB51DD
:103950000B1807E1FC510C1804E1FD510D18D8B407
:1039600019D0FB51FC11FD11D8B408D0A8A304D084
:10397000C6ECA9F00501A89398ECA9F0000E071475
:103980000501FB6FFF0E0814FC6FFF0E0914FD6F9D
:1039900029ECADF0FF0E07140B6E000E08140C6E30
:1039A000000E0B24D96E370E0C20DA6EDF50FF0AA2
:1039B0000A140009D8B403D00D6A0D2A01D00D6A8B
:1039C0000501A831010B0E6E0D500E120E36A851D6
:1039D0000E18FD0B0E18A86FFF0E07140B6E000ECD
:1039E00008140C6E000E0B24D96E370E0C20DA6E04
:1039F0000A50DE18D8B40FD0A881FF0E07140B6E42
:103A0000000E08140C6E000E0B24D96E370E0C201D
:103A1000DA6E0AC5DFF4000E1200000EF4ECA9F015
:103A200082ECB1F06AECAEF0050E0501A06F000E5D
:103A3000166E1650020D230EF324F66EFF0EF420C0
:103A4000F76EF86A000EF8220900F5500900F5102B
:103A5000D8B44DD01650020D230EF324F66EFF0E8F
:103A6000F420F76EF86A000EF8220900F5C414F588
:103A70000900F5C415F5050E1426000E152214C50F
:103A8000F6F415C5F7F4000EF86E0900F5500900BC
:103A9000F5100900F510D8B42AD01650020D230EE7
:103AA000F324F66EFF0EF420F76EF86A000EF8228B
:103AB0000900F5C414F50900F5C415F5050E142622
:103AC000000E152214C5F6F415C5F7F4000EF86EB5
:103AD00001D80DD00500FA6E0900F550FD6E090001
:103AE000F550FE6E0900F550FF6EFA501200162ACE
:103AF000080E16649ED712000501B851D8A41BD039
:103B00004EECAAF005018C51025C3C6E8D510358BD
:103B10003D6E8E5104583E6E8F5105583F6E3F509A
:103B200008E1490E3C5CE80E3D58010E3E58D8A015
:103B300002D0010EB86FB851D8B412004EECAAF002
:103B400005018451025C3C6E855103583D6E8651DF
:103B500004583E6E875105583F6E3F503E103D1051
:103B600004E17D0E3C5CD8A00CD008EC93F04EEC48
:103B7000AAF002C584F503C585F504C586F505C51B
:103B800087F54EECAAF005018051025C3C6E815134
:103B900003583D6E825104583E6E835105583F6E66
:103BA0003F503E1006E1130E3C5C7A0E3D58D8A003
:103BB0001200ABECA3F04EECAAF002C580F503C5F1
:103BC00081F504C582F505C583F51200F90E0501DE
:103BD0009D6FFF0E9E6F080E0401016F000E096FAE
:103BE000000E116F000E006F000E086F000E106FB8
:103BF0004EECA2F010ECB0F00BECA9F0D68E4EEC2F
:103C0000AAF002C58CF503C58DF504C58EF505C572
:103C10008FF58CC588F58DC589F58EC58AF58FC55C
:103C20008BF58CC584F58DC585F58EC586F58FC55C
:103C300087F58CC585F68DC586F68EC587F68FC54A
:103C400088F68CC580F58DC581F58EC582F58FC54A
:103C500083F5000E0501B86F010EFCECADF00250CB
:103C60001F6E0ED0A1ECABF01200010E0501B96F72
:103C70001200000E0501B96F120019ECAEF012002F
:103C80001F50000AD8B4EED7010AD8B4EED7030A01
:103C9000D8B4EFD7010AD8A41200EFD7000E05015F
:103CA000B46F000EB36F000E116E000E126E000E98
:103CB000136E000E106E10501124086E000E1220AC
:103CC000096E000E13200A6E010E69ECA9F008506F
:103CD0000E6E350E1024F66EF76AFF0EF722F86AA4
:103CE000000EF8220800F5500E18D8B403D0000ECC
:103CF0000F6E06D0010E0F6E102A0A0E1064DBD76D
:103D00000F50D8B41FD00B0E1124086E000E1220D5
:103D1000096E000E13200A6E010E69ECA9F008501E
:103D20000501B46F0C0E1124086E000E1220096EEE
:103D3000000E13200A6E010E69ECA9F0085005016F
:103D4000B36F1200010E1126000E1222000E132274
:103D5000135006E11128070E1258D8B01200A9D747
:103D6000120041D000C7D9F401C7DAF4030EDF60B6
:103D700002D0010E120020EE02F00051D9260151AE
:103D8000DA22DE5005019C19D8A4F3D7070120EEF2
:103D900003F00051D9260151DA2205019B51DE18AA
:103DA000D8A4E7D700C745F501C746F59D0EF66EC6
:103DB000FF0EF76E000EF86E01D80DD00500FA6EFA
:103DC0000900F550FD6E0900F550FE6E0900F55032
:103DD000FF6EFA501200E806D8A403D068ECA1F0F8
:103DE000C8D7000E1200070120EE01F00051D926BD
:103DF0000151DA22DF504E6E4F6A4F50000AD8A4AC
:103E0000F0D74E50550AD8B4ADD7C00AD8B4CAD7E7
:103E1000470AD8B4C7D7270AD8B4C4D7E2D74206CE
:103E20000C0E426417D09CC525F59BC526F5060EE1
:103E3000276E6F0E6BECAFF09CC525F59BC526F584
:103E4000D20E276E040E286E060E296EAF0EAAEC57
:103E5000AFF012003EC537F53FC538F540C539F51E
:103E600041C53AF542C53BF543C53CF5000E3D6EF4
:103E7000A0ECB0F00501AE51D8B417D09CC525F523
:103E80009BC526F544C527F56F0E6BECAFF09CC5BE
:103E900025F59BC526F5D20E276E040E286E44C567
:103EA00029F5AF0EAAECAFF01200D94BDA2B9CC566
:103EB00025F59BC526F5590E80ECAFF09CC525F580
:103EC0009BC526F5D20E276E040E286E000E296EB5
:103ED000AF0EAAECAFF01200186EFD0E186405D0FC
:103EE000000E0F6E080E0E6E12001850120DF3C465
:103EF00010F5F4C411F5126A040E1024086EE80ED1
:103F00001120096E010E12200A6E010E69ECA9F053
:103F10000850176E17A005D09BC50EF59CC50FF570
:103F200012001850120DF3C410F5F4C411F5126A02
:103F3000010E1024086EE80E1120096E010E1220E9
:103F40000A6E010E69ECA9F00850156E166A185039
:103F5000120DF3C410F5F4C411F5126A000E10240A
:103F6000086EE80E1120096E010E12200A6E010E75
:103F700069ECA9F00850136E146A1350116E106AA0
:103F8000155010100E6E165011100F6E12001D6E8F
:103F90004EECAAF002C574F503C575F504C576F5B7
:103FA00005C577F52CD001EC8FF04EECAAF0050199
:103FB0007451025C196E755103581A6E765104588B
:103FC0001B6E775105581C6E1D50026E036A046A01
:103FD000056A240E066EF40E076E000E086E000EC3
:103FE000096EFEECAAF01950025C1A5003581B50DF
:103FF00004581C500558D8B002D0000E1200CEB69E
:10400000D2D74EECAAF005017451025C0C6E7551CA
:1040100003580D6E765104580E6E775105580F6E89
:10402000240E106EF40E116E000E126E000E136E42
:1040300070ECA4F00C5012001D6E4EECAAF002C5FC
:1040400074F503C575F504C576F505C577F52CD06F
:1040500001EC8FF04EECAAF005017451025C196E70
:10406000755103581A6E765104581B6E77510558D6
:104070001C6E1D50026E036A046A056A240E066EE9
:10408000F40E076E000E086E000E096EFEECAAF02C
:104090001950025C1A5003581B5004581C50055804
:1040A000D8B002D0000E1200CEA6D2D74EECAAF0A5
:1040B00005017451025C0C6E755103580D6E7651FA
:1040C00004580E6E775105580F6E240E106EF40EC4
:1040D000116E000E126E000E136E70ECA4F00C50F8
:1040E000120020EE02F00250D9260350DA2210EE20
:1040F00003F00250E1260350E222DE50E618D8A475
:1041000005D0000E026E000E036E120020EE02F0CB
:104110000250D9260350DA22DF50046E0450090DF4
:10412000F3C405F5F4C406F502C5D9F403C5DAF401
:10413000DEC407F5DDC408F505500724096E0650F6
:1041400008200A6E20EE02F00250D9260350DA222F
:10415000DF2A20EE04F00250D9260350DA2210EEB6
:1041600002F00250E1260350E222DE50E65CD8A0C5
:1041700007D020EE02F00250D9260350DA22DF6A7F
:1041800009C502F50AC503F512001A6E000E0E6E7F
:104190001A5011ECA8F00EC51BF50FC51CF51CAE8E
:1041A00002D0000E1200020E1B181C10D8B405D04D
:1041B000030E1B181C10D8A402D0010E1200040E0E
:1041C0000E6E1A5011ECA8F00EC51BF50FC51CF5AC
:1041D0001B501C10D8A4F1D7050E0E6E1A5011EC0E
:1041E000A8F00EC51BF50FC51CF51B501C10D8A45C
:1041F000E4D7060E0E6E1A5011ECA8F00EC51BF592
:104200000FC51CF51B501C10D8A4D7D7070E0E6E77
:104210001A5011ECA8F00EC51BF50FC51CF51B506C
:104220001C10D8B402D0010E1200000E12002E6E27
:104230002E508BECB1F02F6EFD0E2F640AD09CC572
:1042400025F59BC526F5060E276E6F0E6BECAFF0BD
:1042500012002B042D6E2B50D8A408D02F5094ECB4
:10426000B1F02C6E2C50306E316A09D02DC50EF590
:104270002F5011ECA8F00EC530F50FC531F531AE59
:1042800019D09CC525F59BC526F530500008276E32
:104290006F0E6BECAFF09CC525F59BC526F59C0E0B
:1042A000276E040E286E30500008296EAF0EAAEC5F
:1042B000AFF012009CC525F59BC526F52EC527F548
:1042C0002BC528F530C529F5B50EAAECAFF01200C4
:1042D000000E3E6E200E3E24D96EDA6A060EDA22F9
:1042E000FF0EDF6E3E2A1F0E3E64F4D7000E3D6EB9
:1042F000010E0E6E3D5011ECA8F00EC53BF50FC53A
:104300003CF53CBE15D03C5003E13B04D8A010D096
:104310003CBE06D03C500CE1210E3B5CD8B008D02E
:104320001F0E3B24D96E060E3C20DA6E3DC5DFF42D
:104330003D2AFD0E3D64DCD7010E3E6E1F0E3E246D
:10434000D96EDA6A060EDA22DE28D8A40CD03E50E6
:10435000EFEC93F03A6E1F0E3E24D96EDA6A060E29
:10436000DA223AC5DFF43E2A200E3E64E7D7120077
:1043700045C5D9F446C5DAF4030EDF6002D0000E5D
:10438000120020EE02F04550D9264650DA22DE50C7
:1043900005019C19D8A4F3D720EE03F04550D92687
:1043A0004650DA229B51DE18D8A4E9D717D0010E67
:1043B000120045C5D9F446C5DAF4040EDF60F7D71C
:1043C0009CC525F59BC526F5750E276E010E286E3A
:1043D000010E296EAF0EAAECAFF0E9D720EE01F086
:1043E0004550D9264650DA22DF50476E486A485079
:1043F000000AD8A4C4D747505D0AD8B4D8D7280A31
:10440000D8B4D7D7BCD7066E000E076E0750020D82
:10441000230EF324F66EFF0EF420F76EF86A000EFA
:10442000F8220900F5500900F510D8B42ED0075035
:10443000020D230EF324F66EFF0EF420F76EF86AD9
:10444000000EF8220900F5C404F50900F5C405F5CD
:1044500004C5F6F405C5F7F4000EF86E0800F55033
:104460000618D8A412D00750020D230EF324F66EBE
:10447000FF0EF420F76EF86A000EF8220900F5C46A
:1044800002F50A00F5C403F51200072A080E0764B6
:10449000BDD7000E026E000E036E1200000E026EFB
:1044A0007C0E0224D96EDA6A050EDA22DF6A022A4D
:1044B000030E0264F5D7C89CC89EC798C79ABF98D8
:1044C000BF9AC09CC09EC894C094C898C098C89613
:1044D000C096C89AC09A030E0001846F440E856F7F
:1044E000020E866F000E836F010E826F000E886FC2
:1044F000000E8C6F0F0E896F320E0201166F310E97
:10450000146F330E156F0001848F030124518F0B3C
:104510005009246FF00E2417010E266FFA0E236F38
:10452000E00E2517B196A186248F1200080E336481
:1045300002D0000E12009CC525F59BC526F5332838
:10454000276E3350020D230EF324F66EFF0EF42077
:10455000F76EF86A000EF8220900F5C434F5090078
:10456000F5C435F534C5F6F435C5F7F4000EF86E2C
:104570000800F5C428F53350020D230EF324F66E1F
:10458000FF0EF420F76EF86A000EF8220900F5C459
:1045900036F50900F5C437F5010E3626000E372230
:1045A00036C5F6F437C5F7F4000EF86E0800F5C40A
:1045B00029F5AC0EAAECAFF0020E1200406E40508E
:1045C00094ECB1F0396E3350346E356A010E3426F6
:1045D000000E35223950366E376A3450365C37500B
:1045E000800A386E3550800A3858D8B002D0000E94
:1045F000120040506CEC9FF00EC53CF50FC53DF528
:10460000405038ECA7F00EC53EF50FC53FF533C559
:104610000EF5405011ECA8F00EC53AF50FC53BF56C
:104620003BBE0FD03DC525F53CC526F53FC527F55A
:104630003EC528F53328296E3AC52AF5D30E56EC27
:10464000AFF0020E120020EE02F04550D92646507F
:10465000DA22DE5005019C19D8B402D0000E1200F7
:1046600020EE03F04550D9264650DA229B51DE1841
:10467000D8A4F4D718D020EE04F04550D9264650DF
:10468000DA220E0EDE18D8A4E9D7FF0E106E030E44
:10469000116E000E126EFF0E136E000EC8ECABF022
:1046A000FF00010E120020EE01F04550D9264650C1
:1046B000DA22DF50476E486A4850000AD8A4CED7A5
:1046C00047505C0AD8B4E1D72A0AD8B4D4D7C6D7A1
:1046D000106E2ED010C50CF5070E0C16010E0D6EC7
:1046E0000C2A02D0D8900D360C2EFCD71038E84694
:1046F0001F0B0E6E0F6A600E0E24D96E060E0F2071
:10470000DA6E0D50DF121200B2511018D8A4120048
:10471000010EAF6F0601ED4BEE2B4EECAAF002C579
:1047200078F503C579F504C57AF505C57BF5120062
:104730000501AF510C6E0D6A0D50000AD8A412008D
:104740000C50000AD8B4E0D7020AD8B4C3D7010A83
:10475000D8A41200BFD7000E106E18D005019F51CB
:10476000D8B404D010504AECADF02AD01050C5ECAB
:10477000ACF026D005019F51D8B404D01050C5EC40
:10478000ACF01ED010504AECADF01AD0000E102440
:10479000D96EDA6A060EDA22DF500E6E0F6A0F50FB
:1047A000000AD8A40DD00E50000AD8B409D0010ACE
:1047B000D8B406D0030AD8B4D1D7010AD8B4DAD70E
:1047C000102A1F0E1064E2D705019F51D8A402D011
:1047D000010E01D0000E9F6F1200000E076E05AE95
:1047E00006D0046C051ED8B0052A010E076E03AE74
:1047F00006D0026C031ED8B0032A010E071A000E61
:10480000096E000E086E04500510D8B41CD0010EBD
:10481000066E04D0D89004360536062A05AEFAD7BF
:10482000D890083609360450025C05500358D8A0C9
:1048300005D00450025E0550035A0880D890053216
:104840000432062EEDD70750D8B404D0086C091EE8
:10485000D8B0092A08C502F509C503F512000B6E88
:10486000120E0B6424D0000E086E000E096E1200AA
:1048700036C1D7F60601D86B2AD0DBECA8F00A6E59
:104880000A500601D96FDA6B22D021ECAAF00A6E29
:104890000A500601DF6FE06B1AD039C1D5F6060168
:1048A000D66B15D038C1D3F60601D46B10D00B509F
:1048B000010AD8B4F7D7030AD8B4EFD7010AD8B49D
:1048C000D7D7070AD8B4D9D7030AD8B4DED70B5044
:1048D000020DD10EF324086E060EF420096E1200AC
:1048E000000E146E000E156E000E166E000E176E82
:1048F0001050111012101310D8B42AD0010E186ED7
:1049000006D0D8901036113612361336182A13AE48
:10491000F8D7D890143615361636173610500C5C6A
:1049200011500D5812500E5813500F58D8A009D0DE
:1049300010500C5E11500D5A12500E5A13500F5A4F
:104940001480D8901332123211321032182EE1D75F
:1049500014C50CF515C50DF516C50EF517C50FF5E3
:1049600012000501A329D8B412009051911192119F
:10497000D8A402D0A369120001D80FD00500FA6EA6
:104980009051FD6E9151FE6E9251FF6EFA50A5C589
:1049900032F5A2C533F5A3511200436E0FD00501C5
:1049A000A451D8B4E7D7A52B080EA56501D0E2D74E
:1049B000000EA26F12000501A22B12004350416E9F
:1049C000426A4250000AD8A412004150000AD8B4EA
:1049D000E6D7010AD8B41200030AD8A41200EBD714
:1049E000246E24C5F8F61CC5F7F61DC5F9F61EC5DC
:1049F000FAF61FC5FBF620C5FCF621C5FDF622C55B
:104A0000FEF623C5FFF605019D519E11D8B4120094
:104A10009DC5F6F49EC5F7F4000EF86E0900F5503A
:104A20000900F5100900F510D8B41200F70E0E6E4B
:104A3000060E0F6E9DC5F6F49EC5F7F4000EF86ED7
:104A400001D812000500FA6E0900F550FD6E09004C
:104A5000F550FE6E0900F550FF6EFA501200000E80
:104A6000D6BE010E0F6E000140B1FDD7380E456F66
:104A700008C50CF509C50DF50AC50EF50DC50CF5F3
:104A80000EC50DF50E6A0C50446F08C543F00BC5FA
:104A900046F04151F80B0309416FD69E550E426F07
:104AA000AA0E426F40810F50D8A4D68E070E411334
:104AB00008C502F509C503F50AC504F54FECAEF0CB
:104AC0000B18D8B406D00501C24BC32B6EECB1F065
:104AD000CAD7000E12002B6E2B508BECB1F0306E4B
:104AE000FD0E306417D09CC525F59BC526F5080E34
:104AF000276E6F0E6BECAFF09CC525F59BC526F5B8
:104B0000720E276E040E286E080E296EAF0EAAECE8
:104B1000AFF0120030506CEC9FF00EC52CF50FC5B5
:104B20002DF5305038ECA7F00EC52EF50FC52FF53A
:104B30002D50256E2CC526F52F50276E2EC528F535
:104B40002BC529F5F20EAAECAFF012001B6E010E78
:104B50001B6402D00A0E120017C502F51B5060EC50
:104B6000B1F00009D8A402D00C0E1200970E1B243D
:104B7000D96EDA6A050EDA22DF501A6E970E1B2400
:104B8000D96EDA6A050EDA2217C5DFF4000E1B248F
:104B9000186E196A020E192218C510F519C511F5FB
:104BA000126A11BE120617C513F5000EC8ECABF061
:104BB00017C502F51AC503F51B509BECB1F0000EAA
:104BC00012002BC5D9F42CC5DAF42D50DE5CD8B018
:104BD00031D02BC5D9F42CC5DAF4020EDF6428D00D
:104BE00020EE02F02B50D9262C50DA22DE5005019F
:104BF0009C19D8A41DD020EE03F02B50D9262C50A0
:104C0000DA229B51DE18D8A413D09CC525F59BC58C
:104C100026F520EE01F02B50D9262C50DA22DF5059
:104C2000276E2EC528F5010E296EAF0EAAECAFF047
:104C3000010E1200000E12002BC521F52CC522F525
:104C40002DC523F52EC524F5E8ECAFF02F6E2F50BF
:104C5000D8B417D09CC525F59BC526F52FC527F5DB
:104C60006F0E6BECAFF09CC525F59BC526F5950E38
:104C7000276E040E286E2FC529F5AF0EAAECAFF0F3
:104C800012009CC525F59BC526F5590E80ECAFF0AA
:104C90009CC525F59BC526F5950E276E040E286E3E
:104CA000000E296EAF0EAAECAFF01200000E050147
:104CB0009C6F000E9B6FFD0E106E030E116E000EAA
:104CC000126E9CC513F5000EC8ECABF0FC0E106E16
:104CD000030E116E000E126E9BC513F5000EC8EC8C
:104CE000ABF054680501AD69FB0E106E030E116E3A
:104CF000000E126E54C513F5000EC8ECABF0000E9A
:104D00000501B76FB7C5ACF5F90E106E030E116E45
:104D1000000E126EB7C513F5000EC8ECABF0120012
:104D2000046E000E056E0550020D230EF324F66E80
:104D3000FF0EF420F76EF86A000EF8220900F55015
:104D40000900F510D8B41ED00550020D230EF3242F
:104D5000F66EFF0EF420F76EF86A000EF8220900D6
:104D6000F5C402F50900F5C403F502C5F6F403C560
:104D7000F7F4000EF86E0800F5500418D8A402D01D
:104D800005501200052A080E0564CDD7FF0E12004B
:104D9000046E000E056E0550020D230EF324F66E10
:104DA000FF0EF420F76EF86A000EF8220900F550A5
:104DB0000900F510D8B41ED00550020D230EF324BF
:104DC000F66EFF0EF420F76EF86A000EF822090066
:104DD000F5C402F50900F5C403F502C5F6F403C5F0
:104DE000F7F4000EF86E0800F5500418D8A402D0AD
:104DF000010E1200052A080E0564CDD7000E120020
:104E0000B1A611000501B52B030EB517C084BF98DC
:104E1000BF9AC09CC09E7C0EB525D96EDA6A050E7D
:104E2000DA22DF50016E000E0001836F010E826FE7
:104E3000000E886F01C581F087BB09D0FDD7BF8800
:104E400014D0BF8A12D0C08C10D0C08E0ED00501F5
:104E5000B551000AD8B4F3D7010AD8B4F2D7030A7F
:104E6000D8B4F1D7010AD8B4F0D7C094B1961100E4
:104E7000176E1750120DF3C410F5F4C411F5126A31
:104E8000030E1024086EE80E1120096E010E122088
:104E90000A6E010E69ECA9F00850156E166A1750DB
:104EA000120DF3C410F5F4C411F5126A020E1024A9
:104EB000086EE80E1120096E010E12200A6E010E16
:104EC00069ECA9F00850136E146A1350116E106A41
:104ED000155010100E6E165011100F6E120064C196
:104EE00002F565C103F52DD00501B2517F0B02C556
:104EF000D9F403C5DAF4DF6E20EE01F00250D926B2
:104F00000350DA22DF6A20EE04F00250D926035063
:104F1000DA22DF6A20EE05F00250D9260350DA22A9
:104F2000DF6A20EE06F00250D9260350DA22DF6A4B
:104F300020EE07F00250D9260350DA22DF6A010181
:104F40005D81010160A11200CFD7176EFD0E1764BD
:104F500002D0080E1200000E186E18500E6E0F6A66
:104F6000106A1750120DF3C411F5F4C412F5136A48
:104F70000E501124146E0F501220156E1050132075
:104F8000166E050E1424086EE80E1520096E010E2B
:104F900016200A6E010E69ECA9F0700E1824D96E65
:104FA000DA6A060EDA2208C5DFF4182A0C0E186435
:104FB000D4D7000E1200000E0214056EFF0E03146B
:104FC000066EFF0E0414076E0501FB51051815E16E
:104FD000FC51061812E1FD510718D8A40ED0FF0E9F
:104FE0000214056E000E0314066E000E0524D96E21
:104FF000370E0620DA6EDF50120004C5F8F402C541
:1050000005F503C506F504C507F506C505F507C58D
:1050100006F5076A0550F76E02C5F6F40800F5506C
