:04000000FEEF03F01C
:0400080004EF04F00D
:040018000CEF04F0F5
:1000700000370800F5501200380E0001456FF80EE9
:100080004117408140B1FED7070E4113465112007F
:100090001F6E010103511F18F80B1F18036F02395F
:1000A000E832070B1F18D8B41200F9D700014151EC
:1000B000F80B0609416F550E426FAA0E426F408140
:1000C00040B1FED7070E411312001F6E000140B170
:1000D000FDD71FC546F0000E476F4151F80B0309CD
:1000E000416F550E426FAA0E426F4081070E4113B9
:1000F0001200700EF66E000EF76E000EF86E09001C
:10010000F5C433F50900F5C434F501EE01F11E0E16
:10011000EE6AE806FDE10001ADEF01F0000E0C6EA5
:10012000000E0B6E000E0B24D96E370E0C20DA6E0B
:10013000FF0EDF6E0B4A0C2A0C04D8A0F3D7000E7A
:10014000166E000E156E000E146E12001F6E380E25
:100150000001456F1FC546F04151F80B0309416F7F
:10016000550E426FAA0E426F408140B1FED7070E76
:1001700041133CEC00F01F18D8B41200E8D7080E69
:10018000156003D01450D8B4120016C543F015C53D
:1001900044F014C545F056EC00F04151F80B050948
:1001A000416F550E426FAA0E426F408140B1FED79B
:1001B000070E411312001F6E07C5D9F408C5DAF403
:1001C000DF6A20EE01F00750D9260850DA22240E0B
:1001D000DF6E20EE02F00750D9260850DA22DF6ADF
:1001E00020EE03F00750D9260850DA22DF6A1F50AC
:1001F000D8B409D020EE01F00750D9260850DA22F1
:10020000000EDB8608D020EE01F00750D9260850FA
:10021000DA22F70EDF16030E010169131200460EF3
:1002200002010B6F0B0E3D6FC794C786000E0301D2
:10023000676F0101018F040E48EC00F0000E4C6F57
:10024000380E4D6F000E4E6F000E4F6F000E006F98
:10025000870E016F100E026F500E036F000E046FB9
:10026000030E056F020E066F3F0E076F800E686F5C
:10027000040E696F600E6A6F5F0E6B6F080E746F0D
:10028000040E756F000E766F5F0E776F400E8F6FE6
:10029000400E936F830E806F060E48EC00F0120044
:1002A0002F6E1550206E1F6A1450236E226A216A29
:1002B0001F502110246E20502210256E000E20BEEB
:1002C000FF0E2310266E00014451286E276A455107
:1002D0002B6E2A6A296A275029102C6E28502A1062
:1002E0002D6E000E28BEFF0E2B102E6E24502C18E3
:1002F00007E125502D1804E126502E18D8B424D03B
:1003000043C013F544C012F545C011F5BFEC00F031
:10031000000E166E12C515F511C514F5000140B199
:10032000FDD714C545F015C544F016C543F041513D
:10033000F80B0209416F4081070E411313C543F0CA
:1003400012C544F011C545F0000E4325D96EDA6A96
:10035000370EDA222FC5DFF41200100E356E000EB4
:100360000401006F000E086F280E016FC79EC79C26
:10037000C686380E0001456F030E446F43693CEC9E
:1003800000F00009D8B4CEA602D000EF04F0400E71
:10039000356E0001AD518F0B2009AD6F000E1C6E44
:1003A0001C0E1B6EC79CC79EBF8CBF8E0FEC01F04E
:1003B0008EEC00F0000E046E000E036E04000101CE
:1003C00078A1FDD77CC109F57DC10AF520EE04F0C6
:1003D0000950D9260A50DA22DF500F0B106E20EE9A
:1003E00001F00950D9260A50DA22DFA67CD119C5BE
:1003F00045F018C544F017C543F01BA60AD01050AD
:10040000306E316A326A305017263150182232501D
:100410001922020E196074D020EE01F00950D9267D
:100420000A50DA22DFA82FD06CA1FED770C107F5E1
:1004300071C108F5000E0F6E0F500724306E000ECC
:100440000820316E080E3024D96E000E3120DA6E8D
:1004500039EC00F0DF6EF62AF650D8A404D0F72A63
:10046000F750D8B4F82A0F2A080E0F64E5D720EE0B
:1004700004F00750D9260850DA22180EDF6E010E5C
:10048000DBEC00F03DD000014551D8A403D0070EAD
:10049000446536D01BA203D056EC00F031D0000EDC
:1004A0000F6E2AD00F500924306E000E0A20316ED4
:1004B000080E3024D96E000E3120DA6EDF5050EC79
:1004C00001F00F500924306E000E0A20316E080E24
:1004D0003024D96E000E3120DA6EDF50326E325089
:1004E0000326000E0422432B4351D8A404D0442BEE
:1004F0004451D8B4452B0F2A10500F5CD8A0D2D746
:10050000300E1918D8A466D020EE01F00950D92673
:100510000A50DA22DFA830D001016CA1FDD770C1EA
:1005200007F571C108F5000E0F6E0F500724306EED
:10053000000E0820316E080E3024D96E000E3120D6
:10054000DA6E39EC00F0DF6EF62AF650D8A404D04B
:10055000F72AF750D8B4F82A0F2A080E0F64E5D707
:1005600020EE04F00750D9260850DA22180EDF6E6C
:10057000010EDBEC00F02ED0000E0F6E27D0040031
:100580000F500924306E000E0A20316E080E302400
:10059000D96E000E3120DA6EDF5065EC00F00F509E
:1005A0000924306E000E0A20316E080E3024D96EF8
:1005B000000E3120DA6EDF50326E32500326000E0C
:1005C0000422F62AF650D8B4F72A0F2A10500F5CEE
:1005D000D8A0D5D7380E1918D8A461D020EE01F0D4
:1005E0000950D9260A50DA22DFA82CD001016CA1CB
:1005F000FDD770C107F571C108F5000E0F6E0F50E1
:100600000724306E000E0820316E080E3024D96E9B
:10061000000E3120DA6E3CEC00F0DF6E432B4351CC
:10062000D8B4442B0F2A080E0F64E9D720EE04F04B
:100630000750D9260850DA22180EDF6E010EDBECC7
:1006400000F02DD0000E0F6E26D00F500924306E12
:10065000000E0A20316E080E3024D96E000E3120B3
:10066000DA6EDF50A6EC00F00F500924306E000E59
:100670000A20316E080E3024D96E000E3120DA6E59
:10068000DF50326E32500326000E0422432B4351BA
:10069000D8B4442B0F2A10500F5CD8A0D6D720EE28
:1006A00001F00950D9260A50DA22DFA81BA89CD0F5
:1006B00001016CA1FDD770C107F571C108F520EEED
:1006C00008F00750D9260850DA22010EDF6E20EE1E
:1006D00004F00750D9260850DA22110EDF6E000E02
:1006E000DBEC00F081D0BFEC00F0170E056E050EBC
:1006F000066E080E0924016E000E0A20026E000E1E
:100700000F6E0FD001C5D9F402C5DAF405C5E1F4C6
:1007100006C5E2F4DFC4E7F4054A062A014A022AC4
:100720000F2A10500F5CD8A0EDD71C04D8A40CD011
:10073000380E0001456F030E446F4369000EA6ECAE
:1007400000F0BF9CBF9EFF00020E1C18D8A404D06E
:10075000000E046E000E036E030E1C18D8A426D0E3
:1007600001016CA1FDD770C107F571C108F520EE3C
:1007700008F00750D9260850DA2203501D24306EA5
:1007800004501E20316E30503110D8A402D0010E1A
:1007900001D0000EDF6E20EE04F00750D92608507D
:1007A000DA22110EDF6E000EDBEC00F0040E1C18D6
:1007B000D8A41AD001016CA1FDD770C107F571C191
:1007C00008F520EE08F00750D9260850DA22020E6C
:1007D000DF6E20EE04F00750D9260850DA22110E01
:1007E000DF6E000EDBEC00F001017581E7D5424CB5
:0B07F0005F56455253494F4E3D030138
:0807FC0079EF00F001EF05F0B8
:10082000A5631DFE0D01040B170100080000000068
:1008300000000168000000001400480800002D03BB
:0808480050414E202020200049
:100900008E588E588E588E588E588E5822588E5823
:100910008E588E588E588E588E588E588E588E58A7
:100920008E588E588E588E588E588E588E588E5897
:100930008E588E588E5846538E588E588E586358FF
:100940008E588E588E588E588E588E588E588E5877
:100950008E588E588E588E588E588E588E588E5867
:100960008E588E588E588E588E588E588E588E5857
:100970008E588E588E588E5880028E588E588E58AB
:100980008E588E588E588E588E588E588E588E5837
:100990008E588E588E588E5880028E588E588E588B
:1009A0008E588E588E588E588E588E588E588E5817
:1009B0008E588E588E588E588E588E588E588E5807
:1009C0008E588E588E588E588E588E588E588E58F7
:1009D0008E588E588E588E588E588E588E588E58E7
:1009E00080028E588E588E588E588E588E588E583B
:1009F0008E588E588E588E588E588E588E588E58C7
:060A0000FF00EEEFABF079
:10FE220000010103020202020302020301000001B7
:10FE320001010101010101010101010101010101B0
:10FE420001010101010101010101010101010101A0
:10FE52000101010101010101010101010101010190
:10FE62000001010101010101010100010100000085
:10FE7200000000000000000000000000000001017E
:10FE82000101010301010101010101010000000062
:10FE92000000000001000101010101010001010156
:10FEA2000101010100010101010101000100000045
:10FEB200000000000000000000000000000101013D
:10FEC2000101010101010101000001010000000026
:10FED2000000000001000001010100000001010119
:10FEE2000101010100010101010101010100000004
:10FEF20000000001010000010101000000010100F9
:10FF020001010100000100010101010100000000E6
:10FF120000000000000000000000000100000000DE
:10FF220000E5FFD1FFBDFFA9FF95FF81FF6DFF59DE
:10FF3200FF45FF424C5F56455253494F4E3D0B0A17
:10FF42000908000901000000A45D016C27010000FE
:10FF520000000000D85F010801000000000000005E
:10FF62000000000000000000000000050100000089
:10FF72004C5D01B61F01000000E260016C5F0106EA
:10FF820001000000785D01023201000000C0610141
:10FF9200D05D010401206201C25C01D00A010000AF
:10FFA20000666001FC5F010A02000000903D0164EE
:10FFB2004501000000485F010000000201585B019A
:10FFC200925C01781701000000366101905F010127
:10FFD20001C64B01683501000001781A01000000DA
:10FFE200B45F010302A86001BC2C01B643011A628E
:0EFFF200014C61017A47018E1001062B0100BF
:020000040001F9
:100000000501AA51D8B4B1D016D146C5D9F447C517
:10001000DAF4030EDF600ED054C525F553C526F57E
:10002000420E276E010E286E010E296EAF0E52ECA5
:10003000AFF035D020EE02F04650D9264750DA22F4
:10004000DF50546E20EE03F04650D9264750DA2296
:10005000DF50536EFD0E106E030E116E000E126E09
:1000600054C513F5000E57ECABF0FC0E106E030EEA
:10007000116E000E126E53C513F5000E57ECABF067
:10008000010E0501AA6F54C525F553C526F5520E7C
:1000900028ECAFF00501C14BC22B30ECAEF0010EE5
:1000A0001200A50E256E630E266E1D0E276EFE0E27
:1000B000286E0D0E296E010E2A6E040E2B6EEF0EA9
:1000C0003DECAFF0ECD7480EF66E080EF76E000E62
:1000D000F86E0800F5C425F5490EF66E080EF76EA9
:1000E000000EF86E0800F5C426F54A0EF66E080EEE
:1000F000F76E000EF86E0800F5C427F54B0EF66E8D
:10010000080EF76E000EF86E0800F5C428F54C0EC8
:10011000F66E080EF76E000EF86E0800F5C429F5AD
:100120004D0EF66E080EF76E000EF86E0800F5C460
:100130002AF54E0EF66E080EF76E000EF86E0800E9
:10014000F5C42BF5E20E3DECAFF0A9D7000E256EFD
:10015000000E266EA50E276E1D0E286E9AECACF0D2
:10016000296EB60E52ECAFF09AD720EE01F0465051
:10017000D9264750DA22DF50E06FE16BE151000AE7
:10018000D8A40DD0E0510D0AD8B4E0D71D0AD8B4D8
:1001900088D7010AD8B497D7530AD8B436D7000EF7
:1001A000120054C525F553C526F5A50E276E1D0E64
:1001B000286E9AECACF0296EB60E52ECAFF06FD709
:1001C00046C5D9F447C5DAF4040EDF600ED054C535
:1001D00025F553C526F5760E276E010E286E010E05
:1001E000296EAF0E52ECAFF05AD720EE02F0465017
:1001F000D9264750DA22DF50D8A431D020EE03F0C0
:100200004650D9264750DA22DF50D8A428D020EE15
:1002100004F04650D9264750DA22DF504B6E0C0EC0
:100220004B18D8A402D0B3853AD70D0E4B18D8A4DA
:1002300016D0B39534D720EE01F04650D92647505A
:10024000DA22DF50E06FE16BE151000AD8A407D059
:10025000E0510D0AD8B4A5D77B0AD8B4B1D746C5AA
:10026000D9F447C5DAF4030EDF6001D098D720EE49
:1002700002F04650D9264750DA22DE505418D8A44E
:100280008ED720EE03F04650D9264750DA2253503D
:10029000DE18D8A484D7F8D346C5D9F447C5DAF414
:1002A000040EDF600ED054C525F553C526F5730E38
:1002B000276E010E286E010E296EAF0E52ECAFF0C4
:1002C000EED620EE04F04650D9264750DA22140E1E
:1002D000DF6417D054C525F553C526F5090E276EE2
:1002E0006F0E13ECAFF054C525F553C526F5730E0C
:1002F000276E010E286E090E296EAF0E52ECAFF07C
:10030000CED620EE04F04650D9264750DA22DF50F0
:100310002CEC9AF0486E54C525F553C526F520EE11
:1003200004F04650D9264750DA22DF50276E48C5E0
:1003300028F59B0E67ECAFF020EE04F04650D9266E
:100340004750DA22DF50D8A4AAD6010E1CECA6F042
:10035000066E200E076E5F0E086E010E096E070E08
:10036000BBECACF09CD653C599F554C59AF534EC6A
:100370009CF0050199519A11D8B407D09AC525F57A
:1003800099C526F5510E28ECAFF0FF0046C5D9F40B
:1003900047C5DAF4050EDF600ED054C525F553C508
:1003A00026F5870E276E010E286E010E296EAF0E00
:1003B00052ECAFF074D620EE04F04650D9264750E8
:1003C000DA22DF50D8A40CD0000E066E740E076E31
:1003D000360E086E010E096E040EBBECACF05FD653
:1003E00020EE04F04650D9264750DA22090EDF6489
:1003F0000ED054C525F553C526F5870E276E010E80
:10040000286EFC0E296EAF0E52ECAFF048D620EEEF
:1004100004F04650D9264750DA22DF500501E06F3C
:10042000E16BD890E037E137FE0EE025E26FFF0E7A
:10043000E121E36F230EE225F66EFF0EE321F76E56
:10044000F86A000EF8220900F5C4E4F50900F5C4C5
:10045000E5F5110EE427000EE523E4C5F6F4E5C545
:10046000F7F4000EF86E0900F5500900F5100900C8
:10047000F510D8A413D054C525F553C526F5870E1D
:10048000276E20EE04F04650D9264750DA22DF507E
:10049000286E000E296EC70E52ECAFF020EE05F06C
:1004A0004650D9264750DA22DF50D8A412D020EE89
:1004B00004F04650D9264750DA22DF50066E740EFB
:1004C000076E360E086E010E096E040EBBECACF022
:1004D000E6D520EE04F04650D9264750DA22DF5008
:1004E0000501E06FE16BD890E037E137FE0EE025C3
:1004F000E26FFF0EE121E36F230EE225F66EFF0EA1
:10050000E321F76EF86A000EF8220900F5C4E4F55D
:100510000900F5C4E5F5110EE427000EE523E4C556
:10052000F6F4E5C5F7F4000EF86E01D814D0050016
:10053000FA6E0900F550FD6E0900F550FE6E0900D7
:10054000F550FF6EFA5020EE05F04650D926475080
:10055000DA22DF50120008C549F509C54AF54950AD
:100560004A10D8A40ED054C525F553C526F5870EDC
:10057000276E010E286EFD0E296EAF0E52ECAFF005
:100580008ED554C525F553C526F520EE04F046500A
:10059000D9264750DA22DF50276E20EE05F046506C
:1005A000D9264750DA22DF50286E20EE01F049505C
:1005B000D9264A50DA22DF50296E49C5D9F44AC5F6
:1005C000DAF4DF502A6EC70EFEECAEF068D546C5F1
:1005D000D9F447C5DAF4040EDF600ED054C525F512
:1005E00053C526F5780E276E010E286E010E296E72
:1005F000AF0E52ECAFF053D520EE04F04650D926A2
:100600004750DA22DF50D8A419D054C525F553C578
:1006100026F5000E276E000E286E090E296EAC0E10
:1006200052ECAFF0010E066E4A0E076E440E086ED5
:10063000010E096E030EBBECACF031D520EE04F0D8
:100640004650D9264750DA22090EDF640ED054C531
:1006500025F553C526F5780E276E010E286EFC0E83
:10066000296EAF0E52ECAFF01AD520EE04F04650D2
:10067000D9264750DA22DF50E06FE16BD890E0379F
:10068000E137FE0EE025E26FFF0EE121E36F230E5E
:10069000E225F66EFF0EE321F76EF86A000EF822EF
:1006A0000900F5C4E4F50900F5C4E5F50E0EE427EC
:1006B000000EE523E4C5F6F4E5C5F7F4000EF86E88
:1006C0000900F5500900F5100900F510D8A440D034
:1006D00054C525F553C526F520EE04F04650D9261D
:1006E0004750DA22DF50276E20EE04F04650D9261C
:1006F0004750DA22DF50E06FE16BD890E037E13706
:10070000FE0EE025E26FFF0EE121E36F230EE225EE
:10071000F66EFF0EE321F76EF86A000EF82209006C
:10072000F5C4E4F50900F5C4E5F5E4C5F6F4E5C55E
:10073000F7F4000EF86E0800F5C428F5000E296ED7
:10074000000E2A6E000E2B6EE70E3DECAFF0A7D424
:1007500054C525F553C526F520EE04F04650D9269C
:100760004750DA22DF50276E20EE04F04650D9269B
:100770004750DA22DF50E06FE16BD890E037E13785
:10078000FE0EE025E26FFF0EE121E36F230EE2256E
:10079000F66EFF0EE321F76EF86A000EF8220900EC
:1007A000F5C4E4F50900F5C4E5F5E4C5F6F4E5C5DE
:1007B000F7F4000EF86E0800F5C428F520EE04F0FA
:1007C0004650D9264750DA22DF50E66FE76BD890C3
:1007D000E637E737FE0EE625E86FFF0EE721E96F03
:1007E000230EE825F66EFF0EE921F76EF86A000E7B
:1007F000F8220900F5C4EAF50900F5C4EBF50E0E80
:10080000EA27000EEB23EAC5F6F4EBC5F7F4000E79
:10081000F86E01D80ED00500FA6E0900F550FD6E95
:100820000900F550FE6E0900F550FF6EFA50010EFA
:100830001200296E20EE04F04650D9264750DA22E5
:10084000DF500501EC6FED6BD890EC37ED37FE0E05
:10085000EC25EE6FFF0EED21EF6F230EEE25F66E09
:10086000FF0EEF21F76EF86A000EF8220900F5C4BA
:10087000F0F50900F5C4F1F50E0EF027000EF12396
:10088000F0C5F6F4F1C5F7F4000EF86E01D80ED0FD
:100890000500FA6E0900F550FD6E0900F550FE6E78
:1008A0000900F550FF6EFA50020E12002A6E20EE7B
:1008B00004F04650D9264750DA22DF500501F26F86
:1008C000F36BD890F237F337FE0EF225F46FFF0E7C
:1008D000F321F56F230EF425F66EFF0EF521F76E6A
:1008E000F86A000EF8220900F5C4F6F50900F5C40F
:1008F000F7F50E0EF627000EF723F6C5F6F4F7C54A
:10090000F7F4000EF86E01D80ED00500FA6E09005B
:10091000F550FD6E0900F550FE6E0900F550FF6EB2
:10092000FA50030E12002B6EE70E3DECAFF04FEFC6
:1009300080F046C5D9F447C5DAF4040EDF600FD065
:1009400054C525F553C526F5760E276E010E286E83
:10095000010E296EAF0E52ECAFF04FEF80F020EE9B
:1009600004F04650D9264750DA22DF504B6E53C56B
:1009700099F554C59AF554D04B50D8A459D0000ECF
:10098000AA6FA7699AC525F599C526F5760E276E33
:10099000010E286E000E296EAF0E52ECAFF054C55A
:1009A00025F553C526F5500E28ECAFF04DEF80F03D
:1009B0004B50D8A43DD054C525F553C526F5760E29
:1009C000276E010E286E000E296EAF0E52ECAFF0AE
:1009D00054C525F553C526F5500E28ECAFF0000E92
:1009E000546E54C553F5FD0E106E030E116E000EBD
:1009F000126E54C513F5000E57ECABF0FC0E106EE2
:100A0000030E116E000E126E53C513F5000E57EC57
:100A1000ABF0000E0501AA6F010EA76F4DEF80F03D
:100A2000AA51000AD8B404D0FF0AD8B4A5D7C0D7B9
:100A30000C0E4B18D8A410D0B38554C525F553C55A
:100A400026F5760E276E010E286E000E296EAF0E6B
:100A500052ECAFF04FEF80F00D0E4B18D8A4CFEF53
:100A600080F0B39554C525F553C526F5760E276E4F
:100A7000010E286E000E296EAF0E52ECAFF04FEF54
:100A800080F0FF004FEF80F020EE01F04650D926B5
:100A90004750DA22DF50E06FE16BE151000AD8A441
:100AA000CFEF80F0E0514F0AD8B45DD4110AD8B42A
:100AB000E8D72D0AD8B44CEF81F0050AD8B439D75D
:100AC0000E0AD8B484D5FF0AD8B460D4CFEF80F032
:100AD000A8D246C530F547C531F5030E326E000E7B
:100AE000336E39ECA8F0E806D8A402D0010E12004B
:100AF00020EE02F04650D9264750DA22DE50541834
:100B0000D8A40DD020EE03F04650D9264750DA2263
:100B10005350DE18D8A403D00501B381E7D70501EF
:100B2000B391E4D746C530F547C531F5040E326EB2
:100B3000000E336E39ECA8F0E806D8B4D7D720EE13
:100B400002F04650D9264750DA22DE505418D8A475
:100B50001FD020EE03F04650D9264750DA225350DA
:100B6000DE18D8A415D020EE04F04650D926475000
:100B7000DA22080EDE18D8B4CFD720EE04F04650A3
:100B8000D9264750DA22090EDE18D8B4C8D702D0C9
:100B90000501B391000E120046C530F547C531F589
:100BA000070E326E010E336E39ECA8F0E806D8A4B9
:100BB0000AD054C525F553C526F5010E276E6F0ED4
:100BC00013ECAFF093D70501B3A190D720EE03F05B
:100BD0004650D9264750DA22DF50486E20EE02F008
:100BE0004650D9264750DA22DF50496E48503F6EB2
:100BF00049C540F520EE05F04650D9264750DA2287
:100C0000DF504B6E20EE04F04650D9264750DA22D2
:100C1000DF504C6E4B50416E4CC542F520EE06F055
:100C20004650D9264750DA22DF50436E20EE07F0B7
:100C30004650D9264750DA22DF50446E2BEC9FF005
:100C400055D746C530F547C531F5050E326E010E54
:100C5000336E39ECA8F0E806D8B448D70501B3A143
:100C600045D720EE03F04650D9264750DA22DF5010
:100C7000486E20EE02F04650D9264750DA22DF5067
:100C8000496E48502B6E49C52CF520EE05F04650B4
:100C9000D9264750DA22DF504B6E20EE04F0465042
:100CA000D9264750DA22DF504C6E4B502D6E4CC582
:100CB0002EF56FECA5F01AD746C530F547C531F5CE
:100CC000060E326E010E336E39ECA8F0E806D8B489
:100CD0000DD70501B3A10AD720EE03F04650D9265F
:100CE0004750DA22DF50486E20EE02F04650D926F7
:100CF0004750DA22DF50496E48502C6E49C52DF519
:100D000020EE05F04650D9264750DA22DF504B6ED0
:100D100020EE04F04650D9264750DA22DF504C6EC0
:100D20004B502E6E4CC52FF520EE06F04650D926BE
:100D30004750DA22DF50306E97EC99F0D7D646C58F
:100D400030F547C531F5030E326E000E336E39ECC7
:100D5000A8F0E806D8B4CAD620EE02F04650D9264C
:100D60004750DA22DE505418D8A4C0D620EE03F043
:100D70004650D9264750DA225350DE18D8A4B6D6AA
:100D8000CED646C530F547C531F5030E326E010E9D
:100D9000336E39ECA8F0E806D8B4A8D620EE02F0FD
:100DA0004650D9264750DA22DE505418D8A49ED691
:100DB00020EE03F04650D9264750DA225350DE1871
:100DC000D8A494D60501B3B117D054C525F553C5A1
:100DD00026F5020E276E6F0E13ECAFF054C525F505
:100DE00053C526F5550E276E040E286E020E296E89
:100DF000AF0E52ECAFF07AD678ECAEF0CBD646C55B
:100E000030F547C531F5030E326E000E336E39EC06
:100E1000A8F0E806D8B46AD620EE02F04650D926EB
:100E20004750DA22DE505418D8A460D620EE03F0E2
:100E30004650D9264750DA225350DE18D8A456D649
:100E400063ECB0F053D646C530F547C531F5030E17
:100E5000326E000E336E39ECA8F0E806D8B446D6F0
:100E600020EE02F04650D9264750DA22DE505418C0
:100E7000D8A43CD620EE03F04650D9264750DA22BB
:100E80005350DE18D8A432D657ECADF02FD646C555
:100E900030F547C531F5030E326E000E336E39EC76
:100EA000A8F0E806D8B422D620EE02F04650D926A3
:100EB0004750DA22DE505418D8A418D620EE03F09A
:100EC0004650D9264750DA225350DE18D8A40ED601
:100ED0003AECADF00BD646C530F547C531F5040EFA
:100EE000326E000E336E39ECA8F0E806D8B4FED5A9
:100EF00020EE02F04650D9264750DA22DE50541830
:100F0000D8A4F4D520EE03F04650D9264750DA2273
:100F10005350DE18D8A4EAD520EE04F04650D92666
:100F20004750DA22DF50F9ECA4F0E0D546C530F5A1
:100F300047C531F5050E326E000E336E39ECA8F060
:100F4000E806D8B4D3D520EE02F04650D926475053
:100F5000DA22DE505418D8A4C9D520EE03F046504A
:100F6000D9264750DA225350DE18D8A4BFD520EE38
:100F700005F04650D9264750DA22DF502B6E20EE7E
:100F800004F04650D9264750DA22DF503FECA1F05A
:100F9000ADD546C530F547C531F5080E326E010EA8
:100FA000336E39ECA8F0E806D8B4A0D520EE03F0F3
:100FB0004650D9264750DA22DF50486E20EE02F024
:100FC0004650D9264750DA22DF50496E48503F6ECE
:100FD00049C540F520EE05F04650D9264750DA22A3
:100FE000DF504B6E20EE04F04650D9264750DA22EF
:100FF000DF504C6E4B50416E4CC542F520EE07F071
:101000004650D9264750DA22DF50436E20EE08F0D2
:101010004650D9264750DA22DF50446E2BEC9FF021
:1010200065D520EE01F04650D9264750DA22DF5030
:10103000486E496A4950000AD8A4ACD54850530AB2
:10104000D8B447D5070AD8B47AD6010AD8B499D605
:10105000030AD8B4F8D6010AD8B4D1D60F0AD8B446
:1010600016D72A0AD8B437D7040AD8B45BD5E30A0E
:10107000D8B4E7D5090AD8B459D72E0AD8B41CD6A3
:10108000600AD8B489D5270AD8B483D783D520EE8F
:1010900001F00E50D9260F50DA22DF5010ECB0F0DC
:1010A0000009D8B4A5D0080E54ECA6F00009D8B4B5
:1010B0009FD0CB0E026E050E036EA6EC9CF002C50F
:1010C00018F503C519F518501910D8A406D0060153
:1010D000C14BC22BE7ECB0F07AD020EE01F00E50FD
:1010E000D9260F50DA2210EE01F01850E1261950DF
:1010F000E222DFC4E7F40EC5D9F40FC5DAF418C54F
:10110000E1F419C5E2F4DFC4E7F420EE02F00E507A
:10111000D9260F50DA2210EE02F01850E1261950AD
:10112000E222DFC4E7F420EE03F00E50D9260F5080
:10113000DA2210EE03F01850E1261950E222DFC443
:10114000E7F420EE04F00E50D9260F50DA2210EE0C
:1011500004F01850E1261950E222DFC4E7F420EE33
:1011600005F00E50D9260F50DA2210EE05F0185077
:10117000E1261950E222DFC4E7F420EE06F00E501B
:10118000D9260F50DA2210EE06F01850E126195039
:10119000E222DFC4E7F420EE07F00E50D9260F500C
:1011A000DA2210EE07F01850E1261950E222DFC4CF
:1011B000E7F420EE08F00E50D9260F50DA2210EE98
:1011C00008F01850E1261950E222DFC4E7F4AFEC32
:1011D000A9F0106E1050166E176A16500601D55DF4
:1011E0001750D659D8B004D016C5D5F617C5D6F6BF
:1011F00001016CB106D00601BB4BBC2BE7ECB0F093
:1012000012006CAD03D00601C94BCA2B0501AE51CB
:10121000D8A407D0AB51D8A404D0010EAB6F010EF7
:10122000AE6F70C11AF571C11BF5AEC510F57F0E1A
:10123000101620EE01F00E50D9260F50DA22DF50A2
:10124000116E126A230E1124F66EFE0E1220F76E36
:10125000F86A000EF8220800F550136E146A400E6A
:101260001324F66EFF0E1420F76EF86A000EF822B3
:101270000800F5C415F5010E1516000E15B0800E08
:10128000156E155010101AC5D9F41BC5DAF4DF6EAF
:1012900020EE01F01A50D9261B50DA2210EE01F090
:1012A0000E50E1260F50E222E750106E116A230E15
:1012B0001024F66EFE0E1120F76EF86A000EF8226A
:1012C0000800F550126E136A400E1224F66EFF0EDF
:1012D0001320F76EF86A000EF8220800F5C414F522
:1012E000D8901430DF6E20EE04F01A50D9261B502F
:1012F000DA220EC5E1F40FC5E2F4E7500F0BDF6E02
:1013000020EE05F01A50D9261B50DA22DF6A20EEB3
:1013100006F01A50D9261B50DA22DF6A20EE07F0B9
:101320001A50D9261B50DA22DF6A20EE01F00E5047
:10133000D9260F50DA2210EE08F01A50E1261B5081
:10134000E222DFC4E7F420EE02F00E50D9260F505F
:10135000DA2210EE09F01A50E1261B50E222DFC417
:10136000E7F420EE03F00E50D9260F50DA2210EEEB
:101370000AF01A50E1261B50E222DFC4E7F420EE07
:1013800004F00E50D9260F50DA2210EE0BF01A504E
:10139000E1261B50E222DFC4E7F420EE05F00E50F8
:1013A000D9260F50DA2210EE0CF01A50E1261B500D
:1013B000E222DFC4E7F420EE06F00E50D9260F50EB
:1013C000DA2210EE0DF01A50E1261B50E222DFC4A3
:1013D000E7F420EE07F00E50D9260F50DA2210EE77
:1013E0000EF01A50E1261B50E222DFC4E7F420EE93
:1013F00008F00E50D9260F50DA2210EE0FF01A50D6
:10140000E1261B50E222DFC4E7F40601BD4BBE2BF0
:101410000101698169ECA8F0106E1050166E176A10
:1014200016500601D35D1750D459D8B004D016C554
:10143000D3F617C5D4F60501AE51D8A404D0010ED9
:10144000B8ECAAF01200010169831200DCECA9F0EB
:1014500005016451025C4F6E65510358506E665130
:101460000458516E67510558526E9D51026E036AC1
:10147000046A056A3E0E066E000E076E000E086EC8
:10148000000E096E8DECAAF04F50025C50500358CC
:101490005150045852500558D8B00CD03FECA4F02D
:1014A000DCECA9F002C564F503C565F504C566F575
:1014B00005C567F5DCECA9F005016051025C4F6ED3
:1014C00061510358506E62510458516E6351055872
:1014D000526E5250511006E1250E4F5CF40E5058DA
:1014E000D8A00CD026ECA9F0DCECA9F002C560F580
:1014F00003C561F504C562F505C563F5000E060177
:10150000E16FE151020D230EF324F66EFF0EF4207D
:10151000F76EF86A000EF8220900F5500900F51080
:10152000D8B44DD0E151020D230EF324F66EFF0E18
:10153000F420F76EF86A000EF8220900F5C44FF5A2
:101540000900F5C450F50B0E4F26000E50224FC572
:10155000F6F450C5F7F4000EF86E0900F5500900D6
:10156000F5100900F510D8B42AD0E151020D230E70
:10157000F324F66EFF0EF420F76EF86A000EF822E0
:101580000900F5C44FF50900F5C450F50B0E4F26C0
:10159000000E50224FC5F6F450C5F7F4000EF86E59
:1015A00001D80DD00500FA6E0900F550FD6E090056
:1015B000F550FE6E0900F550FF6EFA50120006015C
:1015C000E12B080EE1659DD7AFEC8EF0000E060111
:1015D000E06F05019B519C11D8B4C3D0030E9B252D
:1015E0004F6E000E9C21506E4FC5F6F450C5F7F4B7
:1015F000000EF86E0900F5500900F5100900F5100D
:10160000D8B4AFD0E20E116E060E126E030E9B25FB
:101610004F6E000E9C21506E4FC5F6F450C5F7F486
:10162000000EF86E01D80DD00500FA6E0900F550D5
:10163000FD6E0900F550FE6E0900F550FF6EFA5080
:1016400012000009D8B48DD00601E251D8B489D077
:10165000070EBCEC9BF0E20E206E060E216E17EC1E
:1016600097F00601E06FE051D8A47BD0000EE16F47
:10167000E151020D230EF324F66EFF0EF420F76EF7
:10168000F86A000EF8220900F5500900F510D8B4E8
:1016900058D0E151020D230EF324F66EFF0EF42014
:1016A000F76EF86A000EF8220900F5C44FF509003C
:1016B000F5C450F5080E4F26000E50224FC5F6F423
:1016C00050C5F7F4000EF86E0900F5500900F5104A
:1016D0000900F510D8B435D0E20E466E060E476EFE
:1016E000E151020D230EF324F66EFF0EF420F76E87
:1016F000F86A000EF8220900F5C44FF50900F5C498
:1017000050F5080E4F26000E50224FC5F6F450C576
:10171000F7F4000EF86E01D80DD00500FA6E09003E
:10172000F550FD6E0900F550FE6E0900F550FF6E94
:10173000FA501200E806D8A404D0010E0601E06FAA
:1017400005D00601E12B080EE16592D7E051D8A43F
:1017500008D0E20E026E060E036E15ECB1F0060123
:10176000E06F0601E051D8B412000501C34BC42B51
:10177000080EBCEC9BF0120046C5D9F447C5DAF45C
:10178000030EDF6002D0000E120020EE02F0465081
:10179000D9264750DA22DE505418D8A4F4D720EEC8
:1017A00003F04650D9264750DA225350DE18D8A409
:1017B000EAD74AD146C5D9F447C5DAF4040EDF604A
:1017C0001BD054C525F553C526F5010E276E6F0EA7
:1017D00013ECAFF054C525F553C526F5710E276EF1
:1017E000010E286E010E296EAF0E52ECAFF005010E
:1017F000C94BCA2B010E120020EE04F04650D92628
:101800004750DA22DF5074ECADF002C54AF503C54B
:101810004BF54BAE19D054C525F553C526F54A50A6
:101820000008276E6F0E13ECAFF054C525F553C5B5
:1018300026F5710E276E010E286E4A500008296E9B
:10184000AF0E52ECAFF0D3D70501C74BC82B54C530
:1018500025F553C526F520EE04F04650D92647500D
:10186000DA22DF50276E4AC528F5970E67ECAFF0F5
:1018700020EE04F04650D9264750DA22DF50D8A493
:10188000B9D7020E1CECA6F0066E380E076E5A0E83
:10189000086E010E096E060EBBECACF0ABD746C568
:1018A000D9F447C5DAF4050EDF600ED054C525F52E
:1018B00053C526F5960E276E010E286E010E296E71
:1018C000AF0E52ECAFF093D720EE05F04650D9267C
:1018D0004750DA22DF50176E20EE04F04650D9262A
:1018E0004750DA22DF5034ECA5F0486E48504A6E7B
:1018F0004B6A4BBE0FD04B5003E14A04D8A00AD02C
:1019000054C525F553C526F54AC527F56F0E13ECCA
:10191000AFF06DD754C525F553C526F5590E28EC03
:10192000AFF054C525F553C526F5960E276E010E6A
:10193000286E000E296EAF0E52ECAFF05BD746C595
:10194000D9F447C5DAF4050EDF600ED054C525F58D
:1019500053C526F58E0E276E010E286E010E296ED8
:10196000AF0E52ECAFF043D720EE05F04650D9262B
:101970004750DA22DF50176E20EE04F04650D92689
:101980004750DA22DF5034ECA5F0486E48504A6EDA
:101990004B6A4BBE1CD04B5003E14A04D8A017D071
:1019A00054C525F553C526F54AC527F56F0E13EC2A
:1019B000AFF054C525F553C526F58E0E276E010EE2
:1019C000286E4AC529F5AF0E52ECAFF010D720EEC5
:1019D00004F04650D9264750DA22DF5074ECADF0BF
:1019E00002C54AF503C54BF54BAE19D054C525F5D4
:1019F00053C526F54A500008276E6F0E13ECAFF062
:101A000054C525F553C526F58E0E276E010E286E9A
:101A10004A500008296EAF0E52ECAFF0E8D654C51C
:101A200025F553C526F520EE04F04650D92647503B
:101A3000DA22DF50276E4AC528F5970E67ECAFF023
:101A40000501C74BC82BD6D620EE01F04650D9264B
:101A50004750DA22DF50486E496A4950000AD8A43C
:101A600092D64850710AD8B4A5D6FF0AD8B467D721
:101A7000180AD8B414D787D60501AA05D8A438D037
:101A8000DCECA9F005017051025C2B6E715103581A
:101A90002C6E725104582D6E735105582E6E2E50B7
:101AA00008E1B50E2B5CC40E2C58040E2D58D8A09E
:101AB0001FD0B3A50FD054C525F553C526F5A6C52F
:101AC00027F5B9C528F5000E296EAB0E52ECAFF024
:101AD0000501A62BDCECA9F002C570F503C571F574
:101AE00004C572F505C573F50501B951D8A4B90748
:101AF000A851B319D8B40DD0F90E106E030E116EA3
:101B0000000E126EB3C513F5000E57ECABF0B3C563
:101B1000A8F50501A951AA19D8B413D0AA29D8B497
:101B200003D0AA05D8A40BD0FB0E106E030E116EC5
:101B3000000E126EAAC513F5000E57ECABF0AAC545
:101B4000A9F5DCECA9F005016C51025C2B6E6D511E
:101B500003582C6E6E5104582D6E6F5105582E6E21
:101B60002E502D1006E1250E2B5CF40E2C58D8A01B
:101B7000EBD0DCECA9F002C56CF503C56DF504C52E
:101B80006EF505C56FF50501BD4BBE2BBD51BE11F0
:101B9000D8A4DAD0BB4BBC2BD7D0CEA60BD0DCEC74
:101BA000A9F002C574F503C575F504C576F505C53C
:101BB00077F51200DCECA9F005017451025C2B6E84
:101BC000755103582C6E765104582D6E7751055877
:101BD0002E6E2E5008E1910E2B5CD00E2C58030E69
:101BE0002D58D8A01200FD0EAA6FA76930ECAEF0F8
:101BF0001200CEA6D4D7000EAA6FA769DCECA9F01C
:101C000002C574F503C575F504C576F505C577F508
:101C100054C525F553C526F5500E28ECAFF030EC31
:101C2000AEF0BDD7CEA61200DCECA9F005017451D0
:101C3000025C2B6E755103582C6E765104582D6E34
:101C4000775105582E6E2E5008E1910E2B5CD00E68
:101C50002C58030E2D58D8A014D0A7C5AAF5AA0554
:101C6000D8A4DDD799C553F59AC554F554C525F5C3
:101C700053C526F5520E28ECAFF00501C14BC22B1F
:101C8000CED7DCECA9F005017451025C2B6E7551C6
:101C900003582C6E765104582D6E775105582E6ED0
:101CA0002E502D1006E1250E2B5CF40E2C58D8A0DA
:101CB00076D753505410D8B407D054C525F553C522
:101CC00026F5510E28ECAFF0000E546E000E536E48
:101CD0000501AA69A4D7CEA61200DCECA9F0050183
:101CE0007451025C2B6E755103582C6E765104585A
:101CF0002D6E775105582E6E2E5008E1910E2B5CFB
:101D0000D00E2C58030E2D58D8A049D753C599F59D
:101D100054C59AF5000E546E54C553F5000EAA6FC3
:101D2000010EA76FDCECA9F002C574F503C575F5CB
:101D300004C576F505C577F59AC525F599C526F547
:101D4000500E28ECAFF06BD7AA51000AD8B46AD76E
:101D5000FD0AD8B44ED7020AD8B41FD7BCD7DCECE2
:101D6000A9F005016851025C0C6E695103580D6EB3
:101D70006A5104580E6E6B5105580F6E0F500E10BD
:101D800006E1720E0C5C020E0D58D8A069D0932BA0
:101D9000942BDCECA9F002C568F503C569F504C510
:101DA0006AF505C56BF55CD0BF8C000E946FDCD076
:101DB000BF9CFBD794C502F5036A000E056E190E91
:101DC000046E7BECA3F0023A02460246BF500218B2
:101DD000BF0B0218BF6E310E05019465C5D0E5D763
:101DE00094C502F5036A000E056E320E046E7BEC9C
:101DF000A3F0023A02460246BF500218BF0B021877
:101E0000BF6E630EE9D794C502F5036A000E056E36
:101E1000640E046E7BECA3F0023A02460246BF5009
:101E20000218BF0B0218BF6EC70ED6D7BF8C180E94
:101E300094659AD0000E946F000E07D0BF9C180EC8
:101E4000946592D0000E946F010E966F8DD0BF8C6A
:101E5000310EEED7BF9C310EF3D7BF9C630EF0D787
:101E6000050196510C6E0D6A0D50000AD8A47CD065
:101E70000C50000AD8B49CD7010AD8B495D7030AED
:101E8000D8B498D7010AD8B4ABD7070AD8B4BBD70F
:101E9000010AD8B4D3D7030AD8B4C8D7010AD8B432
:101EA000D9D70F0AD8B4D3D7010AD8B4D6D75CD0C3
:101EB000BF8E000E936F1200BF9EFBD793C502F535
:101EC000036A000E056E190E046E7BECA3F002325D
:101ED0000232BF5002187F0B0218BF6E310E05018F
:101EE00093651200E6D793C502F5036A000E056EEE
:101EF000320E046E7BECA3F002320232BF500218A5
:101F00007F0B0218BF6E630EEAD793C502F5036A12
:101F1000000E056E640E046E7BECA3F002320232FA
:101F2000BF5002187F0B0218BF6EC70ED8D7BF8EE6
:101F3000180E0FD0000E936F000E956F1200BF9E0B
:101F4000180E0CD0000E936F010E956F1200BF8E0D
:101F5000310E93651200EED7BF9E310E93651200CD
:101F6000F1D7BF9E630EFAD795510C6E0D6A0D50D6
:101F7000000AD8A412000C50000AD8B49DD7010A58
:101F8000D8B496D7030AD8B499D7010AD8B4ABD736
:101F9000070AD8B4BAD7010AD8B4D1D7030AD8B43B
:101FA000C6D7010AD8B4D8D70F0AD8B4D0D7010AF7
:101FB000D8A41200D6D7F3D046C5D9F447C5DAF471
:101FC000050EDF600BD054C525F553C526F5010E6F
:101FD000276E6F0E13ECAFF0010E120020EE01F031
:101FE0004650D9264750DA22920EDE18D8A42BD0BC
:101FF00020EE03F04650D9264750DA22DF50486ED3
:1020000020EE02F04650D9264750DA22DF50496EC2
:102010004850196E49C51AF520EE05F04650D926EC
:102020004750DA22DF504B6E20EE04F04650D9269E
:102030004750DA22DF504C6E4B501B6E4CC51CF5DE
:102040007EECABF01AD0000E1A6E000E196E20EE68
:1020500005F04650D9264750DA22DF50486E20EE70
:1020600004F04650D9264750DA22DF50496E4850D6
:102070001B6E49C51CF57EECABF04E6E4E28D8B4F5
:10208000ABD720EE01F04650D9264750DA22920E07
:10209000DE18D8A44ED04E5012ECACF0E806D8A40E
:1020A00024D020EE02F04650D9264750DA22DF50E5
:1020B000256E20EE03F04650D9264750DA22DF5035
:1020C000266E20EE04F04650D9264750DA22DF5023
:1020D000276E20EE05F04650D9264750DA22DF5011
:1020E000286E930E67ECAFF077D720EE02F04650E3
:1020F000D9264750DA22DF50256E20EE03F04650F5
:10210000D9264750DA22DF50266E20EE04F04650E2
:10211000D9264750DA22DF50276E20EE05F04650D0
:10212000D9264750DA22DF50286E940E67ECAFF0C4
:1021300053D74E5012ECACF0E806D8A418D054C5D2
:1021400025F553C526F520EE04F04650D926475014
:10215000DA22DF50276E20EE05F04650D926475090
:10216000DA22DF50286E9D0E67ECAFF035D754C5EC
:1021700025F553C526F520EE04F04650D9264750E4
:10218000DA22DF50276E20EE05F04650D926475060
:10219000DA22DF50286E9E0E67ECAFF01DD720EEDE
:1021A00001F04650D9264750DA22DF50486E496A7E
:1021B0004950000AD8A407D04850920AD8B4FCD697
:1021C000080AD8B4F9D6000E12001E6E20EE01F0F7
:1021D0001950D9261A50DA22DFB002D0010E01D0F0
:1021E000000E246E1E5031ECA7F00009D8B402D0C6
:1021F000010E12002450D8B40CD0020E0601501962
:10220000D8B404D0030E5019D8A403D07FECB0F09A
:10221000EFD75CC61FF5000E256E25C502F5036AD3
:10222000000E056E080E046E7BECA3F0540E022423
:10223000D96E060E0320DA6EDF501B6E25C51CF525
:10224000070E1C16010E1D6E1C2A02D0D8901D36DA
:102250001C2EFCD71D501B14206E2050D8B4A4D0C7
:1022600025C502F5036A000E056E080E046E7BECB0
:10227000A3F0580E0224D96E060E0320DA6EDF504A
:102280001B6E25C51CF5010E1D6E1C2A02D0D890B0
:102290001D361C2EFCD71D501B14070B236E77D048
:1022A0002350D8A403D024C521F507D02450D8A4A6
:1022B00002D0010E01D0000E216E226A000E2524EC
:1022C000D96EDA6A060EDA2221C5DFF42350D8B4BB
:1022D00019D02450D8B40BD0255078ECACF0000EB7
:1022E0002524D96EDA6A060EDA22010E4AD025506C
:1022F000FDECACF0000E2524D96EDA6A060EDA2267
:10230000DF6A52D02450D8B404D02550FDECACF094
:10231000F1D7255078ECACF0E2D72450D8B444D0B3
:102320002350D8B404D0255078ECACF0D8D7255041
:10233000FDECACF0DFD72450D8A436D02350D8B46D
:1023400004D02550FDECACF0D5D7255078ECACF09E
:10235000C6D72450D8B417D0255078ECACF0235011
:10236000D8B408D0000E2524D96EDA6A060EDA2217
:10237000030E07D0000E2524D96EDA6A060EDA2283
:10238000020EDF6E11D0255078ECACF0A8D71F50AC
:10239000F80AD8B4DED7050AD8B4CDD7030AD8B422
:1023A000BCD7010AD8B47CD7252A1F0E256435D79F
:1023B0001FD7D0C432F5030E3216D8903236D890DB
:1023C00032343A6ECF50030B3A125D0E0501B2253E
:1023D000D96EDA6A060EDA22DF503A18346E000E31
:1023E0003C6E3CC532F5010E336E322A02D0D890D5
:1023F0003336322EFCD7335034140009D8B4B2D05F
:102400003CC532F5010E336E322A02D0D8903336F5
:10241000322EFCD733503A140009D8B402D0010E42
:1024200001D0000E3E6E0501B251040DF3503C2464
:102430003F6E3F5030ECABF03B6E3B28D8B492D0AF
:1024400052C63DF5010E396E3DA002D0010E07D0F7
:102450003DA402D0020E03D03DA602D0030E396E79
:102460000501B3A102D0010E396E3950D8A438D07D
:1024700079D03DA207D03E50D8A402D0010E01D0A1
:10248000000E3E6E200E3F24D96EDA6A060EDA2266
:102490003EC5DFF42FD03DA204D03E50D8A462D078
:1024A000F1D73E50D8B45ED0EDD73E50D8B45AD014
:1024B000200E3F24D96EDA6A060EDA22200E3F245F
:1024C000E16EE26A060EE222E750FF0ADF6E200E9E
:1024D0003F24D96EDA6A060EDA22DF503E6E0AD049
:1024E0003950010AD8B4C5D7030AD8B4D4D7010AE1
:1024F000D8B4DBD73F50106E116A126A200E3F2409
:10250000D96EDA6A060EDA22DF50136E000E57EC2F
:10251000ABF00501B651D8B425D0B3A11CD03B50C7
:10252000E6EC9FF00EC535F50FC536F53B50C4EC13
:10253000A6F00EC537F50FC538F536C525F535C5F6
:1025400026F538C527F537C528F53F28296EB30E7F
:1025500052ECAFF007D03EC52AF53DC52BF53B50F8
:1025600067ECA7F03C2A030E3C643BD75D0E0501E7
:10257000B225D96EDA6A060EDA223AC5DFF4B22B3A
:10258000070EB26504D0010EB66F000EB26FE1EC1B
:10259000AAF01200010E3A6E200E3A6401D0120029
:1025A00053C523F554C524F53AC525F5266A000E12
:1025B000276E010E286E010E296E9EEC94F053C515
:1025C00023F554C524F53AC525F5266A010E276E74
:1025D0003AC528F5010E296E9EEC94F053C523F5FB
:1025E00054C524F53AC525F5266A020E276E110E4C
:1025F000286E010E296E9EEC94F053C523F554C548
:1026000024F53AC525F5266A040E276E3AC538F535
:10261000FF0E3826010E396E382A02D0D89039368E
:10262000382EFCD73950286E010E296E9EEC94F09E
:1026300053C523F554C524F53AC525F5266A050E7C
:10264000276E3AC538F5F70E3826010E396E382A4E
:1026500002D0D8903936382EFCD73950286E010E6A
:10266000296E9EEC94F053C523F554C524F53AC564
:1026700025F5266A060E276E3AC538F5EF0E382680
:10268000010E396E382A02D0D8903936382EFCD750
:102690003950286E010E296E9EEC94F053C523F537
:1026A00054C524F53AC525F5266A070E276E3AC5A6
:1026B00038F5E70E3826010E396E382A02D0D89048
:1026C0003936382EFCD73950286E010E296E9EEC13
:1026D00094F053C523F554C524F53AC525F5266A6B
:1026E000080E276E000E286E010E296E9EEC94F0E7
:1026F00053C523F554C524F53AC525F5266A090EB8
:10270000276E000E286E010E296E9EEC94F053C5C4
:1027100023F554C524F53AC525F5266A0A0E276E19
:10272000000E286E010E296E9EEC94F053C523F521
:1027300054C524F53AC525F5266A0B0E276E000E02
:10274000286E010E296E9EEC94F053C523F554C5F6
:1027500024F53AC525F5266A0C0E276EFF0E286E65
:10276000010E296E9EEC94F03A2A16D720EE01F065
:102770004650D9264750DA22760EDE18D8A43DD02E
:1027800046C530F547C531F5040E326EB1ECB0F0F8
:10279000E806D8A402D0010E120020EE02F0465046
:1027A000D9264750DA22DE505418D8A424D020EE7F
:1027B00003F04650D9264750DA225350DE18D8A4E9
:1027C0001AD020EE04F04650D9264750DA220A0EDD
:1027D000DE18D8A403D00501B381DDD720EE04F0C4
:1027E0004650D9264750DA220B0EDE18D8A403D063
:1027F0000501B391D0D7000E12000501B3A3FBD79A
:10280000060E90ECA1F002500310D8B4F4D746C5E0
:10281000D9F447C5DAF4050EDF6001D0ECD720EE1D
:1028200002F04650D9264750DA22DF504E6E20EE95
:1028300003F04650D9264750DA22DF504D6E20EE85
:1028400004F04650D9264750DA22DF504B6E20EE76
:1028500005F04650D9264750DA22DF504A6E17D08D
:102860004DC519F54EC51AF54DC51BF54EC51CF5E0
:102870007EECABF00AD0000E1A6E000E196E4DC53C
:102880001BF54EC51CF57EECABF04C6E1BD020EE5C
:1028900001F04650D9264750DA22DF50486E496A87
:1028A0004950000AD8A4A7D74850900AD8B4D8D71E
:1028B000010AD8B4D5D7090AD8B4DDD7010AD8B4EB
:1028C000DAD799D74C28D8B496D74C50F2ECB0F060
:1028D0000009D8B490D754C525F553C526F520EE88
:1028E00001F04650D9264750DA22DF50276E20EEFD
:1028F00002F04650D9264750DA22DF50286E20EEEB
:1029000003F04650D9264750DA22DF50296E20EED8
:1029100004F04650D9264750DA22DF502A6E20EEC6
:1029200005F04650D9264750DA22DF502B6EE60ECE
:102930003DECAFF00501DE4BDF2B5DD723C519F56C
:1029400024C51AF525C51BF526C51CF57EECABF094
:10295000376E3728D8A4C7D0010E356E000E376EFB
:10296000FD0E376401D0BAD03750C4ECA6F00EC5C6
:1029700033F50FC534F533503410D8A4ADD03750EB
:10298000120DF3C42AF5F4C42BF52C6A010E2A2487
:10299000106EE80E2B20116E010E2C20126E23C536
:1029A00013F5010E57ECABF03750120DF3C42AF5B6
:1029B000F4C42BF52C6A000E2A24106EE80E2B208E
:1029C000116E010E2C20126E2450136E010E57EC66
:1029D000ABF03750120DF3C42AF5F4C42BF52C6A72
:1029E000030E2A24106EE80E2B20116E010E2C20EF
:1029F000126E25C513F5010E57ECABF03750120DD2
:102A0000F3C42AF5F4C42BF52C6A020E2A24106EA6
:102A1000E80E2B20116E010E2C20126E2650136E24
:102A2000010E57ECABF02950D8B416D03750120D28
:102A3000F3C42AF5F4C42BF52C6A040E2A24106E74
:102A4000E80E2B20116E010E2C20126E010E136E5B
:102A5000010E57ECABF015D03750120DF3C42AF528
:102A6000F4C42BF52C6A040E2A24106EE80E2B20D9
:102A7000116E010E2C20126E000E136E010E57EC1B
:102A8000ABF0000E366E36502A6E2B6A2C6A375029
:102A9000120DF3C42DF5F4C42EF52F6A2A502D24FF
:102AA000306E2B502E20316E2C502F20326E050EA2
:102AB0003024106EE80E3120116E010E3220126E9D
:102AC000000E136E010E57ECABF0362A110E366471
:102AD000DAD7000E356E02D0372A42D73550D8B437
:102AE00002D0040E120027C517F528C518F5375077
:102AF000C8ECA8F00009D8B402D0060E120026ECEB
:102B0000A9F0000E1200CB0E026E050E036EEBEC68
:102B1000A0F002C515F503C516F515501610D8B46A
:102B200010D011C502F512C503F515C504F516C57B
:102B300005F5000E076E090E066E34ECACF0010EC2
:102B40001200010178B102D0000E1200AFECA9F022
:102B5000136E1350176E186A17500601D55D185082
:102B6000D659D8B004D017C5D5F618C5D6F67CC14D
:102B700019F57DC11AF519C5D9F41AC5DAF4DF5073
:102B80007F0B146E1450F6ECA2F00601C34BC42B5D
:102B900020EE04F01950D9261A50DA22DFAA04D008
:102BA000030E01015D1315D020EE04F01950D92653
:102BB0001A50DA22DF500F0B11C5D9F412C5DAF41E
:102BC000DF6E11C5D9F412C5DAF4DF50D8A403D0F2
:102BD00001017581B9D720EE08F01950D9261A5095
:102BE000DA2210EE01F01150E1261250E222DFC489
:102BF000E7F420EE09F01950D9261A50DA2210EE27
:102C000002F01150E1261250E222DFC4E7F420EE78
:102C10000AF01950D9261A50DA2210EE03F011509A
:102C2000E1261250E222DFC4E7F420EE0BF0195047
:102C3000D9261A50DA2210EE04F01150E126125073
:102C4000E222DFC4E7F420EE0CF01950D9261A5026
:102C5000DA2210EE05F01150E1261250E222DFC414
:102C6000E7F420EE0DF01950D9261A50DA2210EEB2
:102C700006F01150E1261250E222DFC4E7F420EE04
:102C80000EF01950D9261A50DA2210EE07F0115022
:102C9000E1261250E222DFC4E7F420EE0FF01950D3
:102CA000D9261A50DA2210EE08F01150E1261250FF
:102CB000E222DFC4E7F40101758141D7000E05016E
:102CC000CD6F000ECE6F690ECB6F060ECC6F080E67
:102CD000CF6FFE0E086E030E096E000E0A6E000E18
:102CE000F7ECA8F008C50EF509C50FF50FAE04D036
:102CF000000E0501AE6F02D00EC5AEF5000E0F6ED0
:102D0000010E0E6ED8900E34D96E0F34DA6EB10EFD
:102D1000D926060EDA22DE6ADD6A0E4A0F2A0FBEB7
:102D2000F1D70F5004E1120E0E5CD8A0EBD7000EC5
:102D30000601B26F120EB16F000E0501AD6F460EA7
:102D400002010B6F0B0E3D6FC794C786000E030187
:102D5000676F0101018F040EC9ECABF00009D8A424
:102D60004ED0B00E01014C6F3B0E4D6F000E4E6FFA
:102D7000000E4F6F000E006F870E016F100E026F76
:102D8000500E036F000E046F030E056F020E066FE8
:102D90003F0E076F100E506F040E516F6F0E526F83
:102DA000030E536F800E5C6F040E5D6F6F0E5E6FCF
:102DB000000E5F6F800E686F040E696F600E6A6FA1
:102DC0001F0E6B6F080E746F040E756F000E766F1A
:102DD0001F0E776F000E8C6F000E8D6F000E8E6FC2
:102DE000000E8F6F000E906F000E916F000E926FAD
:102DF000400E936F830E806F060EC9ECABF0FBECB8
:102E0000A6F0000E0501AB6FDCECA9F002C578F569
:102E100003C579F504C57AF505C57BF50301629D07
:102E2000AE9C01011E811F871F8F9E8C120020C542
:102E3000D9F421C5DAF4050EDF6002D0000E1200CD
:102E400020EE03F02050D9262150DA22DF50226EE6
:102E500020EE02F02050D9262150DA22DF50236ED6
:102E60002250276E23C528F505D0000E286E000ECF
:102E7000276E3FD020EE01F02050D9262150DA22D3
:102E8000DF50226E236A2350000AD8A4D7D72250DD
:102E9000900AD8B42ED0010AD8B42BD0090AD8B4DD
:102EA000E4D7010AD8B4E1D7290AD8B422D0010A5C
:102EB000D8B41FD0090AD8B4D8D7010AD8B4D5D706
:102EC000690AD8B416D0010AD8B413D0090AD8B404
:102ED000CCD7010AD8B4C9D7290AD8B40AD0010A74
:102EE000D8B407D0090AD8B4C0D7010AD8B4BDD71E
:102EF000A5D727C519F528C51AF520EE05F02050ED
:102F0000D9262150DA22DF50226E20EE04F0205024
:102F1000D9262150DA22DF50236E22501B6E23C5A2
:102F20001CF57EECABF0296E2928D8B487D7295040
:102F30008FECAEF00009D8B481D7020E0E6E295086
:102F4000D3ECA7F00E50266E26A678D7010E0E6E93
:102F50002950D3ECA7F00E50256E200E2524D96EF3
:102F6000DA6A060EDA2210EE01F02050E126215036
:102F7000E222E7B002D0010E01D0000EDF6E010E9A
:102F8000120091D0DCECA9F005017851025C186EBA
:102F900079510358196E7A5104581A6E7B510558AD
:102FA0001B6E1B501A1006E1D50E185C300E195816
:102FB000D8A01200000EB8ECAAF01200DCECA9F0C8
:102FC00005017851025C186E79510358196E7A51D7
:102FD00004581A6E7B5105581B6E1B501A1006E1DF
:102FE0006B0E185C180E1958D8A01200000E1E6E39
:102FF00001D01E2A400E1E24D96EDA6A060EDA228D
:10300000DE28D8A403D00F0E1E64F3D7400E1E2472
:10301000D96EDA6A060EDA22DF501C6E1C28D8B48C
:1030200017D01E50080DF3C41DF503D0D8901C32E4
:103030001D2A1CB0FBD71D50D8B40AD0640E1D60E9
:1030400007D01DC5AEF50501AE5116ECAEF005D0AA
:103050000601D14BD22BE7ECB0F0030E0501AB1902
:10306000D8A41DD0000E1E6E1E50186E196A183A94
:10307000193AF00E191618500F0B1912F00E1816F7
:10308000000E1824D96E3C0E1920DA6EAE517F0B5B
:10309000DF6E1E2A1F0E1E64E7D701016983000E32
:1030A0000501AB6F12000501AB51186E196A19507A
:1030B000000AD8A412001850010AD8B463D7030A32
:1030C000D8B47CD7010AD8A4120078D7206E20503B
:1030D000120DF3C417F5F4C418F5196A000E17247D
:1030E000106EE80E1820116E010E1920126E000EDF
:1030F000136E010E57ECABF02050120DF3C417F510
:10310000F4C418F5196A010E1724106EE80E182081
:10311000116E010E1920126E000E136E010E57EC87
:10312000ABF02050120DF3C417F5F4C418F5196A6A
:10313000020E1724106EE80E1820116E010E1920D1
:10314000126E000E136E010E57ECABF02050120DF4
:10315000F3C417F5F4C418F5196A030E1724106E9A
:10316000E80E1820116E010E1920126E000E136E5B
:10317000010E57ECABF02050120DF3C417F5F4C458
:1031800018F5196A040E1724106EE80E1820116E37
:10319000010E1920126E000E136E010E57ECABF0EB
:1031A000000E1F6E1F50176E186A050E1726000EB0
:1031B00018222050120DF3C419F5F4C41AF51B6A35
:1031C000175019241C6E18501A201D6E000E18BEC0
:1031D000FF0E1B201E6E000E1C24106EE80E1D201C
:1031E000116E010E1E20126E000E136E010E57ECB2
:1031F000ABF01F2A0C0E1F64D5D726ECA9F0000EE9
:10320000120046C5D9F447C5DAF4050EDF6002D0D6
:10321000000E120020EE03F04650D9264750DA2265
:10322000DF50486E20EE02F04650D9264750DA2291
:10323000DF50496E48504B6E49C54CF505D0000E25
:103240004C6E000E4B6E3FD020EE01F04650D9265A
:103250004750DA22DF50486E496A4950000AD8A424
:10326000D7D74850900AD8B42ED0010AD8B42BD062
:10327000090AD8B4E4D7010AD8B4E1D7290AD8B4E6
:1032800022D0010AD8B41FD0090AD8B4D8D7010A6D
:10329000D8B4D5D7690AD8B416D0010AD8B413D097
:1032A000090AD8B4CCD7010AD8B4C9D7290AD8B4E6
:1032B0000AD0010AD8B407D0090AD8B4C0D7010A85
:1032C000D8B4BDD7A5D74BC519F54CC51AF520EE16
:1032D00005F04650D9264750DA22DF50486E20EEDE
:1032E00004F04650D9264750DA22DF50496E485044
:1032F0001B6E49C51CF57EECABF04E6E4E28D8B463
:1033000087D74E50F2ECB0F00009D8B481D746C54B
:1033100019F547C51AF54E50E5EC90F04D6E4D0489
:10332000D8A403D00501DA4BDB2B4D5012002CC57D
:1033300019F52DC51AF52EC51BF52FC51CF57EEC0C
:10334000ABF0336E3328D8A417D054C525F553C538
:1033500026F5070E276E6F0E13ECAFF054C525F55A
:1033600053C526F5B20E276E040E286E070E296E81
:10337000AF0E52ECAFF012000D0E306417D054C5F2
:1033800025F553C526F5060E276E6F0E13ECAFF02C
:1033900054C525F553C526F5B20E276E040E286ECA
:1033A000060E296EAF0E52ECAFF012003050D8A4CA
:1033B0001FD02D50256E2CC526F52F50276E2EC5FB
:1033C00028F5000E296E335013ECB1F02A6ED30E9F
:1033D000FEECAEF0040E1CECA6F0066EDA0E076EE4
:1033E000440E086E010E096E3350BBECACF01200B7
:1033F00030040E6E3350D3ECA7F00EC531F50FC577
:1034000032F532AE19D054C525F553C526F53150E5
:103410000008276E6F0E13ECAFF054C525F553C5A9
:1034200026F5B20E276E040E286E31500008296E64
:10343000AF0E52ECAFF012002D50256E2CC526F5C4
:103440002F50276E2EC528F530C529F531C52AF530
:10345000D30EFEECAEF01200076E45D0140E120033
:10346000A50E1200630E12001D0E1200FE0E1200B9
:103470000D0E1200010E1200040E12009AECACF0B8
:103480001200170E1200030E54ECA6F00009D8A487
:10349000F1D7000E1200080E1200FC0EF66EFF0EA1
:1034A000F76E3F0EF86E0800F5501200FD0EF66E36
:1034B000FF0EF76E3F0EF86E0800F5501200FE0E7C
:1034C000F66EFF0EF76E3F0EF86E0800F550120014
:1034D000FF0EF66EFF0EF76E3F0EF86E0800F55009
:1034E0001200680E12000750000AD8B4B7D7010ABC
:1034F000D8B4B6D7030AD8B4B5D7010AD8B4B4D76C
:10350000070AD8B4B3D7010AD8B4B2D7030AD8B4DB
:10351000B1D7010AD8B4B0D70F0AD8B4AFD7010ACF
:10352000D8B4AFD7030AD8B4AED7010AD8B4B1D74C
:10353000070AD8B4B0D7010AD8B4ABD7030AD8B4B5
:10354000A8D7010AD8B4A9D71F0AD8B4AFD7010A9F
:10355000D8B4B5D7030AD8B4BBD7010AD8B48AD730
:10356000070AD8B4BED795D7FD0E086E030E096EB4
:10357000000E0A6E000EF7ECA8F008C50FF509C59D
:1035800010F510AE05D0000E546E000E536E13D021
:103590000FC554F5FC0E086E030E096E000E0A6E80
:1035A000000EF7ECA8F008C50FF509C510F510BE20
:1035B000EAD70FC553F5FB0E086E030E096E000E19
:1035C0000A6E000EF7ECA8F008C50FF509C510F556
:1035D00010AE03D00501AA6902D00FC5AAF5AAC58D
:1035E000A7F5F90E086E030E096E000E0A6E000EA6
:1035F000F7ECA8F008C50FF509C510F510AE04D01A
:10360000040E0501B36F02D00FC5B3F530ECAEF078
:10361000DCECA9F002C574F503C575F504C576F5B3
:1036200005C577F5010E0E6E0E50020DB70EF32490
:10363000D96E050EF420DA6EDE6ADD6A0E2A060EF9
:103640000E64F2D7000E0501B86F060EB76F000EBC
:10365000A66F000E706F000E716F000E726F000E7D
:10366000736F000E6C6F000E6D6F000E6E6F000EAC
:103670006F6F12003250020D230EF324F66EFF0E10
:10368000F420F76EF86A000EF8220900F5C434F54C
:103690000900F5C435F5110E3426000E352234C567
:1036A000F6F435C5F7F4000EF86E0900F550090080
:1036B000F5100900F510D8A411D054C525F553C54F
:1036C00026F53228276E000E286E000E296E000E99
:1036D0002A6EC70EFEECAEF0000E12003250020D44
:1036E000230EF324F66EFF0EF420F76EF86A000E38
:1036F000F8220900F5C434F50900F5C435F5110EBA
:103700003426000E352234C5F6F435C5F7F4000E24
:10371000F86E01D80ED00500FA6E0900F550FD6E66
:103720000900F550FE6E0900F550FF6EFA50335057
:10373000120008C536F509C537F536503710D8B42C
:10374000CBD754C525F553C526F53228276E33C58A
:1037500028F520EE01F03650D9263750DA22DF5016
:10376000296E36C5D9F437C5DAF4DF502A6EC70E94
:10377000FEECAEF0020E1200046E46D0000E050103
:10378000956F000E966F1200010E0501956F000EE9
:10379000966F1200000E0501956F030E966F1200D2
:1037A000000E0501956F010E966F1200000E0501C7
:1037B000946F190E936F020E956F020E966F1200A2
:1037C0000501AA29D8A403D0060E966F1200AA05F7
:1037D000D8A41200060E956F12000501AA29D8A4DC
:1037E00003D0080E966F1200AA05D8A41200080E86
:1037F000956F1200000E0501946F000E936F020E7C
:10380000956F020E966F12000450026E036A035009
:10381000000AD8A412000250000AD8B4AFD7010A97
:10382000D8B4B2D7030AD8B4B5D7010AD8B4B8D738
:10383000070AD8B4BBD7010AD8B4B2D7030AD8B4A0
:10384000AFD7010AD8B4BCD70F0AD8B4C6D7010A7B
:10385000D8B4A6D7030AD8B4A3D7010AD8B4CAD714
:10386000070AD8A41200C6D7000E3D6E3D50020DC7
:10387000230EF324F66EFF0EF420F76EF86A000EA6
:10388000F8220900F5500900F510D8B44DD03D508C
:10389000020D230EF324F66EFF0EF420F76EF86A85
:1038A000000EF8220900F5C43BF50900F5C43CF50B
:1038B000020E3B26000E3C223BC5F6F43CC5F7F455
:1038C000000EF86E0900F5500900F5100900F5101A
:1038D000D8B42AD03D50020D230EF324F66EFF0E0D
:1038E000F420F76EF86A000EF8220900F5C43BF5E3
:1038F0000900F5C43CF5020E3B26000E3C223BC5F8
:10390000F6F43CC5F7F4000EF86E01D80DD00500B2
:10391000FA6E0900F550FD6E0900F550FE6E0900C3
:10392000F550FF6EFA5012003D2A080E3D649ED7F6
:10393000FA0E106E030E116E000E126E010E136E53
:10394000000E57ECABF0F7ECB0F0120020EE02F0F6
:103950000250D9260350DA22DF50046E056A20EEA9
:1039600004F00250D9260350DA22DF50066EFF0E13
:103970000624076E086AFF0E082220EE03F00250AC
:10398000D9260350DA22DF50096E0A6A010E092691
:10399000000E0A22075009140B6E08500A140C6E10
:1039A00004500B1809E105500C18D8A405D0000EDE
:1039B000026E000E036E120020EE03F00250D926B4
:1039C0000350DA22DF500D6E20EE03F00250D926AC
:1039D0000350DA22DF2A20EE04F00250D9260350E9
:1039E000DA2210EE03F00250E1260350E222DE500C
:1039F000E65CD8A007D020EE03F00250D926035091
:103A0000DA22DF6A0D50090DF3C404F5F4C405F59C
:103A100002C5D9F403C5DAF4DEC406F5DDC407F542
:103A200004500624026E05500720036E1200000E9B
:103A300007140B6EFF0E08140C6EFF0E09140D6EAA
:103A40000501F8510B1807E1F9510C1804E1FA517E
:103A50000D18D8B419D0F851F911FA11D8B408D00A
:103A6000A5A304D054ECA9F00501A59326ECA9F078
:103A7000000E07140501F86FFF0E0814F96FFF0E12
:103A80000914FA6FDCECACF0FF0E07140B6E000E9D
:103A900008140C6E000E0B24D96E370E0C20DA6E53
:103AA000DF50FF0A0A140009D8B403D00D6A0D2AAA
:103AB00001D00D6A0501A531010B0E6E0D500E12DD
:103AC0000E36A5510E18FD0B0E18A56FFF0E07142C
:103AD0000B6E000E08140C6E000E0B24D96E370E00
:103AE0000C20DA6E0A50DE18D8B40FD0A581FF0E74
:103AF00007140B6E000E08140C6E000E0B24D96E0A
:103B0000370E0C20DA6E0AC5DFF4000E1200000E2C
:103B100082ECA9F004ECB1F0E2ECADF0050E050189
:103B20009D6F000E166E1650020D230EF324F66ED6
:103B3000FF0EF420F76EF86A000EF8220900F55027
:103B40000900F510D8B44DD01650020D230EF32401
:103B5000F66EFF0EF420F76EF86A000EF8220900E8
:103B6000F5C414F50900F5C415F5050E1426000E6C
:103B7000152214C5F6F415C5F7F4000EF86E090009
:103B8000F5500900F5100900F510D8B42AD01650E8
:103B9000020D230EF324F66EFF0EF420F76EF86A82
:103BA000000EF8220900F5C414F50900F5C415F556
:103BB000050E1426000E152214C5F6F415C5F7F4EB
:103BC000000EF86E01D80DD00500FA6E0900F55010
:103BD000FD6E0900F550FE6E0900F550FF6EFA50BB
:103BE0001200162A080E16649ED712000501B55160
:103BF000D8A41BD0DCECA9F005018C51025C406E0E
:103C00008D510358416E8E510458426E8F510558A4
:103C1000436E435008E1490E405CE80E4158010EE6
:103C20004258D8A002D0010EB56FB551D8B41200D9
:103C3000DCECA9F005018451025C406E855103580B
:103C4000416E86510458426E87510558436E435069
:103C50004210411004E17D0E405CD8A00CD0D9EC9C
:103C600091F0DCECA9F002C584F503C585F504C527
:103C700086F505C587F5DCECA9F005018051025CED
:103C8000406E81510358416E82510458426E8351F7
:103C90000558436E4350421006E1250E405CF40E79
:103CA0004158D8A0120039ECA3F0DCECA9F002C511
:103CB00080F503C581F504C582F505C583F51200BD
:103CC000F90E05019B6FFF0E9C6F080E0401016F3A
:103CD000000E096F000E116F000E006F000E086FCE
:103CE000000E106FFCECB0F089EC9FF099ECA8F09E
:103CF000D68EDCECA9F002C58CF503C58DF504C5A4
:103D00008EF505C58FF58CC588F58DC589F58EC5F1
:103D10008AF58FC58BF58CC584F58DC585F58EC567
:103D200086F58FC587F58CC565F68DC566F68EC59B
:103D300067F68FC568F68CC580F58DC581F58EC593
:103D400082F58FC583F5000E0501B56F010E74EC89
:103D5000ADF00250216E0ED009ECABF01200010E56
:103D60000501B66F1200000E0501B66F120091EC4E
:103D7000ADF012002150000AD8B4EED7010AD8B431
:103D8000EED7030AD8B4EFD7010AD8A41200EFD7B0
:103D9000000E0501B06F000EAF6F000E116E000E29
:103DA000126E000E136E010E0F6E000E106E10508C
:103DB0001124086E000E1220096E000E13200A6EE8
:103DC000010EF7ECA8F008500E6E350E1024F66EBA
:103DD000F76AFF0EF722F86A000EF8220800F55085
:103DE0000E18D8B403D0000E0F6E04D0102A0A0E9D
:103DF0001064DDD70F50D8B41FD00B0E1124086EFD
:103E0000000E1220096E000E13200A6E010EF7EC50
:103E1000A8F008500501B06F0C0E1124086E000EBA
:103E20001220096E000E13200A6E010EF7ECA8F0A6
:103E300008500501AF6F1200010E1126000E12226C
:103E4000000E1322135006E11128070E1258D8B0A5
:103E50001200A9D7120043060C0E436417D054C5B4
:103E600025F553C526F5060E276E6F0E13ECAFF041
:103E700054C525F553C526F5D20E276E040E286EBF
:103E8000060E296EAF0E52ECAFF012003FC538F5AA
:103E900040C539F541C53AF542C53BF543C53CF54A
:103EA00044C53DF5000E3E6E22ECB0F0456E455027
:103EB000D8B417D054C525F553C526F545C527F503
:103EC0006F0E13ECAFF054C525F553C526F5D20E91
:103ED000276E040E286E45C529F5AF0E52ECAFF0E3
:103EE00012000501D64BD72B54C525F553C526F531
:103EF000590E28ECAFF054C525F553C526F5D20E62
:103F0000276E040E286E000E296EAF0E52ECAFF035
:103F10001200000E026E000E0224D96EDA6A060E3E
:103F2000DA22010EDF6E200E0224D96EDA6A060E46
:103F3000DA22DF6A022A1F0E0264EDD7000E026E3B
:103F40007C0E0224D96EDA6A050EDA22DF6A022AB2
:103F5000030E0264F5D7C89CC89EC798C79ABF983D
:103F6000BF9AC09CC09EC894C094C898C098C89678
:103F7000C096C89AC09A030E0001846F440E856FE4
:103F8000020E866F000E836F010E826F000E886F27
:103F9000000E8C6F0F0E896F320E0201166F310EFC
:103FA000146F330E156F0001848F030124518F0BA2
:103FB0005009246FF00E2417010E266FFA0E236F9E
:103FC000E00E2517B196A186248F1200186EFD0E03
:103FD000186405D0000E0F6E080E0E6E12001850F9
:103FE000120DF3C410F5F4C411F5126A040E102476
:103FF000086EE80E1120096E010E12200A6E010EE5
:10400000F7ECA8F00850176E17A005D053C50EF5B1
:1040100054C50FF512001850120DF3C410F5F4C476
:1040200011F5126A010E1024086EE80E1120096EB7
:10403000010E12200A6E010EF7ECA8F00850156E62
:10404000166A1850120DF3C410F5F4C411F5126A73
:10405000000E1024086EE80E1120096E010E1220C9
:104060000A6E010EF7ECA8F00850136E146A135094
:10407000116E106A155010100E6E165011100F6E42
:1040800012001D6EDCECA9F002C574F503C575F5D0
:1040900004C576F505C577F52CD0AFEC8EF0DCECD9
:1040A000A9F005017451025C196E755103581A6E1E
:1040B000765104581B6E775105581C6E1D50026EC8
:1040C000036A046A056A240E066EF40E076E000E7B
:1040D000086E000E096E8DECAAF01950025C1A50A1
:1040E00003581B5004581C500558D8B002D0000E7D
:1040F0001200CEB6D2D7DCECA9F005017451025CF7
:104100000C6E755103580D6E765104580E6E775132
:1041100005580F6E240E106EF40E116E000E126E06
:10412000000E136EFEECA3F00C5012001D6EDCECC2
:10413000A9F002C574F503C575F504C576F505C586
:1041400077F52CD0AFEC8EF0DCECA9F005017451C2
:10415000025C196E755103581A6E765104581B6E25
:10416000775105581C6E1D50026E036A046A056A79
:10417000240E066EF40E076E000E086E000E096E19
:104180008DECAAF01950025C1A5003581B500458C9
:104190001C500558D8B002D0000E1200CEA6D2D7BF
:1041A000DCECA9F005017451025C0C6E75510358EA
:1041B0000D6E765104580E6E775105580F6E240E11
:1041C000106EF40E116E000E126E000E136EFEECE9
:1041D000A3F00C50120020EE02F00250D92603503A
:1041E000DA2210EE03F00250E1260350E222DE5004
:1041F000E618D8A405D0000E026E000E036E120061
:1042000020EE02F00250D9260350DA22DF50046E6D
:104210000450090DF3C405F5F4C406F502C5D9F43C
:1042200003C5DAF4DEC407F5DDC408F5055007243C
:10423000096E065008200A6E20EE02F00250D926C0
:104240000350DA22DF2A20EE04F00250D926035070
:10425000DA2210EE02F00250E1260350E222DE5094
:10426000E65CD8A007D020EE02F00250D926035019
:10427000DA22DF6A09C502F50AC503F512002E6EBF
:104280002E5007ECB1F02F6EFD0E2F640AD054C5EE
:1042900025F553C526F5060E276E6F0E13ECAFF00D
:1042A00012002B042D6E2B50D8A408D02F5013ECE5
:1042B000B1F02C6E2C50306E316A09D02DC50EF540
:1042C0002F50D3ECA7F00EC530F50FC531F531AE48
:1042D00019D054C525F553C526F530500008276E72
:1042E0006F0E13ECAFF054C525F553C526F59C0EA3
:1042F000276E040E286E30500008296EAF0E52EC67
:10430000AFF0120054C525F553C526F52EC527F587
:104310002BC528F530C529F5B50E52ECAFF01200CB
:10432000066E000E076E0750020D230EF324F66E84
:10433000FF0EF420F76EF86A000EF8220900F5501F
:104340000900F510D8B42ED00750020D230EF32427
:10435000F66EFF0EF420F76EF86A000EF8220900E0
:10436000F5C404F50900F5C405F504C5F6F405C562
:10437000F7F4000EF86E0800F5500618D8A412D015
:104380000750020D230EF324F66EFF0EF420F76E95
:10439000F86A000EF8220900F5C402F50A00F5C417
:1043A00003F51200072A080E0764BDD7000E026E3F
:1043B000000E036E120046C5D9F447C5DAF4030EA9
:1043C000DF6002D0000E120020EE02F04650D92627
:1043D0004750DA22DE505418D8A4F4D720EE03F068
:1043E0004650D9264750DA225350DE18D8A4EAD7CF
:1043F00017D0010E120046C5D9F447C5DAF4040EF1
:10440000DF60F7D754C525F553C526F5750E276E21
:10441000010E286E010E296EAF0E52ECAFF0E9D7F7
:1044200020EE01F04650D9264750DA22DF50486E80
:10443000496A4950000AD8A4C5D748505D0AD8B483
:10444000D8D7280AD8B4D7D7BDD7080E336402D03E
:10445000000E120054C525F553C526F53328276EE6
:104460003350020D230EF324F66EFF0EF420F76E88
:10447000F86A000EF8220900F5C434F50900F5C405
:1044800035F534C5F6F435C5F7F4000EF86E0800BE
:10449000F5C428F53350020D230EF324F66EFF0EFB
:1044A000F420F76EF86A000EF8220900F5C436F51C
:1044B0000900F5C437F5010E3626000E372236C541
:1044C000F6F437C5F7F4000EF86E0800F5C429F5C8
:1044D000AC0E52ECAFF0020E1200406E405013ECE6
:1044E000B1F0396E3350346E356A010E3426000E49
:1044F00035223950366E376A3450365C3750800A70
:10450000386E3550800A3858D8B002D0000E1200EC
:104510004050E6EC9FF00EC53CF50FC53DF5405010
:10452000C4ECA6F00EC53EF50FC53FF533C50EF53C
:104530004050D3ECA7F00EC53AF50FC53BF53BBE96
:104540000FD03DC525F53CC526F53FC527F53EC531
:1045500028F53328296E3AC52AF5D30EFEECAEF0C5
:10456000020E120020EE02F04650D9264750DA2201
:10457000DE505418D8B402D0000E120020EE03F022
:104580004650D9264750DA225350DE18D8A4F4D723
:1045900018D020EE04F04650D9264750DA220E0EED
:1045A000DE18D8A4E9D7FF0E106E030E116E000EB0
:1045B000126EFF0E136E000E57ECABF0FF00010EF3
:1045C000120020EE01F04650D9264750DA22DF5083
:1045D000486E496A4950000AD8A4CED748505C0AB0
:1045E000D8B4E1D72A0AD8B4D4D7C6D7106E2ED003
:1045F00010C50CF5070E0C16010E0D6E0C2A02D01C
:10460000D8900D360C2EFCD71038E8461F0B0E6ED6
:104610000F6A400E0E24D96E060E0F20DA6E0D5072
:10462000DF121200AE511018D8A41200010EAB6FA9
:104630000601CD4BCE2BDCECA9F002C578F503C505
:1046400079F504C57AF505C57BF512000501AB5176
:104650000C6E0D6A0D50000AD8A412000C50000A0E
:10466000D8B4E0D7020AD8B4C3D7010AD8A412003C
:10467000BFD7000E106E18D00501B451D8B404D0C5
:104680001050FDECACF02AD0105078ECACF026D0F5
:104690000501B451D8B404D0105078ECACF01ED061
:1046A0001050FDECACF01AD0000E1024D96EDA6A6E
:1046B000060EDA22DF500E6E0F6A0F50000AD8A4E1
:1046C0000DD00E50000AD8B409D0010AD8B406D0D3
:1046D000030AD8B4D1D7010AD8B4DAD7102A1F0EEA
:1046E0001064E2D70501B451D8A402D0010E01D064
:1046F000000EB46F1200000E076E05AE06D0046CFB
:10470000051ED8B0052A010E076E03AE06D0026C56
:10471000031ED8B0032A010E071A000E096E000E00
:10472000086E04500510D8B41CD0010E066E04D0DB
:10473000D89004360536062A05AEFAD7D890083642
:1047400009360450025C05500358D8A005D0045027
:10475000025E0550035A0880D89005320432062EB6
:10476000EDD70750D8B404D0086C091ED8B0092A78
:1047700008C502F509C503F512000B6E120E0B6495
:1047800024D0000E086E000E096E120036C1B7F676
:104790000601B86B2AD069ECA8F00A6E0A5006012F
:1047A000B96FBA6B22D0AFECA9F00A6E0A500601BD
:1047B000BF6FC06B1AD039C1B5F60601B66B15D004
:1047C00038C1B3F60601B46B10D00B50010AD8B44F
:1047D000F7D7030AD8B4EFD7010AD8B4D7D7070A56
:1047E000D8B4D9D7030AD8B4DED70B50020DB10E16
:1047F000F324086E060EF420096E1200000E146EEB
:10480000000E156E000E166E000E176E1050111071
:1048100012101310D8B42AD0010E186E06D0D890FA
:104820001036113612361336182A13AEF8D7D89030
:10483000143615361636173610500C5C11500D58BC
:1048400012500E5813500F58D8A009D010500C5EBB
:1048500011500D5A12500E5A13500F5A1480D890FE
:104860001332123211321032182EE1D714C50CF562
:1048700015C50DF516C50EF517C50FF51200050186
:10488000A029D8B41200905191119211D8A402D04D
:10489000A069120001D80FD00500FA6E9051FD6E8C
:1048A0009151FE6E9251FF6EFA50A2C532F59FC52E
:1048B00033F5A0511200436E0FD00501A151D8B4B9
:1048C000E7D7A22B080EA26501D0E2D7000E9F6F9A
:1048D000120005019F2B12004350416E426A425064
:1048E000000AD8A412004150000AD8B4E6D7010A41
:1048F000D8B41200030AD8A41200EBD7246E24C542
:10490000D8F61CC5D7F61DC5D9F61EC5DAF61FC5E3
:10491000DBF620C5DCF621C5DDF622C5DEF623C5B3
:10492000DFF605019B519C11D8B412009BC5F6F42B
:104930009CC5F7F4000EF86E0900F5500900F5105B
:104940000900F510D8B41200D70E0E6E060E0F6EC9
:104950009BC5F6F49CC5F7F4000EF86E01D8120062
:104960000500FA6E0900F550FD6E0900F550FE6E67
:104970000900F550FF6EFA501200000ED6BE010E6F
:104980000F6E000140B1FDD7380E456F08C50CF51C
:1049900009C50DF50AC50EF50DC50CF50EC50DF5CD
:1049A0000E6A0C50446F08C543F00BC546F04151E8
:1049B000F80B0309416FD69E550E426FAA0E426F47
:1049C00040810F50D8A4D68E070E411308C502F5BA
:1049D00009C503F50AC504F5C7ECADF00B18D8B44A
:1049E00006D00501BF4BC02BE7ECB0F0CAD7000ED4
:1049F00012002B6E2B5007ECB1F0306EFD0E3064C0
:104A000017D054C525F553C526F5080E276E6F0E31
:104A100013ECAFF054C525F553C526F5720E276E7D
:104A2000040E286E080E296EAF0E52ECAFF0120085
:104A30003050E6EC9FF00EC52CF50FC52DF530502B
:104A4000C4ECA6F00EC52EF50FC52FF52D50256E22
:104A50002CC526F52F50276E2EC528F52BC529F518
:104A6000F20E52ECAFF012001B6E010E1B6402D06E
:104A70000A0E120017C502F51B50D9ECB0F0000960
:104A8000D8A402D00C0E1200970E1B24D96EDA6A3D
:104A9000050EDA22DF501A6E970E1B24D96EDA6AE1
:104AA000050EDA2217C5DFF4000E1B24186E196AF2
:104AB000020E192218C510F519C511F5126A11BE9A
:104AC000120617C513F5000E57ECABF017C502F52B
:104AD0001AC503F51B501AECB1F0000E12002BC5DD
:104AE00021F52CC522F52DC523F52EC524F57CEC2A
:104AF000AFF02F6E2F50D8B417D054C525F553C53D
:104B000026F52FC527F56F0E13ECAFF054C525F52C
:104B100053C526F5950E276E040E286E2FC529F570
:104B2000AF0E52ECAFF0120054C525F553C526F573
:104B3000590E28ECAFF054C525F553C526F5950E52
:104B4000276E040E286E000E296EAF0E52ECAFF0E9
:104B500012002BC5D9F42CC5DAF42D50DE5CD8B088
:104B600030D02BC5D9F42CC5DAF4020EDF6427D07F
:104B700020EE02F02B50D9262C50DA22DE505418A9
:104B8000D8A41DD020EE03F02B50D9262C50DA22C9
:104B90005350DE18D8A413D054C525F553C526F5B7
:104BA00020EE01F02B50D9262C50DA22DF50276E50
:104BB0002EC528F5010E296EAF0E52ECAFF0010E96
:104BC0001200000E1200000E546E000E536EFD0E09
:104BD000106E030E116E000E126E54C513F5000E0A
:104BE00057ECABF0FC0E106E030E116E000E126E41
:104BF00053C513F5000E57ECABF00501AA69A9697E
:104C0000FB0E106E030E116E000E126EAAC513F588
:104C1000000E57ECABF0000E0501B36FB3C5A8F55D
:104C2000F90E106E030E116E000E126EB3C513F561
:104C3000000E57ECABF01200046E000E056E05502E
:104C4000020D230EF324F66EFF0EF420F76EF86AC1
:104C5000000EF8220900F5500900F510D8B41ED056
:104C60000550020D230EF324F66EFF0EF420F76EAE
:104C7000F86A000EF8220900F5C402F50900F5C42F
:104C800003F502C5F6F403C5F7F4000EF86E08004C
:104C9000F5500418D8A402D005501200052A080EB9
:104CA0000564CDD7FF0E1200046E000E056E055090
:104CB000020D230EF324F66EFF0EF420F76EF86A51
:104CC000000EF8220900F5500900F510D8B41ED0E6
:104CD0000550020D230EF324F66EFF0EF420F76E3E
:104CE000F86A000EF8220900F5C402F50900F5C4BF
:104CF00003F502C5F6F403C5F7F4000EF86E0800DC
:104D0000F5500418D8A402D0010E1200052A080E8E
:104D10000564CDD7000E1200B1A611000501B12B1C
:104D2000030EB117C084BF98BF9AC09CC09E7C0E72
:104D3000B125D96EDA6A050EDA22DF50016E000E57
:104D40000001836F010E826F000E886F01C581F034
:104D500087BB09D0FDD7BF8814D0BF8A12D0C08CC2
:104D600010D0C08E0ED00501B151000AD8B4F3D7CF
:104D7000010AD8B4F2D7030AD8B4F1D7010AD8B4DB
:104D8000F0D7C094B1961100176E1750120DF3C4EE
:104D900010F5F4C411F5126A030E1024086EE80E23
:104DA0001120096E010E12200A6E010EF7ECA8F018
:104DB0000850156E166A1750120DF3C410F5F4C49E
:104DC00011F5126A020E1024086EE80E1120096E09
:104DD000010E12200A6E010EF7ECA8F00850136EB7
:104DE000146A1350116E106A155010100E6E165082
:104DF00011100F6E120064C102F565C103F52DD0CC
:104E00000501AE517F0B02C5D9F403C5DAF4DF6E9C
:104E100020EE01F00250D9260350DA22DF6A20EE9C
:104E200004F00250D9260350DA22DF6A20EE05F0A2
:104E30000250D9260350DA22DF6A20EE06F0025033
:104E4000D9260350DA22DF6A20EE07F00250D92675
:104E50000350DA22DF6A01015D81010160A11200C5
:104E6000CFD7176EFD0E176402D0080E1200000E89
:104E7000186E18500E6E0F6A106A1750120DF3C498
:104E800011F5F4C412F5136A0E501124146E0F506C
:104E90001220156E10501320166E050E1424086E85
:104EA000E80E1520096E010E16200A6E010EF7ECB1
:104EB000A8F0500E1824D96EDA6A060EDA2208C558
:104EC000DFF4182A0C0E1864D4D7000E12002C6ED2
:104ED0002C50E6EC9FF00EC530F50FC531F52C5087
:104EE000C4ECA6F00EC52EF50FC52FF52BBA04D0D5
:104EF00030503110D8A40CD02A50D8B402D0980E1B
:104F000001D0990E2D6E53C530F554C531F507D03B
:104F10002A50D8B402D0900E01D0910E2D6E31C51A
:104F200025F530C526F52FC527F52EC528F52D50BA
:104F300067ECAFF000ECB1F01200000E0214056E49
:104F4000FF0E0314066EFF0E0414076E0501F851E0
:104F5000051815E1F951061812E1FA510718D8A4FD
:104F60000ED0FF0E0214056E000E0314066E000E26
:104F70000524D96E370E0620DA6EDF50120004C504
:104F8000F8F402C505F503C506F504C507F506C521
:104F900005F507C506F5076A0550F76E02C5F6F474
:104FA0000800F5501200196EFD0E196405D0000EB0
:104FB0000F6E080E0E6E12000C0E0E6405D0FF0E62
:104FC0000F6EFA0E0E6E12000E50106E116A126AFB
:104FD0001950120DF3C413F5F4C414F5156A1050EA
:104FE0001324166E11501420176E12501520186ECF
:104FF000050E1624086EE80E1720096E010E182003
:105000000A6E010EF7ECA8F008500E6E0F6A12003F
:105010000001AD518F0B2009AD6FF00EAD17000EE2
