:040000001CEF01F000
:0400080004EF04F00D
:040018000CEF04F0F5
:100208000800F55012007FB2FED77F9E7F9C7F804A
:100218007FB0FED70000735012007F8E7F9C7F84D2
:100228007F88550E7E6EAA0E7E6E7F827F941200A6
:1002380000EE60F0400EEE6AE806FDE100EE01F027
:10024800170EEE6AE806FDE1000164EF02F0186E91
:1002580018C0F5FF0C00C40E7F6E550E7E6EAA0EF8
:100268007E6E7F8200007FB2FED77F941200000E60
:100278000D6E3F0E0D6401D008D00D50600FD96E81
:10028800DA6AFF0EDF6E0D2AF4D7000E0F6E000E2D
:100298000E6E1200186E0F0120B7FDD7800E216F69
:1002A800080E226F000E236F040E246F1850D8B466
:1002B80002D0248101D0249120871200186E18C022
:1002C80073FF7F9E7F9C7F84550E7E6EAA0E7E6E86
:1002D8007F827FB2FED7B7ACFED7B79C7F9407EC7E
:1002E80001F01818D8B41200EAD7000E786E800E04
:1002F8006F6E6EAEFED7000E726E9E0E0E01446FCC
:10030800030E456F200E706E000EE06F080EE16F51
:10031800F30EE56F000EE26F070EE36FF869EB0E60
:10032800F96FFA69F80EFB6F010E466F9E0E446F67
:10033800030E456F000E7E6F000E6F6E1200080EE2
:100348000E6001D012000FC0F6FF0EC0F7FF11ECCF
:1003580001F0000E0D6E3F0E0D6401D009D00D5056
:10036800600FD96EDA6ADF50F56E0D000D2AF3D7EB
:10037800010EF65E000EF75A000EF85A840E7F6ED4
:10038800550E7E6EAA0E7E6E7F8200007FB2FED76B
:100398007F941200000E1D6E1BAE06D01A6C1B1E39
:1003A800D8B01B2A010E1D6E19AE06D0186C191E86
:1003B800D8B0192A010E1D1A000E1F6E000E1E6EEF
:1003C8001A501B10D8B41CD0010E1C6E04D0D89043
:1003D8001A361B361C2A1BAEFAD7D8901E361F3683
:1003E8001A50185C1B501958D8A005D01A50185E1E
:1003F8001B50195A1E80D8901B321A321C2EEDD76A
:100408001D50D8B404D01E6C1F1ED8B01F2A1EC0A1
:1004180018F01FC019F012001E6E0FC018F0C00EA1
:10042800181618500EC019F01A6A19C01AF0196A6D
:100438001912000E1A12F6CF1BF0C00E1B161B5015
:10044800F7CF1CF01D6A1CC01DF01C6A1C12000EA0
:100458001D1219501C1804E11A501D18D8B425D0C3
:10046800F6CF0CF0F7CF0BF0A3EC01F00C50C00B5B
:100478000F6E0BC00EF0000E0D6E3F0E0D6401D016
:1004880010D00F500D24F66E0EC0F7FF800E7F6E51
:100498000D50600FD96EDA6A04EC01F0DF6E0D2A98
:1004A800ECD70CC0F6FF0BC0F7FFF6CF18F03F0EE5
:1004B80018161850600FD96EDA6A1EC0DFFF1200D6
:1004C800100E236E030E0E01436F000E0F015D6FB9
:1004D800000E5C6F939E939C92847468756807EC19
:1004E80001F00009D8B480A402D000EF04F0400E57
:1004F800236E9B8C23C018F0196A000E1B6E040E25
:100508001A6ECEEC01F018040E01436F000E156E42
:100518001C0E146E939C939E8A8C8A8E79EC01F043
:100528003BEC01F0000E046E000E036E0400609EAA
:1005380060AEFED765500F0B0A6E64A0FFD0125054
:100548001F0BF86E11C0F7FF10C0F6FFF7CF75FF4D
:10055800F6CF74FF14A60AD00A50206E216A226AC8
:1005680020501026215011222250122212C020F0B1
:10057800F00E2016D8A44FD064A220D0000E096E29
:10058800800E7F6E260E0924D96EDA6A0F0EDA22E3
:1005980004EC01F0DF6EF62AF650D8A404D0F72A4E
:1005A800F750D8B4F82A092A080E0964E9D7080EC2
:1005B8000F01256F010E4EEC01F02DD0070EF764E8
:1005C8002AD014A203D011EC01F025D0000E096E38
:1005D8001ED0660E0924D96EDA6A0F0EDA22DF50B1
:1005E80010EC02F0660E0924D96EDA6A0F0EDA22D0
:1005F800DF50206E20500326000E0422F62AF65003
:10060800D8A404D0F72AF750D8B4F82A092A0A50EF
:10061800095CD8A0DED71250F00B300AD8A440D01D
:1006280064A21CD0000E096EC00E7F6E260E09242F
:10063800D96EDA6A0F0EDA2204EC01F0DF6EF62AC0
:10064800F650D8B4F72A092A080E0964EDD7080E1F
:100658000F01256F010E4EEC01F022D0000E096E3D
:100668001BD00400660E0924D96EDA6A0F0EDA224E
:10067800DF502BEC01F0660E0924D96EDA6A0F0EF2
:10068800DA22DF50206E20500326000E0422F62ABC
:10069800F650D8B4F72A092A0A50095CD8A0E1D73D
:1006A8001250F00BF00AD8A43DD064A21AD0000E64
:1006B800096E260E0924D96EDA6A0F0EDA2207ECC3
:1006C80001F0DF6E742A7450D8B4752A092A080E0E
:1006D8000964EFD7080E0F01256F010E4EEC01F0EB
:1006E80021D0000E096E1AD0660E0924D96EDA6A76
:1006F8000F0EDA22DF5062EC01F0660E0924D96E83
:10070800DA6A0F0EDA22DF50206E20500326000E20
:100718000422742A7450D8B4752A092A0A50095C2C
:10072800D8A0E2D764A214A801D7010E0F01266F42
:10073800010E256F000E4EEC01F0F8D6A3EC01F087
:10074800100E056E066A660E016E0F0E026E000E22
:10075800096E0FD001C0D9FF02C0DAFF05C0E1FF62
:1007680006C0E2FFDFCFE7FF054A062A014A022A50
:10077800092A0A50095CD8A0EDD71504D8A408D0D6
:1007880074687568000E62EC01F08A9C8A9EFF000E
:10079800020E1518D8A404D0000E046E000E036EC5
:1007A800030E1518D8A414D003501624206E045034
:1007B8001720216E20502110D8A402D0010E01D09C
:1007C800000E0F01266F010E256F000E4EEC01F092
:1007D800040E1518D8A4AAD6020E0F01266F010E12
:1007E800256F000E4EEC01F0A1D6424C5F564552E3
:0707F80053494F4E3D030180
:040800000EEF04F003
:0408080031EF43F099
:10081800F0EF42F09DEF56F0A56220FF147F040B25
:100828000F010008000000000000010100000000A6
:0808380014004808000046030B
:100848004D494F2020202000000E0101D96F43EFB1
:100858000BF00101D951070DF350120FDEEC5EF0D9
:1008680000018D51976F986B000E9A6F020E996F69
:10087800A8EC53F097C0CEF198C0CFF10101D9513F
:10088800070DF350130FDEEC5EF000018D51976FEA
:10089800986B000E9A6F020E996FA8EC53F0000146
:1008A80097510101CE25D86F000ED76F51D2D9517B
:1008B800070DF350120FDEEC5EF0300E0101D92562
:1008C800D96EDA6A010EDA22DF50CE6FCF6B0001E3
:1008D8008D510101CE191BE100018E510101CF1983
:1008E800D8A415D0D951070DF350110FDEEC5EF0E6
:1008F80000018DAD02D0010E01D0000E0101C66FBE
:10090800D951040DF350080F05EC4DF014D0D9510E
:10091800070DF350110FDEEC5EF000018DAD02D033
:10092800010E01D0000E0101C66FD951040DF3501C
:100938000A0F05EC4DF0100E0101D925D96EDA6ABF
:10094800010EDA22020EDF6ED9512B0FD96EDA6A48
:10095800300ED925E16EE26A010EE222DE50E65C35
:10096800D8B0B4D0300ED925D96EDA6A010EDA22A1
:10097800D851DE5CD8B002D0010ED76F000ED92551
:10098800D96EDA6A010EDA22DF50D8B435D0300ECB
:10099800D925D96EDA6A010EDA22000ED925E16E60
:1009A800E26A010EE222E750CF6F300ED925E16EE0
:1009B800E26A010EE222E750CF25D06FDE50D05D0B
:1009C800D8B009D0300ED925D96EDA6A010EDA22EC
:1009D800FF0EDF6E3FD0000ED925D96EDA6A010E00
:1009E800DA22DF50CE6F300ED925D96EDA6A010EC1
:1009F800DA22CE51DF262ED0640ED925D96EDA6AD6
:100A0800020EDA22DF06640ED925D96EDA6A020EE2
:100A1800DA22DF50D8A41ED0300ED925D96EDA6A72
:100A2800010EDA22DE28D8B407D0300ED925D96EC7
:100A3800DA6A010EDA22DF2A740ED925D96EDA6A4B
:100A4800020EDA22640ED925E16EE26A020EE22273
:100A5800DFCFE7FF300ED925D96EDA6A010EDA2228
:100A6800D9512B0FE16EE26ADE50E65CD8B00CD0AB
:100A7800D9512B0FD96EDA6A300ED925E16EE26AA8
:100A8800010EE222DFCFE7FF300ED925D96EDA6AF0
:100A9800010EDA22D851DE5CD8A0CDD0D751D8B417
:100AA800CAD0D951070DF350110FDEEC5EF00001EA
:100AB8008DBD02D0010E01D0000E0101C66FD951C3
:100AC800040DF350090F05EC4DF0B5D0300ED925C3
:100AD800D96EDA6A010EDA22D9512B0FE16EE26A79
:100AE800DE50E65CD8B0A7D0300ED925D96EDA6AC8
:100AF800010EDA22DE50D85DD8B002D0010ED76FD1
:100B0800000ED925D96EDA6A010EDA22DF50D8B480
:100B180029D0300ED925D96EDA6A010EDA22000EF4
:100B2800D925E16EE26A010EE222DE50E65CD8A029
:100B380008D0300ED925D96EDA6A010EDA22DF6ABA
:100B48003FD0000ED925D96EDA6A010EDA22DF50BD
:100B5800CE6F300ED925D96EDA6A010EDA22CE515F
:100B6800DF5E2ED0640ED925D96EDA6A020EDA223B
:100B7800DF06640ED925D96EDA6A020EDA22DF5052
:100B8800D8A41ED0300ED925D96EDA6A010EDA2221
:100B9800DF50D8B407D0300ED925D96EDA6A010EE5
:100BA800DA22DF06740ED925D96EDA6A020EDA2245
:100BB800640ED925E16EE26A020EE222DFCFE7FF7A
:100BC800D9512B0FD96EDA6A300ED925E16EE26A57
:100BD800010EE222DE50E65CD8B00CD0D9512B0FC2
:100BE800D96EDA6A300ED925E16EE26A010EE22288
:100BF800DFCFE7FF300ED925D96EDA6A010EDA2287
:100C0800DE50D85DD8A017D0D751D8B414D0D95158
:100C1800070DF350110FDEEC5EF000018DAD02D030
:100C2800010E01D0000E0101C66FD951040DF35019
:100C3800090F05EC4DF0300E0101D925D96EDA6A9D
:100C4800010EDA22D9512B0FE16EE26ADE50E61866
:100C5800D8A4C8EF0BF0100ED925D96EDA6A010EA8
:100C6800DA22010EDF6E6FEC5BF00101D951040D41
:100C7800880EF324D96E030EF420DA6E00018DC0BD
:100C8800DEFF8EC0DEFF8FC0DEFF90C0DEFF0101F9
:100C9800D951070DF350120FDEEC5EF0300E010152
:100CA800D925D96EDA6A010EDA22DF50CE6FCF6B02
:100CB80000018D510101CE191BE100018E51010186
:100CC800CF19D8A415D0D951070DF350110FDEEC68
:100CD8005EF000018DBD02D0010E01D0000E0101B1
:100CE800C66FD951040DF350080F05EC4DF014D020
:100CF800D951070DF350110FDEEC5EF000018DBDE8
:100D080002D0010E01D0000E0101C66FD951040DA9
:100D1800F3500A0F05EC4DF0DE0E0101D925CE6F18
:100D2800CF6B030ECF23CEC1A4F0CFC1A5F0000135
:100D3800A66B300E0101D925D96EDA6A010EDA22C6
:100D4800DF500001A76F000EEBEC5CF0C8EF0BF072
:100D5800100ED925D96EDA6A010EDA22DF50CE6F6D
:100D6800CF6BCF51000AD8A4C8EF0BF0CE51000AC0
:100D7800D8B4C8EF0BF0010AD8B4C8EF0BF0030AD7
:100D8800D8B4E2D5010AD8B492D5C8EF0BF0D9513E
:100D98003EEC61F0100E0101D925D96EDA6A010E18
:100DA800DA22020EDF6E540ED925D96EDA6A020EE7
:100DB800DA22DF6A540ED925D96EDA6A020EDA22EF
:100DC800DF2A540ED925D96EDA6A020EDA22DE2815
:100DD800D8A459D0100ED925D96EDA6A010EDA22B4
:100DE800010EDF6E6FEC5BF00101D951040D880E26
:100DF800F324D96E030EF420DA6E00018DC0DEFFF5
:100E08008EC0DEFF8FC0DEFF90C0DEFF0101D9512A
:100E18002B0FD96EDA6A300ED925E16EE26A010E1F
:100E2800E222DFCFE7FFD951070DF350110FDEECB7
:100E38005EF000018DBD02D0010E01D0000E01014F
:100E4800C66FD951040DF350080F05EC4DF0DE0EB6
:100E58000101D925CE6FCF6B030ECF23CEC1A4F0ED
:100E6800CFC1A5F00001A66B300E0101D925D96EBE
:100E7800DA6A010EDA22DF500001A76F000EEBECF0
:100E88005CF0C8EF0BF0D951070DF350120FDEECF0
:100E98005EF000018D510101D66FD9512B0FD96E2B
:100EA800DA6AD651DE18D8A461D0D9514AEC2DF0AF
:100EB8000009D8B4C8EF0BF0100E0101D925D96E7E
:100EC800DA6A010EDA22010EDF6E6FEC5BF00101C7
:100ED800D951040D880EF324D96E030EF420DA6E6E
:100EE80000018DC0DEFF8EC0DEFF8FC0DEFF90C028
:100EF800DEFF0101D9512B0FD96EDA6A300ED925E0
:100F0800E16EE26A010EE222DFCFE7FFD951070D59
:100F1800F350110FDEEC5EF000018DBD02D0010E22
:100F280001D0000E0101C66FD951040DF350080F0E
:100F380005EC4DF0DE0E0101D925CE6FCF6B030E07
:100F4800CF23CEC1A4F0CFC1A5F00001A66B300E0F
:100F58000101D925D96EDA6A010EDA22DF500001C3
:100F6800A76F000EEBEC5CF0C8EF0BF0D95164EC06
:100F780019F00009D8B4C8EF0BF0100E0101D925FB
:100F8800D96EDA6A010EDA22010EDF6E6FEC5BF0C1
:100F98000101D951040D880EF324D96E030EF420F3
:100FA800DA6E00018DC0DEFF8EC0DEFF8FC0DEFF6F
:100FB80090C0DEFF0101D9512B0FD96EDA6A300ECD
:100FC800D925E16EE26A010EE222DFCFE7FFD951AF
:100FD800070DF350110FDEEC5EF000018DAD02D06D
:100FE800010E01D0000E0101C66FD951040DF35056
:100FF800080F05EC4DF0DE0E0101D925CE6FCF6B41
:10100800030ECF23CEC1A4F0CFC1A5F00001A66B7B
:10101800300E0101D925D96EDA6A010EDA22DF50C5
:101028000001A76F000EEBEC5CF0AED3100E0101CF
:10103800D925D96EDA6A010EDA22DF50CE6FCF6B6E
:10104800CF51000AD8A4A0D3CE51000AD8B49CD35B
:10105800010AD8B499D3030AD8B4ACD6010AD8B4D3
:1010680096D692D3D951070DF350130FDEEC5EF0EC
:10107800300E0101D925D96EDA6A010EDA22DF5065
:10108800CE6FCF6B00018D510101CE191AE100011D
:101098008E510101CF19D8A414D0D951070DF3509E
:1010A800110FDEEC5EF000018DAD02D0010E01D013
:1010B800000E0101C66FD951040DF350080F05EC5D
:1010C8004DF00101D951070DF350140FDEEC5EF01D
:1010D800300E0101D925D96EDA6A010EDA22DF5005
:1010E800CE6FCF6B00018D510101CE191AE10001BD
:1010F8008E510101CF19D8A414D0D951070DF3503E
:10110800110FDEEC5EF000018DAD02D0010E01D0B2
:10111800000E0101C66FD951040DF350090F05ECFB
:101128004DF00101D951070DF350150FDEEC5EF0BB
:10113800300E0101D925D96EDA6A010EDA22DF50A4
:10114800CE6FCF6B00018D510101CE191AE100015C
:101158008E510101CF19D8A414D0D951070DF350DD
:10116800110FDEEC5EF000018DAD02D0010E01D052
:10117800000E0101C66FD951040DF3500A0F05EC9A
:101188004DF00101D951070DF350160FDEEC5EF05A
:10119800300E0101D925D96EDA6A010EDA22DF5044
:1011A800CE6FCF6B00018D510101CE191AE10001FC
:1011B8008E510101CF19D8A414D0D951070DF3507D
:1011C800110FDEEC5EF000018DAD02D0010E01D0F2
:1011D800000E0101C66FD951040DF3500B0F05EC39
:1011E8004DF0100E0101D925D96EDA6A010EDA2206
:1011F800020EDF6ED9512B0FD96EDA6A300ED9255F
:10120800E16EE26A010EE222DE50E65CD8B08BD0D5
:10121800000ED925D96EDA6A010EDA22DF50D8B469
:1012280042D0300ED925D96EDA6A010EDA22DF50A3
:10123800CE6FCF6B300ED925D96EDA6A010EDA225D
:10124800DF50D06FD16B000ED925D96EDA6A010E46
:10125800DA22DF50D26FD251D027000ED123CE51DF
:10126800D05DD151800AD36FCF51800AD359D8B0FD
:1012780009D0300ED925D96EDA6A010EDA22FF0EAE
:10128800DF6E36D0000ED925D96EDA6A010EDA2261
:10129800DF50CE6F300ED925D96EDA6A010EDA2208
:1012A800CE51DF2625D0640ED925D96EDA6A020E12
:1012B800DA22DF06640ED925D96EDA6A020EDA223E
:1012C800DF50D8A415D0300ED925D96EDA6A010EB0
:1012D800DA22DF2A740ED925D96EDA6A020EDA22EA
:1012E800640ED925E16EE26A020EE222DFCFE7FF43
:1012F800300ED925D96EDA6A010EDA22D9512B0FB0
:10130800E16EE26ADE50E65CD8B098D0D9512B0F76
:10131800D96EDA6A300ED925E16EE26A010EE22250
:10132800DFCFE7FF8BD0300ED925D96EDA6A010EF0
:10133800DA22D9512B0FE16EE26ADE50E65CD8B0B2
:101348007DD0000ED925D96EDA6A010EDA22DF5077
:10135800D8B441D0300ED925D96EDA6A010EDA2216
:10136800DF50CE6FCF6B000ED925D96EDA6A010E29
:10137800DA22DF50D06FD051CE5F000ECF5B300E37
:10138800D925D96EDA6A010EDA22DF50D16FD26B15
:10139800CE51D15DD251800AD36FCF51800AD35933
:1013A800D8B008D0300ED925D96EDA6A010EDA2203
:1013B800DF6A36D0000ED925D96EDA6A010EDA2234
:1013C800DF50CE6F300ED925D96EDA6A010EDA22D7
:1013D800CE51DF5E25D0640ED925D96EDA6A020EA9
:1013E800DA22DF06640ED925D96EDA6A020EDA220D
:1013F800DF50D8A415D0300ED925D96EDA6A010E7F
:10140800DA22DF06740ED925D96EDA6A020EDA22DC
:10141800640ED925E16EE26A020EE222DFCFE7FF11
:10142800D9512B0FD96EDA6A300ED925E16EE26AEE
:10143800010EE222DE50E65CD8A068D7300ED9252E
:10144800D96EDA6A010EDA22D9512B0FE16EE26AFF
:10145800DE50E618D8A498D1100ED925D96EDA6ACC
:10146800010EDA22010EDF6E6FEC5BF00101D9513B
:10147800040D880EF324D96E030EF420DA6E0001F1
:101488008DC0DEFF8EC0DEFF8FC0DEFF90C0DEFFA6
:101498000101D951070DF350130FDEEC5EF0300E49
:1014A8000101D925D96EDA6A010EDA22DF50CE6F32
:1014B800CF6B00018D510101CE191AE100018E5147
:1014C8000101CF19D8A414D0D951070DF350110F29
:1014D800DEEC5EF000018DBD02D0010E01D0000EE1
:1014E8000101C66FD951040DF350080F05EC4DF0FA
:1014F8000101D951070DF350140FDEEC5EF0300EE8
:101508000101D925D96EDA6A010EDA22DF50CE6FD1
:10151800CF6B00018D510101CE191AE100018E51E6
:101528000101CF19D8A414D0D951070DF350110FC8
:10153800DEEC5EF000018DBD02D0010E01D0000E80
:101548000101C66FD951040DF350090F05EC4DF098
:101558000101D951070DF350150FDEEC5EF0300E86
:101568000101D925D96EDA6A010EDA22DF50CE6F71
:10157800CF6B00018D510101CE191AE100018E5186
:101588000101CF19D8A414D0D951070DF350110F68
:10159800DEEC5EF000018DBD02D0010E01D0000E20
:1015A8000101C66FD951040DF3500A0F05EC4DF037
:1015B8000101D951070DF350160FDEEC5EF0300E25
:1015C8000101D925D96EDA6A010EDA22DF50CE6F11
:1015D800CF6B00018D510101CE191AE100018E5126
:1015E8000101CF19D8A414D0D951070DF350110F08
:1015F800DEEC5EF000018DBD02D0010E01D0000EC0
:101608000101C66FD951040DF3500B0F05EC4DF0D5
:10161800DE0E0101D925CE6FCF6B030ECF23CEC1CD
:10162800A4F0CFC1A5F00001A66B300E0101D925A9
:10163800D96EDA6A010EDA22DF500001A76F000EB8
:10164800EBEC5CF0A1D0100E0101D925D96EDA6A55
:10165800010EDA22DF50CE6FCF6BCF51000AD8A42B
:1016680093D0CE51000AD8B48FD0010AD8B48CD008
:10167800030AD8B4BFD5010AD8B4F4D485D0D95157
:10168800070DF350100FDEEC5EF000018E51000ADA
:10169800D8A47AD08D51020AD8B42DEF04F0010AEB
:1016A800D8B4C4D4070AD8B4CED76ED0D951070D50
:1016B800F350110FDEEC5EF000018DA37BD0010129
:1016C800D951040D880EF324D96E030EF420DA6E76
:1016D800DECFCEF1DECFCFF1DECFD0F1DECFD1F14C
:1016E8006FEC5BF00101CE5100018D5D0101D26FFD
:1016F800CF5100018E590101D36FD05100018F598C
:101708000101D46FD151000190590101D56FD55114
:10171800D41106E1250ED25DF40ED359D8A04AD0D3
:10172800100ED925D96EDA6A010EDA22DF6A42D0A4
:10173800D951070DF350110FDEEC5EF000018DBB9F
:1017480002D0010E01D0000E916F0101D95145EC74
:1017580037F030D0100E0101D925D96EDA6A010EA2
:10176800DA22DF50CE6FCF6BCF51000AD8A422D037
:10177800CE51000AD8B4DCD7010AD8B497D7030AE7
:10178800D8B418D0010A16D00101D951070DF35069
:10179800100FDEEC5EF000018E51000AD8A40AD0CA
:1017A8008D51020AD8B4D6D7010AD8B4D3D7070ABC
:1017B800D8B4D0D70101D92B0F0ED96560D7120044
:1017C8000001C451D8B4BAD028D1FCC1D9FFFDC199
:1017D800DAFF030EDF600FD067C1C5F166C1C6F13D
:1017E800420E0101C76F010EC86F010EC96FAF0E1F
:1017F800B6EC60F03AD0010120EE02F0FC51D92697
:10180800FD51DA22DF50676F20EE03F0FC51D92634
:10181800FD51DA22DF50666FFD0E0001A46F030E42
:10182800A56F000EA66F67C1A7F0000EEBEC5CF089
:10183800FC0E0001A46F030EA56F000EA66F66C113
:10184800A7F0000EEBEC5CF0010E0001C46FD3ECC6
:101858003FF067C1A6F066C1A7F0520E6EEC60F0CB
:1018680001019C4B9D2BDDEC5FF0010E1200A50ED3
:101878000101C56F620EC66F200EC76FFF0EC86FDD
:10188800140EC96F7F0ECA6F040ECB6FEF0E86EC75
:1018980060F0EBD7480EF66E080EF76E000EF86E85
:1018A8000800F5CFC5F1490EF66E080EF76E000E6A
:1018B800F86E0800F5CFC6F14A0EF66E080EF76E00
:1018C800000EF86E0800F5CFC7F14B0EF66E080E45
:1018D800F76E000EF86E0800F5CFC8F14C0EF66EE4
:1018E800080EF76E000EF86E0800F5CFC9F14D0E20
:1018F800F66E080EF76E000EF86E0800F5CFCAF106
:101908004E0EF66E080EF76E000EF86E0800F5CF54
:10191800CBF1E20E86EC60F0A8D7000E0101C56F8E
:10192800000EC66FA50EC76F200EC86F43EC5BF0A4
:101938000101C96FB60EB6EC60F097D7010120EE31
:1019480001F0FC51D926FD51DA22DF500201CC6F9B
:10195800CD6BCD51000AD8A40DD0CC510D0AD8B406
:10196800DCD71D0AD8B483D7010AD8B493D7530A51
:10197800D8B42BD7000E120067C1C5F166C1C6F1F5
:10198800A50E0101C76F200EC86F43EC5BF0010183
:10199800C96FB60EB6EC60F068D7FCC1D9FFFDC1BF
:1019A800DAFF040EDF600FD067C1C5F166C1C6F16A
:1019B800760E0101C76F010EC86F010EC96FAF0E19
:1019C800B6EC60F052D7010120EE02F0FC51D926A6
:1019D800FD51DA22DF50D8A436D020EE03F0FC51B6
:1019E800D926FD51DA22DF50D8A42DD020EE04F0FC
:1019F800FC51D926FD51DA22DF500201EE6F0C0EA0
:101A0800EE19D8A403D001016B852FD70D0EEE195E
:101A1800D8A419D001016B9528D7010120EE01F057
:101A2800FC51D926FD51DA22DF500201CC6FCD6B73
:101A3800CD51000AD8A407D0CC510D0AD8B49CD7F0
:101A48007B0AD8B4AAD7FCC1D9FFFDC1DAFF030EBF
:101A5800DF6001D08FD7010120EE02F0FC51D926BA
:101A6800FD51DA22DE506719D8A484D720EE03F09E
:101A7800FC51D926FD51DA226651DE18D8A47AD74E
:101A88007CEF11F0FCC1D9FFFDC1DAFF040EDF6065
:101A98000FD067C1C5F166C1C6F1730E0101C76FEA
:101AA800010EC86F010EC96FAF0EB6EC60F0DDD63F
:101AB800010120EE04F0FC51D926FD51DA22140E62
:101AC800DF6419D067C1A6F066C1A7F0090E00014E
:101AD800A86F6F0E56EC60F067C1C5F166C1C6F11C
:101AE800730E0101C76F010EC86F090EC96FAF0EE3
:101AF800B6EC60F0BAD620EE04F0FC51D926FD51C0
:101B0800DA22DF50BDEC44F00201EA6F67C1A6F0AB
:101B180066C1A7F0010120EE04F0FC51D926FD5161
:101B2800DA22DF500001A86FEAC2A9F09B0EFCEC94
:101B380060F001016BB799D620EE04F0FC51D9266C
:101B4800FD51DA22DF50D8A490D6010E48EC57F0A8
:101B58000001916F4C0E926FC00E936F070EA0ECB0
:101B68005EF083D666C164F167C165F166EC43F047
:101B7800010164516511D8B407D065C1A6F064C1EC
:101B8800A7F0510E6EEC60F0FF00FCC1D9FFFDC15B
:101B9800DAFF050EDF600FD067C1C5F166C1C6F177
:101BA800870E0101C76F010EC86F010EC96FAF0E16
:101BB800B6EC60F05AD6010120EE04F0FC51D926AB
:101BC800FD51DA22DF50D8A40BD0000E0001916F2E
:101BD800DA0E926F820E936F040EA0EC5EF045D67B
:101BE80020EE04F0FC51D926FD51DA22080EDF64FC
:101BF8000ED067C1C5F166C1C6F1870EC76F010E69
:101C0800C86FFC0EC96FAF0EB6EC60F02ED620EE92
:101C180004F0FC51D926FD51DA22DF500201CC6FC5
:101C2800CD6BD890CC37CD37FE0ECC25CE6FFF0EBE
:101C3800CD21CF6F7D0ECE25F66EEE0ECF21F76E3D
:101C4800F86A000EF8220900F5CFD0F20900F5CFA6
:101C5800D1F2100ED027000ED123D0C2F6FFD1C288
:101C6800F7FFF86A0900F5500900F510D8A414D058
:101C780067C1C5F166C1C6F1870E0101C76F20EEC5
:101C880004F0FC51D926FD51DA22DF50C86F000E4E
:101C9800C96FC70EB6EC60F0010120EE05F0FC51EB
:101CA800D926FD51DA22DF50D8A411D020EE04F055
:101CB800FC51D926FD51DA22DF500001916FDA0E6E
:101CC800926F820E936F040EA0EC5EF0CED520EEDC
:101CD80004F0FC51D926FD51DA22DF500201CC6F05
:101CE800CD6BD890CC37CD37FE0ECC25CE6FFF0EFE
:101CF800CD21CF6F7D0ECE25F66EEE0ECF21F76E7D
:101D0800F86A000EF8220900F5CFD0F20900F5CFE5
:101D1800D1F2100ED027000ED123D0C2F6FFD1C2C7
:101D2800F7FFF86A0900F5CFD2F20900F5CFD3F230
:101D380001D811D00500FA6ED251FD6ED351FE6E56
:101D4800FF6AFA50010120EE05F0FC51D926FD5139
:101D5800DA22DF50120096C0ECF297C0EDF20201D1
:101D6800EC51ED11D8A40FD067C1C5F166C1C6F119
:101D7800870E0101C76F010EC86FFD0EC96FAF0E48
:101D8800B6EC60F072D567C1C5F166C1C6F1010154
:101D980020EE04F0FC51D926FD51DA22DF50C76F3E
:101DA80020EE05F0FC51D926FD51DA22DF50C86F2C
:101DB800020120EE01F0EC51D926ED51DA22DF5074
:101DC8000101C96FECC2D9FFEDC2DAFFDF50CA6F5B
:101DD800C70E3EEC60F049D5FCC1D9FFFDC1DAFF62
:101DE800040EDF600FD067C1C5F166C1C6F1780E79
:101DF8000101C76F010EC86F010EC96FAF0EB6ECB7
:101E080060F033D5010120EE04F0FC51D926FD51D4
:101E1800DA22DF50D8A418D067C1C5F166C1C6F16F
:101E2800000EC76F000EC86F080EC96FAC0EB6EC77
:101E380060F0010E0001916F1E0E926FA50E936F58
:101E4800030EA0EC5EF011D520EE04F0FC51D9266B
:101E5800FD51DA22080EDF640ED067C1C5F166C1F4
:101E6800C6F1780EC76F010EC86FFC0EC96FAF0EB2
:101E7800B6EC60F0FAD420EE04F0FC51D926FD51FE
:101E8800DA22DF500201CC6FCD6BD890CC37CD373A
:101E9800FE0ECC25CE6FFF0ECD21CF6F7D0ECE2549
:101EA800F66EEE0ECF21F76EF86A000EF8220900E2
:101EB800F5CFD0F20900F5CFD1F20E0ED027000EE3
:101EC800D123D0C2F6FFD1C2F7FFF86A0900F55056
:101ED8000900F510D8A442D067C1C5F166C1C6F1A2
:101EE800010120EE04F0FC51D926FD51DA22DF5021
:101EF800C76F20EE04F0FC51D926FD51DA22DF50DD
:101F08000201CC6FCD6BD890CC37CD37FE0ECC25E7
:101F1800CE6FFF0ECD21CF6F7D0ECE25F66EEE0E65
:101F2800CF21F76EF86A000EF8220900F5CFD0F23B
:101F38000900F5CFD1F2D0C2F6FFD1C2F7FFF86A97
:101F48000800F5CFC8F1000E0101C96F000ECA6F75
:101F5800000ECB6FE70E86EC60F087D467C1C5F141
:101F680066C1C6F1010120EE04F0FC51D926FD51ED
:101F7800DA22DF50C76F20EE04F0FC51D926FD515C
:101F8800DA22DF500201CC6FCD6BD890CC37CD3739
:101F9800FE0ECC25CE6FFF0ECD21CF6F7D0ECE2548
:101FA800F66EEE0ECF21F76EF86A000EF8220900E1
:101FB800F5CFD0F20900F5CFD1F2D0C2F6FFD1C2E9
:101FC800F7FFF86A0800F5CFC8F1010120EE04F028
:101FD800FC51D926FD51DA22DF500201D26FD36BB2
:101FE800D890D237D337FE0ED225D46FFF0ED32127
:101FF800D56F7D0ED425F66EEE0ED521F76EF86AF4
:10200800000EF8220900F5CFD6F20900F5CFD7F275
:102018000E0ED627000ED723D6C2F6FFD7C2F7FF7B
:10202800F86A0900F5CFD8F20900F5CFD9F201D83E
:102038000AD00500FA6ED851FD6ED951FE6EFF6ABE
:10204800FA50010E12000101C96F20EE04F0FC5194
:10205800D926FD51DA22DF500201DA6FDB6BD89006
:10206800DA37DB37FE0EDA25DC6FFF0EDB21DD6F9A
:102078007D0EDC25F66EEE0EDD21F76EF86A000E99
:10208800F8220900F5CFDEF20900F5CFDFF20E0ED7
:10209800DE27000EDF23DEC2F6FFDFC2F7FFF86A95
:1020A8000900F5CFE0F20900F5CFE1F201D80AD036
:1020B8000500FA6EE051FD6EE151FE6EFF6AFA50BE
:1020C800020E12000101CA6F20EE04F0FC51D9265D
:1020D800FD51DA22DF500201E26FE36BD890E2375C
:1020E800E337FE0EE225E46FFF0EE321E56F7D0E78
:1020F800E425F66EEE0EE521F76EF86A000EF8227A
:102108000900F5CFE6F20900F5CFE7F20E0EE62753
:10211800000EE723E6C2F6FFE7C2F7FFF86A0900F8
:10212800F5CFE8F20900F5CFE9F201D80AD00500A9
:10213800FA6EE851FD6EE951FE6EFF6AFA50030E21
:1021480012000101CB6FE70E86EC60F039EF0CF05E
:10215800FCC1D9FFFDC1DAFF040EDF6010D067C1F2
:10216800C5F166C1C6F1760E0101C76F010EC86FD1
:10217800010EC96FAF0EB6EC60F039EF0CF001013B
:1021880020EE04F0FC51D926FD51DA22DF5002017D
:10219800EE6F66C164F167C165F10001C405D8A49A
:1021A8004ED00201EE51D8B403D0EE29D8A447D0BE
:1021B800EE51D8B402D0510E01D0500EEB6F67C16A
:1021C800A6F066C1A7F0EB516EEC60F067C1C5F1EF
:1021D80066C1C6F1760E0101C76F010EC86F000E09
:1021E800C96FAF0EB6EC60F0000E0101676F67C1F2
:1021F80066F1FD0E0001A46F030EA56F000EA66F19
:1022080067C1A7F0000EEBEC5CF0FC0E0001A46FB8
:10221800030EA56F000EA66F66C1A7F0000EEBECCB
:102228005CF00201EE51D8B403D00001C46903D0B8
:10223800000E0001C46F010EC16F37EF0CF00C0ED9
:102248000201EE19D8A411D001016B8567C1C5F14F
:1022580066C1C6F1760EC76F010EC86F000EC96F52
:10226800AF0EB6EC60F039EF0CF00D0EEE19D8A4F5
:1022780011D001016B9567C1C5F166C1C6F1760E33
:10228800C76F010EC86F000EC96FAF0EB6EC60F0D5
:1022980039EF0CF0100EEE19D8A411D001016B879C
:1022A80067C1C5F166C1C6F1760EC76F010EC86F6A
:1022B800000EC96FAF0EB6EC60F039EF0CF0110EDE
:1022C800EE19D8A4BEEF0CF001016B9767C1C5F1F8
:1022D80066C1C6F1760EC76F010EC86F000EC96FD2
:1022E800AF0EB6EC60F039EF0CF0FF0039EF0CF0F0
:1022F80020EE01F0FC51D926FD51DA22DF5002010F
:10230800CC6FCD6BCD51000AD8A4BEEF0CF0CC51E8
:102318004F0AD8B427D4110AD8B4E7D72D0AD8B4AD
:1023280046EF0DF0050AD8B413D70E0AD8B454D521
:10233800FF0AD8B42AD4BEEF0CF0F2D2FCC1CEF119
:10234800FDC1CFF1030E0101D06F000ED16F2BEC50
:102358005AF0E806D8A402D0010E1200010120EEBE
:1023680002F0FC51D926FD51DA22DE506719D8A4B3
:102378000CD020EE03F0FC51D926FD51DA2266512B
:10238800DE18D8A402D06B81E7D76B91E5D7FCC1E2
:10239800CEF1FDC1CFF1040E0101D06F000ED16F57
:1023A8002BEC5AF0E806D8B4D7D7010120EE02F09A
:1023B800FC51D926FD51DA22DE506719D8A41FD066
:1023C80020EE03F0FC51D926FD51DA226651DE18C1
:1023D800D8A415D020EE04F0FC51D926FD51DA22FC
:1023E800080EDE18D8B4CFD720EE04F0FC51D92659
:1023F800FD51DA22090EDE18D8B4C7D701D06B9187
:10240800000E1200FCC1CEF1FDC1CFF1070E010193
:10241800D06F010ED16F2BEC5AF0E806D8A40BD080
:1024280067C1A6F066C1A7F0010E0001A86F6F0E84
:1024380056EC60F091D701016BA18ED720EE03F026
:10244800FC51D926FD51DA22DF500201CC6F01017F
:1024580020EE02F0FC51D926FD51DA22DF500201AC
:10246800CD6FCC510101F16FCDC2F2F120EE05F034
:10247800FC51D926FD51DA22DF500201CF6F01014C
:1024880020EE04F0FC51D926FD51DA22DF5002017A
:10249800D06FCF510101F36FD0C2F4F120EE06F0F6
:1024A800FC51D926FD51DA22DF50F56F20EE07F0F6
:1024B800FC51D926FD51DA22DF50F66F17EC4AF0AD
:1024C8004BD7FCC1CEF1FDC1CFF1050E0101D06F94
:1024D800010ED16F2BEC5AF0E806D8B43DD70101B4
:1024E8006BA13AD720EE03F0FC51D926FD51DA2230
:1024F800DF500201CC6F010120EE02F0FC51D92619
:10250800FD51DA22DF500201CD6FCC510101D16FAC
:10251800CDC2D2F120EE05F0FC51D926FD51DA22C8
:10252800DF500201CF6F010120EE04F0FC51D926E3
:10253800FD51DA22DF500201D06FCF510101D36F74
:10254800D0C2D4F1ABEC55F007D7FCC1CEF1FDC138
:10255800CFF1060E0101D06F010ED16F2BEC5AF0AE
:10256800E806D8B4F9D601016BA1F6D620EE03F03F
:10257800FC51D926FD51DA22DF500201CC6F01014E
:1025880020EE02F0FC51D926FD51DA22DF5002017B
:10259800CD6FCC510101CB6FCDC2CCF120EE05F04F
:1025A800FC51D926FD51DA22DF500201CF6F01011B
:1025B80020EE04F0FC51D926FD51DA22DF50020149
:1025C800D06FCF510101CD6FD0C2CEF120EE06F011
:1025D800FC51D926FD51DA22DF50CF6FF7EC3BF0E2
:1025E800BBD6FCC1CEF1FDC1CFF1030E0101D06F06
:1025F800000ED16F2BEC5AF0E806D8B4ADD6010125
:1026080020EE02F0FC51D926FD51DA22DE5067197E
:10261800D8A4A2D620EE03F0FC51D926FD51DA2227
:102628006651DE18D8A498D6B0D6FCC1CEF1FDC14B
:10263800CFF1030E0101D06F010ED16F2BEC5AF0D0
:10264800E806D8B489D6010120EE02F0FC51D9265B
:10265800FD51DA22DE506719D8A47ED620EE03F0A9
:10266800FC51D926FD51DA226651DE18D8A474D659
:102678006BB119D067C1A6F066C1A7F0020E0001C0
:10268800A86F6F0E56EC60F067C1C5F166C1C6F160
:10269800550E0101C76F040EC86F020EC96FAF0E49
:1026A800B6EC60F059D60EEC60F0AAD6FCC1CEF1BB
:1026B800FDC1CFF1030E0101D06F000ED16F2BECDD
:1026C8005AF0E806D8B448D6010120EE02F0FC51D1
:1026D800D926FD51DA22DE506719D8A43DD620EE5E
:1026E80003F0FC51D926FD51DA226651DE18D8A430
:1026F80033D6D2EC62F030D6FCC1CEF1FDC1CFF1B9
:10270800030E0101D06F000ED16F2BEC5AF0E806D2
:10271800D8B422D6010120EE02F0FC51D926FD5191
:10272800DA22DE506719D8A417D620EE03F0FC5140
:10273800D926FD51DA226651DE18D8A40DD697ECB9
:1027480058F00AD6FCC1CEF1FDC1CFF1030E01014C
:10275800D06F000ED16F2BEC5AF0E806D8B4FCD538
:10276800010120EE02F0FC51D926FD51DA22DE509B
:102778006719D8A4F1D520EE03F0FC51D926FD51F4
:10278800DA226651DE18D8A4E7D572EC5FF0E4D5FA
:10279800FCC1CEF1FDC1CFF1040E0101D06F000ED6
:1027A800D16F2BEC5AF0E806D8B4D6D5010120EE4B
:1027B80002F0FC51D926FD51DA22DE506719D8A45F
:1027C800CBD520EE03F0FC51D926FD51DA22665113
:1027D800DE18D8A4C1D520EE04F0FC51D926FD514D
:1027E800DA22DF50F3EC57F0B7D5FCC1CEF1FDC1CA
:1027F800CFF1050E0101D06F000ED16F2BEC5AF00E
:10280800E806D8B4A9D5010120EE02F0FC51D9267A
:10281800FD51DA22DE506719D8A49ED520EE03F0C8
:10282800FC51D926FD51DA226651DE18D8A494D578
:1028380020EE05F0FC51D926FD51DA22DF50CA6F8F
:1028480020EE04F0FC51D926FD51DA22DF50D9ECF4
:1028580043F082D5FCC1CEF1FDC1CFF1080E0101D4
:10286800D06F010ED16F2BEC5AF0E806D8B474D5AE
:10287800010120EE02F0FC51D926FD51DA22DE508A
:102888006719D8A469D520EE03F0FC51D926FD516B
:10289800DA226651DE18D8A45FD520EE03F0FC5189
:1028A800D926FD51DA22DF500201CC6F010120EE5A
:1028B80002F0FC51D926FD51DA22DF500201CD6F1A
:1028C800CC510101F16FCDC2F2F120EE05F0FC51BF
:1028D800D926FD51DA22DF500201CF6F010120EE27
:1028E80004F0FC51D926FD51DA22DF500201D06FE5
:1028F800CF510101F36FD0C2F4F120EE07F0FC5183
:10290800D926FD51DA22DF50F56F20EE08F0FC5190
:10291800D926FD51DA22DF50F66F17EC4AF01CD5A4
:10292800010120EE01F0FC51D926FD51DA22DF50D9
:102938000201CC6FCD6BCD51000AD8A461D5CC5122
:10294800530AD8B4FBD4070AD8B44BD6010AD8B472
:102958006CD6030AD8B4D0D6010AD8B4A7D60F0AC1
:10296800D8B4F0D62A0AD8B413D7040AD8B40FD5E5
:10297800E30AD8B4A6D5090AD8B437D72E0AD8B4EA
:10298800E4D5600AD8B43ED5270AD8B463D738D579
:10299800010120EE01F0FC51D926FD51DA22760E14
:1029A800DE18D8A43CD0FCC1CEF1FDC1CFF1040E95
:1029B800D06F06EC63F0E806D8A402D0010E12002E
:1029C800010120EE02F0FC51D926FD51DA22DE5039
:1029D8006719D8A422D020EE03F0FC51D926FD5166
:1029E800DA226651DE18D8A418D020EE04F0FC5183
:1029F800D926FD51DA220A0EDE18D8A402D06B833C
:102A0800DDD720EE04F0FC51D926FD51DA220B0E59
:102A1800DE18D8A402D06B93D1D7000E1200FCC1E7
:102A2800D9FFFDC1DAFF050EDF6001D0F6D720EE31
:102A380003F0FC51D926FD51DA22DF500201CC6F98
:102A4800010120EE02F0FC51D926FD51DA22DF50B7
:102A58000201CD6FCC51D26FCDC2D3F210D0000E8F
:102A6800D36F000ED26F140ECF6F010ED06F48D007
:102A7800000ED36F000ED26F000ECF6F41D0010150
:102A880020EE01F0FC51D926FD51DA22DF50020177
:102A9800CC6FCD6BCD51000AD8A4BFD7CC51900ACA
:102AA800D8B4E1D7010AD8B4E7D7090AD8B4D7D738
:102AB800010AD8B4DDD7290AD8B4D5D7010AD8B4C1
:102AC800DBD7090AD8B4CBD7010AD8B4D1D7690A59
:102AD800D8B4C9D7010AD8B4CFD7090AD8B4BFD750
:102AE800010AD8B4C5D7290AD8B4BDD7010AD8B4C1
:102AF800C3D7090AD8B4B3D7010AD8B4B9D78DD780
:102B0800D2C2BDF1D3C2BEF1010120EE05F0FC51E5
:102B1800D926FD51DA22DF500201CC6F010120EEE7
:102B280004F0FC51D926FD51DA22DF500201CD6FA5
:102B3800CC510101BF6FCDC2C0F147EC52F0020188
:102B4800D66FD629D8B469D7D651EFEC41F0020137
:102B5800D16F01016BA33AD00201D6519EEC60F00F
:102B68000009D8B433D067C1C5F166C1C6F1010107
:102B780020EE01F0FC51D926FD51DA22DF50C76F53
:102B880020EE02F0FC51D926FD51DA22DF50C86F41
:102B980020EE03F0FC51D926FD51DA22DF50C96F2F
:102BA80020EE04F0FC51D926FD51DA22DF50CA6F1D
:102BB80020EE05F0FC51D926FD51DA22DF50CB6F0B
:102BC800E60E86EC60F00101B34BB42B010120EE58
:102BD80001F0FC51D926FD51DA22DF500201D16FF4
:102BE800D1B180D0010EDB6F130EDB6501D019D196
:102BF800200EDB25D96EDA6A020EDA22DF50DC6F8E
:102C0800DC51D8B46CD0DC517F0BD96F590ED96127
:102C180066D0070ED919D8B404D1080ED96104D0EA
:102C2800DC518BEC5AF05BD0F80ED9250001976F78
:102C3800986BFF0E9823000E9A6F050E996FA8ECFB
:102C480053F0000197510201D86FF80ED925000101
:102C58008D6F8E6BFF0E8E23000E906F050E8F6F9B
:102C6800BAEC57F000018D510201DA6F20D0020151
:102C7800D851070DF350110FDEEC5EF000018DBF47
:102C88008DEC63F00201DA51D8B4DC2B040EDA19AA
:102C9800D8A402D0020EDC5FDC518BEC5AF08AEC2F
:102CA80063F01DD00201DC518BEC5AF018D0D851DA
:102CB800070DF350100FDEEC5EF000018E51000A94
:102CC800D8A40DD08D51010AD8B4D1D7030AD8B4ED
:102CD800D9D7010AD8B4D6D7070AD8B4E3D702019E
:102CE800DB2B82D733C2D4F2130EDB6F97D0000EE2
:102CF800D56FD4C2DCF2010EDB650AD01F0EDB25CE
:102D0800D96EDA6A020EDA22DF50D46FD45101D0BC
:102D1800D551800BD76FDC51D8B47ED0D551D8B4FB
:102D2800DCC2D5F2DC9F590EDC6176D0070EDC19C7
:102D3800D8B477D0080EDC6109D0DC05D8B406D049
:102D4800D751DC13DC518BEC5AF066D0F80EDC2539
:102D58000001976F986BFF0E9823000E9A6F050E6F
:102D6800996FA8EC53F0000197510201D86FF80E43
:102D7800DC2500018D6F8E6BFF0E8E23000E906F89
:102D8800050E8F6FBAEC57F000018D510201DA6F12
:102D98002BD00201D851070DF350110FDEEC5EF075
:102DA80000018DBF8DEC63F0030E0201DA19D8B46F
:102DB800DC070201DA51D8A402D0020EDC27040E87
:102DC800DA19D8A402D0030EDC5FD751DC13DC512A
:102DD8008BEC5AF08AEC63F01FD00201D751DC1358
:102DE800DC518BEC5AF0F6D7D851070DF350100F81
:102DF800DEEC5EF000018E51000AD8A40DD08D5192
:102E0800010AD8B4C6D7030AD8B4D3D7010AD8B4AC
:102E1800D0D7070AD8B4E1D70201DB07DB51D8A421
:102E280066D70101B14BB22BC9D50101F56FF00E80
:102E38000101F52500018D6F8E6BFF0E8E23000EAC
:102E4800906F070E8F6FBAEC57F000018D518E11FD
:102E5800D8A41BD00101F551F00FF66FF6C197F019
:102E68000001986B000E9A6F070E996FA8EC53F04B
:102E7800000197510101F66FF051F119D8B405D04E
:102E8800F0C1EDF1F65197EC59F0050E0101F51975
:102E9800D8A403D0F0517AEC63F0040E0101F519BF
:102EA800D8B4F0C15BFF0F0EF5651200F00EF525E2
:102EB8000001976F986BFF0E9823000E9A6F070E0C
:102EC800996FA8EC53F0000197510101F66FF00ECD
:102ED800F52500018D6F8E6BFF0E8E23000E906F0F
:102EE800070E8F6FBAEC57F0D3D10101F551F26F8D
:102EF800F36BF651070D120EF326000EF422F25171
:102F0800F31813E1F351F418D8A40FD0020E0001FE
:102F1800916F0101F6515CEC4DF0020E0001916FCA
:102F28000101F651DDEC4AF01200F551F26FF36B36
:102F3800F651070D130EF326000EF422F251F31882
:102F480013E1F351F418D8A40FD0010E0001916FCA
:102F58000101F6515CEC4DF0010E0001916F010189
:102F6800F651DDEC4AF01200F551F26FF36BF651B1
:102F7800070D110EF326000EF422F251F31803E1A7
:102F8800F351F418D8A41200F0AF1200F1BF1200E8
:102F9800F651070DF350120FDEEC5EF08DC097F07E
:102FA8008EC098F0000E00019A6F020E996FA8EC7F
:102FB80053F097C0F2F198C0F3F10101F651070DF3
:102FC800F350130FDEEC5EF08DC097F08EC098F0D2
:102FD800000E00019A6F020E996FA8EC53F00001E1
:102FE80097510101F22500019F6F0101F6511AEC7A
:102FF80062F012000101F551F26FF36BF651070D03
:10300800130EF326000EF422F251F31813E1F351D4
:10301800F418D8A40FD0020E0001916F0101F651E7
:10302800B2EC4DF0020E00018D6F0101F65132EC49
:1030380059F01200F551F26FF36BF651070D120EAD
:10304800F326000EF422F251F31813E1F351F418A9
:10305800D8A40FD0010E0001916F0101F651B2EC16
:103068004DF0010E00018D6F0101F65132EC59F05F
:103078001200F551F26FF36BF651070D110EF3269E
:10308800000EF422F251F31803E1F351F418D8A416
:103098001200F0AF1200F1BF1200F651070DF35005
:1030A800120FDEEC5EF08DC097F08EC098F0000E27
:1030B80000019A6F020E996FA8EC53F097C0F2F1D5
:1030C80098C0F3F10101F651070DF350130FDEEC30
:1030D8005EF08DC097F08EC098F0000E00019A6FD8
:1030E800020E996FA8EC53F0000197510101F225E7
:1030F800F46F300EF625D96EDA6A010EDA22F4C1C1
:10310800DFFF12000101F551F26FF36BF651070D65
:10311800130EF326000EF422F251F31813E1F351C3
:10312800F418D8A40FD0000E0001916F0101F651D8
:10313800B0EC47F0000E0001916F0101F6519FECD1
:103148004FF01200F551F26FF36BF651070D140EA4
:10315800F326000EF422F251F31813E1F351F41898
:10316800D8A40FD0010E0001916F0101F651B0EC07
:1031780047F0010E0001916F0101F6519FEC4FF0ED
:103188001200F551F26FF36BF651070D150EF32689
:10319800000EF422F251F31813E1F351F418D8A4F5
:1031A8000FD0020E0001916F0101F651B0EC47F00B
:1031B800020E0001916F0101F6519FEC4FF01200D1
:1031C800F551F26FF36BF651070D160EF326000E4C
:1031D800F422F251F31813E1F351F418D8A40FD0E4
:1031E800030E0001916F0101F651B0EC47F0030E98
:1031F8000001916F0101F6519FEC4FF01200F5515B
:10320800F26FF36BF651070D110EF326000EF42240
:10321800F251F31854E1F351F418D8A41200F0AFA6
:103228001200F1BF1200F651070DF350120FDEEC39
:103238005EF08DC097F08EC098F0000E00019A6F76
:10324800020E996FA8EC53F097C0F2F198C0F3F111
:103258000101F651070DF350130FDEEC5EF08DC03F
:1032680097F08EC098F0000E00019A6F020E996FC9
:10327800A8EC53F0000197510101F225F46F300ECC
:10328800F625D96EDA6A010EDA22F4C1DFFF1200E0
:103298000101F651070DF350100FDEEC5EF000014E
:1032A8008E51000AD8A412008D51020AD8B41DD636
:1032B800010AD8B49FD6070AD8A4120023D712004F
:1032C8000001A96F300E0001A925D96EDA6A010E36
:1032D800DA22DF509F6FA06BA9512B0FD96EDA6AE3
:1032E800DF50A16FA26B030EA127000EA2239F51EE
:1032F800A15DA251800AA36FA051800AA359D8A04A
:1033080042D0A9512B0FD96EDA6ADF509F6FFD0E9C
:103318009F25A06FA16BFF0EA123300EA925D96EA2
:10332800DA6A010EDA22DF50A26FA36BA051A25D08
:10333800A351800AA46FA151800AA459D8A023D010
:10334800A951020D000EF324D96E020EF420DA6E94
:10335800010EDBBE07D0010EDB5015E1040EDE5C6A
:10336800D8B011D0A951020D000EF324D96E020E67
:10337800F420DA6E010EDBAEDAD1FD0EDE5CFF0E54
:10338800DE58D8B0D4D1A951070DF350120FDEEC96
:103398005EF08DC09FF08EC0A0F00001A951070D0E
:1033A800F350130FDEEC5EF000018D519F5DD8B035
:1033B80002D0010E01D0000EA66FA651D8A4DDD010
:1033C800A951020D000EF324D96E020EF420DA6E14
:1033D800DECF97F0DDCF98F0000E9A6F1E0E996F32
:1033E800A8EC53F097C09FF098C0A0F00001A95135
:1033F800070DF350130FDEEC5EF000018D519F2591
:10340800A16F000EA021A26F300EA925D96EDA6A2D
:10341800010EDA22DF50A36FA46BA151A35DA45162
:10342800800AA56FA251800AA559D8B07CD0A951AD
:10343800070DF350140FDEEC5EF08DC091F08EC0D6
:1034480092F00001A951020D000EF324D96E020E6C
:10345800F420DA6EDECF9FF0DDCFA0F09F1FA01F13
:103468009F4BA02B9FC093F0A0C094F0CBEC61F0D1
:1034780091C097F092C098F0000E00019A6F640E08
:10348800996FA8EC53F00001A951020D000EF32426
:10349800D96E020EF420DA6E97C0DEFF98C0DDFF09
:1034A800A951070DF350130FDEEC5EF000018D51AA
:1034B8009F6FA06BA951070DF350130FDEEC5EF060
:1034C80000018D519F27000EA023300EA925D96E2B
:1034D800DA6A010EDA22DF50A16FA1519F5F000E58
:1034E800A05BA951020D000EF324D96E020EF42040
:1034F800DA6EDECF97F0DDCF98F0000E9A6F1E0ED1
:10350800996FA8EC53F0000197519F5DA76F9851F0
:10351800A059A86F300EA925D96EDA6A010EDA22F1
:10352800A7C0DFFF02D1A951020D000EF324D96E06
:10353800020EF420DA6E030EDE26000EDD22A951FB
:10354800020D000EF324D96E020EF420DA6EDECFDF
:1035580097F0DDCF98F0000E9A6F1E0E996FA8ECC9
:1035680053F0010E00019727300EA925D96EDA6AAB
:10357800010EDA229751DF5ED8D0300EA925D96E18
:10358800DA6A010EDA22DF509F6FA06BA951070D8E
:10359800F350130FDEEC5EF08DC0A1F08EC0A2F0E8
:1035A8000001A951020D000EF324D96E020EF42079
:1035B800DA6EDECF97F0DDCF98F0000E9A6F1E0E10
:1035C800996FA8EC53F000019751A15DA36F985132
:1035D800D8A09829A46BA45F9F51A35DA451800A29
:1035E800A56FA051800AA559D8B076D0A951070D6A
:1035F800F350140FDEEC5EF08DC091F08EC092F0A7
:103608000001A951020D000EF324D96E020EF42018
:10361800DA6EDECF9FF0DDCFA0F09F1FA01F9F4B7B
:10362800A02B9FC093F0A0C094F0CBEC61F091C0A8
:1036380097F092C098F0000E00019A6F640E996F8F
:10364800A8EC53F00001A951020D000EF324D96E25
:10365800020EF420DA6E97C0DEFF98C0DDFFA95194
:10366800070DF350130FDEEC5EF000018D519F6FD4
:10367800A06BA951070DF350130FDEEC5EF00001AB
:103688008D519F27000EA023A951020D000EF3248F
:10369800D96E020EF420DA6EDECF97F0DDCF98F007
:1036A800000E9A6F1E0E996FA8EC53F00001975107
:1036B8009F25A16F9851A021A26F300EA925D96E20
:1036C800DA6A010EDA22DF50A36FA351A15DA76F5A
:1036D800A251D8A0A2051DD7A951020D000EF324AE
:1036E800D96E020EF420DA6E030EDE26000EDD22FD
:1036F800A951020D000EF324D96E020EF420DA6EE1
:10370800DECF97F0DDCF98F0000E9A6F1E0E996FFE
:10371800A8EC53F0010E00019727300EA925D96EA9
:10372800DA6A010EDA229751DF26000E1200010E26
:1037380012000001C405D8A440D06FEC5BF0010171
:10374800505100018D5D0101CA6F515100018E5920
:103758000101CB6F525100018F590101CC6F5351B8
:10376800000190590101CD6FCD5108E1B50ECA5D38
:10377800C40ECB59040ECC59D8A01FD06BA50FD0BE
:1037880067C1C5F166C1C6F1BFC0C7F194C1C8F130
:10379800000EC96FAB0EB6EC60F00001BF2B6FECEA
:1037A8005BF08DC050F18EC051F18FC052F190C0C6
:1037B80053F101019451D8A494070001C2510101A9
:1037C8006B19D8B40ED0F90E0001A46F030EA56FC3
:1037D800000EA66F6BC1A7F0000EEBEC5CF06BC19E
:1037E800C2F00001C351C419D8B413D0C429D8B445
:1037F80003D0C405D8A40BD0FB0EA46F030EA56F8D
:10380800000EA66FC4C0A7F0000EEBEC5CF0C4C0BD
:10381800C3F06FEC5BF001014C5100018D5D0101BB
:10382800CA6F4D5100018E590101CB6F4E510001F5
:103838008F590101CC6F4F51000190590101CD6F93
:10384800CD51CC1106E1250ECA5DF40ECB59D8A096
:103858007FD16FEC5BF08DC04CF18EC04DF18FC005
:103868004EF190C04FF10101984B992B9851991145
:10387800D8A46ED1964B972B6BD180A40BD06FEC4C
:103888005BF08DC0AAF08EC0ABF08FC0ACF090C0DA
:10389800ADF012006FEC5BF00001AA518D5D0101E3
:1038A800CA6F0001AB518E590101CB6F0001AC51B9
:1038B8008F590101CC6F0001AD5190590101CD6FB5
:1038C800CD5108E1910ECA5DD00ECB59030ECC59EB
:1038D800D8A01200FD0E0001C46FC169DDEC5FF0D5
:1038E800120080A4CCD7000EC46FC1696FEC5BF0E6
:1038F8008DC0AAF08EC0ABF08FC0ACF090C0ADF018
:1039080067C1A6F066C1A7F0500E6EEC60F0DDEC62
:103918005FF0B5D780A487D06FEC5BF00001AA51A7
:103928008D5D0101CA6F0001AB518E590101CB6F4A
:103938000001AC518F590101CC6F0001AD51905974
:103948000101CD6FCD51CC1106E16B0ECA5D180E89
:10395800CB59D8A036D06FEC5BF00001AA518D5D31
:103968000101CA6F0001AB518E590101CB6F0001F3
:10397800AC518F590101CC6F0001AD519059010133
:10398800CD6FCD511EE1480ECA5DE80ECB59010E30
:10399800CC59D8B016D0C1C0C4F00001C405D8A411
:1039A8000ED064C166F165C167F167C1A6F066C152
:1039B800A7F0520E6EEC60F001019C4B9D2BDDECE4
:1039C8005FF06FEC5BF00001AA518D5D0101CA6FD9
:1039D8000001AB518E590101CB6F0001AC518F59D9
:1039E8000101CC6F0001AD5190590101CD6FCD514E
:1039F80008E1910ECA5DD00ECB59030ECC59D8A060
:103A080004D00001C469DDEC5FF06FEC5BF08DC0A1
:103A1800AAF08EC0ABF08FC0ACF090C0ADF0000E35
:103A28000001C06F1200010EC06F120080A4FBD706
:103A3800C051D8B455D06FEC5BF00001AA518D5D30
:103A48000101CA6F0001AB518E590101CB6F000112
:103A5800AC518F590101CC6F0001AD519059010152
:103A6800CD6FCD51CC1106E16B0ECA5D180ECB5946
:103A7800D8A036D06FEC5BF00001AA518D5D010132
:103A8800CA6F0001AB518E590101CB6F0001AC51D7
:103A98008F590101CC6F0001AD5190590101CD6FD3
:103AA800CD511EE1480ECA5DE80ECB59010ECC5926
:103AB800D8B016D066C164F167C165F1000E676FB2
:103AC80067C166F1000E0001C46F010EC16F65C1C8
:103AD800A6F064C1A7F0500E6EEC60F0DDEC5FF06C
:103AE8000001C051D8B491D76FEC5BF00001AA5126
:103AF8008D5D0101CA6F0001AB518E590101CB6F79
:103B08000001AC518F590101CC6F0001AD519059A2
:103B18000101CD6FCD5108E1900ECA5DD00ECB5991
:103B2800030ECC59D8A071D766C164F167C165F19D
:103B3800000E676F67C166F10001C469010EC16FAD
:103B480065C1A6F064C1A7F0510E6EEC60F05BD7BA
:103B58000001C451000AD8B4DDD6FD0AD8B4C1D6D4
:103B6800020AD8B48AD662D70101D86FD8C1D4F175
:103B7800130E0101CE654FD1060E12000A0ECE5F5C
:103B8800D851D06FD16BD03BD13BF00ED117D0516B
:103B98000F0BD113F00ED017800ED025D26FEF0E79
:103BA800D121D36FD2C191F0D3C192F00001936BB0
:103BB800010E5BEC5AF0000191510101D76FD7A9B2
:103BC8001ED0D851100DF3CFD0F1F4CFD1F1810E22
:103BD800D025D26FEF0ED121D36FD2C191F0D3C1CE
:103BE80092F00001936B010E5BEC5AF000019151C9
:103BF8000101D86FD829D8A40ED1070E1200CF51D1
:103C0800D8A402D0000E1200D829D96FFBD0D95100
:103C1800D06FD16BD03BD13BF00ED117D0510F0BE9
:103C2800D113F00ED017800ED025D26FEF0ED12110
:103C3800D36FD2C191F0D3C192F00001936B010E02
:103C48005BEC5AF0000191510101D56FD5AFD9D085
:103C5800D951100DF3CFD0F1F4CFD1F1820ED02588
:103C6800D26FEF0ED121D36FD2C1A4F0D3C1A5F08A
:103C78000001A66BFF0EA76F010EEBEC5CF00101D3
:103C8800D951100DF3CFD0F1F4CFD1F1830ED02557
:103C9800D26FEF0ED121D36FD2C1A4F0D3C1A5F05A
:103CA8000001A66BFF0EA76F010EEBEC5CF00101A3
:103CB800D951100DF3CFD0F1F4CFD1F1840ED02526
:103CC800D26FEF0ED121D36FD2C1A4F0D3C1A5F02A
:103CD8000001A66BFF0EA76F010EEBEC5CF0010173
:103CE800D951100DF3CFD0F1F4CFD1F1850ED025F5
:103CF800D26FEF0ED121D36FD2C1A4F0D3C1A5F0FA
:103D08000001A66BFF0EA76F010EEBEC5CF0010142
:103D1800D951D06FD16BD03BD13BF00ED117D051D8
:103D28000F0BD113F00ED017800ED025D26FEF0EE7
:103D3800D121D36FD2C1A4F0D3C1A5F00001A66BE5
:103D4800200EA76F010EEBEC5CF0000E0101D66FA0
:103D5800D951100DF3CFD0F1F4CFD1F1D651D027EE
:103D6800000ED123860ED025D26FEF0ED121D36F4E
:103D7800D2C1A4F0D3C1A5F00001A66B000EA76FB5
:103D8800010EEBEC5CF00101D62B090ED665E0D7ED
:103D9800D851100DF3CFD0F1F4CFD1F1810ED02549
:103DA800D26FEF0ED121D36FD2C1A4F0D3C1A5F049
:103DB8000001A66BD9C1A7F0010EEBEC5CF0010184
:103DC800D789D851D06FD16BD03BD13BF00ED117EA
:103DD800D0510F0BD113F00ED017800ED025D26F13
:103DE800EF0ED121D36FD2C1A4F0D3C1A5F0000149
:103DF800A66BD7C1A7F0010EEBEC5CF0D9C1D8F1E6
:103E080004D0D92BD929D8A402D70101D929D8A4FB
:103E180002D0040E12000A0ECE61B0D6D851100D91
:103E2800F3CFD0F1F4CFD1F1CE51D027000ED1236A
:103E3800860ED025D26FEF0ED121D36FD2C1A4F058
:103E4800D3C1A5F00001A66BCFC1A7F0010EEBEC22
:103E58005CF00101D851D06FD16BD03BD13BF00E53
:103E6800D117D0510F0BD113F00ED017800ED025DB
:103E7800D26FEF0ED121D36FD2C191F0D3C192F09E
:103E88000001936B010E5BEC5AF0000191510101A6
:103E9800D76FD7510F0BD06FD051CE5DD8A026D099
:103EA800CEC1D0F1010ED027D751D019F00BD019BF
:103EB800D76FD851D06FD16BD03BD13BF00ED11713
:103EC800D0510F0BD113F00ED017800ED025D26F22
:103ED800EF0ED121D36FD2C1A4F0D3C1A5F0000158
:103EE800A66BD7C1A7F0010EEBEC5CF00101CF5136
:103EF800D8A488D6D45115EC5EF084D66FEC5BF06C
:103F08000101445100018D5D0201EF6F010145512E
:103F180000018E590201F06F0101465100018F59CD
:103F28000201F16F01014751000190590201F26F3E
:103F380001016A510001916F926B936B946B3E0E75
:103F4800956F000E966F000E976F000E986F9BECA2
:103F58005BF00201EF510001915D0201F051000197
:103F680092590201F151000193590201F2510001E5
:103F78009459D8B00CD02FEC55F06FEC5BF08DC095
:103F880044F18EC045F18FC046F190C047F16FEC07
:103F98005BF00101405100018D5D0201EF6F0101ED
:103FA800415100018E590201F06F01014251000197
:103FB8008F590201F16F010143510001905902012B
:103FC800F26FF251F11106E1250EEF5DF40EF05992
:103FD800D8A00CD0EBEC53F06FEC5BF08DC040F147
:103FE8008EC041F18FC042F190C043F1000E020132
:103FF800F46FF451020D7D0EF324F66EEE0EF420EC
:10400800F76EF86A000EF8220900F5500900F5105D
:10401800D8B44BD0F451020D7D0EF324F66EEE0E9B
:10402800F420F76EF86A000EF8220900F5CFEFF2D7
:104038000900F5CFF0F2080EEF27000EF023EFC2CB
:10404800F6FFF0C2F7FFF86A0900F5500900F5100D
:10405800D8B42BD0F451020D7D0EF324F66EEE0E7B
:10406800F420F76EF86A000EF8220900F5CFEFF297
:104078000900F5CFF0F2080EEF27000EF023EFC28B
:10408800F6FFF0C2F7FFF86A0900F5CFF1F2090070
:10409800F5CFF2F201D809D00500FA6EF151FD6EA4
:1040A800F251FE6EFF6AFA5012000201F42B070E5D
:1040B800F4659FD72CEC31F0000E0201F36F01017B
:1040C80068516911D8B4CAD0020E68250201EF6F91
:1040D800000E010169210201F06FEFC2F6FFF0C284
:1040E800F7FFF86A0900F5500900F510D8B4B6D002
:1040F800F50E0101C66F020EC76F020E6825020198
:10410800EF6F000E010169210201F06FEFC2F6FFA7
:10411800F0C2F7FFF86A0900F5CFF1F20900F5CF10
:10412800F2F201D809D00500FA6EF151FD6EF25194
:10413800FE6EFF6AFA5012000009D8B48FD002014F
:10414800F551D8B48BD0070E4BEC44F0F50E0001B6
:104158008D6F020E8E6F96EC63F00201F36FF351D0
:10416800D8A47CD0000EF46FF451020D7D0EF32418
:10417800F66EEE0EF420F76EF86A000EF8220900CB
:10418800F5500900F510D8B458D0F451020D7D0E41
:10419800F324F66EEE0EF420F76EF86A000EF8229D
:1041A8000900F5CFEFF20900F5CFF0F2060EEF2780
:1041B800000EF023EFC2F6FFF0C2F7FFF86A09001D
:1041C800F5500900F510D8B438D0F50E0101FC6F90
:1041D800020EFD6F0201F451020D7D0EF324F66EFE
:1041E800EE0EF420F76EF86A000EF8220900F5CFFB
:1041F800EFF20900F5CFF0F2060EEF27000EF023DC
:10420800EFC2F6FFF0C2F7FFF86A0900F5CFF1F246
:104218000900F5CFF2F201D809D00500FA6EF15184
:10422800FD6EF251FE6EFF6AFA501200E806D8A43D
:1042380004D0010E0201F36F05D00201F42B070E22
:10424800F46592D7F351D8A409D0F50E00018D6F0B
:10425800020E8E6F98EC63F00201F36F0201F351C6
:10426800D8B4120001019E4B9F2B080E4BEC44F072
:10427800120000018D51D96EDA6A020ED926DF507C
:10428800906F916B8D51D96EDA6A040ED926DF5082
:10429800926FFF0E9225936F946BFF0E94238D51AE
:1042A800D96EDA6A030ED926DF50956F966B010E28
:1042B8009527000E962393519515976F945196154F
:1042C800986F9051971906E191519819D8A402D086
:1042D800000E120020EE01F08E51D9268F51DA22FD
:1042E8008D51E16EE26A030EE126E750906F90511E
:1042F800090DF3CF91F0F4CF92F08D51E16EE26A9F
:10430800E6CF93F0E5CF94F091519325956F9251B4
:104318009421966F010E9525E16E000E9621E26EAE
:10432800DFCFE7FF20EE02F08E51D9268F51DA2237
:104338008D51E16EE26A030EE126E750906F9051CD
:10434800090DF3CF91F0F4CF92F08D51E16EE26A4E
:10435800E6CF93F0E5CF94F091519325956F925164
:104368009421966F020E9525E16E000E9621E26E5D
:10437800DFCFE7FF20EE03F08E51D9268F51DA22E6
:104388008D51E16EE26A030EE126E750906F90517D
:10439800090DF3CF91F0F4CF92F08D51E16EE26AFE
:1043A800E6CF93F0E5CF94F091519325956F925114
:1043B8009421966F030E9525E16E000E9621E26E0C
:1043C800DFCFE7FF20EE04F08E51D9268F51DA2295
:1043D8008D51E16EE26A030EE126E750906F90512D
:1043E800090DF3CF91F0F4CF92F08D51E16EE26AAE
:1043F800E6CF93F0E5CF94F091519325956F9251C4
:104408009421966F040E9525E16E000E9621E26EBA
:10441800DFCFE7FF20EE05F08E51D9268F51DA2243
:104428008D51E16EE26A030EE126E750906F9051DC
:10443800090DF3CF91F0F4CF92F08D51E16EE26A5D
:10444800E6CF93F0E5CF94F091519325956F925173
:104458009421966F050E9525E16E000E9621E26E69
:10446800DFCFE7FF20EE06F08E51D9268F51DA22F2
:104478008D51E16EE26A030EE126E750906F90518C
:10448800090DF3CF91F0F4CF92F08D51E16EE26A0D
:10449800E6CF93F0E5CF94F091519325956F925123
:1044A8009421966F060E9525E16E000E9621E26E18
:1044B800DFCFE7FF20EE07F08E51D9268F51DA22A1
:1044C8008D51E16EE26A030EE126E750906F90513C
:1044D800090DF3CF91F0F4CF92F08D51E16EE26ABD
:1044E800E6CF93F0E5CF94F091519325956F9251D3
:1044F8009421966F070E9525E16E000E9621E26EC7
:10450800DFCFE7FF20EE08F08E51D9268F51DA224F
:104518008D51E16EE26A030EE126E750906F9051EB
:10452800090DF3CF91F0F4CF92F08D51E16EE26A6C
:10453800E6CF93F0E5CF94F091519325956F925182
:104548009421966F080E9525E16E000E9621E26E75
:10455800DFCFE7FF8EC0D9FF8FC0DAFF8D51E16E44
:10456800E26A030EE126E750906F9051090DF3CFF0
:1045780091F0F4CF92F08D51E16EE26AE6CF93F0BC
:10458800E5CF94F091519325E16E92519421E26E1A
:10459800DFCFE7FF8D51D96EDA6A030ED926DF2AFD
:1045A8008D51D96EDA6A040ED9268D51E16EE26A10
:1045B800030EE126DE50E65CD8A006D08D51D96EF8
:1045C800DA6A030ED926DF6A010E12000001A86F0D
:1045D800F80E0001A825976F986BFF0E9823000E20
:1045E8009A6F040E996FA8EC53F000019751CF6FA2
:1045F8000F0ECF6502D0FF0E1200A851F80F030B63
:10460800A96FCF51070DF350110FDEEC5EF00001DA
:104618008D51A66FA651080BA76F69D1B40ECF258F
:10462800D96EDA6A020EDA22DF50D8B402D0010E4F
:104638001200000E1200A751D8B4DDD7B40ECF2552
:10464800D96EDA6A020EDA22DF50D8A402D0010E3F
:104658001200000E1200A951000AD8B4DFD7010ACF
:10466800D8B4E9D7C8D7DE0ECF259F6FA06B030E4D
:10467800A0239FC091F0A0C092F0936B000E5BEC5A
:104688005AF0020E000191199211D8B402D0010E0D
:104698001200000E1200A951000AD8B4E4D7ABD713
:1046A800CF51070DF350120FDEEC5EF0300E000113
:1046B800CF25D96EDA6A010EDA22DE508D19D8A418
:1046C80002D0010E1200000E1200CF51070DF35058
:1046D800130FDEEC5EF0300E0001CF25D96EDA6ADA
:1046E800010EDA22DE508D19D8A402D0010E120074
:1046F800000E1200CF51070DF350130FDEEC5EF0E1
:1047080000018D51976F986B000E9A6F020E996F8A
:10471800A8EC53F097C09FF098C0A0F00001CF51CB
:10472800070DF350120FDEEC5EF000018D51976F0C
:10473800986B000E9A6F020E996FA8EC53F0000167
:1047480097519F25A16F9851A021A26F300ECF25B8
:10475800D96EDA6A010EDA22DF50A36FA46BA15179
:10476800A35DA451800AA56FA251800AA559D8A0BB
:1047780002D0010E1200000E1200A951000AD8B48E
:104788008FD7010AD8B4B6D7030AD8B49ED733D77F
:10479800DE0ECF259F6FA06B030EA0239FC091F064
:1047A800A0C092F0936B000E5BEC5AF00001916789
:1047B800010E1200A951000AD8B4EAD71CD7CF516C
:1047C800070DF350130FDEEC5EF0300E0001CF251D
:1047D800D96EDA6A010EDA22DF509F6FA06B8D5115
:1047E8009F1906E18E51A019D8A402D0010E12001B
:1047F800000E1200CF51070DF350140FDEEC5EF0DF
:10480800300E0001CF25D96EDA6A010EDA22DF50A8
:104818009F6FA06B8D519F1906E18E51A019D8A4E6
:1048280002D0010E1200000E1200CF51070DF350F6
:10483800120FDEEC5EF000018EBFDDD68E5104E172
:10484800030E8D5DD8A0D7D6CF51070DF350150FA5
:10485800DEEC5EF0300E0001CF25D96EDA6A010E6B
:10486800DA22DF509F6FA06B8D519F1906E18E51A0
:10487800A019D8A402D0010E1200000E1200CF51C8
:10488800070DF350120FDEEC5EF000018EBFB3D6B9
:104898008E5104E1040E8D5DD8A0ADD6CF51070D21
:1048A800F350160FDEEC5EF0300E0001CF25D96E06
:1048B800DA6A010EDA22DF509F6FA06B8D519F19C3
:1048C80006E18E51A019D8A402D0010E1200000EE4
:1048D8001200A951000AD8B472D7010AD8B48AD7ED
:1048E800030AD8B4A2D7010AD8B4C9D784D6CF51FD
:1048F800070DF350100FDEEC5EF000018D51000A39
:10490800D8B4A9D6010AD8B4C6D6030AD8B435D7BC
:10491800010AD8B44FD7070AD8B4DBD76CD6FCC184
:10492800D9FFFDC1DAFF030EDF6002D0000E1200CE
:10493800010120EE02F0FC51D926FD51DA22DE50A9
:104948006719D8A4F3D720EE03F0FC51D926FD51FE
:10495800DA226651DE18D8A4E9D762D1FCC1D9FFA2
:10496800FDC1DAFF040EDF601DD067C1A6F066C185
:10497800A7F0010E0001A86F6F0E56EC60F067C13A
:10498800C5F166C1C6F1710E0101C76F010EC86F8E
:10499800010EC96FAF0EB6EC60F00101AD4BAE2B46
:1049A800010E120020EE04F0FC51D926FD51DA2246
:1049B800DF50DEEC5EF08DC0CCF28EC0CDF202018D
:1049C800CDAF1DD067C1A6F066C1A7F0CC510008D5
:1049D8000001A86F6F0E56EC60F067C1C5F166C1A3
:1049E800C6F1710E0101C76F010EC86F0201CC51EB
:1049F80000080101C96FAF0EB6EC60F0CED7010117
:104A0800AB4BAC2B67C1A6F066C1A7F020EE04F053
:104A1800FC51D926FD51DA22DF500001A86FCCC223
:104A2800A9F0970EFCEC60F001016BB7B9D720EE46
:104A380004F0FC51D926FD51DA22DF50D8A4B0D7B2
:104A4800020E48EC57F00001916FFE0E926FBC0EFB
:104A5800936F060EA0EC5EF0A3D7FCC1D9FFFDC191
:104A6800DAFF050EDF600ED067C1C5F166C1C6F179
:104A7800960EC76F010EC86F010EC96FAF0EB6EC68
:104A880060F08BD720EE05F0FC51D926FD51DA22D3
:104A9800DF50F76F20EE04F0FC51D926FD51DA22E1
:104AA800DF506DEC55F00101FE6FFE510201CC6F35
:104AB800CD6BCDBF0FD0CD5103E1CC05D8A00AD026
:104AC80067C1A6F066C1A7F0CCC2A8F06F0E56EC7D
:104AD80060F063D767C1A6F066C1A7F0590E6EEC07
:104AE80060F067C1C5F166C1C6F1960E0101C76FD6
:104AF800010EC86F000EC96FAF0EB6EC60F050D74C
:104B0800FCC1D9FFFDC1DAFF050EDF600ED067C119
:104B1800C5F166C1C6F18E0EC76F010EC86F010ED2
:104B2800C96FAF0EB6EC60F038D720EE05F0FC5137
:104B3800D926FD51DA22DF50F76F20EE04F0FC5140
:104B4800D926FD51DA22DF506DEC55F00101FE6FD8
:104B5800FE510201CC6FCD6BCDBF1DD0CD5103E10D
:104B6800CC05D8A018D067C1A6F066C1A7F0CCC202
:104B7800A8F06F0E56EC60F067C1C5F166C1C6F1CA
:104B88008E0E0101C76F010EC86FCCC2C9F1AF0EFE
:104B9800B6EC60F002D7010120EE04F0FC51D926F2
:104BA800FD51DA22DF50DEEC5EF08DC0CCF28EC013
:104BB800CDF20201CDAF1DD067C1A6F066C1A7F046
:104BC800CC5100080001A86F6F0E56EC60F067C169
:104BD800C5F166C1C6F18E0E0101C76F010EC86F1F
:104BE8000201CC5100080101C96FAF0EB6EC60F0AC
:104BF800D4D667C1A6F066C1A7F0010120EE04F083
:104C0800FC51D926FD51DA22DF500001A86FCCC231
:104C1800A9F0970EFCEC60F00101AB4BAC2BC0D6B1
:104C280020EE01F0FC51D926FD51DA22DF50FE6F4B
:104C3800FF6BFF51000AD8A479D6FE51710AD8B487
:104C48008DD6FF0AD8B45CD7180AD8B406D76ED662
:104C580076984A0E00018D6F8EEC5FF00009D8A49B
:104C680050D10F0120B74DD10001B951D8A407D0B8
:104C7800B751D8A404D0010EB76F010EB96F76886A
:104C880099C0D9FF9AC0DAFF080EDF6406D099C030
:104C9800D9FF9AC0DAFF080EDF6E20EE01F09951B5
:104CA800D9269A51DA22DF509B6F9C6B3D0E9B25CB
:104CB800F66EED0E9C21F76EF86A000EF8220800D9
:104CC800F5509D6F9E6B980E9D25F66EEE0E9E21FB
:104CD800F76EF86A000EF8220800F5CF9FF0B93990
:104CE800E8461F0B0F0B9F110F01216FB9C09BF0F6
:104CF800070E00019B17050E9C6FD8909B379C2FC1
:104D0800FCD79B510F01226F000120EE01F0995151
:104D1800D9269A51DA22DF500F01266F000120EEC2
:104D280002F09951D9269A51DA22DF500F01276FE4
:104D3800000120EE03F09951D9269A51DA22DF506A
:104D48000F01286F000120EE04F09951D9269A51DD
:104D5800DA22DF500F01296F000120EE05F099518A
:104D6800D9269A51DA22DF500F012A6F000120EE6E
:104D780006F09951D9269A51DA22DF500F012B6F8C
:104D8800000120EE07F09951D9269A51DA22DF5016
:104D98000F012C6F000120EE08F09951D9269A5185
:104DA800DA22DF500F012D6F99C0D9FF9AC0DAFFC0
:104DB800DF500F0B256F20870101784B792B0001FD
:104DC80020EE01F09951D9269A51DA22DF50B7EC3A
:104DD80061F00009D8B41200080E81EC57F0000900
:104DE800D8B412004F0E00018D6F75EC46F08DC0DF
:104DF800A1F08EC0A2F00001A151A211D8A406D042
:104E080001017C4B7D2B5EEC63F0120020EE01F07B
:104E18009951D9269A51DA2210EE01F0A151E126D2
:104E2800A251E222DFCFE7FF99C0D9FF9AC0DAFF8B
:104E3800A1C0E1FFA2C0E2FFDFCFE7FF20EE02F052
:104E48009951D9269A51DA2210EE02F0A151E126A1
:104E5800A251E222DFCFE7FF20EE03F09951D926D5
:104E68009A51DA2210EE03F0A151E126A251E22272
:104E7800DFCFE7FF20EE04F09951D9269A51DA22C4
:104E880010EE04F0A151E126A251E222DFCFE7FFA4
:104E980020EE05F09951D9269A51DA2210EE05F044
:104EA800A151E126A251E222DFCFE7FF20EE06F072
:104EB8009951D9269A51DA2210EE06F0A151E1262D
:104EC800A251E222DFCFE7FF20EE07F09951D92661
:104ED8009A51DA2210EE07F0A151E126A251E222FE
:104EE800DFCFE7FF20EE08F09951D9269A51DA2250
:104EF80010EE08F0A151E126A251E222DFCFE7FF30
:104F080012004A0E00018D6F99C08EF09AC08FF082
:104F18003DEC21F00009D8A407D00101764B772B8E
:104F28005EEC63F07688120058EC63F00001A06F25
:104F3800A05101018E5D000E8F59D8B003D0A0C0DA
:104F48008EF18F6B76881200000E0001CE6F0F0E67
:104F5800CE6501D01200CE51070DF350100FDEECD4
:104F68005EF000018D518E11D8A462D1CE5165EC4E
:104F780040F00101D16F940E0001CE25D96EDA6A96
:104F8800020EDA220101D151DE18D8B449D1000E3F
:104F9800D06F940E0001CE25D96EDA6A020EDA229D
:104FA800DF50D8B41ED0CE51070DF350120FDEECEF
:104FB8005EF0840E0001CE25D96EDA6A020EDA227E
:104FC800DF500101CE6FCF6B00018D510101CE1969
:104FD80008E100018E510101CF19D8A402D0010EB9
:104FE800D06F940E0001CE25D96EDA6A020EDA224D
:104FF800DF50D8A41ED0CE51070DF350130FDEECAE
:105008005EF0840E0001CE25D96EDA6A020EDA222D
:10501800DF500101CE6FCF6B00018D510101CE1918
:1050280008E100018E510101CF19D8A402D0010E68
:10503800D06F0101D051D8B4EAD0840E0001CE253A
:10504800D96EDA6A020EDA22DF6A940ECE25D96E9C
:10505800DA6A020EDA22D1C1DFFFCE51070DF35012
:10506800110FDEEC5EF000018DB108D00101D151C5
:10507800D8A402D0010E01D0000ED16F0001CE518C
:10508800070DF350110FDEEC5EF000018DA931D051
:105098000101D151D8B4CCD0B40E0001CE25D96EBF
:1050A800DA6A020EDA22B40ECE25E16EE26A020E48
:1050B800E222E750D8A402D0010E01D0000EDF6E24
:1050C800DE0ECE250101CE6FCF6B030ECF23CEC1EE
:1050D800A4F0CFC1A5F00001A66BB40ECE25D96E01
:1050E800DA6A020EDA22DF50A76F000EEBEC5CF0F2
:1050F80008D0B40ECE25D96EDA6A020EDA22D1C1F2
:10510800DFFF0001CE51070DF350110FDEEC5EF00A
:1051180000018DA747D0B40ECE25D96EDA6A020EEB
:10512800DA22DF50D8B41FD0CE51070DF350110F3B
:10513800DEEC5EF000018DAD0BD0000E0101C66FF4
:105148000001CE51040DF350080F05EC4DF070D05E
:10515800010E0101C66F0001CE51040DF350080F76
:1051680005EC4DF065D0CE51070DF350110FDEEC74
:105178005EF000018DAD0BD0000E0101C66F00017D
:10518800CE51040DF350090F05EC4DF051D0010E2E
:105198000101C66F0001CE51040DF350090F05EC53
:1051A8004DF046D0CE51070DF350110FDEEC5EF0F6
:1051B80000018DAD16D0B40ECE25D96EDA6A020E76
:1051C800DA22DF50D8A402D0010E01D0000E01016E
:1051D800C66F0001CE51040DF350080F05EC4DF0D9
:1051E80027D0B40ECE25D96EDA6A020EDA22DF5045
:1051F800D8B402D0010E01D0000E0101C66F000123
:10520800CE51040DF350080F05EC4DF011D0840E6B
:105218000001CE25D96EDA6A020EDA22DF2A08D01A
:10522800840E0001CE25D96EDA6A020EDA22DF6A10
:105238000001CE2B8CD60101C56F0F0E0101C5658B
:1052480001D01200C551070DF350100FDEEC5EF0CF
:1052580000018D510101C46F60D0C551070DF35095
:10526800110FDEEC5EF000018DA518D0DE0E0101F5
:10527800C525BE6FBF6B030EBF23BEC191F0BFC172
:1052880092F00001936B000E5BEC5AF00001915113
:10529800976F0101C551D6EC52F022D10101C551D9
:1052A800070DF350110FDEEC5EF000018DBB05D049
:1052B800000E0101C26F020E04D0000E0101C26F80
:1052C800010EC16FC1C1C3F1C3C197F0C551D6EC7E
:1052D80052F0DE0E0101C525BE6FBF6B030EBF2362
:1052E800BEC1A4F0BFC1A5F00001A66BC3C1A7F061
:1052F800000EEBEC5CF0F4D0C551070DF350110F24
:10530800DEEC5EF000018D51100B0101C06FC0C1D1
:1053180097F0C551D6EC52F0E3D0C451010AD8B485
:105328009CD7030AD8B4E8D7010AD8B4E5D7D8D0AF
:10533800C451D8B408D0050EC419D8B404D0060E88
:10534800C419D8A41ED0C551040D020EF326000EB0
:10535800F4223D0EF324F66EEE0EF420F76EF86A92
:10536800000EF8220800F5CFBEF1010EBF6FBE2B6C
:1053780002D0D890BF37BE2FFCD70101BF5192127F
:105388001200C551040D020EF326000EF4223D0E44
:10539800F324F66EEE0EF420F76EF86A000EF8228B
:1053A8000800F5CFBEF1010EBF6FBE2B02D0D8901A
:1053B800BF37BE2FFCD70101BF51FF0A921612005A
:1053C800C451D8B408D0050EC419D8B404D0060EF8
:1053D800C419D8A41ED0C551040D020EF326000E20
:1053E800F4223D0EF324F66EEE0EF420F76EF86A02
:1053F800000EF8220800F5CFBEF1010EBF6FBE2BDC
:1054080002D0D890BF37BE2FFCD70101BF519312ED
:105418001200C551040D020EF326000EF4223D0EB3
:10542800F324F66EEE0EF420F76EF86A000EF822FA
:105438000800F5CFBEF1010EBF6FBE2B02D0D89089
:10544800BF37BE2FFCD70101BF51FF0A93161200C8
:10545800C451D8B408D0050EC419D8B404D0060E67
:10546800C419D8A41ED0C551040D020EF326000E8F
:10547800F4223D0EF324F66EEE0EF420F76EF86A71
:10548800000EF8220800F5CFBEF1010EBF6FBE2B4B
:1054980002D0D890BF37BE2FFCD70101BF5194125C
:1054A8001200C551040D020EF326000EF4223D0E23
:1054B800F324F66EEE0EF420F76EF86A000EF8226A
:1054C8000800F5CFBEF1010EBF6FBE2B02D0D890F9
:1054D800BF37BE2FFCD70101BF51FF0A9416120037
:1054E8000101C551040D010EF326000EF4223D0EF4
:1054F800F324F66EEE0EF420F76EF86A000EF8222A
:105508000800F550410AD8B413D7030AD8B458D7BD
:10551800010AD8A412009CD777980F0120B758D158
:105528004A0E0001606F3AEC50F060C073F061C041
:1055380074F0000173517411D8B43CD120EE01F01D
:105548007351D9267451DA22DF506C6F6D6B3D0EA2
:105558006C25F66EED0E6D21F76EF86A000EF822D6
:105568000800F5506E6F6F6B980E6E25F66EEE0E96
:105578006F21F76EF86A000EF8220800F5CF70F078
:10558800B939E8461F0B0F0B70110F01216FB9C015
:105598006CF0070E00016C17050E6D6FD8906C3714
:1055A8006D2FFCD76C510F01226F000120EE01F026
:1055B8007351D9267451DA22DF500F01266F00018A
:1055C80020EE02F07351D9267451DA22DF500F0110
:1055D800276F000120EE03F07351D9267451DA22A7
:1055E800DF500F01286F000120EE04F07351D92617
:1055F8007451DA22DF500F01296F000120EE05F007
:105608007351D9267451DA22DF500F012A6F000135
:1056180020EE06F07351D9267451DA22DF500F01BB
:105628002B6F000120EE07F07351D9267451DA224E
:10563800DF500F012C6F000120EE08F07351D926BE
:105648007451DA22DF500F012D6F73C0D9FF74C077
:10565800DAFFDF50256FC7EC5BF060C03FF061C038
:1056680040F062C041F063C042F0000E0001B86F24
:105678000F01208776880101784B792B000120EEF5
:1056880001F07351D9267451DA22DF50DFEC61F052
:105698000009D8B412004F0E0001606F47EC47F0C4
:1056A80060C071F061C072F0000171517211D8A42C
:1056B80006D001017C4B7D2B64EC63F0120020EED8
:1056C80001F07351D9267451DA2210EE01F07151AC
:1056D800E1267251E222DFCFE7FF73C0D9FF74C021
:1056E800DAFF71C0E1FF72C0E2FFDFCFE7FF20EE13
:1056F80002F07351D9267451DA2210EE02F071517A
:10570800E1267251E222DFCFE7FF20EE03F073516A
:10571800D9267451DA2210EE03F07151E126725144
:10572800E222DFCFE7FF20EE04F07351D92674514F
:10573800DA2210EE04F07151E1267251E222DFCF35
:10574800E7FF20EE05F07351D9267451DA2210EEE6
:1057580005F07151E1267251E222DFCFE7FF20EE1A
:1057680006F07351D9267451DA2210EE06F0715101
:10577800E1267251E222DFCFE7FF20EE07F07351F6
:10578800D9267451DA2210EE07F07151E1267251D0
:10579800E222DFCFE7FF20EE08F07351D9267451DB
:1057A800DA2210EE08F07151E1267251E222DFCFC1
:1057B800E7FF1200000E3F6E000E406E000E416EB5
:1057C800000E426E000E0F01206F77987698120037
:1057D8007798768812000101DD6F030E0101D61952
:1057E800D8A458D0DD51070DF350130FDEEC5EF04E
:1057F800200E0101DD25D96EDA6A010EDA220001D8
:105808008DC0DFFFA40E0101DD25D96EDA6A020E14
:10581800DA22010EDF6EDD51070DF350110F200B58
:10582800DEEC5EF000018D518E11D8A402D0010E7D
:1058380001D0000E916F0101DD5145EC37F0DE0E0D
:105848000101DD25D76FD86B030ED823D7C1A4F08B
:10585800D8C1A5F00001A66BD6C1A7F0000EEBECED
:105868005CF0010E0101CE6FDD51070DF350110FF1
:10587800DEEC5EF000018D51400B0101CF6F010E8F
:10588800D06F010ED16FDD51040DF350080F82EC7B
:105898005DF01200200EDD25D96EDA6A010EDA22DB
:1058A800DF6AD605D8A402D0010E01D0000EDC6F45
:1058B800DD51070DF350110FDEEC5EF000018DA1F4
:1058C80008D00101DC51D8A402D0010E01D0000E8D
:1058D800DC6F0101DC51D8A415D0DD51070DF35060
:1058E800120FDEEC5EF000018D518E11D8B40AD093
:1058F800A40E0101DD25D96EDA6A020EDA22010E44
:10590800DF6E12000101DC51D8B438D0DD51070D2B
:10591800F350120FDEEC5EF000018D518E11D8B4F9
:105928002DD0A40E0101DD25D96EDA6A020EDA2225
:10593800DF50D8A423D0DD51070DF350120FDEEC51
:105948005EF0A40E0101DD25D96EDA6A020EDA22B4
:1059580000018DC0DFFFDE0E0101DD25D76FD86B9A
:10596800030ED823D7C1A4F0D8C1A5F00001A66BB7
:10597800020EA76F000EEBEC5CF025D0A40E01011F
:10598800DD25D96EDA6A020EDA22010EDF6EDC51ED
:10599800D8A404D0000EDA6F020E03D0000EDA6F1E
:1059A800010ED96FDE0EDD25D76FD86B030ED82315
:1059B800D7C1A4F0D8C1A5F00001A66BD9C1A7F042
:1059C800000EEBEC5CF0DCC1DBF10101DD51070DF1
:1059D800F350110FDEEC5EF000018DAB08D0010131
:1059E800DB51D8A402D0010E01D0000EDB6FDBC161
:1059F80091F00101DD5145EC37F00101DD51070D52
:105A0800F350110FDEEC5EF000018DA721D00101EB
:105A1800DC51D8B41200DC51D8B402D0010E01D048
:105A2800000ECE6FDD51070DF350110FDEEC5EF066
:105A380000018D51400B0101CF6F010ED06F010E97
:105A4800D16FDD51040DF350080F82EC5DF01200A8
:105A58000101DC51D8B402D0010E01D0000ECE6F86
:105A6800DD51070DF350110FDEEC5EF000018D5192
:105A7800400B0101CF6F010ED06F010ED16FDD51C8
:105A8800040DF350080F82EC5DF012000001A76FBF
:105A98000001A751070DF350120FDEEC5EF08DC028
:105AA8009FF08EC0A0F00001A751070DF350130F0F
:105AB800DEEC5EF000018D519F5DD8B002D0010E82
:105AC80001D0000EA56F16D1A751070DF350120F84
:105AD800DEEC5EF000018D51976F986B000E9A6FA7
:105AE800020E996FA8EC53F097C09FF098C0A0F0F1
:105AF8000001A751070DF350130FDEEC5EF0000113
:105B08008D51976F986B000E9A6F020E996FA8ECE3
:105B180053F0000197519F25A66FA551D8B428D0FE
:105B2800A751070DF350150FDEEC5EF0300E0001A3
:105B3800A725D96EDA6A010EDA228D51DF5E300EA2
:105B4800A725D96EDA6A010EDA22DE50A65DD8A042
:105B5800E9D0440EA725D96EDA6A020EDA22010EC0
:105B6800DF6EA751070DF350160FDEEC5EF027D05D
:105B7800A751070DF350150FDEEC5EF0300E000153
:105B8800A725D96EDA6A010EDA228D51DF26300E8A
:105B9800A725D96EDA6A010EDA22A651DE5CD8A0F2
:105BA800C1D0440EA725D96EDA6A020EDA22010E98
:105BB800DF6EA751070DF350160FDEEC5EF0000103
:105BC8008D519F6FA06BA751020D000EF324D96E63
:105BD800020EF420DA6E9FC0DEFFA0C0DDFFA2D067
:105BE800A751020D000EF324D96E020EF420DA6ECE
:105BF800DE50DE10D8A408D0440EA725D96EDA6A84
:105C0800020EDA22020EDF6EA751020D000EF324F7
:105C1800D96E020EF420DA6EDE06000EDD5A82D04E
:105C2800A551D8B438D0A751070DF350150FDEECA5
:105C38005EF0300E0001A725D96EDA6A010EDA226D
:105C48008D51DF5E300EA725D96EDA6A010EDA2291
:105C5800DF509F6FA06BA7512B0FD96EDA6ADF5008
:105C6800A16FFD0EA125A26FA36BFF0EA3239F5169
:105C7800A25DA351800AA46FA051800AA459D8A09C
:105C880051D0440EA725D96EDA6A020EDA22030E25
:105C9800DF6E010E1200A751070DF350150FDEEC51
:105CA8005EF0300E0001A725D96EDA6A010EDA22FD
:105CB8008D51DF26A7512B0FD96EDA6ADF509F6FFF
:105CC800FD0E9F25A06FA16BFF0EA123300EA72507
:105CD800D96EDA6A010EDA22DF50A26FA36BA051E7
