:04000000FEEF03F01C
:0400080004EF04F00D
:040018000CEF04F0F5
:1000740000370800F5501200380E0001456FF80EE5
:100084004117408140B1FED7070E4113465112007B
:100094001F6E010103511F18F80B1F18036F02395B
:1000A400E832070B1F18D8B41200F9D700014151E8
:1000B400F80B0609416F550E426FAA0E426F40813C
:1000C40040B1FED7070E411312001F6E000140B16C
:1000D400FDD71FC546F0000E476F4151F80B0309C9
:1000E400416F550E426FAA0E426F4081070E4113B5
:1000F4001200740EF66E000EF76E000EF86E090014
:10010400F5C433F50900F5C434F501EE01F11E0E12
:10011400EE6AE806FDE10001AFEF01F0000E0C6E9F
:10012400000E0B6E000E0B24D96E370E0C20DA6E07
:10013400FF0EDF6E0B4A0C2A0C04D8A0F3D7000E76
:10014400166E000E156E000E146E12001F6E380E21
:100154000001456F1FC546F04151F80B0309416F7B
:10016400550E426FAA0E426F408140B1FED7070E72
:1001740041133EEC00F01F18D8B41200E8D7080E63
:10018400156003D01450D8B4120016C543F015C539
:1001940044F014C545F058EC00F04151F80B050942
:1001A400416F550E426FAA0E426F408140B1FED797
:1001B400070E411312001F6E07C5D9F408C5DAF4FF
:1001C400DF6A20EE01F00750D9260850DA22240E07
:1001D400DF6E20EE02F00750D9260850DA22DF6ADB
:1001E40020EE03F00750D9260850DA22DF6A1F50A8
:1001F400D8B409D020EE01F00750D9260850DA22ED
:10020400000EDB8608D020EE01F00750D9260850F6
:10021400DA22F70EDF16030E010169131200460EEF
:1002240002010B6F0B0E3D6FC794C786000E0301CE
:10023400676F0101018F040E4AEC00F0000E4C6F51
:10024400380E4D6F000E4E6F000E4F6F000E006F94
:10025400870E016F100E026F500E036F000E046FB5
:10026400030E056F020E066F3F0E076F800E686F58
:10027400040E696F600E6A6F5F0E6B6F080E746F09
:10028400040E756F000E766F5F0E776F400E8F6FE2
:10029400400E936F830E806F060E4AEC00F012003E
:1002A4002F6E1550206E1F6A1450236E226A216A25
:1002B4001F502110246E20502210256E000E20BEE7
:1002C400FF0E2310266E00014451286E276A455103
:1002D4002B6E2A6A296A275029102C6E28502A105E
:1002E4002D6E000E28BEFF0E2B102E6E24502C18DF
:1002F40007E125502D1804E126502E18D8B424D037
:1003040043C013F544C012F545C011F5C1EC00F02B
:10031400000E166E12C515F511C514F5000140B195
:10032400FDD714C545F015C544F016C543F0415139
:10033400F80B0209416F4081070E411313C543F0C6
:1003440012C544F011C545F0000E4325D96EDA6A92
:10035400370EDA222FC5DFF41200100E356E000EB0
:100364000401006F000E086FC79EC79CC684380E38
:100374000001456F030E446F43693EEC00F0000931
:10038400D8B4CEA402D000EF04F0400E356E0001C4
:10039400AD518F0B2009AD6F000E1C6E1C0E1B6E31
:1003A400C79CC79EBF8CBF8E11EC01F090EC00F08F
:1003B400000E046E000E036E0400010178A1FDD747
:1003C4007CC109F57DC10AF520EE04F00950D92657
:1003D4000A50DA22DF500F0B106E20EE01F00950A4
:1003E400D9260A50DA22DFA67CD119C545F018C5F2
:1003F40044F017C543F01BA60AD01050306E316A82
:10040400326A305017263150182232501922020E07
:10041400196074D020EE01F00950D9260A50DA226E
:10042400DFA82FD06CA1FED770C107F571C108F504
:10043400000E0F6E0F500724306E000E0820316E30
:10044400080E3024D96E000E3120DA6E3BEC00F039
:10045400DF6EF62AF650D8A404D0F72AF750D8B4A1
:10046400F82A0F2A080E0F64E5D720EE04F007508F
:10047400D9260850DA22180EDF6E010EDDEC00F0EA
:100484003DD000014551D8A403D0070E446536D0B1
:100494001BA203D058EC00F031D0000E0F6E2AD00E
:1004A4000F500924306E000E0A20316E080E3024DD
:1004B400D96E000E3120DA6EDF5052EC01F00F508D
:1004C4000924306E000E0A20316E080E3024D96ED5
:1004D400000E3120DA6EDF50326E32500326000EE9
:1004E4000422432B4351D8A404D0442B4451D8B400
:1004F400452B0F2A10500F5CD8A0D2D7300E1918F4
:10050400D8A466D020EE01F00950D9260A50DA2288
:10051400DFA830D001016CA1FDD770C107F571C10E
:1005240008F5000E0F6E0F500724306E000E0820E1
:10053400316E080E3024D96E000E3120DA6E3BEC99
:1005440000F0DF6EF62AF650D8A404D0F72AF7504C
:10055400D8B4F82A0F2A080E0F64E5D720EE04F069
:100564000750D9260850DA22180EDF6E010EDDEC92
:1005740000F02ED0000E0F6E27D004000F50092477
:10058400306E000E0A20316E080E3024D96E000E33
:100594003120DA6EDF5067EC00F00F500924306E22
:1005A400000E0A20316E080E3024D96E000E312060
:1005B400DA6EDF50326E32500326000E0422F62A21
:1005C400F650D8B4F72A0F2A10500F5CD8A0D5D70C
:1005D400380E1918D8A461D020EE01F00950D9269C
:1005E4000A50DA22DFA82CD001016CA1FDD770C11A
:1005F40007F571C108F5000E0F6E0F500724306E19
:10060400000E0820316E080E3024D96E000E312001
:10061400DA6E3EEC00F0DF6E432B4351D8B4442B2A
:100624000F2A080E0F64E9D720EE04F00750D926EC
:100634000850DA22180EDF6E010EDDEC00F02DD02A
:10064400000E0F6E26D00F500924306E000E0A20C3
:10065400316E080E3024D96E000E3120DA6EDF5070
:10066400A8EC00F00F500924306E000E0A20316E01
:10067400080E3024D96E000E3120DA6EDF50326E4F
:1006840032500326000E0422432B4351D8B4442B8A
:100694000F2A10500F5CD8A0D6D720EE01F00950D5
:1006A400D9260A50DA22DFA81BA89CD001016CA12C
:1006B400FDD770C107F571C108F520EE08F00750A9
:1006C400D9260850DA22010EDF6E20EE04F007501E
:1006D400D9260850DA22110EDF6E000EDDEC00F090
:1006E40081D0C1EC00F0170E056E050E066E080EE3
:1006F4000924016E000E0A20026E000E0F6E0FD048
:1007040001C5D9F402C5DAF405C5E1F406C5E2F47D
:10071400DFC4E7F4054A062A014A022A0F2A1050C8
:100724000F5CD8A0EDD71C04D8A40CD0380E00015F
:10073400456F030E446F4369000EA8EC00F0BF9CA4
:10074400BF9EFF00020E1C18D8A404D0000E046E35
:10075400000E036E030E1C18D8A426D001016CA150
:10076400FDD770C107F571C108F520EE08F00750F8
:10077400D9260850DA2203501D24306E04501E205E
:10078400316E30503110D8A402D0010E01D0000EC9
:10079400DF6E20EE04F00750D9260850DA22110E3D
:1007A400DF6E000EDDEC00F0040E1C18D8A41AD085
:1007B40001016CA1FDD770C107F571C108F520EEE8
:1007C40008F00750D9260850DA22020EDF6E20EE18
:1007D40004F00750D9260850DA22110EDF6E000EFD
:1007E400DDEC00F001017581E7D5424C5F564552BE
:0707F40053494F4E3D030184
:0807FC007BEF00F001EF05F0B6
:10082000A56120FF147F040B1701000800000000E1
:100830000000010F000000001400480800005B03E6
:080848004D494F202020200043
:100900006C036C036C036C036C036C034D776C031A
:100910006C036C036C036C036C036C036C036C035F
:100920006C036C036C036C036C036C036C036C034F
:100930006C036C036C036C03EC756C036C03EC02CE
:100940006C036C036C036C036C036C036C036C032F
:100950006C036C036C036C03C1756C036C036C0358
:100960006C036C036C036C036C036C036C036C030F
:100970006C036C036C036C0380026C036C036C03EC
:100980006C036C036C036C036C036C036C036C03EF
:100990006C036C036C036C0380026C036C036C03CC
:1009A0006C036C036C036C036C036C036C036C03CF
:1009B0006C036C036C036C036C036C036C036C03BF
:1009C0006C036C036C036C036C036C036C036C03AF
:1009D0006C036C036C036C036C036C036C036C039F
:1009E00080026C036C036C036C036C036C036C037C
:1009F0006C036C036C036C036C036C036C036C037F
:100A0000FF002CEFE4F02E6E040E0501666F6EC53C
:100A100067F56FC568F570C569F5000E6A6F000E61
:100A20006B6F000E6C6F000E6D6F2E507BECE2F062
:100A3000120005016A6F010E2B6E05016A51F3EC7D
:100A4000C4F02B5005016B6F6B51D8A42AEF05F051
:100A50002DEF05F0010E2EEF05F0000E12002E6EA8
:100A6000060E0501666F6EC567F56FC568F570C542
:100A700069F571C56AF572C56BF5000E6C6F000EF5
:100A80006D6F2E507BECE2F012002E6E080E050109
:100A9000666F6EC567F56FC568F570C569F571C598
:100AA0006AF572C56BF573C56CF574C56DF52E509E
:100AB0007BECE2F012002E6E050E0501666F6EC52E
:100AC00067F56FC568F570C569F571C56AF5000E03
:100AD0006B6F000E6C6F000E6D6F2E507BECE2F0B2
:100AE000120003011EA177EF05F079EF05F07CEF0E
:100AF00005F0000E86EF05F02AA181EF05F083EFE7
:100B000005F085EF05F079EF05F0010E1200196E82
:100B100090EF05F0010E9BEF05F0000E9BEF05F046
:100B20001950000AD8B48AEF05F0010AD8B48AEF48
:100B300005F08DEF05F01200196EA5EF05F0010E1E
:100B4000B0EF05F0000EB0EF05F01950000AD8B470
:100B50009FEF05F0010AD8B49FEF05F0A2EF05F072
:100B60001200196E640E1924D96EDA6A070EDA22A1
:100B7000DF6A1950020D000EF324D96E060EF42020
:100B8000DA6EDE6ADD6A12001D501F02F3C421F521
:100B9000F4C422F51D502002F35022261E501F02DD
:0E0BA000F350222621C51DF522C51EF51200B8
:100BB000B1AEDDEF05F0DFEF05F0EAEF05F0B19E35
:100BC000362A3650D8A4E7EF05F0E9EF05F0EAEF52
:100BD00005F0352A11002C6E400E2C24D96EDA6AED
:100BE000060EDA222BC5DFF4CC0E2C24D96EDA6A7D
:100BF000050EDA222BC5DFF41200196E600E1924DF
:100C0000D96EDA6A060EDA22FC0EDF16600E19249F
:100C1000D96EDA6A060EDA220601DF941200196E26
:100C200018EF06F07F0E1FEF06F0000E1FEF06F024
:100C30001950010AD8B412EF06F015EF06F01200B1
:100C4000196E29EF06F0020E30EF06F0000E30EFBD
:100C500006F01950010AD8B423EF06F026EF06F08B
:100C600012000501675166196B6F695168196A6F47
:100C70006B51070DF3506A256B6F1F0E6B176B518D
:100C80001200000E3A6EFE0E0501606F030E616FDA
:100C9000000E626F3AC563F5000E3DECEAF01200FB
:100CA000040E10ECE3F01D6E720E1E6ECC0E1F6E65
:100CB000010E206E020E0AECEAF01200050E10EC96
:100CC000E3F01D6EF60E1E6E920E1F6E010E206E6C
:100CD000010E0AECEAF01200000E346E000E456EB2
:100CE000080E466E000E476E000EF86E0001419F22
:100CF000120071EC05F00009D8A481EF06F084EF32
:100D000006F0010E85EF06F0000E120077C573F5B0
:100D100078C574F579C575F5090E0501766FA6ECF1
:100D2000E0F012000601CC29D8B499EF06F09BEF51
:100D300006F09CEF06F0CC2B1200000E0601906F1F
:100D4000000E916F000E926F000E936F12001950FB
:100D5000010AD8B4AEEF06F0AEEF06F012000101C2
:100D60000239E832070B1200196E19C5ECF51200B2
:100D7000000EF1ECD4F012000501EF691200196EBB
:100D800019041200196E1928120011ECC3F0120098
:100D9000000E3D6E1200010E3D6E1200FCECEAF0FA
:100DA000120056ECEBF01200000E1200000E1200C2
:020DB000110030
:10FD94000001010302020202030202030100000146
:10FDA400010101010101010101010101010101013F
:10FDB400010101010101010101010101010101012F
:10FDC400010101010101010101010101010101011F
:10FDD4000001010101010101010100010100000014
:10FDE400000000000000000000000000000001010D
:10FDF40001010103010101010101010100000000F1
:10FE040000000000010001010101010100010101E4
:10FE140001010101000101010101010001000000D3
:10FE240000000000000000000000000000010101CB
:10FE340001010101010101010000010100000000B4
:10FE440000000000010000010101000000010101A7
:10FE54000101010100010101010101010100000092
:10FE64000000000101000001010100000001010087
:10FE74000101010000010001010101010000000075
:10FE8400000000000000000000000001000000006D
:10FE9400000B4300FF0C4301FF0D4302FF0E43031D
:10FEA400FF0F4304FF104305FF114306FF124307EE
:10FEB400FF1542000A16420108194204091A4205B4
:10FEC400FF0341010102410000054103030741050D
:10FED40004E4FFD0FFBCFFA8FF94FF80FF6CFF5831
:10FEE400FF44FF424C5F56455253494F4E3D0B0A67
:10FEF40009080000060404000000010600000000D8
:10FF04000002068080EBEB000306807F40033C0484
:10FF140006038080800005068010000000060600AD
:10FF24007B2007FF07060500000000080000000012
:10FF340000000000000000000000000000000000BD
:10FF4400090100000092DC011E770100000000009E
:10FF540000BCDE01080100000000000000000000F9
:10FF6400000000000000000005010000005CDC014E
:10FF74006874010000000E0B002CDE010601000075
:10FF84000004D8016C3D01000000380B00ECDE01D8
:10FF94000401A20D00F8DA01FE2901000000FCDDD5
:10FFA400011CDF010A0200000008A80130B60100AC
:10FFB400000068DD0100000002012EDA01B2DB015D
:10FFC4007260010000001E0C005CDE01010156CECF
:10FFD40001109701F611013642010000008CDE0188
:10FFE4000302820C00928B0188AC018A0D00400C44
:0BFFF400005EBF01405001327E0100A2
:020000040001F9
:10000000000E0501856F33EF88F005018551070D5E
:10001000F350120F2BECECF01950236E246A000EF3
:10002000266E020E256EB6ECDAF023C57AF524C5ED
:100030007BF505018551070DF350130F2BECECF008
:100040001950236E246A000E266E020E256EB6EC41
:10005000DAF0235005017A25846F000E836F06EFD6
:1000600083F08551070DF350120F2BECECF0CC0E02
:1000700005018525D96EDA6A050EDA22DF507A6F1E
:100080007B6B19507A1907E11A507B19D8A44BEFF2
:1000900080F04DEF80F066EF80F08551070DF35052
:1000A000110F2BECECF019BC58EF80F05BEF80F0F7
:1000B000010E5CEF80F0000E0501726F8551040D9A
:1000C000F350080F14ECD2F07DEF80F08551070D4E
:1000D000F350110F2BECECF019BC71EF80F074EFC2
:1000E00080F0010E75EF80F0000E0501726F8551F2
:1000F000040DF3500A0F14ECD2F0300E05018525E3
:10010000D96EDA6A060EDA22020EDF6E400E8525FF
:10011000D96EDA6A060EDA22CC0E8525E16EE26A25
:10012000050EE222DE50E65CD8B099EF80F09BEF3E
:1001300080F081EF81F0CC0E8525D96EDA6A050E4C
:10014000DA228451DE5CD8B0A8EF80F0AAEF80F00C
:10015000ACEF80F0010E836F200E8525D96EDA6A30
:10016000060EDA22DF50D8B4B8EF80F0BAEF80F094
:10017000F6EF80F0CC0E8525D96EDA6A050EDA220C
:10018000200E8525E16EE26A060EE222E7507B6FC3
:10019000CC0E8525E16EE26A050EE222E7507B2552
:1001A0007C6FDE507C5DD8B0D8EF80F0DAEF80F065
:1001B000E4EF80F0CC0E8525D96EDA6A050EDA22DE
:1001C000FF0EDF6E2EEF81F0200E8525D96EDA6AE4
:1001D000060EDA22DF507A6FCC0E8525D96EDA6AE8
:1001E000050EDA227A51DF262EEF81F0840E852566
:1001F000D96EDA6A070EDA22DF06840E8525D96EFB
:10020000DA6A070EDA22DF50D8A409EF81F00BEF8B
:1002100081F02EEF81F0CC0E8525D96EDA6A050EBD
:10022000DA22DE28D8B417EF81F019EF81F020EF41
:1002300081F0CC0E8525D96EDA6A050EDA22DF2A26
:10024000940E8525D96EDA6A070EDA22840E85258A
:10025000E16EE26A070EE222DFC4E7F4CC0E8525E8
:10026000D96EDA6A050EDA22400E8525E16EE26A61
:10027000060EE222DE50E65CD8B041EF81F043EF9B
:1002800081F051EF81F0400E8525D96EDA6A060EB5
:10029000DA22CC0E8525E16EE26A050EE222DFC489
:1002A000E7F4CC0E8525D96EDA6A050EDA22845180
:1002B000DE5CD8A05EEF81F060EF81F06EEF82F03F
:1002C0008351D8B466EF81F068EF81F06EEF82F071
:1002D0008551070DF350110F2BECECF019AC73EFB7
:1002E00081F076EF81F0010E77EF81F0000E0501CD
:1002F000726F8551040DF350090F14ECD2F06EEFBC
:1003000082F0CC0E8525D96EDA6A050EDA22400E0F
:100310008525E16EE26A060EE222DE50E65CD8B088
:1003200094EF81F096EF81F06EEF82F0CC0E852590
:10033000D96EDA6A050EDA22DE50845DD8B0A3EFFA
:1003400081F0A5EF81F0A7EF81F0010E836F200E01
:100350008525D96EDA6A060EDA22DF50D8B4B3EFFB
:1003600081F0B5EF81F0E5EF81F0CC0E8525D96EF7
:10037000DA6A050EDA22200E8525E16EE26A060EA3
:10038000E222DE50E65CD8A0C8EF81F0CAEF81F02F
:10039000D3EF81F0CC0E8525D96EDA6A050EDA220C
:1003A000DF6A1DEF82F0200E8525D96EDA6A060E0F
:1003B000DA22DF507A6FCC0E8525D96EDA6A050E07
:1003C000DA227A51DF5E1DEF82F0840E8525D96E28
:1003D000DA6A070EDA22DF06840E8525D96EDA6A1C
:1003E000070EDA22DF50D8A4F8EF81F0FAEF81F09F
:1003F0001DEF82F0CC0E8525D96EDA6A050EDA2261
:10040000DF50D8B406EF82F008EF82F00FEF82F0F1
:10041000CC0E8525D96EDA6A050EDA22DF06940E37
:100420008525D96EDA6A070EDA22840E8525E16EFB
:10043000E26A070EE222DFC4E7F4400E8525D96E9A
:10044000DA6A060EDA22CC0E8525E16EE26A050E26
:10045000E222DE50E65CD8B030EF82F032EF82F07C
:1004600040EF82F0400E8525D96EDA6A060EDA2258
:10047000CC0E8525E16EE26A050EE222DFC4E7F4C8
:10048000CC0E8525D96EDA6A050EDA22DE50845D3F
:10049000D8A04DEF82F04FEF82F06EEF82F08351E3
:1004A000D8B455EF82F057EF82F06EEF82F08551AD
:1004B000070DF350110F2BECECF019BC62EF82F03A
:1004C00065EF82F0010E66EF82F0000E0501726F9B
:1004D0008551040DF350090F14ECD2F0CC0E050138
:1004E0008525D96EDA6A050EDA22400E8525E16E81
:1004F000E26A060EE222DE50E618D8A482EF82F00D
:1005000084EF82F0D3EF88F0300E8525D96EDA6A59
:10051000060EDA22010EDF6EF0ECE6F005018551E1
:10052000040D000EF324D96E070EF420DA6E19C5FF
:10053000DEF41AC5DEF41BC5DEF41CC5DEF48551FD
:10054000070DF350120F2BECECF0CC0E05018525B6
:10055000D96EDA6A050EDA22DF507A6F7B6B19509A
:100560007A1907E11A507B19D8A4B9EF82F0BBEFD2
:1005700082F0D4EF82F08551070DF350110F2BEC70
:10058000ECF019ACC6EF82F0C9EF82F0010ECAEFB1
:1005900082F0000E0501726F8551040DF350080FB3
:1005A00014ECD2F0EBEF82F08551070DF350110FF0
:1005B0002BECECF019ACDFEF82F0E2EF82F0010EF1
:1005C000E3EF82F0000E0501726F8551040DF350C8
:1005D0000A0F14ECD2F0050185517A6F7B6B7C6BAE
:1005E000DE0E7A25606F030E7B21616F000E7C2189
:1005F000626FCC0E8525D96EDA6A050EDA22DF50DD
:10060000636F000E3DECEAF0D3EF88F0300E8525E5
:10061000D96EDA6A060EDA22DF507A6F7B6B7B5175
:10062000000AD8B416EF83F0D3EF88F07A51000AAD
:10063000D8B44FEF88F0010AD8B44FEF88F0030A1E
:10064000D8B486EF80F0010AD8B431EF80F0D3EF50
:1006500088F08551B1EC05F0300E05018525D96E85
:10066000DA6A060EDA22020EDF6E740E8525D96E66
:10067000DA6A070EDA22DF6A740E8525D96EDA6A25
:10068000070EDA22DF2A740E8525D96EDA6A070E84
:10069000DA22DE28D8A44FEF83F051EF83F0ACEFDD
:1006A00083F0300E8525D96EDA6A060EDA22010E45
:1006B000DF6EF0ECE6F005018551040D000EF32429
:1006C000D96E070EF420DA6E19C5DEF41AC5DEF411
:1006D0001BC5DEF41CC5DEF4400E8525D96EDA6A32
:1006E000060EDA22CC0E8525E16EE26A050EE222C4
:1006F000DFC4E7F48551070DF350110F2BECECF03C
:1007000019AC85EF83F088EF83F0010E89EF83F059
:10071000000E0501726F8551040DF350080F14ECA3
:10072000D2F0050185517A6F7B6B7C6BDE0E7A25EA
:10073000606F030E7B21616F000E7C21626FCC0E17
:100740008525D96EDA6A050EDA22DF50636F000E56
:100750003DECEAF0D3EF88F08551070DF350120F0E
:100760002BECECF019500501826F400E8525D96EF7
:10077000DA6A060EDA228251DE18D8A4C2EF83F0BC
:10078000C4EF83F02BEF84F085513BECB7F0000908
:10079000D8B4CDEF83F0CFEF83F0D3EF88F0300EF5
:1007A00005018525D96EDA6A060EDA22010EDF6EA2
:1007B000F0ECE6F005018551040D000EF324D96E2E
:1007C000070EF420DA6E19C5DEF41AC5DEF41BC577
:1007D000DEF41CC5DEF4400E8525D96EDA6A060EFD
:1007E000DA22CC0E8525E16EE26A050EE222DFC434
:1007F000E7F48551070DF350110F2BECECF019AC19
:1008000004EF84F007EF84F0010E08EF84F0000E8F
:100810000501726F8551040DF350080F14ECD2F0EE
:10082000050185517A6F7B6B7C6BDE0E7A25606FDC
:10083000030E7B21616F000E7C21626FCC0E85253B
:10084000D96EDA6A050EDA22DF50636F000E3DECD6
:10085000EAF0D3EF88F085517EECA3F00009D8B41C
:1008600034EF84F036EF84F0D3EF88F0300E0501DA
:100870008525D96EDA6A060EDA22010EDF6EF0ECFB
:10088000E6F005018551040D000EF324D96E070E24
:10089000F420DA6E19C5DEF41AC5DEF41BC5DEF4E9
:1008A0001CC5DEF4400E8525D96EDA6A060EDA2202
:1008B000CC0E8525E16EE26A050EE222DFC4E7F484
:1008C0008551070DF350110F2BECECF019BC6BEFB9
:1008D00084F06EEF84F0010E6FEF84F0000E0501DE
:1008E000726F8551040DF350080F14ECD2F005011E
:1008F00085517A6F7B6B7C6BDE0E7A25606F030E01
:100900007B21616F000E7C21626FCC0E8525D96E34
:10091000DA6A050EDA22DF50636F000E3DECEAF072
:10092000D3EF88F0300E05018525D96EDA6A060E00
:10093000DA22DF507A6F7B6B7B51000AD8B4A3EFC9
:1009400084F0D3EF88F07A51000AD8B44FEF88F0E2
:10095000010AD8B4D3EF88F0030AD8B43CEF83F08F
:10096000010AD8B429EF83F0D3EF88F08551070D41
:10097000F350130F2BECECF0CC0E05018525D96E4E
:10098000DA6A050EDA22DF507A6F7B6B19507A191A
:1009900007E11A507B19D8A4D0EF84F0D2EF84F08D
:1009A000E9EF84F08551070DF350110F2BECECF0BB
:1009B00019BCDDEF84F0E0EF84F0010EE1EF84F08C
:1009C000000E0501726F8551040DF350080F14ECF1
:1009D000D2F005018551070DF350140F2BECECF00C
:1009E000CC0E05018525D96EDA6A050EDA22DF50B4
:1009F0007A6F7B6B19507A1907E11A507B19D8A4CA
:100A000004EF85F006EF85F01DEF85F08551070DA9
:100A1000F350110F2BECECF019BC11EF85F014EF33
:100A200085F0010E15EF85F0000E0501726F8551FE
:100A3000040DF350090F14ECD2F005018551070D98
:100A4000F350150F2BECECF0CC0E05018525D96E7B
:100A5000DA6A050EDA22DF507A6F7B6B19507A1949
:100A600007E11A507B19D8A438EF85F03AEF85F0EA
:100A700051EF85F08551070DF350110F2BECECF081
:100A800019BC45EF85F048EF85F0010E49EF85F080
:100A9000000E0501726F8551040DF3500A0F14EC1E
:100AA000D2F005018551070DF350160F2BECECF039
:100AB000CC0E05018525D96EDA6A050EDA22DF50E3
:100AC0007A6F7B6B19507A1907E11A507B19D8A4F9
:100AD0006CEF85F06EEF85F085EF85F08551070DA1
:100AE000F350110F2BECECF019BC79EF85F07CEF93
:100AF00085F0010E7DEF85F0000E0501726F8551C6
:100B0000040DF3500B0F14ECD2F0300E05018525C7
:100B1000D96EDA6A060EDA22020EDF6E400E8525E5
:100B2000D96EDA6A060EDA22CC0E8525E16EE26A0B
:100B3000050EE222DE50E65CD8B0A1EF85F0A3EF0F
:100B400085F049EF86F0200E8525D96EDA6A060E0B
:100B5000DA22DF50D8B4AFEF85F0B1EF85F0FAEFCD
:100B600085F0CC0E8525D96EDA6A050EDA22DF50C3
:100B70007A6F7B6BCC0E8525D96EDA6A050EDA2288
:100B8000DF507C6F7D6B200E8525D96EDA6A060EEC
:100B9000DA22DF507E6F7E517C27000E7D237A5152
:100BA0007C5D7D51800A7F6F7B51800A7F59D8B070
:100BB000DCEF85F0DEEF85F0E8EF85F0CC0E8525E3
:100BC000D96EDA6A050EDA22FF0EDF6E24EF86F0A8
:100BD000200E8525D96EDA6A060EDA22DF507A6F8A
:100BE000CC0E8525D96EDA6A050EDA227A51DF2617
:100BF00024EF86F0840E8525D96EDA6A070EDA2294
:100C0000DF06840E8525D96EDA6A070EDA22DF50F8
:100C1000D8A40DEF86F00FEF86F024EF86F0CC0E0F
:100C20008525D96EDA6A050EDA22DF2A940E85252B
:100C3000D96EDA6A070EDA22840E8525E16EE26A41
:100C4000070EE222DFC4E7F4CC0E8525D96EDA6AFE
:100C5000050EDA22400E8525E16EE26A060EE222DA
:100C6000DE50E65CD8B037EF86F039EF86F0F5EF6E
:100C700086F0400E8525D96EDA6A060EDA22CC0E91
:100C80008525E16EE26A050EE222DFC4E7F4F5EFA6
:100C900086F0CC0E8525D96EDA6A050EDA22400E72
:100CA0008525E16EE26A060EE222DE50E65CD8B0EF
:100CB0005CEF86F05EEF86F0F5EF86F0200E85257E
:100CC000D96EDA6A060EDA22DF50D8B46AEF86F0FF
:100CD0006CEF86F0B4EF86F0CC0E8525D96EDA6A1B
:100CE000050EDA22DF507A6F7B6B200E8525D96ED8
:100CF000DA6A060EDA22DF507C6F7C517A5F000ED2
:100D00007B5BCC0E8525D96EDA6A050EDA22DF50C0
:100D10007D6F7E6B7A517D5D7E51800A7F6F7B5146
:100D2000800A7F59D8B097EF86F099EF86F0A2EF4E
:100D300086F0CC0E8525D96EDA6A050EDA22DF6AD6
:100D4000DEEF86F0200E8525D96EDA6A060EDA22ED
:100D5000DF507A6FCC0E8525D96EDA6A050EDA225D
:100D60007A51DF5EDEEF86F0840E8525D96EDA6A71
:100D7000070EDA22DF06840E8525D96EDA6A070EA1
:100D8000DA22DF50D8A4C7EF86F0C9EF86F0DEEF95
:100D900086F0CC0E8525D96EDA6A050EDA22DF06DA
:100DA000940E8525D96EDA6A070EDA22840E85251F
:100DB000E16EE26A070EE222DFC4E7F4400E852509
:100DC000D96EDA6A060EDA22CC0E8525E16EE26A69
:100DD000050EE222DE50E65CD8B0F1EF86F0F3EFCC
:100DE00086F0F5EF86F039EF86F0CC0E8525D96ECA
:100DF000DA6A050EDA22400E8525E16EE26A060EF9
:100E0000E222DE50E618D8A408EF87F00AEF87F058
:100E1000D3EF88F0300E8525D96EDA6A060EDA2215
:100E2000010EDF6EF0ECE6F005018551040D000EB9
:100E3000F324D96E070EF420DA6E19C5DEF41AC554
:100E4000DEF41BC5DEF41CC5DEF48551070DF3503E
:100E5000130F2BECECF0CC0E05018525D96EDA6A68
:100E6000050EDA22DF507A6F7B6B19507A1907E191
:100E70001A507B19D8A43FEF87F041EF87F058EF65
:100E800087F08551070DF350110F2BECECF019ACE6
:100E90004CEF87F04FEF87F0010E50EF87F0000E18
:100EA0000501726F8551040DF350080F14ECD2F058
:100EB00005018551070DF350140F2BECECF0CC0E0F
:100EC00005018525D96EDA6A050EDA22DF507A6FC0
:100ED0007B6B19507A1907E11A507B19D8A473EF6C
:100EE00087F075EF87F08CEF87F08551070DF35091
:100EF000110F2BECECF019AC80EF87F083EF87F04B
:100F0000010E84EF87F0000E0501726F8551040D0C
:100F1000F350090F14ECD2F005018551070DF35081
:100F2000150F2BECECF0CC0E05018525D96EDA6A95
:100F3000050EDA22DF507A6F7B6B19507A1907E1C0
:100F40001A507B19D8A4A7EF87F0A9EF87F0C0EF5C
:100F500087F08551070DF350110F2BECECF019AC15
:100F6000B4EF87F0B7EF87F0010EB8EF87F0000E0F
:100F70000501726F8551040DF3500A0F14ECD2F085
:100F800005018551070DF350160F2BECECF0CC0E3C
:100F900005018525D96EDA6A050EDA22DF507A6FEF
:100FA0007B6B19507A1907E11A507B19D8A4DBEF33
:100FB00087F0DDEF87F0F4EF87F08551070DF350F0
:100FC000110F2BECECF019ACE8EF87F0EBEF87F0AA
:100FD000010EECEF87F0000E0501726F8551040DD4
:100FE000F3500B0F14ECD2F0050185517A6F7B6B37
:100FF0007C6BDE0E7A25606F030E7B21616F000E25
:101000007C21626FCC0E8525D96EDA6A050EDA2254
:10101000DF50636F000E3DECEAF0D3EF88F0300E46
:1010200005018525D96EDA6A060EDA22DF507A6F5D
:101030007B6B7B51000AD8B420EF88F0D3EF88F0A7
:101040007A51000AD8B44FEF88F0010AD8B4D3EF30
:1010500088F0030AD8B48EEF85F0010AD8B4B6EF51
:1010600084F0D3EF88F08551070DF350100F2BEC6F
:10107000ECF01A50000AD8B440EF88F0D3EF88F0B3
:101080001950020AD8B405EF80F0010AD8B492EFE3
:1010900084F0070AD8B40FEF88F0D3EF88F0D3EFCD
:1010A00088F0ADEF88F08551070DF350110F2BEC50
:1010B000ECF019A25EEF88F060EF88F0F0EF88F0B6
:1010C00005018551040D000EF324D96E070EF4209E
:1010D000DA6EDEC47AF5DEC47BF5DEC47CF5DEC4F0
:1010E0007DF5F0ECE6F005017A51195C7E6F7B51DD
:1010F0001A587F6F7C511B58806F7D511C58816F2F
:10110000815180110BE1250E7E5DF40E7F59D8A030
:101110008CEF88F08EEF88F0D1EF88F0300E8525C7
:10112000D96EDA6A060EDA22DF6AF0EF88F08551AE
:10113000070DF350110F2BECECF019AAA2EF88F079
:10114000A5EF88F0010EA6EF88F0000E1D6E0501D8
:1011500085511AECC0F0F0EF88F0300E05018525BE
:10116000D96EDA6A060EDA22DF507A6F7B6B7B511A
:10117000000AD8B4BEEF88F0F0EF88F07A51000A88
:10118000D8B497EF88F0010AD8B453EF88F0030A77
:10119000D8B4F0EF88F0010AD8B4D1EF88F0F0EFBE
:1011A00088F0F0EF88F005018551070DF350100F1E
:1011B0002BECECF01A50000AD8B4E1EF88F0F0EF15
:1011C00088F01950020AD8B451EF88F0010AD8B457
:1011D000ADEF88F0070AD8B4ADEF88F0F0EF88F0F3
:1011E0000501852B0F0E8565F8EF88F0FAEF88F082
:1011F00033EF88F012003850D8A401EF89F003EFE4
:1012000089F05BEF8AF0C6EF89F0B9C5D9F4BAC5A9
:10121000DAF4030EDF600FEF89F011EF89F021EFB0
:1012200089F0E8C56EF5E7C56FF5420E0501706FF0
:10123000010E716F010E726FAF0E2FEC05F059EFBA
:1012400089F0050120EE02F0B951D926BA51DA220F
:10125000DF50E86F20EE03F0B951D926BA51DA22F7
:10126000DF50E76FFD0E606F030E616F000E626F5F
:10127000E8C563F5000E3DECEAF0FC0E0501606F79
:10128000030E616F000E626FE7C563F5000E3DEC63
:10129000EAF0010E386E91ECC6F0E8C52EF5E7C510
:1012A0002FF5520EBDECEFF00601D44BD52B3AECE6
:1012B000EDF0010E58EF8FF0A50E05016E6F610E77
:1012C0006F6F200E706FFF0E716F140E726F7F0EB6
:1012D000736F040E746FEF0E45EC05F059EF89F053
:1012E000480EF66E080EF76E000EF86E0800F5C494
:1012F0006EF5490EF66E080EF76E000EF86E0800D9
:10130000F5C46FF54A0EF66E080EF76E000EF86E15
:101310000800F5C470F54B0EF66E080EF76E000E61
:10132000F86E0800F5C471F54C0EF66E080EF76EF7
:10133000000EF86E0800F5C472F54D0EF66E080E3C
:10134000F76E000EF86E0800F5C473F54E0EF66EDB
:10135000080EF76E000EF86E0800F5C474F5E20E84
:1013600045EC05F059EF89F0000E05016E6F000E97
:101370006F6FA50E706F200E716FE7ECE3F0050143
:10138000726FB60E2FEC05F059EF89F0050120EED3
:1013900001F0B951D926BA51DA22DF500701E46FC2
:1013A000E56BE551000AD8B4D8EF89F0EBEF89F08E
:1013B000E4510D0AD8B4B4EF89F01D0AD8B45CEF3B
:1013C00089F0010AD8B470EF89F0530AD8B405EF58
:1013D00089F0EBEF89F0000E58EF8FF0E8C56EF55D
:1013E000E7C56FF5A50E0501706F200E716FE7EC74
:1013F000E3F00501726FB60E2FEC05F059EF89F09E
:10140000B9C5D9F4BAC5DAF4040EDF600AEF8AF080
:101410000CEF8AF01CEF8AF0E8C56EF5E7C56FF5B2
:10142000760E0501706F010E716F010E726FAF0EB7
:101430002FEC05F059EF89F0050120EE02F0B951CB
:10144000D926BA51DA22DF50D8A429EF8AF02BEF3F
:101450008AF078EF8AF020EE03F0B951D926BA511C
:10146000DA22DF50D8A437EF8AF039EF8AF078EF2C
:101470008AF020EE04F0B951D926BA51DA22DF50B1
:10148000BF6F0C0EBF19D8A448EF8AF04AEF8AF05C
:101490004DEF8AF0F68559EF89F00D0EBF19D8A4EB
:1014A00054EF8AF056EF8AF059EF8AF0F69559EF2B
:1014B00089F078EF8AF0050120EE01F0B951D926C4
:1014C000BA51DA22DF500701E46FE56BE551000AFB
:1014D000D8B46DEF8AF078EF8AF0E4510D0AD8B4F1
:1014E000EEEF89F07B0AD8B400EF8AF078EF8AF04B
:1014F000B9C5D9F4BAC5DAF4030EDF6082EF8AF019
:1015000084EF8AF086EF8AF0EBEF89F0050120EE98
:1015100002F0B951D926BA51DA22DE50E819D8B40E
:1015200094EF8AF096EF8AF098EF8AF0EBEF89F06B
:1015300020EE03F0B951D926BA51DA22E751DE186C
:10154000D8B4A5EF8AF0A7EF8AF02CEF8FF0EBEF7D
:1015500089F0B9C5D9F4BAC5DAF4040EDF60B3EF87
:101560008AF0B5EF8AF0C5EF8AF0E8C56EF5E7C5F9
:101570006FF5730E0501706F010E716F010E726FC2
:10158000AF0E2FEC05F059EF89F0050120EE04F0C5
:10159000B951D926BA51DA22140EDF64D2EF8AF09B
:1015A000D4EF8AF0EDEF8AF0E8C56EF5E7C56FF588
:1015B000090E706F6F0E03EC05F0E8C56EF5E7C518
:1015C0006FF5730E0501706F010E716F090E726F6A
:1015D000AF0E2FEC05F059EF89F020EE04F0B95171
:1015E000D926BA51DA22DF50C5ECC8F00501BB6F2D
:1015F000E8C56EF5E7C56FF520EE04F0B951D926C0
:10160000BA51DA22DF50706FBBC571F59B0E5BECEF
:1016100005F0050120EE04F0B951D926BA51DA22BD
:10162000DF50D8A416EF8BF018EF8BF059EF89F04C
:10163000010E10ECE3F01D6EEC0E1E6EDB0E1F6E45
:10164000010E206E070E0AECEAF059EF89F0E7C5AB
:10165000E3F5E8C5E4F510ECCFF00501E351E41142
:10166000D8B435EF8BF037EF8BF03EEF8BF0E4C55D
:101670002EF5E3C52FF5510EBDECEFF0FF00B9C517
:10168000D9F4BAC5DAF4050EDF6049EF8BF04BEF01
:101690008BF05BEF8BF0E8C56EF5E7C56FF5870E55
:1016A0000501706F010E716F010E726FAF0E2FEC9E
:1016B00005F059EF89F0050120EE04F0B951D92663
:1016C000BA51DA22DF50D8A468EF8BF06AEF8BF0C2
:1016D00077EF8BF0000E1D6EC80E1E6E9A0E1F6EF9
:1016E000010E206E040E0AECEAF059EF89F020EEAC
:1016F00004F0B951D926BA51DA22090EDF6483EF1A
:101700008BF085EF8BF094EF8BF0E8C56EF5E7C5B5
:101710006FF5870E706F010E716FFC0E726FAF0E5A
:101720002FEC05F059EF89F020EE04F0B951D926DD
:10173000BA51DA22DF500701E46FE56BD890E43745
:10174000E537FE0EE425E66FFF0EE521E76FD50EC7
:10175000E625F66EFE0EE721F76EF86A000EF82217
:101760000900F5C4E8F70900F5C4E9F7110EE82708
:10177000000EE923E8C7F6F4E9C7F7F4000EF86EA7
:101780000900F5500900F5100900F510D8A4CBEFB9
:101790008BF0CDEF8BF0E1EF8BF0E8C56EF5E7C590
:1017A0006FF5870E0501706F20EE04F0B951D92650
:1017B000BA51DA22DF50716F000E726FC70E2FEC34
:1017C00005F0050120EE05F0B951D926BA51DA220B
:1017D000DF50D8A4EEEF8BF0F0EF8BF003EF8CF03E
:1017E00020EE04F0B951D926BA51DA22DF501D6E2D
:1017F000C80E1E6E9A0E1F6E010E206E040E0AECAD
:10180000EAF059EF89F020EE04F0B951D926BA5127
:10181000DA22DF500701E46FE56BD890E437E53753
:10182000FE0EE425E66FFF0EE521E76FD50EE625F7
:10183000F66EFE0EE721F76EF86A000EF822090038
:10184000F5C4E8F70900F5C4E9F7110EE827000E22
:10185000E923E8C7F6F4E9C7F7F4000EF86E02D8FA
:1018600047EF8CF00500FA6E0900F550FD6E090097
:10187000F550FE6E0900F550FF6EFA50050120EE9E
:1018800005F0B951D926BA51DA22DF5012001FC52E
:10189000BDF520C5BEF50501BD51BE11D8A453EF5D
:1018A0008CF055EF8CF064EF8CF0E8C56EF5E7C571
:1018B0006FF5870E706F010E716FFD0E726FAF0EB8
:1018C0002FEC05F059EF89F0E8C56EF5E7C56FF527
:1018D00020EE04F0B951D926BA51DA22DF50706FE8
:1018E00020EE05F0B951D926BA51DA22DF50716FD6
:1018F00020EE01F0BD51D926BE51DA22DF50726FC1
:10190000BDC5D9F4BEC5DAF4DF50736FC70EEAEC7B
:10191000EFF059EF89F0B9C5D9F4BAC5DAF4040E7D
:10192000DF6095EF8CF097EF8CF0A7EF8CF0E8C5B7
:101930006EF5E7C56FF5780E0501706F010E716FDA
:10194000010E726FAF0E2FEC05F059EF89F0050113
:1019500020EE04F0B951D926BA51DA22DF50D8A4CA
:10196000B4EF8CF0B6EF8CF0D0EF8CF0E8C56EF5EC
:10197000E7C56FF5000E706F000E716F090E726F84
:10198000AC0E2FEC05F0010E1D6E8A0E1E6EC20EFF
:101990001F6E010E206E030E0AECEAF059EF89F07B
:1019A00020EE04F0B951D926BA51DA22090EDF64CB
:1019B000DCEF8CF0DEEF8CF0EDEF8CF0E8C56EF52F
:1019C000E7C56FF5780E706F010E716FFC0E726FC8
:1019D000AF0E2FEC05F059EF89F020EE04F0B9516D
:1019E000D926BA51DA22DF500701E46FE56BD890AF
:1019F000E437E537FE0EE425E66FFF0EE521E76FDD
:101A0000D50EE625F66EFE0EE721F76EF86A000E9B
:101A1000F8220900F5C4E8F70900F5C4E9F70E0E4D
:101A2000E827000EE923E8C7F6F4E9C7F7F4000E4B
:101A3000F86E0900F5500900F5100900F510D8A45A
:101A400024EF8DF026EF8DF06AEF8DF0E8C56EF58E
:101A5000E7C56FF5050120EE04F0B951D926BA515A
:101A6000DA22DF50706F20EE04F0B951D926BA5156
:101A7000DA22DF500701E46FE56BD890E437E537F1
:101A8000FE0EE425E66FFF0EE521E76FD50EE62595
:101A9000F66EFE0EE721F76EF86A000EF8220900D6
:101AA000F5C4E8F70900F5C4E9F7E8C7F6F4E9C7B3
:101AB000F7F4000EF86E0800F5C471F5000E05018C
:101AC000726F000E736F000E746FE70E45EC05F039
:101AD00059EF89F0E8C56EF5E7C56FF5050120EE11
:101AE00004F0B951D926BA51DA22DF50706F20EED6
:101AF00004F0B951D926BA51DA22DF500701E46F58
:101B0000E56BD890E437E537FE0EE425E66FFF0E6F
:101B1000E521E76FD50EE625F66EFE0EE721F76E9E
:101B2000F86A000EF8220900F5C4E8F70900F5C4C8
:101B3000E9F7E8C7F6F4E9C7F7F4000EF86E080015
:101B4000F5C471F5050120EE04F0B951D926BA515A
:101B5000DA22DF500701EA6FEB6BD890EA37EB37F8
:101B6000FE0EEA25EC6FFF0EEB21ED6FD50EEC2596
:101B7000F66EFE0EED21F76EF86A000EF8220900EF
:101B8000F5C4EEF70900F5C4EFF70E0EEE27000ED0
:101B9000EF23EEC7F6F4EFC7F7F4000EF86E02D8A5
:101BA000E0EF8DF00500FA6E0900F550FD6E0900BA
:101BB000F550FE6E0900F550FF6EFA50010E12004E
:101BC0000501726F20EE04F0B951D926BA51DA221C
:101BD000DF500701F06FF16BD890F037F137FE0E50
:101BE000F025F26FFF0EF121F36FD50EF225F66EA0
:101BF000FE0EF321F76EF86A000EF8220900F5C414
:101C0000F4F70900F5C4F5F70E0EF427000EF523DE
:101C1000F4C7F6F4F5C7F7F4000EF86E02D81FEF1C
:101C20008EF00500FA6E0900F550FD6E0900F550C2
:101C3000FE6E0900F550FF6EFA50020E120005010B
:101C4000736F20EE04F0B951D926BA51DA22DF5071
:101C50000701F66FF76BD890F637F737FE0EF625CB
:101C6000F86FFF0EF721F96FD50EF825F66EFE0E10
:101C7000F921F76EF86A000EF8220900F5C4FAF7A8
:101C80000900F5C4FBF70E0EFA27000EFB23FAC776
:101C9000F6F4FBC7F7F4000EF86E02D85EEF8EF094
:101CA0000500FA6E0900F550FD6E0900F550FE6E54
:101CB0000900F550FF6EFA50030E12000501746F13
:101CC000E70E45EC05F059EF89F0B9C5D9F4BAC56E
:101CD000DAF4040EDF606FEF8EF071EF8EF081EFBB
:101CE0008EF0E8C56EF5E7C56FF5760E0501706FED
:101CF000010E716F010E726FAF0E2FEC05F059EFF0
:101D000089F0050120EE04F0B951D926BA51DA2242
:101D1000DF50BF6FE7C5E3F5E8C5E4F53804D8A4A4
:101D200094EF8EF096EF8EF0F7EF8EF0BF51D8B4AF
:101D30009CEF8EF09EEF8EF0A6EF8EF0BF29D8A418
:101D4000A4EF8EF0A6EF8EF0F7EF8EF0BF51D8B46F
:101D5000ACEF8EF0AEEF8EF0B2EF8EF0510EBC6FA6
:101D6000B4EF8EF0500EBC6FE8C52EF5E7C52FF529
:101D7000BC51BDECEFF0E8C56EF5E7C56FF5760E2A
:101D80000501706F010E716F000E726FAF0E2FECB8
:101D900005F0000E0501E86FE8C5E7F5FD0E606F80
:101DA000030E616F000E626FE8C563F5000E3DEC37
:101DB000EAF0FC0E0501606F030E616F000E626FAA
:101DC000E7C563F5000E3DECEAF00501BF51D8B45C
:101DD000ECEF8EF0EEEF8EF0F1EF8EF03868F3EF6F
:101DE0008EF0000E386E010EF36F57EF89F00C0E77
:101DF000BF19D8A4FEEF8EF000EF8FF010EF8FF038
:101E0000F685E8C56EF5E7C56FF5760E706F010EC5
:101E1000716F000E726FAF0E2FEC05F059EF89F065
:101E20000D0EBF19D8A417EF8FF019EF8FF0EBEF5D
:101E300089F0F695E8C56EF5E7C56FF5760E706F1B
:101E4000010E716F000E726FAF0E2FEC05F059EF9F
:101E500089F0FF0059EF89F020EE01F0B951D92641
:101E6000BA51DA22DF500701E46FE56BE551000A51
:101E7000D8B43DEF8FF0EBEF89F0E4514F0AD8B4BE
:101E800027EF8BF0110AD8B429EF8FF02D0AD8B4C0
:101E9000A9EF8AF0050AD8B465EF8EF00E0AD8B41F
:101EA0008BEF8CF0FF0AD8B43FEF8BF0EBEF89F0AB
:101EB00012000501B26FF00E0501B225196E1A6A03
:101EC000FF0E1A22000E1C6E070E1B6E58ECDEF081
:101ED00019501A10D8A46FEF8FF071EF8FF08FEFB9
:101EE0008FF00501B251F00FB36FB3C523F5246A2B
:101EF000000E266E070E256EB6ECDAF023500501B3
:101F0000B36FAB51AC19D8B488EF8FF08AEF8FF074
:101F10008FEF8FF0ABC5A8F5B351B0ECDEF0050E36
:101F20000501B219D8A497EF8FF099EF8FF09CEFCD
:101F30008FF0AB51B4EC06F0060E0501B219D8A42F
:101F4000A4EF8FF0A6EF8FF00BEF91F0000EB36FC0
:101F5000E2EF90F0AB51D8B4B0EF8FF0B2EF8FF06A
:101F6000EFEF8FF0B3C5ADF5070EAD17010EAE6FF5
:101F7000000EAF6FAD2BC0EF8FF0D890AE37AF37FC
:101F8000AD2FBDEF8FF00501AE51AF11D8B4CBEF3F
:101F90008FF0CDEF8FF0EFEF8FF0B351040D020E05
:101FA000F326000EF422950EF324F66EFE0EF420B6
:101FB000F76EF86A000EF8220800F5C4ADF5010EC0
:101FC000AE6FAD2BE6EF8FF0D890AE37AD2FE4EFCC
:101FD0008FF00501AE510401011301EF91F0B351EF
:101FE000040D020EF326000EF422950EF324F66E75
:101FF000FE0EF420F76EF86A000EF8220800F5C411
:10200000ADF5010EAE6FAD2B08EF90F0D890AE3766
:10201000AD2F06EF90F00501AE51FF0A0401011744
:1020200001EF91F0AB51D8B418EF90F01AEF90F0A7
:1020300057EF90F0B3C5ADF5070EAD17010EAE6FBB
:10204000000EAF6FAD2B28EF90F0D890AE37AF37C2
:10205000AD2F25EF90F00501AE51AF11D8B433EF9D
:1020600090F035EF90F057EF90F0B351040D020E61
:10207000F326000EF422950EF324F66EFE0EF420E5
:10208000F76EF86A000EF8220800F5C4ADF5010EEF
:10209000AE6FAD2B4EEF90F0D890AE37AD2F4CEF2A
:1020A00090F00501AE510401091301EF91F0B35115
:1020B000040D020EF326000EF422950EF324F66EA4
:1020C000FE0EF420F76EF86A000EF8220800F5C440
:1020D000ADF5010EAE6FAD2B70EF90F0D890AE372E
:1020E000AD2F6EEF90F00501AE51FF0A0401091704
:1020F00001EF91F0AB51D8B480EF90F082EF90F007
:10210000BFEF90F0B3C5ADF5070EAD17010EAE6F82
:10211000000EAF6FAD2B90EF90F0D890AE37AF3789
:10212000AD2F8DEF90F00501AE51AF11D8B49BEFFC
:1021300090F09DEF90F0BFEF90F0B351040D020EC0
:10214000F326000EF422950EF324F66EFE0EF42014
:10215000F76EF86A000EF8220800F5C4ADF5010E1E
:10216000AE6FAD2BB6EF90F0D890AE37AD2FB4EF89
:1021700090F00501AE510401111301EF91F0B3513C
:10218000040D020EF326000EF422950EF324F66ED3
:10219000FE0EF420F76EF86A000EF8220800F5C46F
:1021A000ADF5010EAE6FAD2BD8EF90F0D890AE37F5
:1021B000AD2FD6EF90F00501AE51FF0A04011117C3
:1021C00001EF91F0B351040D010EF326000EF4223D
:1021D000950EF324F66EFE0EF420F76EF86A000EEC
:1021E000F8220800F550410AD8B4AAEF8FF0030A8C
:1021F000D8B412EF90F0010AD8B47AEF90F001EF62
:1022000091F00501B32B070EB36509EF91F00BEFC9
:1022100091F0E2EF90F0070EB219D8A412EF91F00E
:1022200014EF91F079EF92F0080EB36F50EF92F047
:10223000AB51D8B41EEF91F020EF91F05DEF91F02B
:10224000B3C5ADF5070EAD17010EAE6F000EAF6F43
:10225000AD2B2EEF91F0D890AE37AF37AD2F2BEFDF
:1022600091F00501AE51AF11D8B439EF91F03BEFC9
:1022700091F05DEF91F0B351040D020EF326000EC4
:10228000F422950EF324F66EFE0EF420F76EF86A33
:10229000000EF8220800F5C4ADF5010EAE6FAD2BAF
:1022A00054EF91F0D890AE37AD2F52EF91F0050179
:1022B000AE51040101136FEF92F0B351040D020E01
:1022C000F326000EF422950EF324F66EFE0EF42093
:1022D000F76EF86A000EF8220800F5C4ADF5010E9D
:1022E000AE6FAD2B76EF91F0D890AE37AD2F74EF87
:1022F00091F00501AE51FF0A040101176FEF92F052
:10230000AB51D8B486EF91F088EF91F0C5EF91F022
:10231000B3C5ADF5070EAD17010EAE6F000EAF6F72
:10232000AD2B96EF91F0D890AE37AF37AD2F93EF3E
:1023300091F00501AE51AF11D8B4A1EF91F0A3EF28
:1023400091F0C5EF91F0B351040D020EF326000E8B
:10235000F422950EF324F66EFE0EF420F76EF86A62
:10236000000EF8220800F5C4ADF5010EAE6FAD2BDE
:10237000BCEF91F0D890AE37AD2FBAEF91F00501D8
:10238000AE51040109136FEF92F0B351040D020E28
:10239000F326000EF422950EF324F66EFE0EF420C2
:1023A000F76EF86A000EF8220800F5C4ADF5010ECC
:1023B000AE6FAD2BDEEF91F0D890AE37AD2FDCEFE6
:1023C00091F00501AE51FF0A040109176FEF92F079
:1023D000AB51D8B4EEEF91F0F0EF91F02DEF92F019
:1023E000B3C5ADF5070EAD17010EAE6F000EAF6FA2
:1023F000AD2BFEEF91F0D890AE37AF37AD2FFBEF9E
:1024000091F00501AE51AF11D8B409EF92F00BEF86
:1024100092F02DEF92F0B351040D020EF326000E50
:10242000F422950EF324F66EFE0EF420F76EF86A91
:10243000000EF8220800F5C4ADF5010EAE6FAD2B0D
:1024400024EF92F0D890AE37AD2F22EF92F0050135
:10245000AE51040111136FEF92F0B351040D020E4F
:10246000F326000EF422950EF324F66EFE0EF420F1
:10247000F76EF86A000EF8220800F5C4ADF5010EFB
:10248000AE6FAD2B46EF92F0D890AE37AD2F44EF44
:1024900092F00501AE51FF0A040111176FEF92F09F
:1024A000B351040D010EF326000EF422950EF32411
:1024B000F66EFE0EF420F76EF86A000EF8220800A1
:1024C000F550410AD8B418EF91F0030AD8B480EF60
:1024D00091F0010AD8B4E8EF91F06FEF92F00501A6
:1024E000B32B0F0EB36577EF92F079EF92F050EFC8
:1024F00092F00F0EB2657FEF92F081EF92F0FEEF57
:1025000094F0F00EB225236E246AFF0E2422000EF2
:10251000266E070E256EB6ECDAF023500501B36F78
:10252000F00EB225196E1A6AFF0E1A22000E1C6EEA
:10253000070E1B6E58ECDEF0DDEF94F00501B25192
:10254000AD6FAE6BB351070D120EF326000EF422E1
:10255000AD51F31807E1AE51F418D8A4B2EF92F0E0
:10256000B4EF92F0FEEF94F0B3C5FDF5ABBFBBEF57
:1025700092F0BDEF92F0C3EF92F0000EB16F010E3A
:10258000B06FC7EF92F0000EB16F020EB06FB0C522
:10259000FCF5FEEF94F0FEEF94F00501B251AD6F43
:1025A000AE6BB351070D120EF326000EF422AD519F
:1025B000F31807E1AE51F418D8A4E1EF92F0E3EF7D
:1025C00092F0F0EF92F0020E1D6EB35185ECD7F051
:1025D000020E1D6E0501B3517BECD4F0FEEF94F0BA
:1025E000B251AD6FAE6BB351070D130EF326000E53
:1025F000F422AD51F31807E1AE51F418D8A403EF5B
:1026000093F005EF93F012EF93F0010E1D6EB351AE
:1026100085ECD7F0010E1D6E0501B3517BECD4F0B3
:10262000FEEF94F0B251AD6FAE6BB351070D110ECA
:10263000F326000EF422AD51F31807E1AE51F41861
:10264000D8A425EF93F027EF93F0FEEF94F0ABAF13
:102650002CEF93F02EEF93F0CBEF92F0ACBF33EF73
:1026600093F035EF93F0CBEF92F0B351070DF350A9
:10267000120F2BECECF019C523F51AC524F5000E4A
:10268000266E020E256EB6ECDAF023C5ADF524C534
:10269000AEF50501B351070DF350130F2BECECF021
:1026A00019C523F51AC524F5000E266E020E256EF7
:1026B000B6ECDAF023500501AD252B6EB351EBECEF
:1026C00005F0FEEF94F00501B251AD6FAE6BB35162
:1026D000070D130EF326000EF422AD51F31807E197
:1026E000AE51F418D8A477EF93F079EF93F086EF1A
:1026F00093F0020E1D6EB351EEECD7F0020E196E80
:102700000501B351FCECE8F0FEEF94F0B251AD6F6F
:10271000AE6BB351070D120EF326000EF422AD512D
:10272000F31807E1AE51F418D8A499EF93F09BEF9A
:1027300093F0A8EF93F0010E1D6EB351EEECD7F0BD
:10274000010E196E0501B351FCECE8F0FEEF94F0B8
:10275000B251AD6FAE6BB351070D110EF326000EE3
:10276000F422AD51F31807E1AE51F418D8A4BBEF31
:1027700093F0BDEF93F0FEEF94F0ABAFC2EF93F0A8
:10278000C4EF93F0CBEF92F0ACBFC9EF93F0CBEF77
:1027900093F0CBEF92F0B351070DF350120F2BECE7
:1027A000ECF019C523F51AC524F5000E266E020EAD
:1027B000256EB6ECDAF023C5ADF524C5AEF50501FE
:1027C000B351070DF350130F2BECECF019C523F5A3
:1027D0001AC524F5000E266E020E256EB6ECDAF050
:1027E00023500501AD25AF6FCC0EB325D96EDA6A43
:1027F000050EDA22AFC5DFF4FEEF94F00501B25109
:10280000AD6FAE6BB351070D130EF326000EF4221D
:10281000AD51F31807E1AE51F418D8A412EF94F0BB
:1028200014EF94F021EF94F0000E1D6EB35198EC6C
:10283000D0F0000E1D6E0501B3515BECDFF0FEEF32
:1028400094F0B251AD6FAE6BB351070D140EF32679
:10285000000EF422AD51F31807E1AE51F418D8A4DC
:1028600034EF94F036EF94F043EF94F0010E1D6EC8
:10287000B35198ECD0F0010E1D6E0501B3515BEC25
:10288000DFF0FEEF94F0B251AD6FAE6BB351070DB8
:10289000150EF326000EF422AD51F31807E1AE51E8
:1028A000F418D8A456EF94F058EF94F065EF94F034
:1028B000020E1D6EB35198ECD0F0020E1D6E050194
:1028C000B3515BECDFF0FEEF94F0B251AD6FAE6B45
:1028D000B351070D160EF326000EF422AD51F31876
:1028E00007E1AE51F418D8A478EF94F07AEF94F0A1
:1028F00087EF94F0030E1D6EB35198ECD0F0030EE9
:102900001D6E0501B3515BECDFF0FEEF94F0B251A8
:10291000AD6FAE6BB351070D110EF326000EF4220E
:10292000AD51F31807E1AE51F418D8A49AEF94F022
:102930009CEF94F0FEEF94F0ABAFA1EF94F0A3EF17
:1029400094F0CBEF92F0ACBFA8EF94F0AAEF94F024
:10295000CBEF92F0B351070DF350120F2BECECF0CC
:1029600019C523F51AC524F5000E266E020E256E34
:10297000B6ECDAF023C5ADF524C5AEF50501B351CB
:10298000070DF350130F2BECECF019C523F51AC506
:1029900024F5000E266E020E256EB6ECDAF02350FA
:1029A0000501AD25AF6FCC0EB325D96EDA6A050EE1
:1029B000DA22AFC5DFF4FEEF94F00501B351070D45
:1029C000F350100F2BECECF01A50000AD8B4EBEFD8
:1029D00094F0FEEF94F01950020AD8B4CDEF92F0C3
:1029E000010AD8B463EF93F0070AD8B4FEEF93F06E
:1029F000020AD8B49EEF92F0FEEF94F01200C6EFF8
:102A000098F0B9C577F5BAC578F5030E796F000E61
:102A10007A6F7BECE5F0E806D8A411EF95F013EFA0
:102A200095F016EF95F0010E0EEF99F0050120EEEE
:102A300002F0B951D926BA51DA22DE50E819D8A4E9
:102A400024EF95F026EF95F038EF95F020EE03F0A7
:102A5000B951D926BA51DA22E751DE18D8A433EF9A
:102A600095F035EF95F038EF95F0F68113EF95F08E
:102A7000F69113EF95F0B9C577F5BAC578F5040E60
:102A8000796F000E7A6F7BECE5F0E806D8A44BEF87
:102A900095F04DEF95F04FEF95F013EF95F00501A0
:102AA00020EE02F0B951D926BA51DA22DE50E819E7
:102AB000D8A45DEF95F05FEF95F090EF95F020EEE4
:102AC00003F0B951D926BA51DA22E751DE18D8A459
:102AD0006CEF95F06EEF95F090EF95F020EE04F02E
:102AE000B951D926BA51DA22080EDE18D8A47BEFE4
:102AF00095F07DEF95F07FEF95F035EF95F020EEB6
:102B000004F0B951D926BA51DA22090EDE18D8A438
:102B10008CEF95F08EEF95F091EF95F038EF95F002
:102B2000F691000E0EEF99F0B9C577F5BAC578F5B4
:102B3000070E796F010E7A6F7BECE5F0E806D8A4FA
:102B4000A4EF95F0A6EF95F0B2EF95F0E8C56EF51D
:102B5000E7C56FF5010E0501706F6F0E03EC05F010
:102B600013EF95F00501F6B1B8EF95F0BAEF95F0D7
:102B7000BCEF95F013EF95F020EE03F0B951D92694
:102B8000BA51DA22DF50BB6F20EE02F0B951D926DC
:102B9000BA51DA22DF50BC6FBB51AC6FBCC5ADF58A
:102BA00020EE05F0B951D926BA51DA22DF50BE6FB6
:102BB00020EE04F0B951D926BA51DA22DF50BF6FA6
:102BC000BE51AE6FBFC5AFF520EE06F0B951D926A4
:102BD000BA51DA22DF50B06F20EE07F0B951D92692
:102BE000BA51DA22DF50B16FD5ECD5F013EF95F082
:102BF000B9C577F5BAC578F5050E796F010E7A6F0C
:102C00007BECE5F0E806D8A408EF96F00AEF96F022
:102C10000CEF96F013EF95F00501F6B112EF96F078
:102C200014EF96F016EF96F013EF95F020EE03F008
:102C3000B951D926BA51DA22DF50BB6F20EE02F02B
:102C4000B951D926BA51DA22DF50BC6FBB51806F1F
:102C5000BCC581F520EE05F0B951D926BA51DA226A
:102C6000DF50BE6F20EE04F0B951D926BA51DA22F6
:102C7000DF50BF6FBE51826FBFC583F5B4ECE4F087
:102C800013EF95F0B9C577F5BAC578F5060E796FEB
:102C9000010E7A6F7BECE5F0E806D8A452EF96F0CF
:102CA00054EF96F056EF96F013EF95F00501F6B15C
:102CB0005CEF96F05EEF96F060EF96F013EF95F014
:102CC00020EE03F0B951D926BA51DA22DF50BB6F9A
:102CD00020EE02F0B951D926BA51DA22DF50BC6F8A
:102CE000BB51796FBCC57AF520EE05F0B951D926F4
:102CF000BA51DA22DF50BE6F20EE04F0B951D92666
:102D0000BA51DA22DF50BF6FBE517B6FBFC57CF571
:102D100020EE06F0B951D926BA51DA22DF507D6F84
:102D20000EECC8F013EF95F0B9C577F5BAC578F594
:102D3000030E796F000E7A6F7BECE5F0E806D8A4FD
:102D4000A4EF96F0A6EF96F0A8EF96F013EF95F0AB
:102D5000050120EE02F0B951D926BA51DA22DE502F
:102D6000E819D8A4B6EF96F0B8EF96F013EF95F007
:102D700020EE03F0B951D926BA51DA22E751DE1814
:102D8000D8B4C5EF96F0C7EF96F038EF95F013EF93
:102D900095F0B9C577F5BAC578F5030E796F010ED0
:102DA0007A6F7BECE5F0E806D8A4D9EF96F0DBEF7C
:102DB00096F0DDEF96F013EF95F0050120EE02F0AE
:102DC000B951D926BA51DA22DE50E819D8A4EBEF6E
:102DD00096F0EDEF96F013EF95F020EE03F0B95179
:102DE000D926BA51DA22E751DE18D8B4FAEF96F0B4
:102DF000FCEF96F0FEEF96F013EF95F0F6B103EFCF
:102E000097F005EF97F01EEF97F0E8C56EF5E7C570
:102E10006FF5020E706F6F0E03EC05F0E8C56EF5EE
:102E2000E7C56FF5550E0501706F040E716F020E48
:102E3000726FAF0E2FEC05F013EF95F0E6ECEEF0AD
:102E400091EF95F0B9C577F5BAC578F5030E796FAE
:102E5000000E7A6F7BECE5F0E806D8A432EF97F02D
:102E600034EF97F036EF97F013EF95F0050120EE71
:102E700002F0B951D926BA51DA22DE50E819D8A4A5
:102E800044EF97F046EF97F013EF95F020EE03F044
:102E9000B951D926BA51DA22E751DE18D8B453EF26
:102EA00097F055EF97F057EF97F013EF95F050EC40
:102EB00006F013EF95F0B9C577F5BAC578F5030EAE
:102EC000796F000E7A6F7BECE5F0E806D8A46BEF23
:102ED00097F06DEF97F06FEF97F013EF95F0050116
:102EE00020EE02F0B951D926BA51DA22DE50E819A3
:102EF000D8A47DEF97F07FEF97F013EF95F020EED9
:102F000003F0B951D926BA51DA22E751DE18D8B404
:102F10008CEF97F08EEF97F090EF97F013EF95F01E
:102F2000DBECE7F013EF95F0B9C577F5BAC578F5A6
:102F3000030E796F000E7A6F7BECE5F0E806D8A4FB
:102F4000A4EF97F0A6EF97F0A8EF97F013EF95F0A6
:102F5000050120EE02F0B951D926BA51DA22DE502D
:102F6000E819D8A4B6EF97F0B8EF97F013EF95F003
:102F700020EE03F0B951D926BA51DA22E751DE1812
:102F8000D8B4C5EF97F0C7EF97F0C9EF97F013EFFC
:102F900095F0CCECECF013EF95F0B9C577F5BAC528
:102FA00078F5040E796F000E7A6F7BECE5F0E80699
:102FB000D8A4DDEF97F0DFEF97F0E1EF97F013EF94
:102FC00095F0050120EE02F0B951D926BA51DA2266
:102FD000DE50E819D8A4EFEF97F0F1EF97F013EF78
:102FE00095F020EE03F0B951D926BA51DA22E75113
:102FF000DE18D8B4FEEF97F000EF98F002EF98F0EB
:1030000013EF95F020EE04F0B951D926BA51DA2227
:10301000DF50FBECE5F013EF95F0B9C577F5BAC5D5
:1030200078F5050E796F000E7A6F7BECE5F0E80617
:10303000D8A41DEF98F01FEF98F021EF98F013EF50
:1030400095F0050120EE02F0B951D926BA51DA22E5
:10305000DE50E819D8A42FEF98F031EF98F013EF75
:1030600095F020EE03F0B951D926BA51DA22E75192
:10307000DE18D8B43EEF98F040EF98F042EF98F0A9
:1030800013EF95F020EE05F0B951D926BA51DA22A6
:10309000DF502F6E20EE04F0B951D926BA51DA2252
:1030A000DF5084ECCEF013EF95F0B9C577F5BAC5D3
:1030B00078F5080E796F010E7A6F7BECE5F0E80683
:1030C000D8A465EF98F067EF98F069EF98F013EFE8
:1030D00095F0050120EE02F0B951D926BA51DA2255
:1030E000DE50E819D8A477EF98F079EF98F013EF55
:1030F00095F020EE03F0B951D926BA51DA22E75102
:10310000DE18D8B486EF98F088EF98F08AEF98F040
:1031100013EF95F020EE03F0B951D926BA51DA2217
:10312000DF50BB6F20EE02F0B951D926BA51DA2236
:10313000DF50BC6FBB51AC6FBCC5ADF520EE05F0E8
:10314000B951D926BA51DA22DF50BE6F20EE04F011
:10315000B951D926BA51DA22DF50BF6FBE51AE6FD6
:10316000BFC5AFF520EE07F0B951D926BA51DA2222
:10317000DF50B06F20EE08F0B951D926BA51DA22EB
:10318000DF50B16FD5ECD5F013EF95F0050120EECF
:1031900001F0B951D926BA51DA22DF50BB6FBC6BAE
:1031A000BC51000AD8B4D7EF98F091EF95F0BB511D
:1031B000530AD8B401EF95F0070AD8B494EF96F00B
:1031C000010AD8B4C9EF96F0030AD8B45BEF97F0C0
:1031D000010AD8B422EF97F00F0AD8B494EF97F011
:1031E0002A0AD8B4CDEF97F0040AD8B43BEF95F093
:1031F000E30AD8B4F8EF95F0090AD8B40DEF98F0C7
:103200002E0AD8B442EF96F0600AD8B494EF95F045
:10321000270AD8B455EF98F091EF95F01200050108
:103220006F6F0F0E05016F6518EF99F01AEF99F0A7
:103230001CEF99F0FBEF9BF06F51070DF350100F4F
:103240002BECECF0195005016E6F94EF99F06F5173
:10325000070DF350110F2BECECF019A432EF99F09D
:1032600034EF99F04DEF99F005016F51676F686B7E
:10327000696BDE0E67251F6E030E6821206E000E3F
:103280006921216E000E89ECE8F01F50256E0501C2
:103290006F51FFECDDF0BAEF9AF005016F51070DA9
:1032A000F350110F2BECECF019BA59EF99F05BEFDA
:1032B00099F062EF99F0000E05016C6F020E6B6FD2
:1032C00067EF99F0000E05016C6F010E6B6F6BC517
:1032D0006DF56DC525F56F51FFECDDF005016F5102
:1032E000676F686B696BDE0E6725606F030E682180
:1032F000616F000E6921626F6DC563F5000E3DECD4
:10330000EAF0BAEF9AF06F51070DF350110F2BEC62
:10331000ECF01950100B05016A6F6AC525F56F5165
:10332000FFECDDF0BAEF9AF06E51010AD8B427EF46
:1033300099F0030AD8B483EF99F0010AD8B483EF67
:1033400099F0BAEF9AF06E51D8B4A9EF99F0ABEFBB
:1033500099F0BDEF99F0050E6E19D8B4B2EF99F05F
:10336000B4EF99F0BDEF99F0060E6E19D8A4BBEF3B
:1033700099F0BDEF99F0DEEF99F06F51040D020E58
:10338000F326000EF422950EF324F66EFE0EF420C2
:10339000F76EF86A000EF8220800F5C467F5010E12
:1033A000686F672BD6EF99F0D8906837672FD4EF06
:1033B00099F005016851C612DAEF9AF06F51040DC9
:1033C000020EF326000EF422950EF324F66EFE0E86
:1033D000F420F76EF86A000EF8220800F5C467F5CD
:1033E000010E686F672BF7EF99F0D8906837672F59
:1033F000F5EF99F005016851FF0AC616DAEF9AF069
:103400006E51D8B406EF9AF008EF9AF01AEF9AF0DE
:10341000050E6E19D8B40FEF9AF011EF9AF01AEF6B
:103420009AF0060E6E19D8A418EF9AF01AEF9AF0D7
:103430003BEF9AF06F51040D020EF326000EF422BA
:10344000950EF324F66EFE0EF420F76EF86A000E69
:10345000F8220800F5C467F5010E686F672B33EF9B
:103460009AF0D8906837672F31EF9AF005016851CC
:10347000C712DAEF9AF06F51040D020EF326000E18
:10348000F422950EF324F66EFE0EF420F76EF86A21
:10349000000EF8220800F5C467F5010E686F672B6F
:1034A00054EF9AF0D8906837672F52EF9AF00501E1
:1034B0006851FF0AC716DAEF9AF06E51D8B463EF7D
:1034C0009AF065EF9AF077EF9AF0050E6E19D8B47E
:1034D0006CEF9AF06EEF9AF077EF9AF0060E6E1995
:1034E000D8A475EF9AF077EF9AF098EF9AF06F51B1
:1034F000040D020EF326000EF422950EF324F66E50
:10350000FE0EF420F76EF86A000EF8220800F5C4EB
:1035100067F5010E686F672B90EF9AF0D8906837C7
:10352000672F8EEF9AF005016851C812DAEF9AF012
:103530006F51040D020EF326000EF422950EF324B3
:10354000F66EFE0EF420F76EF86A000EF822080000
:10355000F5C467F5010E686F672BB1EF9AF0D8904C
:103560006837672FAFEF9AF005016851FF0AC81658
:10357000DAEF9AF005016F51040D010EF326000EEB
:10358000F422950EF324F66EFE0EF420F76EF86A20
:10359000000EF8220800F550410AD8B4A3EF99F0C4
:1035A000030AD8B400EF9AF0010AD8B45DEF9AF09C
:1035B000DAEF9AF0050E6E19D8B4E1EF9AF0E3EF66
:1035C0009AF054EF9BF0060E6E19D8A4EAEF9AF029
:1035D000ECEF9AF0DCEF9BF054EF9BF06F51040D91
:1035E000020EF326000EF422950EF324F66EFE0E64
:1035F000F420F76EF86A000EF8220800F5C467F5AB
:10360000010E686F672B07EF9BF0D8906837672F24
:1036100005EF9BF00501685104010013FBEF9BF0DF
:103620006F51040D020EF326000EF422950EF324C2
:10363000F66EFE0EF420F76EF86A000EF82208000F
:10364000F5C467F5010E686F672B29EF9BF0D890E2
:103650006837672F27EF9BF00501685104010813B5
:10366000FBEF9BF06F51040D020EF326000EF422C7
:10367000950EF324F66EFE0EF420F76EF86A000E37
:10368000F8220800F5C467F5010E686F672B4BEF51
:103690009BF0D8906837672F49EF9BF00501685180
:1036A00004011013FBEF9BF06F51040D010EF32684
:1036B000000EF422950EF324F66EFE0EF420F76E43
:1036C000F86A000EF8220800F550410AD8B4EEEF6F
:1036D0009AF0030AD8B410EF9BF0010AD8B432EF85
:1036E0009BF0FBEF9BF06F51040D020EF326000ED2
:1036F000F422950EF324F66EFE0EF420F76EF86AAF
:10370000000EF8220800F5C467F5010E686F672BFC
:103710008CEF9BF0D8906837672F8AEF9BF00501FC
:103720006851FF0A04010017FBEF9BF06F51040D75
:10373000020EF326000EF422950EF324F66EFE0E12
:10374000F420F76EF86A000EF8220800F5C467F559
:10375000010E686F672BAFEF9BF0D8906837672F2B
:10376000ADEF9BF005016851FF0A04010817FBEF5C
:103770009BF06F51040D020EF326000EF422950EFD
:10378000F324F66EFE0EF420F76EF86A000EF822AF
:103790000800F5C467F5010E686F672BD2EF9BF048
:1037A000D8906837672FD0EF9BF005016851FF0A6A
:1037B00004011017FBEF9BF06F51040D010EF3266F
:1037C000000EF422950EF324F66EFE0EF420F76E32
:1037D000F86A000EF8220800F550410AD8B473EFD9
:1037E0009BF0030AD8B496EF9BF0010AD8B4B9EF66
:1037F0009BF0FBEF9BF012000301F3A102EF9CF0A2
:1038000004EF9CF006EF9CF0B5EF9EF00501FB5134
:10381000070DF350100F2BECECF0050E19181A10D1
:10382000D8B415EF9CF017EF9CF028EF9CF0050141
:10383000FB51070DF350100F2BECECF0060E19188E
:103840001A10D8A426EF9CF028EF9CF05AEF9EF0B7
:103850000501FA51D8B42FEF9CF031EF9CF05AEFEC
:103860009EF0EBC385F5866B8551866F856B0301F2
:10387000EA5105018513FC51D8B441EF9CF043EFA8
:103880009CF04CEF9CF0FD51FB19D8B44AEF9CF032
:103890004CEF9CF023EF9EF0FB51070DF350100FFF
:1038A0002BECECF0060E19181A10D8A45AEF9CF065
:1038B0005CEF9CF052EF9DF00501FB51070DF350BA
:1038C000150F2BECECF019C583F51AC584F505012D
:1038D0008351846F836BFB51070DF350160F2BEC54
:1038E000ECF01950050183131A50841383C581F538
:1038F00084C582F5FB51070DF350130F2BECECF050
:1039000019500501835F1A50845BFB51070DF3507A
:10391000130F2BECECF01950050181271A5082236C
:10392000FB51070DF350140F2BECECF00501835104
:1039300019247F6F84511A20806FFB51070DF350BB
:10394000140F2BECECF019500501815D7D6F1A50BE
:1039500082597E6F600EFB25D96EDA6A060EDA2276
:10396000DF50030B020AD8B4B8EF9CF0BAEF9CF01A
:10397000F8EF9CF08151855D82518659D8A0C3EF44
:103980009CF0C5EF9CF0F8EF9CF0600EFB25D96E23
:10399000DA6A060EDA220601DFA4D1EF9CF0D3EF3B
:1039A0009CF0EBEF9CF00501FB51070DF350110F5C
:1039B0002BECECF019ACDFEF9CF0E2EF9CF0010E89
:1039C000E3EF9CF0000E0501726FFB51040DF35004
:1039D000090F14ECD2F0600E0501FB25D96EDA6AEE
:1039E000060EDA22DF50FC0B0209DF6E7BEF9DF042
:1039F000600EFB25D96EDA6A060EDA22DF50030B61
:103A0000020AD8A406EF9DF008EF9DF07BEF9DF031
:103A100085517D5D86517E59D8A011EF9DF013EF41
:103A20009DF07BEF9DF0600EFB25D96EDA6A060EE5
:103A3000DA220601DFA41FEF9DF021EF9DF047EF92
:103A40009DF00501FB51070DF350110F2BECECF02D
:103A500019B62DEF9DF02FEF9DF047EF9DF005017A
:103A6000FB51070DF350110F2BECECF019BC3BEFA1
:103A70009DF03EEF9DF0010E3FEF9DF0000E050121
:103A8000726FFB51040DF350090F14ECD2F0600E6D
:103A90000501FB25D96EDA6A060EDA22FC0EDF1666
:103AA0007BEF9DF085C57AF586C57BF5040E050193
:103AB0007C6FD8907B337A337C2F59EF9DF07AC599
:103AC00085F57BC586F5FB51070DF350130F2BECE5
:103AD000ECF019C583F51AC584F50501FB51070DF6
:103AE000F350140F2BECECF019500501835D7F6F40
:103AF0001A508459806F600EFB25D96EDA6A060E63
:103B0000DA22DF50030BE806D8B489EF9DF08BEF83
:103B10009DF0C9EF9DF08551835D86518459D8A0F1
:103B200094EF9DF096EF9DF0C9EF9DF0600EFB25A0
:103B3000D96EDA6A060EDA220601DFA4A2EF9DF042
:103B4000A4EF9DF0BCEF9DF00501FB51070DF35074
:103B5000110F2BECECF019ACB0EF9DF0B3EF9DF032
:103B6000010EB4EF9DF0000E0501726FFB51040DC4
:103B7000F350080F14ECD2F0600E0501FB25D96E4E
:103B8000DA6A060EDA22DF50FC0B0109DF6E52EF13
:103B90009EF0600EFB25D96EDA6A060EDA22DF503F
:103BA000030BE806D8A4D7EF9DF0D9EF9DF052EFB4
:103BB0009EF07F51855D80518659D8A0E2EF9DF03F
:103BC000E4EF9DF052EF9EF0600EFB25D96EDA6AAD
:103BD000060EDA220601DFA4F0EF9DF0F2EF9DF071
:103BE00018EF9EF00501FB51070DF350110F2BEC60
:103BF000ECF019B6FEEF9DF000EF9EF018EF9EF08E
:103C00000501FB51070DF350110F2BECECF019BC23
:103C10000CEF9EF00FEF9EF0010E10EF9EF0000EE5
:103C20000501726FFB51040DF350080F14ECD2F034
:103C3000600E0501FB25D96EDA6A060EDA22FC0E4B
:103C4000DF1652EF9EF0E8C56EF5E7C56FF5000E82
:103C5000706FFB29716FFB29726F85C573F58651F3
:103C6000746FFD0E45EC05F0020E0501FC19D8A499
:103C70003CEF9EF03EEF9EF04FEF9EF085C567F55E
:103C8000FB51070DF350150FBBECEDF0050186510C
:103C9000676FFB51070DF350160FBBECEDF0000EF4
:103CA0000501FC6F600EFB25D96EDA6A060EDA227A
:103CB0000601DF840501FB2B0F0EFB6562EF9EF012
:103CC00064EF9EF066EF9EF0000EFB6FFB51070D58
:103CD000F350100F2BECECF0050E19181A10D8B495
:103CE00074EF9EF076EF9EF087EF9EF00501FB519A
:103CF000070DF350100F2BECECF0060E19181A10EC
:103D0000D8A485EF9EF087EF9EF0B5EF9EF00501F9
:103D1000FB51040D020EF326000EF422950EF3243F
:103D2000F66EFE0EF420F76EF86A000EF822080018
:103D3000F5C47AF5FB51040D010EF326000EF422B2
:103D4000950EF324F66EFE0EF420F76EF86A000E60
:103D5000F8220800F550080DF350F80F7A1103010E
:103D6000EC6FF381010E0501FA6F1200B9C5D9F4A9
:103D7000BAC5DAF4050EDF60C0EF9EF0C2EF9EF028
:103D8000C5EF9EF0000E1AEFA1F0050120EE03F042
:103D9000B951D926BA51DA22DF50BB6F20EE02F0BA
:103DA000B951D926BA51DA22DF50BC6FBB51C16F6D
:103DB000BCC5C2F5EEEF9EF0000EC26F000EC16FE3
:103DC000140EBE6F010EBF6F41EF9FF0000EC26F69
:103DD000000EC16F000EBE6F41EF9FF020EE01F0AC
:103DE000B951D926BA51DA22DF50BB6FBC6BBC5136
:103DF000000AD8B4FEEF9EF0C2EF9EF0BB51900ACD
:103E0000D8B4E0EF9EF0010AD8B4EAEF9EF0090AB8
:103E1000D8B4DCEF9EF0010AD8B4E6EF9EF0290A90
:103E2000D8B4E0EF9EF0010AD8B4EAEF9EF0090A98
:103E3000D8B4DCEF9EF0010AD8B4E6EF9EF0690A30
:103E4000D8B4E0EF9EF0010AD8B4EAEF9EF0090A78
:103E5000D8B4DCEF9EF0010AD8B4E6EF9EF0290A50
:103E6000D8B4E0EF9EF0010AD8B4EAEF9EF0090A58
:103E7000D8B4DCEF9EF0010AD8B4E6EF9EF0C2EFB2
:103E80009EF0C1C56CF5C2C56DF520EE05F0B951C7
:103E9000D926BA51DA22DF50BB6F20EE04F0B951B7
:103EA000D926BA51DA22DF50BC6FBB516E6FBCC548
:103EB0006FF578ECDBF00501C36FC329D8A463EF7D
:103EC0009FF065EF9FF067EF9FF0C2EF9EF0C35148
:103ED0002DECCAF0050120EE01F0B951D926BA51F6
:103EE000DA22DF50C06FC0B178EF9FF07AEF9FF019
:103EF0002DEFA0F0010ECA6F400ECA25D96EDA6A06
:103F0000070EDA22DF50CB6FCB51D8B48AEF9FF087
:103F10008CEF9FF021EFA0F0CB517F0BC86F590EB3
:103F2000C86195EF9FF097EF9FF021EFA0F0070E8B
:103F3000C819D8A49EEF9FF0A0EF9FF0A2EF9FF0CA
:103F400016EFA1F0080EC861A8EF9FF0AAEF9FF04E
:103F5000AFEF9FF0CB51C6ECE2F021EFA0F0F80EEE
:103F6000C825236E246AFF0E2422000E266E050E3D
:103F7000256EB6ECDAF023500501C76FF80EC825A0
:103F8000196E1A6AFF0E1A22000E1C6E050E1B6EA9
:103F900058ECDEF019500501C96F01EFA0F00501E2
:103FA000C751070DF350110F2BECECF019AEDBEFFE
:103FB0009FF0DDEF9FF0DFEF9FF0CBEC06F0050107
:103FC000C951D8A4E6EF9FF0E8EF9FF0E9EF9FF02A
:103FD000CB2B040EC919D8A4F0EF9FF0F2EF9FF09D
:103FE000F4EF9FF0020ECB5FCB51C6ECE2F0C8ECD1
:103FF00006F021EFA0F00501CB51C6ECE2F021EF75
:10400000A0F0C751070DF350100F2BECECF01A5035
:10401000000AD8B40EEFA0F021EFA0F01950010A69
:10402000D8B4CFEF9FF0030AD8B4DFEF9FF0010AB6
:10403000D8B4DFEF9FF0070AD8B4FBEF9FF021EF71
:10404000A0F00501CA2B130ECA6529EFA0F02BEFD3
:10405000A0F07CEF9FF016EFA1F053C7C4F5130E4C
:10406000CA6F000EC56FC4C5CBF5010ECA653BEF24
:10407000A0F03DEFA0F04AEFA0F03F0ECA25D96EA8
:10408000DA6A070EDA22DF50C46FC451800BC66FA4
:104090004DEFA0F0C551800BC66FCB51D8B453EF94
:1040A000A0F055EFA0F00CEFA1F0C551D8A45BEF44
:1040B000A0F05DEFA0F05FEFA0F0CBC5C5F5CB9F02
:1040C000590ECB6166EFA0F068EFA0F00CEFA1F005
:1040D000070ECB19D8A46FEFA0F071EFA0F073EF2B
:1040E000A0F016EFA1F0080ECB6179EFA0F07BEF06
:1040F000A0F08AEFA0F0CB05D8B481EFA0F083EF59
:10410000A0F08AEFA0F0C651CB13CB51C6ECE2F081
:104110000CEFA1F0F80ECB25236E246AFF0E2422AB
:10412000000E266E050E256EB6ECDAF02350050162
:10413000C76FF80ECB25196E1A6AFF0E1A22000EF1
:104140001C6E050E1B6E58ECDEF019500501C96F90
:10415000ECEFA0F00501C751070DF350110F2BEC48
:10416000ECF019AEB6EFA0F0B8EFA0F0BAEFA0F007
:10417000CBEC06F0030E0501C919D8A4C2EFA0F0DC
:10418000C4EFA0F0C5EFA0F0CB070501C951D8A43A
:10419000CCEFA0F0CEEFA0F0D0EFA0F0020ECB2736
:1041A000040EC919D8A4D7EFA0F0D9EFA0F0DBEF27
:1041B000A0F0030ECB5FC651CB13CB51C6ECE2F09F
:1041C000C8EC06F00CEFA1F00501C651CB13CB51A2
:1041D000C6ECE2F0E0EFA0F0C751070DF350100F6E
:1041E0002BECECF01A50000AD8B4F9EFA0F00CEF69
:1041F000A1F01950010AD8B4AAEFA0F0030AD8B46C
:10420000C5EFA0F0010AD8B4C5EFA0F0070AD8B4F2
:10421000E4EFA0F00CEFA1F00501CA07CA51D8A441
:1042200014EFA1F016EFA1F031EFA0F00601FA4B68
:10423000FB2B010E12003804D8A421EFA1F023EFCC
:10424000A1F072EFA1F0F0ECE6F006018851195CE4
:104250000501736F060189511A580501746F060133
:104260008A511B580501756F06018B511C580501B9
:10427000766F76510DE1B50E735DC40E7459040E60
:104280007559D8A046EFA1F048EFA1F072EFA1F068
:10429000F6A54DEFA1F04FEFA1F05EEFA1F0E8C55C
:1042A0006EF5E7C56FF5F2C570F5CCC671F5000E79
:1042B000726FAB0E2FEC05F00501F22BF0ECE6F07F
:1042C00019C588F61AC589F61BC58AF61CC58BF672
:1042D0000601CC51D8B46FEFA1F071EFA1F072EFED
:1042E000A1F0CC070501F451F619D8B47AEFA1F08A
:1042F0007CEFA1F089EFA1F0F90E606F030E616F02
:10430000000E626FF6C563F5000E3DECEAF0F6C5EF
:10431000F4F50501F5513818D8B491EFA1F093EFF9
:10432000A1F0B0EFA1F03828D8B499EFA1F09BEF3D
:10433000A1F0A3EFA1F03804D8A4A1EFA1F0A3EF5E
:10434000A1F0AEEFA1F0FB0E606F030E616F000EE7
:10435000626F38C563F5000E3DECEAF038C5F5F53F
:10436000F0ECE6F006018451195C0501736F06015B
:1043700085511A580501746F060186511B580501B5
:10438000756F060187511C580501766F76517511BE
:104390000BE1250E735DF40E7459D8A0D2EFA1F095
:1043A000D4EFA1F06EEFA3F0F0ECE6F019C584F6BF
:1043B0001AC585F61BC586F61CC587F60601D04BC7
:1043C000D12BD051D111D8A4E8EFA1F0EAEFA1F0A0
:1043D0006EEFA3F0CE4BCF2B6EEFA3F0CEA4F3EF96
:1043E000A1F0F5EFA1F001EFA2F0F0ECE6F019C5B5
:1043F000DCF51AC5DDF51BC5DEF51CC5DFF57DEF67
:10440000A3F0F0ECE6F00501DC51195C736FDD51AF
:104410001A58746FDE511B58756FDF511C58766F38
:1044200076510DE1910E735DD00E7459030E7559DE
:10443000D8A01DEFA2F01FEFA2F07DEFA3F0FD0EBC
:10444000386EF3693AECEDF07DEFA3F0CEA42BEFDC
:10445000A2F02DEFA2F0F5EFA1F0000E386E0501ED
:10446000F369F0ECE6F019C5DCF51AC5DDF51BC5FE
:10447000DEF51CC5DFF5E8C52EF5E7C52FF5500EB6
:10448000BDECEFF03AECEDF0F5EFA1F0CEA44BEF80
:10449000A2F04DEFA2F0D1EFA2F0F0ECE6F00501B2
:1044A000DC51195C736FDD511A58746FDE511B5863
:1044B000756FDF511C58766F765175110BE16B0EDD
:1044C000735D180E7459D8A068EFA2F06AEFA2F0DD
:1044D000A2EFA2F0F0ECE6F00501DC51195C736F7D
:1044E000DD511A58746FDE511B58756FDF511C581F
:1044F000766F76510BE1480E735DE80E7459010E2C
:104500007559D8B086EFA2F088EFA2F0A2EFA2F022
:10451000F3C538F53804D8A490EFA2F092EFA2F0DA
:10452000A0EFA2F0E3C5E7F5E4C5E8F5E8C52EF590
:10453000E7C52FF5520EBDECEFF00601D44BD52B9D
:104540003AECEDF0F0ECE6F00501DC51195C736F2C
:10455000DD511A58746FDE511B58756FDF511C58AE
:10456000766F76510DE1910E735DD00E7459030E86
:104570007559D8A0BEEFA2F0C0EFA2F0C3EFA2F031
:1045800038683AECEDF0F0ECE6F019C5DCF51AC548
:10459000DDF51BC5DEF51CC5DFF5000E376E7DEFC2
:1045A000A3F0010E376E7DEFA3F0CEA4DAEFA2F0F8
:1045B000DCEFA2F0D1EFA2F03750D8B4E2EFA2F0D6
:1045C000E4EFA2F034EFA3F0F0ECE6F00501DC51EB
:1045D000195C736FDD511A58746FDE511B58756F7B
:1045E000DF511C58766F765175110BE16B0E735DC0
:1045F000180E7459D8A0FFEFA2F001EFA3F034EF2A
:10460000A3F0F0ECE6F00501DC51195C736FDD51AD
:104610001A58746FDE511B58756FDF511C58766F36
:1046200076510BE1480E735DE80E7459010E755911
:10463000D8B01DEFA3F01FEFA3F034EFA3F0E7C550
:10464000E3F5E8C5E4F5000EE86FE8C5E7F5000E10
:10465000386E010EF36FE4C52EF5E3C52FF5500E4D
:10466000BDECEFF03AECEDF03750D8B43AEFA3F0F0
:104670003CEFA3F0C3EFA2F0F0ECE6F00501DC5153
:10468000195C736FDD511A58746FDE511B58756FCA
:10469000DF511C58766F76510DE1900E735DD00E90
:1046A0007459030E7559D8A058EFA3F05AEFA3F030
:1046B000C3EFA2F0E7C5E3F5E8C5E4F5000EE86F47
:1046C000E8C5E7F53868010EF36FE4C52EF5E3C5DC
:1046D0002FF5510EBDECEFF0C1EFA2F03850000AFB
:1046E000D8B446EFA2F0FD0AD8B426EFA2F0020A31
:1046F000D8B4EEEFA1F0D5EFA2F012002E6ECC0EE2
:104700002E24D96EDA6A050EDA22DF500501606FB9
:10471000616B400E2E24D96EDA6A060EDA22DF5063
:10472000626F636B030E6227000E63236051625D4C
:104730006351800A646F6151800A6459D8A0A3EF65
:10474000A3F0A5EFA3F0FAEFA3F0400E2E24D96E4C
:10475000DA6A060EDA22DF50606FFD0E6025616FA7
:10476000626BFF0E6223CC0E2E24D96EDA6A050E20
:10477000DA22DF50636F646B6151635D6451800ABC
:10478000656F6251800A6559D8A0C9EFA3F0CBEFDD
:10479000A3F0FAEFA3F02E50020D000EF324D96E11
:1047A000060EF420DA6E010EDBBEE3EFA3F0010E7D
:1047B000DB5007E1040EDE5CD8B0E1EFA3F0E3EFDD
:1047C000A3F0FAEFA3F02E50020D000EF324D96EE1
:1047D000060EF420DA6E010EDBAEF8EFA3F0FD0E4C
:1047E000DE5CFF0EDE58D8B0F8EFA3F0FAEFA3F0CE
:1047F000DDEFA5F02E50070DF350120F2BECECF06F
:1048000019C560F51AC561F52E50070DF350130F49
:104810002BECECF019500501605DD8A012EFA4F06C
:1048200015EFA4F0010E16EFA4F0000E2B6E2B5026
:10483000D8A41DEFA4F01FEFA4F0FFEFA4F02E50BA
:10484000020D000EF324D96E060EF420DA6EDEC4DB
:1048500023F5DDC424F5000E266E1E0E256EB6EC83
:10486000DAF023C560F524C561F52E50070DF3502D
:10487000130F2BECECF0195005016025626F000E50
:104880006121636FCC0E2E24D96EDA6A050EDA220E
:10489000DF50646F656B6251645D6551800A666FBD
:1048A0006351800A6659D8B058EFA4F05AEFA4F0CB
:1048B000D5EFA4F02E50070DF350140F2BECECF0B5
:1048C00019C51DF51AC51EF52E50020D000EF32454
:1048D000D96E060EF420DA6EDEC460F5DDC461F533
:1048E0000501601F611F604B612B60C51FF561C52D
:1048F00020F5C4EC05F01DC523F51EC524F5000EFA
:10490000266E640E256EB6ECDAF02E50020D000E07
:10491000F324D96E060EF420DA6E23C5DEF424C526
:10492000DDF42E50070DF350130F2BECECF0195063
:104930000501606F616B2E50070DF350130F2BECC8
:10494000ECF0195005016027000E6123CC0E2E24D7
:10495000D96EDA6A050EDA22DF50626F6251605F4B
:10496000000E615B2E50020D000EF324D96E060E70
:10497000F420DA6EDEC423F5DDC424F5000E266EC5
:104980001E0E256EB6ECDAF023500501605D2C6E2C
:10499000245061592D6ECC0E2E24D96EDA6A050E84
:1049A000DA222CC5DFF4DAEFA5F02E50020D000E4E
:1049B000F324D96E060EF420DA6E030EDE26000E06
:1049C000DD222E50020D000EF324D96E060EF420C7
:1049D000DA6EDEC423F5DDC424F5000E266E1E0E4D
:1049E000256EB6ECDAF0010E2326CC0E2E24D96EFD
:1049F000DA6A050EDA222350DF5EDAEFA5F0CC0E7C
:104A00002E24D96EDA6A050EDA22DF50606F616BF0
:104A10002E50070DF350130F2BECECF019C562F577
:104A20001AC563F52E50020D000EF324D96E060E42
:104A3000F420DA6EDEC423F5DDC424F5000E266E04
:104A40001E0E256EB6ECDAF023500501625D646F30
:104A50002450D8A02428656B655F6051645D655162
:104A6000800A666F6151800A6659D8B03AEFA5F0A6
:104A70003CEFA5F0B2EFA5F02E50070DF350140F48
:104A80002BECECF019C51DF51AC51EF52E50020DC4
:104A9000000EF324D96E060EF420DA6EDEC460F543
:104AA000DDC461F50501601F611F604B612B60C5AE
:104AB0001FF561C520F5C4EC05F01DC523F51EC525
:104AC00024F5000E266E640E256EB6ECDAF02E503C
:104AD000020D000EF324D96E060EF420DA6E23C503
:104AE000DEF424C5DDF42E50070DF350130F2BEC2C
:104AF000ECF019500501606F616B2E50070DF350FB
:104B0000130F2BECECF0195005016027000E612308
:104B10002E50020D000EF324D96E060EF420DA6E2C
:104B2000DEC423F5DDC424F5000E266E1E0E256EB0
:104B3000B6ECDAF0235005016025626F2450612144
:104B4000636FCC0E2E24D96EDA6A050EDA22DF509E
:104B5000646F6451625D2C6E6351D8A063052D6E45
:104B6000CBEFA4F02E50020D000EF324D96E060EEA
:104B7000F420DA6E030EDE26000EDD222E50020D2A
:104B8000000EF324D96E060EF420DA6EDEC423F58F
:104B9000DDC424F5000E266E1E0E256EB6ECDAF08E
:104BA000010E2326CC0E2E24D96EDA6A050EDA22E7
:104BB0002350DF26000EDEEFA5F0010E12002D6E51
:104BC000F80E2D24236E246AFF0E2422000E266E7A
:104BD000040E256EB6ECDAF02350436E0F0E4364DC
