:040800000EEF04F003
:040808007CEF42F04F
:100818003BEF42F0AEEF55F0A56120FF147F040BCB
:100828000F010008000000000000010400000000A3
:08083800140048080000480309
:100848004D494F2020202000000E0101D76FF0EF06
:100858000AF00101D751070DF350120FECEC5DF0CF
:1008680000018D51976F986B000E9A6F020E996F69
:10087800B6EC52F097C0CCF198C0CDF10101D75138
:10088800070DF350130FECEC5DF000018D51976FDD
:10089800986B000E9A6F020E996FB6EC52F0000139
:1008A80097510101CC25D66F000ED56F39D2D7519B
:1008B800070DF350120FECEC5DF00101D751A90FB1
:1008C800D96EDA6ADF50CC6FCD6B00018D51010112
:1008D800CC1918E100018E510101CD19D8A412D00C
:1008E800D751070DF350110FECEC5DF000018D515D
:1008F800400BA76F0101D751040DF350080FD5EC39
:100908004AF011D0D751070DF350110FECEC5DF000
:1009180000018D51400BA76F0101D751040DF35011
:100928000A0FD5EC4AF0100E0101D725D96EDA6A04
:10093800010EDA22020EDF6E200ED725D96EDA6A92
:10094800010EDA22D751A90FE16EE26ADE50E65CA9
:10095800D8B0AAD0D751A90FD96EDA6AD651DE5CC1
:10096800D8B002D0010ED56F000ED725D96EDA6A3D
:10097800010EDA22DF50D8B43AD0D751A90FD96E78
:10098800DA6ADF50CC6FCD6BD751A90FD96EDA6A0E
:10099800DF50CE6FCF6B000ED725D96EDA6A010E05
:1009A800DA22DF50D06FD051CE27000ECF23CC51A2
:1009B800CE5DCF51800AD16FCD51800AD159D8B0C0
:1009C80007D0D751A90FD96EDA6AFF0EDF6E32D081
:1009D800000ED725D96EDA6A010EDA22DF50CC6F05
:1009E800D751A90FD96EDA6ACC51DF2623D0640E0D
:1009F800D725D96EDA6A020EDA22DF06640ED72509
:100A0800D96EDA6A020EDA22DF50D8A413D0D75191
:100A1800A90FD96EDA6ADF2A740ED725D96EDA6A79
:100A2800020EDA22640ED725E16EE26A020EE22295
:100A3800DFCFE7FFD751A90FD96EDA6A200ED72585
:100A4800E16EE26A010EE222DE50E65CD8B00CD01C
:100A5800200ED725D96EDA6A010EDA22D751A90FEE
:100A6800E16EE26ADFCFE7FFD751A90FD96EDA6AE4
:100A7800D651DE5CD8A0CBD0D551D8B4C8D0D75188
:100A8800070DF350110FECEC5DF000018DBD02D0A5
:100A9800010E01D0000EA76F0101D751040DF350CC
:100AA800090FD5EC4AF0B3D0D751A90FD96EDA6A3D
:100AB800200ED725E16EE26A010EE222DE50E65CE6
:100AC800D8B0A5D0D751A90FD96EDA6ADE50D65D55
:100AD800D8B002D0010ED56F000ED725D96EDA6ACC
:100AE800010EDA22DF50D8B439D0D751A90FD96E08
:100AF800DA6ADF50CC6FCD6B000ED725D96EDA6A73
:100B0800010EDA22DF50CE6FCE51CC5F000ECD5BE6
:100B1800D751A90FD96EDA6ADF50CF6FD06BCC519D
:100B2800CF5DD051800AD16FCD51800AD159D8B04C
:100B380006D0D751A90FD96EDA6ADF6A32D0000E13
:100B4800D725D96EDA6A010EDA22DF50CC6FD75179
:100B5800A90FD96EDA6ACC51DF5E23D0640ED7258F
:100B6800D96EDA6A020EDA22DF06640ED725D96E4C
:100B7800DA6A020EDA22DF50D8A413D0D751A90FAF
:100B8800D96EDA6ADF06740ED725D96EDA6A020ED4
:100B9800DA22640ED725E16EE26A020EE222DFCF86
:100BA800E7FF200ED725D96EDA6A010EDA22D7516F
:100BB800A90FE16EE26ADE50E65CD8B00CD0200ED8
:100BC800D725D96EDA6A010EDA22D751A90FE16E5C
:100BD800E26ADFCFE7FFD751A90FD96EDA6ADE5094
:100BE800D65DD8A014D0D551D8B411D0D751070D9F
:100BF800F350110FECEC5DF000018D51400BA76F25
:100C08000101D751040DF350090FD5EC4AF0010149
:100C1800D751A90FD96EDA6A200ED725E16EE26A9C
:100C2800010EE222DE50E618D8A449EF0BF0100EB0
:100C3800D725D96EDA6A010EDA22010EDF6E7EEC54
:100C48005AF00101D751040D880EF324D96E030E12
:100C5800F420DA6E00018DC0DEFF8EC0DEFF8FC08B
:100C6800DEFF90C0DEFF0101D751070DF350120FD0
:100C7800ECEC5DF00101D751A90FD96EDA6ADF50AB
:100C8800CC6FCD6B00018D510101CC191BE1000126
:100C98008E510101CD19D8A415D0D751070DF350A5
:100CA800110FECEC5DF000018DBD02D0010E01D0FA
:100CB800000EA76F0101D751040DF350080FD5ECB2
:100CC8004AF014D0D751070DF350110FECEC5DF03A
:100CD80000018DBD02D0010E01D0000EA76F0101E9
:100CE800D751040DF3500A0FD5EC4AF0DE0E01017E
:100CF800D725CC6FCD6B030ECD23CCC1A4F0CDC1CD
:100D0800A5F00001A66B0101D751A90FD96EDA6AC7
:100D1800DF500001A76F000EFAEC5BF049EF0BF013
:100D2800100ED725D96EDA6A010EDA22DF50CC6FA1
:100D3800CD6BCD51000AD8A449EF0BF0CC51000A75
:100D4800D8B449EF0BF0010AD8B449EF0BF0030A05
:100D5800D8B4F2D5010AD8B4AAD549EF0BF0D751C7
:100D680048EC60F0100E0101D725D96EDA6A010E41
:100D7800DA22020EDF6E540ED725D96EDA6A020E19
:100D8800DA22DF6A540ED725D96EDA6A020EDA2221
:100D9800DF2A540ED725D96EDA6A020EDA22DE2847
:100DA800D8A457D0100ED725D96EDA6A010EDA22E8
:100DB800010EDF6E7EEC5AF00101D751040D880E4A
:100DC800F324D96E030EF420DA6E00018DC0DEFF25
:100DD8008EC0DEFF8FC0DEFF90C0DEFF200E010157
:100DE800D725D96EDA6A010EDA22D751A90FE16E3A
:100DF800E26ADFCFE7FFD751070DF350110FECEC94
:100E08005DF000018DBD02D0010E01D0000EA76F6C
:100E18000101D751040DF350080FD5EC4AF0DE0E4E
:100E28000101D725CC6FCD6B030ECD23CCC1A4F027
:100E3800CDC1A5F00001A66B0101D751A90FD96E4C
:100E4800DA6ADF500001A76F000EFAEC5BF049EF99
:100E58000BF0D751070DF350120FECEC5DF00001C9
:100E68008D510101D46F200ED725D96EDA6A010E93
:100E7800DA22D451DE18D8A45ED0D7512CEC2DF04C
:100E88000009D8B449EF0BF0100E0101D725D96E2F
:100E9800DA6A010EDA22010EDF6E7EEC5AF00101E9
:100EA800D751040D880EF324D96E030EF420DA6EA0
:100EB80000018DC0DEFF8EC0DEFF8FC0DEFF90C058
:100EC800DEFF200E0101D725D96EDA6A010EDA227B
:100ED800D751A90FE16EE26ADFCFE7FFD751070DBF
:100EE800F350110FECEC5DF000018DBD02D0010E46
:100EF80001D0000EA76F0101D751040DF350080F60
:100F0800D5EC4AF0DE0E0101D725CC6FCD6B030E70
:100F1800CD23CCC1A4F0CDC1A5F00001A66B010181
:100F2800D751A90FD96EDA6ADF500001A76F000EFA
:100F3800FAEC5BF0AAD3D75156EC14F00009D8B4F8
:100F4800A4D3100E0101D725D96EDA6A010EDA2270
:100F5800010EDF6E7EEC5AF00101D751040D880EA8
:100F6800F324D96E030EF420DA6E00018DC0DEFF83
:100F78008EC0DEFF8FC0DEFF90C0DEFF200E0101B5
:100F8800D725D96EDA6A010EDA22D751A90FE16E98
:100F9800E26ADFCFE7FFD751070DF350110FECECF2
:100FA8005DF000018D51400BA76F0101D751040D71
:100FB800F350080FD5EC4AF0DE0E0101D725CC6FAF
:100FC800CD6B030ECD23CCC1A4F0CDC1A5F000019B
:100FD800A66B0101D751A90FD96EDA6ADF5000015B
:100FE800A76F000EFAEC5BF050D3100E0101D72565
:100FF800D96EDA6A010EDA22DF50CC6FCD6BCD5193
:10100800000AD8A442D3CC51000AD8B43ED3010A6E
:10101800D8B43BD3030AD8B4B5D6010AD8B49FD6FE
:1010280034D3D751070DF350130FECEC5DF00101E9
:10103800D751A90FD96EDA6ADF50CC6FCD6B00019A
:101048008D510101CC1917E100018E510101CD1913
:10105800D8A411D0D751070DF350110FECEC5DF067
:1010680000018D51400BA76F0101D751040DF350BA
:10107800080FD5EC4AF00101D751070DF350140FB2
:10108800ECEC5DF00101D751A90FD96EDA6ADF5097
:10109800CC6FCD6B00018D510101CC1917E1000116
:1010A8008E510101CD19D8A411D0D751070DF35095
:1010B800110FECEC5DF000018D51400BA76F0101A1
:1010C800D751040DF350090FD5EC4AF00101D7515F
:1010D800070DF350150FECEC5DF00101D751A90F86
:1010E800D96EDA6ADF50CC6FCD6B00018D510101EA
:1010F800CC1917E100018E510101CD19D8A411D0E6
:10110800D751070DF350110FECEC5DF000018D5134
:10111800400BA76F0101D751040DF3500A0FD5EC0E
:101128004AF00101D751070DF350160FECEC5DF0B2
:101138000101D751A90FD96EDA6ADF50CC6FCD6B98
:1011480000018D510101CC1917E100018E510101F7
:10115800CD19D8A411D0D751070DF350110FECECCD
:101168005DF000018D51400BA76F0101D751040DAF
:10117800F3500B0FD5EC4AF0100E0101D725D96EAC
:10118800DA6A010EDA22020EDF6E200ED725D96E3A
:10119800DA6A010EDA22D751A90FE16EE26ADE504F
:1011A800E65CD8B081D0000ED725D96EDA6A010E78
:1011B800DA22DF50D8B43AD0D751A90FD96EDA6AFB
:1011C800DF50CC6FCD6BD751A90FD96EDA6ADF50DB
:1011D800CE6FCF6B000ED725D96EDA6A010EDA22F0
:1011E800DF50D06FD051CE27000ECF23CC51CE5D2B
:1011F800CF51800AD16FCD51800AD159D8B007D0CC
:10120800D751A90FD96EDA6AFF0EDF6E32D0000E01
:10121800D725D96EDA6A010EDA22DF50CC6FD751A2
:10122800A90FD96EDA6ACC51DF2623D0640ED725F0
:10123800D96EDA6A020EDA22DF06640ED725D96E75
:10124800DA6A020EDA22DF50D8A413D0D751A90FD8
:10125800D96EDA6ADF2A740ED725D96EDA6A020ED9
:10126800DA22640ED725E16EE26A020EE222DFCFAF
:10127800E7FFD751A90FD96EDA6A200ED725E16E9C
:10128800E26A010EE222DE50E65CD8B08ED0200E73
:10129800D725D96EDA6A010EDA22D751A90FE16E85
:1012A800E26ADFCFE7FF81D0D751A90FD96EDA6A9A
:1012B800200ED725E16EE26A010EE222DE50E65CDE
:1012C800D8B073D0000ED725D96EDA6A010EDA22AB
:1012D800DF50D8B439D0D751A90FD96EDA6ADF50A8
:1012E800CC6FCD6B000ED725D96EDA6A010EDA22E3
:1012F800DF50CE6FCE51CC5F000ECD5BD751A90F1A
:10130800D96EDA6ADF50CF6FD06BCC51CF5DD05138
:10131800800AD16FCD51800AD159D8B006D0D751A3
:10132800A90FD96EDA6ADF6A32D0000ED725D96ED6
:10133800DA6A010EDA22DF50CC6FD751A90FD96EC5
:10134800DA6ACC51DF5E23D0640ED725D96EDA6A0B
:10135800020EDA22DF06640ED725D96EDA6A020E8B
:10136800DA22DF50D8A413D0D751A90FD96EDA6A80
:10137800DF06740ED725D96EDA6A020EDA22640EF9
:10138800D725E16EE26A020EE222DFCFE7FF200EE8
:10139800D725D96EDA6A010EDA22D751A90FE16E84
:1013A800E26ADE50E65CD8A072D7D751A90FD96E91
:1013B800DA6A200ED725E16EE26A010EE222DE50DB
:1013C800E618D8A462D1100ED725D96EDA6A010EB4
:1013D800DA22010EDF6E7EEC5AF00101D751040DBE
:1013E800880EF324D96E030EF420DA6E00018DC046
:1013F800DEFF8EC0DEFF8FC0DEFF90C0DEFF010182
:10140800D751070DF350130FECEC5DF00101D751E4
:10141800A90FD96EDA6ADF50CC6FCD6B00018D5100
:101428000101CC191AE100018E510101CD19D8A48E
:1014380014D0D751070DF350110FECEC5DF00001FB
:101448008DBD02D0010E01D0000EA76F0101D7514A
:10145800040DF350080FD5EC4AF00101D751070DE0
:10146800F350140FECEC5DF00101D751A90FD96EC0
:10147800DA6ADF50CC6FCD6B00018D510101CC19B8
:101488001AE100018E510101CD19D8A414D0D75109
:10149800070DF350110FECEC5DF000018DBD02D08B
:1014A800010E01D0000EA76F0101D751040DF350B2
:1014B800090FD5EC4AF00101D751070DF350150F6C
:1014C800ECEC5DF00101D751A90FD96EDA6ADF5053
:1014D800CC6FCD6B00018D510101CC191AE10001CF
:1014E8008E510101CD19D8A414D0D751070DF3504E
:1014F800110FECEC5DF000018DBD02D0010E01D0A2
:10150800000EA76F0101D751040DF3500A0FD5EC57
:101518004AF00101D751070DF350160FECEC5DF0BE
:101528000101D751A90FD96EDA6ADF50CC6FCD6BA4
:1015380000018D510101CC191AE100018E51010100
:10154800CD19D8A414D0D751070DF350110FECECD6
:101558005DF000018DBD02D0010E01D0000EA76F15
:101568000101D751040DF3500B0FD5EC4AF0DE0EF4
:101578000101D725CC6FCD6B030ECD23CCC1A4F0D0
:10158800CDC1A5F00001A66B0101D751A90FD96EF5
:10159800DA6ADF500001A76F000EFAEC5BF075D035
:1015A800100E0101D725D96EDA6A010EDA22DF5052
:1015B800CC6FCD6BCD51000AD8A467D0CC51000AAE
:1015C800D8B463D0010AD8B460D0030AD8B4DDD542
:1015D800010AD8B426D559D0D751070DF350100FAA
:1015E800ECEC5DF000018E51000AD8A44ED08D516C
:1015F800020AD8B42DEF04F0010AD8B4F6D4070AC9
:10160800D8B4CED742D0D751070DF350110FECEC18
:101618005DF000018DA351D00101D751040D880E52
:10162800F324D96E030EF420DA6EDECFCCF1DECFD0
:10163800CDF1DECFCEF1DECFCFF17EEC5AF0010155
:10164800CC5100018D5D0101D06FCD5100018E5943
:101658000101D16FCE5100018F590101D26FCF51D5
:10166800000190590101D36FD351D21106E1250E23
:10167800D05DF40ED159D8A020D0100ED725D96E40
:10168800DA6A010EDA22DF6A18D0100E0101D725B6
:10169800D96EDA6A010EDA22DF50CC6FCD6BCD51EC
:1016A800000AD8A40AD0CC51000AD8B406D0010A3E
:1016B800D8B4A9D7030AD8A4010A0101D72B0F0E61
:1016C800D7658AD712000001C851D8B4BCD027D139
:1016D800F9C1D9FFFAC1DAFF030EDF600FD0C0C02D
:1016E800C2F1BFC0C3F1420E0101C46F010EC56F44
:1016F800010EC66FAF0E7BEC5FF03CD0010120EE0F
:1017080002F0F951D926FA51DA22DF500001C06FF0
:10171800010120EE03F0F951D926FA51DA22DF50FF
:101728000001BF6FFC0EA46F030EA56F000EA66F1D
:10173800C0C0A7F0000EFAEC5BF0FD0E0001A46F2C
:10174800030EA56F000EA66FBFC0A7F0000EFAEC3F
:101758005BF0010E0001C86F93EC3EF0C0C0A6F02C
:10176800BFC0A7F0520E4BEC5FF00101974B982BCE
:10177800EAEC5EF0010E1200A50E0101C26F610EC7
:10178800C36F200EC46FFF0EC56F140EC66F7F0E99
:10179800C76F040EC86FEF0E63EC5FF0EBD7480E0F
:1017A800F66E080EF76E000EF86E0800F5CFC2F15F
:1017B800490EF66E080EF76E000EF86E0800F5CFAB
:1017C800C3F14A0EF66E080EF76E000EF86E0800AA
:1017D800F5CFC4F14B0EF66E080EF76E000EF86EDC
:1017E8000800F5CFC5F14C0EF66E080EF76E000E28
:1017F800F86E0800F5CFC6F14D0EF66E080EF76EBE
:10180800000EF86E0800F5CFC7F14E0EF66E080E02
:10181800F76E000EF86E0800F5CFC8F1E20E63EC23
:101828005FF0A8D7000E0101C26F000EC36FA50EAE
:10183800C46F200EC56F52EC5AF00101C66FB60E88
:101848007BEC5FF097D7010120EE01F0F951D92622
:10185800FA51DA22DF500201CC6FCD6BCD51000A6C
:10186800D8A40DD0CC510D0AD8B4DCD71D0AD8B4F1
:1018780083D7010AD8B493D7530AD8B429D7000E0E
:101888001200C0C0C2F1BFC0C3F1A50E0101C46FF0
:10189800200EC56F52EC5AF00101C66FB60E7BECF4
:1018A8005FF068D7F9C1D9FFFAC1DAFF040EDF602B
:1018B8000FD0C0C0C2F1BFC0C3F1760E0101C46F22
:1018C800010EC56F010EC66FAF0E7BEC5FF052D7ED
:1018D800010120EE02F0F951D926FA51DA22DF503F
:1018E800D8A433D020EE03F0F951D926FA51DA22E0
:1018F800DF50D8A42AD020EE04F0F951D926FA51A5
:10190800DA22DF50FE6F0C0EFE19D8A402D06685CD
:1019180031D70D0EFE19D8A418D066952BD7010122
:1019280020EE01F0F951D926FA51DA22DF500201EE
:10193800CC6FCD6BCD51000AD8A407D0CC510D0A7D
:10194800D8B49FD77B0AD8B4ADD7F9C1D9FFFAC1AB
:10195800DAFF030EDF6001D092D7010120EE02F01A
:10196800F951D926FA51DA22DE500001C019D8A45B
:1019780086D7010120EE03F0F951D926FA51DA226F
:101988000001BF51DE18D8A47AD7DFEF10F0F9C1F3
:10199800D9FFFAC1DAFF040EDF600FD0C0C0C2F170
:1019A800BFC0C3F1730E0101C46F010EC56F010EF4
:1019B800C66FAF0E7BEC5FF0DDD6010120EE04F0C0
:1019C800F951D926FA51DA22140EDF6419D0C0C0B1
:1019D800A6F0BFC0A7F0090E0001A86F6F0ED9ECE2
:1019E8005FF0C0C0C2F1BFC0C3F1730E0101C46F84
:1019F800010EC56F090EC66FAF0E7BEC5FF0BAD64D
:101A080020EE04F0F951D926FA51DA22DF5096EC8B
:101A180043F00101FB6FC0C0C2F1BFC0C3F120EEAB
:101A280004F0F951D926FA51DA22DF50C46FFBC10C
:101A3800C5F19B0E93EC5FF0010120EE04F0F95123
:101A4800D926FA51DA22DF50D8A494D6010E59ECDF
:101A580056F00001916F3A0E926FC00E936F070E09
:101A6800AEEC5DF087D6BFC060F1C0C061F1B1ECEB
:101A780042F0010160516111D8B407D061C1A6F0EC
:101A880060C1A7F0510E4BEC5FF0FF00F9C1D9FF20
:101A9800FAC1DAFF050EDF600FD0C0C0C2F1BFC0C7
:101AA800C3F1870E0101C46F010EC56F010EC66F29
:101AB800AF0E7BEC5FF05ED6010120EE04F0F95129
:101AC800D926FA51DA22DF50D8A40BD0000E000133
:101AD800916F700E926F810E936F040EAEEC5DF0F5
:101AE80049D620EE04F0F951D926FA51DA22090E26
:101AF800DF640ED0C0C0C2F1BFC0C3F1870EC46F8F
:101B0800010EC56FFC0EC66FAF0E7BEC5FF032D6D0
:101B180020EE04F0F951D926FA51DA22DF500201F9
:101B2800CC6FCD6BD890CC37CD37FE0ECC25CE6F91
:101B3800FF0ECD21CF6F750ECE25F66EEE0ECF219E
:101B4800F76EF86A000EF8220900F5CFD0F2090006
:101B5800F5CFD1F2100ED027000ED123D0C2F6FF58
:101B6800D1C2F7FFF86A0900F5500900F510D8A4AA
:101B780014D0C0C0C2F1BFC0C3F1870E0101C46F49
:101B880020EE04F0F951D926FA51DA22DF50C56F58
:101B9800000EC66FC70E7BEC5FF0010120EE05F06A
:101BA800F951D926FA51DA22DF50D8A411D020EE03
:101BB80004F0F951D926FA51DA22DF500001916F69
:101BC800700E926F810E936F040EAEEC5DF0D2D55D
:101BD80020EE04F0F951D926FA51DA22DF50020139
:101BE800CC6FCD6BD890CC37CD37FE0ECC25CE6FD1
:101BF800FF0ECD21CF6F750ECE25F66EEE0ECF21DE
:101C0800F76EF86A000EF8220900F5CFD0F2090045
:101C1800F5CFD1F2100ED027000ED123D0C2F6FF97
:101C2800D1C2F7FFF86A0900F5CFD2F20900F5CF63
:101C3800D3F201D811D00500FA6ED251FD6ED351FE
:101C4800FE6EFF6AFA50010120EE05F0F951D9261F
:101C5800FA51DA22DF50120096C0FCF197C0FDF16C
:101C68000101FC51FD11D8A40ED0C0C0C2F1BFC003
:101C7800C3F1870EC46F010EC56FFD0EC66FAF0EA0
:101C88007BEC5FF077D5C0C0C2F1BFC0C3F120EED6
:101C980004F0F951D926FA51DA22DF50C46F20EE48
:101CA80005F0F951D926FA51DA22DF50C56F20EE36
:101CB80001F0FC51D926FD51DA22DF50C66FFCC174
:101CC800D9FFFDC1DAFFDF50C76FC70E33EC5FF0F5
:101CD80051D5F9C1D9FFFAC1DAFF040EDF600FD080
:101CE800C0C0C2F1BFC0C3F1780E0101C46F010EBC
:101CF800C56F010EC66FAF0E7BEC5FF03BD50101DF
:101D080020EE04F0F951D926FA51DA22DF50D8A48E
:101D180018D0C0C0C2F1BFC0C3F1000EC46F000E1E
:101D2800C56F090EC66FAC0E7BEC5FF0010E0001AB
:101D3800916F3A0E926FA30E936F030EAEEC5DF0A7
:101D480019D520EE04F0F951D926FA51DA22090EF4
:101D5800DF640ED0C0C0C2F1BFC0C3F1780EC46F3B
:101D6800010EC56FFC0EC66FAF0E7BEC5FF002D59F
:101D780020EE04F0F951D926FA51DA22DF50020197
:101D8800CC6FCD6BD890CC37CD37FE0ECC25CE6F2F
:101D9800FF0ECD21CF6F750ECE25F66EEE0ECF213C
:101DA800F76EF86A000EF8220900F5CFD0F20900A4
:101DB800F5CFD1F20E0ED027000ED123D0C2F6FFF8
:101DC800D1C2F7FFF86A0900F5500900F510D8A448
:101DD80042D0C0C0C2F1BFC0C3F1010120EE04F07F
:101DE800F951D926FA51DA22DF50C46F20EE04F0F7
:101DF800F951D926FA51DA22DF500201CC6FCD6BA6
:101E0800D890CC37CD37FE0ECC25CE6FFF0ECD2126
:101E1800CF6F750ECE25F66EEE0ECF21F76EF86AEF
:101E2800000EF8220900F5CFD0F20900F5CFD1F263
:101E3800D0C2F6FFD1C2F7FFF86A0800F5CFC5F1A6
:101E4800000E0101C66F000EC76F000EC86FE70EC7
:101E580063EC5FF08FD4C0C0C2F1BFC0C3F1010111
:101E680020EE04F0F951D926FA51DA22DF50C46F76
:101E780020EE04F0F951D926FA51DA22DF50020196
:101E8800CC6FCD6BD890CC37CD37FE0ECC25CE6F2E
:101E9800FF0ECD21CF6F750ECE25F66EEE0ECF213B
:101EA800F76EF86A000EF8220900F5CFD0F20900A3
:101EB800F5CFD1F2D0C2F6FFD1C2F7FFF86A080019
:101EC800F5CFC5F1010120EE04F0F951D926FA51F8
:101ED800DA22DF500201D26FD36BD890D237D337D2
:101EE800FE0ED225D46FFF0ED321D56F750ED425E3
:101EF800F66EEE0ED521F76EF86A000EF82209008C
:101F0800F5CFD6F20900F5CFD7F20E0ED627000E80
:101F1800D723D6C2F6FFD7C2F7FFF86A0900F5CF74
:101F2800D8F20900F5CFD9F201D80AD00500FA6E27
:101F3800D851FD6ED951FE6EFF6AFA50010E12009B
:101F48000101C66F20EE04F0F951D926FA51DA22C0
:101F5800DF500201DA6FDB6BD890DA37DB37FE0E21
:101F6800DA25DC6FFF0EDB21DD6F750EDC25F66EE2
:101F7800EE0EDD21F76EF86A000EF8220900F5CFA3
:101F8800DEF20900F5CFDFF20E0EDE27000EDF23AA
:101F9800DEC2F6FFDFC2F7FFF86A0900F5CFE0F20C
:101FA8000900F5CFE1F201D80AD00500FA6EE05138
:101FB800FD6EE151FE6EFF6AFA50020E1200010139
:101FC800C76F20EE04F0F951D926FA51DA22DF5012
:101FD8000201E26FE36BD890E237E337FE0EE225A9
:101FE800E46FFF0EE321E56F750EE425F66EEE0E45
:101FF800E521F76EF86A000EF8220900F5CFE6F23F
:102008000900F5CFE7F20E0EE627000EE723E6C239
:10201800F6FFE7C2F7FFF86A0900F5CFE8F2090012
:10202800F5CFE9F201D80AD00500FA6EE851FD6E45
:10203800E951FE6EFF6AFA50030E12000101C86FE3
:10204800E70E63EC5FF0BEEF0BF0F9C1D9FFFAC100
:10205800DAFF040EDF6010D0C0C0C2F1BFC0C3F108
:10206800760E0101C46F010EC56F010EC66FAF0E6B
:102078007BEC5FF0BEEF0BF0010120EE04F0F951AC
:10208800D926FA51DA22DF50FE6FBFC060F1C0C016
:1020980061F15BD00101FE51D8A460D0000E0001AF
:1020A800C86F0101656961C1C2F160C1C3F1760EF3
:1020B800C46F010EC56F000EC66FAF0E7BEC5FF0EC
:1020C800C0C0A6F0BFC0A7F0500E4BEC5FF0BCEF4D
:1020D8000BF00101FE51D8A441D0C0C0C2F1BFC06D
:1020E800C3F1760EC46F010EC56F000EC66FAF0E3A
:1020F8007BEC5FF0C0C0A6F0BFC0A7F0500E4BEC61
:102108005FF0000E0001C06FC0C0BFF0FC0EA46FEE
:10211800030EA56F000EA66FC0C0A7F0000EFAEC64
:102128005BF0FD0E0001A46F030EA56F000EA66FF5
:10213800BFC0A7F0000EFAEC5BF0000E0001C86FFC
:10214800010E0101656FBCEF0BF00001C851000AD8
:10215800D8B404D0FF0AD8B49DD7BBD70C0E010160
:10216800FE19D8A410D06685C0C0C2F1BFC0C3F1A3
:10217800760EC46F010EC56F000EC66FAF0E7BECF6
:102188005FF0BEEF0BF00D0EFE19D8A443EF0CF074
:102198006695C0C0C2F1BFC0C3F1760EC46F010E10
:1021A800C56F000EC66FAF0E7BEC5FF0BEEF0BF095
:1021B800FF00BEEF0BF0010120EE01F0F951D92626
:1021C800FA51DA22DF500201CC6FCD6BCD51000AF3
:1021D800D8A443EF0CF0CC514F0AD8B444D4110A18
:1021E800D8B4E6D72D0AD8B4CBEF0CF0050AD8B48A
:1021F8002CD70E0AD8B46DD5FF0AD8B447D443EF0C
:102208000CF018D3F9C1CBF1FAC1CCF1030E0101DE
:10221800CD6F000ECE6F0AEC59F0E806D8A402D0B4
:10222800010E1200010120EE02F0F951D926FA51EF
:10223800DA22DE500001C019D8A40FD0010120EE27
:1022480003F0F951D926FA51DA220001BF51DE18FC
:10225800D8A403D001016681E3D701016691E0D7D4
:10226800F9C1CBF1FAC1CCF1040E0101CD6F000E1A
:10227800CE6F0AEC59F0E806D8B4D2D7010120EEA7
:1022880002F0F951D926FA51DA22DE500001C019BC
:10229800D8A422D0010120EE03F0F951D926FA5131
:1022A800DA220001BF51DE18D8A416D0010120EEB1
:1022B80004F0F951D926FA51DA22080EDE18D8B4FA
:1022C800C9D720EE04F0F951D926FA51DA22090EBD
:1022D800DE18D8B4C2D702D001016691000E1200F0
:1022E800F9C1CBF1FAC1CCF1070E0101CD6F010E96
:1022F800CE6F0AEC59F0E806D8A40BD0C0C0A6F0FF
:10230800BFC0A7F0010E0001A86F6F0ED9EC5FF0F7
:1023180087D7010166A184D720EE03F0F951D926A9
:10232800FA51DA22DF500201CC6F010120EE02F0EF
:10233800F951D926FA51DA22DF500201CD6FCC517A
:102348000101EE6FCDC2EFF120EE05F0F951D9266B
:10235800FA51DA22DF500201CF6F010120EE04F0BA
:10236800F951D926FA51DA22DF500201D06FCF5144
:102378000101F06FD0C2F1F120EE06F0F951D92633
:10238800FA51DA22DF50F26F20EE07F0F951D92620
:10239800FA51DA22DF50F36F94EC48F041D7F9C1D3
:1023A800CBF1FAC1CCF1050E0101CD6F010ECE6F54
:1023B8000AEC59F0E806D8B433D7010166A130D742
:1023C80020EE03F0F951D926FA51DA22DF50020142
:1023D800CC6F010120EE02F0F951D926FA51DA2228
:1023E800DF500201CD6FCC510101CE6FCDC2CFF1CC
:1023F80020EE05F0F951D926FA51DA22DF50020110
:10240800CF6F010120EE04F0F951D926FA51DA22F2
:10241800DF500201D06FCF510101D06FD0C2D1F18E
:10242800F8EC54F0FDD6F9C1CBF1FAC1CCF1060EA7
:102438000101CD6F010ECE6F0AEC59F0E806D8B451
:10244800EFD6010166A1ECD620EE03F0F951D926AA
:10245800FA51DA22DF500201CC6F010120EE02F0BE
:10246800F951D926FA51DA22DF500201CD6FCC5149
:102478000101C86FCDC2C9F120EE05F0F951D92686
:10248800FA51DA22DF500201CF6F010120EE04F089
:10249800F951D926FA51DA22DF500201D06FCF5113
:1024A8000101CA6FD0C2CBF120EE06F0F951D9264E
:1024B800FA51DA22DF50CC6F5FEC3DF0B1D6F9C1AA
:1024C800CBF1FAC1CCF1030E0101CD6F000ECE6F36
:1024D8000AEC59F0E806D8B4A3D6010120EE02F0C0
:1024E800F951D926FA51DA22DE500001C019D8A4D0
:1024F80097D6010120EE03F0F951D926FA51DA22D4
:102508000001BF51DE18D8A48BD6A7D6F9C1CBF1EC
:10251800FAC1CCF1030E0101CD6F010ECE6F0AECAA
:1025280059F0E806D8B47CD6010120EE02F0F95142
:10253800D926FA51DA22DE500001C019D8A470D683
:10254800010120EE03F0F951D926FA51DA220001EF
:10255800BF51DE18D8A464D6010166B119D0C0C035
:10256800A6F0BFC0A7F0020E0001A86F6F0ED9EC4D
:102578005FF0C0C0C2F1BFC0C3F1550E0101C46F06
:10258800040EC56F020EC66FAF0E7BEC5FF048D627
:102598001BEC5FF0A3D6F9C1CBF1FAC1CCF1030E65
:1025A8000101CD6F000ECE6F0AEC59F0E806D8B4E1
:1025B80037D6010120EE02F0F951D926FA51DA2274
:1025C800DE500001C019D8A42BD6010120EE03F07B
:1025D800F951D926FA51DA220001BF51DE18D8A4E0
:1025E8001FD6EAEC61F01CD6F9C1CBF1FAC1CCF1E7
:1025F800030E0101CD6F000ECE6F0AEC59F0E8060C
:10260800D8B40ED6010120EE02F0F951D926FA51BC
:10261800DA22DE500001C019D8A402D6010120EE4A
:1026280003F0F951D926FA51DA220001BF51DE1818
:10263800D8A4F6D5A8EC57F0F3D5F9C1CBF1FAC177
:10264800CCF1030E0101CD6F000ECE6F0AEC59F0EC
:10265800E806D8B4E5D5010120EE02F0F951D926F3
:10266800FA51DA22DE500001C019D8A4D9D50101E7
:1026780020EE03F0F951D926FA51DA220001BF51B0
:10268800DE18D8A4CDD580EC5EF0CAD5F9C1CBF15F
:10269800FAC1CCF1040E0101CD6F000ECE6F0AEC29
:1026A80059F0E806D8B4BCD5010120EE02F0F95182
:1026B800D926FA51DA22DE500001C019D8A4B0D5C3
:1026C800010120EE03F0F951D926FA51DA2200016E
:1026D800BF51DE18D8A4A4D5010120EE04F0F951A9
:1026E800D926FA51DA22DF5004EC57F099D5F9C10E
:1026F800CBF1FAC1CCF1050E0101CD6F000ECE6F02
:102708000AEC59F0E806D8B48BD5010120EE02F0A6
:10271800F951D926FA51DA22DE500001C019D8A49D
:102728007FD5010120EE03F0F951D926FA51DA22BA
:102738000001BF51DE18D8A473D5010120EE05F0C1
:10274800F951D926FA51DA22DF50C76F20EE04F08A
:10275800F951D926FA51DA22DF50BAEC49F060D59E
:10276800F9C1CBF1FAC1CCF1080E0101CD6F010E10
:10277800CE6F0AEC59F0E806D8B452D5010120EE24
:1027880002F0F951D926FA51DA22DE500001C019B7
:10279800D8A446D5010120EE03F0F951D926FA5103
:1027A800DA220001BF51DE18D8A43AD5010120EE83
:1027B80003F0F951D926FA51DA22DF500201CC6F21
:1027C800010120EE02F0F951D926FA51DA22DF5040
:1027D8000201CD6FCC510101EE6FCDC2EFF120EEB9
:1027E80005F0F951D926FA51DA22DF500201CF6FEC
:1027F800010120EE04F0F951D926FA51DA22DF500E
:102808000201D06FCF510101F06FD0C2F1F120EE7B
:1028180007F0F951D926FA51DA22DF50F26F20EE8B
:1028280008F0F951D926FA51DA22DF50F36F94EC07
:1028380048F0F6D4010120EE01F0F951D926FA51F9
:10284800DA22DF500201CC6FCD6BCD51000AD8A43B
:1028580045D5CC51530AD8B4D5D4070AD8B42FD605
:10286800010AD8B453D6030AD8B4BED6010AD8B4DC
:1028780092D60F0AD8B4E1D62A0AD8B407D7040AE0
:10288800D8B4EED4E30AD8B48AD5090AD8B42FD775
:102898002E0AD8B4C8D5600AD8B422D5270AD8B425
:1028A8005FD71CD50101BD6F0101BD51A90FD96EBC
:1028B800DA6ADF5000019F6FA06B200E0101BD2571
:1028C800D96EDA6A010EDA22DF500001A16FA26B1D
:1028D800030EA127000EA2239F51A15DA251800AD9
:1028E800A36FA051800AA359D8A047D0200E010198
:1028F800BD25D96EDA6A010EDA22DF5000019F6F1A
:10290800FD0E9F25A06FA16BFF0EA1230101BD51F4
:10291800A90FD96EDA6ADF500001A26FA36BA0512C
:10292800A25DA351800AA46FA151800AA459D8A01E
:1029380024D00101BD51020D000EF324D96E020E00
:10294800F420DA6E010EDBBE07D0010EDB5015E174
:10295800040EDE5CD8B011D0BD51020D000EF32478
:10296800D96E020EF420DA6E010EDBAEF3D1FD0E45
:10297800DE5CFF0EDE58D8B0EDD10101BD51070D68
:10298800F350120FECEC5DF08DC09FF08EC0A0F0FC
:102998000101BD51070DF350130FECEC5DF0000180
:1029A8008D519F5DD8B002D0010E01D0000E0101FB
:1029B800BA6FBA51D8A4E8D0BD51020D000EF32465
:1029C800D96E020EF420DA6EDECF97F0DDCF98F0E4
:1029D800000E00019A6F1E0E996FB6EC52F097C068
:1029E8009FF098C0A0F00101BD51070DF350130FDF
:1029F800ECEC5DF000018D519F25A16F000EA02128
:102A0800A26F0101BD51A90FD96EDA6ADF5000012A
:102A1800A36FA46BA151A35DA451800AA56FA25115
:102A2800800AA559D8B084D00101BD51070DF350D3
:102A3800140FECEC5DF08DC091F08EC092F00101A6
:102A4800BD51020D000EF324D96E020EF420DA6E89
:102A5800DECF9FF0DDCFA0F000019F1FA01F9F4B8E
:102A6800A02B9FC093F0A0C094F0E9EC60F091C057
:102A780097F092C098F0000E00019A6F640E996F5B
:102A8800B6EC52F00101BD51020D000EF324D96ECF
:102A9800020EF420DA6E000197C0DEFF98C0DDFF59
:102AA8000101BD51070DF350130FECEC5DF000016F
:102AB8008D519F6FA06B0101BD51070DF350130F8E
:102AC800ECEC5DF000018D519F27000EA023010161
:102AD800BD51A90FD96EDA6ADF500001A16FA1516B
:102AE8009F5F000EA05B0101BD51020D000EF32493
:102AF800D96E020EF420DA6EDECF97F0DDCF98F0B3
:102B0800000E00019A6F1E0E996FB6EC52F000018C
:102B180097519F5D0101BB6F00019851A0590101B8
:102B2800BC6FBD51A90FD96EDA6ABBC1DFFF10D1E6
:102B38000101BD51020D000EF324D96E020EF420DE
:102B4800DA6E030EDE26000EDD22BD51020D000EE8
:102B5800F324D96E020EF420DA6EDECF97F0DDCFC3
:102B680098F0000E00019A6F1E0E996FB6EC52F0A5
:102B7800010E000197270101BD51A90FD96EDA6A2C
:102B880000019751DF5EE4D0BD51A90FD96EDA6A12
:102B9800DF5000019F6FA06B0101BD51070DF3507D
:102BA800130FECEC5DF08DC0A1F08EC0A2F0010116
:102BB800BD51020D000EF324D96E020EF420DA6E18
:102BC800DECF97F0DDCF98F0000E00019A6F1E0E51
:102BD800996FB6EC52F000019751A15DA36F98511F
:102BE800D8A09829A46BA45F9F51A35DA451800A23
:102BF800A56FA051800AA559D8B07FD00101BD5159
:102C0800070DF350140FECEC5DF08DC091F08EC001
:102C180092F00101BD51020D000EF324D96E020E8F
:102C2800F420DA6EDECF9FF0DDCFA0F000019F1F09
:102C3800A01F9F4BA02B9FC093F0A0C094F0E9EC7D
:102C480060F091C097F092C098F0000E00019A6F62
:102C5800640E996FB6EC52F00101BD51020D000EE1
:102C6800F324D96E020EF420DA6E000197C0DEFF5D
:102C780098C0DDFF0101BD51070DF350130FECECB7
:102C88005DF000018D519F6FA06B0101BD51070DD3
:102C9800F350130FECEC5DF000018D519F27000EEF
:102CA800A0230101BD51020D000EF324D96E020EBE
:102CB800F420DA6EDECF97F0DDCF98F0000E000139
:102CC8009A6F1E0E996FB6EC52F0000197519F252E
:102CD800A16F9851A021A26F0101BD51A90FD96E12
:102CE800DA6ADF500001A36FA351A15D0101BB6F38
:102CF8000001A251D8A0A20512D70101BD51020DB1
:102D0800000EF324D96E020EF420DA6E030EDE26CE
:102D1800000EDD22BD51020D000EF324D96E020E05
:102D2800F420DA6EDECF97F0DDCF98F0000E0001C8
:102D38009A6F1E0E996FB6EC52F0010E000197279C
:102D48000101BD51A90FD96EDA6A00019751DF263A
:102D5800000E1200010E12000101F26FF00E0101C7
:102D6800F22500018D6F8E6BFF0E8E23000E906F83
:102D7800070E8F6FCBEC56F000018D518E11D8A441
:102D88001BD00101F251F00FF36FF3C197F000016E
:102D9800986B000E9A6F070E996FB6EC52F000010F
:102DA80097510101F36FED51EE19D8B405D0EDC17B
:102DB800EAF1F3513AEC59F0050E0101F219D8A4E1
:102DC80003D0ED5191EC62F0040E0101F219D8B470
:102DD800EDC15BFF0F0EF2651200F00EF225000147
:102DE800976F986BFF0E9823000E9A6F070E996FD6
:102DF800B6EC52F0000197510101F36FF00EF22585
:102E080000018D6F8E6BFF0E8E23000E906F070EE4
:102E18008F6FCBEC56F0CFD10101F251EF6FF06B11
:102E2800F351070D120EF326000EF422EF51F3189A
:102E380013E1F051F418D8A40FD0020E0001916FDD
:102E48000101F35119EC4AF0020E0001916F0101E2
:102E5800F351F7EC48F01200F251EF6FF06BF351B9
:102E6800070D130EF326000EF422EF51F31813E1A9
:102E7800F051F418D8A40FD0010E0001916F010190
:102E8800F35119EC4AF0010E0001916F0101F35161
:102E9800F7EC48F01200F251EF6FF06BF351070DA9
:102EA800110EF326000EF422EF51F31803E1F0514E
:102EB800F418D8A41200EDAF1200EEBF1200F351BF
:102EC800070DF350120FECEC5DF08DC097F08EC03B
:102ED80098F0000E00019A6F020E996FB6EC52F04E
:102EE80097C0EFF198C0F0F10101F351070DF350CD
:102EF800130FECEC5DF08DC097F08EC098F0000ECB
:102F080000019A6F020E996FB6EC52F000019751CA
:102F18000101EF2500019F6F0101F35111EC61F0F0
:102F280012000101F251EF6FF06BF351070D130E10
:102F3800F326000EF422EF51F31813E1F051F418C0
:102F4800D8A40FD0020E0001916F0101F35177EC64
:102F58004AF0020E00018D6F0101F35143EC58F065
:102F68001200F251EF6FF06BF351070D120EF326BA
:102F7800000EF422EF51F31813E1F051F418D8A41D
:102F88000FD0010E0001916F0101F35177EC4AF067
:102F9800010E00018D6F0101F35143EC58F012004E
:102FA800F251EF6FF06BF351070D110EF326000E7F
:102FB800F422EF51F31803E1F051F418D8A41200E9
:102FC800EDAF1200EEBF1200F351070DF350120FD0
:102FD800ECEC5DF08DC097F08EC098F0000E00010B
:102FE8009A6F020E996FB6EC52F097C0EFF198C045
:102FF800F0F10101F351070DF350130FECEC5DF004
:103008008DC097F08EC098F0000E00019A6F020EE6
:10301800996FB6EC52F0000197510101EF25F16F5D
:10302800F351A90FD96EDA6AF1C1DFFF120001016D
:10303800F251EF6FF06BF351070D130EF326000EEC
:10304800F422EF51F31813E1F051F418D8A40FD07B
:10305800000E0001916F0101F35106EC44F0000EDF
:103068000001916F0101F35185EC4DF01200F2510E
:10307800EF6FF06BF351070D140EF326000EF422D8
:10308800EF51F31813E1F051F418D8A40FD0010E42
:103098000001916F0101F35106EC44F0010E0001AB
:1030A800916F0101F35185EC4DF01200F251EF6F71
:1030B800F06BF351070D150EF326000EF422EF51B5
:1030C800F31813E1F051F418D8A40FD0020E000140
:1030D800916F0101F35106EC44F0020E0001916F6B
:1030E8000101F35185EC4DF01200F251EF6FF06BD6
:1030F800F351070D160EF326000EF422EF51F318C4
:1031080013E1F051F418D8A40FD0030E0001916F09
:103118000101F35106EC44F0030E0001916F010127
:10312800F35185EC4DF01200F251EF6FF06BF35153
:10313800070D110EF326000EF422EF51F31852E199
:10314800F051F418D8A41200EDAF1200EEBF12002F
:10315800F351070DF350120FECEC5DF08DC097F0B2
:103168008EC098F0000E00019A6F020E996FB6ECAF
:1031780052F097C0EFF198C0F0F10101F351070D3B
:10318800F350130FECEC5DF08DC097F08EC098F003
:10319800000E00019A6F020E996FB6EC52F0000112
:1031A80097510101EF25F16FF351A90FD96EDA6A32
:1031B800F1C1DFFF12000101F351070DF350100FA9
:1031C800ECEC5DF000018E51000AD8A412008D517C
:1031D800020AD8B421D6010AD8B4A3D6070AD8A4BB
:1031E800120025D712000101D56FD5C1D1F1130EF8
:1031F8000101CB654FD1060E12000A0ECB5FD551E7
:10320800CD6FCE6BCD3BCE3BF00ECE17CD510F0B15
:10321800CE13F00ECD17800ECD25CF6FEF0ECE2139
:10322800D06FCFC191F0D0C192F00001936B010E25
:103238006AEC59F0000191510101D46FD4A91ED054
:10324800D551100DF3CFCDF1F4CFCEF1810ECD25B0
:10325800CF6FEF0ECE21D06FCFC191F0D0C192F0D9
:103268000001936B010E6AEC59F0000191510101C4
:10327800D56FD529D8A40ED1070E1200CC51D8A4E9
:1032880002D0000E1200D529D66FFBD0D651CD6FD3
:10329800CE6BCD3BCE3BF00ECE17CD510F0BCE13E0
:1032A800F00ECD17800ECD25CF6FEF0ECE21D06F4B
:1032B800CFC191F0D0C192F00001936B010E6AEC7E
:1032C80059F0000191510101D26FD2AFD9D0D65136
:1032D800100DF3CFCDF1F4CFCEF1820ECD25CF6F07
:1032E800EF0ECE21D06FCFC1A4F0D0C1A5F0000160
:1032F800A66BFF0EA76F010EFAEC5BF00101D65129
:10330800100DF3CFCDF1F4CFCEF1830ECD25CF6FD5
:10331800EF0ECE21D06FCFC1A4F0D0C1A5F000012F
:10332800A66BFF0EA76F010EFAEC5BF00101D651F8
:10333800100DF3CFCDF1F4CFCEF1840ECD25CF6FA4
:10334800EF0ECE21D06FCFC1A4F0D0C1A5F00001FF
:10335800A66BFF0EA76F010EFAEC5BF00101D651C8
:10336800100DF3CFCDF1F4CFCEF1850ECD25CF6F73
:10337800EF0ECE21D06FCFC1A4F0D0C1A5F00001CF
:10338800A66BFF0EA76F010EFAEC5BF00101D65198
:10339800CD6FCE6BCD3BCE3BF00ECE17CD510F0B84
:1033A800CE13F00ECD17800ECD25CF6FEF0ECE21A8
:1033B800D06FCFC1A4F0D0C1A5F00001A66B200E3C
:1033C800A76F010EFAEC5BF0000E0101D36FD65126
:1033D800100DF3CFCDF1F4CFCEF1D351CD27000EA0
:1033E800CE23860ECD25CF6FEF0ECE21D06FCFC165
:1033F800A4F0D0C1A5F00001A66B000EA76F010EC6
:10340800FAEC5BF00101D32B090ED365E0D7D55157
:10341800100DF3CFCDF1F4CFCEF1810ECD25CF6FC6
:10342800EF0ECE21D06FCFC1A4F0D0C1A5F000011E
:10343800A66BD6C1A7F0010EFAEC5BF00101D489A6
:10344800D551CD6FCE6BCD3BCE3BF00ECE17CD51C7
:103458000F0BCE13F00ECD17800ECD25CF6FEF0ECC
:10346800CE21D06FCFC1A4F0D0C1A5F00001A66BCA
:10347800D4C1A7F0010EFAEC5BF0D6C1D5F104D0A7
:10348800D62BD629D8A402D70101D629D8A402D090
:10349800040E12000A0ECB61B0D6D551100DF3CF31
:1034A800CDF1F4CFCEF1CB51CD27000ECE23860E31
:1034B800CD25CF6FEF0ECE21D06FCFC1A4F0D0C1F4
:1034C800A5F00001A66BCCC1A7F0010EFAEC5BF0E9
:1034D8000101D551CD6FCE6BCD3BCE3BF00ECE1753
:1034E800CD510F0BCE13F00ECD17800ECD25CF6F1B
:1034F800EF0ECE21D06FCFC191F0D0C192F0000174
:10350800936B010E6AEC59F0000191510101D46FDF
:10351800D4510F0BCD6FCD51CB5DD8A026D0CBC1E8
:10352800CDF1010ECD27D451CD19F00BCD19D46FA3
:10353800D551CD6FCE6BCD3BCE3BF00ECE17CD51D6
:103548000F0BCE13F00ECD17800ECD25CF6FEF0EDB
:10355800CE21D06FCFC1A4F0D0C1A5F00001A66BD9
:10356800D4C1A7F0010EFAEC5BF00101CC51D8A44C
:1035780088D6D15124EC5DF084D6F9C1D9FFFAC1BF
:10358800DAFF050EDF6002D0000E1200010120EE06
:1035980003F0F951D926FA51DA22DF50FB6F20EEF9
:1035A80002F0F951D926FA51DA22DF50FC6FFB51AB
:1035B8000201CF6FFCC1D0F214D0000E0201D06F0F
:1035C800000ECF6F140E0201CC6F010ECD6F49D0E3
:1035D800000E0201D06F000ECF6F000E0201CC6FFB
:1035E80040D0010120EE01F0F951D926FA51DA2232
:1035F800DF50FB6FFC6BFC51000AD8A4C5D7FB5108
:10360800900AD8B4DFD7010AD8B4E7D7090AD8B4E2
:10361800D4D7010AD8B4DCD7290AD8B4D3D7010A39
:10362800D8B4DBD7090AD8B4C8D7010AD8B4D0D7D8
:10363800690AD8B4C7D7010AD8B4CFD7090AD8B409
:10364800BCD7010AD8B4C4D7290AD8B4BBD7010A51
:10365800D8B4C3D7090AD8B4B0D7010AD8B4B8D7F0
:1036680093D7CFC2BAF1D0C2BBF1010120EE05F069
:10367800F951D926FA51DA22DF50FB6F20EE04F017
:10368800F951D926FA51DA22DF50FC6FFB51BC6F91
:10369800FCC1BDF155EC51F00201D16FD129D8B46C
:1036A80073D7D1513AEC41F0010120EE01F0F95104
:1036B800D926FA51DA22DF500201CE6FCEB17FD07F
:1036C800010ED86F200ED825D96EDA6A020EDA22DA
:1036D800DF50D96FD951D8B46CD0D9517F0BD66F80
:1036E800590ED66166D0070ED619D8B406D1080E81
:1036F800D66104D0D9519AEC59F05BD0F80ED62592
:103708000001976F986BFF0E9823000E9A6F050EB5
:10371800996FB6EC52F0000197510201D56FF80E7F
:10372800D62500018D6F8E6BFF0E8E23000E906FD5
:10373800050E8F6FCBEC56F000018D510201D76F4B
:1037480020D00201D551070DF350110FECEC5DF0BC
:1037580000018DBFA4EC62F00201D751D8B4D92B77
:10376800040ED719D8A402D0020ED95FD9519AEC09
:1037780059F0A1EC62F01DD00201D9519AEC59F030
:1037880018D0D551070DF350100FECEC5DF0000187
:103798008E51000AD8A40DD08D51010AD8B4D1D7C2
:1037A800030AD8B4D9D7010AD8B4D6D7070AD8B4E7
:1037B800E3D70201D82B130ED86584D79ED033C225
:1037C800D2F2130ED86F000ED36FD2C2D9F2010E07
:1037D800D8650AD01F0ED825D96EDA6A020EDA2209
:1037E800DF50D26FD25101D0D351800BD46FD95151
:1037F800D8B47ED0D351D8B4D9C2D3F2D99F590EF8
:10380800D96176D0070ED919D8B477D0080ED96106
:1038180009D0D905D8B406D0D451D913D9519AECC6
:1038280059F066D0F80ED9250001976F986BFF0EF6
:103838009823000E9A6F050E996FB6EC52F00001AE
:1038480097510201D56FF80ED92500018D6F8E6B47
:10385800FF0E8E23000E906F050E8F6FCBEC56F087
:1038680000018D510201D76F2BD00201D551070DF0
:10387800F350110FECEC5DF000018DBFA4EC62F089
:10388800030E0201D719D8B4D9070201D751D8A419
:1038980002D0020ED927040ED719D8A402D0030EDD
:1038A800D95FD451D913D9519AEC59F0A1EC62F0EF
:1038B8001FD00201D451D913D9519AEC59F0F6D737
:1038C800D551070DF350100FECEC5DF000018E514F
:1038D800000AD8A40DD08D51010AD8B4C6D7030A5E
:1038E800D8B4D3D7010AD8B4D0D7070AD8B4E1D707
:1038F8000201D807D851D8A466D70101B84BB92B13
:10390800010E12007EEC5AF00101445100018D5D58
:103918000201EA6F0101455100018E590201EB6F66
:103928000101465100018F590201EC6F0101475115
:10393800000190590201ED6F010164510001916F7E
:10394800926B936B946B3E0E956F000E966F000E04
:10395800976F000E986FAAEC5AF00201EA51000125
:10396800915D0201EB51000192590201EC510001F5
:1039780093590201ED5100019459D8B00CD07CEC58
:1039880054F07EEC5AF08DC044F18EC045F18FC0E2
:1039980046F190C047F17EEC5AF001014051000118
:1039A8008D5D0201EA6F0101415100018E5902014A
:1039B800EB6F0101425100018F590201EC6F0101C7
:1039C8004351000190590201ED6FED51EC1106E1F0
:1039D800250EEA5DF40EEB59D8A00CD0F9EC52F0A4
:1039E8007EEC5AF08DC040F18EC041F18FC042F19B
:1039F80090C043F1000E0201EF6FEF51020D750EFA
:103A0800F324F66EEE0EF420F76EF86A000EF82234
:103A18000900F5500900F510D8B44BD0EF51020D4C
:103A2800750EF324F66EEE0EF420F76EF86A000EAB
:103A3800F8220900F5CFEAF20900F5CFEBF2080EFB
:103A4800EA27000EEB23EAC2F6FFEBC2F7FFF86A9B
:103A58000900F5500900F510D8B42BD0EF51020D2C
:103A6800750EF324F66EEE0EF420F76EF86A000E6B
:103A7800F8220900F5CFEAF20900F5CFEBF2080EBB
:103A8800EA27000EEB23EAC2F6FFEBC2F7FFF86A5B
:103A98000900F5CFECF20900F5CFEDF201D809D015
:103AA8000500FA6EEC51FD6EED51FE6EFF6AFA509C
:103AB80012000201EF2B080EEF659FD76EEC2EF077
:103AC800000E0201EE6F010162516311D8B4CAD031
:103AD800020E62250201EA6F000E01016321020154
:103AE800EB6FEAC2F6FFEBC2F7FFF86A0900F55080
:103AF8000900F510D8B4B6D0F00E0101C46F020E5B
:103B0800C56F020E62250201EA6F000E01016321F2
:103B18000201EB6FEAC2F6FFEBC2F7FFF86A090091
:103B2800F5CFECF20900F5CFEDF201D809D0050088
:103B3800FA6EEC51FD6EED51FE6EFF6AFA501200FE
:103B48000009D8B48FD00201F051D8B48BD0070E39
:103B580024EC43F0F00E00018D6F020E8E6FADEC79
:103B680062F00201EE6FEE51D8A47CD0000EEF6F28
:103B7800EF51020D750EF324F66EEE0EF420F76E7B
:103B8800F86A000EF8220900F5500900F510D8B4BB
:103B980058D0EF51020D750EF324F66EEE0EF42098
:103BA800F76EF86A000EF8220900F5CFEAF209006C
:103BB800F5CFEBF2060EEA27000EEB23EAC2F6FF7A
:103BC800EBC2F7FFF86A0900F5500900F510D8B400
:103BD80038D0F00E0101F96F020EFA6F0201EF51B1
:103BE800020D750EF324F66EEE0EF420F76EF86AE9
:103BF800000EF8220900F5CFEAF20900F5CFEBF242
:103C0800060EEA27000EEB23EAC2F6FFEBC2F7FF27
:103C1800F86A0900F5CFECF20900F5CFEDF201D80A
:103C280009D00500FA6EEC51FD6EED51FE6EFF6A8B
:103C3800FA501200E806D8A404D0010E0201EE6F73
:103C480005D00201EF2B080EEF6592D7EE51D8A4EC
:103C580009D0F00E00018D6F020E8E6FAFEC62F08E
:103C68000201EE6F0201EE51D8B412000101994B26
:103C78009A2B080E24EC43F012000101BC6FF80ED9
:103C88000101BC250001976F986BFF0E9823000E69
:103C98009A6F040E996FB6EC52F000019751D16FEC
:103CA8000F0ED16502D0FF0E12000101BC51F80FB2
:103CB800030BBD6F0001D151070DF350110FECEC50
:103CC8005DF000018D510101BA6FBA51080BBB6F4D
:103CD8006BD1B40E0001D125D96EDA6A020EDA2250
:103CE800DF50D8B402D0010E1200000E1200BB51F2
:103CF800D8B4D9D7B40E0001D125D96EDA6A020E2C
:103D0800DA22DF50D8A402D0010E1200000E1200F1
:103D18000101BD51000AD8B4DCD7010AD8B4E7D7ED
:103D2800C2D7DE0E0001D1259F6FA06B030EA02322
:103D38009FC091F0A0C092F0936B000E6AEC59F00E
:103D4800020E000191199211D8B402D0010E12008E
:103D5800000E12000101BD51000AD8B4E2D7A3D762
:103D68000001D151070DF350120FECEC5DF000018A
:103D7800D151A90FD96EDA6ADE508D19D8A402D0B4
:103D8800010E1200000E12000001D151070DF35070
:103D9800130FECEC5DF00001D151A90FD96EDA6A6E
:103DA800DE508D19D8A402D0010E1200000E1200A8
:103DB8000001D151070DF350130FECEC5DF0000139
:103DC8008D51976F986B000E9A6F020E996FB6EC33
:103DD80052F097C09FF098C0A0F00001D151070D94
:103DE800F350120FECEC5DF000018D51976F986B5A
:103DF800000E9A6F020E996FB6EC52F000019751BF
:103E08009F25A16F9851A021A26FD151A90FD96EFA
:103E1800DA6ADF50A36FA46BA151A35DA451800A95
:103E2800A56FA251800AA559D8A002D0010E120090
:103E3800000E12000101BD51000AD8B491D7010A41
:103E4800D8B4B6D7030AD8B49FD72DD7DE0E000151
:103E5800D1259F6FA06B030EA0239FC091F0A0C037
:103E680092F0936B000E6AEC59F000019167010E15
:103E780012000101BD51000AD8B4E8D714D70001D7
:103E8800D151070DF350130FECEC5DF00001D15147
:103E9800A90FD96EDA6ADF509F6FA06B8D519F19F9
:103EA80006E18E51A019D8A402D0010E1200000E0E
:103EB80012000001D151070DF350140FECEC5DF026
:103EC8000001D151A90FD96EDA6ADF509F6FA06B3C
:103ED8008D519F1906E18E51A019D8A402D0010E68
:103EE8001200000E12000001D151070DF350120FFD
:103EF800ECEC5DF000018EBFD6D68E5104E1030EC6
:103F08008D5DD8A0D0D6D151070DF350150FECEC2C
:103F18005DF00001D151A90FD96EDA6ADF509F6FA9
:103F2800A06B8D519F1906E18E51A019D8A402D01B
:103F3800010E1200000E12000001D151070DF350BE
:103F4800120FECEC5DF000018EBFADD68E5104E18E
:103F5800040E8D5DD8A0A7D6D151070DF350160FCA
:103F6800ECEC5DF00001D151A90FD96EDA6ADF508F
:103F78009F6FA06B8D519F1906E18E51A019D8A48F
:103F880002D0010E1200000E12000101BD51000AFC
:103F9800D8B475D7010AD8B48CD7030AD8B4A3D734
:103FA800010AD8B4C9D77FD60001D151070DF35003
:103FB800100FECEC5DF000018D51000AD8B4A8D6C2
:103FC800010AD8B4C7D6030AD8B434D7010AD8B47A
:103FD80050D7070AD8B4D9D766D600018D51D96E03
:103FE800DA6A020ED926DF50906F916B8D51D96E27
:103FF800DA6A040ED926DF50926FFF0E9225936F6E
:10400800946BFF0E94238D51D96EDA6A030ED9266C
:10401800DF50956F966B010E9527000E96239351EE
:104028009515976F94519615986F9051971906E1C9
:1040380091519819D8A402D0000E120020EE01F078
:104048008E51D9268F51DA228D51E16EE26A030E24
:10405800E126E750906F9051090DF3CF91F0F4CF1E
:1040680092F08D51E16EE26AE6CF93F0E5CF94F0DD
:1040780091519325956F92519421966F010E952534
:10408800E16E000E9621E26EDFCFE7FF20EE02F030
:104098008E51D9268F51DA228D51E16EE26A030ED4
:1040A800E126E750906F9051090DF3CF91F0F4CFCE
:1040B80092F08D51E16EE26AE6CF93F0E5CF94F08D
:1040C80091519325956F92519421966F020E9525E3
:1040D800E16E000E9621E26EDFCFE7FF20EE03F0DF
:1040E8008E51D9268F51DA228D51E16EE26A030E84
:1040F800E126E750906F9051090DF3CF91F0F4CF7E
:1041080092F08D51E16EE26AE6CF93F0E5CF94F03C
:1041180091519325956F92519421966F030E952591
:10412800E16E000E9621E26EDFCFE7FF20EE04F08D
:104138008E51D9268F51DA228D51E16EE26A030E33
:10414800E126E750906F9051090DF3CF91F0F4CF2D
:1041580092F08D51E16EE26AE6CF93F0E5CF94F0EC
:1041680091519325956F92519421966F040E952540
:10417800E16E000E9621E26EDFCFE7FF20EE05F03C
:104188008E51D9268F51DA228D51E16EE26A030EE3
:10419800E126E750906F9051090DF3CF91F0F4CFDD
:1041A80092F08D51E16EE26AE6CF93F0E5CF94F09C
:1041B80091519325956F92519421966F050E9525EF
:1041C800E16E000E9621E26EDFCFE7FF20EE06F0EB
:1041D8008E51D9268F51DA228D51E16EE26A030E93
:1041E800E126E750906F9051090DF3CF91F0F4CF8D
:1041F80092F08D51E16EE26AE6CF93F0E5CF94F04C
:1042080091519325956F92519421966F060E95259D
:10421800E16E000E9621E26EDFCFE7FF20EE07F099
:104228008E51D9268F51DA228D51E16EE26A030E42
:10423800E126E750906F9051090DF3CF91F0F4CF3C
:1042480092F08D51E16EE26AE6CF93F0E5CF94F0FB
:1042580091519325956F92519421966F070E95254C
:10426800E16E000E9621E26EDFCFE7FF20EE08F048
:104278008E51D9268F51DA228D51E16EE26A030EF2
:10428800E126E750906F9051090DF3CF91F0F4CFEC
:1042980092F08D51E16EE26AE6CF93F0E5CF94F0AB
:1042A80091519325956F92519421966F080E9525FB
:1042B800E16E000E9621E26EDFCFE7FF8EC0D9FFD8
:1042C8008FC0DAFF8D51E16EE26A030EE126E750F6
:1042D800906F9051090DF3CF91F0F4CF92F08D517A
:1042E800E16EE26AE6CF93F0E5CF94F09151932521
:1042F800E16E92519421E26EDFCFE7FF8D51D96EC6
:10430800DA6A030ED926DF2A8D51D96EDA6A040ECD
:10431800D9268D51E16EE26A030EE126DE50E65C95
:10432800D8A006D08D51D96EDA6A030ED926DF6A75
:10433800010E12000001C805D8A43FD07EEC5AF047
:104348000101505100018D5D0101C76F51510001FC
:104358008E590101C86F525100018F590101C96F6F
:104368005351000190590101CA6FCA5108E1B50EB5
:10437800C75DC40EC859040EC959D8A01ED066A579
:104388000ED0C0C0C2F1BFC0C3F145C0C4F18FC1D7
:10439800C5F1000EC66FAB0E7BEC5FF0452A7EECD4
:1043A8005AF08DC050F18EC051F18FC052F190C0BB
:1043B80053F101018F51D8A48F07465001016619A6
:1043C800D8B40ED0F90E0001A46F030EA56F000E2D
:1043D800A66F66C1A7F0000EFAEC5BF066C146F066
:1043E8000001C751C819D8B413D0C829D8B403D00C
:1043F800C805D8A40BD0FB0EA46F030EA56F000E42
:10440800A66FC8C0A7F0000EFAEC5BF0C8C0C7F0F2
:104418007EEC5AF001014C5100018D5D0101C76F1E
:104428004D5100018E590101C86F4E5100018F593D
:104438000101C96F4F51000190590101CA6FCA515A
:10444800C91106E1250EC75DF40EC859D8A00ED1D2
:104458007EEC5AF08DC04CF18EC04DF18FC04EF1FC
:1044680090C04FF10101934B942B93519411D8A410
:10447800FDD0914B922BFAD080A40BD07EEC5AF051
:104488008DC033F08EC034F08FC035F090C036F058
:1044980012007EEC5AF0335000018D5D0101C76FA8
:1044A800345000018E590101C86F355000018F59F1
:1044B8000101C96F3650000190590101CA6FCA51F4
:1044C80008E1910EC75DD00EC859030EC959D8A08E
:1044D8001200FD0E0001C86F01016569EAEC5EF08B
:1044E800120080A4CBD7000EC86F010165697EEC6D
:1044F8005AF08DC033F08EC034F08FC035F090C0C4
:1045080036F0C0C0A6F0BFC0A7F0500E4BEC5FF06D
:10451800EAEC5EF0B3D780A412007EEC5AF0335078
:1045280000018D5D0101C76F345000018E590101F2
:10453800C86F355000018F590101C96F365000010D
:1045480090590101CA6FCA5108E1910EC75DD00E9A
:10455800C859030EC959D8A015D065C1C8F00001C3
:10456800C805D8A4D5D760C1BFF061C1C0F0C0C02C
:10457800A6F0BFC0A7F0520E4BEC5FF00101974BBD
:10458800982BC6D77EEC5AF0335000018D5D01019F
:10459800C76F345000018E590101C86F35500001B2
:1045A8008F590101C96F3650000190590101CA6F36
:1045B800CA51C91106E1250EC75DF40EC859D8A025
:1045C8005DD70001BF51C011D8B407D0C0C0A6F054
:1045D800BFC0A7F0510E4BEC5FF0000E0001C06F9A
:1045E800000EBF6FC86994D780A412007EEC5AF001
:1045F800335000018D5D0101C76F345000018E59A1
:104608000101C86F355000018F590101C96F36503B
:10461800000190590101CA6FCA5108E1910EC75DA6
:10462800D00EC859030EC959D8A028D7BFC060F109
:10463800C0C061F1000E0001C06FC0C0BFF0000E25
:10464800C86F010E0101656F7EEC5AF08DC033F022
:104658008EC034F08FC035F090C036F061C1A6F03E
:1046680060C1A7F0500E4BEC5FF052D70001C85163
:10467800000AD8B450D7FD0AD8B433D7020AD8B440
:10468800FBD6B2D7F9C1D9FFFAC1DAFF030EDF6052
:1046980002D0000E1200010120EE02F0F951D926D5
:1046A800FA51DA22DE500001C019D8A4F2D701016C
:1046B80020EE03F0F951D926FA51DA220001BF5150
:1046C800DE18D8A4E6D755D1F9C1D9FFFAC1DAFF67
:1046D800040EDF601DD0C0C0A6F0BFC0A7F0010E59
:1046E8000001A86F6F0ED9EC5FF0C0C0C2F1BFC067
:1046F800C3F1710E0101C46F010EC56F010EC66FC3
:10470800AF0E7BEC5FF00101A84BA92B010E120044
:1047180020EE04F0F951D926FA51DA22DF50ECECF8
:104728005DF08DC0FDF18EC0FEF10101FEAF1BD022
:10473800C0C0A6F0BFC0A7F0FD5100080001A86FD7
:104748006F0ED9EC5FF0C0C0C2F1BFC0C3F1710EEB
:104758000101C46F010EC56FFD510008C66FAF0E91
:104768007BEC5FF0D0D7A64BA72BC0C0C2F1BFC06F
:10477800C3F120EE04F0F951D926FA51DA22DF50BC
:10478800C46FFDC1C5F1970E93EC5FF0010120EEF7
:1047980004F0F951D926FA51DA22DF50D8A4B6D755
:1047A800020E59EC56F00001916F1C0E926FBB0E71
:1047B800936F060EAEEC5DF0A9D7F9C1D9FFFAC127
:1047C800DAFF050EDF600ED0C0C0C2F1BFC0C3F172
:1047D800960EC46F010EC56F010EC66FAF0E7BEC4F
:1047E8005FF091D720EE05F0F951D926FA51DA2277
:1047F800DF50F46F20EE04F0F951D926FA51DA228D
:10480800DF50BAEC54F00101FB6FFB51FD6FFE6BFA
:10481800FEBF0FD0FE5103E1FD05D8A00AD0C0C0ED
:10482800A6F0BFC0A7F0FDC1A8F06F0ED9EC5FF0ED
:104838006AD7C0C0A6F0BFC0A7F0590E4BEC5FF016
:10484800C0C0C2F1BFC0C3F1960E0101C46F010E12
:10485800C56F000EC66FAF0E7BEC5FF057D7F9C17E
:10486800D9FFFAC1DAFF050EDF600ED0C0C0C2F171
:10487800BFC0C3F18E0EC46F010EC56F010EC66FA7
:10488800AF0E7BEC5FF03FD720EE05F0F951D9264B
:10489800FA51DA22DF50F46F20EE04F0F951D926EC
:1048A800FA51DA22DF50BAEC54F00101FB6FFB51E8
:1048B800FD6FFE6BFEBF1DD0FE5103E1FD05D8A0C4
:1048C80018D0C0C0A6F0BFC0A7F0FDC1A8F06F0EF9
:1048D800D9EC5FF0C0C0C2F1BFC0C3F18E0E0101B8
:1048E800C46F010EC56FFDC1C6F1AF0E7BEC5FF062
:1048F8000AD720EE04F0F951D926FA51DA22DF500E
:10490800ECEC5DF08DC0FDF18EC0FEF10101FEAF53
:104918001BD0C0C0A6F0BFC0A7F0FD510008000121
:10492800A86F6F0ED9EC5FF0C0C0C2F1BFC0C3F171
:104938008E0E0101C46F010EC56FFD510008C66FD0
:10494800AF0E7BEC5FF0DFD6C0C0C2F1BFC0C3F1D1
:1049580020EE04F0F951D926FA51DA22DF50C46F5B
:10496800FDC1C5F1970E93EC5FF00101A64BA72B93
:10497800CDD6010120EE01F0F951D926FA51DA22FB
:10498800DF50FB6FFC6BFC51000AD8A482D6FB51A8
:10499800710AD8B499D6FF0AD8B461D7180AD8B41E
:1049A8000CD777D67698480E00018D6F9CEC5EF098
:1049B8000009D8A450D10F0120B74DD10001C3512F
:1049C800D8A407D0C151D8A404D0010EC16F010EDC
:1049D800C36F768899C0D9FF9AC0DAFF080EDF64E2
:1049E80006D099C0D9FF9AC0DAFF080EDF6E20EE14
:1049F80001F09951D9269A51DA22DF509B6F9C6BAE
:104A0800350E9B25F66EED0E9C21F76EF86A000EAA
:104A1800F8220800F5509D6F9E6B870E9D25F66E57
:104A2800EE0E9E21F76EF86A000EF8220800F5CF08
:104A38009FF0C339E8461F0B0F0B9F110F01216F21
:104A4800C3C09BF0070E00019B17050E9C6FD89002
:104A58009B379C2FFCD79B510F01226F000120EE42
:104A680001F09951D9269A51DA22DF500F01266FA9
:104A7800000120EE02F09951D9269A51DA22DF502E
:104A88000F01276F000120EE03F09951D9269A51A2
:104A9800DA22DF500F01286F000120EE04F099514F
:104AA800D9269A51DA22DF500F01296F000120EE32
:104AB80005F09951D9269A51DA22DF500F012A6F51
:104AC800000120EE06F09951D9269A51DA22DF50DA
:104AD8000F012B6F000120EE07F09951D9269A514A
:104AE800DA22DF500F012C6F000120EE08F09951F7
:104AF800D9269A51DA22DF500F012D6F99C0D9FFBC
:104B08009AC0DAFFDF500F0B256F20870101734B26
:104B1800742B000120EE01F09951D9269A51DA221E
:104B2800DF50D5EC60F00009D8B41200080E92EC02
:104B380056F00009D8B412004D0E00018D6FBEEC7E
:104B480045F08DC0A1F08EC0A2F00001A151A211C4
:104B5800D8A406D00101774B782B75EC62F01200CF
:104B680020EE01F09951D9269A51DA2210EE01F07F
:104B7800A151E126A251E222DFCFE7FF99C0D9FF78
:104B88009AC0DAFFA1C0E1FFA2C0E2FFDFCFE7FFD2
:104B980020EE02F09951D9269A51DA2210EE02F04D
:104BA800A151E126A251E222DFCFE7FF20EE03F078
:104BB8009951D9269A51DA2210EE03F0A151E12633
:104BC800A251E222DFCFE7FF20EE04F09951D92667
:104BD8009A51DA2210EE04F0A151E126A251E22204
:104BE800DFCFE7FF20EE05F09951D9269A51DA2256
:104BF80010EE05F0A151E126A251E222DFCFE7FF36
:104C080020EE06F09951D9269A51DA2210EE06F0D4
:104C1800A151E126A251E222DFCFE7FF20EE07F003
:104C28009951D9269A51DA2210EE07F0A151E126BE
:104C3800A251E222DFCFE7FF20EE08F09951D926F2
:104C48009A51DA2210EE08F0A151E126A251E2228F
:104C5800DFCFE7FF1200480E00018D6F99C08EF07C
:104C68009AC08FF0F1EC1FF00009D8A407D0010119
:104C7800714B722B75EC62F0768812006FEC62F063
:104C88000001A06FA0510101895D000E8A59D8B0BA
:104C980003D0A0C089F18A6B768812000101C36F26
:104CA8000F0E0101C36501D01200C351070DF35067
:104CB800100FECEC5DF000018D510101C26F60D066
:104CC800C351070DF350110FECEC5DF000018DA5F9
:104CD80018D0DE0E0101C325BC6FBD6B030EBD23CA
:104CE800BCC191F0BDC192F00001936B000E6AEC5B
:104CF80059F000019151976F0101C351E4EC51F053
:104D080022D10101C351070DF350110FECEC5DF0F6
:104D180000018DBB05D0000E0101C06F020E04D04A
:104D2800000E0101C06F010EBF6FBFC1C1F1C1C14B
:104D380097F0C351E4EC51F0DE0E0101C325BC6FBE
:104D4800BD6B030EBD23BCC1A4F0BDC1A5F000011D
:104D5800A66BC1C1A7F0000EFAEC5BF0F4D0C3510A
:104D6800070DF350110FECEC5DF000018D51100BA5
:104D78000101BE6FBEC197F0C351E4EC51F0E3D01E
:104D8800C251010AD8B49CD7030AD8B4E8D7010A9B
:104D9800D8B4E5D7D8D0C251D8B408D0050EC219B6
:104DA800D8B404D0060EC219D8A41ED0C351040D1D
:104DB800020EF326000EF422350EF324F66EEE0EE4
:104DC800F420F76EF86A000EF8220800F5CFBCF15F
:104DD800010EBD6FBC2B02D0D890BD37BC2FFCD7BD
:104DE8000101BD5192121200C351040D020EF326A7
:104DF800000EF422350EF324F66EEE0EF420F76E54
:104E0800F86A000EF8220800F5CFBCF1010EBD6F5C
:104E1800BC2B02D0D890BD37BC2FFCD70101BD51A7
:104E2800FF0A92161200C251D8B408D0050EC21952
:104E3800D8B404D0060EC219D8A41ED0C351040D8C
:104E4800020EF326000EF422350EF324F66EEE0E53
:104E5800F420F76EF86A000EF8220800F5CFBCF1CE
:104E6800010EBD6FBC2B02D0D890BD37BC2FFCD72C
:104E78000101BD5193121200C351040D020EF32615
:104E8800000EF422350EF324F66EEE0EF420F76EC3
:104E9800F86A000EF8220800F5CFBCF1010EBD6FCC
:104EA800BC2B02D0D890BD37BC2FFCD70101BD5117
:104EB800FF0A93161200C251D8B408D0050EC219C1
:104EC800D8B404D0060EC219D8A41ED0C351040DFC
:104ED800020EF326000EF422350EF324F66EEE0EC3
:104EE800F420F76EF86A000EF8220800F5CFBCF13E
:104EF800010EBD6FBC2B02D0D890BD37BC2FFCD79C
:104F08000101BD5194121200C351040D020EF32683
:104F1800000EF422350EF324F66EEE0EF420F76E32
:104F2800F86A000EF8220800F5CFBCF1010EBD6F3B
:104F3800BC2B02D0D890BD37BC2FFCD70101BD5186
:104F4800FF0A941612000101C351040D010EF32645
:104F5800000EF422350EF324F66EEE0EF420F76EF2
:104F6800F86A000EF8220800F550410AD8B413D7A1
:104F7800030AD8B458D7010AD8A412009CD7000E47
:104F88000001D06F0F0ED06501D01200D051070D6F
:104F9800F350100FECEC5DF000018D518E11D8A488
:104FA80051D1D051B0EC3FF00101CF6F940E000108
:104FB800D025D96EDA6A020EDA220101CF51DE1845
:104FC800D8B438D1000ECE6F940E0001D025D96E1A
:104FD800DA6A020EDA22DF50D8B41ED0D051070D9B
:104FE800F350120FECEC5DF0840E0001D025D96E61
:104FF800DA6A020EDA22DF500101CC6FCD6B0001B4
:105008008D510101CC1908E100018E510101CD1922
:10501800D8A402D0010ECE6F940E0001D025D96E0F
:10502800DA6A020EDA22DF50D8A41ED0D051070D5A
:10503800F350130FECEC5DF0840E0001D025D96E0F
:10504800DA6A020EDA22DF500101CC6FCD6B000163
:105058008D510101CC1908E100018E510101CD19D2
:10506800D8A402D0010ECE6F0101CE51D8B4D9D048
:10507800840E0001D025D96EDA6A020EDA22DF6AC0
:10508800940ED025D96EDA6A020EDA22CFC1DFFF7C
:10509800D051070DF350110FECEC5DF000018DB10C
:1050A80008D00101CF51D8A402D0010E01D0000EC2
:1050B800CF6F0001D051070DF350110FECEC5DF0EC
:1050C80000018DA931D00101CF51D8B4BBD0B40EA5
:1050D8000001D025D96EDA6A020EDA22B40ED02584
:1050E800E16EE26A020EE222E750D8A402D0010E75
:1050F80001D0000EDF6EDE0ED0250101CC6FCD6B26
:10510800030ECD23CCC1A4F0CDC1A5F00001A66B40
:10511800B40ED025D96EDA6A020EDA22DF50A76FF4
:10512800000EFAEC5BF008D0B40ED025D96EDA6A1E
:10513800020EDA22CFC1DFFF0001D051070DF35074
:10514800110FECEC5DF000018DA73FD0B40ED02517
:10515800D96EDA6A020EDA22DF50D8B41BD0D051E9
:10516800070DF350110FECEC5DF000018DAD09D087
:10517800000EA76FD051040DF350080FD5EC4AF07C
:1051880061D0010EA76FD051040DF350080FD5EC74
:105198004AF058D0D051070DF350110FECEC5DF0E8
:1051A80000018DAD09D0000EA76FD051040DF3504A
:1051B800090FD5EC4AF046D0010EA76FD051040D67
:1051C800F350090FD5EC4AF03DD0D051070DF350FC
:1051D800110FECEC5DF000018DAD14D0B40ED025AC
:1051E800D96EDA6A020EDA22DF50D8A402D0010E94
:1051F80001D0000EA76FD051040DF350080FD5EC65
:105208004AF020D0B40ED025D96EDA6A020EDA221E
:10521800DF50A76FD051040DF350080FD5EC4AF0BA
:1052280011D0840E0001D025D96EDA6A020EDA2276
:10523800DF2A08D0840E0001D025D96EDA6A020E62
:10524800DA22DF6A0001D02B9DD677980F0120B7AC
:1052580058D1480E0001606F20EC4EF060C073F02A
:1052680061C074F0000173517411D8B43CD120EEC0
:1052780001F07351D9267451DA22DF506C6F6D6BCF
:10528800350E6C25F66EED0E6D21F76EF86A000E80
:10529800F8220800F5506E6F6F6B870E6E25F66E5C
:1052A800EE0E6F21F76EF86A000EF8220800F5CFAF
:1052B80070F0C339E8461F0B0F0B70110F01216FF7
:1052C800C3C06CF0070E00016C17050E6D6FD89007
:1052D8006C376D2FFCD76C510F01226F000120EE47
:1052E80001F07351D9267451DA22DF500F01266F6D
:1052F800000120EE02F07351D9267451DA22DF50F2
:105308000F01276F000120EE03F07351D926745165
:10531800DA22DF500F01286F000120EE04F07351EC
:10532800D9267451DA22DF500F01296F000120EECF
:1053380005F07351D9267451DA22DF500F012A6F14
:10534800000120EE06F07351D9267451DA22DF509D
:105358000F012B6F000120EE07F07351D92674510D
:10536800DA22DF500F012C6F000120EE08F0735194
:10537800D9267451DA22DF500F012D6F73C0D9FF7F
:1053880074C0DAFFDF50256FD6EC5AF060C02FF0FA
:1053980061C030F062C031F063C032F0000E00012D
:1053A800C26F0F01208776880101734B742B0001AF
:1053B80020EE01F07351D9267451DA22DF50FDEC4A
:1053C80060F00009D8B412004D0E0001606F90EC37
:1053D80046F060C071F061C072F000017151721145
:1053E800D8A406D00101774B782B7BEC62F0120031
:1053F80020EE01F07351D9267451DA2210EE01F033
:105408007151E1267251E222DFCFE7FF73C0D9FF65
:1054180074C0DAFF71C0E1FF72C0E2FFDFCFE7FFBF
:1054280020EE02F07351D9267451DA2210EE02F000
:105438007151E1267251E222DFCFE7FF20EE03F03F
:105448007351D9267451DA2210EE03F07151E12616
:105458007251E222DFCFE7FF20EE04F07351D92624
:105468007451DA2210EE04F07151E1267251E222F1
:10547800DFCFE7FF20EE05F07351D9267451DA2209
:1054880010EE05F07151E1267251E222DFCFE7FFFD
:1054980020EE06F07351D9267451DA2210EE06F088
:1054A8007151E1267251E222DFCFE7FF20EE07F0CB
:1054B8007351D9267451DA2210EE07F07151E126A2
:1054C8007251E222DFCFE7FF20EE08F07351D926B0
:1054D8007451DA2210EE08F07151E1267251E2227D
:1054E800DFCFE7FF1200000E2F6E000E306E000EA9
:1054F800316E000E326E000E0F01206F779876988D
:1055080012007798768812000101DB6F030E010103
:10551800D419D8A458D0DB51070DF350130FECEC75
:105528005DF0300E0101DB25D96EDA6A010EDA2250
:1055380000018DC0DFFFA40E0101DB25D96EDA6AF8
:10554800020EDA22010EDF6EDB51070DF350110F48
:10555800200BECEC5DF000018D518E11D8A402D027
:10556800010E01D0000E916F0101DB51ABEC36F05A
:10557800DE0E0101DB25D56FD66B030ED623D5C110
:10558800A4F0D6C1A5F00001A66BD4C1A7F0000E07
:10559800FAEC5BF0010E0101CC6FDB51070DF35003
:1055A800110FECEC5DF000018D51400B0101CD6F46
:1055B800010ECE6F010ECF6FDB51040DF350080FB3
:1055C80091EC5CF01200300EDB25D96EDA6A010E20
:1055D800DA22DF6AD405D8A402D0010E01D0000E69
:1055E800DA6FDB51070DF350110FECEC5DF00001A1
:1055F8008DA108D00101DA51D8A402D0010E01D042
:10560800000EDA6F0101DA51D8A415D0DB51070D6D
:10561800F350120FECEC5DF000018D518E11D8B4EF
:105628000AD0A40E0101DB25D96EDA6A020EDA224D
:10563800010EDF6E12000101DA51D8B438D0DB5107
:10564800070DF350120FECEC5DF000018D518E1137
:10565800D8B42DD0A40E0101DB25D96EDA6A020E6A
:10566800DA22DF50D8A423D0DB51070DF350120FF4
:10567800ECEC5DF0A40E0101DB25D96EDA6A020EAE
:10568800DA2200018DC0DFFFDE0E0101DB25D56FB8
:10569800D66B030ED623D5C1A4F0D6C1A5F0000160
:1056A800A66B020EA76F000EFAEC5BF025D0A40ED5
:1056B8000101DB25D96EDA6A020EDA22010EDF6EED
:1056C800DA51D8A404D0000ED86F020E03D0000E11
:1056D800D86F010ED76FDE0EDB25D56FD66B030EA4
:1056E800D623D5C1A4F0D6C1A5F00001A66BD7C1B9
:1056F800A7F0000EFAEC5BF0DAC1D9F10101DB5139
:10570800070DF350110FECEC5DF000018DAB08D0E4
:105718000101D951D8A402D0010E01D0000ED96FD1
:10572800D9C191F00101DB51ABEC36F00101DB513D
:10573800070DF350110FECEC5DF000018DA721D09F
:105748000101DA51D8B41200DA51D8B402D0010EEE
:1057580001D0000ECC6FDB51070DF350110FECECAC
:105768005DF000018D51400B0101CD6F010ECE6F30
:10577800010ECF6FDB51040DF350080F91EC5CF074
:1057880012000101DA51D8B402D0010E01D0000E86
:10579800CC6FDB51070DF350110FECEC5DF00001FD
:1057A8008D51400B0101CD6F010ECE6F010ECF6FF1
:1057B800DB51040DF350080F91EC5CF01200779860
:1057C8000F0120B742D1480E016EB9EC4EF001C06E
:1057D80014F002C015F014501510D8B428D120EEDA
:1057E80001F01450D9261550DA22DF500D6E0E6ADA
:1057F800350E0D24F66EED0E0E20F76EF86A000ECB
:10580800F8220800F5500F6E106A870E0F24F66E06
:10581800EE0E1020F76EF86A000EF8220800F5CF99
:1058280011F00001C339E8461F0B0F0B11100F01CF
:10583800216FC3C00DF0070E0D16050E0E6ED89021
:105848000D360E2EFCD70D50226F20EE01F01450AD
:10585800D9261550DA22DF50266F20EE02F01450B8
:10586800D9261550DA22DF50276F20EE03F01450A6
:10587800D9261550DA22DF50286F20EE04F0145094
:10588800D9261550DA22DF50296F20EE05F0145082
:10589800D9261550DA22DF502A6F20EE06F0145070
:1058A800D9261550DA22DF502B6F20EE07F014505E
:1058B800D9261550DA22DF502C6F20EE08F014504C
:1058C800D9261550DA22DF502D6F14C0D9FF15C024
:1058D800DAFFDF50256F25EC5AF001C02FF002C027
:1058E80030F003C031F004C032F0000E0001C26F86
:1058F8000F01208776880101734B742B20EE01F08D
:105908001450D9261550DA22DF5059EC61F00009FD
:10591800D8B412004D0E016EF9EC46F001C012F039
:1059280002C013F012501310D8A406D00101774B0F
:10593800782B81EC62F0120020EE01F01450D92689
:105948001550DA2210EE01F01250E1261350E2222F
:10595800DFCFE7FF14C0D9FF15C0DAFF12C0E1FF9F
:1059680013C0E2FFDFCFE7FF20EE02F01450D92684
:105978001550DA2210EE02F01250E1261350E222FE
:10598800DFCFE7FF20EE03F01450D9261550DA22B6
:1059980010EE03F01250E1261350E222DFCFE7FFAA
:1059A80020EE04F01450D9261550DA2210EE04F037
:1059B8001250E1261350E222DFCFE7FF20EE05F078
:1059C8001450D9261550DA2210EE05F01250E126AF
:1059D8001350E222DFCFE7FF20EE06F01450D9265D
:1059E8001550DA2210EE06F01250E1261350E2228A
:1059F800DFCFE7FF20EE07F01450D9261550DA2242
:105A080010EE07F01250E1261350E222DFCFE7FF35
:105A180020EE08F01450D9261550DA2210EE08F0BE
:105A28001250E1261350E222DFCFE7FF1200000EEA
:105A38002F6E000E306E000E316E000E326E000EAC
:105A48000F01206F77987698120077987688120061
:105A58000001A76F0001A751070DF350120FECECDE
:105A68005DF08DC09FF08EC0A0F00001A751070D1A
:105A7800F350130FECEC5DF000018D519F5DD8B031
:105A880002D0010E01D0000EA56F0AD1A751070D53
:105A9800F350120FECEC5DF000018D51976F986B8D
:105AA800000E9A6F020E996FB6EC52F097C09FF0F5
:105AB80098C0A0F00001A751070DF350130FECECAC
:105AC8005DF000018D51976F986B000E9A6F020E72
:105AD800996FB6EC52F0000197519F25A66FA5511A
:105AE800D8B424D0A751070DF350150FECEC5DF096
:105AF8000001A751A90FD96EDA6A8D51DF5EA7514F
:105B0800A90FD96EDA6ADE50A65DD8A0E1D0440E9E
:105B1800A725D96EDA6A020EDA22010EDF6EA751C6
:105B2800070DF350160FECEC5DF023D0A751070DCD
:105B3800F350150FECEC5DF00001A751A90FD96ED9
:105B4800DA6A8D51DF26A751A90FD96EDA6AA651F4
:105B5800DE5CD8A0BDD0440EA725D96EDA6A020E45
:105B6800DA22010EDF6EA751070DF350160FECEC89
:105B78005DF000018D519F6FA06BA751020D000EC3
:105B8800F324D96E020EF420DA6E9FC0DEFFA0C0A7
:105B9800DDFF9ED0A751020D000EF324D96E020E30
:105BA800F420DA6EDE50DE10D8A408D0440EA72503
:105BB800D96EDA6A020EDA22020EDF6EA751020DE2
:105BC800000EF324D96E020EF420DA6EDE06000E03
:105BD800DD5A7ED0A551D8B436D0A751070DF35061
:105BE800150FECEC5DF00001A751A90FD96EDA6A28
:105BF8008D51DF5EA751A90FD96EDA6ADF509F6F0A
:105C0800A06B200EA725D96EDA6A010EDA22DF50C2
:105C1800A16FFD0EA125A26FA36BFF0EA3239F51B9
:105C2800A25DA351800AA46FA051800AA459D8A0EC
:105C38004FD0440EA725D96EDA6A020EDA22030E77
:105C4800DF6E010E1200A751070DF350150FECEC93
:105C58005DF00001A751A90FD96EDA6A8D51DF26D0
:105C6800200EA725D96EDA6A010EDA22DF509F6F5F
:105C7800FD0E9F25A06FA16BFF0EA123A751A90FB1
:105C8800D96EDA6ADF50A26FA36BA051A25DA3514F
:105C9800800AA46FA151800AA459D8B0CAD718D0D5
:105CA800440EA725D96EDA6A020EDA22DF509F6FFA
:105CB800A06BA051000AD8A40BD09F51000AD8B4F9
:105CC800E5D6010AD8B466D7030AD8B483D7010A3F
:105CD800000E12007EEC5AF00101485100018D5D62
:105CE8009F6F0101495100018E59A06F01014A516E
:105CF80000018F59A16F01014B5100019059A26F0A
:105D0800A251A11106E1720E9F5D020EA059D8A002
:105D18006BD0BB2BBC2B7EEC5AF08DC048F18EC0EB
:105D280049F18FC04AF190C04BF15ED08A8C000EC9
:105D3800BC6FE0D08A9CFBD7BCC097F0986B000E74
:105D48009A6F190E996FB6EC52F00001973B97477E
:105D580097478A509719BF0B97198A6E310EBC6501
:105D6800C9D0E5D7BCC097F0986B000E9A6F320E79
:105D7800996FB6EC52F00001973B974797478A50C6
:105D88009719BF0B97198A6E630EE9D7BCC097F0B5
:105D9800986B000E9A6F640E996FB6EC52F0000182
:105DA800973B974797478A509719BF0B97198A6E61
:105DB800C70ED5D78A8C180EBC659CD0000EBC6F58
:105DC800000E07D08A9C180EBC6594D0000EBC6FDC
:105DD800010EBE6F8FD08A8C310EEED78A9C310EA1
:105DE800F3D78A9C630EF0D70001BE519F6FA06B5A
:105DF800A051000AD8A47ED09F51000AD8B49AD7DF
:105E0800010AD8B493D7030AD8B496D7010AD8B4EC
:105E1800A9D7070AD8B4BAD7010AD8B4D3D7030A7E
:105E2800D8B4C8D7010AD8B4D9D70F0AD8B4D3D7A9
:105E3800010AD8B4D6D75ED08A8E000EBB6F120086
:105E48008A9EFBD7BBC097F0986B000E9A6F190E0D
:105E5800996FB6EC52F00001973397338A5097192F
:105E68007F0B97198A6E310EBB651200E6D7BBC04F
:105E780097F0986B000E9A6F320E996FB6EC52F04D
:105E88000001973397338A5097197F0B97198A6EB9
:105E9800630EEAD7BBC097F0986B000E9A6F640E3A
:105EA800996FB6EC52F00001973397338A509719DF
:105EB8007F0B97198A6EC70ED7D78A8E180E0FD008
:105EC800000EBB6F000EBD6F12008A9E180E0CD01C
:105ED800000EBB6F010EBD6F12008A8E310EBB65BE
:105EE8001200EED78A9E310EBB651200F1D78A9E4A
:105EF800630EFAD7BD519F6FA06BA051000AD8A4BA
:105F080012009F51000AD8B49BD7010AD8B494D77D
:105F1800030AD8B497D7010AD8B4A9D7070AD8B4BE
:105F2800B9D7010AD8B4D1D7030AD8B4C6D7010A59
:105F3800D8B4D8D70F0AD8B4D0D7010AD8A4120039
:105F4800D6D71BD1F9C1D9FFFAC1DAFF050EDF6038
:105F58000CD0C0C0A6F0BFC0A7F0010E0001A86F0A
:105F68006F0ED9EC5FF0010E1200010120EE01F076
:105F7800F951D926FA51DA22920EDE18D8A433D074
:105F880020EE03F0F951D926FA51DA22DF50020146
:105F9800CC6F010120EE02F0F951D926FA51DA222C
:105FA800DF500201CD6FCC510101BA6FCDC2BBF1F8
:105FB80020EE05F0F951D926FA51DA22DF50020114
:105FC800CF6F010120EE04F0F951D926FA51DA22F7
:105FD800DF500201D06FCF510101BC6FD0C2BDF1BB
:105FE80055EC51F01ED0000EBB6F000EBA6F20EEBC
:105FF80005F0F951D926FA51DA22DF500201CC6FA7
:10600800010120EE04F0F951D926FA51DA22DF50C5
:106018000201CD6FCC510101BC6FCDC2BDF155EC71
:1060280051F00101FE6FFE29D8B49DD7000E000182
:106038009D6F0101FE510AEC3CF09DC0FBF19EC032
:10604800FCF10101FCBF8FD7FC5103E1FB05D8A08F
:106058008AD7FBC1FDF120EE01F0F951D926FA519A
:10606800DA22920EDE18D8A450D0FD5141EC1EF071
:10607800E806D8A425D0010120EE02F0F951D9266E
:10608800FA51DA22DF50C26F20EE03F0F951D92617
:10609800FA51DA22DF50C36F20EE04F0F951D92605
:1060A800FA51DA22DF50C46F20EE05F0F951D926F3
:1060B800FA51DA22DF50C56F930E93EC5FF053D795
:1060C800010120EE02F0F951D926FA51DA22DF5007
:1060D800C26F20EE03F0F951D926FA51DA22DF50C7
:1060E800C36F20EE04F0F951D926FA51DA22DF50B5
:1060F800C46F20EE05F0F951D926FA51DA22DF50A3
:10610800C56F940E93EC5FF02ED7FD5141EC1EF055
:10611800E806D8A419D0C0C0C2F1BFC0C3F10101BC
:1061280020EE04F0F951D926FA51DA22DF50C46F73
:1061380020EE05F0F951D926FA51DA22DF50C56F61
:106148009D0E93EC5FF00FD7C0C0C2F1BFC0C3F182
:10615800010120EE04F0F951D926FA51DA22DF5074
:10616800C46F20EE05F0F951D926FA51DA22DF5032
:10617800C56F9E0E93EC5FF0F6D6010120EE01F09C
:10618800F951D926FA51DA22DF500201CC6FCD6BD2
:10619800CD51000AD8A407D0CC51920AD8B4D2D68F
:1061A800080AD8B4CFD6000E120096EC62F00101AE
:1061B800E76FE751D8A403D0A7EC62F01200E70517
:1061C800D8A403D011EC62F0F7D7020EE719D8A4CF
:1061D80008D0000E00019E6F050E9D6F2BEC52F04B
:1061E8001200030EE719D8A408D0000E00019E6F14
:1061F8000A0E9D6F2BEC52F01200040EE719D8A47A
:1062080008D0000E00019E6F140E9D6F2BEC52F00B
:106218001200050EE719D8A408D0000E00019E6FE1
:10622800320E9D6F2BEC52F01200E751800BDF6F9E
:10623800E7517F0BE46F070EE465D0D0580EE46198
:10624800CDD0F80EE4250001976F986BFF0E9823C8
:10625800000E9A6F050E996FB6EC52F00001975137
:106268000101E66FF80EE42500018D6F8E6BFF0EBD
:106278008E23000E906F050E8F6FCBEC56F0000149
:106288008D510101E46FE651070DF350100FECEC4E
:106298005DF000018D510101E36FE4C193F0E3C1AA
:1062A80094F0E65102EC5BF0E4C18DF0E3C18EF0AE
:1062B8000101E6517EEC53F00009D8B408D0E4C1DE
:1062C800DCF1E3C1DDF10101E651F8EC59F0010E12
:1062D8000101E06F6DD0E05171EC52F00101E56F02
:1062E800E551D8B468D0E551800BDF6FE59FF80E13
