:04000000FEEF03F01C
:0400080004EF04F00D
:040018000CEF04F0F5
:1000740000370800F5501200380E0001456FF80EE5
:100084004117408140B1FED7070E4113465112007B
:100094001F6E010103511F18F80B1F18036F02395B
:1000A400E832070B1F18D8B41200F9D700014151E8
:1000B400F80B0609416F550E426FAA0E426F40813C
:1000C40040B1FED7070E411312001F6E000140B16C
:1000D400FDD71FC546F0000E476F4151F80B0309C9
:1000E400416F550E426FAA0E426F4081070E4113B5
:1000F4001200740EF66E000EF76E000EF86E090014
:10010400F5C433F50900F5C434F501EE01F11E0E12
:10011400EE6AE806FDE10001AFEF01F0000E0C6E9F
:10012400000E0B6E000E0B24D96E370E0C20DA6E07
:10013400FF0EDF6E0B4A0C2A0C04D8A0F3D7000E76
:10014400166E000E156E000E146E12001F6E380E21
:100154000001456F1FC546F04151F80B0309416F7B
:10016400550E426FAA0E426F408140B1FED7070E72
:1001740041133EEC00F01F18D8B41200E8D7080E63
:10018400156003D01450D8B4120016C543F015C539
:1001940044F014C545F058EC00F04151F80B050942
:1001A400416F550E426FAA0E426F408140B1FED797
:1001B400070E411312001F6E07C5D9F408C5DAF4FF
:1001C400DF6A20EE01F00750D9260850DA22240E07
:1001D400DF6E20EE02F00750D9260850DA22DF6ADB
:1001E40020EE03F00750D9260850DA22DF6A1F50A8
:1001F400D8B409D020EE01F00750D9260850DA22ED
:10020400000EDB8608D020EE01F00750D9260850F6
:10021400DA22F70EDF16030E010169131200460EEF
:1002240002010B6F0B0E3D6FC794C786000E0301CE
:10023400676F0101018F040E4AEC00F0000E4C6F51
:10024400380E4D6F000E4E6F000E4F6F000E006F94
:10025400870E016F100E026F500E036F000E046FB5
:10026400030E056F020E066F3F0E076F800E686F58
:10027400040E696F600E6A6F5F0E6B6F080E746F09
:10028400040E756F000E766F5F0E776F400E8F6FE2
:10029400400E936F830E806F060E4AEC00F012003E
:1002A4002F6E1550206E1F6A1450236E226A216A25
:1002B4001F502110246E20502210256E000E20BEE7
:1002C400FF0E2310266E00014451286E276A455103
:1002D4002B6E2A6A296A275029102C6E28502A105E
:1002E4002D6E000E28BEFF0E2B102E6E24502C18DF
:1002F40007E125502D1804E126502E18D8B424D037
:1003040043C013F544C012F545C011F5C1EC00F02B
:10031400000E166E12C515F511C514F5000140B195
:10032400FDD714C545F015C544F016C543F0415139
:10033400F80B0209416F4081070E411313C543F0C6
:1003440012C544F011C545F0000E4325D96EDA6A92
:10035400370EDA222FC5DFF41200100E356E000EB0
:100364000401006F000E086FC79EC79CC684380E38
:100374000001456F030E446F43693EEC00F0000931
:10038400D8B4CEA402D000EF04F0400E356E0001C4
:10039400AD518F0B2009AD6F000E1C6E1C0E1B6E31
:1003A400C79CC79EBF8CBF8E11EC01F090EC00F08F
:1003B400000E046E000E036E0400010178A1FDD747
:1003C4007CC109F57DC10AF520EE04F00950D92657
:1003D4000A50DA22DF500F0B106E20EE01F00950A4
:1003E400D9260A50DA22DFA67CD119C545F018C5F2
:1003F40044F017C543F01BA60AD01050306E316A82
:10040400326A305017263150182232501922020E07
:10041400196074D020EE01F00950D9260A50DA226E
:10042400DFA82FD06CA1FED770C107F571C108F504
:10043400000E0F6E0F500724306E000E0820316E30
:10044400080E3024D96E000E3120DA6E3BEC00F039
:10045400DF6EF62AF650D8A404D0F72AF750D8B4A1
:10046400F82A0F2A080E0F64E5D720EE04F007508F
:10047400D9260850DA22180EDF6E010EDDEC00F0EA
:100484003DD000014551D8A403D0070E446536D0B1
:100494001BA203D058EC00F031D0000E0F6E2AD00E
:1004A4000F500924306E000E0A20316E080E3024DD
:1004B400D96E000E3120DA6EDF5052EC01F00F508D
:1004C4000924306E000E0A20316E080E3024D96ED5
:1004D400000E3120DA6EDF50326E32500326000EE9
:1004E4000422432B4351D8A404D0442B4451D8B400
:1004F400452B0F2A10500F5CD8A0D2D7300E1918F4
:10050400D8A466D020EE01F00950D9260A50DA2288
:10051400DFA830D001016CA1FDD770C107F571C10E
:1005240008F5000E0F6E0F500724306E000E0820E1
:10053400316E080E3024D96E000E3120DA6E3BEC99
:1005440000F0DF6EF62AF650D8A404D0F72AF7504C
:10055400D8B4F82A0F2A080E0F64E5D720EE04F069
:100564000750D9260850DA22180EDF6E010EDDEC92
:1005740000F02ED0000E0F6E27D004000F50092477
:10058400306E000E0A20316E080E3024D96E000E33
:100594003120DA6EDF5067EC00F00F500924306E22
:1005A400000E0A20316E080E3024D96E000E312060
:1005B400DA6EDF50326E32500326000E0422F62A21
:1005C400F650D8B4F72A0F2A10500F5CD8A0D5D70C
:1005D400380E1918D8A461D020EE01F00950D9269C
:1005E4000A50DA22DFA82CD001016CA1FDD770C11A
:1005F40007F571C108F5000E0F6E0F500724306E19
:10060400000E0820316E080E3024D96E000E312001
:10061400DA6E3EEC00F0DF6E432B4351D8B4442B2A
:100624000F2A080E0F64E9D720EE04F00750D926EC
:100634000850DA22180EDF6E010EDDEC00F02DD02A
:10064400000E0F6E26D00F500924306E000E0A20C3
:10065400316E080E3024D96E000E3120DA6EDF5070
:10066400A8EC00F00F500924306E000E0A20316E01
:10067400080E3024D96E000E3120DA6EDF50326E4F
:1006840032500326000E0422432B4351D8B4442B8A
:100694000F2A10500F5CD8A0D6D720EE01F00950D5
:1006A400D9260A50DA22DFA81BA89CD001016CA12C
:1006B400FDD770C107F571C108F520EE08F00750A9
:1006C400D9260850DA22010EDF6E20EE04F007501E
:1006D400D9260850DA22110EDF6E000EDDEC00F090
:1006E40081D0C1EC00F0170E056E050E066E080EE3
:1006F4000924016E000E0A20026E000E0F6E0FD048
:1007040001C5D9F402C5DAF405C5E1F406C5E2F47D
:10071400DFC4E7F4054A062A014A022A0F2A1050C8
:100724000F5CD8A0EDD71C04D8A40CD0380E00015F
:10073400456F030E446F4369000EA8EC00F0BF9CA4
:10074400BF9EFF00020E1C18D8A404D0000E046E35
:10075400000E036E030E1C18D8A426D001016CA150
:10076400FDD770C107F571C108F520EE08F00750F8
:10077400D9260850DA2203501D24306E04501E205E
:10078400316E30503110D8A402D0010E01D0000EC9
:10079400DF6E20EE04F00750D9260850DA22110E3D
:1007A400DF6E000EDDEC00F0040E1C18D8A41AD085
:1007B40001016CA1FDD770C107F571C108F520EEE8
:1007C40008F00750D9260850DA22020EDF6E20EE18
:1007D40004F00750D9260850DA22110EDF6E000EFD
:1007E400DDEC00F001017581E7D5424C5F564552BE
:0707F40053494F4E3D030184
:0807FC007BEF00F001EF05F0B6
:10082000A56120FF147F040B1701000800000000E1
:100830000000010B000000001400480800005703EE
:080848004D494F202020200043
:1009000031033103310331033103310311773103F3
:100910003103310331033103310331033103310337
:100920003103310331033103310331033103310327
:100930003103310331033103B07531033103B502A3
:100940003103310331033103310331033103310307
:100950003103310331033103857531033103310331
:1009600031033103310331033103310331033103E7
:100970003103310331033103800231033103310389
:1009800031033103310331033103310331033103C7
:100990003103310331033103800231033103310369
:1009A00031033103310331033103310331033103A7
:1009B0003103310331033103310331033103310397
:1009C0003103310331033103310331033103310387
:1009D0003103310331033103310331033103310377
:1009E0008002310331033103310331033103310319
:1009F0003103310331033103310331033103310357
:100A0000FF00B5EFE3F003011EA109EF05F00BEFC6
:100A100005F00EEF05F0000E18EF05F02AA113EF18
:100A200005F015EF05F017EF05F00BEF05F0010EDF
:100A30001200196E22EF05F0010E2DEF05F0000EE9
:100A40002DEF05F01950000AD8B41CEF05F0010A8B
:100A5000D8B41CEF05F01FEF05F01200196E37EF48
:100A600005F0010E42EF05F0000E42EF05F01950BF
:100A7000000AD8B431EF05F0010AD8B431EF05F01F
:100A800034EF05F01200196E640E1924D96EDA6A7B
:100A9000070EDA22DF6A1950020D000EF324D96E18
:100AA000060EF420DA6EDE6ADD6A12001D501F02A7
:100AB000F3C421F5F4C422F51D502002F350222680
:100AC0001E501F02F350222621C51DF522C51EF51A
:020AD000120012
:100AD400B1AE6FEF05F071EF05F07CEF05F0B19E5C
:100AE400362A3650D8A479EF05F07BEF05F07CEF79
:100AF40005F0352A11002C6E400E2C24D96EDA6ACA
:100B0400060EDA222BC5DFF4CC0E2C24D96EDA6A59
:100B1400050EDA222BC5DFF41200196E600E1924BB
:100B2400D96EDA6A060EDA22FC0EDF16600E19247C
:100B3400D96EDA6A060EDA220601DF941200196E03
:100B4400AAEF05F07F0EB1EF05F0000EB1EF05F04E
:100B54001950010AD8B4A4EF05F0A7EF05F012006C
:100B6400196EBBEF05F0020EC2EF05F0000EC2EFE6
:100B740005F01950010AD8B4B5EF05F0B8EF05F047
:100B840012000501675166196B6F695168196A6F24
:100B94006B51070DF3506A256B6F1F0E6B176B516A
:100BA4001200000E3A6EFE0E0501606F030E616FB7
:100BB400000E626F3AC563F5000EC6ECE9F0120050
:100BC400040E99ECE2F01D6E840E1E6ECB0E1F6EA9
:100BD400010E206E020E93ECE9F01200050E99EC62
:100BE400E2F01D6E080E1E6E920E1F6E010E206E38
:100BF400010E93ECE9F01200000E346E000E456E07
:100C0400080E466E000E476E000EF86E0001419FFE
:100C1400120003EC05F00009D8A413EF06F016EF58
:100C240006F0010E17EF06F0000E120077C573F5FB
:100C340078C574F579C575F5090E0501766F2FEC45
:100C4400E0F012000601CC29D8B42BEF06F02DEF0A
:100C540006F02EEF06F0CC2B12001950010AD8B47E
:100C640036EF06F036EF06F0120001010239E832E1
:100C7400070B1200196E19C5ECF51200000E7AEC80
:100C8400D4F012000501EF691200196E1904120064
:100C9400196E192812009AECC2F01200000E3D6E73
:100CA4001200010E3D6E120085ECEAF01200DFEC3A
:0E0CB400EAF01200000E1200000E12001200F4
:020CC40011001D
:10FD94000001010302020202030202030100000146
:10FDA400010101010101010101010101010101013F
:10FDB400010101010101010101010101010101012F
:10FDC400010101010101010101010101010101011F
:10FDD4000001010101010101010100010100000014
:10FDE400000000000000000000000000000001010D
:10FDF40001010103010101010101010100000000F1
:10FE040000000000010001010101010100010101E4
:10FE140001010101000101010101010001000000D3
:10FE240000000000000000000000000000010101CB
:10FE340001010101010101010000010100000000B4
:10FE440000000000010000010101000000010101A7
:10FE54000101010100010101010101010100000092
:10FE64000000000101000001010100000001010087
:10FE74000101010000010001010101010000000075
:10FE8400000000000000000000000001000000006D
:10FE9400000B4300FF0C4301FF0D4302FF0E43031D
:10FEA400FF0F4304FF104305FF114306FF124307EE
:10FEB400FF1542000A16420108194204091A4205B4
:10FEC400FF0341010102410000054103030741050D
:10FED40004E4FFD0FFBCFFA8FF94FF80FF6CFF5831
:10FEE400FF44FF424C5F56455253494F4E3D0B0A67
:10FEF40009080000060404000000010600000000D8
:10FF04000002068080EBEB000306807F40033C0484
:10FF140006038080800005068010000000060600AD
:10FF24007B2007FF07060500000000080000000012
:10FF340000000000000000000000000000000000BD
:10FF44000901000000A2DB013E7601000000000070
:10FF540000CCDD01080100000000000000000000EA
:10FF6400000000000000000005010000006CDB013F
:10FF7400887301000000320A003CDD010601000024
:10FF84000014D7019E3C010000005C0A00FCDD0166
:10FF94000401B20C0008DA014C29010000000CDD58
:10FFA400012CDE010A020000001AA70142B501007B
:10FFB400000078DC0100000002013ED901C2DA0130
:10FFC400A45F01000000420B006CDD01010168CD5B
:10FFD400012296014411016841010000009CDD01E9
:10FFE4000302A60B00A48A019AAB019A0C00640BCD
:0BFFF4000070BE01724F01447D01004F
:020000040001F9
:10000000000E0501856FFBEF87F005018551070D97
:10001000F350120FB3ECEBF01950236E246A000E6C
:10002000266E020E256E3FECDAF023C57AF524C564
:100030007BF505018551070DF350130FB3ECEBF081
:100040001950236E246A000E266E020E256E3FECB8
:10005000DAF0235005017A25846F000E836FF1EFEB
:1000600082F08551070DF350120FB3ECEBF0CC0E7C
:1000700005018525D96EDA6A050EDA22DF507A6F1E
:100080007B6B19507A1907E11A507B19D8A44BEFF2
:1000900080F04DEF80F05FEF80F08551070DF35059
:1000A000110FB3ECEBF01950400B0501726F855145
:1000B000040DF350080F9DECD1F06FEF80F08551E7
:1000C000070DF350110FB3ECEBF01950400B050185
:1000D000726F8551040DF3500A0F9DECD1F0300E74
:1000E00005018525D96EDA6A060EDA22020EDF6E68
:1000F000400E8525D96EDA6A060EDA22CC0E8525E9
:10010000E16EE26A050EE222DE50E65CD8B08BEFCB
:1001100080F08DEF80F073EF81F0CC0E8525D96EE5
:10012000DA6A050EDA228451DE5CD8B09AEF80F0EC
:100130009CEF80F09EEF80F0010E836F200E8525EE
:10014000D96EDA6A060EDA22DF50D8B4AAEF80F050
:10015000ACEF80F0E8EF80F0CC0E8525D96EDA6A3E
:10016000050EDA22200E8525E16EE26A060EE222F5
:10017000E7507B6FCC0E8525E16EE26A050EE22228
:10018000E7507B257C6FDE507C5DD8B0CAEF80F0F5
:10019000CCEF80F0D6EF80F0CC0E8525D96EDA6AF0
:1001A000050EDA22FF0EDF6E20EF81F0200E85258E
:1001B000D96EDA6A060EDA22DF507A6FCC0E852508
:1001C000D96EDA6A050EDA227A51DF2620EF81F045
:1001D000840E8525D96EDA6A070EDA22DF06840ED0
:1001E0008525D96EDA6A070EDA22DF50D8A4FBEF34
:1001F00080F0FDEF80F020EF81F0CC0E8525D96EE8
:10020000DA6A050EDA22DE28D8B409EF81F00BEFA6
:1002100081F012EF81F0CC0E8525D96EDA6A050ED9
:10022000DA22DF2A940E8525D96EDA6A070EDA22E1
:10023000840E8525E16EE26A070EE222DFC4E7F450
:10024000CC0E8525D96EDA6A050EDA22400E852598
:10025000E16EE26A060EE222DE50E65CD8B033EFD1
:1002600081F035EF81F043EF81F0400E8525D96EA6
:10027000DA6A060EDA22CC0E8525E16EE26A050EF8
:10028000E222DFC4E7F4CC0E8525D96EDA6A050ECA
:10029000DA228451DE5CD8A050EF81F052EF81F079
:1002A00059EF82F08351D8B458EF81F05AEF81F0C2
:1002B00059EF82F08551070DF350110FB3ECEBF0BD
:1002C00019AC65EF81F068EF81F0010E69EF81F004
:1002D000000E0501726F8551040DF350090F9DEC5E
:1002E000D1F059EF82F0CC0E8525D96EDA6A050E71
:1002F000DA22400E8525E16EE26A060EE222DE5029
:10030000E65CD8B086EF81F088EF81F059EF82F09B
:10031000CC0E8525D96EDA6A050EDA22DE50845DB0
:10032000D8B095EF81F097EF81F099EF81F0010E51
:10033000836F200E8525D96EDA6A060EDA22DF5029
:10034000D8B4A5EF81F0A7EF81F0D7EF81F0CC0E04
:100350008525D96EDA6A050EDA22200E8525E16E32
:10036000E26A060EE222DE50E65CD8A0BAEF81F027
:10037000BCEF81F0C5EF81F0CC0E8525D96EDA6A2D
:10038000050EDA22DF6A0FEF82F0200E8525D96E86
:10039000DA6A060EDA22DF507A6FCC0E8525D96E26
:1003A000DA6A050EDA227A51DF5E0FEF82F0840EF0
:1003B0008525D96EDA6A070EDA22DF06840E8525D6
:1003C000D96EDA6A070EDA22DF50D8A4EAEF81F09C
:1003D000ECEF81F00FEF82F0CC0E8525D96EDA6A52
:1003E000050EDA22DF50D8B4F8EF81F0FAEF81F091
:1003F00001EF82F0CC0E8525D96EDA6A050EDA227D
:10040000DF06940E8525D96EDA6A070EDA22840E8D
:100410008525E16EE26A070EE222DFC4E7F4400EB2
:100420008525D96EDA6A060EDA22CC0E8525E16EB4
:10043000E26A050EE222DE50E65CD8B022EF82F0DE
:1004400024EF82F032EF82F0400E8525D96EDA6A11
:10045000060EDA22CC0E8525E16EE26A050EE22256
:10046000DFC4E7F4CC0E8525D96EDA6A050EDA22F0
:10047000DE50845DD8A03FEF82F041EF82F059EF6B
:1004800082F08351D8B447EF82F049EF82F059EF00
:1004900082F08551070DF350110FB3ECEBF01950BA
:1004A000400B0501726F8551040DF350090F9DEC4F
:1004B000D1F0CC0E05018525D96EDA6A050EDA2257
:1004C000400E8525E16EE26A060EE222DE50E61855
:1004D000D8A46DEF82F06FEF82F073EF88F0300EEA
:1004E0008525D96EDA6A060EDA22010EDF6E79EC06
:1004F000E6F005018551040D000EF324D96E070EB8
:10050000F420DA6E19C5DEF41AC5DEF41BC5DEF47C
:100510001CC5DEF48551070DF350120FB3ECEBF060
:10052000CC0E05018525D96EDA6A050EDA22DF5078
:100530007A6F7B6B19507A1907E11A507B19D8A48E
:10054000A4EF82F0A6EF82F0BFEF82F08551070D95
:10055000F350110FB3ECEBF019ACB1EF82F0B4EF44
:1005600082F0010EB5EF82F0000E0501726F855129
:10057000040DF350080F9DECD1F0D6EF82F08551B9
:10058000070DF350110FB3ECEBF019ACCAEF82F08A
:10059000CDEF82F0010ECEEF82F0000E0501726FFA
:1005A0008551040DF3500A0F9DECD1F005018551E2
:1005B0007A6F7B6B7C6BDE0E7A25606F030E7B217E
:1005C000616F000E7C21626FCC0E8525D96EDA6AD0
:1005D000050EDA22DF50636F000EC6ECE9F073EF10
:1005E00088F0300E8525D96EDA6A060EDA22DF50E1
:1005F0007A6F7B6B7B51000AD8B401EF83F073EF05
:1006000088F07A51000AD8B417EF88F0010AD8B4FC
:1006100017EF88F0030AD8B478EF80F0010AD8B455
:1006200031EF80F073EF88F0855143EC05F0300E28
:1006300005018525D96EDA6A060EDA22020EDF6E12
:10064000740E8525D96EDA6A070EDA22DF6A740E17
:100650008525D96EDA6A070EDA22DF2A740E85251F
:10066000D96EDA6A070EDA22DE28D8A43AEF83F0D0
:100670003CEF83F097EF83F0300E8525D96EDA6A70
:10068000060EDA22010EDF6E79ECE6F005018551E7
:10069000040D000EF324D96E070EF420DA6E19C58E
:1006A000DEF41AC5DEF41BC5DEF41CC5DEF4400E14
:1006B0008525D96EDA6A060EDA22CC0E8525E16E22
:1006C000E26A050EE222DFC4E7F48551070DF3501C
:1006D000110FB3ECEBF019AC70EF83F073EF83F014
:1006E000010E74EF83F0000E0501726F8551040D49
:1006F000F350080F9DECD1F0050185517A6F7B6BAB
:100700007C6BDE0E7A25606F030E7B21616F000E1D
:100710007C21626FCC0E8525D96EDA6A050EDA224D
:10072000DF50636F000EC6ECE9F073EF88F085517F
:10073000070DF350120FB3ECEBF019500501826F67
:10074000400E8525D96EDA6A060EDA228251DE184D
:10075000D8A4ADEF83F0AFEF83F016EF84F08551AE
:10076000CBECB6F00009D8B4B8EF83F0BAEF83F061
:1007700073EF88F0300E05018525D96EDA6A060E12
:10078000DA22010EDF6E79ECE6F005018551040DE9
:10079000000EF324D96E070EF420DA6E19C5DEF4CC
:1007A0001AC5DEF41BC5DEF41CC5DEF4400E85253B
:1007B000D96EDA6A060EDA22CC0E8525E16EE26A7F
:1007C000050EE222DFC4E7F48551070DF350110F47
:1007D000B3ECEBF019ACEFEF83F0F2EF83F0010E26
:1007E000F3EF83F0000E0501726F8551040DF35095
:1007F000080F9DECD1F0050185517A6F7B6B7C6B06
:10080000DE0E7A25606F030E7B21616F000E7C2166
:10081000626FCC0E8525D96EDA6A050EDA22DF50BA
:10082000636F000EC6ECE9F073EF88F0855117ECAA
:10083000A3F00009D8B41FEF84F021EF84F073EF28
:1008400088F0300E05018525D96EDA6A060EDA22A7
:10085000010EDF6E79ECE6F005018551040D000E06
:10086000F324D96E070EF420DA6E19C5DEF41AC52A
:10087000DEF41BC5DEF41CC5DEF4400E8525D96E02
:10088000DA6A060EDA22CC0E8525E16EE26A050EE2
:10089000E222DFC4E7F48551070DF350110FB3ECEA
:1008A000EBF01950400B0501726F8551040DF350A8
:1008B000080F9DECD1F0050185517A6F7B6B7C6B45
:1008C000DE0E7A25606F030E7B21616F000E7C21A6
:1008D000626FCC0E8525D96EDA6A050EDA22DF50FA
:1008E000636F000EC6ECE9F073EF88F0300E05017F
:1008F0008525D96EDA6A060EDA22DF507A6F7B6BB5
:100900007B51000AD8B487EF84F073EF88F07A51F6
:10091000000AD8B417EF88F0010AD8B473EF88F052
:10092000030AD8B427EF83F0010AD8B414EF83F098
:1009300073EF88F08551070DF350130FB3ECEBF014
:10094000CC0E05018525D96EDA6A050EDA22DF5054
:100950007A6F7B6B19507A1907E11A507B19D8A46A
:10096000B4EF84F0B6EF84F0C6EF84F08551070D44
:10097000F350110FB3ECEBF01950400B0501726FFF
:100980008551040DF350080F9DECD1F00501855100
:10099000070DF350140FB3ECEBF0CC0E05018525D9
:1009A000D96EDA6A050EDA22DF507A6F7B6B195046
:1009B0007A1907E11A507B19D8A4E1EF84F0E3EF2C
:1009C00084F0F3EF84F08551070DF350110FB3EC71
:1009D000EBF01950400B0501726F8551040DF35077
:1009E000090F9DECD1F005018551070DF350150F4E
:1009F000B3ECEBF0CC0E05018525D96EDA6A050E55
:100A0000DA22DF507A6F7B6B19507A1907E11A509E
:100A10007B19D8A40EEF85F010EF85F020EF85F05C
:100A20008551070DF350110FB3ECEBF01950400B4B
:100A30000501726F8551040DF3500A0F9DECD1F042
:100A400005018551070DF350160FB3ECEBF0CC0EFA
:100A500005018525D96EDA6A050EDA22DF507A6F34
:100A60007B6B19507A1907E11A507B19D8A43BEF18
:100A700085F03DEF85F04DEF85F08551070DF35082
:100A8000110FB3ECEBF01950400B0501726F85515B
:100A9000040DF3500B0F9DECD1F0300E05018525B0
:100AA000D96EDA6A060EDA22020EDF6E400E852556
:100AB000D96EDA6A060EDA22CC0E8525E16EE26A7C
:100AC000050EE222DE50E65CD8B069EF85F06BEFF0
:100AD00085F011EF86F0200E8525D96EDA6A060EB4
:100AE000DA22DF50D8B477EF85F079EF85F0C2EFE6
:100AF00085F0CC0E8525D96EDA6A050EDA22DF5034
:100B00007A6F7B6BCC0E8525D96EDA6A050EDA22F8
:100B1000DF507C6F7D6B200E8525D96EDA6A060E5C
:100B2000DA22DF507E6F7E517C27000E7D237A51C2
:100B30007C5D7D51800A7F6F7B51800A7F59D8B0E0
:100B4000A4EF85F0A6EF85F0B0EF85F0CC0E8525FB
:100B5000D96EDA6A050EDA22FF0EDF6EECEF85F051
:100B6000200E8525D96EDA6A060EDA22DF507A6FFA
:100B7000CC0E8525D96EDA6A050EDA227A51DF2687
:100B8000ECEF85F0840E8525D96EDA6A070EDA223D
:100B9000DF06840E8525D96EDA6A070EDA22DF5069
:100BA000D8A4D5EF85F0D7EF85F0ECEF85F0CC0E2B
:100BB0008525D96EDA6A050EDA22DF2A940E85259C
:100BC000D96EDA6A070EDA22840E8525E16EE26AB2
:100BD000070EE222DFC4E7F4CC0E8525D96EDA6A6F
:100BE000050EDA22400E8525E16EE26A060EE2224B
:100BF000DE50E65CD8B0FFEF85F001EF86F0BDEF88
:100C000086F0400E8525D96EDA6A060EDA22CC0E01
:100C10008525E16EE26A050EE222DFC4E7F4BDEF4E
:100C200086F0CC0E8525D96EDA6A050EDA22400EE2
:100C30008525E16EE26A060EE222DE50E65CD8B05F
:100C400024EF86F026EF86F0BDEF86F0200E852596
:100C5000D96EDA6A060EDA22DF50D8B432EF86F0A7
:100C600034EF86F07CEF86F0CC0E8525D96EDA6AFB
:100C7000050EDA22DF507A6F7B6B200E8525D96E48
:100C8000DA6A060EDA22DF507C6F7C517A5F000E42
:100C90007B5BCC0E8525D96EDA6A050EDA22DF5031
:100CA0007D6F7E6B7A517D5D7E51800A7F6F7B51B7
:100CB000800A7F59D8B05FEF86F061EF86F06AEF67
:100CC00086F0CC0E8525D96EDA6A050EDA22DF6A47
:100CD000A6EF86F0200E8525D96EDA6A060EDA2296
:100CE000DF507A6FCC0E8525D96EDA6A050EDA22CE
:100CF0007A51DF5EA6EF86F0840E8525D96EDA6A1A
:100D0000070EDA22DF06840E8525D96EDA6A070E11
:100D1000DA22DF50D8A48FEF86F091EF86F0A6EFAD
:100D200086F0CC0E8525D96EDA6A050EDA22DF064A
:100D3000940E8525D96EDA6A070EDA22840E85258F
:100D4000E16EE26A070EE222DFC4E7F4400E852579
:100D5000D96EDA6A060EDA22CC0E8525E16EE26AD9
:100D6000050EE222DE50E65CD8B0B9EF86F0BBEFAC
:100D700086F0BDEF86F001EF86F0CC0E8525D96EAA
:100D8000DA6A050EDA22400E8525E16EE26A060E69
:100D9000E222DE50E618D8A4D0EF86F0D2EF86F03B
:100DA00073EF88F0300E8525D96EDA6A060EDA22E6
:100DB000010EDF6E79ECE6F005018551040D000EA1
:100DC000F324D96E070EF420DA6E19C5DEF41AC5C5
:100DD000DEF41BC5DEF41CC5DEF48551070DF350AF
:100DE000130FB3ECEBF0CC0E05018525D96EDA6A52
:100DF000050EDA22DF507A6F7B6B19507A1907E102
:100E00001A507B19D8A407EF87F009EF87F020EF7D
:100E100087F08551070DF350110FB3ECEBF019ACCF
:100E200014EF87F017EF87F0010E18EF87F0000E30
:100E30000501726F8551040DF350080F9DECD1F040
:100E400005018551070DF350140FB3ECEBF0CC0EF8
:100E500005018525D96EDA6A050EDA22DF507A6F30
:100E60007B6B19507A1907E11A507B19D8A43BEF14
:100E700087F03DEF87F054EF87F08551070DF35071
:100E8000110FB3ECEBF019AC48EF87F04BEF87F0A4
:100E9000010E4CEF87F0000E0501726F8551040DB5
:100EA000F350090F9DECD1F005018551070DF3506A
:100EB000150FB3ECEBF0CC0E05018525D96EDA6A7F
:100EC000050EDA22DF507A6F7B6B19507A1907E131
:100ED0001A507B19D8A46FEF87F071EF87F088EF75
:100EE00087F08551070DF350110FB3ECEBF019ACFF
:100EF0007CEF87F07FEF87F0010E80EF87F0000E28
:100F00000501726F8551040DF3500A0F9DECD1F06D
:100F100005018551070DF350160FB3ECEBF0CC0E25
:100F200005018525D96EDA6A050EDA22DF507A6F5F
:100F30007B6B19507A1907E11A507B19D8A4A3EFDB
:100F400087F0A5EF87F0BCEF87F08551070DF350D0
:100F5000110FB3ECEBF019ACB0EF87F0B3EF87F003
:100F6000010EB4EF87F0000E0501726F8551040D7C
:100F7000F3500B0F9DECD1F0050185517A6F7B6B1F
:100F80007C6BDE0E7A25606F030E7B21616F000E95
:100F90007C21626FCC0E8525D96EDA6A050EDA22C5
:100FA000DF50636F000EC6ECE9F073EF88F0300E8F
:100FB00005018525D96EDA6A060EDA22DF507A6FCE
:100FC0007B6B7B51000AD8B4E8EF87F073EF88F0B1
:100FD0007A51000AD8B417EF88F0010AD8B473EF39
:100FE00088F0030AD8B456EF85F0010AD8B49AEF16
:100FF00084F073EF88F08551070DF350100FB3ECB8
:10100000EBF01A50000AD8B408EF88F073EF88F0BC
:101010001950020AD8B405EF80F0010AD8B476EF6F
:1010200084F0070AD8B4D7EF87F073EF88F073EF36
:1010300088F08551070DF350110FB3ECEBF019A2B6
:1010400024EF88F026EF88F097EF88F005018551AE
:10105000040D000EF324D96E070EF420DA6EDEC400
:101060007AF5DEC47BF5DEC47CF5DEC47DF579EC73
:10107000E6F005017A51195C7E6F7B511A587F6F3B
:101080007C511B58806F7D511C58816F815180119C
:101090000BE1250E7E5DF40E7F59D8A052EF88F04B
:1010A00054EF88F097EF88F0300E8525D96EDA6A14
:1010B000060EDA22DF6A97EF88F08551070DF350AC
:1010C000110FB3ECEBF019AA68EF88F06BEF88F022
:1010D000010E6CEF88F0000E1D6E05018551A3EC2A
:1010E000BFF097EF88F0300E05018525D96EDA6ADA
:1010F000060EDA22DF507A6F7B6B7B51000AD8B480
:1011000084EF88F097EF88F07A51000AD8B45DEF49
:1011100088F0010AD8B419EF88F0030AD8B497EF21
:1011200088F0010AD8B497EF88F097EF88F00501AE
:10113000852B0F0E85659FEF88F0A1EF88F0FBEF00
:1011400087F012003850D8A4A8EF88F0AAEF88F0F2
:1011500002EF8AF06DEF89F0B9C5D9F4BAC5DAF4B7
:10116000030EDF60B6EF88F0B8EF88F0C8EF88F0C4
:10117000E8C56EF5E7C56FF5420E0501706F010E0B
:10118000716F010E726FAF0EB4ECEFF000EF89F0EB
:10119000050120EE02F0B951D926BA51DA22DF500A
:1011A000E86F20EE03F0B951D926BA51DA22DF50A8
:1011B000E76FFD0E606F030E616F000E626FE8C592
:1011C00063F5000EC6ECE9F0FC0E0501606F030E3E
:1011D000616F000E626FE7C563F5000EC6ECE9F0C3
:1011E000010E386E1AECC6F0E8C52EF5E7C52FF5EE
:1011F000520E45ECEFF00601D44BD52BC2ECECF0CF
:10120000010EFFEF8EF0A50E05016E6F610E6F6F80
:10121000200E706FFF0E716F140E726F7F0E736F62
:10122000040E746FEF0ECAECEFF000EF89F0480E79
:10123000F66E080EF76E000EF86E0800F5C46EF537
:10124000490EF66E080EF76E000EF86E0800F5C433
:101250006FF54A0EF66E080EF76E000EF86E080077
:10126000F5C470F54B0EF66E080EF76E000EF86EB4
:101270000800F5C471F54C0EF66E080EF76E000E00
:10128000F86E0800F5C472F54D0EF66E080EF76E96
:10129000000EF86E0800F5C473F54E0EF66E080EDB
:1012A000F76E000EF86E0800F5C474F5E20ECAEC95
:1012B000EFF000EF89F0000E05016E6F000E6F6F0A
:1012C000A50E706F200E716F70ECE3F00501726F68
:1012D000B60EB4ECEFF000EF89F0050120EE01F05E
:1012E000B951D926BA51DA22DF500701E46FE56B14
:1012F000E551000AD8B47FEF89F092EF89F0E4510C
:101300000D0AD8B45BEF89F01D0AD8B403EF89F059
:10131000010AD8B417EF89F0530AD8B4ACEF88F0BB
:1013200092EF89F0000EFFEF8EF0E8C56EF5E7C58D
:101330006FF5A50E0501706F200E716F70ECE3F074
:101340000501726FB60EB4ECEFF000EF89F0B9C58D
:10135000D9F4BAC5DAF4040EDF60B1EF89F0B3EF67
:1013600089F0C3EF89F0E8C56EF5E7C56FF5760E35
:101370000501706F010E716F010E726FAF0EB4EC4C
:10138000EFF000EF89F0050120EE02F0B951D92607
:10139000BA51DA22DF50D8A4D0EF89F0D2EF89F029
:1013A0001FEF8AF020EE03F0B951D926BA51DA22A4
:1013B000DF50D8A4DEEF89F0E0EF89F01FEF8AF06C
:1013C00020EE04F0B951D926BA51DA22DF50BF6FAE
:1013D0000C0EBF19D8A4EFEF89F0F1EF89F0F4EF0C
:1013E00089F0F68500EF89F00D0EBF19D8A4FBEF48
:1013F00089F0FDEF89F000EF8AF0F69500EF89F0B3
:101400001FEF8AF0050120EE01F0B951D926BA513B
:10141000DA22DF500701E46FE56BE551000AD8B42A
:1014200014EF8AF01FEF8AF0E4510D0AD8B495EF5B
:1014300089F07B0AD8B4A7EF89F01FEF8AF0B9C50D
:10144000D9F4BAC5DAF4030EDF6029EF8AF02BEF86
:101450008AF02DEF8AF092EF89F0050120EE02F07C
:10146000B951D926BA51DA22DE50E819D8B43BEF87
:101470008AF03DEF8AF03FEF8AF092EF89F020EE9C
:1014800003F0B951D926BA51DA22E751DE18D8B49F
:101490004CEF8AF04EEF8AF0D3EF8EF092EF89F0A6
:1014A000B9C5D9F4BAC5DAF4040EDF605AEF8AF090
:1014B0005CEF8AF06CEF8AF0E8C56EF5E7C56FF572
:1014C000730E0501706F010E716F010E726FAF0E1A
:1014D000B4ECEFF000EF89F0050120EE04F0B95113
:1014E000D926BA51DA22140EDF6479EF8AF07BEF45
:1014F0008AF094EF8AF0E8C56EF5E7C56FF5090E3E
:10150000706F6F0E88ECEFF0E8C56EF5E7C56FF50C
:10151000730E0501706F010E716F090E726FAF0EC1
:10152000B4ECEFF000EF89F020EE04F0B951D926C9
:10153000BA51DA22DF504EECC8F00501BB6FE8C5A6
:101540006EF5E7C56FF520EE04F0B951D926BA5112
:10155000DA22DF50706FBBC571F59B0EE0ECEFF047
:10156000050120EE04F0B951D926BA51DA22DF5034
:10157000D8A4BDEF8AF0BFEF8AF000EF89F0010E2A
:1015800099ECE2F01D6EFC0E1E6EDA0E1F6E010E5F
:10159000206E070E93ECE9F000EF89F0E7C5E3F564
:1015A000E8C5E4F599ECCEF00501E351E411D8B4B7
:1015B000DCEF8AF0DEEF8AF0E5EF8AF0E4C52EF585
:1015C000E3C52FF5510E45ECEFF0FF00B9C5D9F496
:1015D000BAC5DAF4050EDF60F0EF8AF0F2EF8AF0B8
:1015E00002EF8BF0E8C56EF5E7C56FF5870E0501D4
:1015F000706F010E716F010E726FAF0EB4ECEFF0F1
:1016000000EF89F0050120EE04F0B951D926BA5156
:10161000DA22DF50D8A40FEF8BF011EF8BF01EEF22
:101620008BF0000E1D6EDA0E1E6E990E1F6E010EEF
:10163000206E040E93ECE9F000EF89F020EE04F048
:10164000B951D926BA51DA22090EDF642AEF8BF09C
:101650002CEF8BF03BEF8BF0E8C56EF5E7C56FF52F
:10166000870E706F010E716FFC0E726FAF0EB4ECCF
:10167000EFF000EF89F020EE04F0B951D926BA510D
:10168000DA22DF500701E46FE56BD890E437E537E5
:10169000FE0EE425E66FFF0EE521E76FD50EE62589
:1016A000F66EFE0EE721F76EF86A000EF8220900CA
:1016B000F5C4E8F70900F5C4E9F7110EE827000EB4
:1016C000E923E8C7F6F4E9C7F7F4000EF86E09005D
:1016D000F5500900F5100900F510D8A472EF8BF051
:1016E00074EF8BF088EF8BF0E8C56EF5E7C56FF50A
:1016F000870E0501706F20EE04F0B951D926BA515A
:10170000DA22DF50716F000E726FC70EB4ECEFF08B
:10171000050120EE05F0B951D926BA51DA22DF5081
:10172000D8A495EF8BF097EF8BF0AAEF8BF020EE1B
:1017300004F0B951D926BA51DA22DF501D6EDA0E03
:101740001E6E990E1F6E010E206E040E93ECE9F0D2
:1017500000EF89F020EE04F0B951D926BA51DA220F
:10176000DF500701E46FE56BD890E437E537FE0EF4
:10177000E425E66FFF0EE521E76FD50EE625F66E50
:10178000FE0EE721F76EF86A000EF8220900F5C494
:10179000E8F70900F5C4E9F7110EE827000EE92380
:1017A000E8C7F6F4E9C7F7F4000EF86E02D8EEEFDA
:1017B0008BF00500FA6E0900F550FD6E0900F5503A
:1017C000FE6E0900F550FF6EFA50050120EE05F09F
:1017D000B951D926BA51DA22DF5012001FC5BDF522
:1017E00020C5BEF50501BD51BE11D8A4FAEF8BF09E
:1017F000FCEF8BF00BEF8CF0E8C56EF5E7C56FF5ED
:10180000870E706F010E716FFD0E726FAF0EB4EC2C
:10181000EFF000EF89F0E8C56EF5E7C56FF520EE53
:1018200004F0B951D926BA51DA22DF50706F20EE98
:1018300005F0B951D926BA51DA22DF50716F20EE86
:1018400001F0BD51D926BE51DA22DF50726FBDC5FD
:10185000D9F4BEC5DAF4DF50736FC70E72ECEFF047
:1018600000EF89F0B9C5D9F4BAC5DAF4040EDF6027
:101870003CEF8CF03EEF8CF04EEF8CF0E8C56EF54F
:10188000E7C56FF5780E0501706F010E716F010EDF
:10189000726FAF0EB4ECEFF000EF89F0050120EEAF
:1018A00004F0B951D926BA51DA22DF50D8A45BEF3F
:1018B0008CF05DEF8CF077EF8CF0E8C56EF5E7C546
:1018C0006FF5000E706F000E716F090E726FAC0E27
:1018D000B4ECEFF0010E1D6E9C0E1E6EC10E1F6E5D
:1018E000010E206E030E93ECE9F000EF89F020EE7C
:1018F00004F0B951D926BA51DA22090EDF6483EF18
:101900008CF085EF8CF094EF8CF0E8C56EF5E7C5B0
:101910006FF5780E706F010E716FFC0E726FAF0E67
:10192000B4ECEFF000EF89F020EE04F0B951D926C5
:10193000BA51DA22DF500701E46FE56BD890E43743
:10194000E537FE0EE425E66FFF0EE521E76FD50EC5
:10195000E625F66EFE0EE721F76EF86A000EF82215
:101960000900F5C4E8F70900F5C4E9F70E0EE82709
:10197000000EE923E8C7F6F4E9C7F7F4000EF86EA5
:101980000900F5500900F5100900F510D8A4CBEFB7
:101990008CF0CDEF8CF011EF8DF0E8C56EF5E7C55A
:1019A0006FF5050120EE04F0B951D926BA51DA22BB
:1019B000DF50706F20EE04F0B951D926BA51DA2207
:1019C000DF500701E46FE56BD890E437E537FE0E92
:1019D000E425E66FFF0EE521E76FD50EE625F66EEE
:1019E000FE0EE721F76EF86A000EF8220900F5C432
:1019F000E8F70900F5C4E9F7E8C7F6F4E9C7F7F432
:101A0000000EF86E0800F5C471F5000E0501726F46
:101A1000000E736F000E746FE70ECAECEFF000EF6C
:101A200089F0E8C56EF5E7C56FF5050120EE04F015
:101A3000B951D926BA51DA22DF50706F20EE04F086
:101A4000B951D926BA51DA22DF500701E46FE56BAC
:101A5000D890E437E537FE0EE425E66FFF0EE5216A
:101A6000E76FD50EE625F66EFE0EE721F76EF86AF3
:101A7000000EF8220900F5C4E8F70900F5C4E9F7FB
:101A8000E8C7F6F4E9C7F7F4000EF86E0800F5C4ED
:101A900071F5050120EE04F0B951D926BA51DA22C8
:101AA000DF500701EA6FEB6BD890EA37EB37FE0E99
:101AB000EA25EC6FFF0EEB21ED6FD50EEC25F66EEF
:101AC000FE0EED21F76EF86A000EF8220900F5C44B
:101AD000EEF70900F5C4EFF70E0EEE27000EEF2328
:101AE000EEC7F6F4EFC7F7F4000EF86E02D887EFF2
:101AF0008DF00500FA6E0900F550FD6E0900F550F5
:101B0000FE6E0900F550FF6EFA50010E120005013D
:101B1000726F20EE04F0B951D926BA51DA22DF50A3
:101B20000701F06FF16BD890F037F137FE0EF0251A
:101B3000F26FFF0EF121F36FD50EF225F66EFE0E59
:101B4000F321F76EF86A000EF8220900F5C4F4F7E5
:101B50000900F5C4F5F70E0EF427000EF523F4C7BF
:101B6000F6F4F5C7F7F4000EF86E02D8C6EF8DF064
:101B70000500FA6E0900F550FD6E0900F550FE6E85
:101B80000900F550FF6EFA50020E12000501736F46
:101B900020EE04F0B951D926BA51DA22DF500701FC
:101BA000F66FF76BD890F637F737FE0EF625F86F1D
:101BB000FF0EF721F96FD50EF825F66EFE0EF9210E
:101BC000F76EF86A000EF8220900F5C4FAF709006A
:101BD000F5C4FBF70E0EFA27000EFB23FAC7F6F446
:101BE000FBC7F7F4000EF86E02D805EF8EF0050083
:101BF000FA6E0900F550FD6E0900F550FE6E090001
:101C0000F550FF6EFA50030E12000501746FE70ED7
:101C1000CAECEFF000EF89F0B9C5D9F4BAC5DAF42F
:101C2000040EDF6016EF8EF018EF8EF028EF8EF0C6
:101C3000E8C56EF5E7C56FF5760E0501706F010E0C
:101C4000716F010E726FAF0EB4ECEFF000EF89F020
:101C5000050120EE04F0B951D926BA51DA22DF503D
:101C6000BF6FE7C5E3F5E8C5E4F53804D8A43BEF5A
:101C70008EF03DEF8EF09EEF8EF0BF51D8B443EF63
:101C80008EF045EF8EF04DEF8EF0BF29D8A44BEFCC
:101C90008EF04DEF8EF09EEF8EF0BF51D8B453EF23
:101CA0008EF055EF8EF059EF8EF0510EBC6F5BEF5A
:101CB0008EF0500EBC6FE8C52EF5E7C52FF5BC5170
:101CC00045ECEFF0E8C56EF5E7C56FF5760E05015A
:101CD000706F010E716F000E726FAF0EB4ECEFF00B
:101CE000000E0501E86FE8C5E7F5FD0E606F030E15
:101CF000616F000E626FE8C563F5000EC6ECE9F097
:101D0000FC0E0501606F030E616F000E626FE7C588
:101D100063F5000EC6ECE9F00501BF51D8B493EFAE
:101D20008EF095EF8EF098EF8EF038689AEF8EF087
:101D3000000E386E010EF36FFEEF88F00C0EBF1927
:101D4000D8A4A5EF8EF0A7EF8EF0B7EF8EF0F68552
:101D5000E8C56EF5E7C56FF5760E706F010E716F11
:101D6000000E726FAF0EB4ECEFF000EF89F00D0EC5
:101D7000BF19D8A4BEEF8EF0C0EF8EF092EF89F0BD
:101D8000F695E8C56EF5E7C56FF5760E706F010E36
:101D9000716F000E726FAF0EB4ECEFF000EF89F0D0
:101DA000FF0000EF89F020EE01F0B951D926BA51B9
:101DB000DA22DF500701E46FE56BE551000AD8B481
:101DC000E4EF8EF092EF89F0E4514F0AD8B4CEEFF1
:101DD0008AF0110AD8B4D0EF8EF02D0AD8B450EFA3
:101DE0008AF0050AD8B40CEF8EF00E0AD8B432EFA0
:101DF0008CF0FF0AD8B4E6EF8AF092EF89F0120077
:101E00000501B26FF00E0501B225196E1A6AFF0EB8
:101E10001A22000E1C6E070E1B6EE1ECDDF019504D
:101E20001A10D8A416EF8FF018EF8FF036EF8FF05E
:101E30000501B251F00FB36FB3C523F5246A000E4C
:101E4000266E070E256E3FECDAF023500501B36FC6
:101E5000AB51AC19D8B42FEF8FF031EF8FF036EFD4
:101E60008FF0ABC5A8F5B35139ECDEF0050E0501D6
:101E7000B219D8A43EEF8FF040EF8FF043EF8FF010
:101E8000AB513CEC06F0060E0501B219D8A44BEF9D
:101E90008FF04DEF8FF0B2EF90F0000EB36F89EF3F
:101EA00090F0AB51D8B457EF8FF059EF8FF096EF19
:101EB0008FF0B3C5ADF5070EAD17010EAE6F000E76
:101EC000AF6FAD2B67EF8FF0D890AE37AF37AD2F38
:101ED00064EF8FF00501AE51AF11D8B472EF8FF0FF
:101EE00074EF8FF096EF8FF0B351040D020EF326CE
:101EF000000EF422950EF324F66EFE0EF420F76E1B
:101F0000F86A000EF8220800F5C4ADF5010EAE6FB8
:101F1000AD2B8DEF8FF0D890AE37AD2F8BEF8FF0CC
:101F20000501AE5104010113A8EF90F0B351040D67
:101F3000020EF326000EF422950EF324F66EFE0E2A
:101F4000F420F76EF86A000EF8220800F5C4ADF52B
:101F5000010EAE6FAD2BAFEF8FF0D890AE37AD2F37
:101F6000ADEF8FF00501AE51FF0A04010117A8EF94
:101F700090F0AB51D8B4BFEF8FF0C1EF8FF0FEEF10
:101F80008FF0B3C5ADF5070EAD17010EAE6F000EA5
:101F9000AF6FAD2BCFEF8FF0D890AE37AF37AD2FFF
:101FA000CCEF8FF00501AE51AF11D8B4DAEF8FF05E
:101FB000DCEF8FF0FEEF8FF0B351040D020EF3262D
:101FC000000EF422950EF324F66EFE0EF420F76E4A
:101FD000F86A000EF8220800F5C4ADF5010EAE6FE8
:101FE000AD2BF5EF8FF0D890AE37AD2FF3EF8FF02C
:101FF0000501AE5104010913A8EF90F0B351040D8F
:10200000020EF326000EF422950EF324F66EFE0E59
:10201000F420F76EF86A000EF8220800F5C4ADF55A
:10202000010EAE6FAD2B17EF90F0D890AE37AD2FFD
:1020300015EF90F00501AE51FF0A04010917A8EF52
:1020400090F0AB51D8B427EF90F029EF90F066EF05
:1020500090F0B3C5ADF5070EAD17010EAE6F000ED3
:10206000AF6FAD2B37EF90F0D890AE37AF37AD2FC5
:1020700034EF90F00501AE51AF11D8B442EF90F0BB
:1020800044EF90F066EF90F0B351040D020EF3268A
:10209000000EF422950EF324F66EFE0EF420F76E79
:1020A000F86A000EF8220800F5C4ADF5010EAE6F17
:1020B000AD2B5DEF90F0D890AE37AD2F5BEF90F089
:1020C0000501AE5104011113A8EF90F0B351040DB6
:1020D000020EF326000EF422950EF324F66EFE0E89
:1020E000F420F76EF86A000EF8220800F5C4ADF58A
:1020F000010EAE6FAD2B7FEF90F0D890AE37AD2FC5
:102100007DEF90F00501AE51FF0A04011117A8EF11
:1021100090F0B351040D010EF326000EF422950E3B
:10212000F324F66EFE0EF420F76EF86A000EF82225
:102130000800F550410AD8B451EF8FF0030AD8B423
:10214000B9EF8FF0010AD8B421EF90F0A8EF90F02A
:102150000501B32B070EB365B0EF90F0B2EF90F02E
:1021600089EF90F0070EB219D8A4B9EF90F0BBEF49
:1021700090F020EF92F0080EB36FF7EF91F0AB51B3
:10218000D8B4C5EF90F0C7EF90F004EF91F0B3C56D
:10219000ADF5070EAD17010EAE6F000EAF6FAD2B94
:1021A000D5EF90F0D890AE37AF37AD2FD2EF90F09B
:1021B0000501AE51AF11D8B4E0EF90F0E2EF90F02E
:1021C00004EF91F0B351040D020EF326000EF42239
:1021D000950EF324F66EFE0EF420F76EF86A000EEC
:1021E000F8220800F5C4ADF5010EAE6FAD2BFBEF84
:1021F00090F0D890AE37AD2FF9EF90F00501AE51C9
:102200000401011316EF92F0B351040D020EF326F0
:10221000000EF422950EF324F66EFE0EF420F76EF7
:10222000F86A000EF8220800F5C4ADF5010EAE6F95
:10223000AD2B1DEF91F0D890AE37AD2F1BEF91F085
:102240000501AE51FF0A0401011716EF92F0AB51E0
:10225000D8B42DEF91F02FEF91F06CEF91F0B3C562
:10226000ADF5070EAD17010EAE6F000EAF6FAD2BC3
:102270003DEF91F0D890AE37AF37AD2F3AEF91F0F8
:102280000501AE51AF11D8B448EF91F04AEF91F08B
:102290006CEF91F0B351040D020EF326000EF42200
:1022A000950EF324F66EFE0EF420F76EF86A000E1B
:1022B000F8220800F5C4ADF5010EAE6FAD2B63EF4B
:1022C00091F0D890AE37AD2F61EF91F00501AE518E
:1022D0000401091316EF92F0B351040D020EF32618
:1022E000000EF422950EF324F66EFE0EF420F76E27
:1022F000F86A000EF8220800F5C4ADF5010EAE6FC5
:10230000AD2B85EF91F0D890AE37AD2F83EF91F0E4
:102310000501AE51FF0A0401091716EF92F0AB5107
:10232000D8B495EF91F097EF91F0D4EF91F0B3C559
:10233000ADF5070EAD17010EAE6F000EAF6FAD2BF2
:10234000A5EF91F0D890AE37AF37AD2FA2EF91F057
:102350000501AE51AF11D8B4B0EF91F0B2EF91F0EA
:10236000D4EF91F0B351040D020EF326000EF422C7
:10237000950EF324F66EFE0EF420F76EF86A000E4A
:10238000F8220800F5C4ADF5010EAE6FAD2BCBEF12
:1023900091F0D890AE37AD2FC9EF91F00501AE5155
:1023A0000401111316EF92F0B351040D020EF3263F
:1023B000000EF422950EF324F66EFE0EF420F76E56
:1023C000F86A000EF8220800F5C4ADF5010EAE6FF4
:1023D000AD2BEDEF91F0D890AE37AD2FEBEF91F044
:1023E0000501AE51FF0A0401111716EF92F0B35127
:1023F000040D010EF326000EF422950EF324F66E62
:10240000FE0EF420F76EF86A000EF8220800F55070
:10241000410AD8B4BFEF90F0030AD8B427EF91F087
:10242000010AD8B48FEF91F016EF92F00501B32BAB
:102430000F0EB3651EEF92F020EF92F0F7EF91F0E0
:102440000F0EB26526EF92F028EF92F0A5EF94F010
:10245000F00EB225236E246AFF0E2422000E266E93
:10246000070E256E3FECDAF023500501B36FF00E36
:10247000B225196E1A6AFF0E1A22000E1C6E070E84
:102480001B6EE1ECDDF084EF94F00501B251AD6F0D
:10249000AE6BB351070D120EF326000EF422AD51B0
:1024A000F31807E1AE51F418D8A459EF92F05BEF9E
:1024B00092F0A5EF94F0B3C5FDF5ABBF62EF92F0DB
:1024C00064EF92F06AEF92F0000EB16F010EB06F00
:1024D0006EEF92F0000EB16F020EB06FB0C5FCF55A
:1024E000A5EF94F0A5EF94F00501B251AD6FAE6B7E
:1024F000B351070D120EF326000EF422AD51F3185E
:1025000007E1AE51F418D8A488EF92F08AEF92F068
:1025100097EF92F0020E1D6EB3510EECD7F0020E43
:102520001D6E0501B35104ECD4F0A5EF94F0B25147
:10253000AD6FAE6BB351070D130EF326000EF422F0
:10254000AD51F31807E1AE51F418D8A4AAEF92F0F8
:10255000ACEF92F0B9EF92F0010E1D6EB3510EEC9C
:10256000D7F0010E1D6E0501B35104ECD4F0A5EFB8
:1025700094F0B251AD6FAE6BB351070D110EF3264F
:10258000000EF422AD51F31807E1AE51F418D8A4AF
:10259000CCEF92F0CEEF92F0A5EF94F0ABAFD3EF8B
:1025A00092F0D5EF92F072EF92F0ACBFDAEF92F0CA
:1025B000DCEF92F072EF92F0B351070DF350120F6F
:1025C000B3ECEBF019C523F51AC524F5000E266E01
:1025D000020E256E3FECDAF023C5ADF524C5AEF54D
:1025E0000501B351070DF350130FB3ECEBF019C510
:1025F00023F51AC524F5000E266E020E256E3FEC5B
:10260000DAF023500501AD252B6EB3517DEC05F0BA
:10261000A5EF94F00501B251AD6FAE6BB351070D4C
:10262000130EF326000EF422AD51F31807E1AE515C
:10263000F418D8A41EEF93F020EF93F02DEF93F051
:10264000020E1D6EB35177ECD7F0020E196E050124
:10265000B35185ECE8F0A5EF94F0B251AD6FAE6BDD
:10266000B351070D120EF326000EF422AD51F318EC
:1026700007E1AE51F418D8A440EF93F042EF93F085
:102680004FEF93F0010E1D6EB35177ECD7F0010EB2
:10269000196E0501B35185ECE8F0A5EF94F0B25145
:1026A000AD6FAE6BB351070D110EF326000EF42281
:1026B000AD51F31807E1AE51F418D8A462EF93F0CE
:1026C00064EF93F0A5EF94F0ABAF69EF93F06BEF8D
:1026D00093F072EF92F0ACBF70EF93F072EF93F063
:1026E00072EF92F0B351070DF350120FB3ECEBF011
:1026F00019C523F51AC524F5000E266E020E256EA7
:102700003FECDAF023C5ADF524C5AEF50501B351B4
:10271000070DF350130FB3ECEBF019C523F51AC5F1
:1027200024F5000E266E020E256E3FECDAF02350E3
:102730000501AD25AF6FCC0EB325D96EDA6A050E53
:10274000DA22AFC5DFF4A5EF94F00501B251AD6F09
:10275000AE6BB351070D130EF326000EF422AD51EC
:10276000F31807E1AE51F418D8A4B9EF93F0BBEF1A
:1027700093F0C8EF93F0000E1D6EB35121ECD0F032
:10278000000E1D6E0501B351E4ECDEF0A5EF94F0F0
:10279000B251AD6FAE6BB351070D140EF326000EA0
:1027A000F422AD51F31807E1AE51F418D8A4DBEFD1
:1027B00093F0DDEF93F0EAEF93F0010E1D6EB3514D
:1027C00021ECD0F0010E1D6E0501B351E4ECDEF0FA
:1027D000A5EF94F0B251AD6FAE6BB351070D150E6E
:1027E000F326000EF422AD51F31807E1AE51F418B0
:1027F000D8A4FDEF93F0FFEF93F00CEF94F0020EEE
:102800001D6EB35121ECD0F0020E1D6E0501B351C7
:10281000E4ECDEF0A5EF94F0B251AD6FAE6BB351C6
:10282000070D160EF326000EF422AD51F31807E142
:10283000AE51F418D8A41FEF94F021EF94F02EEFCE
:1028400094F0030E1D6EB35121ECD0F0030E1D6EFB
:102850000501B351E4ECDEF0A5EF94F0B251AD6F99
:10286000AE6BB351070D110EF326000EF422AD51DD
:10287000F31807E1AE51F418D8A441EF94F043EFF8
:1028800094F0A5EF94F0ABAF48EF94F04AEF94F0DA
:1028900072EF92F0ACBF4FEF94F051EF94F072EF03
:1028A00092F0B351070DF350120FB3ECEBF019C5D2
:1028B00023F51AC524F5000E266E020E256E3FEC98
:1028C000DAF023C5ADF524C5AEF50501B351070D0A
:1028D000F350130FB3ECEBF019C523F51AC524F52B
:1028E000000E266E020E256E3FECDAF02350050135
:1028F000AD25AF6FCC0EB325D96EDA6A050EDA229C
:10290000AFC5DFF4A5EF94F00501B351070DF35007
:10291000100FB3ECEBF01A50000AD8B492EF94F019
:10292000A5EF94F01950020AD8B474EF92F0010A9E
:10293000D8B40AEF93F0070AD8B4A5EF93F0020ACF
:10294000D8B445EF92F0A5EF94F012006DEF98F037
:10295000B9C577F5BAC578F5030E796F000E7A6FB1
:1029600004ECE5F0E806D8A4B8EF94F0BAEF94F0E0
:10297000BDEF94F0010EB5EF98F0050120EE02F0E6
:10298000B951D926BA51DA22DE50E819D8A4CBEFD2
:1029900094F0CDEF94F0DFEF94F020EE03F0B95116
:1029A000D926BA51DA22E751DE18D8A4DAEF94F02A
:1029B000DCEF94F0DFEF94F0F681BAEF94F0F6914B
:1029C000BAEF94F0B9C577F5BAC578F5040E796F0A
:1029D000000E7A6F04ECE5F0E806D8A4F2EF94F06C
:1029E000F4EF94F0F6EF94F0BAEF94F0050120EED6
:1029F00002F0B951D926BA51DA22DE50E819D8A42A
:102A000004EF95F006EF95F037EF95F020EE03F028
:102A1000B951D926BA51DA22E751DE18D8A413EFFA
:102A200095F015EF95F037EF95F020EE04F0B951E1
:102A3000D926BA51DA22080EDE18D8A422EF95F072
:102A400024EF95F026EF95F0DCEF94F020EE04F003
:102A5000B951D926BA51DA22090EDE18D8A433EFBB
:102A600095F035EF95F038EF95F0DFEF94F0F691B3
:102A7000000EB5EF98F0B9C577F5BAC578F5070E31
:102A8000796F010E7A6F04ECE5F0E806D8A44BEFFD
:102A900095F04DEF95F059EF95F0E8C56EF5E7C567
:102AA0006FF5010E0501706F6F0E88ECEFF0BAEF55
:102AB00094F00501F6B15FEF95F061EF95F063EFEB
:102AC00095F0BAEF94F020EE03F0B951D926BA513F
:102AD000DA22DF50BB6F20EE02F0B951D926BA518D
:102AE000DA22DF50BC6FBB51AC6FBCC5ADF520EE38
:102AF00005F0B951D926BA51DA22DF50BE6F20EE67
:102B000004F0B951D926BA51DA22DF50BF6FBE5155
:102B1000AE6FBFC5AFF520EE06F0B951D926BA5158
:102B2000DA22DF50B06F20EE07F0B951D926BA5142
:102B3000DA22DF50B16F5EECD5F0BAEF94F0B9C590
:102B400077F5BAC578F5050E796F010E7A6F04EC4A
:102B5000E5F0E806D8A4AFEF95F0B1EF95F0B3EF4C
:102B600095F0BAEF94F00501F6B1B9EF95F0BBEF2F
:102B700095F0BDEF95F0BAEF94F020EE03F0B95167
:102B8000D926BA51DA22DF50BB6F20EE02F0B951DC
:102B9000D926BA51DA22DF50BC6FBB51806FBCC559
:102BA00081F520EE05F0B951D926BA51DA22DF506D
:102BB000BE6F20EE04F0B951D926BA51DA22DF50A7
:102BC000BF6FBE51826FBFC583F53DECE4F0BAEF35
:102BD00094F0B9C577F5BAC578F5060E796F010E90
:102BE0007A6F04ECE5F0E806D8A4F9EF95F0FBEF76
:102BF00095F0FDEF95F0BAEF94F00501F6B103EF13
:102C000096F005EF96F007EF96F0BAEF94F020EE0D
:102C100003F0B951D926BA51DA22DF50BB6F20EE4A
:102C200002F0B951D926BA51DA22DF50BC6FBB513C
:102C3000796FBCC57AF520EE05F0B951D926BA51A5
:102C4000DA22DF50BE6F20EE04F0B951D926BA5116
:102C5000DA22DF50BF6FBE517B6FBFC57CF520EE1F
:102C600006F0B951D926BA51DA22DF507D6F97ECC0
:102C7000C7F0BAEF94F0B9C577F5BAC578F5030E89
:102C8000796F000E7A6F04ECE5F0E806D8A44BEFFC
:102C900096F04DEF96F04FEF96F0BAEF94F00501F5
:102CA00020EE02F0B951D926BA51DA22DE50E819E5
:102CB000D8A45DEF96F05FEF96F0BAEF94F020EEB7
:102CC00003F0B951D926BA51DA22E751DE18D8B447
:102CD0006CEF96F06EEF96F0DFEF94F0BAEF94F0B1
:102CE000B9C577F5BAC578F5030E796F010E7A6F1D
:102CF00004ECE5F0E806D8A480EF96F082EF96F0B9
:102D000084EF96F0BAEF94F0050120EE02F0B9518D
:102D1000D926BA51DA22DE50E819D8A492EF96F0FB
:102D200094EF96F0BAEF94F020EE03F0B951D92663
:102D3000BA51DA22E751DE18D8B4A1EF96F0A3EF2A
:102D400096F0A5EF96F0BAEF94F0F6B1AAEF96F0F0
:102D5000ACEF96F0C5EF96F0E8C56EF5E7C56FF5F8
:102D6000020E706F6F0E88ECEFF0E8C56EF5E7C5E8
:102D70006FF5550E0501706F040E716F020E726FC4
:102D8000AF0EB4ECEFF0BAEF94F06EECEEF038EF7B
:102D900095F0B9C577F5BAC578F5030E796F000ED1
:102DA0007A6F04ECE5F0E806D8A4D9EF96F0DBEFF3
:102DB00096F0DDEF96F0BAEF94F0050120EE02F008
:102DC000B951D926BA51DA22DE50E819D8A4EBEF6E
:102DD00096F0EDEF96F0BAEF94F020EE03F0B951D3
:102DE000D926BA51DA22E751DE18D8B4FAEF96F0B4
:102DF000FCEF96F0FEEF96F0BAEF94F0E2EC05F0FF
:102E0000BAEF94F0B9C577F5BAC578F5030E796FC6
:102E1000000E7A6F04ECE5F0E806D8A412EF97F004
:102E200014EF97F016EF97F0BAEF94F0050120EE4B
:102E300002F0B951D926BA51DA22DE50E819D8A4E5
:102E400024EF97F026EF97F0BAEF94F020EE03F01E
:102E5000B951D926BA51DA22E751DE18D8B433EF86
:102E600097F035EF97F037EF97F0BAEF94F064EC06
:102E7000E7F0BAEF94F0B9C577F5BAC578F5030E67
:102E8000796F000E7A6F04ECE5F0E806D8A44BEFFA
:102E900097F04DEF97F04FEF97F0BAEF94F00501F0
:102EA00020EE02F0B951D926BA51DA22DE50E819E3
:102EB000D8A45DEF97F05FEF97F0BAEF94F020EEB3
:102EC00003F0B951D926BA51DA22E751DE18D8B445
:102ED0006CEF97F06EEF97F070EF97F0BAEF94F019
:102EE00054ECECF0BAEF94F0B9C577F5BAC578F5C3
:102EF000040E796F000E7A6F04ECE5F0E806D8A4B2
:102F000084EF97F086EF97F088EF97F0BAEF94F0A0
:102F1000050120EE02F0B951D926BA51DA22DE506D
:102F2000E819D8A496EF97F098EF97F0BAEF94F0DD
:102F300020EE03F0B951D926BA51DA22E751DE1852
:102F4000D8B4A5EF97F0A7EF97F0A9EF97F0BAEFF5
:102F500094F020EE04F0B951D926BA51DA22DF50AC
:102F600084ECE5F0BAEF94F0B9C577F5BAC578F519
:102F7000050E796F000E7A6F04ECE5F0E806D8A430
:102F8000C4EF97F0C6EF97F0C8EF97F0BAEF94F060
:102F9000050120EE02F0B951D926BA51DA22DE50ED
:102FA000E819D8A4D6EF97F0D8EF97F0BAEF94F0DD
:102FB00020EE03F0B951D926BA51DA22E751DE18D2
:102FC000D8B4E5EF97F0E7EF97F0E9EF97F0BAEFB5
:102FD00094F020EE05F0B951D926BA51DA22DF502B
:102FE0002F6E20EE04F0B951D926BA51DA22DF5003
:102FF0000DECCEF0BAEF94F0B9C577F5BAC578F517
:10300000080E796F010E7A6F04ECE5F0E806D8A49B
:103010000CEF98F00EEF98F010EF98F0BAEF94F0F4
:10302000050120EE02F0B951D926BA51DA22DE505C
:10303000E819D8A41EEF98F020EF98F0BAEF94F0BA
:1030400020EE03F0B951D926BA51DA22E751DE1841
:10305000D8B42DEF98F02FEF98F031EF98F0BAEF49
:1030600094F020EE03F0B951D926BA51DA22DF509C
:10307000BB6F20EE02F0B951D926BA51DA22DF50E7
:10308000BC6FBB51AC6FBCC5ADF520EE05F0B951BE
:10309000D926BA51DA22DF50BE6F20EE04F0B951C2
:1030A000D926BA51DA22DF50BF6FBE51AE6FBFC50D
:1030B000AFF520EE07F0B951D926BA51DA22DF5028
:1030C000B06F20EE08F0B951D926BA51DA22DF509C
:1030D000B16F5EECD5F0BAEF94F0050120EE01F08F
:1030E000B951D926BA51DA22DF50BB6FBC6BBC5143
:1030F000000AD8B47EEF98F038EF95F0BB51530A30
:10310000D8B4A8EF94F0070AD8B43BEF96F0010AC0
:10311000D8B470EF96F0030AD8B402EF97F0010A22
:10312000D8B4C9EF96F00F0AD8B43BEF97F02A0A4B
:10313000D8B474EF97F0040AD8B4E2EF94F0E30A3D
:10314000D8B49FEF95F0090AD8B4B4EF97F02E0ADF
:10315000D8B4E9EF95F0600AD8B43BEF95F0270AB0
:10316000D8B4FCEF97F038EF95F0120005016F6FBF
:103170000F0E05016F65BFEF98F0C1EF98F0C3EF38
:1031800098F0A2EF9BF06F51070DF350100FB3ECC6
:10319000EBF0195005016E6F3BEF99F06F51070D81
:1031A000F350110FB3ECEBF019A4D9EF98F0DBEF6B
:1031B00098F0F4EF98F005016F51676F686B696BD9
:1031C000DE0E67251F6E030E6821206E000E69213A
:1031D000216E000E12ECE8F01F50256E05016F51B4
:1031E00088ECDDF061EF9AF005016F51070DF350A7
:1031F000110FB3ECEBF019BA00EF99F002EF99F070
:1032000009EF99F0000E05016C6F020E6B6F0EEF67
:1032100099F0000E05016C6F010E6B6F6BC56DF5BB
:103220006DC525F56F5188ECDDF005016F51676FB5
:10323000686B696BDE0E6725606F030E6821616F36
:10324000000E6921626F6DC563F5000EC6ECE9F0F2
:1032500061EF9AF06F51070DF350110FB3ECEBF0E3
:103260001950100B05016A6F6AC525F56F5188EC7E
:10327000DDF061EF9AF06E51010AD8B4CEEF98F00C
:10328000030AD8B42AEF99F0010AD8B42AEF99F0CA
:1032900061EF9AF06E51D8B450EF99F052EF99F077
:1032A00064EF99F0050E6E19D8B459EF99F05BEF01
:1032B00099F064EF99F0060E6E19D8A462EF99F0B8
:1032C00064EF99F085EF99F06F51040D020EF3262B
:1032D000000EF422950EF324F66EFE0EF420F76E27
:1032E000F86A000EF8220800F5C467F5010E686F51
:1032F000672B7DEF99F0D8906837672F7BEF99F0B7
:1033000005016851C61281EF9AF06F51040D020E4B
:10331000F326000EF422950EF324F66EFE0EF42032
:10332000F76EF86A000EF8220800F5C467F5010E82
:10333000686F672B9EEF99F0D8906837672F9CEFE6
:1033400099F005016851FF0AC61681EF9AF06E5197
:10335000D8B4ADEF99F0AFEF99F0C1EF99F0050E49
:103360006E19D8B4B6EF99F0B8EF99F0C1EF99F0B3
:10337000060E6E19D8A4BFEF99F0C1EF99F0E2EFF5
:1033800099F06F51040D020EF326000EF422950EF3
:10339000F324F66EFE0EF420F76EF86A000EF822A3
:1033A0000800F5C467F5010E686F672BDAEF99F036
:1033B000D8906837672FD8EF99F005016851C71288
:1033C00081EF9AF06F51040D020EF326000EF422E5
:1033D000950EF324F66EFE0EF420F76EF86A000EDA
:1033E000F8220800F5C467F5010E686F672BFBEF44
:1033F00099F0D8906837672FF9EF99F00501685177
:10340000FF0AC71681EF9AF06E51D8B40AEF9AF00E
:103410000CEF9AF01EEF9AF0050E6E19D8B413EF68
:103420009AF015EF9AF01EEF9AF0060E6E19D8A4D6
:103430001CEF9AF01EEF9AF03FEF9AF06F51040DD7
:10344000020EF326000EF422950EF324F66EFE0E05
:10345000F420F76EF86A000EF8220800F5C467F54C
:10346000010E686F672B37EF9AF0D8906837672F97
:1034700035EF9AF005016851C81281EF9AF06F514B
:10348000040D020EF326000EF422950EF324F66EC0
:10349000FE0EF420F76EF86A000EF8220800F5C45C
:1034A00067F5010E686F672B58EF9AF0D890683770
:1034B000672F56EF9AF005016851FF0AC81681EF91
:1034C0009AF005016F51040D010EF326000EF4224F
:1034D000950EF324F66EFE0EF420F76EF86A000ED9
:1034E000F8220800F550410AD8B44AEF99F0030ACF
:1034F000D8B4A7EF99F0010AD8B404EF9AF081EF9D
:103500009AF0050E6E19D8B488EF9AF08AEF9AF007
:10351000FBEF9AF0060E6E19D8A491EF9AF093EF94
:103520009AF083EF9BF0FBEF9AF06F51040D020EBF
:10353000F326000EF422950EF324F66EFE0EF42010
:10354000F76EF86A000EF8220800F5C467F5010E60
:10355000686F672BAEEF9AF0D8906837672FACEFA3
:103560009AF00501685104010013A2EF9BF06F511E
:10357000040D020EF326000EF422950EF324F66ECF
:10358000FE0EF420F76EF86A000EF8220800F5C46B
:1035900067F5010E686F672BD0EF9AF0D890683707
:1035A000672FCEEF9AF00501685104010813A2EFCE
:1035B0009BF06F51040D020EF326000EF422950EBF
:1035C000F324F66EFE0EF420F76EF86A000EF82271
:1035D0000800F5C467F5010E686F672BF2EF9AF0EB
:1035E000D8906837672FF0EF9AF005016851040111
:1035F0001013A2EF9BF06F51040D010EF326000E85
:10360000F422950EF324F66EFE0EF420F76EF86A9F
:10361000000EF8220800F550410AD8B495EF9AF050
:10362000030AD8B4B7EF9AF0010AD8B4D9EF9AF0E8
:10363000A2EF9BF06F51040D020EF326000EF42250
:10364000950EF324F66EFE0EF420F76EF86A000E67
:10365000F8220800F5C467F5010E686F672B33EF99
:103660009BF0D8906837672F31EF9BF005016851C8
:10367000FF0A04010017A2EF9BF06F51040D020E28
:10368000F326000EF422950EF324F66EFE0EF420BF
:10369000F76EF86A000EF8220800F5C467F5010E0F
:1036A000686F672B56EF9BF0D8906837672F54EF01
:1036B0009BF005016851FF0A04010817A2EF9BF077
:1036C0006F51040D020EF326000EF422950EF32422
:1036D000F66EFE0EF420F76EF86A000EF82208006F
:1036E000F5C467F5010E686F672B79EF9BF0D890F2
:1036F0006837672F77EF9BF005016851FF0A0401D7
:103700001017A2EF9BF06F51040D010EF326000E6F
:10371000F422950EF324F66EFE0EF420F76EF86A8E
:10372000000EF8220800F550410AD8B41AEF9BF0B9
:10373000030AD8B43DEF9BF0010AD8B460EF9BF0C8
:10374000A2EF9BF012000301F3A1A9EF9BF0ABEFF6
:103750009BF0ADEF9BF04EEF9EF00501FB51070D86
:10376000F350100FB3ECEBF0050E19181A10D8B483
:10377000BCEF9BF0BEEF9BF0CFEF9BF00501FB5140
:10378000070DF350100FB3ECEBF0060E19181A10DA
:10379000D8A4CDEF9BF0CFEF9BF0F3EF9DF00501A8
:1037A000FA51D8B4D6EF9BF0D8EF9BF0F3EF9DF031
:1037B000EBC385F5866B8551866F856B0301EA51F6
:1037C00005018513FC51D8B4E8EF9BF0EAEF9BF0BC
:1037D000F3EF9BF0FD51FB19D8B4F1EF9BF0F3EF41
:1037E0009BF0BCEF9DF0FB51070DF350100FB3ECB5
:1037F000EBF0060E19181A10D8A401EF9CF003EF95
:103800009CF0F2EF9CF00501FB51070DF350150FF2
:10381000B3ECEBF019C583F51AC584F505018351A6
:10382000846F836BFB51070DF350160FB3ECEBF075
:103830001950050183131A50841383C581F584C57B
:1038400082F5FB51070DF350130FB3ECEBF0195059
:103850000501835F1A50845BFB51070DF350130F72
:10386000B3ECEBF01950050181271A508223FB516C
:10387000070DF350140FB3ECEBF00501835119243D
:103880007F6F84511A20806FFB51070DF350140F86
:10389000B3ECEBF019500501815D7D6F1A50825930
:1038A0007E6F600EFB25D96EDA6A060EDA22DF50D3
:1038B000030B020AD8B45FEF9CF061EF9CF09FEF1E
:1038C0009CF08151855D82518659D8A06AEF9CF0A9
:1038D0006CEF9CF09FEF9CF0600EFB25D96EDA6ACE
:1038E000060EDA220601DFA478EF9CF07AEF9CF056
:1038F00092EF9CF00501FB51070DF350110FB3EC53
:10390000EBF019AC86EF9CF089EF9CF0010E8AEF8A
:103910009CF0000E0501726FFB51040DF350090F6E
:103920009DECD1F0600E0501FB25D96EDA6A060E1A
:10393000DA22DF50FC0B0209DF6E1BEF9DF0600EF8
:10394000FB25D96EDA6A060EDA22DF50030B020A73
:10395000D8A4ADEF9CF0AFEF9CF01BEF9DF085512C
:103960007D5D86517E59D8A0B8EF9CF0BAEF9CF0EF
:103970001BEF9DF0600EFB25D96EDA6A060EDA2287
:103980000601DFA4C6EF9CF0C8EF9CF0E7EF9CF0C7
:103990000501FB51070DF350110FB3ECEBF019B615
:1039A000D4EF9CF0D6EF9CF0E7EF9CF00501FB51C3
:1039B000070DF350110FB3ECEBF01950400B05015C
:1039C000726FFB51040DF350090F9DECD1F0600EA6
:1039D0000501FB25D96EDA6A060EDA22FC0EDF1627
:1039E0001BEF9DF085C57AF586C57BF5040E0501B4
:1039F0007C6FD8907B337A337C2FF9EF9CF07AC5BB
:103A000085F57BC586F5FB51070DF350130FB3EC1D
:103A1000EBF019C583F51AC584F50501FB51070DB7
:103A2000F350140FB3ECEBF019500501835D7F6F79
:103A30001A508459806F600EFB25D96EDA6A060E23
:103A4000DA22DF50030BE806D8B429EF9DF02BEF04
:103A50009DF069EF9DF08551835D86518459D8A012
:103A600034EF9DF036EF9DF069EF9DF0600EFB2581
:103A7000D96EDA6A060EDA220601DFA442EF9DF063
:103A800044EF9DF05CEF9DF00501FB51070DF350F5
:103A9000110FB3ECEBF019AC50EF9DF053EF9DF02C
:103AA000010E54EF9DF0000E0501726FFB51040DE5
:103AB000F350080F9DECD1F0600E0501FB25D96E87
:103AC000DA6A060EDA22DF50FC0B0109DF6EEBEF3B
:103AD0009DF0600EFB25D96EDA6A060EDA22DF5001
:103AE000030BE806D8A477EF9DF079EF9DF0EBEF9C
:103AF0009DF07F51855D80518659D8A082EF9DF061
:103B000084EF9DF0EBEF9DF0600EFB25D96EDA6A35
:103B1000060EDA220601DFA490EF9DF092EF9DF0F1
:103B2000B1EF9DF00501FB51070DF350110FB3EC00
:103B3000EBF019B69EEF9DF0A0EF9DF0B1EF9DF078
:103B40000501FB51070DF350110FB3ECEBF01950C9
:103B5000400B0501726FFB51040DF350080F9DECF3
:103B6000D1F0600E0501FB25D96EDA6A060EDA2265
:103B7000FC0EDF16EBEF9DF0E8C56EF5E7C56FF5BF
:103B8000000E706FFB29716FFB29726F85C573F58D
:103B90008651746FFD0ECAECEFF0020E0501FC19A0
:103BA000D8A4D5EF9DF0D7EF9DF0E8EF9DF085C547
:103BB00067F5FB51070DF350150F43ECEDF00501D0
:103BC0008651676FFB51070DF350160F43ECEDF074
:103BD000000E0501FC6F600EFB25D96EDA6A060E39
:103BE000DA220601DF840501FB2B0F0EFB65FBEFDC
:103BF0009DF0FDEF9DF0FFEF9DF0000EFB6FFB5180
:103C0000070DF350100FB3ECEBF0050E19181A1056
:103C1000D8B40DEF9EF00FEF9EF020EF9EF005015F
:103C2000FB51070DF350100FB3ECEBF0060E191813
:103C30001A10D8A41EEF9EF020EF9EF04EEF9EF0DB
:103C40000501FB51040D020EF326000EF422950E21
:103C5000F324F66EFE0EF420F76EF86A000EF822DA
:103C60000800F5C47AF5FB51040D010EF326000E91
:103C7000F422950EF324F66EFE0EF420F76EF86A29
:103C8000000EF8220800F550080DF350F80F7A11D5
:103C90000301EC6FF381010E0501FA6F1200B9C543
:103CA000D9F4BAC5DAF4050EDF6059EF9EF05BEF88
:103CB0009EF05EEF9EF0000EB3EFA0F0050120EE47
:103CC00003F0B951D926BA51DA22DF50BB6F20EE8A
:103CD00002F0B951D926BA51DA22DF50BC6FBB517C
:103CE000C16FBCC5C2F587EF9EF0000EC26F000E1B
:103CF000C16F140EBE6F010EBF6FDAEF9EF0000EA3
:103D0000C26F000EC16F000EBE6FDAEF9EF020EEA4
:103D100001F0B951D926BA51DA22DF50BB6FBC6B22
:103D2000BC51000AD8B497EF9EF05BEF9EF0BB51F8
:103D3000900AD8B479EF9EF0010AD8B483EF9EF0D0
:103D4000090AD8B475EF9EF0010AD8B47FEF9EF04F
:103D5000290AD8B479EF9EF0010AD8B483EF9EF017
:103D6000090AD8B475EF9EF0010AD8B47FEF9EF02F
:103D7000690AD8B479EF9EF0010AD8B483EF9EF0B7
:103D8000090AD8B475EF9EF0010AD8B47FEF9EF00F
:103D9000290AD8B479EF9EF0010AD8B483EF9EF0D7
:103DA000090AD8B475EF9EF0010AD8B47FEF9EF0EF
:103DB0005BEF9EF0C1C56CF5C2C56DF520EE05F058
:103DC000B951D926BA51DA22DF50BB6F20EE04F088
:103DD000B951D926BA51DA22DF50BC6FBB516E6F90
:103DE000BCC56FF501ECDBF00501C36FC329D8A496
:103DF000FCEF9EF0FEEF9EF000EF9FF05BEF9EF079
:103E0000C351B6ECC9F0050120EE01F0B951D92635
:103E1000BA51DA22DF50C06FC0B111EF9FF013EF3B
:103E20009FF0C6EF9FF0010ECA6F400ECA25D96EF3
:103E3000DA6A070EDA22DF50CB6FCB51D8B423EF0A
:103E40009FF025EF9FF0BAEF9FF0CB517F0BC86F2B
:103E5000590EC8612EEF9FF030EF9FF0BAEF9FF040
:103E6000070EC819D8A437EF9FF039EF9FF03BEF4A
:103E70009FF0AFEFA0F0080EC86141EF9FF043EF55
:103E80009FF048EF9FF0CB514FECE2F0BAEF9FF07C
:103E9000F80EC825236E246AFF0E2422000E266E1B
:103EA000050E256E3FECDAF023500501C76FF80EC2
:103EB000C825196E1A6AFF0E1A22000E1C6E050E16
:103EC0001B6EE1ECDDF019500501C96F9AEF9FF010
:103ED0000501C751070DF350110FB3ECEBF019AE0C
:103EE00074EF9FF076EF9FF078EF9FF053EC06F0C1
:103EF0000501C951D8A47FEF9FF081EF9FF082EFB9
:103F00009FF0CB2B040EC919D8A489EF9FF08BEF3B
:103F10009FF08DEF9FF0020ECB5FCB514FECE2F0A4
:103F200050EC06F0BAEF9FF00501CB514FECE2F0F8
:103F3000BAEF9FF0C751070DF350100FB3ECEBF041
:103F40001A50000AD8B4A7EF9FF0BAEF9FF01950AB
:103F5000010AD8B468EF9FF0030AD8B478EF9FF055
:103F6000010AD8B478EF9FF0070AD8B494EF9FF015
:103F7000BAEF9FF00501CA2B130ECA65C2EF9FF07E
:103F8000C4EF9FF015EF9FF0AFEFA0F053C7C4F55B
:103F9000130ECA6F000EC56FC4C5CBF5010ECA65FE
:103FA000D4EF9FF0D6EF9FF0E3EF9FF03F0ECA25CE
:103FB000D96EDA6A070EDA22DF50C46FC451800B63
:103FC000C66FE6EF9FF0C551800BC66FCB51D8B4DA
:103FD000ECEF9FF0EEEF9FF0A5EFA0F0C551D8A455
:103FE000F4EF9FF0F6EF9FF0F8EF9FF0CBC5C5F52B
:103FF000CB9F590ECB61FFEF9FF001EFA0F0A5EF33
:10400000A0F0070ECB19D8A408EFA0F00AEFA0F09B
:104010000CEFA0F0AFEFA0F0080ECB6112EFA0F014
:1040200014EFA0F023EFA0F0CB05D8B41AEFA0F066
:104030001CEFA0F023EFA0F0C651CB13CB514FECF7
:10404000E2F0A5EFA0F0F80ECB25236E246AFF0E58
:104050002422000E266E050E256E3FECDAF023506A
:104060000501C76FF80ECB25196E1A6AFF0E1A22CA
:10407000000E1C6E050E1B6EE1ECDDF01950050103
:10408000C96F85EFA0F00501C751070DF350110F5F
:10409000B3ECEBF019AE4FEFA0F051EFA0F053EFFF
:1040A000A0F053EC06F0030E0501C919D8A45BEF8C
:1040B000A0F05DEFA0F05EEFA0F0CB070501C951C5
:1040C000D8A465EFA0F067EFA0F069EFA0F0020EB2
:1040D000CB27040EC919D8A470EFA0F072EFA0F09E
:1040E00074EFA0F0030ECB5FC651CB13CB514FEC56
:1040F000E2F050EC06F0A5EFA0F00501C651CB139D
:10410000CB514FECE2F079EFA0F0C751070DF3501F
:10411000100FB3ECEBF01A50000AD8B492EFA0F0F5
:10412000A5EFA0F01950010AD8B443EFA0F0030A9C
:10413000D8B45EEFA0F0010AD8B45EEFA0F0070A91
:10414000D8B47DEFA0F0A5EFA0F00501CA07CA51D1
:10415000D8A4ADEFA0F0AFEFA0F0CAEF9FF006013A
:10416000FA4BFB2B010E12003804D8A4BAEFA0F0D2
:10417000BCEFA0F00BEFA1F079ECE6F0060188515E
:10418000195C0501736F060189511A580501746F96
:1041900006018A511B580501756F06018B511C5889
:1041A0000501766F76510DE1B50E735DC40E74593D
:1041B000040E7559D8A0DFEFA0F0E1EFA0F00BEFEF
:1041C000A1F0F6A5E6EFA0F0E8EFA0F0F7EFA0F081
:1041D000E8C56EF5E7C56FF5F2C570F5CCC671F5AB
:1041E000000E726FAB0EB4ECEFF00501F22B79EC20
:1041F000E6F019C588F61AC589F61BC58AF61CC5EE
:104200008BF60601CC51D8B408EFA1F00AEFA1F06B
:104210000BEFA1F0CC070501F451F619D8B413EF58
:10422000A1F015EFA1F022EFA1F0F90E606F030EDF
:10423000616F000E626FF6C563F5000EC6ECE9F023
:10424000F6C5F4F50501F5513818D8B42AEFA1F0F8
:104250002CEFA1F049EFA1F03828D8B432EFA1F04B
:1042600034EFA1F03CEFA1F03804D8A43AEFA1F06C
:104270003CEFA1F047EFA1F0FB0E606F030E616F02
:10428000000E626F38C563F5000EC6ECE9F038C564
:10429000F5F579ECE6F006018451195C0501736FC0
:1042A000060185511A580501746F060186511B5885
:1042B0000501756F060187511C580501766F76510F
:1042C00075110BE1250E735DF40E7459D8A06BEFD8
:1042D000A1F06DEFA1F007EFA3F079ECE6F019C5BE
:1042E00084F61AC585F61BC586F61CC587F6060139
:1042F000D04BD12BD051D111D8A481EFA1F083EFB5
:10430000A1F007EFA3F0CE4BCF2B07EFA3F0CEA485
:104310008CEFA1F08EEFA1F09AEFA1F079ECE6F02E
:1043200019C5DCF51AC5DDF51BC5DEF51CC5DFF5C5
:1043300016EFA3F079ECE6F00501DC51195C736F20
:10434000DD511A58746FDE511B58756FDF511C58C0
:10435000766F76510DE1910E735DD00E7459030E98
:104360007559D8A0B6EFA1F0B8EFA1F016EFA3F001
:10437000FD0E386EF369C2ECECF016EFA3F0CEA49C
:10438000C4EFA1F0C6EFA1F08EEFA1F0000E386EE1
:104390000501F36979ECE6F019C5DCF51AC5DDF520
:1043A0001BC5DEF51CC5DFF5E8C52EF5E7C52FF505
:1043B000500E45ECEFF0C2ECECF08EEFA1F0CEA485
:1043C000E4EFA1F0E6EFA1F06AEFA2F079ECE6F0FD
:1043D0000501DC51195C736FDD511A58746FDE51A1
:1043E0001B58756FDF511C58766F765175110BE1B4
:1043F0006B0E735D180E7459D8A001EFA2F003EF95
:10440000A2F03BEFA2F079ECE6F00501DC51195C7B
:10441000736FDD511A58746FDE511B58756FDF5181
:104420001C58766F76510BE1480E735DE80E745997
:10443000010E7559D8B01FEFA2F021EFA2F03BEFAB
:10444000A2F0F3C538F53804D8A429EFA2F02BEF79
:10445000A2F039EFA2F0E3C5E7F5E4C5E8F5E8C559
:104460002EF5E7C52FF5520E45ECEFF00601D44BC3
:10447000D52BC2ECECF079ECE6F00501DC51195CCF
:10448000736FDD511A58746FDE511B58756FDF5111
:104490001C58766F76510DE1910E735DD00E7459F4
:1044A000030E7559D8A057EFA2F059EFA2F05CEFB8
:1044B000A2F03868C2ECECF079ECE6F019C5DCF556
:1044C0001AC5DDF51BC5DEF51CC5DFF5000E376E20
:1044D00016EFA3F0010E376E16EFA3F0CEA473EF24
:1044E000A2F075EFA2F06AEFA2F03750D8B47BEFDC
:1044F000A2F07DEFA2F0CDEFA2F079ECE6F005019D
:10450000DC51195C736FDD511A58746FDE511B5802
:10451000756FDF511C58766F765175110BE16B0E7C
:10452000735D180E7459D8A098EFA2F09AEFA2F01C
:10453000CDEFA2F079ECE6F00501DC51195C736F68
:10454000DD511A58746FDE511B58756FDF511C58BE
:10455000766F76510BE1480E735DE80E7459010ECB
:104560007559D8B0B6EFA2F0B8EFA2F0CDEFA2F037
:10457000E7C5E3F5E8C5E4F5000EE86FE8C5E7F543
:10458000000E386E010EF36FE4C52EF5E3C52FF56E
:10459000500E45ECEFF0C2ECECF03750D8B4D3EF4E
:1045A000A2F0D5EFA2F05CEFA2F079ECE6F0050105
:1045B000DC51195C736FDD511A58746FDE511B5852
:1045C000756FDF511C58766F76510DE1900E735D5B
:1045D000D00E7459030E7559D8A0F1EFA2F0F3EF85
:1045E000A2F05CEFA2F0E7C5E3F5E8C5E4F5000E44
:1045F000E86FE8C5E7F53868010EF36FE4C52EF5FE
:10460000E3C52FF5510E45ECEFF05AEFA2F038500C
:10461000000AD8B4DFEFA1F0FD0AD8B4BFEFA1F0D3
:10462000020AD8B487EFA1F06EEFA2F012002E6E4E
:10463000CC0E2E24D96EDA6A050EDA22DF5005017F
:10464000606F616B400E2E24D96EDA6A060EDA2294
:10465000DF50626F636B030E6227000E63236051AD
:10466000625D6351800A646F6151800A6459D8A009
:104670003CEFA3F03EEFA3F093EFA3F0400E2E2407
:10468000D96EDA6A060EDA22DF50606FFD0E602501
:10469000616F626BFF0E6223CC0E2E24D96EDA6A34
:1046A000050EDA22DF50636F646B6151635D645104
:1046B000800A656F6251800A6559D8A062EFA3F045
:1046C00064EFA3F093EFA3F02E50020D000EF3243D
:1046D000D96E060EF420DA6E010EDBBE7CEFA3F07D
:1046E000010EDB5007E1040EDE5CD8B07AEFA3F0D8
:1046F0007CEFA3F093EFA3F02E50020D000EF324F5
:10470000D96E060EF420DA6E010EDBAE91EFA3F047
:10471000FD0EDE5CFF0EDE58D8B091EFA3F093EFF4
:10472000A3F076EFA5F02E50070DF350120FB3EC67
:10473000EBF019C560F51AC561F52E50070DF35061
:10474000130FB3ECEBF019500501605DD8A0ABEF8F
:10475000A3F0AEEFA3F0010EAFEFA3F0000E2B6EAF
:104760002B50D8A4B6EFA3F0B8EFA3F098EFA4F0C5
:104770002E50020D000EF324D96E060EF420DA6ED0
:10478000DEC423F5DDC424F5000E266E1E0E256E54
:104790003FECDAF023C560F524C561F52E50070D16
:1047A000F350130FB3ECEBF0195005016025626F65
:1047B000000E6121636FCC0E2E24D96EDA6A050ECD
:1047C000DA22DF50646F656B6251645D6551800A67
:1047D000666F6351800A6659D8B0F1EFA3F0F3EF2A
:1047E000A3F06EEFA4F02E50070DF350140FB3ECAE
:1047F000EBF019C51DF51AC51EF52E50020D000E61
:10480000F324D96E060EF420DA6EDEC460F5DDC442
:1048100061F50501601F611F604B612B60C51FF5CD
:1048200061C520F556EC05F01DC523F51EC524F520
:10483000000E266E640E256E3FECDAF02E50020D4F
:10484000000EF324D96E060EF420DA6E23C5DEF4D2
:1048500024C5DDF42E50070DF350130FB3ECEBF02D
:1048600019500501606F616B2E50070DF350130F47
:10487000B3ECEBF0195005016027000E6123CC0E5C
:104880002E24D96EDA6A050EDA22DF50626F625189
:10489000605F000E615B2E50020D000EF324D96E96
:1048A000060EF420DA6EDEC423F5DDC424F5000E16
:1048B000266E1E0E256E3FECDAF023500501605D7A
:1048C0002C6E245061592D6ECC0E2E24D96EDA6ACE
:1048D000050EDA222CC5DFF473EFA5F02E50020D81
:1048E000000EF324D96E060EF420DA6E030EDE26D7
:1048F000000EDD222E50020D000EF324D96E060E9E
:10490000F420DA6EDEC423F5DDC424F5000E266E35
:104910001E0E256E3FECDAF0010E2326CC0E2E245F
:10492000D96EDA6A050EDA222350DF5E73EFA5F046
:10493000CC0E2E24D96EDA6A050EDA22DF50606FB3
:10494000616B2E50070DF350130FB3ECEBF019C54C
:1049500062F51AC563F52E50020D000EF324D96ED0
:10496000060EF420DA6EDEC423F5DDC424F5000E55
:10497000266E1E0E256E3FECDAF023500501625DB7
:10498000646F2450D8A02428656B655F6051645D16
:104990006551800A666F6151800A6659D8B0D3EFBD
:1049A000A4F0D5EFA4F04BEFA5F02E50070DF35077
:1049B000140FB3ECEBF019C51DF51AC51EF52E50FA
:1049C000020D000EF324D96E060EF420DA6EDEC45A
:1049D00060F5DDC461F50501601F611F604B612B4F
:1049E00060C51FF561C520F556EC05F01DC523F522
:1049F0001EC524F5000E266E640E256E3FECDAF01F
:104A00002E50020D000EF324D96E060EF420DA6E3D
:104A100023C5DEF424C5DDF42E50070DF350130F2B
:104A2000B3ECEBF019500501606F616B2E50070D70
:104A3000F350130FB3ECEBF0195005016027000E93
:104A400061232E50020D000EF324D96E060EF420C1
:104A5000DA6EDEC423F5DDC424F5000E266E1E0ECC
:104A6000256E3FECDAF0235005016025626F24507B
:104A70006121636FCC0E2E24D96EDA6A050EDA221C
:104A8000DF50646F6451625D2C6E6351D8A0630582
:104A90002D6E64EFA4F02E50020D000EF324D96E9B
:104AA000060EF420DA6E030EDE26000EDD222E50F6
:104AB000020D000EF324D96E060EF420DA6EDEC469
:104AC00023F5DDC424F5000E266E1E0E256E3FEC88
:104AD000DAF0010E2326CC0E2E24D96EDA6A050EEA
:104AE000DA222350DF26000E77EFA5F0010E120028
:104AF0002D6EF80E2D24236E246AFF0E2422000E44
:104B0000266E040E256E3FECDAF02350436E0F0E36
:104B100043648DEFA5F08FEFA5F092EFA5F0FF0EA7
:104B2000B8EFA7F02D50F80F030B2E6E4350070D72
:104B3000F350110FB3ECEBF019502B6E2B50080B08
:104B40002C6E93EFA7F0D40E4324D96EDA6A070EC9
:104B5000DA22DF50D8A4AFEFA5F0B2EFA5F0010E36
:104B6000B3EFA5F0000EB8EFA7F02C50D8B4BBEF10
:104B7000A5F0BDEFA5F08FEFA5F0D40E4324D96EBC
:104B8000DA6A070EDA22DF50D8B4C9EFA5F0CCEF0D
:104B9000A5F0010ECDEFA5F0000EB8EFA7F02E5056
:104BA000000AD8B4A3EFA5F0010AD8B4B5EFA5F078
:104BB0008FEFA5F043500501606F616B626BDE0EF5
:104BC00060251F6E030E6121206E000E6221216E92
:104BD000000E12ECE8F0020E1F182010D8A4F3EF1C
:104BE000A5F0F6EFA5F0010EF7EFA5F0000EB8EF77
:104BF000A7F02E50000AD8B4DAEFA5F08FEFA5F099
:104C00004350070DF350120FB3ECEBF0CC0E4324DE
:104C1000D96EDA6A050EDA22DE501918D8B413EF0D
:104C2000A6F016EFA6F0010E17EFA6F0000EB8EFF3
:104C3000A7F04350070DF350130FB3ECEBF0CC0E7D
:104C40004324D96EDA6A050EDA22DE501918D8B478
:104C50002CEFA6F02FEFA6F0010E30EFA6F0000E1D
:104C6000B8EFA7F04350070DF350130FB3ECEBF080
:104C70001950236E246A000E266E020E256E3FEC3C
:104C8000DAF023C560F524C561F54350070DF350F4
:104C9000120FB3ECEBF01950236E246A000E266E4F
:104CA000020E256E3FECDAF0235005016025626F9D
:104CB00024506121636FCC0E4324D96EDA6A050E4D
:104CC000DA22DF50646F656B6251645D6551800A62
