:04000000FEEF03F01C
:1000080004EF04F000370800F5501200380E000124
:10001800456FF80E4117408140B1FED7070E4113D6
:1000280046511200256E010103512518F80B2518B9
:10003800036F0239E832070B2518D8B41200F9D734
:1000480000014151F80B0609416F550E426FAA0E87
:10005800426F408140B1FED7070E41131200256E52
:10006800000140B1FDD725C546F0000E476F41514C
:10007800F80B0309416F550E426FAA0E426F40817B
:10008800070E411312000C0EF66E000EF76E000EEE
:10009800F86E0900F5C439F50900F5C43AF501EE22
:1000A80001F1240EEE6AE806FDE100017BEF01F0A4
:1000B800000E106E000E0F6E000E0F24D96E370E54
:1000C8001020DA6EFF0EDF6E0F4A102A1004D8A037
:1000D800F3D7000E1C6E000E1B6E000E1A6E120077
:1000E800256E380E0001456F25C546F04151F80BC5
:1000F8000309416F550E426FAA0E426F408140B10D
:10010800FED7070E41130AEC00F02518D8B41200E8
:10011800E8D7080E1B6003D01A50D8B412001CC5CB
:1001280043F01BC544F01AC545F024EC00F04151DA
:10013800F80B0509416F550E426FAA0E426F4081B8
:1001480040B1FED7070E41131200256E0BC5D9F436
:100158000CC5DAF4DF6A20EE01F00B50D9260C50FA
:10016800DA22240EDF6E20EE02F00B50D9260C5056
:10017800DA22DF6A20EE03F00B50D9260C50DA227F
:10018800DF6A2550D8B409D020EE01F00B50D926EB
:100198000C50DA22000EDB8608D020EE01F00B505E
:1001A800D9260C50DA22F70EDF16030E0101691367
:1001B8001200460E02010B6F0B0E3D6FC794C786E7
:1001C800000E0301676F0101018F040E16EC00F0A9
:1001D800000E4C6F380E4D6F000E4E6F000E4F6FB5
:1001E800000E006F870E016F100E026F500E036F26
:1001F800000E046F030E056F020E066F3F0E076FA9
:10020800800E686F040E696F600E6A6F5F0E6B6F09
:10021800080E746F040E756F000E766F5F0E776FA1
:10022800400E8F6F400E936F830E806F060E16EC94
:1002380000F01200356E1B50266E256A1A50296E82
:10024800286A276A255027102A6E265028102B6EF8
:10025800000E26BEFF0E29102C6E000144512E6E92
:100268002D6A4551316E306A2F6A2D502F10326E2B
:100278002E503010336E000E2EBEFF0E3110346E2D
:100288002A50321807E12B50331804E12C50341847
:10029800D8B424D043C019F544C018F545C017F5A3
:1002A8008DEC00F0000E1C6E18C51BF517C51AF56D
:1002B800000140B1FDD71AC545F01BC544F01CC567
:1002C80043F04151F80B0209416F4081070E411379
:1002D80019C543F018C544F017C545F0000E43256D
:1002E800D96EDA6A370EDA2235C5DFF41200100E3D
:1002F8003B6E000E0401006F000E086FC79EC79C7E
:10030800C684380E0001456F030E446F43690AEC3A
:1003180000F00009D8B4CEA402D000EF04F0CEB4A7
:1003280021D0000E016E000E026E000E036E000E4C
:10033800046E16D00450031004E10128FF0E025881
:10034800D8B000EF04F0000E116E01D0112A060E8D
:100358001164FCD7010E0126000E0222032204229A
:10036800CEA4E8D7400E3B6E0001AD518F0B20099B
:10037800AD6F000E226E1C0E216EC79CC79EBF8CEF
:10038800BF8EDDEC00F05CEC00F0000E086E000E95
:10039800076E000E156E0400010178A1FDD77CC11F
:1003A8000DF57DC10EF520EE04F00D50D9260E5046
:1003B800DA22DF500F0B166E20EE01F00D50D92611
:1003C8000E50DA22DFA684D1000E156E1FC545F047
:1003D8001EC544F01DC543F021A60AD01650366E3E
:1003E800376A386A36501D2637501E2238501F2269
:1003F800020E1F6076D020EE01F00D50D9260E5067
:10040800DA22DFA831D06CA1FED770C10BF571C11B
:100418000CF5000E146E080E146401D019D0145097
:100428000B24366E000E0C20376E080E3624D96E5B
:10043800000E3720DA6E07EC00F0DF6EF62AF65071
:10044800D8A404D0F72AF750D8B4F82A142AE3D746
:1004580020EE04F00B50D9260C50DA22180EDF6E6D
:10046800010EA9EC00F03DD000014551D8A403D0FD
:10047800070E446536D021A203D024EC00F031D019
:10048800000E146E2AD014500D24366E000E0E2065
:10049800376E080E3624D96E000E3720DA6EDF501C
:1004A8001EEC01F014500D24366E000E0E20376E2F
:1004B800080E3624D96E000E3720DA6EDF50386EFB
:1004C80038500726000E0822432B4351D8A404D0E5
:1004D800442B4451D8B4452B142A1650145CD8A088
:1004E800D2D7300E1F18D8A468D020EE01F00D50D6
:1004F800D9260E50DA22DFA832D001016CA1FDD72F
:1005080070C10BF571C10CF5000E146E080E146461
:1005180001D019D014500B24366E000E0C20376E03
:10052800080E3624D96E000E3720DA6E07EC00F07C
:10053800DF6EF62AF650D8A404D0F72AF750D8B4BC
:10054800F82A142AE3D720EE04F00B50D9260C50D1
:10055800DA22180EDF6E010EA9EC00F02ED0000E84
:10056800146E27D0040014500D24366E000E0E2091
:10057800376E080E3624D96E000E3720DA6EDF503B
:1005880033EC00F014500D24366E000E0E20376E3A
:10059800080E3624D96E000E3720DA6EDF50386E1A
:1005A80038500726000E0822F62AF650D8B4F72A43
:1005B800142A1650145CD8A0D5D7380E1F18D8A402
:1005C80063D020EE01F00D50D9260E50DA22DFA8B4
:1005D8002ED001016CA1FDD770C10BF571C10CF5CE
:1005E800000E146E080E146401D015D014500B249C
:1005F800366E000E0C20376E080E3624D96E000EAB
:100608003720DA6E0AEC00F0DF6E432B4351D8B482
:10061800442B142AE7D720EE04F00B50D9260C50AF
:10062800DA22180EDF6E010EA9EC00F02DD0000EB4
:10063800146E26D014500D24366E000E0E20376E20
:10064800080E3624D96E000E3720DA6EDF5074ECAF
:1006580000F014500D24366E000E0E20376E080E72
:100668003624D96E000E3720DA6EDF50386E3850D7
:100678000726000E0822432B4351D8B4442B142AD2
:100688001650145CD8A0D6D720EE01F00D50D9260C
:100698000E50DA22DFA821A8A3D001016CA1FDD752
:1006A80070C10BF571C10CF520EE08F00B50D9267E
:1006B8000C50DA22050EDF6E20EE04F00B50D9261E
:1006C8000C50DA22110EDF6E000EA9EC00F088D073
:1006D8008DEC00F01D0E096E050E0A6E080E0D2435
:1006E800056E000E0E20066E000E146E0FD005C5A6
:1006F800D9F406C5DAF409C5E1F40AC5E2F4DFC4A1
:10070800E7F4094A0A2A054A062A142A1650145CEC
:10071800D8A0EDD72204D8A40FD01504D8A40CD0A3
:10072800380E0001456F030E446F4369000E74ECE8
:1007380000F0BF9CBF9EFF00020E2218D8A406D06E
:10074800000E086E000E076E000E156E030E2218BE
:10075800D8A428D001016CA1FDD770C10BF571C1D7
:100768000CF507502324366E08502420376E365077
:100778003710D8A402D0010E01D0000E156E20EE5D
:1007880008F00B50D9260C50DA2215C5DFF420EEFC
:1007980004F00B50D9260C50DA22110EDF6E000E31
:1007A800A9EC00F0040E2218D8A41AD001016CA1FB
:1007B800FDD770C10BF571C10CF520EE08F00B5098
:1007C800D9260C50DA22020EDF6E20EE04F00B5010
:1007D800D9260C50DA22110EDF6E000EA9EC00F0BB
:1007E80001017581D8D5424C5F56455253494F4E49
:0307F8003D0303BB
:0807FC0047EF00F001EF05F0EA
:10082000A56320FF147F040B1701000800000000DF
:1008300000000101000000001400480800004F0300
:080848004D494F202020200043
:10090000E202E202E202E202E202E202E576E20250
:10091000E202E202E202E202E202E202E202E202B7
:10092000E202E202E202E202E202E202E202E202A7
:10093000E202E202E202E2029B75E202E202DD77FB
:10094000E202E202E202E202E202E202E202E20287
:10095000E202E202E202E2025D75E202E202E20289
:10096000E202E202E202E202E202E202E202E20267
:10097000E202E202E202E2028002E202E202E202B9
:10098000E202E202E202E202E202E202E202E20247
:10099000E202E202E202E2028002E202E202E20299
:1009A000E202E202E202E202E202E202E202E20227
:1009B000E202E202E202E202E202E202E202E20217
:1009C000E202E202E202E202E202E202E202E20207
:1009D000E202E202E202E202E202E202E202E202F7
:1009E0008002E202E202E202E202E202E202E20249
:1009F000E202E202E202E202E202E202E202E202D7
:100A0000FF0010EFE3F0196E0CEF05F07F0E13EF0F
:100A100005F0000E13EF05F01950010AD8B406EFE7
:100A200005F009EF05F01200196E1DEF05F0020E3A
:100A300024EF05F0000E24EF05F01950010AD8B498
:100A400017EF05F01AEF05F012000501675166195E
:100A50006B6F695168196A6F6B51070DF3506A2506
:100A60006B6F1F0E6B176B511200050E82ECE2F0DC
:100A70001D6E720E1E6E920E1F6E010E206E010E06
:100A80007DECE9F012003F6AFE0E266E030E276E23
:100A9000000E286E3FC529F5000E1CECE9F012008F
:100AA00041ECEFF00009D8A458EF05F05BEF05F03A
:100AB000010E5CEF05F0000E120078C573F579C5E4
:100AC00074F57AC575F5060E0501766FD7ECDFF083
:100AD0001200376A000E306E080E316E000E326E54
:100AE000F86A0001419F12000601CF29D8B47BEFBC
:100AF00005F07DEF05F07EEF05F0CF2B1200000E24
:100B00000601906F000E916F000E926F000E936FB2
:100B10001200010169B38FEF05F091EF05F089EF45
:100B200005F012001950010AD8B499EF05F099EFB9
:100B300005F0120001010239E832070B1200196EAC
:100B400019C5ECF51200010E0501FC6F1200000E34
:100B500024ECD4F01200196E19041200196E192831
:100B60001200C3ECC3F012000501FC6B120064EC30
:100B7000EAF012008FECEAF0120038681200000E62
:0A0B80001200000E12001200110016
:10FDA8000001010302020202030202030100000132
:10FDB800010101010101010101010101010101012B
:10FDC800010101010101010101010101010101011B
:10FDD800010101010101010101010101010101010B
:10FDE8000001010101010101010100010100000000
:10FDF80000000000000000000000000000000101F9
:10FE080001010103010101010101010100000000DC
:10FE180000000000010001010101010100010101D0
:10FE280001010101000101010101010001000000BF
:10FE380000000000000000000000000000010101B7
:10FE480001010101010101010000010100000000A0
:10FE58000000000001000001010100000001010193
:10FE6800010101010001010101010101010000007E
:10FE78000000000101000001010100000001010073
:10FE88000101010000010001010101010000000061
:10FE98000000000000000000000000010000000059
:10FEA8000000060404000000010600000000000233
:10FEB800068080EBEB000306807F40033C040603CA
:10FEC80080808000050680100000000606007B2068
:10FED80007FF0706050000000008000000000000FA
:10FEE80000000000000000000000000000000B43BC
:10FEF80000FF0C4301FF0D4302FF0E4303FF0F43B6
:10FF080004FF104305FF114306FF124307FF154284
:10FF1800000A16420108194204091A4205FF034162
:10FF28000101024100000541030307410504E2FF06
:10FF3800CEFFBAFFA6FF92FF7EFF6AFF56FF424C34
:10FF48005F56455253494F4E3D0B0A0908000801B8
:10FF58000000000000000000000000000000000099
:10FF680000000501000000BEDA013676010000003D
:10FF7800AEDE015ADC010602000000AED701B6323F
:10FF880001000000D8DE01EADC010402740B005213
:10FF9800D901962A010000002ADC011ADD010A03B2
:10FFA80000000060A70122C20100000060DB010020
:10FFB8000000020292D9014CDA014A6201000000F5
:10FFC800060A008ADC01010232D001849601F2118E
:10FFD80001224401000000BADC010302860A00364F
:10FFE8008E01EEAA01620B00280A00C0BD0104526E
:08FFF80001A07D01120B0000C5
:020000040001F9
:100000000501856B31EF88F005018551070DF3502F
:10001000120F0DECEBF019501D6E1E6A000E206ED3
:10002000020E1F6E4EECDAF01DC57AF51EC57BF58B
:1000300005018551070DF350130F0DECEBF019502E
:100040001D6E1E6A000E206E020E1F6E4EECDAF060
:100050001D5005017A25846F836B04EF83F0855171
:10006000070DF350120F0DECEBF0CF0E05018525B7
:10007000D96EDA6A050EDA22DF507A6F7B6B19507F
:100080007A1907E11A507B19D8A449EF80F04BEF99
:1000900080F064EF80F08551070DF350110F0DECE7
:1000A000EBF019BC56EF80F059EF80F0010E5AEFDB
:1000B00080F0000E0501726F8551040DF350080F9A
:1000C0004AECD1F07BEF80F08551070DF350110F12
:1000D0000DECEBF019BC6FEF80F072EF80F0010EC9
:1000E00073EF80F0000E0501726F8551040DF3501F
:1000F0000A0F4AECD1F0300E05018525D96EDA6A77
:10010000060EDA22020EDF6E400E8525D96EDA6AFF
:10011000060EDA22CF0E8525E16EE26A050EE22296
:10012000DE50E65CD8B097EF80F099EF80F07FEF7B
:1001300081F0CF0E8525D96EDA6A050EDA22845158
:10014000DE5CD8B0A6EF80F0A8EF80F0AAEF80F0D8
:10015000010E836F200E8525D96EDA6A060EDA222B
:10016000DF50D8B4B6EF80F0B8EF80F0F4EF80F055
:10017000CF0E8525D96EDA6A050EDA22200E852586
:10018000E16EE26A060EE222E7507B6FCF0E852514
:10019000E16EE26A050EE222E7507B257C6FDE50BD
:1001A0007C5DD8B0D6EF80F0D8EF80F0E2EF80F041
:1001B000CF0E8525D96EDA6A050EDA22FF0EDF6EC4
:1001C0002CEF81F0200E8525D96EDA6A060EDA2230
:1001D000DF507A6FCF0E8525D96EDA6A050EDA22E6
:1001E0007A51DF262CEF81F0840E8525D96EDA6AEC
:1001F000070EDA22DF06840E8525D96EDA6A070E2D
:10020000DA22DF50D8A407EF81F009EF81F02CEF5C
:1002100081F0CF0E8525D96EDA6A050EDA22DE2846
:10022000D8B415EF81F017EF81F01EEF81F0CF0EFB
:100230008525D96EDA6A050EDA22DF2A940E852525
:10024000D96EDA6A070EDA22840E8525E16EE26A3B
:10025000070EE222DFC4E7F4CF0E8525D96EDA6AF5
:10026000050EDA22400E8525E16EE26A060EE222D4
:10027000DE50E65CD8B03FEF81F041EF81F04FEF08
:1002800081F0400E8525D96EDA6A060EDA22CF0E8D
:100290008525E16EE26A050EE222DFC4E7F4CF0EA7
:1002A0008525D96EDA6A050EDA228451DE5CD8A083
:1002B0005CEF81F05EEF81F06CEF82F08351D8B497
:1002C00064EF81F066EF81F06CEF82F08551070DED
:1002D000F350110F0DECEBF019AC71EF81F074EFEE
:1002E00081F0010E75EF81F0000E0501726F8551EE
:1002F000040DF350090F4AECD1F06CEF82F0CF0EF1
:100300008525D96EDA6A050EDA22400E8525E16E62
:10031000E26A060EE222DE50E65CD8B092EF81F08F
:1003200094EF81F06CEF82F0CF0E8525D96EDA6AFA
:10033000050EDA22DE50845DD8B0A1EF81F0A3EF84
:1003400081F0A5EF81F0010E836F200E8525D96E17
:10035000DA6A060EDA22DF50D8B4B1EF81F0B3EFDB
:1003600081F0E3EF81F0CF0E8525D96EDA6A050EB4
:10037000DA22200E8525E16EE26A060EE222DE50C8
:10038000E65CD8A0C6EF81F0C8EF81F0D1EF81F034
:10039000CF0E8525D96EDA6A050EDA22DF6A1BEFE9
:1003A00082F0200E8525D96EDA6A060EDA22DF5039
:1003B0007A6FCF0E8525D96EDA6A050EDA227A5168
:1003C000DF5E1BEF82F0840E8525D96EDA6A070E98
:1003D000DA22DF06840E8525D96EDA6A070EDA2264
:1003E000DF50D8A4F6EF81F0F8EF81F01BEF82F038
:1003F000CF0E8525D96EDA6A050EDA22DF50D8B421
:1004000004EF82F006EF82F00DEF82F0CF0E85252B
:10041000D96EDA6A050EDA22DF06940E8525D96ECA
:10042000DA6A070EDA22840E8525E16EE26A070E8B
:10043000E222DFC4E7F4400E8525D96EDA6A060EA3
:10044000DA22CF0E8525E16EE26A050EE222DE5049
:10045000E65CD8B02EEF82F030EF82F03EEF82F013
:10046000400E8525D96EDA6A060EDA22CF0E852572
:10047000E16EE26A050EE222DFC4E7F4CF0E8525C5
:10048000D96EDA6A050EDA22DE50845DD8A04BEF11
:1004900082F04DEF82F06CEF82F08351D8B453EFCD
:1004A00082F055EF82F06CEF82F08551070DF3502A
:1004B000110F0DECEBF019BC60EF82F063EF82F0EE
:1004C000010E64EF82F0000E0501726F8551040D7C
:1004D000F350090F4AECD1F0CF0E05018525D96EF6
:1004E000DA6A050EDA22400E8525E16EE26A060E12
:1004F000E222DE50E618D8A480EF82F082EF82F08C
:10050000D1EF88F0300E8525D96EDA6A060EDA2230
:10051000010EDF6E38ECE7F005018551040D000E89
:10052000F324D96E070EF420DA6E19C5DEF41AC56D
:10053000DEF41BC5DEF41CC5DEF48551070DF35057
:10054000120F0DECEBF0CF0E05018525D96EDA6A9E
:10055000050EDA22DF507A6F7B6B19507A1907E1AA
:100560001A507B19D8A4B7EF82F0B9EF82F0D2EF1E
:1005700082F08551070DF350110F0DECEBF019AC23
:10058000C4EF82F0C7EF82F0010EC8EF82F0000ED8
:100590000501726F8551040DF350080F4AECD1F03C
:1005A000E9EF82F08551070DF350110F0DECEBF0E0
:1005B00019ACDDEF82F0E0EF82F0010EE1EF82F0A6
:1005C000000E0501726F8551040DF3500A0F4AECBD
:1005D000D1F0050185517A6F7B6B7C6BDE0E7A253D
:1005E000266E030E7B21276E000E7C21286ECF0E17
:1005F0008525D96EDA6A050EDA22DF50296E000EE3
:100600001CECE9F0D1EF88F0300E8525D96EDA6A5E
:10061000060EDA22DF507A6F7B6B7B51000AD8B46A
:1006200014EF83F0D1EF88F07A51000AD8B44DEF7F
:1006300088F0010AD8B44DEF88F0030AD8B484EFEB
:1006400080F0010AD8B42FEF80F0D1EF88F0855107
:10065000A7ECEFF0300E05018525D96EDA6A060E9B
:10066000DA22020EDF6E740E8525D96EDA6A070E65
:10067000DA22DF6A740E8525D96EDA6A070EDA226D
:10068000DF2A740E8525D96EDA6A070EDA22DE2893
:10069000D8A44DEF83F04FEF83F0AAEF83F0300E34
:1006A0008525D96EDA6A060EDA22010EDF6E38EC85
:1006B000E7F005018551040D000EF324D96E070EF5
:1006C000F420DA6E19C5DEF41AC5DEF41BC5DEF4BB
:1006D0001CC5DEF4400E8525D96EDA6A060EDA22D4
:1006E000CF0E8525E16EE26A050EE222DFC4E7F453
:1006F0008551070DF350110F0DECEBF019AC83EFA2
:1007000083F086EF83F0010E87EF83F0000E050182
:10071000726F8551040DF350080F4AECD1F00501BA
:1007200085517A6F7B6B7C6BDE0E7A25266E030E0D
:100730007B21276E000E7C21286ECF0E8525D96E79
:10074000DA6A050EDA22DF50296E000E1CECE9F0A1
:10075000D1EF88F08551070DF350120F0DECEBF03F
:1007600019500501826F400E8525D96EDA6A060E92
:10077000DA228251DE18D8A4C0EF83F0C2EF83F0F2
:1007800029EF84F0855128ECB8F00009D8B4CBEFFC
:1007900083F0CDEF83F0D1EF88F0300E0501852591
:1007A000D96EDA6A060EDA22010EDF6E38ECE7F057
:1007B00005018551040D000EF324D96E070EF420B7
:1007C000DA6E19C5DEF41AC5DEF41BC5DEF41CC5ED
:1007D000DEF4400E8525D96EDA6A060EDA22CF0ED7
:1007E0008525E16EE26A050EE222DFC4E7F4855159
:1007F000070DF350110F0DECEBF019AC02EF84F084
:1008000005EF84F0010E06EF84F0000E0501726F13
:100810008551040DF350080F4AECD1F005018551C4
:100820007A6F7B6B7C6BDE0E7A25266E030E7B2146
:10083000276E000E7C21286ECF0E8525D96EDA6AD0
:10084000050EDA22DF50296E000E1CECE9F0D1EF24
:1008500088F085516DECA4F00009D8B432EF84F033
:1008600034EF84F0D1EF88F0300E05018525D96E84
:10087000DA6A060EDA22010EDF6E38ECE7F00501C7
:100880008551040D000EF324D96E070EF420DA6EA4
:1008900019C5DEF41AC5DEF41BC5DEF41CC5DEF492
:1008A000400E8525D96EDA6A060EDA22CF0E85252E
:1008B000E16EE26A050EE222DFC4E7F48551070D1E
:1008C000F350110F0DECEBF019BC69EF84F06CEFF5
:1008D00084F0010E6DEF84F0000E0501726F8551FA
:1008E000040DF350080F4AECD1F0050185517A6FE1
:1008F0007B6B7C6BDE0E7A25266E030E7B21276ECA
:10090000000E7C21286ECF0E8525D96EDA6A050E81
:10091000DA22DF50296E000E1CECE9F0D1EF88F0EE
:10092000300E05018525D96EDA6A060EDA22DF500F
:100930007A6F7B6B7B51000AD8B4A1EF84F0D1EFC2
:1009400088F07A51000AD8B44DEF88F0010AD8B483
:10095000D1EF88F0030AD8B43AEF83F0010AD8B493
:1009600027EF83F0D1EF88F08551070DF350130F77
:100970000DECEBF0CF0E05018525D96EDA6A050E78
:10098000DA22DF507A6F7B6B19507A1907E11A501F
:100990007B19D8A4CEEF84F0D0EF84F0E7EF84F099
:1009A0008551070DF350110F0DECEBF019BCDBEF87
:1009B00084F0DEEF84F0010EDFEF84F0000E05011D
:1009C000726F8551040DF350080F4AECD1F0050108
:1009D0008551070DF350140F0DECEBF0CF0E050110
:1009E0008525D96EDA6A050EDA22DF507A6F7B6BC5
:1009F00019507A1907E11A507B19D8A402EF85F033
:100A000004EF85F01BEF85F08551070DF350110FB2
:100A10000DECEBF019BC0FEF85F012EF85F0010E35
:100A200013EF85F0000E0501726F8551040DF35030
:100A3000090F4AECD1F005018551070DF350150F50
:100A40000DECEBF0CF0E05018525D96EDA6A050EA7
:100A5000DA22DF507A6F7B6B19507A1907E11A504E
:100A60007B19D8A436EF85F038EF85F04FEF85F08D
:100A70008551070DF350110F0DECEBF019BC43EF4E
:100A800085F046EF85F0010E47EF85F0000E050179
:100A9000726F8551040DF3500A0F4AECD1F0050135
:100AA0008551070DF350160F0DECEBF0CF0E05013D
:100AB0008525D96EDA6A050EDA22DF507A6F7B6BF4
:100AC00019507A1907E11A507B19D8A46AEF85F0FA
:100AD0006CEF85F083EF85F08551070DF350110F12
:100AE0000DECEBF019BC77EF85F07AEF85F0010E95
:100AF0007BEF85F0000E0501726F8551040DF350F8
:100B00000B0F4AECD1F0300E05018525D96EDA6A5B
:100B1000060EDA22020EDF6E400E8525D96EDA6AE5
:100B2000060EDA22CF0E8525E16EE26A050EE2227C
:100B3000DE50E65CD8B09FEF85F0A1EF85F047EF7F
:100B400086F0200E8525D96EDA6A060EDA22DF508D
:100B5000D8B4ADEF85F0AFEF85F0F8EF85F0CF0EAC
:100B60008525D96EDA6A050EDA22DF507A6F7B6B43
:100B7000CF0E8525D96EDA6A050EDA22DF507C6F3A
:100B80007D6B200E8525D96EDA6A060EDA22DF50DB
:100B90007E6F7E517C27000E7D237A517C5D7D51D6
:100BA000800A7F6F7B51800A7F59D8B0DAEF85F0D9
:100BB000DCEF85F0E6EF85F0CF0E8525D96EDA6A99
:100BC000050EDA22FF0EDF6E22EF86F0200E85255D
:100BD000D96EDA6A060EDA22DF507A6FCF0E8525DB
:100BE000D96EDA6A050EDA227A51DF2622EF86F014
:100BF000840E8525D96EDA6A070EDA22DF06840EA6
:100C00008525D96EDA6A070EDA22DF50D8A40BEFF9
:100C100086F00DEF86F022EF86F0CF0E8525D96E97
:100C2000DA6A050EDA22DF2A940E8525D96EDA6A91
:100C3000070EDA22840E8525E16EE26A070EE222B3
:100C4000DFC4E7F4CF0E8525D96EDA6A050EDA2205
:100C5000400E8525E16EE26A060EE222DE50E65C79
:100C6000D8B035EF86F037EF86F0F3EF86F0400E20
:100C70008525D96EDA6A060EDA22CF0E8525E16E59
:100C8000E26A050EE222DFC4E7F4F3EF86F0CF0E4E
:100C90008525D96EDA6A050EDA22400E8525E16EC9
:100CA000E26A060EE222DE50E65CD8B05AEF86F029
:100CB0005CEF86F0F3EF86F0200E8525D96EDA6AB8
:100CC000060EDA22DF50D8B468EF86F06AEF86F0BD
:100CD000B2EF86F0CF0E8525D96EDA6A050EDA22DC
:100CE000DF507A6F7B6B200E8525D96EDA6A060E8F
:100CF000DA22DF507C6F7C517A5F000E7B5BCF0E77
:100D00008525D96EDA6A050EDA22DF507D6F7E6B9B
:100D10007A517D5D7E51800A7F6F7B51800A7F59B9
:100D2000D8B095EF86F097EF86F0A0EF86F0CF0E63
:100D30008525D96EDA6A050EDA22DF6ADCEF86F0E5
:100D4000200E8525D96EDA6A060EDA22DF507A6F18
:100D5000CF0E8525D96EDA6A050EDA227A51DF5E6A
:100D6000DCEF86F0840E8525D96EDA6A070EDA226A
:100D7000DF06840E8525D96EDA6A070EDA22DF5087
:100D8000D8A4C5EF86F0C7EF86F0DCEF86F0CF0E73
:100D90008525D96EDA6A050EDA22DF06940E8525DE
:100DA000D96EDA6A070EDA22840E8525E16EE26AD0
:100DB000070EE222DFC4E7F4400E8525D96EDA6A19
:100DC000060EDA22CF0E8525E16EE26A050EE222DA
:100DD000DE50E65CD8B0EFEF86F0F1EF86F0F3EF8F
:100DE00086F037EF86F0CF0E8525D96EDA6A050ECC
:100DF000DA22400E8525E16EE26A060EE222DE501E
:100E0000E618D8A406EF87F008EF87F0D1EF88F056
:100E1000300E8525D96EDA6A060EDA22010EDF6EF3
:100E200038ECE7F005018551040D000EF324D96E6E
:100E3000070EF420DA6E19C5DEF41AC5DEF41BC500
:100E4000DEF41CC5DEF48551070DF350130F0DECD5
:100E5000EBF0CF0E05018525D96EDA6A050EDA2290
:100E6000DF507A6F7B6B19507A1907E11A507B19A2
:100E7000D8A43DEF87F03FEF87F056EF87F085511C
:100E8000070DF350110F0DECEBF019AC4AEF87F0A2
:100E90004DEF87F0010E4EEF87F0000E0501726FE7
:100EA0008551040DF350080F4AECD1F0050185512E
:100EB000070DF350140F0DECEBF0CF0E0501852557
:100EC000D96EDA6A050EDA22DF507A6F7B6B195021
:100ED0007A1907E11A507B19D8A471EF87F073EFE4
:100EE00087F08AEF87F08551070DF350110F0DEC55
:100EF000EBF019AC7EEF87F081EF87F0010E82EF07
:100F000087F0000E0501726F8551040DF350090F33
:100F10004AECD1F005018551070DF350150F0DEC8A
:100F2000EBF0CF0E05018525D96EDA6A050EDA22BF
:100F3000DF507A6F7B6B19507A1907E11A507B19D1
:100F4000D8A4A5EF87F0A7EF87F0BEEF87F0855113
:100F5000070DF350110F0DECEBF019ACB2EF87F069
:100F6000B5EF87F0010EB6EF87F0000E0501726F46
:100F70008551040DF3500A0F4AECD1F0050185515B
:100F8000070DF350160F0DECEBF0CF0E0501852584
:100F9000D96EDA6A050EDA22DF507A6F7B6B195050
:100FA0007A1907E11A507B19D8A4D9EF87F0DBEF43
:100FB00087F0F2EF87F08551070DF350110F0DEC1C
:100FC000EBF019ACE6EF87F0E9EF87F0010EEAEFFE
:100FD00087F0000E0501726F8551040DF3500B0F61
:100FE0004AECD1F0050185517A6F7B6B7C6BDE0E8C
:100FF0007A25266E030E7B21276E000E7C21286E3B
:10100000CF0E8525D96EDA6A050EDA22DF50296EF9
:10101000000E1CECE9F0D1EF88F0300E05018525BB
:10102000D96EDA6A060EDA22DF507A6F7B6B7B515B
:10103000000AD8B41EEF88F0D1EF88F07A51000A88
:10104000D8B44DEF88F0010AD8B4D1EF88F0030A84
:10105000D8B48CEF85F0010AD8B4B4EF84F0D1EFA6
:1010600088F08551070DF350100F0DECEBF01A507E
:10107000000AD8B43EEF88F0D1EF88F01950020A88
:10108000D8B404EF80F0010AD8B490EF84F0070AD6
:10109000D8B40DEF88F0D1EF88F0D1EF88F0ABEF46
:1010A00088F08551070DF350110F0DECEBF019A2EC
:1010B0005CEF88F05EEF88F0EEEF88F00501855177
:1010C000040D000EF324D96E070EF420DA6EDEC490
:1010D0007AF5DEC47BF5DEC47CF5DEC47DF538EC44
:1010E000E7F005017A51195C7E6F7B511A587F6FCA
:1010F0007C511B58806F7D511C58816F815180112C
:101100000BE1250E7E5DF40E7F59D8A08AEF88F0A2
:101110008CEF88F0CFEF88F0300E8525D96EDA6A33
:10112000060EDA22DF6AEEEF88F08551070DF350E4
:10113000110F0DECEBF019AAA0EF88F0A3EF88F0E7
:10114000010EA4EF88F0000E1D6E05018551D1EC53
:10115000BFF0EEEF88F0300E05018525D96EDA6A12
:10116000060EDA22DF507A6F7B6B7B51000AD8B40F
:10117000BCEF88F0EEEF88F07A51000AD8B495EF12
:1011800088F0010AD8B451EF88F0030AD8B4EEEF22
:1011900088F0010AD8B4CFEF88F0EEEF88F0EEEFD8
:1011A00088F005018551070DF350100F0DECEBF0A1
:1011B0001A50000AD8B4DFEF88F0EEEF88F019502B
:1011C000020AD8B44FEF88F0010AD8B4ABEF88F028
:1011D000070AD8B4ABEF88F0EEEF88F00501852B55
:1011E0000F0E8565F6EF88F0F8EF88F031EF88F0A4
:1011F00012003D50D8A4FFEF88F001EF89F061EFB5
:101200008AF0C3EF89F0B9C5D9F4BAC5DAF4030E90
:10121000DF600DEF89F00FEF89F01FEF89F0E8C56F
:101220006EF5E7C56FF5420E0501706F010E716F27
:10123000010E726FAF0EFFECEEF056EF89F0050174
:1012400020EE02F0B951D926BA51DA22DF50E86F08
:1012500020EE03F0B951D926BA51DA22DF50E76FF8
:10126000FD0E266E030E276E000E286EE8C529F5CA
:10127000000E1CECE9F0FC0E266E030E276E000E2D
:10128000286EE7C529F5000E1CECE9F0010E3D6E55
:101290005AECC6F0E8C56EF5E7C56FF5520EE9ECFD
:1012A000EEF00601D74BD82B67ECECF0010EA5EF62
:1012B0008FF0A50E05016E6F630E6F6F200E706FBD
:1012C000FF0E716F140E726F7F0E736F040E746FCA
:1012D000EF0E15ECEFF056EF89F0480EF66E080EA3
:1012E000F76E000EF86E0800F5C46EF5490EF66E46
:1012F000080EF76E000EF86E0800F5C46FF54A0E82
:10130000F66E080EF76E000EF86E0800F5C470F564
:101310004B0EF66E080EF76E000EF86E0800F5C460
:1013200071F54C0EF66E080EF76E000EF86E0800A2
:10133000F5C472F54D0EF66E080EF76E000EF86EDF
:101340000800F5C473F54E0EF66E080EF76E000E2B
:10135000F86E0800F5C474F5E20E15ECEFF056EFE8
:1013600089F0000E05016E6F000E6F6FA50E706F95
:10137000200E716F54ECE3F00501726FB60EFFECB6
:10138000EEF056EF89F0050120EE01F0B951D926B3
:10139000BA51DA22DF500701E46FE56BE551000A2C
:1013A000D8B4D5EF89F0E8EF89F0E4510D0AD8B44C
:1013B000B1EF89F01D0AD8B459EF89F0010AD8B409
:1013C0006DEF89F0530AD8B403EF89F0E8EF89F0A4
:1013D000000EA5EF8FF0E8C56EF5E7C56FF5A50E19
:1013E0000501706F200E716F54ECE3F00501726F10
:1013F000B60EFFECEEF056EF89F0B9C5D9F4BAC5D8
:10140000DAF4040EDF6007EF8AF009EF8AF019EFD3
:101410008AF0E8C56EF5E7C56FF5760E0501706FC9
:10142000010E716F010E726FAF0EFFECEEF056EF12
:1014300089F0050120EE02F0B951D926BA51DA221D
:10144000DF50D8A426EF8AF028EF8AF07EEF8AF0EA
:1014500020EE03F0B951D926BA51DA22DF50D8A4D0
:1014600034EF8AF036EF8AF07EEF8AF020EE04F057
:10147000B951D926BA51DA22DF50BF6F4CEF8AF04A
:10148000FD8556EF89F0FD9556EF89F0FD8756EF03
:1014900089F0FD9756EF89F0BF510C0AD8B440EFA0
:1014A0008AF0010AD8B443EF8AF01D0AD8B446EF97
:1014B0008AF0010AD8B449EF8AF05FEF8AF07EEF34
:1014C0008AF0050120EE01F0B951D926BA51DA228D
:1014D000DF500701E46FE56BE551000AD8B473EF04
:1014E0008AF07EEF8AF0E4510D0AD8B4EBEF89F070
:1014F0007B0AD8B4FDEF89F07EEF8AF0B9C5D9F444
:10150000BAC5DAF4030EDF6088EF8AF08AEF8AF05A
:101510008CEF8AF0E8EF89F0050120EE02F0B95176
:10152000D926BA51DA22DE50E819D8B49AEF8AF0F7
:101530009CEF8AF09EEF8AF0E8EF89F020EE03F04E
:10154000B951D926BA51DA22E751DE18D8B4ABEF37
:101550008AF0ADEF8AF079EF8FF0E8EF89F0B9C546
:10156000D9F4BAC5DAF4040EDF60B9EF8AF0BBEF44
:101570008AF0CBEF8AF0E8C56EF5E7C56FF5730E1C
:101580000501706F010E716F010E726FAF0EFFECEF
:10159000EEF056EF89F0050120EE04F0B951D9269E
:1015A000BA51DA22140EDF64D8EF8AF0DAEF8AF04B
:1015B000F3EF8AF0E8C56EF5E7C56FF5090E706FB9
:1015C0006F0ED3ECEEF0E8C56EF5E7C56FF5730E60
:1015D0000501706F010E716F090E726FAF0EFFEC97
:1015E000EEF056EF89F020EE04F0B951D926BA5149
:1015F000DA22DF5086ECC8F00501BB6FE8C56EF556
:10160000E7C56FF520EE04F0B951D926BA51DA22B8
:10161000DF50706FBBC571F59B0E2BECEFF0050131
:10162000FDB715EF8BF017EF8BF056EF89F020EE3A
:1016300004F0B951D926BA51DA22DF50D8A423EFE9
:101640008BF025EF8BF056EF89F0010E82ECE2F083
:101650001D6E860E1E6EDA0E1F6E010E206E070EB8
:101660007DECE9F056EF89F0E7C5E3F5E8C5E4F570
:10167000FA0E266E030E276E000E286EFF0E296EE0
:10168000000E1CECE9F00501E351E411D8B44BEF76
:101690008BF04DEF8BF074EF8BF0E4C56EF5E3C586
:1016A0006FF5510EE9ECEEF0060E0501E925070194
:1016B000E46F000E0501EA210701E56FE4C7F6F4C7
:1016C000E5C7F7F4000EF86E02D874EF8BF0050052
:1016D000FA6E0900F550FD6E0900F550FE6E090026
:1016E000F550FF6EFA501200FF00B9C5D9F4BAC523
:1016F000DAF4050EDF607FEF8BF081EF8BF091EF76
:101700008BF0E8C56EF5E7C56FF5870E0501706FC4
:10171000010E716F010E726FAF0EFFECEEF056EF1F
:1017200089F0050120EE04F0B951D926BA51DA2228
:10173000DF50D8A49EEF8BF0A0EF8BF0ADEF8BF0D5
:10174000000E1D6E500E1E6E9B0E1F6E010E206E43
:10175000040E7DECE9F056EF89F020EE04F0B9516B
:10176000D926BA51DA22080EDF64B9EF8BF0BBEF4D
:101770008BF0CAEF8BF0E8C56EF5E7C56FF5870E05
:10178000706F010E716FFC0E726FAF0EFFECEEF01A
:1017900056EF89F020EE04F0B951D926BA51DA2279
:1017A000DF500701E46FE56BD890E437E537FE0EB4
:1017B000E425E66FFF0EE521E76F360EE625F66EAF
:1017C000FF0EE721F76EF86A000EF8220900F5C453
:1017D000E8F70900F5C4E9F7110EE827000EE92340
:1017E000E8C7F6F4E9C7F7F4000EF86E0900F55003
:1017F0000900F5100900F510D8A401EF8CF003EFF3
:101800008CF017EF8CF0E8C56EF5E7C56FF5870E25
:101810000501706F20EE04F0B951D926BA51DA22D1
:10182000DF50716F000E726FC70EFFECEEF0050116
:1018300020EE05F0B951D926BA51DA22DF50D8A4EA
:1018400024EF8CF026EF8CF039EF8CF020EE04F0D2
:10185000B951D926BA51DA22DF501D6E500E1E6ED4
:101860009B0E1F6E010E206E040E7DECE9F056EF0C
:1018700089F020EE04F0B951D926BA51DA22DF50AE
:101880000701E46FE56BD890E437E537FE0EE425F9
:10189000E66FFF0EE521E76F360EE625F66EFF0ECA
:1018A000E721F76EF86A000EF8220900F5C4E8F7A0
:1018B0000900F5C4E9F7110EE827000EE923E8C78F
:1018C000F6F4E9C7F7F4000EF86E02D87DEF8CF05D
:1018D0000500FA6E0900F550FD6E0900F550FE6E28
:1018E0000900F550FF6EFA50050120EE05F0B951E0
:1018F000D926BA51DA22DF5012001FC5BDF520C526
:10190000BEF50501BD51BE11D8A489EF8CF08BEF57
:101910008CF09AEF8CF0E8C56EF5E7C56FF5870E91
:10192000706F010E716FFD0E726FAF0EFFECEEF077
:1019300056EF89F0E8C56EF5E7C56FF520EE04F0C7
:10194000B951D926BA51DA22DF50706F20EE05F076
:10195000B951D926BA51DA22DF50716F20EE01F069
:10196000BD51D926BE51DA22DF50726FBDC5D9F400
:10197000BEC5DAF4DF50736FC70EBDECEEF056EF64
:1019800089F0B9C5D9F4BAC5DAF4040EDF60CBEF3B
:101990008CF0CDEF8CF0DDEF8CF0E8C56EF5E7C58F
:1019A0006FF5780E0501706F010E716F010E726F89
:1019B000AF0EFFECEEF056EF89F0050120EE04F0DB
:1019C000B951D926BA51DA22DF50D8A4EAEF8CF007
:1019D000ECEF8CF006EF8DF0E8C56EF5E7C56FF51E
:1019E000000E706F000E716F080E726FAC0EFFEC80
:1019F000EEF0010E1D6EEC0E1E6EC00E1F6E010E7F
:101A0000206E030E7DECE9F056EF89F020EE04F035
:101A1000B951D926BA51DA22080EDF6412EF8DF0DF
:101A200014EF8DF023EF8DF0E8C56EF5E7C56FF587
:101A3000780E706F010E716FFC0E726FAF0EFFECBF
:101A4000EEF056EF89F020EE04F0B951D926BA51E4
:101A5000DA22DF500701E46FE56BD890E437E53711
:101A6000FE0EE425E66FFF0EE521E76F360EE62554
:101A7000F66EFF0EE721F76EF86A000EF8220900F5
:101A8000F5C4E8F70900F5C4E9F70E0EE827000EE3
:101A9000E923E8C7F6F4E9C7F7F4000EF86E090089
:101AA000F5500900F5100900F510D8A45AEF8DF093
:101AB0005CEF8DF0A0EF8DF0E8C56EF5E7C56FF532
:101AC000050120EE04F0B951D926BA51DA22DF50CF
:101AD000706F20EE04F0B951D926BA51DA22DF50E6
:101AE0000701E46FE56BD890E437E537FE0EE42597
:101AF000E66FFF0EE521E76F360EE625F66EFF0E68
:101B0000E721F76EF86A000EF8220900F5C4E8F73D
:101B10000900F5C4E9F7E8C7F6F4E9C7F7F4000EE1
:101B2000F86E0800F5C471F5000E0501726F000E25
:101B3000736F000E746FE70E15ECEFF056EF89F03F
:101B4000E8C56EF5E7C56FF5050120EE04F0B95163
:101B5000D926BA51DA22DF50706F20EE04F0B95165
:101B6000D926BA51DA22DF500701E46FE56BD8902D
:101B7000E437E537FE0EE425E66FFF0EE521E76F5B
:101B8000360EE625F66EFF0EE721F76EF86A000EB8
:101B9000F8220900F5C4E8F70900F5C4E9F7E8C739
:101BA000F6F4E9C7F7F4000EF86E0800F5C471F515
:101BB000050120EE04F0B951D926BA51DA22DF50DE
:101BC0000701EA6FEB6BD890EA37EB37FE0EEA2598
:101BD000EC6FFF0EEB21ED6F360EEC25F66EFF0E6F
:101BE000ED21F76EF86A000EF8220900F5C4EEF751
:101BF0000900F5C4EFF70E0EEE27000EEF23EEC737
:101C0000F6F4EFC7F7F4000EF86E02D816EF8EF078
:101C10000500FA6E0900F550FD6E0900F550FE6EE4
:101C20000900F550FF6EFA50010E12000501726FA7
:101C300020EE04F0B951D926BA51DA22DF5007015B
:101C4000F06FF16BD890F037F137FE0EF025F26FA0
:101C5000FF0EF121F36F360EF225F66EFF0EF32123
:101C6000F76EF86A000EF8220900F5C4F4F70900CF
:101C7000F5C4F5F70E0EF427000EF523F4C7F6F4BD
:101C8000F5C7F7F4000EF86E02D855EF8EF0050098
:101C9000FA6E0900F550FD6E0900F550FE6E090060
:101CA000F550FF6EFA50020E12000501736F20EE20
:101CB00004F0B951D926BA51DA22DF500701F66F84
:101CC000F76BD890F637F737FE0EF625F86FFF0E54
:101CD000F721F96F360EF825F66EFF0EF921F76E33
:101CE000F86A000EF8220900F5C4FAF70900F5C4F5
:101CF000FBF70E0EFA27000EFB23FAC7F6F4FBC71C
:101D0000F7F4000EF86E02D894EF8EF00500FA6E2C
:101D10000900F550FD6E0900F550FE6E0900F55002
:101D2000FF6EFA50030E12000501746FE70E15ECFA
:101D3000EFF056EF89F0B9C5D9F4BAC5DAF4040E5C
:101D4000DF60A5EF8EF0A7EF8EF0B7EF8EF0E8C55D
:101D50006EF5E7C56FF5760E0501706F010E716FB8
:101D6000010E726FAF0EFFECEEF056EF89F0050139
:101D700020EE04F0B951D926BA51DA22DF50BF6FF4
:101D8000E7C5E3F5E8C5E4F55BEF8FF03D04D8A4C3
:101D9000CCEF8EF0CEEF8EF0E8EF89F0BF51D8B4E3
:101DA000D4EF8EF0D6EF8EF0DAEF8EF0510EBC6FDE
:101DB000DCEF8EF0500EBC6FE8C56EF5E7C56FF531
:101DC000BC51E9ECEEF0E8C56EF5E7C56FF5760EAF
:101DD0000501706F010E716F000E726FAF0EFFEC98
:101DE000EEF00501E86BE76BFD0E266E030E276E25
:101DF000000E286EE8C529F5000E1CECE9F0FC0E7B
:101E0000266E030E276E000E286EE7C529F5000E1C
:101E10001CECE9F00501BF51D8B411EF8FF013EFBE
:101E20008FF016EF8FF03D6817EF8FF03D6A010ECF
:101E3000F16F54EF89F0FD85E8C56EF5E7C56FF5E4
:101E4000760E706F010E716F000E726FAF0EFFECA9
:101E5000EEF056EF89F0FD95E8C56EF5E7C56FF534
:101E6000760E706F010E716F000E726FAF0EFFEC89
:101E7000EEF056EF89F0FD87E8C56EF5E7C56FF522
:101E8000760E706F010E716F000E726FAF0EFFEC69
:101E9000EEF056EF89F0FD97E8C56EF5E7C56FF5F2
:101EA000760E706F010E716F000E726FAF0EFFEC49
:101EB000EEF056EF89F0BF51000AD8B4C6EF8EF0AD
:101EC0000C0AD8B41BEF8FF0010AD8B42BEF8FF0B7
:101ED0001D0AD8B43BEF8FF0010AD8B44BEF8FF056
:101EE000EE0AD8B4C6EF8EF0E8EF89F0FF0056EFA7
:101EF00089F020EE01F0B951D926BA51DA22DF502B
:101F00000701E46FE56BE551000AD8B48AEF8FF062
:101F1000E8EF89F0E4514F0AD8B434EF8BF0110A9E
:101F2000D8B476EF8FF02D0AD8B4AFEF8AF0050A57
:101F3000D8B49BEF8EF00E0AD8B4C1EF8CF0FF0A34
:101F4000D8B475EF8BF0E8EF89F012000501B26F9D
:101F5000F00E0501B225196E1A6AFF0E1A22000E44
:101F60001C6E070E1B6E34ECDDF019501A10D8A44D
:101F7000BCEF8FF0BEEF8FF0DCEF8FF00501B251B8
:101F8000F00FB36FB3C51DF51E6A000E206E070E6D
:101F90001F6E4EECDAF01D500501B36FAB51AC195A
:101FA000D8B4D5EF8FF0D7EF8FF0DCEF8FF0ABC563
:101FB000A8F5B3518BECDDF0050E0501B219D8A4DC
:101FC000E4EF8FF0E6EF8FF0E9EF8FF0AB519FEC8D
:101FD00005F0060E0501B219D8A4F1EF8FF0F3EF6A
:101FE0008FF057EF91F0B36B2EEF91F0AB51D8B467
:101FF000FCEF8FF0FEEF8FF03BEF90F0B3C5ADF547
:10200000070EAD17010EAE6F000EAF6FAD2B0CEFCC
:1020100090F0D890AE37AF37AD2F09EF90F00501B3
:10202000AE51AF11D8B417EF90F019EF90F03BEF2D
:1020300090F0B351040D020EF326000EF422F60EBA
:10204000F324F66EFE0EF420F76EF86A000EF82206
:102050000800F5C4ADF5010EAE6FAD2B32EF90F078
:10206000D890AE37AD2F30EF90F00501AE5104019E
:1020700001134DEF91F0B351040D020EF326000E43
:10208000F422F60EF324F66EFE0EF420F76EF86AD4
:10209000000EF8220800F5C4ADF5010EAE6FAD2BB1
:1020A00054EF90F0D890AE37AD2F52EF90F005017D
:1020B000AE51FF0A040101174DEF91F0AB51D8B4B6
:1020C00064EF90F066EF90F0A3EF90F0B3C5ADF53C
:1020D000070EAD17010EAE6F000EAF6FAD2B74EF94
:1020E00090F0D890AE37AF37AD2F71EF90F005017B
:1020F000AE51AF11D8B47FEF90F081EF90F0A3EF25
:1021000090F0B351040D020EF326000EF422F60EE9
:10211000F324F66EFE0EF420F76EF86A000EF82235
:102120000800F5C4ADF5010EAE6FAD2B9AEF90F03F
:10213000D890AE37AD2F98EF90F00501AE51040165
:1021400009134DEF91F0B351040D020EF326000E6A
:10215000F422F60EF324F66EFE0EF420F76EF86A03
:10216000000EF8220800F5C4ADF5010EAE6FAD2BE0
:10217000BCEF90F0D890AE37AD2FBAEF90F00501DC
:10218000AE51FF0A040109174DEF91F0AB51D8B4DD
:10219000CCEF90F0CEEF90F00BEF91F0B3C5ADF532
:1021A000070EAD17010EAE6F000EAF6FAD2BDCEF5B
:1021B00090F0D890AE37AF37AD2FD9EF90F0050142
:1021C000AE51AF11D8B4E7EF90F0E9EF90F00BEF1C
:1021D00091F0B351040D020EF326000EF422F60E18
:1021E000F324F66EFE0EF420F76EF86A000EF82265
:1021F0000800F5C4ADF5010EAE6FAD2B02EF91F006
:10220000D890AE37AD2F00EF91F00501AE5104012B
:1022100011134DEF91F0B351040D020EF326000E91
:10222000F422F60EF324F66EFE0EF420F76EF86A32
:10223000000EF8220800F5C4ADF5010EAE6FAD2B0F
:1022400024EF91F0D890AE37AD2F22EF91F0050139
:10225000AE51FF0A040111174DEF91F0B351040D77
:10226000010EF326000EF422F60EF324F66EFE0E97
:10227000F420F76EF86A000EF8220800F550410AC3
:10228000D8B4F6EF8FF0030AD8B45EEF90F0010AED
:10229000D8B4C6EF90F04DEF91F00501B32B070EC7
:1022A000B36555EF91F057EF91F02EEF91F0070ED7
:1022B000B219D8A45EEF91F060EF91F0C5EF92F003
:1022C000080EB36F9CEF92F0AB51D8B46AEF91F067
:1022D0006CEF91F0A9EF91F0B3C5ADF5070EAD1716
:1022E000010EAE6F000EAF6FAD2B7AEF91F0D8906C
:1022F000AE37AF37AD2F77EF91F00501AE51AF118B
:10230000D8B485EF91F087EF91F0A9EF91F0B35138
:10231000040D020EF326000EF422F60EF324F66EE0
:10232000FE0EF420F76EF86A000EF8220800F5C4DD
:10233000ADF5010EAE6FAD2BA0EF91F0D890AE379A
:10234000AD2F9EEF91F00501AE5104010113BBEFDB
:1023500092F0B351040D020EF326000EF422F60E95
:10236000F324F66EFE0EF420F76EF86A000EF822E3
:102370000800F5C4ADF5010EAE6FAD2BC2EF91F0C4
:10238000D890AE37AD2FC0EF91F00501AE51FF0AE6
:1023900004010117BBEF92F0AB51D8B4D2EF91F02A
:1023A000D4EF91F011EF92F0B3C5ADF5070EAD1774
:1023B000010EAE6F000EAF6FAD2BE2EF91F0D89033
:1023C000AE37AF37AD2FDFEF91F00501AE51AF1152
:1023D000D8B4EDEF91F0EFEF91F011EF92F0B3512F
:1023E000040D020EF326000EF422F60EF324F66E10
:1023F000FE0EF420F76EF86A000EF8220800F5C40D
:10240000ADF5010EAE6FAD2B08EF92F0D890AE3760
:10241000AD2F06EF92F00501AE5104010913BBEF99
:1024200092F0B351040D020EF326000EF422F60EC4
:10243000F324F66EFE0EF420F76EF86A000EF82212
:102440000800F5C4ADF5010EAE6FAD2B2AEF92F08A
:10245000D890AE37AD2F28EF92F00501AE51FF0AAC
:1024600004010917BBEF92F0AB51D8B43AEF92F0E8
:102470003CEF92F079EF92F0B3C5ADF5070EAD17D2
:10248000010EAE6F000EAF6FAD2B4AEF92F0D890F9
:10249000AE37AF37AD2F47EF92F00501AE51AF1118
:1024A000D8B455EF92F057EF92F079EF92F0B35124
:1024B000040D020EF326000EF422F60EF324F66E3F
:1024C000FE0EF420F76EF86A000EF8220800F5C43C
:1024D000ADF5010EAE6FAD2B70EF92F0D890AE3728
:1024E000AD2F6EEF92F00501AE5104011113BBEF59
:1024F00092F0B351040D020EF326000EF422F60EF4
:10250000F324F66EFE0EF420F76EF86A000EF82241
:102510000800F5C4ADF5010EAE6FAD2B92EF92F051
:10252000D890AE37AD2F90EF92F00501AE51FF0A73
:1025300004011117BBEF92F0B351040D010EF32605
:10254000000EF422F60EF324F66EFE0EF420F76E63
:10255000F86A000EF8220800F550410AD8B464EF7A
:1025600091F0030AD8B4CCEF91F0010AD8B434EF5B
:1025700092F0BBEF92F00501B32B0F0EB365C3EFE2
:1025800092F0C5EF92F09CEF92F00F0EB265CBEF98
:1025900092F0CDEF92F04AEF95F0F00EB2251D6E5D
:1025A0001E6AFF0E1E22000E206E070E1F6E4EECDE
:1025B000DAF01D500501B36FF00EB225196E1A6ADC
:1025C000FF0E1A22000E1C6E070E1B6E34ECDDF09F
:1025D00029EF95F00501B251AD6FAE6BB351070D08
:1025E000120EF326000EF422AD51F31807E1AE519E
:1025F000F418D8A4FEEF92F000EF93F04AEF95F0B4
:10260000B3C5FBF5ABBF07EF93F009EF93F00FEF06
:1026100093F0000EB16F010EB06F13EF93F0000E48
:10262000B16F020EB06FB0C5FAF54AEF95F04AEF00
:1026300095F00501B251AD6FAE6BB351070D120E9F
:10264000F326000EF422AD51F31807E1AE51F41851
:10265000D8A42DEF93F02FEF93F03CEF93F0020E00
:102660001D6EB351B8ECD6F0020E1D6E0501B351CC
:102670003AECD3F04AEF95F0B251AD6FAE6BB35177
:10268000070D130EF326000EF422AD51F31807E1E7
:10269000AE51F418D8A44FEF93F051EF93F05EEFE2
:1026A00093F0010E1D6EB351B8ECD6F0010E1D6E05
:1026B0000501B3513AECD3F04AEF95F0B251AD6F4A
:1026C000AE6BB351070D110EF326000EF422AD517F
:1026D000F31807E1AE51F418D8A471EF93F073EF3B
:1026E00093F04AEF95F0ABAF78EF93F07AEF93F079
:1026F00017EF93F0ACBF7FEF93F081EF93F017EFFC
:1027000093F0B351070DF350120F0DECEBF019C518
:102710001DF51AC51EF5000E206E020E1F6E4EEC42
:10272000DAF01DC5ADF51EC5AEF50501B351070DB7
:10273000F350130F0DECEBF019C51DF51AC51EF57E
:10274000000E206E020E1F6E4EECDAF01D500501D9
:10275000AD25256EB351CDECEFF04AEF95F00501B4
:10276000B251AD6FAE6BB351070D130EF326000ED1
:10277000F422AD51F31807E1AE51F418D8A4C3EF19
:1027800093F0C5EF93F0D2EF93F0020E1D6EB351AC
:1027900021ECD7F0020E196E0501B351A9ECE7F058
:1027A0004AEF95F0B251AD6FAE6BB351070D120EFB
:1027B000F326000EF422AD51F31807E1AE51F418E0
:1027C000D8A4E5EF93F0E7EF93F0F4EF93F0010E68
:1027D0001D6EB35121ECD7F0010E196E0501B351F6
:1027E000A9ECE7F04AEF95F0B251AD6FAE6BB35183
:1027F000070D110EF326000EF422AD51F31807E178
:10280000AE51F418D8A407EF94F009EF94F04AEF12
:1028100095F0ABAF0EEF94F010EF94F017EF93F04C
:10282000ACBF15EF94F017EF94F017EF93F0B3519E
:10283000070DF350120F0DECEBF019C51DF51AC57D
:102840001EF5000E206E020E1F6E4EECDAF01DC556
:10285000ADF51EC5AEF50501B351070DF350130FCD
:102860000DECEBF019C51DF51AC51EF5000E206E16
:10287000020E1F6E4EECDAF01D500501AD25AF6F54
:10288000CF0EB325D96EDA6A050EDA22AFC5DFF4B2
:102890004AEF95F00501B251AD6FAE6BB351070D24
:1028A000130EF326000EF422AD51F31807E1AE51DA
:1028B000F418D8A45EEF94F060EF94F06DEF94F00C
:1028C000000E1D6EB3514DECD0F0000E1D6E0501D3
:1028D000B3518CECDEF04AEF95F0B251AD6FAE6BB8
:1028E000B351070D140EF326000EF422AD51F31868
:1028F00007E1AE51F418D8A480EF94F082EF94F081
:102900008FEF94F0010E1D6EB3514DECD0F0010E1F
:102910001D6E0501B3518CECDEF04AEF95F0B2511B
:10292000AD6FAE6BB351070D150EF326000EF422FA
:10293000AD51F31807E1AE51F418D8A4A2EF94F00A
:10294000A4EF94F0B1EF94F0020E1D6EB3514DEC74
:10295000D0F0020E1D6E0501B3518CECDEF04AEF93
:1029600095F0B251AD6FAE6BB351070D160EF32655
:10297000000EF422AD51F31807E1AE51F418D8A4BB
:10298000C4EF94F0C6EF94F0D3EF94F0030E1D6EF5
:10299000B3514DECD0F0030E1D6E0501B3518CEC1C
:1029A000DEF04AEF95F0B251AD6FAE6BB351070D4B
:1029B000110EF326000EF422AD51F31807E1AE51CB
:1029C000F418D8A4E6EF94F0E8EF94F04AEF95F00D
:1029D000ABAFEDEF94F0EFEF94F017EF93F0ACBFE7
:1029E000F4EF94F0F6EF94F017EF93F0B351070D76
:1029F000F350120F0DECEBF019C51DF51AC51EF5BD
:102A0000000E206E020E1F6E4EECDAF01DC5ADF505
:102A10001EC5AEF50501B351070DF350130F0DECB4
:102A2000EBF019C51DF51AC51EF5000E206E020E3D
:102A30001F6E4EECDAF01D500501AD25AF6FCF0EC5
:102A4000B325D96EDA6A050EDA22AFC5DFF44AEF94
:102A500095F00501B351070DF350100F0DECEBF09D
:102A60001A50000AD8B437EF95F04AEF95F0195094
:102A7000020AD8B419EF93F0010AD8B4AFEF93F07B
:102A8000070AD8B44AEF94F0020AD8B4EAEF92F0F9
:102A90004AEF95F0120012EF99F0B9C578F5BAC572
:102AA00079F5030E7A6F000E7B6FA2ECE4F0E80676
:102AB000D8A45DEF95F05FEF95F062EF95F0010E11
:102AC0005AEF99F0050120EE02F0B951D926BA511A
:102AD000DA22DE50E819D8A470EF95F072EF95F085
:102AE00084EF95F020EE03F0B951D926BA51DA22DD
:102AF000E751DE18D8A47FEF95F081EF95F084EFD1
:102B000095F0FD815FEF95F0FD915FEF95F0B9C510
:102B100078F5BAC579F5040E7A6F000E7B6FA2ECDA
:102B2000E4F0E806D8A497EF95F099EF95F09BEFC5
:102B300095F05FEF95F0050120EE02F0B951D9262E
:102B4000BA51DA22DE50E819D8A4A9EF95F0ABEF1C
:102B500095F0DCEF95F020EE03F0B951D926BA518B
:102B6000DA22E751DE18D8A4B8EF95F0BAEF95F065
:102B7000DCEF95F020EE04F0B951D926BA51DA22F3
:102B8000080EDE18D8A4C7EF95F0C9EF95F0CBEF8B
:102B900095F081EF95F020EE04F0B951D926BA51A5
:102BA000DA22090EDE18D8A4D8EF95F0DAEF95F006
:102BB000DDEF95F084EF95F0FD91000E5AEF99F05E
:102BC000B9C578F5BAC579F5070E7A6F010E7B6F36
:102BD000A2ECE4F0E806D8A4F0EF95F0F2EF95F05F
:102BE000FEEF95F0E8C56EF5E7C56FF5010E05013E
:102BF000706F6F0ED3ECEEF05FEF95F00501FDB155
:102C000004EF96F006EF96F008EF96F05FEF95F080
:102C100020EE03F0B951D926BA51DA22DF50BB6F4A
:102C200020EE02F0B951D926BA51DA22DF50BC6F3A
:102C3000BB51AC6FBCC5ADF520EE05F0B951D9263E
:102C4000BA51DA22DF50BE6F20EE04F0B951D92616
:102C5000BA51DA22DF50BF6FBE51AE6FBFC5AFF5BC
:102C600020EE06F0B951D926BA51DA22DF50B06F02
:102C700020EE07F0B951D926BA51DA22DF50B16FF0
:102C800008ECD5F05FEF95F0B9C578F5BAC579F5E0
:102C9000050E7A6F010E7B6FA2ECE4F0E806D8A473
:102CA00054EF96F056EF96F058EF96F05FEF95F0F0
:102CB0000501FDB15EEF96F060EF96F062EF96F0E1
:102CC0005FEF95F020EE03F0B951D926BA51DA2220
:102CD000DF50BB6F20EE02F0B951D926BA51DA228B
:102CE000DF50BC6FBB51806FBCC581F520EE05F095
:102CF000B951D926BA51DA22DF50BE6F20EE04F066
:102D0000B951D926BA51DA22DF50BF6FBE51826F56
:102D1000BFC583F5DCECE3F05FEF95F0B9C578F55E
:102D2000BAC579F5060E7A6F010E7B6FA2ECE4F05E
:102D3000E806D8A49EEF96F0A0EF96F0A2EF96F0EA
:102D40005FEF95F00501FDB1A8EF96F0AAEF96F0C0
:102D5000ACEF96F05FEF95F020EE03F0B951D92675
:102D6000BA51DA22DF50BB6F20EE02F0B951D926FA
:102D7000BA51DA22DF50BC6FBB51796FBCC57AF50E
:102D800020EE05F0B951D926BA51DA22DF50BE6FD4
:102D900020EE04F0B951D926BA51DA22DF50BF6FC4
:102DA000BE517B6FBFC57CF520EE06F0B951D92628
:102DB000BA51DA22DF507D6F92ECC5F05FEF95F0EB
:102DC000B9C578F5BAC579F5030E7A6F000E7B6F39
:102DD000A2ECE4F0E806D8A4F0EF96F0F2EF96F05B
:102DE000F4EF96F05FEF95F0050120EE02F0B95197
:102DF000D926BA51DA22DE50E819D8A402EF97F0AA
:102E000004EF97F05FEF95F020EE03F0B951D9266B
:102E1000BA51DA22E751DE18D8B411EF97F013EF68
:102E200097F084EF95F05FEF95F0B9C578F5BAC5E6
:102E300079F5030E7A6F010E7B6FA2ECE4F0E806E1
:102E4000D8A425EF97F027EF97F029EF97F05FEFE1
:102E500095F0050120EE02F0B951D926BA51DA22D7
:102E6000DE50E819D8A437EF97F039EF97F05FEF0D
:102E700095F020EE03F0B951D926BA51DA22E75184
:102E8000DE18D8B446EF97F048EF97F04AEF97F086
:102E90005FEF95F0FDB14FEF97F051EF97F06AEFCC
:102EA00097F0E8C56EF5E7C56FF5020E706F6F0E0F
:102EB000D3ECEEF0E8C56EF5E7C56FF5550E0501EC
:102EC000706F040E716F020E726FAF0EFFECEEF0BA
:102ED0005FEF95F0FDECEDF0DDEF95F0B9C578F51D
:102EE000BAC579F5030E7A6F000E7B6FA2ECE4F0A1
:102EF000E806D8A47EEF97F080EF97F082EF97F086
:102F00005FEF95F0050120EE02F0B951D926BA51D4
:102F1000DA22DE50E819D8A490EF97F092EF97F0FC
:102F20005FEF95F020EE03F0B951D926BA51DA22BD
:102F3000E751DE18D8B49FEF97F0A1EF97F0A3EF19
:102F400097F05FEF95F0F1ECEFF05FEF95F0B9C51A
:102F500078F5BAC579F5030E7A6F000E7B6FA2EC97
:102F6000E4F0E806D8A4B7EF97F0B9EF97F0BBEF1D
:102F700097F05FEF95F0050120EE02F0B951D926E8
:102F8000BA51DA22DE50E819D8A4C9EF97F0CBEF96
:102F900097F05FEF95F020EE03F0B951D926BA51C2
:102FA000DA22E751DE18D8B4D8EF97F0DAEF97F0CD
:102FB000DCEF97F05FEF95F071ECE7F05FEF95F0E5
:102FC000B9C578F5BAC579F5030E7A6F000E7B6F37
:102FD000A2ECE4F0E806D8A4F0EF97F0F2EF97F057
:102FE000F4EF97F05FEF95F0050120EE02F0B95194
:102FF000D926BA51DA22DE50E819D8A402EF98F0A7
:1030000004EF98F05FEF95F020EE03F0B951D92668
:10301000BA51DA22E751DE18D8B411EF98F013EF65
:1030200098F015EF98F05FEF95F0FCECEBF05FEFA8
:1030300095F0B9C578F5BAC579F5040E7A6F000E2A
:103040007B6FA2ECE4F0E806D8A429EF98F02BEF10
:1030500098F02DEF98F05FEF95F0050120EE02F06B
:10306000B951D926BA51DA22DE50E819D8A43BEF7B
:1030700098F03DEF98F05FEF95F020EE03F0B95136
:10308000D926BA51DA22E751DE18D8B44AEF98F0BF
:103090004CEF98F04EEF98F05FEF95F020EE04F0D3
:1030A000B951D926BA51DA22DF5022ECE5F05FEFB0
:1030B00095F0B9C578F5BAC579F5050E7A6F000EA9
:1030C0007B6FA2ECE4F0E806D8A469EF98F06BEF10
:1030D00098F06DEF98F05FEF95F0050120EE02F0AB
:1030E000B951D926BA51DA22DE50E819D8A47BEFBB
:1030F00098F07DEF98F05FEF95F020EE03F0B95176
:10310000D926BA51DA22E751DE18D8B48AEF98F0FE
:103110008CEF98F08EEF98F05FEF95F020EE05F0D1
:10312000B951D926BA51DA22DF50736F20EE04F07C
:10313000B951D926BA51DA22DF5016ECCDF05FEF43
:1031400095F0B9C578F5BAC579F5080E7A6F010E14
:103150007B6FA2ECE4F0E806D8A4B1EF98F0B3EFEF
:1031600098F0B5EF98F05FEF95F0050120EE02F0D2
:10317000B951D926BA51DA22DE50E819D8A4C3EFE2
:1031800098F0C5EF98F05FEF95F020EE03F0B9519D
:10319000D926BA51DA22E751DE18D8B4D2EF98F026
:1031A000D4EF98F0D6EF98F05FEF95F020EE03F0B3
:1031B000B951D926BA51DA22DF50BB6F20EE02F0A6
:1031C000B951D926BA51DA22DF50BC6FBB51AC6F6E
:1031D000BCC5ADF520EE05F0B951D926BA51DA22B9
:1031E000DF50BE6F20EE04F0B951D926BA51DA2271
:1031F000DF50BF6FBE51AE6FBFC5AFF520EE07F019
:10320000B951D926BA51DA22DF50B06F20EE08F05A
:10321000B951D926BA51DA22DF50B16F08ECD5F096
:103220005FEF95F0050120EE01F0B951D926BA51B2
:10323000DA22DF50BB6FBC6BBC51000AD8B423EF5D
:1032400099F0DDEF95F0BB51530AD8B44DEF95F0EE
:10325000070AD8B4E0EF96F0010AD8B415EF97F05A
:10326000030AD8B4A7EF97F0010AD8B46EEF97F02D
:103270000F0AD8B4E0EF97F02A0AD8B419EF98F003
:10328000040AD8B487EF95F0E30AD8B444EF96F077
:10329000090AD8B459EF98F02E0AD8B48EEF96F0F8
:1032A000600AD8B4E0EF95F0270AD8B4A1EF98F0FF
:1032B000DDEF95F01200050120EE01F0B951D9269D
:1032C000BA51DA22760EDE18D8A469EF99F06BEFC6
:1032D00099F0C4EF99F0B9C578F5BAC579F5040E3F
:1032E0007A6F5DEC05F0E806D8A479EF99F07BEFF2
:1032F00099F07EEF99F0010E76EF9CF0050120EE3B
:1033000002F0B951D926BA51DA22DE50E819D8A410
:103310008CEF99F08EEF99F0C1EF99F020EE03F069
:10332000B951D926BA51DA22E751DE18D8A49BEF59
:1033300099F09DEF99F0C1EF99F020EE04F0B951AA
:10334000D926BA51DA220A0EDE18D8A4AAEF99F0CB
:10335000ACEF99F0AFEF99F0FD837BEF99F020EEA1
:1033600004F0B951D926BA51DA220B0EDE18D8A4CE
:10337000BCEF99F0BEEF99F0C1EF99F0FD937BEFB0
:1033800099F0000E76EF9CF0B9C5D9F4BAC5DAF41D
:10339000050EDF60CEEF99F0D0EF99F0D2EF99F003
:1033A000C1EF99F020EE03F0B951D926BA51DA22D3
:1033B000DF50BB6F20EE02F0B951D926BA51DA22A4
:1033C000DF50BC6FBB51C16FBCC5C2F5F8EF99F0BF
:1033D000000EC26F000EC16F140EBE6F010EBF6FE4
:1033E0004BEF9AF0000EC26F000EC16F4BEF9AF0D8
:1033F00020EE01F0B951D926BA51DA22DF50BB6F65
:10340000BC6BBC51000AD8B408EF9AF0C1EF99F038
:10341000BB51900AD8B4ECEF99F0010AD8B4F6EF9A
:1034200099F0090AD8B4E8EF99F0010AD8B4F2EF9C
:1034300099F0290AD8B4ECEF99F0010AD8B4F6EF64
:1034400099F0090AD8B4E8EF99F0010AD8B4F2EF7C
:1034500099F0690AD8B4ECEF99F0010AD8B4F6EF04
:1034600099F0090AD8B4E8EF99F0010AD8B4F2EF5C
:1034700099F0290AD8B4ECEF99F0010AD8B4F6EF24
:1034800099F0090AD8B4E8EF99F0010AD8B4F2EF3C
:1034900099F0C1EF99F0C1C56CF5C2C56DF520EE8C
:1034A00005F0B951D926BA51DA22DF50BB6F20EEB0
:1034B00004F0B951D926BA51DA22DF50BC6FBB51A2
:1034C0006E6FBCC56FF56DECDBF00501C56FC529EE
:1034D000D8A46DEF9AF06FEF9AF071EF9AF0C1EF08
:1034E00099F0C551E9ECC9F00501FDA37AEF9AF016
:1034F0007CEF9AF0BAEF9AF0C55144ECECF0000979
:10350000D8B485EF9AF087EF9AF0BAEF9AF0E8C551
:103510006EF5E7C56FF5050120EE01F0B951D9262A
:10352000BA51DA22DF50706F20EE02F0B951D9267D
:10353000BA51DA22DF50716F20EE03F0B951D9266B
:10354000BA51DA22DF50726F20EE04F0B951D92659
:10355000BA51DA22DF50736F20EE05F0B951D92647
:10356000BA51DA22DF50746FE60E15ECEFF0060167
:10357000EE4BEF2B050120EE01F0B951D926BA51DF
:10358000DA22DF50C06FC0B1C8EF9AF0CAEF9AF0EC
:103590007FEF9BF0010ECA6F130ECA65D2EF9AF04F
:1035A000D4EF9AF0D6EF9AF071EF9CF0400ECA2556
:1035B000D96EDA6A070EDA22DF50CB6FCB51D8B45E
:1035C000E4EF9AF0E6EF9AF07BEF9BF0CB517F0BA4
:1035D000C86F590EC861EFEF9AF0F1EF9AF07BEFE8
:1035E0009BF0070EC819D8A4F8EF9AF0FAEF9AF0FA
:1035F000FCEF9AF071EF9CF0080EC86102EF9BF0AF
:1036000004EF9BF009EF9BF0CB51F2ECE1F07BEF84
:103610009BF0F80EC8251D6E1E6AFF0E1E22000EBE
:10362000206E050E1F6E4EECDAF01D500501C76FBF
:10363000F80EC825196E1A6AFF0E1A22000E1C6EAB
:10364000050E1B6E34ECDDF019500501C96F5BEF00
:103650009BF00501C751070DF350110F0DECEBF076
:1036600019AE35EF9BF037EF9BF039EF9BF0A3ECF1
:1036700005F00501C951D8A440EF9BF042EF9BF043
:1036800043EF9BF0CB2B040EC919D8A44AEF9BF053
:103690004CEF9BF04EEF9BF0020ECB5FCB51F2EC68
:1036A000E1F0B4EC05F07BEF9BF00501CB51F2ECBF
:1036B000E1F07BEF9BF0C751070DF350100F0DECBD
:1036C000EBF01A50000AD8B468EF9BF07BEF9BF048
:1036D0001950010AD8B429EF9BF0030AD8B439EF86
:1036E0009BF0010AD8B439EF9BF0070AD8B455EF24
:1036F0009BF07BEF9BF00501CA2BCCEF9AF053C7F0
:10370000C3F5130ECA6FCA51D8A489EF9BF08BEF93
:103710009BF08DEF9BF071EF9CF0C46BC3C5CBF5B4
:10372000010ECA6596EF9BF098EF9BF0A5EF9BF01A
:103730003F0ECA25D96EDA6A070EDA22DF50C36F50
:10374000C351800BC66FA8EF9BF0C451800BC66FAE
:10375000CB51D8B4AEEF9BF0B0EF9BF067EF9CF08D
:10376000C451D8A4B6EF9BF0B8EF9BF0BAEF9BF032
:10377000CBC5C4F5CB9F590ECB61C1EF9BF0C3EF16
:103780009BF067EF9CF0070ECB19D8A4CAEF9BF013
:10379000CCEF9BF0CEEF9BF071EF9CF0080ECB616D
:1037A000D4EF9BF0D6EF9BF0E5EF9BF0CB05D8B4C0
:1037B000DCEF9BF0DEEF9BF0E5EF9BF0C651CB1307
:1037C000CB51F2ECE1F067EF9CF0F80ECB251D6ECB
:1037D0001E6AFF0E1E22000E206E050E1F6E4EEC9E
:1037E000DAF01D500501C76FF80ECB25196E1A6A65
:1037F000FF0E1A22000E1C6E050E1B6E34ECDDF05F
:1038000019500501C96F47EF9CF00501C751070D1D
:10381000F350110F0DECEBF019AE11EF9CF013EF1C
:103820009CF015EF9CF0A3EC05F0030E0501C919FF
:10383000D8A41DEF9CF01FEF9CF020EF9CF0CB076D
:103840000501C951D8A427EF9CF029EF9CF02BEF7C
:103850009CF0020ECB27040EC919D8A432EF9CF0BD
:1038600034EF9CF036EF9CF0030ECB5FC651CB13C8
:10387000CB51F2ECE1F0B4EC05F067EF9CF0050100
:10388000C651CB13CB51F2ECE1F03BEF9CF0C751AA
:10389000070DF350100F0DECEBF01A50000AD8B4DE
:1038A00054EF9CF067EF9CF01950010AD8B405EF73
:1038B0009CF0030AD8B420EF9CF0010AD8B420EFA2
:1038C0009CF0070AD8B43FEF9CF067EF9CF005012D
:1038D000CA07CA51D8A46FEF9CF071EF9CF08DEF2E
:1038E0009BF00601EC4BED2B7BEF99F012000501EC
:1038F000656F0F0E0501656580EF9CF082EF9CF00F
:1039000084EF9CF058EF9FF06551070DF350100FB6
:103910000DECEBF019500501646FFCEF9CF0655164
:10392000070DF350110F0DECEBF019A49AEF9CF07A
:103930009CEF9CF0B5EF9CF0050165512D6E2E6A51
:103940002F6ADE0E2D241F6E030E2E20206E000E19
:103950002F20216E000EC5ECE6F01F50256E0501EC
:103960006551DBECDCF01CEF9EF005016551070DA5
:10397000F350110F0DECEBF019BAC1EF9CF0C3EF4F
:103980009CF0CAEF9CF0000E0501626F020E616FA1
:10399000CFEF9CF0000E0501626F010E616F61C5F3
:1039A00063F563C525F56551DBECDCF00501655178
:1039B0002D6E2E6A2F6ADE0E2D24266E030E2E200B
:1039C000276E000E2F20286E63C529F5000E1CEC13
:1039D000E9F01CEF9EF06551070DF350110F0DEC4F
:1039E000EBF01950100B0501606F60C525F56551AE
:1039F000DBECDCF01CEF9EF06451010AD8B48FEFD1
:103A00009CF0030AD8B4EBEF9CF0010AD8B4EBEFBA
:103A10009CF01CEF9EF06451D8B411EF9DF013EFB1
:103A20009DF025EF9DF0050E6419D8B41AEF9DF0B6
:103A30001CEF9DF025EF9DF0060E6419D8A423EF2E
:103A40009DF025EF9DF045EF9DF06551040D020EB0
:103A5000F326000EF422F60EF324F66EFE0EF4208A
:103A6000F76EF86A000EF8220800F5C42DF5010E75
:103A70002E6E2D2A3EEF9DF0D8902E362D2E3CEF47
:103A80009DF02E50C6123CEF9EF06551040D020EC3
:103A9000F326000EF422F60EF324F66EFE0EF4204A
:103AA000F76EF86A000EF8220800F5C42DF5010E35
:103AB0002E6E2D2A5EEF9DF0D8902E362D2E5CEFC7
:103AC0009DF02E50FF0AC6163CEF9EF06451D8B40C
:103AD0006CEF9DF06EEF9DF080EF9DF0050E641988
:103AE000D8B475EF9DF077EF9DF080EF9DF0060E56
:103AF0006419D8A47EEF9DF080EF9DF0A0EF9DF0BB
:103B00006551040D020EF326000EF422F60EF32486
:103B1000F66EFE0EF420F76EF86A000EF82208002A
:103B2000F5C42DF5010E2E6E2D2A99EF9DF0D8903B
:103B30002E362D2E97EF9DF02E50C7123CEF9EF0A3
:103B40006551040D020EF326000EF422F60EF32446
:103B5000F66EFE0EF420F76EF86A000EF8220800EA
:103B6000F5C42DF5010E2E6E2D2AB9EF9DF0D890DB
:103B70002E362D2EB7EF9DF02E50FF0AC7163CEFC4
:103B80009EF06451D8B4C7EF9DF0C9EF9DF0DBEF14
:103B90009DF0050E6419D8B4D0EF9DF0D2EF9DF0E2
:103BA000DBEF9DF0060E6419D8A4D9EF9DF0DBEF92
:103BB0009DF0FBEF9DF06551040D020EF326000E03
:103BC000F422F60EF324F66EFE0EF420F76EF86A79
:103BD000000EF8220800F5C42DF5010E2E6E2D2AD8
:103BE000F4EF9DF0D8902E362D2EF2EF9DF02E5052
:103BF000C8123CEF9EF06551040D020EF326000E34
:103C0000F422F60EF324F66EFE0EF420F76EF86A38
:103C1000000EF8220800F5C42DF5010E2E6E2D2A97
:103C200014EF9EF0D8902E362D2E12EF9EF02E50CF
:103C3000FF0AC8163CEF9EF005016551040D010E08
:103C4000F326000EF422F60EF324F66EFE0EF42098
:103C5000F76EF86A000EF8220800F550410AD8B451
:103C60000BEF9DF0030AD8B466EF9DF0010AD8B4BB
:103C7000C1EF9DF03CEF9EF0050E05016419D8B42C
:103C800044EF9EF046EF9EF0B4EF9EF0060E6419EE
:103C9000D8A44DEF9EF04FEF9EF039EF9FF0B4EFB8
:103CA0009EF06551040D020EF326000EF422F60E6E
:103CB000F324F66EFE0EF420F76EF86A000EF8227A
:103CC0000800F5C42DF5010E2E6E2D2A6AEF9EF028
:103CD000D8902E362D2E68EF9EF02E500401001342
:103CE00058EF9FF06551040D020EF326000EF422EA
:103CF000F60EF324F66EFE0EF420F76EF86A000E50
:103D0000F8220800F5C42DF5010E2E6E2D2A8BEF3A
:103D10009EF0D8902E362D2E89EF9EF02E50040165
:103D2000081358EF9FF06551040D020EF326000EA4
:103D3000F422F60EF324F66EFE0EF420F76EF86A07
:103D4000000EF8220800F5C42DF5010E2E6E2D2A66
:103D5000ACEF9EF0D8902E362D2EAAEF9EF02E506E
:103D60000401101358EF9FF06551040D010EF32666
:103D7000000EF422F60EF324F66EFE0EF420F76E1B
:103D8000F86A000EF8220800F550410AD8B451EF45
:103D90009EF0030AD8B472EF9EF0010AD8B493EFF4
:103DA0009EF058EF9FF06551040D020EF326000EB1
:103DB000F422F60EF324F66EFE0EF420F76EF86A87
:103DC000000EF8220800F5C42DF5010E2E6E2D2AE6
:103DD000ECEF9EF0D8902E362D2EEAEF9EF02E506E
:103DE000FF0A0401001758EF9FF06551040D020E01
:103DF000F326000EF422F60EF324F66EFE0EF420E7
:103E0000F76EF86A000EF8220800F5C42DF5010ED1
:103E10002E6E2D2A0EEF9FF0D8902E362D2E0CEF01
:103E20009FF02E50FF0A0401081758EF9FF06551CC
:103E3000040D020EF326000EF422F60EF324F66EA5
:103E4000FE0EF420F76EF86A000EF8220800F5C4A2
:103E50002DF5010E2E6E2D2A30EF9FF0D8902E36C4
:103E60002D2E2EEF9FF02E50FF0A0401101758EF51
:103E70009FF06551040D010EF326000EF422F60E9C
:103E8000F324F66EFE0EF420F76EF86A000EF822A8
:103E90000800F550410AD8B4D3EF9EF0030AD8B415
:103EA000F5EF9EF0010AD8B417EF9FF058EF9FF09E
:103EB00012000301F3A15FEF9FF061EF9FF063EF4A
:103EC0009FF010EFA2F00501F951070DF350100F0C
:103ED0000DECEBF0050E19181A10D8B472EF9FF024
:103EE00074EF9FF085EF9FF00501F951070DF35036
:103EF000100F0DECEBF0060E19181A10D8A483EF72
:103F00009FF085EF9FF0B6EFA1F00501F851D8B40E
:103F10008CEF9FF08EEF9FF0B6EFA1F0EBC385F52D
:103F2000866B8551866F856B0301EA510501851308
:103F3000FA51D8B49EEF9FF0A0EF9FF0A9EF9FF049
:103F4000FB51F919D8B4A7EF9FF0A9EF9FF080EFCC
:103F5000A1F0F951070DF350100F0DECEBF0060E28
:103F600019181A10D8A4B7EF9FF0B9EF9FF0AFEF70
:103F7000A0F00501F951070DF350150F0DECEBF012
:103F800019C583F51AC584F505018351846F836BC8
:103F9000F951070DF350160F0DECEBF01950050118
:103FA00083131A50841383C581F584C582F5F951B2
:103FB000070DF350130F0DECEBF019500501835F63
:103FC0001A50845BF951070DF350130F0DECEBF011
:103FD0001950050181271A508223F951070DF3501A
:103FE000140F0DECEBF00501835119247F6F845100
:103FF0001A20806FF951070DF350140F0DECEBF000
:1040000019500501815D7D6F1A5082597E6F600ED7
:10401000F925D96EDA6A060EDA22DF50030B020A9E
:10402000D8B415EFA0F017EFA0F055EFA0F0815134
:10403000855D82518659D8A020EFA0F022EFA0F034
:1040400055EFA0F0600EF925D96EDA6A060EDA2275
:104050000601DFA42EEFA0F030EFA0F048EFA0F0B3
:104060000501F951070DF350110F0DECEBF019ACF0
:104070003CEFA0F03FEFA0F0010E40EFA0F0000EEB
:104080000501726FF951040DF350090F4AECD1F09C
:10409000600E0501F925D96EDA6A060EDA22DF50C4
:1040A000FC0B0209DF6ED8EFA0F0600EF925D96E87
:1040B000DA6A060EDA22DF50030B020AD8A463EF95
:1040C000A0F065EFA0F0D8EFA0F085517D5D86519E
:1040D0007E59D8A06EEFA0F070EFA0F0D8EFA0F05E
:1040E000600EF925D96EDA6A060EDA220601DFA41F
:1040F0007CEFA0F07EEFA0F0A4EFA0F00501F95155
:10410000070DF350110F0DECEBF019B68AEFA0F08C
:104110008CEFA0F0A4EFA0F00501F951070DF350CA
:10412000110F0DECEBF019BC98EFA0F09BEFA0F095
:10413000010E9CEFA0F0000E0501726FF951040D05
:10414000F350090F4AECD1F0600E0501F925D96E44
:10415000DA6A060EDA22FC0EDF16D8EFA0F085C56B
:104160007AF586C57BF5040E05017C6FD8907B330C
:104170007A337C2FB6EFA0F07AC585F57BC586F53E
:10418000F951070DF350130F0DECEBF019C583F542
:104190001AC584F50501F951070DF350140F0DEC04
:1041A000EBF019500501835D7F6F1A508459806FC1
:1041B000600EF925D96EDA6A060EDA22DF50030B9B
:1041C000E806D8B4E6EFA0F0E8EFA0F026EFA1F003
:1041D0008551835D86518459D8A0F1EFA0F0F3EFAB
:1041E000A0F026EFA1F0600EF925D96EDA6A060E6E
:1041F000DA220601DFA4FFEFA0F001EFA1F019EF32
:10420000A1F00501F951070DF350110F0DECEBF082
:1042100019AC0DEFA1F010EFA1F0010E11EFA1F01C
:10422000000E0501726FF951040DF350080F4AECAE
:10423000D1F0600E0501F925D96EDA6A060EDA2290
:10424000DF50FC0B0109DF6EAEEFA1F0600EF92527
:10425000D96EDA6A060EDA22DF50030BE806D8A41C
:1042600034EFA1F036EFA1F0AEEFA1F07F51855D04
:1042700080518659D8A03FEFA1F041EFA1F0AEEFF9
:10428000A1F0600EF925D96EDA6A060EDA2206016F
:10429000DFA44DEFA1F04FEFA1F075EFA1F0050104
:1042A000F951070DF350110F0DECEBF019B65BEF60
:1042B000A1F05DEFA1F075EFA1F00501F951070D37
:1042C000F350110F0DECEBF019BC69EFA1F06CEF9E
:1042D000A1F0010E6DEFA1F0000E0501726FF95112
:1042E000040DF350080F4AECD1F0600E0501F925DA
:1042F000D96EDA6A060EDA22FC0EDF16AEEFA1F0F6
:10430000E8C56EF5E7C56FF5000E706FF929716F9E
:10431000F929726F85C573F58651746FFD0E15EC22
:10432000EFF0020E0501FA19D8A499EFA1F09BEF66
:10433000A1F0ACEFA1F085C52DF5F951070DF350B3
:10434000150F08ECEDF0050186512D6EF951070DA2
:10435000F350160F08ECEDF00501FA6B600EF9252D
:10436000D96EDA6A060EDA220601DF840501F92B1E
:104370000F0EF965BEEFA1F0C0EFA1F0C1EFA1F003
:10438000F96BF951070DF350100F0DECEBF0050E22
:1043900019181A10D8B4CFEFA1F0D1EFA1F0E2EFC5
:1043A000A1F00501F951070DF350100F0DECEBF0E2
:1043B000060E19181A10D8A4E0EFA1F0E2EFA1F050
:1043C00010EFA2F00501F951040D020EF326000EC4
:1043D000F422F60EF324F66EFE0EF420F76EF86A61
:1043E000000EF8220800F5C47AF5F951040D010E0B
:1043F000F326000EF422F60EF324F66EFE0EF420E1
:10440000F76EF86A000EF8220800F550080DF35018
:10441000F80F7A110301EC6FF381010E0501F86FBB
:1044200012003D04D8A417EFA2F019EFA2F068EF34
:10443000A2F038ECE7F006018851195C0501736FB2
:10444000060189511A580501746F06018A511B58DB
:104450000501756F06018B511C580501766F765169
:104460000DE1B50E735DC40E7459040E7559D8A0D4
:104470003CEFA2F03EEFA2F068EFA2F0FDA543EF03
:10448000A2F045EFA2F054EFA2F0E8C56EF5E7C543
:104490006FF5F0C570F5CFC671F5000E726FAB0EFB
:1044A000FFECEEF00501F02B38ECE7F019C588F6CB
:1044B0001AC589F61BC58AF61CC58BF60601CF51B5
:1044C000D8B465EFA2F067EFA2F068EFA2F0CF07D3
:1044D0000501F251FD19D8B470EFA2F072EFA2F00D
:1044E0007FEFA2F0F90E266E030E276E000E286EE7
:1044F000FDC529F5000E1CECE9F0FDC5F2F505013E
:10450000F3513D18D8B487EFA2F089EFA2F0A6EFDF
:10451000A2F03D28D8B48FEFA2F091EFA2F099EF6E
:10452000A2F03D04D8A497EFA2F099EFA2F0A4EF77
:10453000A2F0FB0E266E030E276E000E286E3DC500
:1045400029F5000E1CECE9F03DC5F3F538ECE7F079
:1045500006018451195C0501736F060185511A58D3
:104560000501746F060186511B580501756F060120
:1045700087511C580501766F765175110BE1250E98
:10458000735DF40E7459D8A0C8EFA2F0CAEFA2F080
:104590005DEFA4F038ECE7F019C584F61AC585F68E
:1045A0001BC586F61CC587F60601D34BD42BD35109
:1045B000D411D8A4DEEFA2F0E0EFA2F05DEFA4F0FA
:1045C000D14BD22B5DEFA4F0CEA4E9EFA2F0EBEF3C
:1045D000A2F0F7EFA2F038ECE7F019C5DFF51AC545
:1045E000E0F51BC5E1F51CC5E2F56CEFA4F038EC75
:1045F000E7F00501DF51195C736FE0511A58746FD1
:10460000E1511B58756FE2511C58766F76510DE1E0
:10461000910E735DD00E7459030E7559D8A013EF27
:10462000A3F015EFA3F06CEFA4F0FD0E3D6EF16961
:1046300067ECECF06CEFA4F0CEA421EFA3F023EF35
:10464000A3F0EBEFA2F03D6A0501F16938ECE7F069
:1046500019C5DFF51AC5E0F51BC5E1F51CC5E2F586
:10466000E8C56EF5E7C56FF5500EE9ECEEF067ECC6
:10467000ECF0EBEFA2F0CEA440EFA3F042EFA3F0FA
:10468000C5EFA3F038ECE7F00501DF51195C736F5B
:10469000E0511A58746FE1511B58756FE2511C5864
:1046A000766F765175110BE16B0E735D180E7459B0
:1046B000D8A05DEFA3F05FEFA3F097EFA3F038EC85
:1046C000E7F00501DF51195C736FE0511A58746F00
:1046D000E1511B58756FE2511C58766F76510BE112
:1046E000480E735DE80E7459010E7559D8B07BEF12
:1046F000A3F07DEFA3F097EFA3F0F1C53DF53D04E6
:10470000D8A485EFA3F087EFA3F095EFA3F0E3C55E
:10471000E7F5E4C5E8F5E8C56EF5E7C56FF5520EB7
:10472000E9ECEEF00601D74BD82B67ECECF038EC57
:10473000E7F00501DF51195C736FE0511A58746F8F
:10474000E1511B58756FE2511C58766F76510DE19F
:10475000910E735DD00E7459030E7559D8A0B3EF46
:10476000A3F0B5EFA3F0B8EFA3F03D6867ECECF071
:1047700038ECE7F019C5DFF51AC5E0F51BC5E1F522
:104780001CC5E2F53C6A6CEFA4F0010E3C6E6CEFC8
:10479000A4F0CEA4CEEFA3F0D0EFA3F0C5EFA3F02A
:1047A0003C50D8B4D6EFA3F0D8EFA3F025EFA4F097
:1047B00038ECE7F00501DF51195C736FE0511A58CE
:1047C000746FE1511B58756FE2511C58766F76512A
:1047D00075110BE16B0E735D180E7459D8A0F3EFD1
:1047E000A3F0F5EFA3F025EFA4F038ECE7F0050116
:1047F000DF51195C736FE0511A58746FE1511B5807
:10480000756FE2511C58766F76510BE1480E735D5F
:10481000E80E7459010E7559D8B011EFA4F013EFDA
:10482000A4F025EFA4F0E7C5E3F5E8C5E4F5E86BEF
:10483000E76B3D6A010EF16FE4C56EF5E3C56FF5F8
:10484000500EE9ECEEF067ECECF03C50D8B42BEFF6
:10485000A4F02DEFA4F0B8EFA3F038ECE7F00501D9
:10486000DF51195C736FE0511A58746FE1511B5896
:10487000756FE2511C58766F76510DE1900E735DA5
:10488000D00E7459030E7559D8A049EFA4F04BEF20
:10489000A4F0B8EFA3F0E7C5E3F5E8C5E4F5E86BED
:1048A000E76B3D68010EF16FE4C56EF5E3C56FF58A
:1048B000510EE9ECEEF0B6EFA3F03D50000AD8B48B
:1048C0003BEFA3F0FD0AD8B41CEFA3F0020AD8B462
:1048D000E4EFA2F0C9EFA3F012002F6ECF0E2F2449
:1048E000D96EDA6A050EDA22DF50256E266A400E8E
:1048F0002F24D96EDA6A060EDA22DF50276E286A74
:10490000030E2726000E28222550275C2850800AF7
:10491000296E2650800A2958D8A091EFA4F093EF71
:10492000A4F0E8EFA4F0400E2F24D96EDA6A060E48
:10493000DA22DF50256EFD0E2524266E276AFF0E33
:104940002722CF0E2F24D96EDA6A050EDA22DF5025
:10495000286E296A2650285C2950800A2A6E275022
:10496000800A2A58D8A0B7EFA4F0B9EFA4F0E8EF76
:10497000A4F02F50020D000EF324D96E060EF42081
:10498000DA6E010EDBBED1EFA4F0010EDB5007E1C1
:10499000040EDE5CD8B0CFEFA4F0D1EFA4F0E8EFC6
:1049A000A4F02F50020D000EF324D96E060EF42051
:1049B000DA6E010EDBAEE6EFA4F0FD0EDE5CFF0E5C
:1049C000DE58D8B0E6EFA4F0E8EFA4F0C6EFA6F00A
:1049D0002F50070DF350120F0DECEBF019C525F514
:1049E0001AC526F52F50070DF350130F0DECEBF001
:1049F0001950255CD8A0FFEFA4F002EFA5F0010E3E
:104A000003EFA5F0000E2C6E2C50D8A40AEFA5F0F1
:104A10000CEFA5F0EAEFA5F02F50020D000EF324E5
:104A2000D96E060EF420DA6EDEC41DF5DDC41EF567
:104A3000000E206E1E0E1F6E4EECDAF01DC525F521
:104A40001EC526F52F50070DF350130F0DECEBF09C
:104A500019502524276E000E2620286ECF0E2F24F5
:104A6000D96EDA6A050EDA22DF50296E2A6A2750DB
:104A7000295C2A50800A2B6E2850800A2B58D8B007
:104A800044EFA5F046EFA5F0C0EFA5F02F50020DC2
:104A9000000EF324D96E060EF420DA6EDEC425F57E
:104AA000DDC426F5251E261E254A262A2F50070D71
:104AB000F350140F0DECEBF025501902F3C427F559
:104AC000F4C428F51A02F350282626501902F35090
:104AD000282627C51DF528C51EF5000E206E640E7C
:104AE0001F6E4EECDAF02F50020D000EF324D96E3B
:104AF000060EF420DA6E1DC5DEF41EC5DDF42F505F
:104B0000070DF350130F0DECEBF01950256E266ACC
:104B10002F50070DF350130F0DECEBF01950252615
:104B2000000E2622CF0E2F24D96EDA6A050EDA2265
:104B3000DF50276E2750255E000E265A2F50020D9B
:104B4000000EF324D96E060EF420DA6EDEC41DF5D5
:104B5000DDC41EF5000E206E1E0E1F6E4EECDAF048
:104B60001D50255C2D6E1E5026582E6ECF0E2F2404
:104B7000D96EDA6A050EDA222DC5DFF4C3EFA6F08E
:104B80002F50020D000EF324D96E060EF420DA6EBB
:104B9000030EDE26000EDD222F50020D000EF32440
:104BA000D96E060EF420DA6EDEC41DF5DDC41EF5E6
:104BB000000E206E1E0E1F6E4EECDAF0010E1D264A
:104BC000CF0E2F24D96EDA6A050EDA221D50DF5E71
:104BD000C3EFA6F0CF0E2F24D96EDA6A050EDA22C3
:104BE000DF50256E266A2F50070DF350130F0DEC82
:104BF000EBF019C527F51AC528F52F50020D000E48
:104C0000F324D96E060EF420DA6EDEC41DF5DDC481
:104C10001EF5000E206E1E0E1F6E4EECDAF01D50BB
:104C2000275C296E1E50D8A01E282A6A2A5E2550AD
:104C3000295C2A50800A2B6E2650800A2B58D8B047
:104C400024EFA6F026EFA6F09BEFA6F02F50020D62
:104C5000000EF324D96E060EF420DA6EDEC425F5BC
:104C6000DDC426F5251E261E254A262A2F50070DAF
:104C7000F350140F0DECEBF025501902F3C427F597
:104C8000F4C428F51A02F350282626501902F350CE
:104C9000282627C51DF528C51EF5000E206E640EBA
:104CA0001F6E4EECDAF02F50020D000EF324D96E79
:104CB000060EF420DA6E1DC5DEF41EC5DDF42F509D
:104CC000070DF350130F0DECEBF01950256E266A0B
:104CD0002F50070DF350130F0DECEBF01950252654
:104CE000000E26222F50020D000EF324D96E060E60
:104CF000F420DA6EDEC41DF5DDC41EF5000E206E54
:104D00001E0E1F6E4EECDAF01D502524276E1E502D
:104D10002620286ECF0E2F24D96EDA6A050EDA22ED
:104D2000DF50296E2950275C2D6E2850D8A028040A
:104D30002E6EB6EFA5F02F50020D000EF324D96EA3
:104D4000060EF420DA6E030EDE26000EDD222F5052
:104D5000020D000EF324D96E060EF420DA6EDEC4C6
:104D60001DF5DDC41EF5000E206E1E0E1F6E4EECEE
:104D7000DAF0010E1D26CF0E2F24D96EDA6A050E49
:104D8000DA221D50DF26000EC7EFA6F0010E12003A
:104D90002E6EF80E2E241D6E1E6AFF0E1E22000EB1
:104DA000206E040E1F6E4EECDAF01D50466E0F0E94
:104DB0004664DDEFA6F0DFEFA6F0E2EFA6F0FF0E0F
