:04000000FEEF03F01C
:0400080004EF04F00D
:040018000CEF04F0F5
:1000740000370800F5501200380E0001456FF80EE5
:100084004117408140B1FED7070E4113465112007B
:100094001F6E010103511F18F80B1F18036F02395B
:1000A400E832070B1F18D8B41200F9D700014151E8
:1000B400F80B0609416F550E426FAA0E426F40813C
:1000C40040B1FED7070E411312001F6E000140B16C
:1000D400FDD71FC546F0000E476F4151F80B0309C9
:1000E400416F550E426FAA0E426F4081070E4113B5
:1000F4001200740EF66E000EF76E000EF86E090014
:10010400F5C433F50900F5C434F501EE01F11E0E12
:10011400EE6AE806FDE10001AFEF01F0000E0C6E9F
:10012400000E0B6E000E0B24D96E370E0C20DA6E07
:10013400FF0EDF6E0B4A0C2A0C04D8A0F3D7000E76
:10014400166E000E156E000E146E12001F6E380E21
:100154000001456F1FC546F04151F80B0309416F7B
:10016400550E426FAA0E426F408140B1FED7070E72
:1001740041133EEC00F01F18D8B41200E8D7080E63
:10018400156003D01450D8B4120016C543F015C539
:1001940044F014C545F058EC00F04151F80B050942
:1001A400416F550E426FAA0E426F408140B1FED797
:1001B400070E411312001F6E07C5D9F408C5DAF4FF
:1001C400DF6A20EE01F00750D9260850DA22240E07
:1001D400DF6E20EE02F00750D9260850DA22DF6ADB
:1001E40020EE03F00750D9260850DA22DF6A1F50A8
:1001F400D8B409D020EE01F00750D9260850DA22ED
:10020400000EDB8608D020EE01F00750D9260850F6
:10021400DA22F70EDF16030E010169131200460EEF
:1002240002010B6F0B0E3D6FC794C786000E0301CE
:10023400676F0101018F040E4AEC00F0000E4C6F51
:10024400380E4D6F000E4E6F000E4F6F000E006F94
:10025400870E016F100E026F500E036F000E046FB5
:10026400030E056F020E066F3F0E076F800E686F58
:10027400040E696F600E6A6F5F0E6B6F080E746F09
:10028400040E756F000E766F5F0E776F400E8F6FE2
:10029400400E936F830E806F060E4AEC00F012003E
:1002A4002F6E1550206E1F6A1450236E226A216A25
:1002B4001F502110246E20502210256E000E20BEE7
:1002C400FF0E2310266E00014451286E276A455103
:1002D4002B6E2A6A296A275029102C6E28502A105E
:1002E4002D6E000E28BEFF0E2B102E6E24502C18DF
:1002F40007E125502D1804E126502E18D8B424D037
:1003040043C013F544C012F545C011F5C1EC00F02B
:10031400000E166E12C515F511C514F5000140B195
:10032400FDD714C545F015C544F016C543F0415139
:10033400F80B0209416F4081070E411313C543F0C6
:1003440012C544F011C545F0000E4325D96EDA6A92
:10035400370EDA222FC5DFF41200100E356E000EB0
:100364000401006F000E086FC79EC79CC684380E38
:100374000001456F030E446F43693EEC00F0000931
:10038400D8B4CEA402D000EF04F0400E356E0001C4
:10039400AD518F0B2009AD6F000E1C6E1C0E1B6E31
:1003A400C79CC79EBF8CBF8E11EC01F090EC00F08F
:1003B400000E046E000E036E0400010178A1FDD747
:1003C4007CC109F57DC10AF520EE04F00950D92657
:1003D4000A50DA22DF500F0B106E20EE01F00950A4
:1003E400D9260A50DA22DFA67CD119C545F018C5F2
:1003F40044F017C543F01BA60AD01050306E316A82
:10040400326A305017263150182232501922020E07
:10041400196074D020EE01F00950D9260A50DA226E
:10042400DFA82FD06CA1FED770C107F571C108F504
:10043400000E0F6E0F500724306E000E0820316E30
:10044400080E3024D96E000E3120DA6E3BEC00F039
:10045400DF6EF62AF650D8A404D0F72AF750D8B4A1
:10046400F82A0F2A080E0F64E5D720EE04F007508F
:10047400D9260850DA22180EDF6E010EDDEC00F0EA
:100484003DD000014551D8A403D0070E446536D0B1
:100494001BA203D058EC00F031D0000E0F6E2AD00E
:1004A4000F500924306E000E0A20316E080E3024DD
:1004B400D96E000E3120DA6EDF5052EC01F00F508D
:1004C4000924306E000E0A20316E080E3024D96ED5
:1004D400000E3120DA6EDF50326E32500326000EE9
:1004E4000422432B4351D8A404D0442B4451D8B400
:1004F400452B0F2A10500F5CD8A0D2D7300E1918F4
:10050400D8A466D020EE01F00950D9260A50DA2288
:10051400DFA830D001016CA1FDD770C107F571C10E
:1005240008F5000E0F6E0F500724306E000E0820E1
:10053400316E080E3024D96E000E3120DA6E3BEC99
:1005440000F0DF6EF62AF650D8A404D0F72AF7504C
:10055400D8B4F82A0F2A080E0F64E5D720EE04F069
:100564000750D9260850DA22180EDF6E010EDDEC92
:1005740000F02ED0000E0F6E27D004000F50092477
:10058400306E000E0A20316E080E3024D96E000E33
:100594003120DA6EDF5067EC00F00F500924306E22
:1005A400000E0A20316E080E3024D96E000E312060
:1005B400DA6EDF50326E32500326000E0422F62A21
:1005C400F650D8B4F72A0F2A10500F5CD8A0D5D70C
:1005D400380E1918D8A461D020EE01F00950D9269C
:1005E4000A50DA22DFA82CD001016CA1FDD770C11A
:1005F40007F571C108F5000E0F6E0F500724306E19
:10060400000E0820316E080E3024D96E000E312001
:10061400DA6E3EEC00F0DF6E432B4351D8B4442B2A
:100624000F2A080E0F64E9D720EE04F00750D926EC
:100634000850DA22180EDF6E010EDDEC00F02DD02A
:10064400000E0F6E26D00F500924306E000E0A20C3
:10065400316E080E3024D96E000E3120DA6EDF5070
:10066400A8EC00F00F500924306E000E0A20316E01
:10067400080E3024D96E000E3120DA6EDF50326E4F
:1006840032500326000E0422432B4351D8B4442B8A
:100694000F2A10500F5CD8A0D6D720EE01F00950D5
:1006A400D9260A50DA22DFA81BA89CD001016CA12C
:1006B400FDD770C107F571C108F520EE08F00750A9
:1006C400D9260850DA22010EDF6E20EE04F007501E
:1006D400D9260850DA22110EDF6E000EDDEC00F090
:1006E40081D0C1EC00F0170E056E050E066E080EE3
:1006F4000924016E000E0A20026E000E0F6E0FD048
:1007040001C5D9F402C5DAF405C5E1F406C5E2F47D
:10071400DFC4E7F4054A062A014A022A0F2A1050C8
:100724000F5CD8A0EDD71C04D8A40CD0380E00015F
:10073400456F030E446F4369000EA8EC00F0BF9CA4
:10074400BF9EFF00020E1C18D8A404D0000E046E35
:10075400000E036E030E1C18D8A426D001016CA150
:10076400FDD770C107F571C108F520EE08F00750F8
:10077400D9260850DA2203501D24306E04501E205E
:10078400316E30503110D8A402D0010E01D0000EC9
:10079400DF6E20EE04F00750D9260850DA22110E3D
:1007A400DF6E000EDDEC00F0040E1C18D8A41AD085
:1007B40001016CA1FDD770C107F571C108F520EEE8
:1007C40008F00750D9260850DA22020EDF6E20EE18
:1007D40004F00750D9260850DA22110EDF6E000EFD
:1007E400DDEC00F001017581E7D5424C5F564552BE
:0707F40053494F4E3D030184
:0807FC007BEF00F001EF05F0B6
:10082000A56220FF147F040B1701000800000000E0
:1008300000000101000000001400480800004E0301
:080848004D494F202020200043
:1009000018031803180318031803180310771803A3
:1009100018031803180318031803180318031803FF
:1009200018031803180318031803180318031803EF
:100930001803180318031803AB75180318039F0254
:1009400018031803180318031803180318031803CF
:1009500018031803180318038075180318031803E5
:1009600018031803180318031803180318031803AF
:100970001803180318031803800218031803180338
:10098000180318031803180318031803180318038F
:100990001803180318031803800218031803180318
:1009A000180318031803180318031803180318036F
:1009B000180318031803180318031803180318035F
:1009C000180318031803180318031803180318034F
:1009D000180318031803180318031803180318033F
:1009E00080021803180318031803180318031803C8
:1009F000180318031803180318031803180318031F
:100A0000FF00ABEFE3F0196E0CEF05F0010E17EFEE
:100A100005F0000E17EF05F01950000AD8B406EFE4
:100A200005F0010AD8B406EF05F009EF05F0120051
:100A3000196E640E1924D96EDA6A070EDA22DF6A9B
:100A40001950020D000EF324D96E060EF420DA6E52
:100A5000DE6ADD6A12001D501F02F3C421F5F4C4E2
:100A600022F51D502002F35022261E501F02F35083
:100A7000222621C51DF522C51EF51200B1AE43EF99
:100A800005F045EF05F050EF05F0B19E362A3650DF
:100A9000D8A44DEF05F04FEF05F050EF05F0352AE3
:100AA00011002C6E400E2C24D96EDA6A060EDA2262
:100AB0002BC5DFF4CC0E2C24D96EDA6A050EDA22AF
:100AC0002BC5DFF41200196E600E1924D96EDA6A94
:100AD000060EDA22FC0EDF16600E1924D96EDA6AD1
:100AE000060EDA220601DF941200196E7EEF05F081
:100AF0007F0E85EF05F0000E85EF05F01950010A15
:100B0000D8B478EF05F07BEF05F01200196E8FEF87
:100B100005F0020E96EF05F0000E96EF05F0195065
:100B2000010AD8B489EF05F08CEF05F01200050139
:100B3000675166196B6F695168196A6F6B51070DC0
:100B4000F3506A256B6F1F0E6B176B511200040E6A
:100B50008FECE2F01D6E700E1E6ECB0E1F6E010E3E
:100B6000206E020E89ECE9F01200050E8FECE2F027
:100B70001D6E960E1E6E920E1F6E010E206E010EE1
:100B800089ECE9F01200000E346E000E456E080E7E
:100B9000466E000E476E000EF86E0001419F120077
:100BA000C6ECEFF00009D8A4D8EF05F0DBEF05F0B4
:100BB000010EDCEF05F0000E120077C573F578C565
:100BC00074F579C575F5060E0501766F25ECE0F034
:100BD00012000601CC29D8B4F0EF05F0F2EF05F0D1
:100BE000F3EF05F0CC2B1200000E0601906F000E03
:100BF000916F000E926F000E936F12001950010A50
:100C0000D8B405EF06F005EF06F012000101023935
:100C1000E832070B1200196E19C5ECF51200000E30
:100C2000CBECD4F012000501EF691200196E190423
:100C30001200196E19281200D3ECC2F01200000E37
:100C40003D6E1200010E3D6E12007BECEAF01200C8
:100C5000D5ECEAF01200000E1200000E1200120095
:020C6000110081
:10FDAA000001010302020202030202030100000130
:10FDBA000101010101010101010101010101010129
:10FDCA000101010101010101010101010101010119
:10FDDA000101010101010101010101010101010109
:10FDEA0000010101010101010101000101000000FE
:10FDFA0000000000000000000000000000000101F7
:10FE0A0001010103010101010101010100000000DA
:10FE1A0000000000010001010101010100010101CE
:10FE2A0001010101000101010101010001000000BD
:10FE3A0000000000000000000000000000010101B5
:10FE4A00010101010101010100000101000000009E
:10FE5A000000000001000001010100000001010191
:10FE6A00010101010001010101010101010000007C
:10FE7A000000000101000001010100000001010071
:10FE8A00010101000001000101010101000000005F
:10FE9A000000000000000000000000010000000057
:10FEAA00000B4300FF0C4301FF0D4302FF0E430307
:10FEBA00FF0F4304FF104305FF114306FF124307D8
:10FECA00FF1542000A16420108194204091A42059E
:10FEDA00FF034101010241000005410303074105F7
:10FEEA0004E4FFD0FFBCFFA8FF94FF80FF6CFF581B
:10FEFA00FF424C5F56455253494F4E3D0B0A090883
:10FF0A0000000604040000000106000000000002D0
:10FF1A00068080EBEB000306807F40033C04060367
:10FF2A0080808000050680100000000606007B2005
:10FF3A0007FF070605000000000800000000000097
:10FF4A00000000000000000000000000000008019E
:10FF5A000000000000000000000000000000000097
:10FF6A00000005010000009EDB015E760100000032
:10FF7A00B8DF0138DD01060200000000D701903227
:10FF8A0001000000060A00C8DD010402500C003A14
:10FF9A00DA01702A0100000008DD01F8DD010A0219
:10FFAA00000000BCA701E4B50100000074DC0100F8
:10FFBA000000020270D901F4DA015A62010000005D
:10FFCA00EA0A0068DD01010254CD015C9501F611CF
:10FFDA00011E440100000098DD010302E2DF011660
:10FFEA008B013CAC01380C000C0B005CBE012852A2
:05FFFA0001B67D0100CD
:020000040001F9
:10000000000E0501856F33EF88F005018551070D5E
:10001000F350120FA9ECEBF01950236E246A000E76
:10002000266E020E256E90ECDAF023C57AF524C513
:100030007BF505018551070DF350130FA9ECEBF08B
:100040001950236E246A000E266E020E256E90EC67
:10005000DAF0235005017A25846F000E836F06EFD6
:1000600083F08551070DF350120FA9ECEBF0CC0E85
:1000700005018525D96EDA6A050EDA22DF507A6F1E
:100080007B6B19507A1907E11A507B19D8A44BEFF2
:1000900080F04DEF80F066EF80F08551070DF35052
:1000A000110FA9ECEBF019BC58EF80F05BEF80F07A
:1000B000010E5CEF80F0000E0501726F8551040D9A
:1000C000F350080FEEECD1F07DEF80F08551070D75
:1000D000F350110FA9ECEBF019BC71EF80F074EF45
:1000E00080F0010E75EF80F0000E0501726F8551F2
:1000F000040DF3500A0FEEECD1F0300E050185250A
:10010000D96EDA6A060EDA22020EDF6E400E8525FF
:10011000D96EDA6A060EDA22CC0E8525E16EE26A25
:10012000050EE222DE50E65CD8B099EF80F09BEF3E
:1001300080F081EF81F0CC0E8525D96EDA6A050E4C
:10014000DA228451DE5CD8B0A8EF80F0AAEF80F00C
:10015000ACEF80F0010E836F200E8525D96EDA6A30
:10016000060EDA22DF50D8B4B8EF80F0BAEF80F094
:10017000F6EF80F0CC0E8525D96EDA6A050EDA220C
:10018000200E8525E16EE26A060EE222E7507B6FC3
:10019000CC0E8525E16EE26A050EE222E7507B2552
:1001A0007C6FDE507C5DD8B0D8EF80F0DAEF80F065
:1001B000E4EF80F0CC0E8525D96EDA6A050EDA22DE
:1001C000FF0EDF6E2EEF81F0200E8525D96EDA6AE4
:1001D000060EDA22DF507A6FCC0E8525D96EDA6AE8
:1001E000050EDA227A51DF262EEF81F0840E852566
:1001F000D96EDA6A070EDA22DF06840E8525D96EFB
:10020000DA6A070EDA22DF50D8A409EF81F00BEF8B
:1002100081F02EEF81F0CC0E8525D96EDA6A050EBD
:10022000DA22DE28D8B417EF81F019EF81F020EF41
:1002300081F0CC0E8525D96EDA6A050EDA22DF2A26
:10024000940E8525D96EDA6A070EDA22840E85258A
:10025000E16EE26A070EE222DFC4E7F4CC0E8525E8
:10026000D96EDA6A050EDA22400E8525E16EE26A61
:10027000060EE222DE50E65CD8B041EF81F043EF9B
:1002800081F051EF81F0400E8525D96EDA6A060EB5
:10029000DA22CC0E8525E16EE26A050EE222DFC489
:1002A000E7F4CC0E8525D96EDA6A050EDA22845180
:1002B000DE5CD8A05EEF81F060EF81F06EEF82F03F
:1002C0008351D8B466EF81F068EF81F06EEF82F071
:1002D0008551070DF350110FA9ECEBF019AC73EF3A
:1002E00081F076EF81F0010E77EF81F0000E0501CD
:1002F000726F8551040DF350090FEEECD1F06EEFE3
:1003000082F0CC0E8525D96EDA6A050EDA22400E0F
:100310008525E16EE26A060EE222DE50E65CD8B088
:1003200094EF81F096EF81F06EEF82F0CC0E852590
:10033000D96EDA6A050EDA22DE50845DD8B0A3EFFA
:1003400081F0A5EF81F0A7EF81F0010E836F200E01
:100350008525D96EDA6A060EDA22DF50D8B4B3EFFB
:1003600081F0B5EF81F0E5EF81F0CC0E8525D96EF7
:10037000DA6A050EDA22200E8525E16EE26A060EA3
:10038000E222DE50E65CD8A0C8EF81F0CAEF81F02F
:10039000D3EF81F0CC0E8525D96EDA6A050EDA220C
:1003A000DF6A1DEF82F0200E8525D96EDA6A060E0F
:1003B000DA22DF507A6FCC0E8525D96EDA6A050E07
:1003C000DA227A51DF5E1DEF82F0840E8525D96E28
:1003D000DA6A070EDA22DF06840E8525D96EDA6A1C
:1003E000070EDA22DF50D8A4F8EF81F0FAEF81F09F
:1003F0001DEF82F0CC0E8525D96EDA6A050EDA2261
:10040000DF50D8B406EF82F008EF82F00FEF82F0F1
:10041000CC0E8525D96EDA6A050EDA22DF06940E37
:100420008525D96EDA6A070EDA22840E8525E16EFB
:10043000E26A070EE222DFC4E7F4400E8525D96E9A
:10044000DA6A060EDA22CC0E8525E16EE26A050E26
:10045000E222DE50E65CD8B030EF82F032EF82F07C
:1004600040EF82F0400E8525D96EDA6A060EDA2258
:10047000CC0E8525E16EE26A050EE222DFC4E7F4C8
:10048000CC0E8525D96EDA6A050EDA22DE50845D3F
:10049000D8A04DEF82F04FEF82F06EEF82F08351E3
:1004A000D8B455EF82F057EF82F06EEF82F08551AD
:1004B000070DF350110FA9ECEBF019BC62EF82F0BD
:1004C00065EF82F0010E66EF82F0000E0501726F9B
:1004D0008551040DF350090FEEECD1F0CC0E05015F
:1004E0008525D96EDA6A050EDA22400E8525E16E81
:1004F000E26A060EE222DE50E618D8A482EF82F00D
:1005000084EF82F0D3EF88F0300E8525D96EDA6A59
:10051000060EDA22010EDF6E6FECE6F00501855162
:10052000040D000EF324D96E070EF420DA6E19C5FF
:10053000DEF41AC5DEF41BC5DEF41CC5DEF48551FD
:10054000070DF350120FA9ECEBF0CC0E0501852539
:10055000D96EDA6A050EDA22DF507A6F7B6B19509A
:100560007A1907E11A507B19D8A4B9EF82F0BBEFD2
:1005700082F0D4EF82F08551070DF350110FA9ECF2
:10058000EBF019ACC6EF82F0C9EF82F0010ECAEFB2
:1005900082F0000E0501726F8551040DF350080FB3
:1005A000EEECD1F0EBEF82F08551070DF350110F17
:1005B000A9ECEBF019ACDFEF82F0E2EF82F0010E74
:1005C000E3EF82F0000E0501726F8551040DF350C8
:1005D0000A0FEEECD1F0050185517A6F7B6B7C6BD5
:1005E000DE0E7A25606F030E7B21616F000E7C2189
:1005F000626FCC0E8525D96EDA6A050EDA22DF50DD
:10060000636F000EBCECE9F0D3EF88F0300E852567
:10061000D96EDA6A060EDA22DF507A6F7B6B7B5175
:10062000000AD8B416EF83F0D3EF88F07A51000AAD
:10063000D8B44FEF88F0010AD8B44FEF88F0030A1E
:10064000D8B486EF80F0010AD8B431EF80F0D3EF50
:1006500088F0855118EC05F0300E05018525D96E1E
:10066000DA6A060EDA22020EDF6E740E8525D96E66
:10067000DA6A070EDA22DF6A740E8525D96EDA6A25
:10068000070EDA22DF2A740E8525D96EDA6A070E84
:10069000DA22DE28D8A44FEF83F051EF83F0ACEFDD
:1006A00083F0300E8525D96EDA6A060EDA22010E45
:1006B000DF6E6FECE6F005018551040D000EF324AA
:1006C000D96E070EF420DA6E19C5DEF41AC5DEF411
:1006D0001BC5DEF41CC5DEF4400E8525D96EDA6A32
:1006E000060EDA22CC0E8525E16EE26A050EE222C4
:1006F000DFC4E7F48551070DF350110FA9ECEBF0BF
:1007000019AC85EF83F088EF83F0010E89EF83F059
:10071000000E0501726F8551040DF350080FEEECC9
:10072000D1F0050185517A6F7B6B7C6BDE0E7A25EB
:10073000606F030E7B21616F000E7C21626FCC0E17
:100740008525D96EDA6A050EDA22DF50636F000E56
:10075000BCECE9F0D3EF88F08551070DF350120F90
:10076000A9ECEBF019500501826F400E8525D96E7A
:10077000DA6A060EDA228251DE18D8A4C2EF83F0BC
:10078000C4EF83F02BEF84F0855136ECB8F000090C
:10079000D8B4CDEF83F0CFEF83F0D3EF88F0300EF5
:1007A00005018525D96EDA6A060EDA22010EDF6EA2
:1007B0006FECE6F005018551040D000EF324D96EAF
:1007C000070EF420DA6E19C5DEF41AC5DEF41BC577
:1007D000DEF41CC5DEF4400E8525D96EDA6A060EFD
:1007E000DA22CC0E8525E16EE26A050EE222DFC434
:1007F000E7F48551070DF350110FA9ECEBF019AC9C
:1008000004EF84F007EF84F0010E08EF84F0000E8F
:100810000501726F8551040DF350080FEEECD1F015
:10082000050185517A6F7B6B7C6BDE0E7A25606FDC
:10083000030E7B21616F000E7C21626FCC0E85253B
:10084000D96EDA6A050EDA22DF50636F000EBCEC57
:10085000E9F0D3EF88F0855172ECA4F00009D8B428
:1008600034EF84F036EF84F0D3EF88F0300E0501DA
:100870008525D96EDA6A060EDA22010EDF6E6FEC7C
:10088000E6F005018551040D000EF324D96E070E24
:10089000F420DA6E19C5DEF41AC5DEF41BC5DEF4E9
:1008A0001CC5DEF4400E8525D96EDA6A060EDA2202
:1008B000CC0E8525E16EE26A050EE222DFC4E7F484
:1008C0008551070DF350110FA9ECEBF019BC6BEF3C
:1008D00084F06EEF84F0010E6FEF84F0000E0501DE
:1008E000726F8551040DF350080FEEECD1F0050145
:1008F00085517A6F7B6B7C6BDE0E7A25606F030E01
:100900007B21616F000E7C21626FCC0E8525D96E34
:10091000DA6A050EDA22DF50636F000EBCECE9F0F4
:10092000D3EF88F0300E05018525D96EDA6A060E00
:10093000DA22DF507A6F7B6B7B51000AD8B4A3EFC9
:1009400084F0D3EF88F07A51000AD8B44FEF88F0E2
:10095000010AD8B4D3EF88F0030AD8B43CEF83F08F
:10096000010AD8B429EF83F0D3EF88F08551070D41
:10097000F350130FA9ECEBF0CC0E05018525D96ED1
:10098000DA6A050EDA22DF507A6F7B6B19507A191A
:1009900007E11A507B19D8A4D0EF84F0D2EF84F08D
:1009A000E9EF84F08551070DF350110FA9ECEBF03E
:1009B00019BCDDEF84F0E0EF84F0010EE1EF84F08C
:1009C000000E0501726F8551040DF350080FEEEC17
:1009D000D1F005018551070DF350140FA9ECEBF090
:1009E000CC0E05018525D96EDA6A050EDA22DF50B4
:1009F0007A6F7B6B19507A1907E11A507B19D8A4CA
:100A000004EF85F006EF85F01DEF85F08551070DA9
:100A1000F350110FA9ECEBF019BC11EF85F014EFB6
:100A200085F0010E15EF85F0000E0501726F8551FE
:100A3000040DF350090FEEECD1F005018551070DBF
:100A4000F350150FA9ECEBF0CC0E05018525D96EFE
:100A5000DA6A050EDA22DF507A6F7B6B19507A1949
:100A600007E11A507B19D8A438EF85F03AEF85F0EA
:100A700051EF85F08551070DF350110FA9ECEBF004
:100A800019BC45EF85F048EF85F0010E49EF85F080
:100A9000000E0501726F8551040DF3500A0FEEEC44
:100AA000D1F005018551070DF350160FA9ECEBF0BD
:100AB000CC0E05018525D96EDA6A050EDA22DF50E3
:100AC0007A6F7B6B19507A1907E11A507B19D8A4F9
:100AD0006CEF85F06EEF85F085EF85F08551070DA1
:100AE000F350110FA9ECEBF019BC79EF85F07CEF16
:100AF00085F0010E7DEF85F0000E0501726F8551C6
:100B0000040DF3500B0FEEECD1F0300E05018525EE
:100B1000D96EDA6A060EDA22020EDF6E400E8525E5
:100B2000D96EDA6A060EDA22CC0E8525E16EE26A0B
:100B3000050EE222DE50E65CD8B0A1EF85F0A3EF0F
:100B400085F049EF86F0200E8525D96EDA6A060E0B
:100B5000DA22DF50D8B4AFEF85F0B1EF85F0FAEFCD
:100B600085F0CC0E8525D96EDA6A050EDA22DF50C3
:100B70007A6F7B6BCC0E8525D96EDA6A050EDA2288
:100B8000DF507C6F7D6B200E8525D96EDA6A060EEC
:100B9000DA22DF507E6F7E517C27000E7D237A5152
:100BA0007C5D7D51800A7F6F7B51800A7F59D8B070
:100BB000DCEF85F0DEEF85F0E8EF85F0CC0E8525E3
:100BC000D96EDA6A050EDA22FF0EDF6E24EF86F0A8
:100BD000200E8525D96EDA6A060EDA22DF507A6F8A
:100BE000CC0E8525D96EDA6A050EDA227A51DF2617
:100BF00024EF86F0840E8525D96EDA6A070EDA2294
:100C0000DF06840E8525D96EDA6A070EDA22DF50F8
:100C1000D8A40DEF86F00FEF86F024EF86F0CC0E0F
:100C20008525D96EDA6A050EDA22DF2A940E85252B
:100C3000D96EDA6A070EDA22840E8525E16EE26A41
:100C4000070EE222DFC4E7F4CC0E8525D96EDA6AFE
:100C5000050EDA22400E8525E16EE26A060EE222DA
:100C6000DE50E65CD8B037EF86F039EF86F0F5EF6E
:100C700086F0400E8525D96EDA6A060EDA22CC0E91
:100C80008525E16EE26A050EE222DFC4E7F4F5EFA6
:100C900086F0CC0E8525D96EDA6A050EDA22400E72
:100CA0008525E16EE26A060EE222DE50E65CD8B0EF
:100CB0005CEF86F05EEF86F0F5EF86F0200E85257E
:100CC000D96EDA6A060EDA22DF50D8B46AEF86F0FF
:100CD0006CEF86F0B4EF86F0CC0E8525D96EDA6A1B
:100CE000050EDA22DF507A6F7B6B200E8525D96ED8
:100CF000DA6A060EDA22DF507C6F7C517A5F000ED2
:100D00007B5BCC0E8525D96EDA6A050EDA22DF50C0
:100D10007D6F7E6B7A517D5D7E51800A7F6F7B5146
:100D2000800A7F59D8B097EF86F099EF86F0A2EF4E
:100D300086F0CC0E8525D96EDA6A050EDA22DF6AD6
:100D4000DEEF86F0200E8525D96EDA6A060EDA22ED
:100D5000DF507A6FCC0E8525D96EDA6A050EDA225D
:100D60007A51DF5EDEEF86F0840E8525D96EDA6A71
:100D7000070EDA22DF06840E8525D96EDA6A070EA1
:100D8000DA22DF50D8A4C7EF86F0C9EF86F0DEEF95
:100D900086F0CC0E8525D96EDA6A050EDA22DF06DA
:100DA000940E8525D96EDA6A070EDA22840E85251F
:100DB000E16EE26A070EE222DFC4E7F4400E852509
:100DC000D96EDA6A060EDA22CC0E8525E16EE26A69
:100DD000050EE222DE50E65CD8B0F1EF86F0F3EFCC
:100DE00086F0F5EF86F039EF86F0CC0E8525D96ECA
:100DF000DA6A050EDA22400E8525E16EE26A060EF9
:100E0000E222DE50E618D8A408EF87F00AEF87F058
:100E1000D3EF88F0300E8525D96EDA6A060EDA2215
:100E2000010EDF6E6FECE6F005018551040D000E3A
:100E3000F324D96E070EF420DA6E19C5DEF41AC554
:100E4000DEF41BC5DEF41CC5DEF48551070DF3503E
:100E5000130FA9ECEBF0CC0E05018525D96EDA6AEB
:100E6000050EDA22DF507A6F7B6B19507A1907E191
:100E70001A507B19D8A43FEF87F041EF87F058EF65
:100E800087F08551070DF350110FA9ECEBF019AC69
:100E90004CEF87F04FEF87F0010E50EF87F0000E18
:100EA0000501726F8551040DF350080FEEECD1F07F
:100EB00005018551070DF350140FA9ECEBF0CC0E92
:100EC00005018525D96EDA6A050EDA22DF507A6FC0
:100ED0007B6B19507A1907E11A507B19D8A473EF6C
:100EE00087F075EF87F08CEF87F08551070DF35091
:100EF000110FA9ECEBF019AC80EF87F083EF87F0CE
:100F0000010E84EF87F0000E0501726F8551040D0C
:100F1000F350090FEEECD1F005018551070DF350A8
:100F2000150FA9ECEBF0CC0E05018525D96EDA6A18
:100F3000050EDA22DF507A6F7B6B19507A1907E1C0
:100F40001A507B19D8A4A7EF87F0A9EF87F0C0EF5C
:100F500087F08551070DF350110FA9ECEBF019AC98
:100F6000B4EF87F0B7EF87F0010EB8EF87F0000E0F
:100F70000501726F8551040DF3500A0FEEECD1F0AC
:100F800005018551070DF350160FA9ECEBF0CC0EBF
:100F900005018525D96EDA6A050EDA22DF507A6FEF
:100FA0007B6B19507A1907E11A507B19D8A4DBEF33
:100FB00087F0DDEF87F0F4EF87F08551070DF350F0
:100FC000110FA9ECEBF019ACE8EF87F0EBEF87F02D
:100FD000010EECEF87F0000E0501726F8551040DD4
:100FE000F3500B0FEEECD1F0050185517A6F7B6B5E
:100FF0007C6BDE0E7A25606F030E7B21616F000E25
:101000007C21626FCC0E8525D96EDA6A050EDA2254
:10101000DF50636F000EBCECE9F0D3EF88F0300EC8
:1010200005018525D96EDA6A060EDA22DF507A6F5D
:101030007B6B7B51000AD8B420EF88F0D3EF88F0A7
:101040007A51000AD8B44FEF88F0010AD8B4D3EF30
:1010500088F0030AD8B48EEF85F0010AD8B4B6EF51
:1010600084F0D3EF88F08551070DF350100FA9ECF1
:10107000EBF01A50000AD8B440EF88F0D3EF88F0B4
:101080001950020AD8B405EF80F0010AD8B492EFE3
:1010900084F0070AD8B40FEF88F0D3EF88F0D3EFCD
:1010A00088F0ADEF88F08551070DF350110FA9ECD2
:1010B000EBF019A25EEF88F060EF88F0F0EF88F0B7
:1010C00005018551040D000EF324D96E070EF4209E
:1010D000DA6EDEC47AF5DEC47BF5DEC47CF5DEC4F0
:1010E0007DF56FECE6F005017A51195C7E6F7B515E
:1010F0001A587F6F7C511B58806F7D511C58816F2F
:10110000815180110BE1250E7E5DF40E7F59D8A030
:101110008CEF88F08EEF88F0D1EF88F0300E8525C7
:10112000D96EDA6A060EDA22DF6AF0EF88F08551AE
:10113000070DF350110FA9ECEBF019AAA2EF88F0FC
:10114000A5EF88F0010EA6EF88F0000E1D6E0501D8
:101150008551DCECBFF0F0EF88F0300E05018525FD
:10116000D96EDA6A060EDA22DF507A6F7B6B7B511A
:10117000000AD8B4BEEF88F0F0EF88F07A51000A88
:10118000D8B497EF88F0010AD8B453EF88F0030A77
:10119000D8B4F0EF88F0010AD8B4D1EF88F0F0EFBE
:1011A00088F0F0EF88F005018551070DF350100F1E
:1011B000A9ECEBF01A50000AD8B4E1EF88F0F0EF98
:1011C00088F01950020AD8B451EF88F0010AD8B457
:1011D000ADEF88F0070AD8B4ADEF88F0F0EF88F0F3
:1011E0000501852B0F0E8565F8EF88F0FAEF88F082
:1011F00033EF88F012003850D8A401EF89F003EFE4
:1012000089F05BEF8AF0C6EF89F0B9C5D9F4BAC5A9
:10121000DAF4030EDF600FEF89F011EF89F021EFB0
:1012200089F0E8C56EF5E7C56FF5420E0501706FF0
:10123000010E716F010E726FAF0E84ECEFF059EF7B
:1012400089F0050120EE02F0B951D926BA51DA220F
:10125000DF50E86F20EE03F0B951D926BA51DA22F7
:10126000DF50E76FFD0E606F030E616F000E626F5F
:10127000E8C563F5000EBCECE9F0FC0E0501606FFB
:10128000030E616F000E626FE7C563F5000EBCECE4
:10129000E9F0010E386E1BECC7F0E8C52EF5E7C586
:1012A0002FF5520E2BECEFF00601D44BD52BDBECD7
:1012B000ECF0010E91EF8FF0A50E05016E6F620E3E
:1012C0006F6F200E706FFF0E716F140E726F7F0EB6
:1012D000736F040E746FEF0E9AECEFF059EF89F014
:1012E000480EF66E080EF76E000EF86E0800F5C494
:1012F0006EF5490EF66E080EF76E000EF86E0800D9
:10130000F5C46FF54A0EF66E080EF76E000EF86E15
:101310000800F5C470F54B0EF66E080EF76E000E61
:10132000F86E0800F5C471F54C0EF66E080EF76EF7
:10133000000EF86E0800F5C472F54D0EF66E080E3C
:10134000F76E000EF86E0800F5C473F54E0EF66EDB
:10135000080EF76E000EF86E0800F5C474F5E20E84
:101360009AECEFF059EF89F0000E05016E6F000E58
:101370006F6FA50E706F200E716F66ECE3F00501C4
:10138000726FB60E84ECEFF059EF89F0050120EE94
:1013900001F0B951D926BA51DA22DF500701E46FC2
:1013A000E56BE551000AD8B4D8EF89F0EBEF89F08E
:1013B000E4510D0AD8B4B4EF89F01D0AD8B45CEF3B
:1013C00089F0010AD8B470EF89F0530AD8B405EF58
:1013D00089F0EBEF89F0000E91EF8FF0E8C56EF524
:1013E000E7C56FF5A50E0501706F200E716F66ECF5
:1013F000E3F00501726FB60E84ECEFF059EF89F05F
:10140000B9C5D9F4BAC5DAF4040EDF600AEF8AF080
:101410000CEF8AF01CEF8AF0E8C56EF5E7C56FF5B2
:10142000760E0501706F010E716F010E726FAF0EB7
:1014300084ECEFF059EF89F0050120EE02F0B9518C
:10144000D926BA51DA22DF50D8A429EF8AF02BEF3F
:101450008AF078EF8AF020EE03F0B951D926BA511C
:10146000DA22DF50D8A437EF8AF039EF8AF078EF2C
:101470008AF020EE04F0B951D926BA51DA22DF50B1
:10148000BF6F0C0EBF19D8A448EF8AF04AEF8AF05C
:101490004DEF8AF0FD8559EF89F00D0EBF19D8A4E4
:1014A00054EF8AF056EF8AF059EF8AF0FD9559EF24
:1014B00089F078EF8AF0050120EE01F0B951D926C4
:1014C000BA51DA22DF500701E46FE56BE551000AFB
:1014D000D8B46DEF8AF078EF8AF0E4510D0AD8B4F1
:1014E000EEEF89F07B0AD8B400EF8AF078EF8AF04B
:1014F000B9C5D9F4BAC5DAF4030EDF6082EF8AF019
:1015000084EF8AF086EF8AF0EBEF89F0050120EE98
:1015100002F0B951D926BA51DA22DE50E819D8B40E
:1015200094EF8AF096EF8AF098EF8AF0EBEF89F06B
:1015300020EE03F0B951D926BA51DA22E751DE186C
:10154000D8B4A5EF8AF0A7EF8AF065EF8FF0EBEF44
:1015500089F0B9C5D9F4BAC5DAF4040EDF60B3EF87
:101560008AF0B5EF8AF0C5EF8AF0E8C56EF5E7C5F9
:101570006FF5730E0501706F010E716F010E726FC2
:10158000AF0E84ECEFF059EF89F0050120EE04F086
:10159000B951D926BA51DA22140EDF64D2EF8AF09B
:1015A000D4EF8AF0EDEF8AF0E8C56EF5E7C56FF588
:1015B000090E706F6F0E6EECEFF0E8C56EF5E7C5C3
:1015C0006FF5730E0501706F010E716F090E726F6A
:1015D000AF0E84ECEFF059EF89F020EE04F0B95132
:1015E000D926BA51DA22DF5098ECC8F00501BB6F5A
:1015F000E8C56EF5E7C56FF520EE04F0B951D926C0
:10160000BA51DA22DF50706FBBC571F59B0EB0EC9A
:10161000EFF00501FDB70FEF8BF011EF8BF059EFF5
:1016200089F020EE04F0B951D926BA51DA22DF5000
:10163000D8A41DEF8BF01FEF8BF059EF89F0010E4E
:101640008FECE2F01D6E2E0E1E6EDB0E1F6E010E75
:10165000206E070E89ECE9F059EF89F0E7C5E3F554
:10166000E8C5E4F5EAECCEF00501E351E411D8B4A5
:101670003CEF8BF03EEF8BF045EF8BF0E4C52EF5A1
:10168000E3C52FF5510E2BECEFF0FF00B9C5D9F4EF
:10169000BAC5DAF4050EDF6050EF8BF052EF8BF035
:1016A00062EF8BF0E8C56EF5E7C56FF5870E0501B3
:1016B000706F010E716F010E726FAF0E84ECEFF060
:1016C00059EF89F0050120EE04F0B951D926BA513D
:1016D000DA22DF50D8A46FEF8BF071EF8BF07EEF42
:1016E0008BF0000E1D6E940E1E6E9B0E1F6E010E73
:1016F000206E040E89ECE9F059EF89F020EE04F039
:10170000B951D926BA51DA22080EDF648AEF8BF07C
:101710008CEF8BF09BEF8BF0E8C56EF5E7C56FF5AE
:10172000870E706F010E716FFC0E726FAF0E84EC3E
:10173000EFF059EF89F020EE04F0B951D926BA51F3
:10174000DA22DF500701E46FE56BD890E437E53724
:10175000FE0EE425E66FFF0EE521E76FEB0EE625B2
:10176000F66EFE0EE721F76EF86A000EF822090009
:10177000F5C4E8F70900F5C4E9F7110EE827000EF3
:10178000E923E8C7F6F4E9C7F7F4000EF86E09009C
:10179000F5500900F5100900F510D8A4D2EF8BF030
:1017A000D4EF8BF0E8EF8BF0E8C56EF5E7C56FF589
:1017B000870E0501706F20EE04F0B951D926BA5199
:1017C000DA22DF50716F000E726FC70E84ECEFF0FB
:1017D000050120EE05F0B951D926BA51DA22DF50C1
:1017E000D8A4F5EF8BF0F7EF8BF00AEF8CF020EE3A
:1017F00004F0B951D926BA51DA22DF501D6E940E89
:101800001E6E9B0E1F6E010E206E040E89ECE9F019
:1018100059EF89F020EE04F0B951D926BA51DA22F5
:10182000DF500701E46FE56BD890E437E537FE0E33
:10183000E425E66FFF0EE521E76FEB0EE625F66E79
:10184000FE0EE721F76EF86A000EF8220900F5C4D3
:10185000E8F70900F5C4E9F7110EE827000EE923BF
:10186000E8C7F6F4E9C7F7F4000EF86E02D84EEFB9
:101870008CF00500FA6E0900F550FD6E0900F55078
:10188000FE6E0900F550FF6EFA50050120EE05F0DE
:10189000B951D926BA51DA22DF5012001FC5BDF561
:1018A00020C5BEF50501BD51BE11D8A45AEF8CF07C
:1018B0005CEF8CF06BEF8CF0E8C56EF5E7C56FF56B
:1018C000870E706F010E716FFD0E726FAF0E84EC9C
:1018D000EFF059EF89F0E8C56EF5E7C56FF520EE3A
:1018E00004F0B951D926BA51DA22DF50706F20EED8
:1018F00005F0B951D926BA51DA22DF50716F20EEC6
:1019000001F0BD51D926BE51DA22DF50726FBDC53C
:10191000D9F4BEC5DAF4DF50736FC70E58ECEFF0A0
:1019200059EF89F0B9C5D9F4BAC5DAF4040EDF600D
:101930009CEF8CF09EEF8CF0AEEF8CF0E8C56EF56E
:10194000E7C56FF5780E0501706F010E716F010E1E
:10195000726FAF0E84ECEFF059EF89F0050120EEC5
:1019600004F0B951D926BA51DA22DF50D8A4BBEF1E
:101970008CF0BDEF8CF0D7EF8CF0E8C56EF5E7C5C5
:101980006FF5000E706F000E716F080E726FAC0E67
:1019900084ECEFF0010E1D6E880E1E6EC10E1F6EE0
:1019A000010E206E030E89ECE9F059EF89F020EE6C
:1019B00004F0B951D926BA51DA22080EDF64E3EFF8
:1019C0008CF0E5EF8CF0F4EF8CF0E8C56EF5E7C530
:1019D0006FF5780E706F010E716FFC0E726FAF0EA7
:1019E00084ECEFF059EF89F020EE04F0B951D926DC
:1019F000BA51DA22DF500701E46FE56BD890E43783
:101A0000E537FE0EE425E66FFF0EE521E76FEB0EEE
:101A1000E625F66EFE0EE721F76EF86A000EF82254
:101A20000900F5C4E8F70900F5C4E9F70E0EE82748
:101A3000000EE923E8C7F6F4E9C7F7F4000EF86EE4
:101A40000900F5500900F5100900F510D8A42BEF96
:101A50008DF02DEF8DF071EF8DF0E8C56EF5E7C5D7
:101A60006FF5050120EE04F0B951D926BA51DA22FA
:101A7000DF50706F20EE04F0B951D926BA51DA2246
:101A8000DF500701E46FE56BD890E437E537FE0ED1
:101A9000E425E66FFF0EE521E76FEB0EE625F66E17
:101AA000FE0EE721F76EF86A000EF8220900F5C471
:101AB000E8F70900F5C4E9F7E8C7F6F4E9C7F7F471
:101AC000000EF86E0800F5C471F5000E0501726F86
:101AD000000E736F000E746FE70E9AECEFF059EF83
:101AE00089F0E8C56EF5E7C56FF5050120EE04F055
:101AF000B951D926BA51DA22DF50706F20EE04F0C6
:101B0000B951D926BA51DA22DF500701E46FE56BEB
:101B1000D890E437E537FE0EE425E66FFF0EE521A9
:101B2000E76FEB0EE625F66EFE0EE721F76EF86A1C
:101B3000000EF8220900F5C4E8F70900F5C4E9F73A
:101B4000E8C7F6F4E9C7F7F4000EF86E0800F5C42C
:101B500071F5050120EE04F0B951D926BA51DA2207
:101B6000DF500701EA6FEB6BD890EA37EB37FE0ED8
:101B7000EA25EC6FFF0EEB21ED6FEB0EEC25F66E18
:101B8000FE0EED21F76EF86A000EF8220900F5C48A
:101B9000EEF70900F5C4EFF70E0EEE27000EEF2367
:101BA000EEC7F6F4EFC7F7F4000EF86E02D8E7EFD1
:101BB0008DF00500FA6E0900F550FD6E0900F55034
:101BC000FE6E0900F550FF6EFA50010E120005017D
:101BD000726F20EE04F0B951D926BA51DA22DF50E3
:101BE0000701F06FF16BD890F037F137FE0EF0255A
:101BF000F26FFF0EF121F36FEB0EF225F66EFE0E83
:101C0000F321F76EF86A000EF8220900F5C4F4F724
:101C10000900F5C4F5F70E0EF427000EF523F4C7FE
:101C2000F6F4F5C7F7F4000EF86E02D826EF8EF042
:101C30000500FA6E0900F550FD6E0900F550FE6EC4
:101C40000900F550FF6EFA50020E12000501736F85
:101C500020EE04F0B951D926BA51DA22DF5007013B
:101C6000F66FF76BD890F637F737FE0EF625F86F5C
:101C7000FF0EF721F96FEB0EF825F66EFE0EF92137
:101C8000F76EF86A000EF8220900F5C4FAF70900A9
:101C9000F5C4FBF70E0EFA27000EFB23FAC7F6F485
:101CA000FBC7F7F4000EF86E02D865EF8EF0050062
:101CB000FA6E0900F550FD6E0900F550FE6E090040
:101CC000F550FF6EFA50030E12000501746FE70E17
:101CD0009AECEFF059EF89F0B9C5D9F4BAC5DAF446
:101CE000040EDF6076EF8EF078EF8EF088EF8EF0E6
:101CF000E8C56EF5E7C56FF5760E0501706F010E4C
:101D0000716F010E726FAF0E84ECEFF059EF89F036
:101D1000050120EE04F0B951D926BA51DA22DF507C
:101D2000BF6FE7C5E3F5E8C5E4F53804D8A49BEF39
:101D30008EF09DEF8EF0FEEF8EF0BF51D8B4A3EF82
:101D40008EF0A5EF8EF0ADEF8EF0BF29D8A4ABEFEB
:101D50008EF0ADEF8EF0FEEF8EF0BF51D8B4B3EF42
:101D60008EF0B5EF8EF0B9EF8EF0510EBC6FBBEF79
:101D70008EF0500EBC6FE8C52EF5E7C52FF5BC51AF
:101D80002BECEFF0E8C56EF5E7C56FF5760E0501B3
:101D9000706F010E716F000E726FAF0E84ECEFF07A
:101DA000000E0501E86FE8C5E7F5FD0E606F030E54
:101DB000616F000E626FE8C563F5000EBCECE9F0E0
:101DC000FC0E0501606F030E616F000E626FE7C5C8
:101DD00063F5000EBCECE9F00501BF51D8B4F3EF98
:101DE0008EF0F5EF8EF0F8EF8EF03868FAEF8EF0A7
:101DF000000E386E010EF36F57EF89F00C0EBF190D
:101E0000D8A405EF8FF007EF8FF017EF8FF0FD8567
:101E1000E8C56EF5E7C56FF5760E706F010E716F50
:101E2000000E726FAF0E84ECEFF059EF89F00D0EDB
:101E3000BF19D8A41EEF8FF020EF8FF030EF8FF096
:101E4000FD95E8C56EF5E7C56FF5760E706F010E6E
:101E5000716F000E726FAF0E84ECEFF059EF89F0E6
:101E6000100EBF19D8A437EF8FF039EF8FF049EF7C
:101E70008FF0FD87E8C56EF5E7C56FF5760E706FDC
:101E8000010E716F000E726FAF0E84ECEFF059EF20
:101E900089F0110EBF19D8A450EF8FF052EF8FF0D8
:101EA000EBEF89F0FD97E8C56EF5E7C56FF5760EA7
:101EB000706F010E716F000E726FAF0E84ECEFF059
:101EC00059EF89F0FF0059EF89F020EE01F0B95188
:101ED000D926BA51DA22DF500701E46FE56BE551EC
:101EE000000AD8B476EF8FF0EBEF89F0E4514F0A97
:101EF000D8B42EEF8BF0110AD8B462EF8FF02D0A10
:101F0000D8B4A9EF8AF0050AD8B46CEF8EF00E0AA7
:101F1000D8B492EF8CF0FF0AD8B446EF8BF0EBEF19
:101F200089F012000501B26FF00E0501B225196E9D
:101F30001A6AFF0E1A22000E1C6E070E1B6ED7ECDB
:101F4000DDF019501A10D8A4A8EF8FF0AAEF8FF087
:101F5000C8EF8FF00501B251F00FB36FB3C523F591
:101F6000246A000E266E070E256E90ECDAF02350E0
:101F70000501B36FAB51AC19D8B4C1EF8FF0C3EF0B
:101F80008FF0C8EF8FF0ABC5A8F5B3512FECDEF0A2
:101F9000050E0501B219D8A4D0EF8FF0D2EF8FF063
:101FA000D5EF8FF0AB510BEC06F0060E0501B21920
:101FB000D8A4DDEF8FF0DFEF8FF044EF91F0000E4B
:101FC000B36F1BEF91F0AB51D8B4E9EF8FF0EBEFAB
:101FD0008FF028EF90F0B3C5ADF5070EAD17010EE9
:101FE000AE6F000EAF6FAD2BF9EF8FF0D890AE371C
:101FF000AF37AD2FF6EF8FF00501AE51AF11D8B46A
:1020000004EF90F006EF90F028EF90F0B351040D3C
:10201000020EF326000EF422AB0EF324F66EFE0E33
:10202000F420F76EF86A000EF8220800F5C4ADF54A
:10203000010EAE6FAD2B1FEF90F0D890AE37AD2FE5
:102040001DEF90F00501AE51040101133AEF91F03C
:10205000B351040D020EF326000EF422AB0EF3244E
:10206000F66EFE0EF420F76EF86A000EF8220800F5
:10207000F5C4ADF5010EAE6FAD2B41EF90F0D890E9
:10208000AE37AD2F3FEF90F00501AE51FF0A0401CE
:1020900001173AEF91F0AB51D8B451EF90F053EFF4
:1020A00090F090EF90F0B3C5ADF5070EAD17010EAF
:1020B000AE6F000EAF6FAD2B61EF90F0D890AE37E2
:1020C000AF37AD2F5EEF90F00501AE51AF11D8B430
:1020D0006CEF90F06EEF90F090EF90F0B351040D34
:1020E000020EF326000EF422AB0EF324F66EFE0E63
:1020F000F420F76EF86A000EF8220800F5C4ADF57A
:10210000010EAE6FAD2B87EF90F0D890AE37AD2FAC
:1021100085EF90F00501AE51040109133AEF91F0FB
:10212000B351040D020EF326000EF422AB0EF3247D
:10213000F66EFE0EF420F76EF86A000EF822080024
:10214000F5C4ADF5010EAE6FAD2BA9EF90F0D890B0
:10215000AE37AD2FA7EF90F00501AE51FF0A040195
:1021600009173AEF91F0AB51D8B4B9EF90F0BBEF4B
:1021700090F0F8EF90F0B3C5ADF5070EAD17010E76
:10218000AE6F000EAF6FAD2BC9EF90F0D890AE37A9
:10219000AF37AD2FC6EF90F00501AE51AF11D8B4F7
:1021A000D4EF90F0D6EF90F0F8EF90F0B351040D2B
:1021B000020EF326000EF422AB0EF324F66EFE0E92
:1021C000F420F76EF86A000EF8220800F5C4ADF5A9
:1021D000010EAE6FAD2BEFEF90F0D890AE37AD2F74
:1021E000EDEF90F00501AE51040111133AEF91F0BB
:1021F000B351040D020EF326000EF422AB0EF324AD
:10220000F66EFE0EF420F76EF86A000EF822080053
:10221000F5C4ADF5010EAE6FAD2B11EF91F0D89076
:10222000AE37AD2F0FEF91F00501AE51FF0A04015B
:1022300011173AEF91F0B351040D010EF326000E81
:10224000F422AB0EF324F66EFE0EF420F76EF86A5D
:10225000000EF8220800F550410AD8B4E3EF8FF0E1
:10226000030AD8B44BEF90F0010AD8B4B3EF90F062
:102270003AEF91F00501B32B070EB36542EF91F0F1
:1022800044EF91F01BEF91F0070EB219D8A44BEF79
:1022900091F04DEF91F0B2EF92F0080EB36F89EF2D
:1022A00092F0AB51D8B457EF91F059EF91F096EF0F
:1022B00091F0B3C5ADF5070EAD17010EAE6F000E70
:1022C000AF6FAD2B67EF91F0D890AE37AF37AD2F32
:1022D00064EF91F00501AE51AF11D8B472EF91F0F7
:1022E00074EF91F096EF91F0B351040D020EF326C6
:1022F000000EF422AB0EF324F66EFE0EF420F76E01
:10230000F86A000EF8220800F5C4ADF5010EAE6FB4
:10231000AD2B8DEF91F0D890AE37AD2F8BEF91F0C4
:102320000501AE5104010113A8EF92F0B351040D61
:10233000020EF326000EF422AB0EF324F66EFE0E10
:10234000F420F76EF86A000EF8220800F5C4ADF527
:10235000010EAE6FAD2BAFEF91F0D890AE37AD2F31
:10236000ADEF91F00501AE51FF0A04010117A8EF8E
:1023700092F0AB51D8B4BFEF91F0C1EF91F0FEEF06
:1023800091F0B3C5ADF5070EAD17010EAE6F000E9F
:10239000AF6FAD2BCFEF91F0D890AE37AF37AD2FF9
:1023A000CCEF91F00501AE51AF11D8B4DAEF91F056
:1023B000DCEF91F0FEEF91F0B351040D020EF32625
:1023C000000EF422AB0EF324F66EFE0EF420F76E30
:1023D000F86A000EF8220800F5C4ADF5010EAE6FE4
:1023E000AD2BF5EF91F0D890AE37AD2FF3EF91F024
:1023F0000501AE5104010913A8EF92F0B351040D89
:10240000020EF326000EF422AB0EF324F66EFE0E3F
:10241000F420F76EF86A000EF8220800F5C4ADF556
:10242000010EAE6FAD2B17EF92F0D890AE37AD2FF7
:1024300015EF92F00501AE51FF0A04010917A8EF4C
:1024400092F0AB51D8B427EF92F029EF92F066EFFB
:1024500092F0B3C5ADF5070EAD17010EAE6F000ECD
:10246000AF6FAD2B37EF92F0D890AE37AF37AD2FBF
:1024700034EF92F00501AE51AF11D8B442EF92F0B3
:1024800044EF92F066EF92F0B351040D020EF32682
:10249000000EF422AB0EF324F66EFE0EF420F76E5F
:1024A000F86A000EF8220800F5C4ADF5010EAE6F13
:1024B000AD2B5DEF92F0D890AE37AD2F5BEF92F081
:1024C0000501AE5104011113A8EF92F0B351040DB0
:1024D000020EF326000EF422AB0EF324F66EFE0E6F
:1024E000F420F76EF86A000EF8220800F5C4ADF586
:1024F000010EAE6FAD2B7FEF92F0D890AE37AD2FBF
:102500007DEF92F00501AE51FF0A04011117A8EF0B
:1025100092F0B351040D010EF326000EF422AB0E1F
:10252000F324F66EFE0EF420F76EF86A000EF82221
:102530000800F550410AD8B451EF91F0030AD8B41D
:10254000B9EF91F0010AD8B421EF92F0A8EF92F020
:102550000501B32B0F0EB365B0EF92F0B2EF92F01E
:1025600089EF92F00F0EB265B8EF92F0BAEF92F0E9
:1025700037EF95F0F00EB225236E246AFF0E242269
:10258000000E266E070E256E90ECDAF02350050142
:10259000B36FF00EB225196E1A6AFF0E1A22000EE2
:1025A0001C6E070E1B6ED7ECDDF016EF95F00501E3
:1025B000B251AD6FAE6BB351070D120EF326000E84
:1025C000F422AD51F31807E1AE51F418D8A4EBEFA3
:1025D00092F0EDEF92F037EF95F0B3C5FCF5ABBF9D
:1025E000F4EF92F0F6EF92F0FCEF92F0000EB16F84
:1025F000010EB06F00EF93F0000EB16F020EB06FDE
:10260000B0C5FBF537EF95F037EF95F00501B25106
:10261000AD6FAE6BB351070D120EF326000EF42210
:10262000AD51F31807E1AE51F418D8A41AEF93F0A6
:102630001CEF93F029EF93F0020E1D6EB3515FEC87
:10264000D7F0020E1D6E0501B35155ECD4F037EFF3
:1026500095F0B251AD6FAE6BB351070D130EF3266B
:10266000000EF422AD51F31807E1AE51F418D8A4CE
:102670003CEF93F03EEF93F04BEF93F0010E1D6EA5
:10268000B3515FECD7F0010E1D6E0501B35155EC4F
:10269000D4F037EF95F0B251AD6FAE6BB351070D7B
:1026A000110EF326000EF422AD51F31807E1AE51DE
:1026B000F418D8A45EEF93F060EF93F037EF95F045
:1026C000ABAF65EF93F067EF93F004EF93F0ACBF1F
:1026D0006CEF93F06EEF93F004EF93F0B351070DAE
:1026E000F350120FA9ECEBF019C523F51AC524F528
:1026F000000E266E020E256E90ECDAF023C5ADF5C5
:1027000024C5AEF50501B351070DF350130FA9EC25
:10271000EBF019C523F51AC524F5000E266E020E3E
:10272000256E90ECDAF023500501AD252B6EB351E8
:1027300051EC05F037EF95F00501B251AD6FAE6B7E
:10274000B351070D130EF326000EF422AD51F3180A
:1027500007E1AE51F418D8A4B0EF93F0B2EF93F0C4
:10276000BFEF93F0020E1D6EB351C8ECD7F0020E0E
:10277000196E0501B3517BECE8F037EF95F0B251DB
:10278000AD6FAE6BB351070D120EF326000EF4229F
:10279000AD51F31807E1AE51F418D8A4D2EF93F07D
:1027A000D4EF93F0E1EF93F0010E1D6EB351C8EC3E
:1027B000D7F0010E196E0501B3517BECE8F037EF4D
:1027C00095F0B251AD6FAE6BB351070D110EF326FC
:1027D000000EF422AD51F31807E1AE51F418D8A45D
:1027E000F4EF93F0F6EF93F037EF95F0ABAFFBEF2C
:1027F00093F0FDEF93F004EF93F0ACBF02EF94F091
:1028000004EF94F004EF93F0B351070DF350120F5F
:10281000A9ECEBF019C523F51AC524F5000E266EB8
:10282000020E256E90ECDAF023C5ADF524C5AEF5A9
:102830000501B351070DF350130FA9ECEBF019C5C7
:1028400023F51AC524F5000E266E020E256E90ECB7
:10285000DAF023500501AD25AF6FCC0EB325D96E4C
:10286000DA6A050EDA22AFC5DFF437EF95F005011D
:10287000B251AD6FAE6BB351070D130EF326000EC0
:10288000F422AD51F31807E1AE51F418D8A44BEF80
:1028900094F04DEF94F05AEF94F0000E1D6EB3518A
:1028A00072ECD0F0000E1D6E0501B351DAECDEF0D3
:1028B00037EF95F0B251AD6FAE6BB351070D140EFB
:1028C000F326000EF422AD51F31807E1AE51F418CF
:1028D000D8A46DEF94F06FEF94F07CEF94F0010EBC
:1028E0001D6EB35172ECD0F0010E1D6E0501B35197
:1028F000DAECDEF037EF95F0B251AD6FAE6BB3515D
:10290000070D150EF326000EF422AD51F31807E162
:10291000AE51F418D8A48FEF94F091EF94F09EEF9D
:1029200094F0020E1D6EB35172ECD0F0020E1D6ECB
:102930000501B351DAECDEF037EF95F0B251AD6F2F
:10294000AE6BB351070D160EF326000EF422AD51F7
:10295000F31807E1AE51F418D8A4B1EF94F0B3EF37
:1029600094F0C0EF94F0030E1D6EB35172ECD0F0F2
:10297000030E1D6E0501B351DAECDEF037EF95F072
:10298000B251AD6FAE6BB351070D110EF326000EB1
:10299000F422AD51F31807E1AE51F418D8A4D3EFE7
:1029A00094F0D5EF94F037EF95F0ABAFDAEF94F009
:1029B000DCEF94F004EF93F0ACBFE1EF94F0E3EFC1
:1029C00094F004EF93F0B351070DF350120FA9ECFC
:1029D000EBF019C523F51AC524F5000E266E020E7C
:1029E000256E90ECDAF023C5ADF524C5AEF50501F2
:1029F000B351070DF350130FA9ECEBF019C523F5F4
:102A00001AC524F5000E266E020E256E90ECDAF043
:102A100023500501AD25AF6FCC0EB325D96EDA6A10
:102A2000050EDA22AFC5DFF437EF95F00501B3519B
:102A3000070DF350100FA9ECEBF01A50000AD8B4B0
:102A400024EF95F037EF95F01950020AD8B406EF4D
:102A500093F0010AD8B49CEF93F0070AD8B437EF8B
:102A600094F0020AD8B4D7EF92F037EF95F0120045
:102A7000FFEF98F0B9C577F5BAC578F5030E796F11
:102A8000000E7A6FFAECE4F0E806D8A44AEF95F06D
:102A90004CEF95F04FEF95F0010E47EF99F00501DF
:102AA00020EE02F0B951D926BA51DA22DE50E819E7
:102AB000D8A45DEF95F05FEF95F071EF95F020EE03
:102AC00003F0B951D926BA51DA22E751DE18D8A459
:102AD0006CEF95F06EEF95F071EF95F0FD814CEF96
:102AE00095F0FD914CEF95F0B9C577F5BAC578F53D
:102AF000040E796F000E7A6FFAECE4F0E806D8A4C1
:102B000084EF95F086EF95F088EF95F04CEF95F017
:102B1000050120EE02F0B951D926BA51DA22DE5071
:102B2000E819D8A496EF95F098EF95F0C9EF95F0D5
:102B300020EE03F0B951D926BA51DA22E751DE1856
:102B4000D8A4A5EF95F0A7EF95F0C9EF95F020EE8A
:102B500004F0B951D926BA51DA22080EDE18D8A4E9
:102B6000B4EF95F0B6EF95F0B8EF95F06EEF95F005
:102B700020EE04F0B951D926BA51DA22090EDE1836
:102B8000D8A4C5EF95F0C7EF95F0CAEF95F071EFB7
:102B900095F0FD91000E47EF99F0B9C577F5BAC5EC
:102BA00078F5070E796F010E7A6FFAECE4F0E8061B
:102BB000D8A4DDEF95F0DFEF95F0EBEF95F0E8C5E9
:102BC0006EF5E7C56FF5010E0501706F6F0E6EECC7
:102BD000EFF04CEF95F00501FDB1F1EF95F0F3EF5B
:102BE00095F0F5EF95F04CEF95F020EE03F0B9512C
:102BF000D926BA51DA22DF50BB6F20EE02F0B9516C
:102C0000D926BA51DA22DF50BC6FBB51AC6FBCC5BC
:102C1000ADF520EE05F0B951D926BA51DA22DF50D0
:102C2000BE6F20EE04F0B951D926BA51DA22DF5036
:102C3000BF6FBE51AE6FBFC5AFF520EE06F0B95104
:102C4000D926BA51DA22DF50B06F20EE07F0B95121
:102C5000D926BA51DA22DF50B16FAFECD5F04CEF84
:102C600095F0B9C577F5BAC578F5050E796F010EFF
:102C70007A6FFAECE4F0E806D8A441EF96F043EF5F
:102C800096F045EF96F04CEF95F00501FDB14BEF56
:102C900096F04DEF96F04FEF96F04CEF95F020EE5A
:102CA00003F0B951D926BA51DA22DF50BB6F20EEBA
:102CB00002F0B951D926BA51DA22DF50BC6FBB51AC
:102CC000806FBCC581F520EE05F0B951D926BA5107
:102CD000DA22DF50BE6F20EE04F0B951D926BA5186
:102CE000DA22DF50BF6FBE51826FBFC583F533EC70
:102CF000E4F04CEF95F0B9C577F5BAC578F5060E56
:102D0000796F010E7A6FFAECE4F0E806D8A48BEF45
:102D100096F08DEF96F08FEF96F04CEF95F0050161
:102D2000FDB195EF96F097EF96F099EF96F04CEF96
:102D300095F020EE03F0B951D926BA51DA22DF50CE
:102D4000BB6F20EE02F0B951D926BA51DA22DF501A
:102D5000BC6FBB51796FBCC57AF520EE05F0B95157
:102D6000D926BA51DA22DF50BE6F20EE04F0B951F5
:102D7000D926BA51DA22DF50BF6FBE517B6FBFC573
:102D80007CF520EE06F0B951D926BA51DA22DF508F
:102D90007D6F53ECC6F04CEF95F0B9C577F5BAC529
:102DA00078F5030E796F000E7A6FFAECE4F0E8061E
:102DB000D8A4DDEF96F0DFEF96F0E1EF96F04CEF60
:102DC00095F0050120EE02F0B951D926BA51DA2268
:102DD000DE50E819D8A4EFEF96F0F1EF96F04CEF43
:102DE00095F020EE03F0B951D926BA51DA22E75115
:102DF000DE18D8B4FEEF96F000EF97F071EF95F083
:102E00004CEF95F0B9C577F5BAC578F5030E796F33
:102E1000010E7A6FFAECE4F0E806D8A412EF97F00E
:102E200014EF97F016EF97F04CEF95F0050120EEB8
:102E300002F0B951D926BA51DA22DE50E819D8A4E5
:102E400024EF97F026EF97F04CEF95F020EE03F08B
:102E5000B951D926BA51DA22E751DE18D8B433EF86
:102E600097F035EF97F037EF97F04CEF95F0FDB115
:102E70003CEF97F03EEF97F057EF97F0E8C56EF50F
:102E8000E7C56FF5020E706F6F0E6EECEFF0E8C5E0
:102E90006EF5E7C56FF5550E0501706F040E716F85
:102EA000020E726FAF0E84ECEFF04CEF95F06CEC0D
:102EB000EEF0CAEF95F0B9C577F5BAC578F5030E0F
:102EC000796F000E7A6FFAECE4F0E806D8A46BEFA5
:102ED00097F06DEF97F06FEF97F04CEF95F00501DD
:102EE00020EE02F0B951D926BA51DA22DE50E819A3
:102EF000D8A47DEF97F07FEF97F04CEF95F020EEA0
:102F000003F0B951D926BA51DA22E751DE18D8B404
:102F10008CEF97F08EEF97F090EF97F04CEF95F0E5
:102F2000A7EC05F04CEF95F0B9C577F5BAC578F583
:102F3000030E796F000E7A6FFAECE4F0E806D8A47D
:102F4000A4EF97F0A6EF97F0A8EF97F04CEF95F06D
:102F5000050120EE02F0B951D926BA51DA22DE502D
:102F6000E819D8A4B6EF97F0B8EF97F04CEF95F0CA
:102F700020EE03F0B951D926BA51DA22E751DE1812
:102F8000D8B4C5EF97F0C7EF97F0C9EF97F04CEFC3
:102F900095F05AECE7F04CEF95F0B9C577F5BAC566
:102FA00078F5030E796F000E7A6FFAECE4F0E8061C
:102FB000D8A4DDEF97F0DFEF97F0E1EF97F04CEF5B
:102FC00095F0050120EE02F0B951D926BA51DA2266
:102FD000DE50E819D8A4EFEF97F0F1EF97F04CEF3F
:102FE00095F020EE03F0B951D926BA51DA22E75113
:102FF000DE18D8B4FEEF97F000EF98F002EF98F0EB
:103000004CEF95F04AECECF04CEF95F0B9C577F544
:10301000BAC578F5040E796F000E7A6FFAECE4F019
:10302000E806D8A416EF98F018EF98F01AEF98F089
:103030004CEF95F0050120EE02F0B951D926BA51B6
:10304000DA22DE50E819D8A428EF98F02AEF98F099
:103050004CEF95F020EE03F0B951D926BA51DA229F
:10306000E751DE18D8B437EF98F039EF98F03BEF1E
:1030700098F04CEF95F020EE04F0B951D926BA51F2
:10308000DA22DF507AECE5F04CEF95F0B9C577F530
:10309000BAC578F5050E796F000E7A6FFAECE4F098
:1030A000E806D8A456EF98F058EF98F05AEF98F049
:1030B0004CEF95F0050120EE02F0B951D926BA5136
:1030C000DA22DE50E819D8A468EF98F06AEF98F099
:1030D0004CEF95F020EE03F0B951D926BA51DA221F
:1030E000E751DE18D8B477EF98F079EF98F07BEFDE
:1030F00098F04CEF95F020EE05F0B951D926BA5171
:10310000DA22DF502F6E20EE04F0B951D926BA51E1
:10311000DA22DF50A4ECCCF04CEF95F0B9C577F58E
:10312000BAC578F5080E796F010E7A6FFAECE4F003
:10313000E806D8A49EEF98F0A0EF98F0A2EF98F0E0
:103140004CEF95F0050120EE02F0B951D926BA51A5
:10315000DA22DE50E819D8A4B0EF98F0B2EF98F078
:103160004CEF95F020EE03F0B951D926BA51DA228E
:10317000E751DE18D8B4BFEF98F0C1EF98F0C3EF75
:1031800098F04CEF95F020EE03F0B951D926BA51E2
:10319000DA22DF50BB6F20EE02F0B951D926BA51C6
:1031A000DA22DF50BC6FBB51AC6FBCC5ADF520EE71
:1031B00005F0B951D926BA51DA22DF50BE6F20EEA0
:1031C00004F0B951D926BA51DA22DF50BF6FBE518F
:1031D000AE6FBFC5AFF520EE07F0B951D926BA5191
:1031E000DA22DF50B06F20EE08F0B951D926BA517B
:1031F000DA22DF50B16FAFECD5F04CEF95F005015E
:1032000020EE01F0B951D926BA51DA22DF50BB6F56
:10321000BC6BBC51000AD8B410EF99F0CAEF95F01E
:10322000BB51530AD8B43AEF95F0070AD8B4CDEFA2
:1032300096F0010AD8B402EF97F0030AD8B494EFDD
:1032400097F0010AD8B45BEF97F00F0AD8B4CDEF2E
:1032500097F02A0AD8B406EF98F0040AD8B474EFAD
:1032600095F0E30AD8B431EF96F0090AD8B446EFE6
:1032700098F02E0AD8B47BEF96F0600AD8B4CDEF60
:1032800095F0270AD8B48EEF98F0CAEF95F01200A7
:10329000050120EE01F0B951D926BA51DA22760E95
:1032A000DE18D8A456EF99F058EF99F0B1EF99F0E5
:1032B000B9C577F5BAC578F5040E796FDDEC05F080
:1032C000E806D8A466EF99F068EF99F06BEF99F0F3
:1032D000010E67EF9CF0050120EE02F0B951D926EE
:1032E000BA51DA22DE50E819D8A479EF99F07BEFD1
:1032F00099F0AEEF99F020EE03F0B951D926BA510A
:10330000DA22E751DE18D8A488EF99F08AEF99F015
:10331000AEEF99F020EE04F0B951D926BA51DA2275
:103320000A0EDE18D8A497EF99F099EF99F09CEF68
:1033300099F0FD8368EF99F020EE04F0B951D92699
:10334000BA51DA220B0EDE18D8A4A9EF99F0ABEF30
:1033500099F0AEEF99F0FD9368EF99F0000E67EFEA
:103360009CF0B9C5D9F4BAC5DAF4050EDF60BBEF3D
:1033700099F0BDEF99F0BFEF99F0AEEF99F020EE24
:1033800003F0B951D926BA51DA22DF50BB6F20EED3
:1033900002F0B951D926BA51DA22DF50BC6FBB51C5
:1033A000C16FBCC5C2F5E7EF99F0000EC26F000E09
:1033B000C16F140EBE6F010EBF6F3AEF9AF0000E90
:1033C000C26F000EC16F000EBE6F3AEF9AF020EE92
:1033D00001F0B951D926BA51DA22DF50BB6FBC6B6C
:1033E000BC51000AD8B4F7EF99F0AEEF99F0BB5199
:1033F000900AD8B4D9EF99F0010AD8B4E3EF99F064
:10340000090AD8B4D5EF99F0010AD8B4DFEF99F0E2
:10341000290AD8B4D9EF99F0010AD8B4E3EF99F0AA
:10342000090AD8B4D5EF99F0010AD8B4DFEF99F0C2
:10343000690AD8B4D9EF99F0010AD8B4E3EF99F04A
:10344000090AD8B4D5EF99F0010AD8B4DFEF99F0A2
:10345000290AD8B4D9EF99F0010AD8B4E3EF99F06A
:10346000090AD8B4D5EF99F0010AD8B4DFEF99F082
:10347000AEEF99F0C1C56CF5C2C56DF520EE05F053
:10348000B951D926BA51DA22DF50BB6F20EE04F0D1
:10349000B951D926BA51DA22DF50BC6FBB516E6FD9
:1034A000BCC56FF552ECDBF00501C56FC529D8A48A
:1034B0005CEF9AF05EEF9AF060EF9AF0AEEF99F061
:1034C000C551FDECC9F00501C06FFDA36AEF9AF08C
:1034D0006CEF9AF0AAEF9AF0C55195ECECF0000968
:1034E000D8B475EF9AF077EF9AF0AAEF9AF0E8C5A2
:1034F0006EF5E7C56FF5050120EE01F0B951D9264B
:10350000BA51DA22DF50706F20EE02F0B951D9269D
:10351000BA51DA22DF50716F20EE03F0B951D9268B
:10352000BA51DA22DF50726F20EE04F0B951D92679
:10353000BA51DA22DF50736F20EE05F0B951D92667
:10354000BA51DA22DF50746FE60E9AECEFF0060102
:10355000EB4BEC2B050120EE01F0B951D926BA5105
:10356000DA22DF50C06FC0B1B8EF9AF0BAEF9AF02C
:103570006FEF9BF0010ECA6F130ECA65C2EF9AF08F
:10358000C4EF9AF0C6EF9AF062EF9CF0400ECA25A5
:10359000D96EDA6A070EDA22DF50CB6FCB51D8B47E
:1035A000D4EF9AF0D6EF9AF06BEF9BF0CB517F0BF4
:1035B000C86F590EC861DFEF9AF0E1EF9AF06BEF38
:1035C0009BF0070EC819D8A4E8EF9AF0EAEF9AF03A
:1035D000ECEF9AF062EF9CF0080EC861F2EF9AF0FF
:1035E000F4EF9AF0F9EF9AF0CB5145ECE2F06BEF83
:1035F0009BF0F80EC825236E246AFF0E2422000ECD
:10360000266E050E256E90ECDAF023500501C76F8B
:10361000F80EC825196E1A6AFF0E1A22000E1C6ECB
:10362000050E1B6ED7ECDDF019500501C96F4BEF8D
:103630009BF00501C751070DF350110FA9ECEBF0FA
:1036400019AE25EF9BF027EF9BF029EF9BF022ECC2
:1036500006F00501C951D8A430EF9BF032EF9BF082
:1036600033EF9BF0CB2B040EC919D8A43AEF9BF093
:103670003CEF9BF03EEF9BF0020ECB5FCB5145EC55
:10368000E2F01FEC06F06BEF9BF00501CB5145EC2F
:10369000E2F06BEF9BF0C751070DF350100FA9EC50
:1036A000EBF01A50000AD8B458EF9BF06BEF9BF088
:1036B0001950010AD8B419EF9BF0030AD8B429EFC6
:1036C0009BF0010AD8B429EF9BF0070AD8B445EF64
:1036D0009BF06BEF9BF00501CA2BBCEF9AF053C730
:1036E000C3F5130ECA6FCA51D8A479EF9BF07BEFD4
:1036F0009BF07DEF9BF062EF9CF0000EC46FC3C5A2
:10370000CBF5010ECA6587EF9BF089EF9BF096EF32
:103710009BF03F0ECA25D96EDA6A070EDA22DF5017
:10372000C36FC351800BC66F99EF9BF0C451800BE0
:10373000C66FCB51D8B49FEF9BF0A1EF9BF058EF31
:103740009CF0C451D8A4A7EF9BF0A9EF9BF0ABEF7E
:103750009BF0CBC5C4F5CB9F590ECB61B2EF9BF06C
:10376000B4EF9BF058EF9CF0070ECB19D8A4BBEF39
:103770009BF0BDEF9BF0BFEF9BF062EF9CF0080E5B
:10378000CB61C5EF9BF0C7EF9BF0D6EF9BF0CB056D
:10379000D8B4CDEF9BF0CFEF9BF0D6EF9BF0C651A6
:1037A000CB13CB5145ECE2F058EF9CF0F80ECB2553
:1037B000236E246AFF0E2422000E266E050E256E4F
:1037C00090ECDAF023500501C76FF80ECB25196E87
:1037D0001A6AFF0E1A22000E1C6E050E1B6ED7EC25
:1037E000DDF019500501C96F38EF9CF00501C75194
:1037F000070DF350110FA9ECEBF019AE02EF9CF09E
:1038000004EF9CF006EF9CF022EC06F0030E05019D
:10381000C919D8A40EEF9CF010EF9CF011EF9CF0AA
:10382000CB070501C951D8A418EF9CF01AEF9CF002
:103830001CEF9CF0020ECB27040EC919D8A423EF6D
:103840009CF025EF9CF027EF9CF0030ECB5FC65158
:10385000CB13CB5145ECE2F01FEC06F058EF9CF097
:103860000501C651CB13CB5145ECE2F02CEF9CF097
:10387000C751070DF350100FA9ECEBF01A50000AD6
:10388000D8B445EF9CF058EF9CF01950010AD8B419
:10389000F6EF9BF0030AD8B411EF9CF0010AD8B4FC
:1038A00011EF9CF0070AD8B430EF9CF058EF9CF071
:1038B0000501CA07CA51D8A460EF9CF062EF9CF0E2
:1038C0007DEF9BF00601E94BEA2B68EF99F01200BF
:1038D00005016F6F0F0E05016F6571EF9CF073EFBF
:1038E0009CF075EF9CF054EF9FF06F51070DF35073
:1038F000100FA9ECEBF0195005016E6FEDEF9CF085
:103900006F51070DF350110FA9ECEBF019A48BEFD9
:103910009CF08DEF9CF0A6EF9CF005016F51676F56
:10392000686B696BDE0E67251F6E030E6821206EC3
:10393000000E6921216E000E08ECE8F01F50256E84
:1039400005016F517EECDDF013EF9EF005016F5124
:10395000070DF350110FA9ECEBF019BAB2EF9CF080
:10396000B4EF9CF0BBEF9CF0000E05016C6F020EF3
:103970006B6FC0EF9CF0000E05016C6F010E6B6F5A
:103980006BC56DF56DC525F56F517EECDDF005015C
:103990006F51676F686B696BDE0E6725606F030E92
:1039A0006821616F000E6921626F6DC563F5000EBD
:1039B000BCECE9F013EF9EF06F51070DF350110FBF
:1039C000A9ECEBF01950100B05016A6F6AC525F5DB
:1039D0006F517EECDDF013EF9EF06E51010AD8B40A
:1039E00080EF9CF0030AD8B4DCEF9CF0010AD8B455
:1039F000DCEF9CF013EF9EF06E51D8B402EF9DF017
:103A000004EF9DF016EF9DF0050E6E19D8B40BEF84
:103A10009DF00DEF9DF016EF9DF0060E6E19D8A4E7
:103A200014EF9DF016EF9DF037EF9DF06F51040DF0
:103A3000020EF326000EF422AB0EF324F66EFE0EF9
:103A4000F420F76EF86A000EF8220800F5C467F556
:103A5000010E686F672B2FEF9DF0D8906837672FA6
:103A60002DEF9DF005016851C61233EF9EF06F51A6
:103A7000040D020EF326000EF422AB0EF324F66EB4
:103A8000FE0EF420F76EF86A000EF8220800F5C466
:103A900067F5010E686F672B50EF9DF0D89068377F
:103AA000672F4EEF9DF005016851FF0AC61633EFF0
:103AB0009EF06E51D8B45FEF9DF061EF9DF073EF13
:103AC0009DF0050E6E19D8B468EF9DF06AEF9DF079
:103AD00073EF9DF0060E6E19D8A471EF9DF073EF91
:103AE0009DF094EF9DF06F51040D020EF326000E31
:103AF000F422AB0EF324F66EFE0EF420F76EF86A95
:103B0000000EF8220800F5C467F5010E686F672BF8
:103B10008CEF9DF0D8906837672F8AEF9DF00501F4
:103B20006851C71233EF9EF06F51040D020EF32659
:103B3000000EF422AB0EF324F66EFE0EF420F76EA8
:103B4000F86A000EF8220800F5C467F5010E686FE8
:103B5000672BADEF9DF0D8906837672FABEF9DF0E6
:103B600005016851FF0AC71633EF9EF06E51D8B4B5
:103B7000BCEF9DF0BEEF9DF0D0EF9DF0050E6E19ED
:103B8000D8B4C5EF9DF0C7EF9DF0D0EF9DF0060EC5
:103B90006E19D8A4CEEF9DF0D0EF9DF0F1EF9DF01F
:103BA0006F51040D020EF326000EF422AB0EF32427
:103BB000F66EFE0EF420F76EF86A000EF82208008A
:103BC000F5C467F5010E686F672BE9EF9DF0D8909B
:103BD0006837672FE7EF9DF005016851C81233EF92
:103BE0009EF06F51040D020EF326000EF422AB0E70
:103BF000F324F66EFE0EF420F76EF86A000EF8223B
:103C00000800F5C467F5010E686F672B0AEF9EF098
:103C1000D8906837672F08EF9EF005016851FF0ABA
:103C2000C81633EF9EF005016F51040D010EF32607
:103C3000000EF422AB0EF324F66EFE0EF420F76EA7
:103C4000F86A000EF8220800F550410AD8B4FCEFDB
:103C50009CF0030AD8B459EF9DF0010AD8B4B6EF2E
:103C60009DF033EF9EF0050E6E19D8B43AEF9EF03A
:103C70003CEF9EF0ADEF9EF0060E6E19D8A443EF18
:103C80009EF045EF9EF035EF9FF0ADEF9EF06F5147
:103C9000040D020EF326000EF422AB0EF324F66E92
:103CA000FE0EF420F76EF86A000EF8220800F5C444
:103CB00067F5010E686F672B60EF9EF0D89068374C
:103CC000672F5EEF9EF0050168510401001354EF69
:103CD0009FF06F51040D020EF326000EF422AB0E7E
:103CE000F324F66EFE0EF420F76EF86A000EF8224A
:103CF0000800F5C467F5010E686F672B82EF9EF030
:103D0000D8906837672F80EF9EF005016851040155
:103D1000081354EF9FF06F51040D020EF326000EAE
:103D2000F422AB0EF324F66EFE0EF420F76EF86A62
:103D3000000EF8220800F5C467F5010E686F672BC6
:103D4000A4EF9EF0D8906837672FA2EF9EF0050190
:103D500068510401101354EF9FF06F51040D010ED0
:103D6000F326000EF422AB0EF324F66EFE0EF420C2
:103D7000F76EF86A000EF8220800F550410AD8B430
:103D800047EF9EF0030AD8B469EF9EF0010AD8B459
:103D90008BEF9EF054EF9FF06F51040D020EF3264F
:103DA000000EF422AB0EF324F66EFE0EF420F76E36
:103DB000F86A000EF8220800F5C467F5010E686F76
:103DC000672BE5EF9EF0D8906837672FE3EF9EF002
:103DD00005016851FF0A0401001754EF9FF06F516D
:103DE000040D020EF326000EF422AB0EF324F66E41
:103DF000FE0EF420F76EF86A000EF8220800F5C4F3
:103E000067F5010E686F672B08EF9FF0D890683751
:103E1000672F06EF9FF005016851FF0A040108179C
:103E200054EF9FF06F51040D020EF326000EF422A2
:103E3000AB0EF324F66EFE0EF420F76EF86A000E59
:103E4000F8220800F5C467F5010E686F672B2BEFA9
:103E50009FF0D8906837672F29EF9FF005016851D0
:103E6000FF0A0401101754EF9FF06F51040D010E6B
:103E7000F326000EF422AB0EF324F66EFE0EF420B1
:103E8000F76EF86A000EF8220800F550410AD8B41F
:103E9000CCEF9EF0030AD8B4EFEF9EF0010AD8B43D
:103EA00012EF9FF054EF9FF012000301F3A15BEFBC
:103EB0009FF05DEF9FF05FEF9FF00EEFA2F0050126
:103EC000FA51070DF350100FA9ECEBF0050E19187D
:103ED0001A10D8B46EEF9FF070EF9FF081EF9FF053
:103EE0000501FA51070DF350100FA9ECEBF0060E87
:103EF00019181A10D8A47FEF9FF081EF9FF0B3EF4D
:103F0000A1F00501F951D8B488EF9FF08AEF9FF036
:103F1000B3EFA1F0EBC385F5866B8551866F856B9A
:103F20000301EA5105018513FB51D8B49AEF9FF0C4
:103F30009CEF9FF0A5EF9FF0FC51FA19D8B4A3EFC6
:103F40009FF0A5EF9FF07CEFA1F0FA51070DF35021
:103F5000100FA9ECEBF0060E19181A10D8A4B3EF45
:103F60009FF0B5EF9FF0ABEFA0F00501FA51070D00
:103F7000F350150FA9ECEBF019C583F51AC584F5BC
:103F800005018351846F836BFA51070DF350160FAF
:103F9000A9ECEBF01950050183131A50841383C563
:103FA00081F584C582F5FA51070DF350130FA9EC82
:103FB000EBF019500501835F1A50845BFA51070D2D
:103FC000F350130FA9ECEBF01950050181271A509B
:103FD0008223FA51070DF350140FA9ECEBF0050101
:103FE000835119247F6F84511A20806FFA51070D75
:103FF000F350140FA9ECEBF019500501815D7D6FB2
:104000001A5082597E6F600EFA25D96EDA6A060E52
:10401000DA22DF50030B020AD8B411EFA0F013EF3D
:10402000A0F051EFA0F08151855D82518659D8A052
:104030001CEFA0F01EEFA0F051EFA0F0600EFA25EB
:10404000D96EDA6A060EDA220601DFA42AEFA0F0A2
:104050002CEFA0F044EFA0F00501FA51070DF3504A
:10406000110FA9ECEBF019AC38EFA0F03BEFA0F08A
:10407000010E3CEFA0F0000E0501726FFA51040D25
:10408000F350090FEEECD1F0600E0501FA25D96E60
:10409000DA6A060EDA22DF50FC0B0209DF6ED4EF7B
:1040A000A0F0600EFA25D96EDA6A060EDA22DF5029
:1040B000030B020AD8A45FEFA0F061EFA0F0D4EFE9
:1040C000A0F085517D5D86517E59D8A06AEFA0F0A1
:1040D0006CEFA0F0D4EFA0F0600EFA25D96EDA6A8A
:1040E000060EDA220601DFA478EFA0F07AEFA0F046
:1040F000A0EFA0F00501FA51070DF350110FA9EC44
:10410000EBF019B686EFA0F088EFA0F0A0EFA0F0DA
:104110000501FA51070DF350110FA9ECEBF019BC92
:1041200094EFA0F097EFA0F0010E98EFA0F0000E32
:104130000501726FFA51040DF350090FEEECD1F046
:10414000600E0501FA25D96EDA6A060EDA22FC0E37
:10415000DF16D4EFA0F085C57AF586C57BF5040E91
:1041600005017C6FD8907B337A337C2FB2EFA0F0BF
:104170007AC585F57BC586F5FA51070DF350130F07
:10418000A9ECEBF019C583F51AC584F50501FA51C0
:10419000070DF350140FA9ECEBF019500501835DE6
:1041A0007F6F1A508459806F600EFA25D96EDA6AD3
:1041B000060EDA22DF50030BE806D8B4E2EFA0F0D7
:1041C000E4EFA0F022EFA1F08551835D8651845980
:1041D000D8A0EDEFA0F0EFEFA0F022EFA1F0600E7D
:1041E000FA25D96EDA6A060EDA220601DFA4FBEFA1
:1041F000A0F0FDEFA0F015EFA1F00501FA51070DB9
:10420000F350110FA9ECEBF019AC09EFA1F00CEF92
:10421000A1F0010E0DEFA1F0000E0501726FFA5131
:10422000040DF350080FEEECD1F0600E0501FA25F5
:10423000D96EDA6A060EDA22DF50FC0B0109DF6E56
:10424000ABEFA1F0600EFA25D96EDA6A060EDA221B
:10425000DF50030BE806D8A430EFA1F032EFA1F055
:10426000ABEFA1F07F51855D80518659D8A03BEF1F
:10427000A1F03DEFA1F0ABEFA1F0600EFA25D96EF1
:10428000DA6A060EDA220601DFA449EFA1F04BEF4D
:10429000A1F071EFA1F00501FA51070DF350110FD4
:1042A000A9ECEBF019B657EFA1F059EFA1F071EFBF
:1042B000A1F00501FA51070DF350110FA9ECEBF035
:1042C00019BC65EFA1F068EFA1F0010E69EFA1F054
:1042D000000E0501726FFA51040DF350080FEEEC59
:1042E000D1F0600E0501FA25D96EDA6A060EDA22DF
:1042F000FC0EDF16ABEFA1F0E8C56EF5E7C56FF574
:10430000000E706FFA29716FFA29726F85C573F507
:104310008651746FFD0E9AECEFF0020E0501FB1949
:10432000D8A495EFA1F097EFA1F0A8EFA1F085C573
:1043300067F5FA51070DF350150F5CECEDF0050130
:104340008651676FFA51070DF350160F5CECEDF0D4
:10435000000E0501FB6F600EFA25D96EDA6A060EB3
:10436000DA220601DF840501FA2B0F0EFA65BBEF96
:10437000A1F0BDEFA1F0BFEFA1F0000EFA6FFA516E
:10438000070DF350100FA9ECEBF0050E19181A10D9
:10439000D8B4CDEFA1F0CFEFA1F0E0EFA1F005018F
:1043A000FA51070DF350100FA9ECEBF0060E191897
:1043B0001A10D8A4DEEFA1F0E0EFA1F00EEFA2F00A
:1043C0000501FA51040D020EF326000EF422AB0E85
:1043D000F324F66EFE0EF420F76EF86A000EF82253
:1043E0000800F5C47AF5FA51040D010EF326000E0B
:1043F000F422AB0EF324F66EFE0EF420F76EF86A8C
:10440000000EF8220800F550080DF350F80F7A114D
:104410000301EC6FF381010E0501F96F12003804FE
:10442000D8A415EFA2F017EFA2F066EFA2F06FECA0
:10443000E6F006018851195C0501736F0601895188
:104440001A580501746F06018A511B580501756FD2
:1044500006018B511C580501766F76510DE1B50EA2
:10446000735DC40E7459040E7559D8A03AEFA2F0CA
:104470003CEFA2F066EFA2F0FDA541EFA2F043EF02
:10448000A2F052EFA2F0E8C56EF5E7C56FF5F2C5F0
:1044900070F5CCC671F5000E726FAB0E84ECEFF0C8
:1044A0000501F22B6FECE6F019C588F61AC589F6FE
:1044B0001BC58AF61CC58BF60601CC51D8B463EF38
:1044C000A2F065EFA2F066EFA2F0CC070501F4516F
:1044D000FD19D8B46EEFA2F070EFA2F07DEFA2F05C
:1044E000F90E606F030E616F000E626FFDC563F51C
:1044F000000EBCECE9F0FDC5F4F50501F5513818E6
:10450000D8B485EFA2F087EFA2F0A4EFA2F038288C
:10451000D8B48DEFA2F08FEFA2F097EFA2F038049D
:10452000D8A495EFA2F097EFA2F0A2EFA2F0FB0EB5
:10453000606F030E616F000E626F38C563F5000E89
:10454000BCECE9F038C5F5F56FECE6F006018451F6
:10455000195C0501736F060185511A580501746FC6
:10456000060186511B580501756F060187511C58BD
:104570000501766F765175110BE1250E735DF40E12
:104580007459D8A0C6EFA2F0C8EFA2F062EFA4F071
:104590006FECE6F019C584F61AC585F61BC586F6DC
:1045A0001CC587F60601D04BD12BD051D111D8A410
:1045B000DCEFA2F0DEEFA2F062EFA4F0CE4BCF2B47
:1045C00062EFA4F0CEA4E7EFA2F0E9EFA2F0F5EFDE
:1045D000A2F06FECE6F019C5DCF51AC5DDF51BC5D8
:1045E000DEF51CC5DFF571EFA4F06FECE6F0050118
:1045F000DC51195C736FDD511A58746FDE511B5812
:10460000756FDF511C58766F76510DE1910E735D19
:10461000D00E7459030E7559D8A011EFA3F013EF03
:10462000A3F071EFA4F0FD0E386EF369DBECECF053
:1046300071EFA4F0CEA41FEFA3F021EFA3F0E9EFF8
:10464000A2F0000E386E0501F3696FECE6F019C5B3
:10465000DCF51AC5DDF51BC5DEF51CC5DFF5E8C5C3
:104660002EF5E7C52FF5500E2BECEFF0DBECECF060
:10467000E9EFA2F0CEA43FEFA3F041EFA3F0C5EF26
:10468000A3F06FECE6F00501DC51195C736FDD51AE
:104690001A58746FDE511B58756FDF511C58766FB6
:1046A000765175110BE16B0E735D180E7459D8A01D
:1046B0005CEFA3F05EEFA3F096EFA3F06FECE6F0F3
:1046C0000501DC51195C736FDD511A58746FDE51AE
:1046D0001B58756FDF511C58766F76510BE1480EF1
:1046E000735DE80E7459010E7559D8B07AEFA3F0D6
:1046F0007CEFA3F096EFA3F0F3C538F53804D8A407
:1047000084EFA3F086EFA3F094EFA3F0E3C5E7F501
:10471000E4C5E8F5E8C52EF5E7C52FF5520E2BECFC
:10472000EFF00601D44BD52BDBECECF06FECE6F0B0
:104730000501DC51195C736FDD511A58746FDE513D
:104740001B58756FDF511C58766F76510DE1910E35
:10475000735DD00E7459030E7559D8A0B2EFA3F053
:10476000B4EFA3F0B7EFA3F03868DBECECF06FEC3C
:10477000E6F019C5DCF51AC5DDF51BC5DEF51CC56F
:10478000DFF5000E376E71EFA4F0010E376E71EF9A
:10479000A4F0CEA4CEEFA3F0D0EFA3F0C5EFA3F02A
:1047A0003750D8B4D6EFA3F0D8EFA3F028EFA4F099
:1047B0006FECE6F00501DC51195C736FDD511A589E
:1047C000746FDE511B58756FDF511C58766F765130
:1047D00075110BE16B0E735D180E7459D8A0F3EFD1
:1047E000A3F0F5EFA3F028EFA4F06FECE6F00501DD
:1047F000DC51195C736FDD511A58746FDE511B5810
:10480000756FDF511C58766F76510BE1480E735D62
:10481000E80E7459010E7559D8B011EFA4F013EFDA
:10482000A4F028EFA4F0E7C5E3F5E8C5E4F5000E31
:10483000E86FE8C5E7F5000E386E010EF36FE4C5CA
:104840002EF5E3C52FF5500E2BECEFF0DBECECF082
:104850003750D8B42EEFA4F030EFA4F0B7EFA3F0A8
:104860006FECE6F00501DC51195C736FDD511A58ED
:10487000746FDE511B58756FDF511C58766F76517F
:104880000DE1900E735DD00E7459030E7559D8A0CA
:104890004CEFA4F04EEFA4F0B7EFA3F0E7C5E3F5BB
:1048A000E8C5E4F5000EE86FE8C5E7F53868010EE5
:1048B000F36FE4C52EF5E3C52FF5510E2BECEFF0A9
:1048C000B5EFA3F03850000AD8B43AEFA3F0FD0AD0
:1048D000D8B41AEFA3F0020AD8B4E2EFA2F0C9EFFD
:1048E000A3F012002E6ECC0E2E24D96EDA6A050EBD
:1048F000DA22DF500501606F616B400E2E24D96E05
:10490000DA6A060EDA22DF50626F636B030E6227EB
:10491000000E63236051625D6351800A646F6151D0
:10492000800A6459D8A097EFA4F099EFA4F0EEEFB5
:10493000A4F0400E2E24D96EDA6A060EDA22DF5079
:10494000606FFD0E6025616F626BFF0E6223CC0EFF
:104950002E24D96EDA6A050EDA22DF50636F646B9B
:104960006151635D6451800A656F6251800A6559C7
:10497000D8A0BDEFA4F0BFEFA4F0EEEFA4F02E504E
:10498000020D000EF324D96E060EF420DA6E010E2D
:10499000DBBED7EFA4F0010EDB5007E1040EDE5CB6
:1049A000D8B0D5EFA4F0D7EFA4F0EEEFA4F02E50DE
:1049B000020D000EF324D96E060EF420DA6E010EFD
:1049C000DBAEECEFA4F0FD0EDE5CFF0EDE58D8B0DF
:1049D000ECEFA4F0EEEFA4F0D1EFA6F02E50070D0F
:1049E000F350120FA9ECEBF019C560F51AC561F58B
:1049F0002E50070DF350130FA9ECEBF019500501E1
:104A0000605DD8A006EFA5F009EFA5F0010E0AEF52
:104A1000A5F0000E2B6E2B50D8A411EFA5F013EFCC
:104A2000A5F0F3EFA5F02E50020D000EF324D96E81
:104A3000060EF420DA6EDEC423F5DDC424F5000E84
:104A4000266E1E0E256E90ECDAF023C560F524C5A7
:104A500061F52E50070DF350130FA9ECEBF0195030
:104A600005016025626F000E6121636FCC0E2E245C
:104A7000D96EDA6A050EDA22DF50646F656B625117
:104A8000645D6551800A666F6351800A6659D8B0CB
:104A90004CEFA5F04EEFA5F0C9EFA5F02E50070D95
:104AA000F350140FA9ECEBF019C51DF51AC51EF54E
:104AB0002E50020D000EF324D96E060EF420DA6E8D
:104AC000DEC460F5DDC461F50501601F611F604B48
:104AD000612B60C51FF561C520F52BEC05F01DC5E8
:104AE00023F51EC524F5000E266E640E256E90EC8F
:104AF000DAF02E50020D000EF324D96E060EF420CB
:104B0000DA6E23C5DEF424C5DDF42E50070DF35014
:104B1000130FA9ECEBF019500501606F616B2E507B
:104B2000070DF350130FA9ECEBF0195005016027A6
:104B3000000E6123CC0E2E24D96EDA6A050EDA221D
:104B4000DF50626F6251605F000E615B2E50020D9C
:104B5000000EF324D96E060EF420DA6EDEC423F5BF
:104B6000DDC424F5000E266E1E0E256E90ECDAF0E4
:104B700023500501605D2C6E245061592D6ECC0EC2
:104B80002E24D96EDA6A050EDA222CC5DFF4CEEFB8
:104B9000A6F02E50020D000EF324D96E060EF4205E
:104BA000DA6E030EDE26000EDD222E50020D000E00
:104BB000F324D96E060EF420DA6EDEC423F5DDC4CC
:104BC00024F5000E266E1E0E256E90ECDAF0010E16
:104BD0002326CC0E2E24D96EDA6A050EDA22235053
:104BE000DF5ECEEFA6F0CC0E2E24D96EDA6A050E6B
:104BF000DA22DF50606F616B2E50070DF350130FF8
:104C0000A9ECEBF019C562F51AC563F52E50020D3B
:104C1000000EF324D96E060EF420DA6EDEC423F5FE
:104C2000DDC424F5000E266E1E0E256E90ECDAF023
:104C300023500501625D646F2450D8A02428656B61
:104C4000655F6051645D6551800A666F6151800ADD
:104C50006659D8B02EEFA6F030EFA6F0A6EFA6F07A
:104C60002E50070DF350140FA9ECEBF019C51DF5EC
:104C70001AC51EF52E50020D000EF324D96E060E35
:104C8000F420DA6EDEC460F5DDC461F50501601F55
:104C9000611F604B612B60C51FF561C520F52BECD2
:104CA00005F01DC523F51EC524F5000E266E640E05
:104CB000256E90ECDAF02E50020D000EF324D96E22
:104CC000060EF420DA6E23C5DEF424C5DDF42E5082
:104CD000070DF350130FA9ECEBF019500501606FAD
:104CE000616B2E50070DF350130FA9ECEBF0195028
:104CF00005016027000E61232E50020D000EF324E3
:104D0000D96E060EF420DA6EDEC423F5DDC424F578
:104D1000000E266E1E0E256E90ECDAF02350050173
:104D20006025626F24506121636FCC0E2E24D96EF2
:104D3000DA6A050EDA22DF50646F6451625D2C6E10
:104D40006351D8A063052D6EBFEFA5F02E50020D64
