:04000000FEEF03F01C
:0400080004EF04F00D
:040018000CEF04F0F5
:1000740000370800F5501200380E0001456FF80EE5
:100084004117408140B1FED7070E4113465112007B
:100094001F6E010103511F18F80B1F18036F02395B
:1000A400E832070B1F18D8B41200F9D700014151E8
:1000B400F80B0609416F550E426FAA0E426F40813C
:1000C40040B1FED7070E411312001F6E000140B16C
:1000D400FDD71FC546F0000E476F4151F80B0309C9
:1000E400416F550E426FAA0E426F4081070E4113B5
:1000F4001200740EF66E000EF76E000EF86E090014
:10010400F5C433F50900F5C434F501EE01F11E0E12
:10011400EE6AE806FDE10001AFEF01F0000E0C6E9F
:10012400000E0B6E000E0B24D96E370E0C20DA6E07
:10013400FF0EDF6E0B4A0C2A0C04D8A0F3D7000E76
:10014400166E000E156E000E146E12001F6E380E21
:100154000001456F1FC546F04151F80B0309416F7B
:10016400550E426FAA0E426F408140B1FED7070E72
:1001740041133EEC00F01F18D8B41200E8D7080E63
:10018400156003D01450D8B4120016C543F015C539
:1001940044F014C545F058EC00F04151F80B050942
:1001A400416F550E426FAA0E426F408140B1FED797
:1001B400070E411312001F6E07C5D9F408C5DAF4FF
:1001C400DF6A20EE01F00750D9260850DA22240E07
:1001D400DF6E20EE02F00750D9260850DA22DF6ADB
:1001E40020EE03F00750D9260850DA22DF6A1F50A8
:1001F400D8B409D020EE01F00750D9260850DA22ED
:10020400000EDB8608D020EE01F00750D9260850F6
:10021400DA22F70EDF16030E010169131200460EEF
:1002240002010B6F0B0E3D6FC794C786000E0301CE
:10023400676F0101018F040E4AEC00F0000E4C6F51
:10024400380E4D6F000E4E6F000E4F6F000E006F94
:10025400870E016F100E026F500E036F000E046FB5
:10026400030E056F020E066F3F0E076F800E686F58
:10027400040E696F600E6A6F5F0E6B6F080E746F09
:10028400040E756F000E766F5F0E776F400E8F6FE2
:10029400400E936F830E806F060E4AEC00F012003E
:1002A4002F6E1550206E1F6A1450236E226A216A25
:1002B4001F502110246E20502210256E000E20BEE7
:1002C400FF0E2310266E00014451286E276A455103
:1002D4002B6E2A6A296A275029102C6E28502A105E
:1002E4002D6E000E28BEFF0E2B102E6E24502C18DF
:1002F40007E125502D1804E126502E18D8B424D037
:1003040043C013F544C012F545C011F5C1EC00F02B
:10031400000E166E12C515F511C514F5000140B195
:10032400FDD714C545F015C544F016C543F0415139
:10033400F80B0209416F4081070E411313C543F0C6
:1003440012C544F011C545F0000E4325D96EDA6A92
:10035400370EDA222FC5DFF41200100E356E000EB0
:100364000401006F000E086FC79EC79CC684380E38
:100374000001456F030E446F43693EEC00F0000931
:10038400D8B4CEA402D000EF04F0400E356E0001C4
:10039400AD518F0B2009AD6F000E1C6E1C0E1B6E31
:1003A400C79CC79EBF8CBF8E11EC01F090EC00F08F
:1003B400000E046E000E036E0400010178A1FDD747
:1003C4007CC109F57DC10AF520EE04F00950D92657
:1003D4000A50DA22DF500F0B106E20EE01F00950A4
:1003E400D9260A50DA22DFA67CD119C545F018C5F2
:1003F40044F017C543F01BA60AD01050306E316A82
:10040400326A305017263150182232501922020E07
:10041400196074D020EE01F00950D9260A50DA226E
:10042400DFA82FD06CA1FED770C107F571C108F504
:10043400000E0F6E0F500724306E000E0820316E30
:10044400080E3024D96E000E3120DA6E3BEC00F039
:10045400DF6EF62AF650D8A404D0F72AF750D8B4A1
:10046400F82A0F2A080E0F64E5D720EE04F007508F
:10047400D9260850DA22180EDF6E010EDDEC00F0EA
:100484003DD000014551D8A403D0070E446536D0B1
:100494001BA203D058EC00F031D0000E0F6E2AD00E
:1004A4000F500924306E000E0A20316E080E3024DD
:1004B400D96E000E3120DA6EDF5052EC01F00F508D
:1004C4000924306E000E0A20316E080E3024D96ED5
:1004D400000E3120DA6EDF50326E32500326000EE9
:1004E4000422432B4351D8A404D0442B4451D8B400
:1004F400452B0F2A10500F5CD8A0D2D7300E1918F4
:10050400D8A466D020EE01F00950D9260A50DA2288
:10051400DFA830D001016CA1FDD770C107F571C10E
:1005240008F5000E0F6E0F500724306E000E0820E1
:10053400316E080E3024D96E000E3120DA6E3BEC99
:1005440000F0DF6EF62AF650D8A404D0F72AF7504C
:10055400D8B4F82A0F2A080E0F64E5D720EE04F069
:100564000750D9260850DA22180EDF6E010EDDEC92
:1005740000F02ED0000E0F6E27D004000F50092477
:10058400306E000E0A20316E080E3024D96E000E33
:100594003120DA6EDF5067EC00F00F500924306E22
:1005A400000E0A20316E080E3024D96E000E312060
:1005B400DA6EDF50326E32500326000E0422F62A21
:1005C400F650D8B4F72A0F2A10500F5CD8A0D5D70C
:1005D400380E1918D8A461D020EE01F00950D9269C
:1005E4000A50DA22DFA82CD001016CA1FDD770C11A
:1005F40007F571C108F5000E0F6E0F500724306E19
:10060400000E0820316E080E3024D96E000E312001
:10061400DA6E3EEC00F0DF6E432B4351D8B4442B2A
:100624000F2A080E0F64E9D720EE04F00750D926EC
:100634000850DA22180EDF6E010EDDEC00F02DD02A
:10064400000E0F6E26D00F500924306E000E0A20C3
:10065400316E080E3024D96E000E3120DA6EDF5070
:10066400A8EC00F00F500924306E000E0A20316E01
:10067400080E3024D96E000E3120DA6EDF50326E4F
:1006840032500326000E0422432B4351D8B4442B8A
:100694000F2A10500F5CD8A0D6D720EE01F00950D5
:1006A400D9260A50DA22DFA81BA89CD001016CA12C
:1006B400FDD770C107F571C108F520EE08F00750A9
:1006C400D9260850DA22010EDF6E20EE04F007501E
:1006D400D9260850DA22110EDF6E000EDDEC00F090
:1006E40081D0C1EC00F0170E056E050E066E080EE3
:1006F4000924016E000E0A20026E000E0F6E0FD048
:1007040001C5D9F402C5DAF405C5E1F406C5E2F47D
:10071400DFC4E7F4054A062A014A022A0F2A1050C8
:100724000F5CD8A0EDD71C04D8A40CD0380E00015F
:10073400456F030E446F4369000EA8EC00F0BF9CA4
:10074400BF9EFF00020E1C18D8A404D0000E046E35
:10075400000E036E030E1C18D8A426D001016CA150
:10076400FDD770C107F571C108F520EE08F00750F8
:10077400D9260850DA2203501D24306E04501E205E
:10078400316E30503110D8A402D0010E01D0000EC9
:10079400DF6E20EE04F00750D9260850DA22110E3D
:1007A400DF6E000EDDEC00F0040E1C18D8A41AD085
:1007B40001016CA1FDD770C107F571C108F520EEE8
:1007C40008F00750D9260850DA22020EDF6E20EE18
:1007D40004F00750D9260850DA22110EDF6E000EFD
:1007E400DDEC00F001017581E7D5424C5F564552BE
:0707F40053494F4E3D030184
:0807FC007BEF00F001EF05F0B6
:10082000A56120FF147F040B1701000800000000E1
:100830000000010C000000001400480800005803EC
:080848004D494F202020200043
:100900004103410341034103410341032277410372
:1009100041034103410341034103410341034103B7
:1009200041034103410341034103410341034103A7
:100930004103410341034103C17541034103C10226
:100940004103410341034103410341034103410387
:1009500041034103410341039675410341034103B0
:100960004103410341034103410341034103410367
:100970004103410341034103800241034103410319
:100980004103410341034103410341034103410347
:1009900041034103410341038002410341034103F9
:1009A0004103410341034103410341034103410327
:1009B0004103410341034103410341034103410317
:1009C0004103410341034103410341034103410307
:1009D00041034103410341034103410341034103F7
:1009E00080024103410341034103410341034103A9
:1009F00041034103410341034103410341034103D7
:100A0000FF00D6EFE3F02E6E080E0501666F6EC58F
:100A100067F56FC568F570C569F571C56AF572C58A
:100A20006BF573C56CF574C56DF52E5025ECE2F0D1
:100A300012002E6E050E0501666F6EC567F56FC557
:100A400068F570C569F571C56AF5000E6B6F000E2B
:100A50006C6F000E6D6F2E5025ECE2F0120003015A
:100A60001EA135EF05F037EF05F03AEF05F0000E67
:100A700044EF05F02AA13FEF05F041EF05F043EF09
:100A800005F037EF05F0010E1200196E4EEF05F07C
:100A9000010E59EF05F0000E59EF05F01950000A4C
:100AA000D8B448EF05F0010AD8B448EF05F04BEF91
:100AB00005F01200196E63EF05F0010E6EEF05F000
:100AC000000E6EEF05F01950000AD8B45DEF05F086
:100AD000010AD8B45DEF05F060EF05F012001D507B
:100AE0001F02F3C421F5F4C422F51D502002F35077
:100AF00022261E501F02F350222621C51DF522C5B5
:100B00001EF51200B1AE87EF05F089EF05F094EF06
:100B100005F0B19E362A3650D8A491EF05F093EF38
:100B200005F094EF05F0352A11002C6E400E2C24B0
:100B3000D96EDA6A060EDA222BC5DFF4CC0E2C242D
:100B4000D96EDA6A050EDA222BC5DFF41200196EAF
:100B5000600E1924D96EDA6A060EDA22FC0EDF1650
:100B6000600E1924D96EDA6A060EDA220601DF94C5
:100B70001200196EC2EF05F07F0EC9EF05F0000EEE
:100B8000C9EF05F01950010AD8B4BCEF05F0BFEF6A
:100B900005F01200196ED3EF05F0020EDAEF05F042
:100BA000000EDAEF05F01950010AD8B4CDEF05F0C8
:100BB000D0EF05F012000501675166196B6F69519E
:100BC00068196A6F6B51070DF3506A256B6F1F0E22
:100BD0006B176B511200000E3A6EFE0E0501606F2E
:100BE000030E616F000E626F3AC563F5000EE7EC0D
:100BF000E9F01200040EBAECE2F01D6EC60E1E6E95
:100C0000CB0E1F6E010E206E020EB4ECE9F0120046
:100C1000050EBAECE2F01D6E4A0E1E6E920E1F6EAD
:100C2000010E206E010EB4ECE9F01200000E346EDD
:100C3000000E456E080E466E000E476E000EF86EF2
:100C40000001419F12002FEC05F00009D8A42BEF02
:100C500006F02EEF06F0010E2FEF06F0000E120048
:100C600077C573F578C574F579C575F5090E050175
:100C7000766F50ECE0F012000601CC29D8B443EFB7
:100C800006F045EF06F046EF06F0CC2B1200000E02
:100C90000601906F000E916F000E926F000E936F21
:100CA00012001950010AD8B458EF06F058EF06F0B8
:100CB000120001010239E832070B1200196E19C542
:100CC000ECF51200000E9BECD4F012000501EF6968
:100CD0001200196E19041200196E19281200BBECCB
:100CE000C2F01200000E3D6E1200010E3D6E1200A9
:100CF000A6ECEAF0120000ECEBF01200000E12007D
:060D0000000E12001100BC
:10FD94000001010302020202030202030100000146
:10FDA400010101010101010101010101010101013F
:10FDB400010101010101010101010101010101012F
:10FDC400010101010101010101010101010101011F
:10FDD4000001010101010101010100010100000014
:10FDE400000000000000000000000000000001010D
:10FDF40001010103010101010101010100000000F1
:10FE040000000000010001010101010100010101E4
:10FE140001010101000101010101010001000000D3
:10FE240000000000000000000000000000010101CB
:10FE340001010101010101010000010100000000B4
:10FE440000000000010000010101000000010101A7
:10FE54000101010100010101010101010100000092
:10FE64000000000101000001010100000001010087
:10FE74000101010000010001010101010000000075
:10FE8400000000000000000000000001000000006D
:10FE9400000B4300FF0C4301FF0D4302FF0E43031D
:10FEA400FF0F4304FF104305FF114306FF124307EE
:10FEB400FF1542000A16420108194204091A4205B4
:10FEC400FF0341010102410000054103030741050D
:10FED40004E4FFD0FFBCFFA8FF94FF80FF6CFF5831
:10FEE400FF44FF424C5F56455253494F4E3D0B0A67
:10FEF40009080000060404000000010600000000D8
:10FF04000002068080EBEB000306807F40033C0484
:10FF140006038080800005068010000000060600AD
:10FF24007B2007FF07060500000000080000000012
:10FF340000000000000000000000000000000000BD
:10FF44000901000000E6DB018076010000000000EA
:10FF54000010DE01080100000000000000000000A5
:10FF640000000000000000000501000000B0DB01FB
:10FF7400CA73010000008A0A0080DD010601000046
:10FF84000058D701E03C01000000B40A0040DE0143
:10FF94000401F60C004CDA018E290100000050DD4A
:10FFA4000170DE010A020000005CA70184B50100B3
:10FFB4000000BCDC01000000020182D90106DB0163
:10FFC400E65F01000000720B00B0DD010101AACD63
:10FFD40001649601861101AA4101000000E0DD01DF
:10FFE4000302D60B00E68A01DCAB01DE0C00940BA5
:0BFFF40000B2BE01B44F01867D010089
:020000040001F9
:10000000000E0501856FFBEF87F005018551070D97
:10001000F350120FD5ECEBF01950236E246A000E4A
:10002000266E020E256E60ECDAF023C57AF524C543
:100030007BF505018551070DF350130FD5ECEBF05F
:100040001950236E246A000E266E020E256E60EC97
:10005000DAF0235005017A25846F000E836FF1EFEB
:1000600082F08551070DF350120FD5ECEBF0CC0E5A
:1000700005018525D96EDA6A050EDA22DF507A6F1E
:100080007B6B19507A1907E11A507B19D8A44BEFF2
:1000900080F04DEF80F05FEF80F08551070DF35059
:1000A000110FD5ECEBF01950400B0501726F855123
:1000B000040DF350080FBEECD1F06FEF80F08551C6
:1000C000070DF350110FD5ECEBF01950400B050163
:1000D000726F8551040DF3500A0FBEECD1F0300E53
:1000E00005018525D96EDA6A060EDA22020EDF6E68
:1000F000400E8525D96EDA6A060EDA22CC0E8525E9
:10010000E16EE26A050EE222DE50E65CD8B08BEFCB
:1001100080F08DEF80F073EF81F0CC0E8525D96EE5
:10012000DA6A050EDA228451DE5CD8B09AEF80F0EC
:100130009CEF80F09EEF80F0010E836F200E8525EE
:10014000D96EDA6A060EDA22DF50D8B4AAEF80F050
:10015000ACEF80F0E8EF80F0CC0E8525D96EDA6A3E
:10016000050EDA22200E8525E16EE26A060EE222F5
:10017000E7507B6FCC0E8525E16EE26A050EE22228
:10018000E7507B257C6FDE507C5DD8B0CAEF80F0F5
:10019000CCEF80F0D6EF80F0CC0E8525D96EDA6AF0
:1001A000050EDA22FF0EDF6E20EF81F0200E85258E
:1001B000D96EDA6A060EDA22DF507A6FCC0E852508
:1001C000D96EDA6A050EDA227A51DF2620EF81F045
:1001D000840E8525D96EDA6A070EDA22DF06840ED0
:1001E0008525D96EDA6A070EDA22DF50D8A4FBEF34
:1001F00080F0FDEF80F020EF81F0CC0E8525D96EE8
:10020000DA6A050EDA22DE28D8B409EF81F00BEFA6
:1002100081F012EF81F0CC0E8525D96EDA6A050ED9
:10022000DA22DF2A940E8525D96EDA6A070EDA22E1
:10023000840E8525E16EE26A070EE222DFC4E7F450
:10024000CC0E8525D96EDA6A050EDA22400E852598
:10025000E16EE26A060EE222DE50E65CD8B033EFD1
:1002600081F035EF81F043EF81F0400E8525D96EA6
:10027000DA6A060EDA22CC0E8525E16EE26A050EF8
:10028000E222DFC4E7F4CC0E8525D96EDA6A050ECA
:10029000DA228451DE5CD8A050EF81F052EF81F079
:1002A00059EF82F08351D8B458EF81F05AEF81F0C2
:1002B00059EF82F08551070DF350110FD5ECEBF09B
:1002C00019AC65EF81F068EF81F0010E69EF81F004
:1002D000000E0501726F8551040DF350090FBEEC3D
:1002E000D1F059EF82F0CC0E8525D96EDA6A050E71
:1002F000DA22400E8525E16EE26A060EE222DE5029
:10030000E65CD8B086EF81F088EF81F059EF82F09B
:10031000CC0E8525D96EDA6A050EDA22DE50845DB0
:10032000D8B095EF81F097EF81F099EF81F0010E51
:10033000836F200E8525D96EDA6A060EDA22DF5029
:10034000D8B4A5EF81F0A7EF81F0D7EF81F0CC0E04
:100350008525D96EDA6A050EDA22200E8525E16E32
:10036000E26A060EE222DE50E65CD8A0BAEF81F027
:10037000BCEF81F0C5EF81F0CC0E8525D96EDA6A2D
:10038000050EDA22DF6A0FEF82F0200E8525D96E86
:10039000DA6A060EDA22DF507A6FCC0E8525D96E26
:1003A000DA6A050EDA227A51DF5E0FEF82F0840EF0
:1003B0008525D96EDA6A070EDA22DF06840E8525D6
:1003C000D96EDA6A070EDA22DF50D8A4EAEF81F09C
:1003D000ECEF81F00FEF82F0CC0E8525D96EDA6A52
:1003E000050EDA22DF50D8B4F8EF81F0FAEF81F091
:1003F00001EF82F0CC0E8525D96EDA6A050EDA227D
:10040000DF06940E8525D96EDA6A070EDA22840E8D
:100410008525E16EE26A070EE222DFC4E7F4400EB2
:100420008525D96EDA6A060EDA22CC0E8525E16EB4
:10043000E26A050EE222DE50E65CD8B022EF82F0DE
:1004400024EF82F032EF82F0400E8525D96EDA6A11
:10045000060EDA22CC0E8525E16EE26A050EE22256
:10046000DFC4E7F4CC0E8525D96EDA6A050EDA22F0
:10047000DE50845DD8A03FEF82F041EF82F059EF6B
:1004800082F08351D8B447EF82F049EF82F059EF00
:1004900082F08551070DF350110FD5ECEBF0195098
:1004A000400B0501726F8551040DF350090FBEEC2E
:1004B000D1F0CC0E05018525D96EDA6A050EDA2257
:1004C000400E8525E16EE26A060EE222DE50E61855
:1004D000D8A46DEF82F06FEF82F09BEF88F0300EC2
:1004E0008525D96EDA6A060EDA22010EDF6E9AECE5
:1004F000E6F005018551040D000EF324D96E070EB8
:10050000F420DA6E19C5DEF41AC5DEF41BC5DEF47C
:100510001CC5DEF48551070DF350120FD5ECEBF03E
:10052000CC0E05018525D96EDA6A050EDA22DF5078
:100530007A6F7B6B19507A1907E11A507B19D8A48E
:10054000A4EF82F0A6EF82F0BFEF82F08551070D95
:10055000F350110FD5ECEBF019ACB1EF82F0B4EF22
:1005600082F0010EB5EF82F0000E0501726F855129
:10057000040DF350080FBEECD1F0D6EF82F0855198
:10058000070DF350110FD5ECEBF019ACCAEF82F068
:10059000CDEF82F0010ECEEF82F0000E0501726FFA
:1005A0008551040DF3500A0FBEECD1F005018551C1
:1005B0007A6F7B6B7C6BDE0E7A25606F030E7B217E
:1005C000616F000E7C21626FCC0E8525D96EDA6AD0
:1005D000050EDA22DF50636F000EE7ECE9F09BEFC7
:1005E00088F0300E8525D96EDA6A060EDA22DF50E1
:1005F0007A6F7B6B7B51000AD8B401EF83F09BEFDD
:1006000088F07A51000AD8B417EF88F0010AD8B4FC
:1006100017EF88F0030AD8B478EF80F0010AD8B455
:1006200031EF80F09BEF88F08551ECECEFF0300E6D
:1006300005018525D96EDA6A060EDA22020EDF6E12
:10064000740E8525D96EDA6A070EDA22DF6A740E17
:100650008525D96EDA6A070EDA22DF2A740E85251F
:10066000D96EDA6A070EDA22DE28D8A43AEF83F0D0
:100670003CEF83F097EF83F0300E8525D96EDA6A70
:10068000060EDA22010EDF6E9AECE6F005018551C6
:10069000040D000EF324D96E070EF420DA6E19C58E
:1006A000DEF41AC5DEF41BC5DEF41CC5DEF4400E14
:1006B0008525D96EDA6A060EDA22CC0E8525E16E22
:1006C000E26A050EE222DFC4E7F48551070DF3501C
:1006D000110FD5ECEBF019AC70EF83F073EF83F0F2
:1006E000010E74EF83F0000E0501726F8551040D49
:1006F000F350080FBEECD1F0050185517A6F7B6B8A
:100700007C6BDE0E7A25606F030E7B21616F000E1D
:100710007C21626FCC0E8525D96EDA6A050EDA224D
:10072000DF50636F000EE7ECE9F09BEF88F0855136
:10073000070DF350120FD5ECEBF019500501826F45
:10074000400E8525D96EDA6A060EDA228251DE184D
:10075000D8A4ADEF83F0AFEF83F016EF84F08551AE
:10076000ECECB6F00009D8B4B8EF83F0BAEF83F040
:100770009BEF88F0300E05018525D96EDA6A060EEA
:10078000DA22010EDF6E9AECE6F005018551040DC8
:10079000000EF324D96E070EF420DA6E19C5DEF4CC
:1007A0001AC5DEF41BC5DEF41CC5DEF4400E85253B
:1007B000D96EDA6A060EDA22CC0E8525E16EE26A7F
:1007C000050EE222DFC4E7F48551070DF350110F47
:1007D000D5ECEBF019ACEFEF83F0F2EF83F0010E04
:1007E000F3EF83F0000E0501726F8551040DF35095
:1007F000080FBEECD1F0050185517A6F7B6B7C6BE5
:10080000DE0E7A25606F030E7B21616F000E7C2166
:10081000626FCC0E8525D96EDA6A050EDA22DF50BA
:10082000636F000EE7ECE9F09BEF88F0855138EC40
:10083000A3F00009D8B41FEF84F021EF84F09BEF00
:1008400088F0300E05018525D96EDA6A060EDA22A7
:10085000010EDF6E9AECE6F005018551040D000EE5
:10086000F324D96E070EF420DA6E19C5DEF41AC52A
:10087000DEF41BC5DEF41CC5DEF4400E8525D96E02
:10088000DA6A060EDA22CC0E8525E16EE26A050EE2
:10089000E222DFC4E7F48551070DF350110FD5ECC8
:1008A000EBF01950400B0501726F8551040DF350A8
:1008B000080FBEECD1F0050185517A6F7B6B7C6B24
:1008C000DE0E7A25606F030E7B21616F000E7C21A6
:1008D000626FCC0E8525D96EDA6A050EDA22DF50FA
:1008E000636F000EE7ECE9F09BEF88F0300E050136
:1008F0008525D96EDA6A060EDA22DF507A6F7B6BB5
:100900007B51000AD8B487EF84F09BEF88F07A51CE
:10091000000AD8B417EF88F0010AD8B49BEF88F02A
:10092000030AD8B427EF83F0010AD8B414EF83F098
:100930009BEF88F08551070DF350130FD5ECEBF0CA
:10094000CC0E05018525D96EDA6A050EDA22DF5054
:100950007A6F7B6B19507A1907E11A507B19D8A46A
:10096000B4EF84F0B6EF84F0C6EF84F08551070D44
:10097000F350110FD5ECEBF01950400B0501726FDD
:100980008551040DF350080FBEECD1F005018551DF
:10099000070DF350140FD5ECEBF0CC0E05018525B7
:1009A000D96EDA6A050EDA22DF507A6F7B6B195046
:1009B0007A1907E11A507B19D8A4E1EF84F0E3EF2C
:1009C00084F0F3EF84F08551070DF350110FD5EC4F
:1009D000EBF01950400B0501726F8551040DF35077
:1009E000090FBEECD1F005018551070DF350150F2D
:1009F000D5ECEBF0CC0E05018525D96EDA6A050E33
:100A0000DA22DF507A6F7B6B19507A1907E11A509E
:100A10007B19D8A40EEF85F010EF85F020EF85F05C
:100A20008551070DF350110FD5ECEBF01950400B29
:100A30000501726F8551040DF3500A0FBEECD1F021
:100A400005018551070DF350160FD5ECEBF0CC0ED8
:100A500005018525D96EDA6A050EDA22DF507A6F34
:100A60007B6B19507A1907E11A507B19D8A43BEF18
:100A700085F03DEF85F04DEF85F08551070DF35082
:100A8000110FD5ECEBF01950400B0501726F855139
:100A9000040DF3500B0FBEECD1F0300E050185258F
:100AA000D96EDA6A060EDA22020EDF6E400E852556
:100AB000D96EDA6A060EDA22CC0E8525E16EE26A7C
:100AC000050EE222DE50E65CD8B069EF85F06BEFF0
:100AD00085F011EF86F0200E8525D96EDA6A060EB4
:100AE000DA22DF50D8B477EF85F079EF85F0C2EFE6
:100AF00085F0CC0E8525D96EDA6A050EDA22DF5034
:100B00007A6F7B6BCC0E8525D96EDA6A050EDA22F8
:100B1000DF507C6F7D6B200E8525D96EDA6A060E5C
:100B2000DA22DF507E6F7E517C27000E7D237A51C2
:100B30007C5D7D51800A7F6F7B51800A7F59D8B0E0
:100B4000A4EF85F0A6EF85F0B0EF85F0CC0E8525FB
:100B5000D96EDA6A050EDA22FF0EDF6EECEF85F051
:100B6000200E8525D96EDA6A060EDA22DF507A6FFA
:100B7000CC0E8525D96EDA6A050EDA227A51DF2687
:100B8000ECEF85F0840E8525D96EDA6A070EDA223D
:100B9000DF06840E8525D96EDA6A070EDA22DF5069
:100BA000D8A4D5EF85F0D7EF85F0ECEF85F0CC0E2B
:100BB0008525D96EDA6A050EDA22DF2A940E85259C
:100BC000D96EDA6A070EDA22840E8525E16EE26AB2
:100BD000070EE222DFC4E7F4CC0E8525D96EDA6A6F
:100BE000050EDA22400E8525E16EE26A060EE2224B
:100BF000DE50E65CD8B0FFEF85F001EF86F0BDEF88
:100C000086F0400E8525D96EDA6A060EDA22CC0E01
:100C10008525E16EE26A050EE222DFC4E7F4BDEF4E
:100C200086F0CC0E8525D96EDA6A050EDA22400EE2
:100C30008525E16EE26A060EE222DE50E65CD8B05F
:100C400024EF86F026EF86F0BDEF86F0200E852596
:100C5000D96EDA6A060EDA22DF50D8B432EF86F0A7
:100C600034EF86F07CEF86F0CC0E8525D96EDA6AFB
:100C7000050EDA22DF507A6F7B6B200E8525D96E48
:100C8000DA6A060EDA22DF507C6F7C517A5F000E42
:100C90007B5BCC0E8525D96EDA6A050EDA22DF5031
:100CA0007D6F7E6B7A517D5D7E51800A7F6F7B51B7
:100CB000800A7F59D8B05FEF86F061EF86F06AEF67
:100CC00086F0CC0E8525D96EDA6A050EDA22DF6A47
:100CD000A6EF86F0200E8525D96EDA6A060EDA2296
:100CE000DF507A6FCC0E8525D96EDA6A050EDA22CE
:100CF0007A51DF5EA6EF86F0840E8525D96EDA6A1A
:100D0000070EDA22DF06840E8525D96EDA6A070E11
:100D1000DA22DF50D8A48FEF86F091EF86F0A6EFAD
:100D200086F0CC0E8525D96EDA6A050EDA22DF064A
:100D3000940E8525D96EDA6A070EDA22840E85258F
:100D4000E16EE26A070EE222DFC4E7F4400E852579
:100D5000D96EDA6A060EDA22CC0E8525E16EE26AD9
:100D6000050EE222DE50E65CD8B0B9EF86F0BBEFAC
:100D700086F0BDEF86F001EF86F0CC0E8525D96EAA
:100D8000DA6A050EDA22400E8525E16EE26A060E69
:100D9000E222DE50E618D8A4D0EF86F0D2EF86F03B
:100DA0009BEF88F0300E8525D96EDA6A060EDA22BE
:100DB000010EDF6E9AECE6F005018551040D000E80
:100DC000F324D96E070EF420DA6E19C5DEF41AC5C5
:100DD000DEF41BC5DEF41CC5DEF48551070DF350AF
:100DE000130FD5ECEBF0CC0E05018525D96EDA6A30
:100DF000050EDA22DF507A6F7B6B19507A1907E102
:100E00001A507B19D8A407EF87F009EF87F020EF7D
:100E100087F08551070DF350110FD5ECEBF019ACAD
:100E200014EF87F017EF87F0010E18EF87F0000E30
:100E30000501726F8551040DF350080FBEECD1F01F
:100E400005018551070DF350140FD5ECEBF0CC0ED6
:100E500005018525D96EDA6A050EDA22DF507A6F30
:100E60007B6B19507A1907E11A507B19D8A43BEF14
:100E700087F03DEF87F054EF87F08551070DF35071
:100E8000110FD5ECEBF019AC48EF87F04BEF87F082
:100E9000010E4CEF87F0000E0501726F8551040DB5
:100EA000F350090FBEECD1F005018551070DF35049
:100EB000150FD5ECEBF0CC0E05018525D96EDA6A5D
:100EC000050EDA22DF507A6F7B6B19507A1907E131
:100ED0001A507B19D8A46FEF87F071EF87F088EF75
:100EE00087F08551070DF350110FD5ECEBF019ACDD
:100EF0007CEF87F07FEF87F0010E80EF87F0000E28
:100F00000501726F8551040DF3500A0FBEECD1F04C
:100F100005018551070DF350160FD5ECEBF0CC0E03
:100F200005018525D96EDA6A050EDA22DF507A6F5F
:100F30007B6B19507A1907E11A507B19D8A4A3EFDB
:100F400087F0A5EF87F0BCEF87F08551070DF350D0
:100F5000110FD5ECEBF019ACB0EF87F0B3EF87F0E1
:100F6000010EB4EF87F0000E0501726F8551040D7C
:100F7000F3500B0FBEECD1F0050185517A6F7B6BFE
:100F80007C6BDE0E7A25606F030E7B21616F000E95
:100F90007C21626FCC0E8525D96EDA6A050EDA22C5
:100FA000DF50636F000EE7ECE9F09BEF88F0300E46
:100FB00005018525D96EDA6A060EDA22DF507A6FCE
:100FC0007B6B7B51000AD8B4E8EF87F09BEF88F089
:100FD0007A51000AD8B417EF88F0010AD8B49BEF11
:100FE00088F0030AD8B456EF85F0010AD8B49AEF16
:100FF00084F09BEF88F08551070DF350100FD5EC6E
:10100000EBF01A50000AD8B408EF88F09BEF88F094
:101010001950020AD8B405EF80F0010AD8B476EF6F
:1010200084F0070AD8B4D7EF87F09BEF88F09BEFE6
:1010300088F075EF88F08551070DF350110FD5EC4E
:10104000EBF019A226EF88F028EF88F0B8EF88F0CF
:1010500005018551040D000EF324D96E070EF4200E
:10106000DA6EDEC47AF5DEC47BF5DEC47CF5DEC460
:101070007DF59AECE6F005017A51195C7E6F7B51A3
:101080001A587F6F7C511B58806F7D511C58816F9F
:10109000815180110BE1250E7E5DF40E7F59D8A0A1
:1010A00054EF88F056EF88F099EF88F0300E8525E0
:1010B000D96EDA6A060EDA22DF6AB8EF88F0855157
:1010C000070DF350110FD5ECEBF019AA6AEF88F079
:1010D0006DEF88F0010E6EEF88F0000E1D6E0501B9
:1010E0008551C4ECBFF0B8EF88F0300E05018525BE
:1010F000D96EDA6A060EDA22DF507A6F7B6B7B518B
:10110000000AD8B486EF88F0B8EF88F07A51000A68
:10111000D8B45FEF88F0010AD8B41BEF88F0030A57
:10112000D8B4B8EF88F0010AD8B499EF88F0B8EFD6
:1011300088F0B8EF88F005018551070DF350100FC6
:10114000D5ECEBF01A50000AD8B4A9EF88F0B8EF4C
:1011500088F01950020AD8B419EF88F0010AD8B4FF
:1011600075EF88F0070AD8B475EF88F0B8EF88F00B
:101170000501852B0F0E8565C0EF88F0C2EF88F062
:10118000FBEF87F012003850D8A4C9EF88F0CBEFFE
:1011900088F023EF8AF08EEF89F0B9C5D9F4BAC58B
:1011A000DAF4030EDF60D7EF88F0D9EF88F0E9EFCB
:1011B00088F0E8C56EF5E7C56FF5420E0501706F62
:1011C000010E716F010E726FAF0ED6ECEFF021EFD2
:1011D00089F0050120EE02F0B951D926BA51DA2280
:1011E000DF50E86F20EE03F0B951D926BA51DA2268
:1011F000DF50E76FFD0E606F030E616F000E626FD0
:10120000E8C563F5000EE7ECE9F0FC0E0501606F40
:10121000030E616F000E626FE7C563F5000EE7EC29
:10122000E9F0010E386E3BECC6F0E8C52EF5E7C5D7
:101230002FF5520E67ECEFF00601D44BD52BE4EC02
:10124000ECF0010E20EF8FF0A50E05016E6F610E20
:101250006F6F200E706FFF0E716F140E726F7F0E26
:10126000736F040E746FEF0E03EC05F021EF89F03D
:10127000480EF66E080EF76E000EF86E0800F5C404
:101280006EF5490EF66E080EF76E000EF86E080049
:10129000F5C46FF54A0EF66E080EF76E000EF86E86
:1012A0000800F5C470F54B0EF66E080EF76E000ED2
:1012B000F86E0800F5C471F54C0EF66E080EF76E68
:1012C000000EF86E0800F5C472F54D0EF66E080EAD
:1012D000F76E000EF86E0800F5C473F54E0EF66E4C
:1012E000080EF76E000EF86E0800F5C474F5E20EF5
:1012F00003EC05F021EF89F0000E05016E6F000E82
:101300006F6FA50E706F200E716F91ECE3F0050109
:10131000726FB60ED6ECEFF021EF89F0050120EEEA
:1013200001F0B951D926BA51DA22DF500701E46F32
:10133000E56BE551000AD8B4A0EF89F0B3EF89F06E
:10134000E4510D0AD8B47CEF89F01D0AD8B424EF1B
:1013500089F0010AD8B438EF89F0530AD8B4CDEF38
:1013600088F0B3EF89F0000E20EF8FF0E8C56EF53E
:10137000E7C56FF5A50E0501706F200E716F91EC3A
:10138000E3F00501726FB60ED6ECEFF021EF89F0B5
:10139000B9C5D9F4BAC5DAF4040EDF60D2EF89F02A
:1013A000D4EF89F0E4EF89F0E8C56EF5E7C56FF595
:1013B000760E0501706F010E716F010E726FAF0E28
:1013C000D6ECEFF021EF89F0050120EE02F0B951E3
:1013D000D926BA51DA22DF50D8A4F1EF89F0F3EF21
:1013E00089F040EF8AF020EE03F0B951D926BA51C6
:1013F000DA22DF50D8A4FFEF89F001EF8AF040EF46
:101400008AF020EE04F0B951D926BA51DA22DF5021
:10141000BF6F0C0EBF19D8A410EF8AF012EF8AF03C
:1014200015EF8AF0F68521EF89F00D0EBF19D8A4CB
:101430001CEF8AF01EEF8AF021EF8AF0F69521EF7B
:1014400089F040EF8AF0050120EE01F0B951D9266C
:10145000BA51DA22DF500701E46FE56BE551000A6B
:10146000D8B435EF8AF040EF8AF0E4510D0AD8B4D1
:10147000B6EF89F07B0AD8B4C8EF89F040EF8AF064
:10148000B9C5D9F4BAC5DAF4030EDF604AEF8AF0C1
:101490004CEF8AF04EEF8AF0B3EF89F0050120EEB1
:1014A00002F0B951D926BA51DA22DE50E819D8B47F
:1014B0005CEF8AF05EEF8AF060EF8AF0B3EF89F0BC
:1014C00020EE03F0B951D926BA51DA22E751DE18DD
:1014D000D8B46DEF8AF06FEF8AF0F4EF8EF0B3EFCF
:1014E00089F0B9C5D9F4BAC5DAF4040EDF607BEF30
:1014F0008AF07DEF8AF08DEF8AF0E8C56EF5E7C5DA
:101500006FF5730E0501706F010E716F010E726F32
:10151000AF0ED6ECEFF021EF89F0050120EE04F0DC
:10152000B951D926BA51DA22140EDF649AEF8AF043
:101530009CEF8AF0B5EF8AF0E8C56EF5E7C56FF568
:10154000090E706F6F0EAAECEFF0E8C56EF5E7C5F7
:101550006FF5730E0501706F010E716F090E726FDA
:10156000AF0ED6ECEFF021EF89F020EE04F0B95188
:10157000D926BA51DA22DF506FECC8F00501BB6FF3
:10158000E8C56EF5E7C56FF520EE04F0B951D92630
:10159000BA51DA22DF50706FBBC571F59B0E19ECA2
:1015A00005F0050120EE04F0B951D926BA51DA222E
:1015B000DF50D8A4DEEF8AF0E0EF8AF021EF89F067
:1015C000010EBAECE2F01D6E400E1E6EDB0E1F6EB9
:1015D000010E206E070EB4ECE9F021EF89F0E7C5AB
:1015E000E3F5E8C5E4F5BAECCEF00501E351E4110A
:1015F000D8B4FDEF8AF0FFEF8AF006EF8BF0E4C578
:101600002EF5E3C52FF5510E67ECEFF0FF00B9C5DD
:10161000D9F4BAC5DAF4050EDF6011EF8BF013EFE1
:101620008BF023EF8BF0E8C56EF5E7C56FF5870EFD
:101630000501706F010E716F010E726FAF0ED6EC67
:10164000EFF021EF89F0050120EE04F0B951D92621
:10165000BA51DA22DF50D8A430EF8BF032EF8BF0A2
:101660003FEF8BF0000E1D6E1C0E1E6E9A0E1F6E4D
:10167000010E206E040EB4ECE9F021EF89F020EEAB
:1016800004F0B951D926BA51DA22090EDF644BEFC2
:101690008BF04DEF8BF05CEF8BF0E8C56EF5E7C596
:1016A0006FF5870E706F010E716FFC0E726FAF0ECB
:1016B000D6ECEFF021EF89F020EE04F0B951D926F5
:1016C000BA51DA22DF500701E46FE56BD890E437B6
:1016D000E537FE0EE425E66FFF0EE521E76FD50E38
:1016E000E625F66EFE0EE721F76EF86A000EF82288
:1016F0000900F5C4E8F70900F5C4E9F7110EE82779
:10170000000EE923E8C7F6F4E9C7F7F4000EF86E17
:101710000900F5500900F5100900F510D8A493EF61
:101720008BF095EF8BF0A9EF8BF0E8C56EF5E7C570
:101730006FF5870E0501706F20EE04F0B951D926C0
:10174000BA51DA22DF50716F000E726FC70ED6ECFD
:10175000EFF0050120EE05F0B951D926BA51DA2291
:10176000DF50D8A4B6EF8BF0B8EF8BF0CBEF8BF057
:1017700020EE04F0B951D926BA51DA22DF501D6E9D
:101780001C0E1E6E9A0E1F6E010E206E040EB4EC1F
:10179000E9F021EF89F020EE04F0B951D926BA51D1
:1017A000DA22DF500701E46FE56BD890E437E537C4
:1017B000FE0EE425E66FFF0EE521E76FD50EE62568
:1017C000F66EFE0EE721F76EF86A000EF8220900A9
:1017D000F5C4E8F70900F5C4E9F7110EE827000E93
:1017E000E923E8C7F6F4E9C7F7F4000EF86E02D86B
:1017F0000FEF8CF00500FA6E0900F550FD6E090040
:10180000F550FE6E0900F550FF6EFA50050120EE0E
:1018100005F0B951D926BA51DA22DF5012001FC59E
:10182000BDF520C5BEF50501BD51BE11D8A41BEF05
:101830008CF01DEF8CF02CEF8CF0E8C56EF5E7C551
:101840006FF5870E706F010E716FFD0E726FAF0E28
:10185000D6ECEFF021EF89F0E8C56EF5E7C56FF53E
:1018600020EE04F0B951D926BA51DA22DF50706F58
:1018700020EE05F0B951D926BA51DA22DF50716F46
:1018800020EE01F0BD51D926BE51DA22DF50726F31
:10189000BDC5D9F4BEC5DAF4DF50736FC70E94EC42
:1018A000EFF021EF89F0B9C5D9F4BAC5DAF4040E26
:1018B000DF605DEF8CF05FEF8CF06FEF8CF0E8C5D0
:1018C0006EF5E7C56FF5780E0501706F010E716F4B
:1018D000010E726FAF0ED6ECEFF021EF89F005012B
:1018E00020EE04F0B951D926BA51DA22DF50D8A43B
:1018F0007CEF8CF07EEF8CF098EF8CF0E8C56EF505
:10190000E7C56FF5000E706F000E716F090E726FF4
:10191000AC0ED6ECEFF0010E1D6EDE0E1E6EC10E8B
:101920001F6E010E206E030EB4ECE9F021EF89F07A
:1019300020EE04F0B951D926BA51DA22090EDF643B
:10194000A4EF8CF0A6EF8CF0B5EF8CF0E8C56EF547
:10195000E7C56FF5780E706F010E716FFC0E726F38
:10196000AF0ED6ECEFF021EF89F020EE04F0B95184
:10197000D926BA51DA22DF500701E46FE56BD8901F
:10198000E437E537FE0EE425E66FFF0EE521E76F4D
:10199000D50EE625F66EFE0EE721F76EF86A000E0C
:1019A000F8220900F5C4E8F70900F5C4E9F70E0EBE
:1019B000E827000EE923E8C7F6F4E9C7F7F4000EBC
:1019C000F86E0900F5500900F5100900F510D8A4CB
:1019D000ECEF8CF0EEEF8CF032EF8DF0E8C56EF5A9
:1019E000E7C56FF5050120EE04F0B951D926BA51CB
:1019F000DA22DF50706F20EE04F0B951D926BA51C7
:101A0000DA22DF500701E46FE56BD890E437E53761
:101A1000FE0EE425E66FFF0EE521E76FD50EE62505
:101A2000F66EFE0EE721F76EF86A000EF822090046
:101A3000F5C4E8F70900F5C4E9F7E8C7F6F4E9C723
:101A4000F7F4000EF86E0800F5C471F5000E0501FC
:101A5000726F000E736F000E746FE70E03EC05F0EB
:101A600021EF89F0E8C56EF5E7C56FF5050120EEB9
:101A700004F0B951D926BA51DA22DF50706F20EE46
:101A800004F0B951D926BA51DA22DF500701E46FC8
:101A9000E56BD890E437E537FE0EE425E66FFF0EE0
:101AA000E521E76FD50EE625F66EFE0EE721F76E0F
:101AB000F86A000EF8220900F5C4E8F70900F5C439
:101AC000E9F7E8C7F6F4E9C7F7F4000EF86E080086
:101AD000F5C471F5050120EE04F0B951D926BA51CB
:101AE000DA22DF500701EA6FEB6BD890EA37EB3769
:101AF000FE0EEA25EC6FFF0EEB21ED6FD50EEC2507
:101B0000F66EFE0EED21F76EF86A000EF82209005F
:101B1000F5C4EEF70900F5C4EFF70E0EEE27000E40
:101B2000EF23EEC7F6F4EFC7F7F4000EF86E02D815
:101B3000A8EF8DF00500FA6E0900F550FD6E090062
:101B4000F550FE6E0900F550FF6EFA50010E1200BE
:101B50000501726F20EE04F0B951D926BA51DA228C
:101B6000DF500701F06FF16BD890F037F137FE0EC0
:101B7000F025F26FFF0EF121F36FD50EF225F66E10
:101B8000FE0EF321F76EF86A000EF8220900F5C484
:101B9000F4F70900F5C4F5F70E0EF427000EF5234F
:101BA000F4C7F6F4F5C7F7F4000EF86E02D8E7EFC5
:101BB0008DF00500FA6E0900F550FD6E0900F55034
:101BC000FE6E0900F550FF6EFA50020E120005017C
:101BD000736F20EE04F0B951D926BA51DA22DF50E2
:101BE0000701F66FF76BD890F637F737FE0EF6253C
:101BF000F86FFF0EF721F96FD50EF825F66EFE0E81
:101C0000F921F76EF86A000EF8220900F5C4FAF718
:101C10000900F5C4FBF70E0EFA27000EFB23FAC7E6
:101C2000F6F4FBC7F7F4000EF86E02D826EF8EF03C
:101C30000500FA6E0900F550FD6E0900F550FE6EC4
:101C40000900F550FF6EFA50030E12000501746F83
:101C5000E70E03EC05F021EF89F0B9C5D9F4BAC558
:101C6000DAF4040EDF6037EF8EF039EF8EF049EFD3
:101C70008EF0E8C56EF5E7C56FF5760E0501706F5D
:101C8000010E716F010E726FAF0ED6ECEFF021EF07
:101C900089F0050120EE04F0B951D926BA51DA22B3
:101CA000DF50BF6FE7C5E3F5E8C5E4F53804D8A415
:101CB0005CEF8EF05EEF8EF0BFEF8EF0BF51D8B4C8
:101CC00064EF8EF066EF8EF06EEF8EF0BF29D8A431
:101CD0006CEF8EF06EEF8EF0BFEF8EF0BF51D8B488
:101CE00074EF8EF076EF8EF07AEF8EF0510EBC6FBF
:101CF0007CEF8EF0500EBC6FE8C52EF5E7C52FF5D2
:101D0000BC5167ECEFF0E8C56EF5E7C56FF5760EF0
:101D10000501706F010E716F000E726FAF0ED6EC81
:101D2000EFF0000E0501E86FE8C5E7F5FD0E606F06
:101D3000030E616F000E626FE8C563F5000EE7ECFD
:101D4000E9F0FC0E0501606F030E616F000E626F1B
:101D5000E7C563F5000EE7ECE9F00501BF51D8B423
:101D6000B4EF8EF0B6EF8EF0B9EF8EF03868BBEFBF
:101D70008EF0000E386E010EF36F1FEF89F00C0E1F
:101D8000BF19D8A4C6EF8EF0C8EF8EF0D8EF8EF052
:101D9000F685E8C56EF5E7C56FF5760E706F010E36
:101DA000716F000E726FAF0ED6ECEFF021EF89F07D
:101DB0000D0EBF19D8A4DFEF8EF0E1EF8EF0B3EF78
:101DC00089F0F695E8C56EF5E7C56FF5760E706F8C
:101DD000010E716F000E726FAF0ED6ECEFF021EFB7
:101DE00089F0FF0021EF89F020EE01F0B951D926EA
:101DF000BA51DA22DF500701E46FE56BE551000AC2
:101E0000D8B405EF8FF0B3EF89F0E4514F0AD8B49E
:101E1000EFEF8AF0110AD8B4F1EF8EF02D0AD8B4A2
:101E200071EF8AF0050AD8B42DEF8EF00E0AD8B4FF
:101E300053EF8CF0FF0AD8B407EF8BF0B3EF89F0C3
:101E400012000501B26FF00E0501B225196E1A6A73
:101E5000FF0E1A22000E1C6E070E1B6E02ECDEF047
:101E600019501A10D8A437EF8FF039EF8FF057EFD1
:101E70008FF00501B251F00FB36FB3C523F5246A9B
:101E8000000E266E070E256E60ECDAF02350050179
:101E9000B36FAB51AC19D8B450EF8FF052EF8FF055
:101EA00057EF8FF0ABC5A8F5B3515AECDEF0050E35
:101EB0000501B219D8A45FEF8FF061EF8FF064EFE6
:101EC0008FF0AB515EEC06F0060E0501B219D8A4F6
:101ED0006CEF8FF06EEF8FF0D3EF90F0000EB36FDA
:101EE000AAEF90F0AB51D8B478EF8FF07AEF8FF083
:101EF000B7EF8FF0B3C5ADF5070EAD17010EAE6F9E
:101F0000000EAF6FAD2B88EF8FF0D890AE37AF37A4
:101F1000AD2F85EF8FF00501AE51AF11D8B493EF1F
:101F20008FF095EF8FF0B7EF8FF0B351040D020EE5
:101F3000F326000EF422950EF324F66EFE0EF42026
:101F4000F76EF86A000EF8220800F5C4ADF5010E30
:101F5000AE6FAD2BAEEF8FF0D890AE37AD2FACEFAC
:101F60008FF00501AE5104010113C9EF90F0B35198
:101F7000040D020EF326000EF422950EF324F66EE5
:101F8000FE0EF420F76EF86A000EF8220800F5C481
:101F9000ADF5010EAE6FAD2BD0EF8FF0D890AE3710
:101FA000AD2FCEEF8FF00501AE51FF0A04010117EE
:101FB000C9EF90F0AB51D8B4E0EF8FF0E2EF8FF0C3
:101FC0001FEF90F0B3C5ADF5070EAD17010EAE6F64
:101FD000000EAF6FAD2BF0EF8FF0D890AE37AF376C
:101FE000AD2FEDEF8FF00501AE51AF11D8B4FBEF7F
:101FF0008FF0FDEF8FF01FEF90F0B351040D020E44
:10200000F326000EF422950EF324F66EFE0EF42055
:10201000F76EF86A000EF8220800F5C4ADF5010E5F
:10202000AE6FAD2B16EF90F0D890AE37AD2F14EF0A
:1020300090F00501AE5104010913C9EF90F0B351BE
:10204000040D020EF326000EF422950EF324F66E14
:10205000FE0EF420F76EF86A000EF8220800F5C4B0
:10206000ADF5010EAE6FAD2B38EF90F0D890AE37D6
:10207000AD2F36EF90F00501AE51FF0A04010917AC
:10208000C9EF90F0AB51D8B448EF90F04AEF90F020
:1020900087EF90F0B3C5ADF5070EAD17010EAE6F2B
:1020A000000EAF6FAD2B58EF90F0D890AE37AF3732
:1020B000AD2F55EF90F00501AE51AF11D8B463EFDD
:1020C00090F065EF90F087EF90F0B351040D020EA1
:1020D000F326000EF422950EF324F66EFE0EF42085
:1020E000F76EF86A000EF8220800F5C4ADF5010E8F
:1020F000AE6FAD2B7EEF90F0D890AE37AD2F7CEF6A
:1021000090F00501AE5104011113C9EF90F0B351E5
:10211000040D020EF326000EF422950EF324F66E43
:10212000FE0EF420F76EF86A000EF8220800F5C4DF
:10213000ADF5010EAE6FAD2BA0EF90F0D890AE379D
:10214000AD2F9EEF90F00501AE51FF0A040111176B
:10215000C9EF90F0B351040D010EF326000EF422E6
:10216000950EF324F66EFE0EF420F76EF86A000E5C
:10217000F8220800F550410AD8B472EF8FF0030A34
:10218000D8B4DAEF8FF0010AD8B442EF90F0C9EF7B
:1021900090F00501B32B070EB365D1EF90F0D3EFAC
:1021A00090F0AAEF90F0070EB219D8A4DAEF90F0F1
:1021B000DCEF90F041EF92F0080EB36F18EF92F061
:1021C000AB51D8B4E6EF90F0E8EF90F025EF91F046
:1021D000B3C5ADF5070EAD17010EAE6F000EAF6FB4
:1021E000AD2BF6EF90F0D890AE37AF37AD2FF3EFC1
:1021F00090F00501AE51AF11D8B401EF91F003EFAB
:1022000091F025EF91F0B351040D020EF326000E6C
:10221000F422950EF324F66EFE0EF420F76EF86AA3
:10222000000EF8220800F5C4ADF5010EAE6FAD2B1F
:102230001CEF91F0D890AE37AD2F1AEF91F0050159
:10224000AE510401011337EF92F0B351040D020EA9
:10225000F326000EF422950EF324F66EFE0EF42003
:10226000F76EF86A000EF8220800F5C4ADF5010E0D
:10227000AE6FAD2B3EEF91F0D890AE37AD2F3CEF67
:1022800091F00501AE51FF0A0401011737EF92F0FA
:10229000AB51D8B44EEF91F050EF91F08DEF91F03B
:1022A000B3C5ADF5070EAD17010EAE6F000EAF6FE3
:1022B000AD2B5EEF91F0D890AE37AF37AD2F5BEF1F
:1022C00091F00501AE51AF11D8B469EF91F06BEF09
:1022D00091F08DEF91F0B351040D020EF326000E34
:1022E000F422950EF324F66EFE0EF420F76EF86AD3
:1022F000000EF8220800F5C4ADF5010EAE6FAD2B4F
:1023000084EF91F0D890AE37AD2F82EF91F00501B8
:10231000AE510401091337EF92F0B351040D020ED0
:10232000F326000EF422950EF324F66EFE0EF42032
:10233000F76EF86A000EF8220800F5C4ADF5010E3C
:10234000AE6FAD2BA6EF91F0D890AE37AD2FA4EFC6
:1023500091F00501AE51FF0A0401091737EF92F021
:10236000AB51D8B4B6EF91F0B8EF91F0F5EF91F032
:10237000B3C5ADF5070EAD17010EAE6F000EAF6F12
:10238000AD2BC6EF91F0D890AE37AF37AD2FC3EF7E
:1023900091F00501AE51AF11D8B4D1EF91F0D3EF68
:1023A00091F0F5EF91F0B351040D020EF326000EFB
:1023B000F422950EF324F66EFE0EF420F76EF86A02
:1023C000000EF8220800F5C4ADF5010EAE6FAD2B7E
:1023D000ECEF91F0D890AE37AD2FEAEF91F0050118
:1023E000AE510401111337EF92F0B351040D020EF8
:1023F000F326000EF422950EF324F66EFE0EF42062
:10240000F76EF86A000EF8220800F5C4ADF5010E6B
:10241000AE6FAD2B0EEF92F0D890AE37AD2F0CEF24
:1024200092F00501AE51FF0A0401111737EF92F047
:10243000B351040D010EF326000EF422950EF32481
:10244000F66EFE0EF420F76EF86A000EF822080011
:10245000F550410AD8B4E0EF90F0030AD8B448EF41
:1024600091F0010AD8B4B0EF91F037EF92F0050186
:10247000B32B0F0EB3653FEF92F041EF92F018EFE0
:1024800092F00F0EB26547EF92F049EF92F0C6EF6F
:1024900094F0F00EB225236E246AFF0E2422000E63
:1024A000266E070E256E60ECDAF023500501B36F3F
:1024B000F00EB225196E1A6AFF0E1A22000E1C6E5B
:1024C000070E1B6E02ECDEF0A5EF94F00501B25191
:1024D000AD6FAE6BB351070D120EF326000EF42252
:1024E000AD51F31807E1AE51F418D8A47AEF92F089
:1024F0007CEF92F0C6EF94F0B3C5FDF5ABBF83EF70
:1025000092F085EF92F08BEF92F0000EB16F010E1A
:10251000B06F8FEF92F0000EB16F020EB06FB0C5CA
:10252000FCF5C6EF94F0C6EF94F00501B251AD6F23
:10253000AE6BB351070D120EF326000EF422AD510F
:10254000F31807E1AE51F418D8A4A9EF92F0ABEF5D
:1025500092F0B8EF92F0020E1D6EB3512FECD7F04F
:10256000020E1D6E0501B35125ECD4F0C6EF94F0B8
:10257000B251AD6FAE6BB351070D130EF326000EC3
:10258000F422AD51F31807E1AE51F418D8A4CBEF03
:1025900092F0CDEF92F0DAEF92F0010E1D6EB35192
:1025A0002FECD7F0010E1D6E0501B35125ECD4F0D0
:1025B000C6EF94F0B251AD6FAE6BB351070D110E73
:1025C000F326000EF422AD51F31807E1AE51F418D2
:1025D000D8A4EDEF92F0EFEF92F0C6EF94F0ABAF2E
:1025E000F4EF92F0F6EF92F093EF92F0ACBFFBEFC6
:1025F00092F0FDEF92F093EF92F0B351070DF3508C
:10260000120FD5ECEBF019C523F51AC524F5000E11
:10261000266E020E256E60ECDAF023C5ADF524C5FA
:10262000AEF50501B351070DF350130FD5ECEBF0E8
:1026300019C523F51AC524F5000E266E020E256E67
:1026400060ECDAF023500501AD252B6EB35195EC0B
:1026500005F0C6EF94F00501B251AD6FAE6BB3510A
:10266000070D130EF326000EF422AD51F31807E107
:10267000AE51F418D8A43FEF93F041EF93F04EEF32
:1026800093F0020E1D6EB35198ECD7F0020E196E46
:102690000501B351A6ECE8F0C6EF94F0B251AD6F6E
:1026A000AE6BB351070D120EF326000EF422AD519E
:1026B000F31807E1AE51F418D8A461EF93F063EF7B
:1026C00093F070EF93F0010E1D6EB35198ECD7F0BC
:1026D000010E196E0501B351A6ECE8F0C6EF94F0B7
:1026E000B251AD6FAE6BB351070D110EF326000E54
:1026F000F422AD51F31807E1AE51F418D8A483EFDA
:1027000093F085EF93F0C6EF94F0ABAF8AEF93F0C0
:102710008CEF93F093EF92F0ACBF91EF93F093EFC7
:1027200093F093EF92F0B351070DF350120FD5ECE5
:10273000EBF019C523F51AC524F5000E266E020E1E
:10274000256E60ECDAF023C5ADF524C5AEF50501C4
:10275000B351070DF350130FD5ECEBF019C523F56A
:102760001AC524F5000E266E020E256E60ECDAF016
:1027700023500501AD25AF6FCC0EB325D96EDA6AB3
:10278000050EDA22AFC5DFF4C6EF94F00501B251B1
:10279000AD6FAE6BB351070D130EF326000EF4228E
:1027A000AD51F31807E1AE51F418D8A4DAEF93F065
:1027B000DCEF93F0E9EF93F0000E1D6EB35142ECA5
:1027C000D0F0000E1D6E0501B35105ECDFF0C6EF31
:1027D00094F0B251AD6FAE6BB351070D140EF326EA
:1027E000000EF422AD51F31807E1AE51F418D8A44D
:1027F000FCEF93F0FEEF93F00BEF94F0010E1D6EE3
:10280000B35142ECD0F0010E1D6E0501B35105EC41
:10281000DFF0C6EF94F0B251AD6FAE6BB351070D60
:10282000150EF326000EF422AD51F31807E1AE5158
:10283000F418D8A41EEF94F020EF94F02DEF94F04C
:10284000020E1D6EB35142ECD0F0020E1D6E05015A
:10285000B35105ECDFF0C6EF94F0B251AD6FAE6B43
:10286000B351070D160EF326000EF422AD51F318E6
:1028700007E1AE51F418D8A440EF94F042EF94F081
:102880004FEF94F0030E1D6EB35142ECD0F0030EE7
:102890001D6E0501B35105ECDFF0C6EF94F0B251A7
:1028A000AD6FAE6BB351070D110EF326000EF4227F
:1028B000AD51F31807E1AE51F418D8A462EF94F0CB
:1028C00064EF94F0C6EF94F0ABAF69EF94F06BEF68
:1028D00094F093EF92F0ACBF70EF94F072EF94F03D
:1028E00093EF92F0B351070DF350120FD5ECEBF0CC
:1028F00019C523F51AC524F5000E266E020E256EA5
:1029000060ECDAF023C5ADF524C5AEF50501B35191
:10291000070DF350130FD5ECEBF019C523F51AC5CD
:1029200024F5000E266E020E256E60ECDAF02350C0
:102930000501AD25AF6FCC0EB325D96EDA6A050E51
:10294000DA22AFC5DFF4C6EF94F00501B351070DED
:10295000F350100FD5ECEBF01A50000AD8B4B3EFD7
:1029600094F0C6EF94F01950020AD8B495EF92F0A3
:10297000010AD8B42BEF93F0070AD8B4C6EF93F04E
:10298000020AD8B466EF92F0C6EF94F012008EEF10
:1029900098F0B9C577F5BAC578F5030E796F000ED2
:1029A0007A6F25ECE5F0E806D8A4D9EF94F0DBEFD8
:1029B00094F0DEEF94F0010ED6EF98F0050120EED2
:1029C00002F0B951D926BA51DA22DE50E819D8A45A
:1029D000ECEF94F0EEEF94F000EF95F020EE03F0C2
:1029E000B951D926BA51DA22E751DE18D8A4FBEF43
:1029F00094F0FDEF94F000EF95F0F681DBEF94F0AA
:102A0000F691DBEF94F0B9C577F5BAC578F5040E09
:102A1000796F000E7A6F25ECE5F0E806D8A413EF85
:102A200095F015EF95F017EF95F0DBEF94F00501B9
:102A300020EE02F0B951D926BA51DA22DE50E81957
:102A4000D8A425EF95F027EF95F058EF95F020EEFC
:102A500003F0B951D926BA51DA22E751DE18D8A4C9
:102A600034EF95F036EF95F058EF95F020EE04F046
:102A7000B951D926BA51DA22080EDE18D8A443EF8C
:102A800095F045EF95F047EF95F0FDEF94F020EECF
:102A900004F0B951D926BA51DA22090EDE18D8A4A9
:102AA00054EF95F056EF95F059EF95F000EF95F053
:102AB000F691000ED6EF98F0B9C577F5BAC578F55E
:102AC000070E796F010E7A6F25ECE5F0E806D8A4C1
:102AD0006CEF95F06EEF95F07AEF95F0E8C56EF536
:102AE000E7C56FF5010E0501706F6F0EAAECEFF0F0
:102AF000DBEF94F00501F6B180EF95F082EF95F0F1
:102B000084EF95F0DBEF94F020EE03F0B951D92675
:102B1000BA51DA22DF50BB6F20EE02F0B951D9264C
:102B2000BA51DA22DF50BC6FBB51AC6FBCC5ADF5FA
:102B300020EE05F0B951D926BA51DA22DF50BE6F26
:102B400020EE04F0B951D926BA51DA22DF50BF6F16
:102B5000BE51AE6FBFC5AFF520EE06F0B951D92614
:102B6000BA51DA22DF50B06F20EE07F0B951D92602
:102B7000BA51DA22DF50B16F7FECD5F0DBEF94F081
:102B8000B9C577F5BAC578F5050E796F010E7A6F7C
:102B900025ECE5F0E806D8A4D0EF95F0D2EF95F05B
:102BA000D4EF95F0DBEF94F00501F6B1DAEF95F094
:102BB000DCEF95F0DEEF95F0DBEF94F020EE03F024
:102BC000B951D926BA51DA22DF50BB6F20EE02F09C
:102BD000B951D926BA51DA22DF50BC6FBB51806F90
:102BE000BCC581F520EE05F0B951D926BA51DA22DB
:102BF000DF50BE6F20EE04F0B951D926BA51DA2267
:102C0000DF50BF6FBE51826FBFC583F55EECE4F04D
:102C1000DBEF94F0B9C577F5BAC578F5060E796F94
:102C2000010E7A6F25ECE5F0E806D8A41AEF96F0CD
:102C30001CEF96F01EEF96F0DBEF94F00501F6B175
:102C400024EF96F026EF96F028EF96F0DBEF94F065
:102C500020EE03F0B951D926BA51DA22DF50BB6F0A
:102C600020EE02F0B951D926BA51DA22DF50BC6FFA
:102C7000BB51796FBCC57AF520EE05F0B951D92664
:102C8000BA51DA22DF50BE6F20EE04F0B951D926D6
:102C9000BA51DA22DF50BF6FBE517B6FBFC57CF5E2
:102CA00020EE06F0B951D926BA51DA22DF507D6FF5
:102CB000B8ECC7F0DBEF94F0B9C577F5BAC578F595
:102CC000030E796F000E7A6F25ECE5F0E806D8A4C4
:102CD0006CEF96F06EEF96F070EF96F0DBEF94F0FD
:102CE000050120EE02F0B951D926BA51DA22DE50A0
:102CF000E819D8A47EEF96F080EF96F0DBEF94F021
:102D000020EE03F0B951D926BA51DA22E751DE1884
:102D1000D8B48DEF96F08FEF96F000EF95F0DBEFE3
:102D200094F0B9C577F5BAC578F5030E796F010E41
:102D30007A6F25ECE5F0E806D8A4A1EF96F0A3EFB2
:102D400096F0A5EF96F0DBEF94F0050120EE02F08F
:102D5000B951D926BA51DA22DE50E819D8A4B3EF16
:102D600096F0B5EF96F0DBEF94F020EE03F0B9515A
:102D7000D926BA51DA22E751DE18D8B4C2EF96F05C
:102D8000C4EF96F0C6EF96F0DBEF94F0F6B1CBEF20
:102D900096F0CDEF96F0E6EF96F0E8C56EF5E7C554
:102DA0006FF5020E706F6F0EAAECEFF0E8C56EF5CE
:102DB000E7C56FF5550E0501706F040E716F020EB9
:102DC000726FAF0ED6ECEFF0DBEF94F090ECEEF01C
:102DD00059EF95F0B9C577F5BAC578F5030E796F57
:102DE000000E7A6F25ECE5F0E806D8A4FAEF96F02D
:102DF000FCEF96F0FEEF96F0DBEF94F0050120EE8D
:102E000002F0B951D926BA51DA22DE50E819D8A415
:102E10000CEF97F00EEF97F0DBEF94F020EE03F05D
:102E2000B951D926BA51DA22E751DE18D8B41BEFCE
:102E300097F01DEF97F01FEF97F0DBEF94F0FAECAF
:102E400005F0DBEF94F0B9C577F5BAC578F5030E58
:102E5000796F000E7A6F25ECE5F0E806D8A433EF21
:102E600097F035EF97F037EF97F0DBEF94F005012F
:102E700020EE02F0B951D926BA51DA22DE50E81913
:102E8000D8A445EF97F047EF97F0DBEF94F020EEF2
:102E900003F0B951D926BA51DA22E751DE18D8B475
:102EA00054EF97F056EF97F058EF97F0DBEF94F070
:102EB00085ECE7F0DBEF94F0B9C577F5BAC578F5A6
:102EC000030E796F000E7A6F25ECE5F0E806D8A4C2
:102ED0006CEF97F06EEF97F070EF97F0DBEF94F0F8
:102EE000050120EE02F0B951D926BA51DA22DE509E
:102EF000E819D8A47EEF97F080EF97F0DBEF94F01D
:102F000020EE03F0B951D926BA51DA22E751DE1882
:102F1000D8B48DEF97F08FEF97F091EF97F0DBEF4C
:102F200094F076ECECF0DBEF94F0B9C577F5BAC528
:102F300078F5040E796F000E7A6F25ECE5F0E8065F
:102F4000D8A4A5EF97F0A7EF97F0A9EF97F0DBEFE4
:102F500094F0050120EE02F0B951D926BA51DA22D7
:102F6000DE50E819D8A4B7EF97F0B9EF97F0DBEF90
:102F700094F020EE03F0B951D926BA51DA22E75184
:102F8000DE18D8B4C6EF97F0C8EF97F0CAEF97F005
:102F9000DBEF94F020EE04F0B951D926BA51DA22D1
:102FA000DF50A5ECE5F0DBEF94F0B9C577F5BAC5D5
:102FB00078F5050E796F000E7A6F25ECE5F0E806DE
:102FC000D8A4E5EF97F0E7EF97F0E9EF97F0DBEFA4
:102FD00094F0050120EE02F0B951D926BA51DA2257
:102FE000DE50E819D8A4F7EF97F0F9EF97F0DBEF90
:102FF00094F020EE03F0B951D926BA51DA22E75104
:10300000DE18D8B406EF98F008EF98F00AEF98F0C1
:10301000DBEF94F020EE05F0B951D926BA51DA224F
:10302000DF502F6E20EE04F0B951D926BA51DA22C2
:10303000DF502EECCEF0DBEF94F0B9C577F5BAC5D2
:1030400078F5080E796F010E7A6F25ECE5F0E80649
:10305000D8A42DEF98F02FEF98F031EF98F0DBEF38
:1030600094F0050120EE02F0B951D926BA51DA22C6
:10307000DE50E819D8A43FEF98F041EF98F0DBEF6D
:1030800094F020EE03F0B951D926BA51DA22E75173
:10309000DE18D8B44EEF98F050EF98F052EF98F059
:1030A000DBEF94F020EE03F0B951D926BA51DA22C1
:1030B000DF50BB6F20EE02F0B951D926BA51DA22A7
:1030C000DF50BC6FBB51AC6FBCC5ADF520EE05F059
:1030D000B951D926BA51DA22DF50BE6F20EE04F082
:1030E000B951D926BA51DA22DF50BF6FBE51AE6F47
:1030F000BFC5AFF520EE07F0B951D926BA51DA2293
:10310000DF50B06F20EE08F0B951D926BA51DA225B
:10311000DF50B16F7FECD5F0DBEF94F0050120EECE
:1031200001F0B951D926BA51DA22DF50BB6FBC6B1E
:10313000BC51000AD8B49FEF98F059EF95F0BB51FD
:10314000530AD8B4C9EF94F0070AD8B45CEF96F0EC
:10315000010AD8B491EF96F0030AD8B423EF97F0A0
:10316000010AD8B4EAEF96F00F0AD8B45CEF97F0F2
:103170002A0AD8B495EF97F0040AD8B403EF95F073
:10318000E30AD8B4C0EF95F0090AD8B4D5EF97F0A8
:103190002E0AD8B40AEF96F0600AD8B45CEF95F026
:1031A000270AD8B41DEF98F059EF95F012000501E9
:1031B0006F6F0F0E05016F65E0EF98F0E2EF98F08A
:1031C000E4EF98F0C3EF9BF06F51070DF350100F31
:1031D000D5ECEBF0195005016E6F5CEF99F06F5173
:1031E000070DF350110FD5ECEBF019A4FAEF98F09E
:1031F000FCEF98F015EF99F005016F51676F686B60
:10320000696BDE0E67251F6E030E6821206E000EAF
:103210006921216E000E33ECE8F01F50256E050188
:103220006F51A9ECDDF082EF9AF005016F51070DA7
:10323000F350110FD5ECEBF019BA21EF99F023EF11
:1032400099F02AEF99F0000E05016C6F020E6B6F7A
:103250002FEF99F0000E05016C6F010E6B6F6BC5BF
:103260006DF56DC525F56F51A9ECDDF005016F51C8
:10327000676F686B696BDE0E6725606F030E6821F0
:10328000616F000E6921626F6DC563F5000EE7EC9A
:10329000E9F082EF9AF06F51070DF350110FD5EC62
:1032A000EBF01950100B05016A6F6AC525F56F51D7
:1032B000A9ECDDF082EF9AF06E51010AD8B4EFEF7D
:1032C00098F0030AD8B44BEF99F0010AD8B44BEF49
:1032D00099F082EF9AF06E51D8B471EF99F073EFD4
:1032E00099F085EF99F0050E6E19D8B47AEF99F040
:1032F0007CEF99F085EF99F0060E6E19D8A483EF54
:1033000099F085EF99F0A6EF99F06F51040D020E38
:10331000F326000EF422950EF324F66EFE0EF42032
:10332000F76EF86A000EF8220800F5C467F5010E82
:10333000686F672B9EEF99F0D8906837672F9CEFE6
:1033400099F005016851C612A2EF9AF06F51040D71
:10335000020EF326000EF422950EF324F66EFE0EF6
:10336000F420F76EF86A000EF8220800F5C467F53D
:10337000010E686F672BBFEF99F0D8906837672F01
:10338000BDEF99F005016851FF0AC616A2EF9AF049
:103390006E51D8B4CEEF99F0D0EF99F0E2EF99F0FA
:1033A000050E6E19D8B4D7EF99F0D9EF99F0E2EF86
:1033B00099F0060E6E19D8A4E0EF99F0E2EF99F0BB
:1033C00003EF9AF06F51040D020EF326000EF42263
:1033D000950EF324F66EFE0EF420F76EF86A000EDA
:1033E000F8220800F5C467F5010E686F672BFBEF44
:1033F00099F0D8906837672FF9EF99F00501685177
:10340000C712A2EF9AF06F51040D020EF326000EC0
:10341000F422950EF324F66EFE0EF420F76EF86A91
:10342000000EF8220800F5C467F5010E686F672BDF
:103430001CEF9AF0D8906837672F1AEF9AF00501C1
:103440006851FF0AC716A2EF9AF06E51D8B42BEF5D
:103450009AF02DEF9AF03FEF9AF0050E6E19D8B45E
:1034600034EF9AF036EF9AF03FEF9AF0060E6E19AD
:10347000D8A43DEF9AF03FEF9AF060EF9AF06F51C9
:10348000040D020EF326000EF422950EF324F66EC0
:10349000FE0EF420F76EF86A000EF8220800F5C45C
:1034A00067F5010E686F672B58EF9AF0D890683770
:1034B000672F56EF9AF005016851C812A2EF9AF0F3
:1034C0006F51040D020EF326000EF422950EF32424
:1034D000F66EFE0EF420F76EF86A000EF822080071
:1034E000F5C467F5010E686F672B79EF9AF0D890F5
:1034F0006837672F77EF9AF005016851FF0AC81601
:10350000A2EF9AF005016F51040D010EF326000E93
:10351000F422950EF324F66EFE0EF420F76EF86A90
:10352000000EF8220800F550410AD8B46BEF99F06C
:10353000030AD8B4C8EF99F0010AD8B425EF9AF07D
:10354000A2EF9AF0050E6E19D8B4A9EF9AF0ABEF7E
:103550009AF01CEF9BF0060E6E19D8A4B2EF9AF009
:10356000B4EF9AF0A4EF9BF01CEF9BF06F51040DA9
:10357000020EF326000EF422950EF324F66EFE0ED4
:10358000F420F76EF86A000EF8220800F5C467F51B
:10359000010E686F672BCFEF9AF0D8906837672FCE
:1035A000CDEF9AF00501685104010013C3EF9BF0C1
:1035B0006F51040D020EF326000EF422950EF32433
:1035C000F66EFE0EF420F76EF86A000EF822080080
:1035D000F5C467F5010E686F672BF1EF9AF0D8908C
:1035E0006837672FEFEF9AF005016851040108135F
:1035F000C3EF9BF06F51040D020EF326000EF42270
:10360000950EF324F66EFE0EF420F76EF86A000EA7
:10361000F8220800F5C467F5010E686F672B13EFF9
:103620009BF0D8906837672F11EF9BF00501685128
:1036300004011013C3EF9BF06F51040D010EF3262C
:10364000000EF422950EF324F66EFE0EF420F76EB3
:10365000F86A000EF8220800F550410AD8B4B6EF17
:103660009AF0030AD8B4D8EF9AF0010AD8B4FAEF66
:103670009AF0C3EF9BF06F51040D020EF326000E7B
:10368000F422950EF324F66EFE0EF420F76EF86A1F
:10369000000EF8220800F5C467F5010E686F672B6D
:1036A00054EF9BF0D8906837672F52EF9BF00501DD
:1036B0006851FF0A04010017C3EF9BF06F51040D1E
:1036C000020EF326000EF422950EF324F66EFE0E83
:1036D000F420F76EF86A000EF8220800F5C467F5CA
:1036E000010E686F672B77EF9BF0D8906837672FD4
:1036F00075EF9BF005016851FF0A04010817C3EF3D
:103700009BF06F51040D020EF326000EF422950E6D
:10371000F324F66EFE0EF420F76EF86A000EF8221F
:103720000800F5C467F5010E686F672B9AEF9BF0F0
:10373000D8906837672F98EF9BF005016851FF0A12
:1037400004011017C3EF9BF06F51040D010EF32617
:10375000000EF422950EF324F66EFE0EF420F76EA2
:10376000F86A000EF8220800F550410AD8B43BEF81
:103770009BF0030AD8B45EEF9BF0010AD8B481EF46
:103780009BF0C3EF9BF012000301F3A1CAEF9BF083
:10379000CCEF9BF0CEEF9BF06FEF9EF00501FB515D
:1037A000070DF350100FD5ECEBF0050E19181A1099
:1037B000D8B4DDEF9BF0DFEF9BF0F0EF9BF005015D
:1037C000FB51070DF350100FD5ECEBF0060E191856
:1037D0001A10D8A4EEEF9BF0F0EF9BF014EF9EF0E0
:1037E0000501FA51D8B4F7EF9BF0F9EF9BF014EF15
:1037F0009EF0EBC385F5866B8551866F856B030163
:10380000EA5105018513FC51D8B409EF9CF00BEF88
:103810009CF014EF9CF0FD51FB19D8B412EF9CF012
:1038200014EF9CF0DDEF9DF0FB51070DF350100FEE
:10383000D5ECEBF0060E19181A10D8A422EF9CF064
:1038400024EF9CF013EF9DF00501FB51070DF350A1
:10385000150FD5ECEBF019C583F51AC584F50501F4
:103860008351846F836BFB51070DF350160FD5EC1A
:10387000EBF01950050183131A50841383C581F5A9
:1038800084C582F5FB51070DF350130FD5ECEBF017
:1038900019500501835F1A50845BFB51070DF350EB
:1038A000130FD5ECEBF01950050181271A50822334
:1038B000FB51070DF350140FD5ECEBF005018351CC
:1038C00019247F6F84511A20806FFB51070DF3502C
:1038D000140FD5ECEBF019500501815D7D6F1A5086
:1038E00082597E6F600EFB25D96EDA6A060EDA22E7
:1038F000DF50030B020AD8B480EF9CF082EF9CF0FB
:10390000C0EF9CF08151855D82518659D8A08BEF24
:103910009CF08DEF9CF0C0EF9CF0600EFB25D96E03
:10392000DA6A060EDA220601DFA499EF9CF09BEF1B
:103930009CF0B3EF9CF00501FB51070DF350110F04
:10394000D5ECEBF019ACA7EF9CF0AAEF9CF0010EC0
:10395000ABEF9CF0000E0501726FFB51040DF350AC
:10396000090FBEECD1F0600E0501FB25D96EDA6AB5
:10397000060EDA22DF50FC0B0209DF6E3CEF9DF0F1
:10398000600EFB25D96EDA6A060EDA22DF50030BD1
:10399000020AD8A4CEEF9CF0D0EF9CF03CEF9DF053
:1039A00085517D5D86517E59D8A0D9EF9CF0DBEF23
:1039B0009CF03CEF9DF0600EFB25D96EDA6A060E96
:1039C000DA220601DFA4E7EF9CF0E9EF9CF008EFB4
:1039D0009DF00501FB51070DF350110FD5ECEBF0F5
:1039E00019B6F5EF9CF0F7EF9CF008EF9DF005019C
:1039F000FB51070DF350110FD5ECEBF01950400BB4
:103A00000501726FFB51040DF350090FBEECD1F0AC
:103A1000600E0501FB25D96EDA6A060EDA22FC0E6D
:103A2000DF163CEF9DF085C57AF586C57BF5040E63
:103A300005017C6FD8907B337A337C2F1AEF9DF091
:103A40007AC585F57BC586F5FB51070DF350130F3D
:103A5000D5ECEBF019C583F51AC584F50501FB51CA
:103A6000070DF350140FD5ECEBF019500501835DF1
:103A70007F6F1A508459806F600EFB25D96EDA6A09
:103A8000060EDA22DF50030BE806D8B44AEF9DF0A9
:103A90004CEF9DF08AEF9DF08551835D86518459EE
:103AA000D8A055EF9DF057EF9DF08AEF9DF0600E86
:103AB000FB25D96EDA6A060EDA220601DFA463EF6F
:103AC0009DF065EF9DF07DEF9DF00501FB51070D29
:103AD000F350110FD5ECEBF019AC71EF9DF074EFD2
:103AE0009DF0010E75EF9DF0000E0501726FFB5108
:103AF000040DF350080FBEECD1F0600E0501FB255C
:103B0000D96EDA6A060EDA22DF50FC0B0109DF6E8D
:103B10000CEF9EF0600EFB25D96EDA6A060EDA22F3
:103B2000DF50030BE806D8A498EF9DF09AEF9DF0C4
:103B30000CEF9EF07F51855D80518659D8A0A3EF90
:103B40009DF0A5EF9DF00CEF9EF0600EFB25D96E69
:103B5000DA6A060EDA220601DFA4B1EF9DF0B3EFB8
:103B60009DF0D2EF9DF00501FB51070DF350110FB1
:103B7000D5ECEBF019B6BFEF9DF0C1EF9DF0D2EFA1
:103B80009DF00501FB51070DF350110FD5ECEBF043
:103B90001950400B0501726FFB51040DF350080FD3
:103BA000BEECD1F0600E0501FB25D96EDA6A060E77
:103BB000DA22FC0EDF160CEF9EF0E8C56EF5E7C5C5
:103BC0006FF5000E706FFB29716FFB29726F85C551
:103BD00073F58651746FFD0E03EC05F0020E0501BE
:103BE000FC19D8A4F6EF9DF0F8EF9DF009EF9EF0D8
:103BF00085C567F5FB51070DF350150F65ECEDF02A
:103C000005018651676FFB51070DF350160F65ECE8
:103C1000EDF0000E0501FC6F600EFB25D96EDA6A2F
:103C2000060EDA220601DF840501FB2B0F0EFB6571
:103C30001CEF9EF01EEF9EF020EF9EF0000EFB6F3B
:103C4000FB51070DF350100FD5ECEBF0050E1918D2
:103C50001A10D8B42EEF9EF030EF9EF041EF9EF098
:103C60000501FB51070DF350100FD5ECEBF0060EDC
:103C700019181A10D8A43FEF9EF041EF9EF06FEF95
:103C80009EF00501FB51040D020EF326000EF422F6
:103C9000950EF324F66EFE0EF420F76EF86A000E11
:103CA000F8220800F5C47AF5FB51040D010EF32645
:103CB000000EF422950EF324F66EFE0EF420F76E3D
:103CC000F86A000EF8220800F550080DF350F80FBE
:103CD0007A110301EC6FF381010E0501FA6F1200F6
:103CE000B9C5D9F4BAC5DAF4050EDF607AEF9EF0F3
:103CF0007CEF9EF07FEF9EF0000ED4EFA0F0050168
:103D000020EE03F0B951D926BA51DA22DF50BB6F49
:103D100020EE02F0B951D926BA51DA22DF50BC6F39
:103D2000BB51C16FBCC5C2F5A8EF9EF0000EC26FBB
:103D3000000EC16F140EBE6F010EBF6FFBEF9EF041
:103D4000000EC26F000EC16F000EBE6FFBEF9EF043
:103D500020EE01F0B951D926BA51DA22DF50BB6FFB
:103D6000BC6BBC51000AD8B4B8EF9EF07CEF9EF05B
:103D7000BB51900AD8B49AEF9EF0010AD8B4A4EFD0
:103D80009EF0090AD8B496EF9EF0010AD8B4A0EFCD
:103D90009EF0290AD8B49AEF9EF0010AD8B4A4EF95
:103DA0009EF0090AD8B496EF9EF0010AD8B4A0EFAD
:103DB0009EF0690AD8B49AEF9EF0010AD8B4A4EF35
:103DC0009EF0090AD8B496EF9EF0010AD8B4A0EF8D
:103DD0009EF0290AD8B49AEF9EF0010AD8B4A4EF55
:103DE0009EF0090AD8B496EF9EF0010AD8B4A0EF6D
:103DF0009EF07CEF9EF0C1C56CF5C2C56DF520EE5E
:103E000005F0B951D926BA51DA22DF50BB6F20EE46
:103E100004F0B951D926BA51DA22DF50BC6FBB5138
:103E20006E6FBCC56FF522ECDBF00501C36FC329D3
:103E3000D8A41DEF9FF01FEF9FF021EF9FF07CEFC4
:103E40009EF0C351D7ECC9F0050120EE01F0B95145
:103E5000D926BA51DA22DF50C06FC0B132EF9FF0DD
:103E600034EF9FF0E7EF9FF0010ECA6F400ECA25B6
:103E7000D96EDA6A070EDA22DF50CB6FCB51D8B495
:103E800044EF9FF046EF9FF0DBEF9FF0CB517F0BAD
:103E9000C86F590EC8614FEF9FF051EF9FF0DBEFF5
:103EA0009FF0070EC819D8A458EF9FF05AEF9FF063
:103EB0005CEF9FF0D0EFA0F0080EC86162EF9FF0BA
:103EC00064EF9FF069EF9FF0CB5170ECE2F0DBEF15
:103ED0009FF0F80EC825236E246AFF0E2422000EE0
:103EE000266E050E256E60ECDAF023500501C76FD3
:103EF000F80EC825196E1A6AFF0E1A22000E1C6EE3
:103F0000050E1B6E02ECDEF019500501C96FBBEF08
:103F10009FF00501C751070DF350110FD5ECEBF0E1
:103F200019AE95EF9FF097EF9FF099EF9FF075EC2A
:103F300006F00501C951D8A4A0EF9FF0A2EF9FF0B1
:103F4000A3EF9FF0CB2B040EC919D8A4AAEF9FF0C2
:103F5000ACEF9FF0AEEF9FF0020ECB5FCB5170EC59
:103F6000E2F072EC06F0DBEF9FF00501CB5170EC54
:103F7000E2F0DBEF9FF0C751070DF350100FD5ECC7
:103F8000EBF01A50000AD8B4C8EF9FF0DBEF9FF0B7
:103F90001950010AD8B489EF9FF0030AD8B499EFF9
:103FA0009FF0010AD8B499EF9FF0070AD8B4B5EF93
:103FB0009FF0DBEF9FF00501CA2B130ECA65E3EFFC
:103FC0009FF0E5EF9FF036EF9FF0D0EFA0F053C7E2
:103FD000C4F5130ECA6F000EC56FC4C5CBF5010E34
:103FE000CA65F5EF9FF0F7EF9FF004EFA0F03F0EEA
:103FF000CA25D96EDA6A070EDA22DF50C46FC451BF
:10400000800BC66F07EFA0F0C551800BC66FCB5178
:10401000D8B40DEFA0F00FEFA0F0C6EFA0F0C5519F
:10402000D8A415EFA0F017EFA0F019EFA0F0CBC5C2
:10403000C5F5CB9F590ECB6120EFA0F022EFA0F089
:10404000C6EFA0F0070ECB19D8A429EFA0F02BEFF4
:10405000A0F02DEFA0F0D0EFA0F0080ECB6133EF71
:10406000A0F035EFA0F044EFA0F0CB05D8B43BEFC3
:10407000A0F03DEFA0F044EFA0F0C651CB13CB5120
:1040800070ECE2F0C6EFA0F0F80ECB25236E246AA8
:10409000FF0E2422000E266E050E256E60ECDAF06F
:1040A00023500501C76FF80ECB25196E1A6AFF0E53
:1040B0001A22000E1C6E050E1B6E02ECDEF019506B
:1040C0000501C96FA6EFA0F00501C751070DF35018
:1040D000110FD5ECEBF019AE70EFA0F072EFA0F07D
:1040E00074EFA0F075EC06F0030E0501C919D8A411
:1040F0007CEFA0F07EEFA0F07FEFA0F0CB070501F2
:10410000C951D8A486EFA0F088EFA0F08AEFA0F004
:10411000020ECB27040EC919D8A491EFA0F093EF9B
:10412000A0F095EFA0F0030ECB5FC651CB13CB519F
:1041300070ECE2F072EC06F0C6EFA0F00501C6519B
:10414000CB13CB5170ECE2F09AEFA0F0C751070D02
:10415000F350100FD5ECEBF01A50000AD8B4B3EFBF
:10416000A0F0C6EFA0F01950010AD8B464EFA0F097
:10417000030AD8B47FEFA0F0010AD8B47FEFA0F013
:10418000070AD8B49EEFA0F0C6EFA0F00501CA0759
:10419000CA51D8A4CEEFA0F0D0EFA0F0EBEF9FF083
:1041A0000601FA4BFB2B010E12003804D8A4DBEFFA
:1041B000A0F0DDEFA0F02CEFA1F09AECE6F0060104
:1041C0008851195C0501736F060189511A58050160
:1041D000746F06018A511B580501756F06018B51DA
:1041E0001C580501766F76510DE1B50E735DC40E56
:1041F0007459040E7559D8A000EFA1F002EFA1F098
:104200002CEFA1F0F6A507EFA1F009EFA1F018EF50
:10421000A1F0E8C56EF5E7C56FF5F2C570F5CCC63F
:1042200071F5000E726FAB0ED6ECEFF00501F22BBC
:104230009AECE6F019C588F61AC589F61BC58AF608
:104240001CC58BF60601CC51D8B429EFA1F02BEF99
:10425000A1F02CEFA1F0CC070501F451F619D8B468
:1042600034EFA1F036EFA1F043EFA1F0F90E606F4B
:10427000030E616F000E626FF6C563F5000EE7EC8A
:10428000E9F0F6C5F4F50501F5513818D8B44BEF4F
:10429000A1F04DEFA1F06AEFA1F03828D8B453EFA8
:1042A000A1F055EFA1F05DEFA1F03804D8A45BEFC9
:1042B000A1F05DEFA1F068EFA1F0FB0E606F030EBF
:1042C000616F000E626F38C563F5000EE7ECE9F030
:1042D00038C5F5F59AECE6F006018451195C050144
:1042E000736F060185511A580501746F06018651D6
:1042F0001B580501756F060187511C580501766F23
:10430000765175110BE1250E735DF40E7459D8A02A
:104310008CEFA1F08EEFA1F028EFA3F09AECE6F07D
:1043200019C584F61AC585F61BC586F61CC587F621
:104330000601D04BD12BD051D111D8A4A2EFA1F0BE
:10434000A4EFA1F028EFA3F0CE4BCF2B28EFA3F0E2
:10435000CEA4ADEFA1F0AFEFA1F0BBEFA1F09AECCE
:10436000E6F019C5DCF51AC5DDF51BC5DEF51CC583
:10437000DFF537EFA3F09AECE6F00501DC51195CAC
:10438000736FDD511A58746FDE511B58756FDF5112
:104390001C58766F76510DE1910E735DD00E7459F5
:1043A000030E7559D8A0D7EFA1F0D9EFA1F037EFE0
:1043B000A3F0FD0E386EF369E4ECECF037EFA3F0F8
:1043C000CEA4E5EFA1F0E7EFA1F0AFEFA1F0000E72
:1043D000386E0501F3699AECE6F019C5DCF51AC5EB
:1043E000DDF51BC5DEF51CC5DFF5E8C52EF5E7C517
:1043F0002FF5500E67ECEFF0E4ECECF0AFEFA1F02E
:10440000CEA405EFA2F007EFA2F08BEFA2F09AEC9A
:10441000E6F00501DC51195C736FDD511A58746FB9
:10442000DE511B58756FDF511C58766F7651751130
:104430000BE16B0E735D180E7459D8A022EFA2F039
:1044400024EFA2F05CEFA2F09AECE6F00501DC515B
:10445000195C736FDD511A58746FDE511B58756FFC
:10446000DF511C58766F76510BE1480E735DE80EF4
:104470007459010E7559D8B040EFA2F042EFA2F086
:104480005CEFA2F0F3C538F53804D8A44AEFA2F0E7
:104490004CEFA2F05AEFA2F0E3C5E7F5E4C5E8F56A
:1044A000E8C52EF5E7C52FF5520E67ECEFF00601D3
:1044B000D44BD52BE4ECECF09AECE6F00501DC51A2
:1044C000195C736FDD511A58746FDE511B58756F8C
:1044D000DF511C58766F76510DE1910E735DD00E51
:1044E0007459030E7559D8A078EFA2F07AEFA2F0B4
:1044F0007DEFA2F03868E4ECECF09AECE6F019C538
:10450000DCF51AC5DDF51BC5DEF51CC5DFF5000EB3
:10451000376E37EFA3F0010E376E37EFA3F0CEA45E
:1045200094EFA2F096EFA2F08BEFA2F03750D8B440
:104530009CEFA2F09EEFA2F0EEEFA2F09AECE6F074
:104540000501DC51195C736FDD511A58746FDE512F
:104550001B58756FDF511C58766F765175110BE142
:104560006B0E735D180E7459D8A0B9EFA2F0BBEFB3
:10457000A2F0EEEFA2F09AECE6F00501DC51195C36
:10458000736FDD511A58746FDE511B58756FDF5110
:104590001C58766F76510BE1480E735DE80E745926
:1045A000010E7559D8B0D7EFA2F0D9EFA2F0EEEF17
:1045B000A2F0E7C5E3F5E8C5E4F5000EE86FE8C54D
:1045C000E7F5000E386E010EF36FE4C52EF5E3C576
:1045D0002FF5500E67ECEFF0E4ECECF03750D8B468
:1045E000F4EFA2F0F6EFA2F07DEFA2F09AECE6F085
:1045F0000501DC51195C736FDD511A58746FDE517F
:104600001B58756FDF511C58766F76510DE1900E77
:10461000735DD00E7459030E7559D8A012EFA3F034
:1046200014EFA3F07DEFA2F0E7C5E3F5E8C5E4F5EC
:10463000000EE86FE8C5E7F53868010EF36FE4C5D2
:104640002EF5E3C52FF5510E67ECEFF07BEFA2F0EE
:104650003850000AD8B400EFA2F0FD0AD8B4E0EF59
:10466000A1F0020AD8B4A8EFA1F08FEFA2F01200D7
:104670002E6ECC0E2E24D96EDA6A050EDA22DF50A9
:104680000501606F616B400E2E24D96EDA6A060E4A
:10469000DA22DF50626F636B030E6227000E632322
:1046A0006051625D6351800A646F6151800A645990
:1046B000D8A05DEFA3F05FEFA3F0B4EFA3F0400E3E
:1046C0002E24D96EDA6A060EDA22DF50606FFD0EF4
:1046D0006025616F626BFF0E6223CC0E2E24D96EB3
:1046E000DA6A050EDA22DF50636F646B6151635D35
:1046F0006451800A656F6251800A6559D8A083EFC2
:10470000A3F085EFA3F0B4EFA3F02E50020D000E3E
:10471000F324D96E060EF420DA6E010EDBBE9DEF97
:10472000A3F0010EDB5007E1040EDE5CD8B09BEF76
:10473000A3F09DEFA3F0B4EFA3F02E50020D000EF6
:10474000F324D96E060EF420DA6E010EDBAEB2EF62
:10475000A3F0FD0EDE5CFF0EDE58D8B0B2EFA3F082
:10476000B4EFA3F097EFA5F02E50070DF350120F02
:10477000D5ECEBF019C560F51AC561F52E50070DA3
:10478000F350130FD5ECEBF019500501605DD8A084
:10479000CCEFA3F0CFEFA3F0010ED0EFA3F0000E0B
:1047A0002B6E2B50D8A4D7EFA3F0D9EFA3F0B9EF1D
:1047B000A4F02E50020D000EF324D96E060EF42044
:1047C000DA6EDEC423F5DDC424F5000E266E1E0E5F
:1047D000256E60ECDAF023C560F524C561F52E5036
:1047E000070DF350130FD5ECEBF0195005016025C0
:1047F000626F000E6121636FCC0E2E24D96EDA6ACF
:10480000050EDA22DF50646F656B6251645D65519D
:10481000800A666F6351800A6659D8B012EFA4F01F
:1048200014EFA4F08FEFA4F02E50070DF350140FE7
:10483000D5ECEBF019C51DF51AC51EF52E50020D6D
:10484000000EF324D96E060EF420DA6EDEC460F595
:10485000DDC461F50501601F611F604B612B60C500
:104860001FF561C520F56FEC05F01DC523F51EC5CC
:1048700024F5000E266E640E256E60ECDAF02E50E4
:10488000020D000EF324D96E060EF420DA6E23C555
:10489000DEF424C5DDF42E50070DF350130FD5ECD4
:1048A000EBF019500501606F616B2E50070DF3504E
:1048B000130FD5ECEBF0195005016027000E6123B2
:1048C000CC0E2E24D96EDA6A050EDA22DF50626F22
:1048D0006251605F000E615B2E50020D000EF324EA
:1048E000D96E060EF420DA6EDEC423F5DDC424F59D
:1048F000000E266E1E0E256E60ECDAF023500501C8
:10490000605D2C6E245061592D6ECC0E2E24D96E14
:10491000DA6A050EDA222CC5DFF494EFA5F02E50EA
:10492000020D000EF324D96E060EF420DA6E030E8B
:10493000DE26000EDD222E50020D000EF324D96E6D
:10494000060EF420DA6EDEC423F5DDC424F5000E75
:10495000266E1E0E256E60ECDAF0010E2326CC0EBC
:104960002E24D96EDA6A050EDA222350DF5E94EF28
:10497000A5F0CC0E2E24D96EDA6A050EDA22DF50AD
:10498000606F616B2E50070DF350130FD5ECEBF0F9
:1049900019C562F51AC563F52E50020D000EF324F9
:1049A000D96E060EF420DA6EDEC423F5DDC424F5DC
:1049B000000E266E1E0E256E60ECDAF02350050107
:1049C000625D646F2450D8A02428656B655F6051D8
:1049D000645D6551800A666F6151800A6659D8B07E
:1049E000F4EFA4F0F6EFA4F06CEFA5F02E50070D55
:1049F000F350140FD5ECEBF019C51DF51AC51EF5D3
:104A00002E50020D000EF324D96E060EF420DA6E3D
:104A1000DEC460F5DDC461F50501601F611F604BF8
:104A2000612B60C51FF561C520F56FEC05F01DC554
:104A300023F51EC524F5000E266E640E256E60EC6F
:104A4000DAF02E50020D000EF324D96E060EF4207B
:104A5000DA6E23C5DEF424C5DDF42E50070DF350C5
:104A6000130FD5ECEBF019500501606F616B2E5000
:104A7000070DF350130FD5ECEBF01950050160272B
:104A8000000E61232E50020D000EF324D96E060E87
:104A9000F420DA6EDEC423F5DDC424F5000E266EA4
:104AA0001E0E256E60ECDAF0235005016025626F62
:104AB00024506121636FCC0E2E24D96EDA6A050E64
:104AC000DA22DF50646F6451625D2C6E6351D8A0AE
:104AD00063052D6E85EFA4F02E50020D000EF32419
:104AE000D96E060EF420DA6E030EDE26000EDD22ED
:104AF0002E50020D000EF324D96E060EF420DA6E4D
:104B0000DEC423F5DDC424F5000E266E1E0E256ED0
:104B100060ECDAF0010E2326CC0E2E24D96EDA6A70
:104B2000050EDA222350DF26000E98EFA5F0010EC5
:104B300012002D6EF80E2D24236E246AFF0E2422FF
:104B4000000E266E040E256E60ECDAF02350436EE4
:104B50000F0E4364AEEFA5F0B0EFA5F0B3EFA5F0F4
:104B6000FF0ED9EFA7F02D50F80F030B2E6E435018
:104B7000070DF350110FD5ECEBF019502B6E2B50A5
:104B8000080B2C6EB4EFA7F0D40E4324D96EDA6A6A
:104B9000070EDA22DF50D8A4D0EFA5F0D3EFA5F0AE
:104BA000010ED4EFA5F0000ED9EFA7F02C50D8B429
:104BB000DCEFA5F0DEEFA5F0B0EFA5F0D40E4324B6
:104BC000D96EDA6A070EDA22DF50D8B4EAEFA5F020
:104BD000EDEFA5F0010EEEEFA5F0000ED9EFA7F076
:104BE0002E50000AD8B4C4EFA5F0010AD8B4D6EF0D
:104BF000A5F0B0EFA5F043500501606F616B626BEB
:104C0000DE0E60251F6E030E6121206E000E6221F4
:104C1000216E000E33ECE8F0020E1F182010D8A40D
:104C200014EFA6F017EFA6F0010E18EFA6F0000E95
:104C3000D9EFA7F02E50000AD8B4FBEFA5F0B0EFE3
:104C4000A5F04350070DF350120FD5ECEBF0CC0E4E
:104C50004324D96EDA6A050EDA22DE501918D8B468
:104C600034EFA6F037EFA6F0010E38EFA6F0000EF5
:104C7000D9EFA7F04350070DF350130FD5ECEBF02D
:104C8000CC0E4324D96EDA6A050EDA22DE501918EA
