:040000001CEF01F000
:0400080004EF04F00D
:040018000CEF04F0F5
:100208000800F55012007FB2FED77F9E7F9C7F804A
:100218007FB0FED70000735012007F8E7F9C7F84D2
:100228007F88550E7E6EAA0E7E6E7F827F941200A6
:1002380000EE60F0400EEE6AE806FDE100EE01F027
:10024800170EEE6AE806FDE1000164EF02F0186E91
:1002580018C0F5FF0C00C40E7F6E550E7E6EAA0EF8
:100268007E6E7F8200007FB2FED77F941200000E60
:100278000D6E3F0E0D6401D008D00D50600FD96E81
:10028800DA6AFF0EDF6E0D2AF4D7000E0F6E000E2D
:100298000E6E1200186E0F0120B7FDD7800E216F69
:1002A800080E226F000E236F040E246F1850D8B466
:1002B80002D0248101D0249120871200186E18C022
:1002C80073FF7F9E7F9C7F84550E7E6EAA0E7E6E86
:1002D8007F827FB2FED7B7ACFED7B79C7F9407EC7E
:1002E80001F01818D8B41200EAD7000E786E800E04
:1002F8006F6E6EAEFED7000E726E9E0E0E01446FCC
:10030800030E456F200E706E000EE06F080EE16F51
:10031800F30EE56F000EE26F070EE36FF869EB0E60
:10032800F96FFA69F80EFB6F010E466F9E0E446F67
:10033800030E456F000E7E6F000E6F6E1200080EE2
:100348000E6001D012000FC0F6FF0EC0F7FF11ECCF
:1003580001F0000E0D6E3F0E0D6401D009D00D5056
:10036800600FD96EDA6ADF50F56E0D000D2AF3D7EB
:10037800010EF65E000EF75A000EF85A840E7F6ED4
:10038800550E7E6EAA0E7E6E7F8200007FB2FED76B
:100398007F941200000E1D6E1BAE06D01A6C1B1E39
:1003A800D8B01B2A010E1D6E19AE06D0186C191E86
:1003B800D8B0192A010E1D1A000E1F6E000E1E6EEF
:1003C8001A501B10D8B41CD0010E1C6E04D0D89043
:1003D8001A361B361C2A1BAEFAD7D8901E361F3683
:1003E8001A50185C1B501958D8A005D01A50185E1E
:1003F8001B50195A1E80D8901B321A321C2EEDD76A
:100408001D50D8B404D01E6C1F1ED8B01F2A1EC0A1
:1004180018F01FC019F012001E6E0FC018F0C00EA1
:10042800181618500EC019F01A6A19C01AF0196A6D
:100438001912000E1A12F6CF1BF0C00E1B161B5015
:10044800F7CF1CF01D6A1CC01DF01C6A1C12000EA0
:100458001D1219501C1804E11A501D18D8B425D0C3
:10046800F6CF0CF0F7CF0BF0A3EC01F00C50C00B5B
:100478000F6E0BC00EF0000E0D6E3F0E0D6401D016
:1004880010D00F500D24F66E0EC0F7FF800E7F6E51
:100498000D50600FD96EDA6A04EC01F0DF6E0D2A98
:1004A800ECD70CC0F6FF0BC0F7FFF6CF18F03F0EE5
:1004B80018161850600FD96EDA6A1EC0DFFF1200D6
:1004C800100E236E030E0E01436F000E0F015D6FB9
:1004D800000E5C6F939E939C92847468756807EC19
:1004E80001F00009D8B480A402D000EF04F0400E57
:1004F800236E9B8C23C018F0196A000E1B6E040E25
:100508001A6ECEEC01F018040E01436F000E156E42
:100518001C0E146E939C939E8A8C8A8E79EC01F043
:100528003BEC01F0000E046E000E036E0400609EAA
:1005380060AEFED765500F0B0A6E64A0FFD0125054
:100548001F0BF86E11C0F7FF10C0F6FFF7CF75FF4D
:10055800F6CF74FF14A60AD00A50206E216A226AC8
:1005680020501026215011222250122212C020F0B1
:10057800F00E2016D8A44FD064A220D0000E096E29
:10058800800E7F6E260E0924D96EDA6A0F0EDA22E3
:1005980004EC01F0DF6EF62AF650D8A404D0F72A4E
:1005A800F750D8B4F82A092A080E0964E9D7080EC2
:1005B8000F01256F010E4EEC01F02DD0070EF764E8
:1005C8002AD014A203D011EC01F025D0000E096E38
:1005D8001ED0660E0924D96EDA6A0F0EDA22DF50B1
:1005E80010EC02F0660E0924D96EDA6A0F0EDA22D0
:1005F800DF50206E20500326000E0422F62AF65003
:10060800D8A404D0F72AF750D8B4F82A092A0A50EF
:10061800095CD8A0DED71250F00B300AD8A440D01D
:1006280064A21CD0000E096EC00E7F6E260E09242F
:10063800D96EDA6A0F0EDA2204EC01F0DF6EF62AC0
:10064800F650D8B4F72A092A080E0964EDD7080E1F
:100658000F01256F010E4EEC01F022D0000E096E3D
:100668001BD00400660E0924D96EDA6A0F0EDA224E
:10067800DF502BEC01F0660E0924D96EDA6A0F0EF2
:10068800DA22DF50206E20500326000E0422F62ABC
:10069800F650D8B4F72A092A0A50095CD8A0E1D73D
:1006A8001250F00BF00AD8A43DD064A21AD0000E64
:1006B800096E260E0924D96EDA6A0F0EDA2207ECC3
:1006C80001F0DF6E742A7450D8B4752A092A080E0E
:1006D8000964EFD7080E0F01256F010E4EEC01F0EB
:1006E80021D0000E096E1AD0660E0924D96EDA6A76
:1006F8000F0EDA22DF5062EC01F0660E0924D96E83
:10070800DA6A0F0EDA22DF50206E20500326000E20
:100718000422742A7450D8B4752A092A0A50095C2C
:10072800D8A0E2D764A214A801D7010E0F01266F42
:10073800010E256F000E4EEC01F0F8D6A3EC01F087
:10074800100E056E066A660E016E0F0E026E000E22
:10075800096E0FD001C0D9FF02C0DAFF05C0E1FF62
:1007680006C0E2FFDFCFE7FF054A062A014A022A50
:10077800092A0A50095CD8A0EDD71504D8A408D0D6
:1007880074687568000E62EC01F08A9C8A9EFF000E
:10079800020E1518D8A404D0000E046E000E036EC5
:1007A800030E1518D8A414D003501624206E045034
:1007B8001720216E20502110D8A402D0010E01D09C
:1007C800000E0F01266F010E256F000E4EEC01F092
:1007D800040E1518D8A4AAD6020E0F01266F010E12
:1007E800256F000E4EEC01F0A1D6424C5F564552E3
:0707F80053494F4E3D030180
:040800000EEF04F003
:0408080099EF43F031
:1008180058EF43F071EF57F0A56120FF147F040BE8
:100828000F010008000000000000010F0000000098
:080838001400480800005303FE
:100848004D494F2020202000000E0101DB6F43EFAF
:100858000BF00101DB51070DF350120FD0EC5FF0E4
:1008680000018D51976F986B000E9A6F020E996F69
:1008780079EC54F097C0D0F198C0D1F10101DB5167
:10088800070DF350130FD0EC5FF000018D51976FF7
:10089800986B000E9A6F020E996F79EC54F0000174
:1008A80097510101D025DA6F000ED96F51D2DB5173
:1008B800070DF350120FD0EC5FF0300E0101DB256D
:1008C800D96EDA6A010EDA22DF50D06FD16B0001DF
:1008D8008D510101D0191BE100018E510101D1197F
:1008E800D8A415D0DB51070DF350110FD0EC5FF0F1
:1008F80000018DAD02D0010E01D0000EA86F0101DC
:10090800DB51040DF350080F62EC4CF014D0DB51AE
:10091800070DF350110FD0EC5FF000018DAD02D040
:10092800010E01D0000EA86F0101DB51040DF35038
:100938000A0F62EC4CF0100E0101DB25D96EDA6A61
:10094800010EDA22020EDF6EDB51010FD96EDA6A70
:10095800300EDB25E16EE26A010EE222DE50E65C33
:10096800D8B0B4D0300EDB25D96EDA6A010EDA229F
:10097800DA51DE5CD8B002D0010ED96F000EDB254B
:10098800D96EDA6A010EDA22DF50D8B435D0300ECB
:10099800DB25D96EDA6A010EDA22000EDB25E16E5C
:1009A800E26A010EE222E750D16F300EDB25E16EDC
:1009B800E26A010EE222E750D125D26FDE50D25D05
:1009C800D8B009D0300EDB25D96EDA6A010EDA22EA
:1009D800FF0EDF6E3FD0000EDB25D96EDA6A010EFE
:1009E800DA22DF50D06F300EDB25D96EDA6A010EBD
:1009F800DA22D051DF262ED0640EDB25D96EDA6AD2
:100A0800020EDA22DF06640EDB25D96EDA6A020EE0
:100A1800DA22DF50D8A41ED0300EDB25D96EDA6A70
:100A2800010EDA22DE28D8B407D0300EDB25D96EC5
:100A3800DA6A010EDA22DF2A740EDB25D96EDA6A49
:100A4800020EDA22640EDB25E16EE26A020EE22271
:100A5800DFCFE7FF300EDB25D96EDA6A010EDA2226
:100A6800DB51010FE16EE26ADE50E65CD8B00CD0D3
:100A7800DB51010FD96EDA6A300EDB25E16EE26ACE
:100A8800010EE222DFCFE7FF300EDB25D96EDA6AEE
:100A9800010EDA22DA51DE5CD8A0CDD0D951D8B413
:100AA800CAD0DB51070DF350110FD0EC5FF00001F5
:100AB8008DBD02D0010E01D0000EA86F0101DB51DF
:100AC800040DF350090F62EC4CF0B5D0300EDB2565
:100AD800D96EDA6A010EDA22DB51010FE16EE26AA1
:100AE800DE50E65CD8B0A7D0300EDB25D96EDA6AC6
:100AF800010EDA22DE50DA5DD8B002D0010ED96FCD
:100B0800000EDB25D96EDA6A010EDA22DF50D8B47E
:100B180029D0300EDB25D96EDA6A010EDA22000EF2
:100B2800DB25E16EE26A010EE222DE50E65CD8A027
:100B380008D0300EDB25D96EDA6A010EDA22DF6AB8
:100B48003FD0000EDB25D96EDA6A010EDA22DF50BB
:100B5800D06F300EDB25D96EDA6A010EDA22D05159
:100B6800DF5E2ED0640EDB25D96EDA6A020EDA2239
:100B7800DF06640EDB25D96EDA6A020EDA22DF5050
:100B8800D8A41ED0300EDB25D96EDA6A010EDA221F
:100B9800DF50D8B407D0300EDB25D96EDA6A010EE3
:100BA800DA22DF06740EDB25D96EDA6A020EDA2243
:100BB800640EDB25E16EE26A020EE222DFCFE7FF78
:100BC800DB51010FD96EDA6A300EDB25E16EE26A7D
:100BD800010EE222DE50E65CD8B00CD0DB51010FEA
:100BE800D96EDA6A300EDB25E16EE26A010EE22286
:100BF800DFCFE7FF300EDB25D96EDA6A010EDA2285
:100C0800DE50DA5DD8A017D0D951D8B414D0DB5152
:100C1800070DF350110FD0EC5FF000018DAD02D03D
:100C2800010E01D0000EA86F0101DB51040DF35035
:100C3800090F62EC4CF0300E0101DB25D96EDA6A3F
:100C4800010EDA22DB51010FE16EE26ADE50E6188E
:100C5800D8A4C8EF0BF0100EDB25D96EDA6A010EA6
:100C6800DA22010EDF6E43EC5CF00101DB51040D6A
:100C7800880EF324D96E030EF420DA6E00018DC0BD
:100C8800DEFF8EC0DEFF8FC0DEFF90C0DEFF0101F9
:100C9800DB51070DF350120FD0EC5FF0300E01015D
:100CA800DB25D96EDA6A010EDA22DF50D06FD16BFC
:100CB80000018D510101D0191BE100018E51010184
:100CC800D119D8A415D0DB51070DF350110FD0EC72
:100CD8005FF000018DBD02D0010E01D0000EA86F9B
:100CE8000101DB51040DF350080F62EC4CF014D0F5
:100CF800DB51070DF350110FD0EC5FF000018DBDF3
:100D080002D0010E01D0000EA86F0101DB51040DC5
:100D1800F3500A0F62EC4CF0DE0E0101DB25D06FB8
:100D2800D16B030ED123D0C1A4F0D1C1A5F000012D
:100D3800A66B300E0101DB25D96EDA6A010EDA22C4
:100D4800DF500001A76F000EBFEC5DF0C8EF0BF09D
:100D5800100EDB25D96EDA6A010EDA22DF50D06F69
:100D6800D16BD151000AD8A4C8EF0BF0D051000ABA
:100D7800D8B4C8EF0BF0010AD8B4C8EF0BF0030AD7
:100D8800D8B4E2D5010AD8B492D5C8EF0BF0DB513C
:100D980012EC62F0100E0101DB25D96EDA6A010E41
:100DA800DA22020EDF6E540EDB25D96EDA6A020EE5
:100DB800DA22DF6A540EDB25D96EDA6A020EDA22ED
:100DC800DF2A540EDB25D96EDA6A020EDA22DE2813
:100DD800D8A459D0100EDB25D96EDA6A010EDA22B2
:100DE800010EDF6E43EC5CF00101DB51040D880E4F
:100DF800F324D96E030EF420DA6E00018DC0DEFFF5
:100E08008EC0DEFF8FC0DEFF90C0DEFF0101DB5128
:100E1800010FD96EDA6A300EDB25E16EE26A010E47
:100E2800E222DFCFE7FFDB51070DF350110FD0ECC3
:100E38005FF000018DBD02D0010E01D0000EA86F39
:100E48000101DB51040DF350080F62EC4CF0DE0E8B
:100E58000101DB25D06FD16B030ED123D0C1A4F0E3
:100E6800D1C1A5F00001A66B300E0101DB25D96EBA
:100E7800DA6A010EDA22DF500001A76F000EBFEC1C
:100E88005DF0C8EF0BF0DB51070DF350120FD0ECFB
:100E98005FF000018D510101D86FDB51010FD96E50
:100EA800DA6AD851DE18D8A461D0DB51DAEC2CF01C
:100EB8000009D8B4C8EF0BF0100E0101DB25D96E7C
:100EC800DA6A010EDA22010EDF6E43EC5CF00101F2
:100ED800DB51040D880EF324D96E030EF420DA6E6C
:100EE80000018DC0DEFF8EC0DEFF8FC0DEFF90C028
:100EF800DEFF0101DB51010FD96EDA6A300EDB2506
:100F0800E16EE26A010EE222DFCFE7FFDB51070D57
:100F1800F350110FD0EC5FF000018DBD02D0010E2F
:100F280001D0000EA86F0101DB51040DF350080F2A
:100F380062EC4CF0DE0E0101DB25D06FD16B030EA5
:100F4800D123D0C1A4F0D1C1A5F00001A66B300E09
:100F58000101DB25D96EDA6A010EDA22DF500001C1
:100F6800A76F000EBFEC5DF0C8EF0BF0DB5115EC7E
:100F780017F00009D8B4C8EF0BF0100E0101DB25FB
:100F8800D96EDA6A010EDA22010EDF6E43EC5CF0EC
:100F98000101DB51040D880EF324D96E030EF420F1
:100FA800DA6E00018DC0DEFF8EC0DEFF8FC0DEFF6F
:100FB80090C0DEFF0101DB51010FD96EDA6A300EF5
:100FC800DB25E16EE26A010EE222DFCFE7FFDB51AB
:100FD800070DF350110FD0EC5FF000018DAD02D07A
:100FE800010E01D0000EA86F0101DB51040DF35072
:100FF800080F62EC4CF0DE0E0101DB25D06FD16BDF
:10100800030ED123D0C1A4F0D1C1A5F00001A66B75
:10101800300E0101DB25D96EDA6A010EDA22DF50C3
:101028000001A76F000EBFEC5DF0AED3100E0101FA
:10103800DB25D96EDA6A010EDA22DF50D06FD16B68
:10104800D151000AD8A4A0D3D051000AD8B49CD357
:10105800010AD8B499D3030AD8B4ACD6010AD8B4D3
:1010680096D692D3DB51070DF350130FD0EC5FF0F7
:10107800300E0101DB25D96EDA6A010EDA22DF5063
:10108800D06FD16B00018D510101D0191AE1000117
:101098008E510101D119D8A414D0DB51070DF3509A
:1010A800110FD0EC5FF000018DAD02D0010E01D020
:1010B800000EA86F0101DB51040DF350080F62EC1C
:1010C8004CF00101DB51070DF350140FD0EC5FF029
:1010D800300E0101DB25D96EDA6A010EDA22DF5003
:1010E800D06FD16B00018D510101D0191AE10001B7
:1010F8008E510101D119D8A414D0DB51070DF3503A
:10110800110FD0EC5FF000018DAD02D0010E01D0BF
:10111800000EA86F0101DB51040DF350090F62ECBA
:101128004CF00101DB51070DF350150FD0EC5FF0C7
:10113800300E0101DB25D96EDA6A010EDA22DF50A2
:10114800D06FD16B00018D510101D0191AE1000156
:101158008E510101D119D8A414D0DB51070DF350D9
:10116800110FD0EC5FF000018DAD02D0010E01D05F
:10117800000EA86F0101DB51040DF3500A0F62EC59
:101188004CF00101DB51070DF350160FD0EC5FF066
:10119800300E0101DB25D96EDA6A010EDA22DF5042
:1011A800D06FD16B00018D510101D0191AE10001F6
:1011B8008E510101D119D8A414D0DB51070DF35079
:1011C800110FD0EC5FF000018DAD02D0010E01D0FF
:1011D800000EA86F0101DB51040DF3500B0F62ECF8
:1011E8004CF0100E0101DB25D96EDA6A010EDA2205
:1011F800020EDF6EDB51010FD96EDA6A300EDB2585
:10120800E16EE26A010EE222DE50E65CD8B08BD0D5
:10121800000EDB25D96EDA6A010EDA22DF50D8B467
:1012280042D0300EDB25D96EDA6A010EDA22DF50A1
:10123800D06FD16B300EDB25D96EDA6A010EDA2257
:10124800DF50D26FD36B000EDB25D96EDA6A010E40
:10125800DA22DF50D46FD451D227000ED323D051D5
:10126800D25DD351800AD56FD151800AD559D8B0F3
:1012780009D0300EDB25D96EDA6A010EDA22FF0EAC
:10128800DF6E36D0000EDB25D96EDA6A010EDA225F
:10129800DF50D06F300EDB25D96EDA6A010EDA2204
:1012A800D051DF2625D0640EDB25D96EDA6A020E0E
:1012B800DA22DF06640EDB25D96EDA6A020EDA223C
:1012C800DF50D8A415D0300EDB25D96EDA6A010EAE
:1012D800DA22DF2A740EDB25D96EDA6A020EDA22E8
:1012E800640EDB25E16EE26A020EE222DFCFE7FF41
:1012F800300EDB25D96EDA6A010EDA22DB51010FD6
:10130800E16EE26ADE50E65CD8B098D0DB51010F9E
:10131800D96EDA6A300EDB25E16EE26A010EE2224E
:10132800DFCFE7FF8BD0300EDB25D96EDA6A010EEE
:10133800DA22DB51010FE16EE26ADE50E65CD8B0DA
:101348007DD0000EDB25D96EDA6A010EDA22DF5075
:10135800D8B441D0300EDB25D96EDA6A010EDA2214
:10136800DF50D06FD16B000EDB25D96EDA6A010E23
:10137800DA22DF50D26FD251D05F000ED15B300E2F
:10138800DB25D96EDA6A010EDA22DF50D36FD46B0F
:10139800D051D35DD451800AD56FD151800AD55927
:1013A800D8B008D0300EDB25D96EDA6A010EDA2201
:1013B800DF6A36D0000EDB25D96EDA6A010EDA2232
:1013C800DF50D06F300EDB25D96EDA6A010EDA22D3
:1013D800D051DF5E25D0640EDB25D96EDA6A020EA5
:1013E800DA22DF06640EDB25D96EDA6A020EDA220B
:1013F800DF50D8A415D0300EDB25D96EDA6A010E7D
:10140800DA22DF06740EDB25D96EDA6A020EDA22DA
:10141800640EDB25E16EE26A020EE222DFCFE7FF0F
:10142800DB51010FD96EDA6A300EDB25E16EE26A14
:10143800010EE222DE50E65CD8A068D7300EDB252C
:10144800D96EDA6A010EDA22DB51010FE16EE26A27
:10145800DE50E618D8A498D1100EDB25D96EDA6ACA
:10146800010EDA22010EDF6E43EC5CF00101DB5164
:10147800040D880EF324D96E030EF420DA6E0001F1
:101488008DC0DEFF8EC0DEFF8FC0DEFF90C0DEFFA6
:101498000101DB51070DF350130FD0EC5FF0300E54
:1014A8000101DB25D96EDA6A010EDA22DF50D06F2E
:1014B800D16B00018D510101D0191AE100018E5143
:1014C8000101D119D8A414D0DB51070DF350110F25
:1014D800D0EC5FF000018DBD02D0010E01D0000EEE
:1014E800A86F0101DB51040DF350080F62EC4CF0BA
:1014F8000101DB51070DF350140FD0EC5FF0300EF3
:101508000101DB25D96EDA6A010EDA22DF50D06FCD
:10151800D16B00018D510101D0191AE100018E51E2
:101528000101D119D8A414D0DB51070DF350110FC4
:10153800D0EC5FF000018DBD02D0010E01D0000E8D
:10154800A86F0101DB51040DF350090F62EC4CF058
:101558000101DB51070DF350150FD0EC5FF0300E91
:101568000101DB25D96EDA6A010EDA22DF50D06F6D
:10157800D16B00018D510101D0191AE100018E5182
:101588000101D119D8A414D0DB51070DF350110F64
:10159800D0EC5FF000018DBD02D0010E01D0000E2D
:1015A800A86F0101DB51040DF3500A0F62EC4CF0F7
:1015B8000101DB51070DF350160FD0EC5FF0300E30
:1015C8000101DB25D96EDA6A010EDA22DF50D06F0D
:1015D800D16B00018D510101D0191AE100018E5122
:1015E8000101D119D8A414D0DB51070DF350110F04
:1015F800D0EC5FF000018DBD02D0010E01D0000ECD
:10160800A86F0101DB51040DF3500B0F62EC4CF095
:10161800DE0E0101DB25D06FD16B030ED123D0C1C3
:10162800A4F0D1C1A5F00001A66B300E0101DB25A5
:10163800D96EDA6A010EDA22DF500001A76F000EB8
:10164800BFEC5DF0A1D0100E0101DB25D96EDA6A7E
:10165800010EDA22DF50D06FD16BD151000AD8A425
:1016680093D0D051000AD8B48FD0010AD8B48CD006
:10167800030AD8B4BFD5010AD8B4F4D485D0DB5155
:10168800070DF350100FD0EC5FF000018E51000AE7
:10169800D8A47AD08D51020AD8B42DEF04F0010AEB
:1016A800D8B4C4D4070AD8B4CED76ED0DB51070D4E
:1016B800F350110FD0EC5FF000018DA37BD0010136
:1016C800DB51040D880EF324D96E030EF420DA6E74
:1016D800DECFD0F1DECFD1F1DECFD2F1DECFD3F144
:1016E80043EC5CF00101D05100018D5D0101D46F24
:1016F800D15100018E590101D56FD25100018F5986
:101708000101D66FD351000190590101D76FD7510C
:10171800D61106E1250ED45DF40ED559D8A04AD0CD
:10172800100EDB25D96EDA6A010EDA22DF6A42D0A2
:10173800DB51070DF350110FD0EC5FF000018DBBAA
:1017480002D0010E01D0000E916F0101DB51BCECFB
:1017580037F030D0100E0101DB25D96EDA6A010EA0
:10176800DA22DF50D06FD16BD151000AD8A422D031
:10177800D051000AD8B4DCD7010AD8B497D7030AE5
:10178800D8B418D0010A16D00101DB51070DF35067
:10179800100FD0EC5FF000018E51000AD8A40AD0D7
:1017A8008D51020AD8B4D6D7010AD8B4D3D7070ABC
:1017B800D8B4D0D70101DB2B0F0EDB6560D7120040
:1017C8000001C451D8B4BCD02AD1FDC1D9FFFEC193
:1017D800DAFF030EDF600FD0B5C0C6F1B4C0C7F1A1
:1017E800420E0101C86F010EC96F010ECA6FAF0E1C
:1017F80045EC61F03CD0010120EE02F0FD51D92604
:10180800FE51DA22DF500001B56F010120EE03F02E
:10181800FD51D926FE51DA22DF500001B46FFD0ECA
:10182800A46F030EA56F000EA66FB5C0A7F0000E3B
:10183800BFEC5DF0FC0E0001A46F030EA56F000E57
:10184800A66FB4C0A7F0000EBFEC5DF0010E00015A
:10185800C46FACEC3FF0B5C0A7F0B4C0A8F0520E0E
:1018680015EC61F00101964B972BB4EC60F0010E7A
:101878001200A50E0101C66F610EC76F200EC86F5A
:10188800FF0EC96F140ECA6F7F0ECB6F040ECC6F9C
:10189800EF0E2DEC61F0EBD7480EF66E080EF76EE2
:1018A800000EF86E0800F5CFC6F1490EF66E080E68
:1018B800F76E000EF86E0800F5CFC7F14A0EF66E07
:1018C800080EF76E000EF86E0800F5CFC8F14B0E43
:1018D800F66E080EF76E000EF86E0800F5CFC9F127
:1018E8004C0EF66E080EF76E000EF86E0800F5CF77
:1018F800CAF14D0EF66E080EF76E000EF86E08006F
:10190800F5CFCBF14E0EF66E080EF76E000EF86EA0
:101918000800F5CFCCF1E20E2DEC61F0A8D7000E4F
:101928000101C66F000EC76FA50EC86F200EC96FE4
:1019380017EC5CF00101CA6FB60E45EC61F097D761
:10194800010120EE01F0FD51D926FE51DA22DF50C7
:101958000201CC6FCD6BCD51000AD8A40DD0CC516B
:101968000D0AD8B4DCD71D0AD8B483D7010AD8B475
:1019780093D7530AD8B429D7000E1200B5C0C6F1C0
:10198800B4C0C7F1A50E0101C86F200EC96F17ECCE
:101998005CF00101CA6FB60E45EC61F068D7FDC175
:1019A800D9FFFEC1DAFF040EDF600FD0B5C0C6F163
:1019B800B4C0C7F1760E0101C86F010EC96F010EE0
:1019C800CA6FAF0E45EC61F052D7010120EE02F06C
:1019D800FD51D926FE51DA22DF50D8A436D020EEA8
:1019E80003F0FD51D926FE51DA22DF50D8A42DD0BC
:1019F80020EE04F0FD51D926FE51DA22DF50020113
:101A0800EE6F0C0EEE19D8A403D0010165852FD70F
:101A18000D0EEE19D8A419D00101659528D701013A
:101A280020EE01F0FD51D926FE51DA22DF500201E5
:101A3800CC6FCD6BCD51000AD8A407D0CC510D0A7C
:101A4800D8B49CD77B0AD8B4AAD7FDC1D9FFFEC1A8
:101A5800DAFF030EDF6001D08FD7010120EE02F01C
:101A6800FD51D926FE51DA22DE500001B519D8A45D
:101A780083D7010120EE03F0FD51D926FE51DA2269
:101A88000001B451DE18D8A477D753EF11F0FDC187
:101A9800D9FFFEC1DAFF040EDF600FD0B5C0C6F172
:101AA800B4C0C7F1730E0101C86F010EC96F010EF2
:101AB800CA6FAF0E45EC61F0DAD6010120EE04F0F2
:101AC800FD51D926FE51DA22140EDF6419D0B5C0B3
:101AD800A7F0B4C0A8F0090E0001A96F6F0EA3EC1F
:101AE80061F0B5C0C6F1B4C0C7F1730E0101C86F8B
:101AF800010EC96F090ECA6FAF0E45EC61F0B7D67B
:101B080020EE04F0FD51D926FE51DA22DF5023ECF5
:101B180045F00201EA6FB5C0C6F1B4C0C7F10101D2
:101B280020EE04F0FD51D926FE51DA22DF50C86FAD
:101B3800EAC2C9F19B0E5DEC61F0010120EE04F0F0
:101B4800FD51D926FE51DA22DF50D8A490D6010ED5
:101B58001CEC58F00001916FCE0E926FC30E936F7C
:101B6800070E73EC5FF083D6B4C060F1B5C061F1C5
:101B7800CEEC43F0010160516111D8B407D061C1C6
:101B8800A7F060C1A8F0510E15EC61F0FF00FDC18F
:101B9800D9FFFEC1DAFF050EDF600FD0B5C0C6F170
:101BA800B4C0C7F1870E0101C86F010EC96F010EDD
:101BB800CA6FAF0E45EC61F05AD6010120EE04F071
:101BC800FD51D926FE51DA22DF50D8A40BD0000EE1
:101BD8000001916FAA0E926F830E936F040E73EC3F
:101BE8005FF045D620EE04F0FD51D926FE51DA22E9
:101BF800090EDF640ED0B5C0C6F1B4C0C7F1870EB8
:101C0800C86F010EC96FFC0ECA6FAF0E45EC61F0CC
:101C18002ED620EE04F0FD51D926FE51DA22DF50EF
:101C28000201CC6FCD6BD890CC37CD37FE0ECC25CA
:101C3800CE6FFF0ECD21CF6F690ECE25F66EEE0E5C
:101C4800CF21F76EF86A000EF8220900F5CFD0F21E
:101C58000900F5CFD1F2100ED027000ED123D0C243
:101C6800F6FFD1C2F7FFF86A0900F5500900F51030
:101C7800D8A414D0B5C0C6F1B4C0C7F1870E01010D
:101C8800C86F20EE04F0FD51D926FE51DA22DF504C
:101C9800C96F000ECA6FC70E45EC61F0010120EE56
:101CA80005F0FD51D926FE51DA22DF50D8A411D013
:101CB80020EE04F0FD51D926FE51DA22DF50000152
:101CC800916FAA0E926F830E936F040E73EC5FF000
:101CD800CED520EE04F0FD51D926FE51DA22DF5090
:101CE8000201CC6FCD6BD890CC37CD37FE0ECC250A
:101CF800CE6FFF0ECD21CF6F690ECE25F66EEE0E9C
:101D0800CF21F76EF86A000EF8220900F5CFD0F25D
:101D18000900F5CFD1F2100ED027000ED123D0C282
:101D2800F6FFD1C2F7FFF86A0900F5CFD2F2090031
:101D3800F5CFD3F201D811D00500FA6ED251FD6E5D
:101D4800D351FE6EFF6AFA50010120EE05F0FD51F5
:101D5800D926FE51DA22DF50120097C0ECF298C063
:101D6800EDF20201EC51ED11D8A40FD0B5C0C6F1C7
:101D7800B4C0C7F1870E0101C86F010EC96FFD0E0F
:101D8800CA6FAF0E45EC61F072D5B5C0C6F1B4C0EC
:101D9800C7F1010120EE04F0FD51D926FE51DA22E7
:101DA800DF50C86F20EE05F0FD51D926FE51DA222A
:101DB800DF50C96F020120EE01F0EC51D926ED5138
:101DC800DA22DF500101CA6FECC2D9FFEDC2DAFF97
:101DD800DF50CB6FC70EFDEC60F049D5FDC1D9FFD0
:101DE800FEC1DAFF040EDF600FD0B5C0C6F1B4C083
:101DF800C7F1780E0101C86F010EC96F010ECA6FD5
:101E0800AF0E45EC61F033D5010120EE04F0FD5131
:101E1800D926FE51DA22DF50D8A418D0B5C0C6F1B1
:101E2800B4C0C7F1000EC86F000EC96F090ECA6FA3
:101E3800AC0E45EC61F0010E0001916FC00E926F7F
:101E4800A60E936F030E73EC5FF011D520EE04F02D
:101E5800FD51D926FE51DA22090EDF640ED0B5C035
:101E6800C6F1B4C0C7F1780EC86F010EC96FFC0E79
:101E7800CA6FAF0E45EC61F0FAD420EE04F0FD51C4
:101E8800D926FE51DA22DF500201CC6FCD6BD890F3
:101E9800CC37CD37FE0ECC25CE6FFF0ECD21CF6FC0
:101EA800690ECE25F66EEE0ECF21F76EF86A000E9B
:101EB800F8220900F5CFD0F20900F5CFD1F20E0EC5
:101EC800D027000ED123D0C2F6FFD1C2F7FFF86A9F
:101ED8000900F5500900F510D8A442D0B5C0C6F1E4
:101EE800B4C0C7F1010120EE04F0FD51D926FE511E
:101EF800DA22DF50C86F20EE04F0FD51D926FE51DA
:101F0800DA22DF500201CC6FCD6BD890CC37CD37B9
:101F1800FE0ECC25CE6FFF0ECD21CF6F690ECE25DC
:101F2800F66EEE0ECF21F76EF86A000EF822090061
:101F3800F5CFD0F20900F5CFD1F2D0C2F6FFD1C269
:101F4800F7FFF86A0800F5CFC9F1000E0101CA6F62
:101F5800000ECB6F000ECC6FE70E2DEC61F087D42E
:101F6800B5C0C6F1B4C0C7F1010120EE04F0FD51BF
:101F7800D926FE51DA22DF50C86F20EE04F0FD5159
:101F8800D926FE51DA22DF500201CC6FCD6BD890F2
:101F9800CC37CD37FE0ECC25CE6FFF0ECD21CF6FBF
:101FA800690ECE25F66EEE0ECF21F76EF86A000E9A
:101FB800F8220900F5CFD0F20900F5CFD1F2D0C24E
:101FC800F6FFD1C2F7FFF86A0800F5CFC9F10101A1
:101FD80020EE04F0FD51D926FE51DA22DF5002012D
:101FE800D26FD36BD890D237D337FE0ED225D46FA9
:101FF800FF0ED321D56F690ED425F66EEE0ED521CE
:10200800F76EF86A000EF8220900F5CFD6F209003B
:10201800F5CFD7F20E0ED627000ED723D6C2F6FF7D
:10202800D7C2F7FFF86A0900F5CFD8F20900F5CF53
:10203800D9F201D80AD00500FA6ED851FD6ED951EF
:10204800FE6EFF6AFA50010E12000101CA6F20EEFF
:1020580004F0FD51D926FE51DA22DF500201DA6F71
:10206800DB6BD890DA37DB37FE0EDA25DC6FFF0E34
:10207800DB21DD6F690EDC25F66EEE0EDD21F76ED5
:10208800F86A000EF8220900F5CFDEF20900F5CF54
:10209800DFF20E0EDE27000EDF23DEC2F6FFDFC200
:1020A800F7FFF86A0900F5CFE0F20900F5CFE1F291
:1020B80001D80AD00500FA6EE051FD6EE151FE6EBE
:1020C800FF6AFA50020E12000101CB6F20EE04F0F5
:1020D800FD51D926FE51DA22DF500201E26FE36B8F
:1020E800D890E237E337FE0EE225E46FFF0EE321D6
:1020F800E56F690EE425F66EEE0EE521F76EF86AD7
:10210800000EF8220900F5CFE6F20900F5CFE7F254
:102118000E0EE627000EE723E6C2F6FFE7C2F7FF3A
:10212800F86A0900F5CFE8F20900F5CFE9F201D81D
:102138000AD00500FA6EE851FD6EE951FE6EFF6A9D
:10214800FA50030E12000101CC6FE70E2DEC61F07E
:102158003BEF0CF0FDC1D9FFFEC1DAFF040EDF60D2
:1021680010D0B5C0C6F1B4C0C7F1760E0101C86F72
:10217800010EC96F010ECA6FAF0E45EC61F03BEF5F
:102188000CF0010120EE04F0FD51D926FE51DA22AF
:10219800DF500201EE6FB4C060F1B5C061F100011B
:1021A800C405D8A44DD00201EE51D8B403D0EE290D
:1021B800D8A446D0EE51D8B402D0510E01D0500E5A
:1021C800EB6FB5C0A7F0B4C0A8F0EB5115EC61F007
:1021D800B5C0C6F1B4C0C7F1760E0101C86F010ED3
:1021E800C96F000ECA6FAF0E45EC61F0000E00011A
:1021F800B56FB5C0B4F0FD0EA46F030EA56F000E49
:10220800A66FB5C0A7F0000EBFEC5DF0FC0E000194
:10221800A46F030EA56F000EA66FB4C0A7F0000E42
:10222800BFEC5DF00201EE51D8B403D00001C469DF
:1022380003D0000E0001C46F010EC16F39EF0CF01E
:102248000C0E0201EE19D8A411D001016585B5C0A4
:10225800C6F1B4C0C7F1760EC86F010EC96F000E83
:10226800CA6FAF0E45EC61F03BEF0CF00D0EEE19A6
:10227800D8A4C0EF0CF001016595B5C0C6F1B4C093
:10228800C7F1760EC86F010EC96F000ECA6FAF0E88
:1022980045EC61F03BEF0CF0FF003BEF0CF0010167
:1022A80020EE01F0FD51D926FE51DA22DF5002015D
:1022B800CC6FCD6BCD51000AD8A4C0EF0CF0CC5137
:1022C8004F0AD8B451D4110AD8B4E6D72D0AD8B4D5
:1022D8004BEF0DF0050AD8B43DD70E0AD8B47ED519
:1022E800FF0AD8B454D4C0EF0CF018D3FDC1CFF115
:1022F800FEC1D0F1030E0101D16F000ED26FFFECC9
:102308005AF0E806D8A402D0010E1200010120EE0E
:1023180002F0FD51D926FE51DA22DE500001B5192E
:10232800D8A40FD0010120EE03F0FD51D926FE51AB
:10233800DA220001B451DE18D8A403D00101658166
:10234800E3D701016591E0D7FDC1CFF1FEC1D0F11E
:10235800040E0101D16F000ED26FFFEC5AF0E806AF
:10236800D8B4D2D7010120EE02F0FD51D926FE5192
:10237800DA22DE500001B519D8A422D0010120EEDE
:1023880003F0FD51D926FE51DA220001B451DE18BE
:10239800D8A416D0010120EE04F0FD51D926FE5133
:1023A800DA22080EDE18D8B4C9D720EE04F0FD51A1
:1023B800D926FE51DA22090EDE18D8B4C2D702D0C7
:1023C80001016591000E1200FDC1CFF1FEC1D0F1EF
:1023D800070E0101D16F010ED26FFFEC5AF0E8062B
:1023E800D8A40BD0B5C0A7F0B4C0A8F0010E000166
:1023F800A96F6F0EA3EC61F087D7010165A184D79F
:1024080020EE03F0FD51D926FE51DA22DF500201F9
:10241800CC6F010120EE02F0FD51D926FE51DA22DF
:10242800DF500201CD6FCC510101F26FCDC2F3F143
:1024380020EE05F0FD51D926FE51DA22DF500201C7
:10244800CF6F010120EE04F0FD51D926FE51DA22AA
:10245800DF500201D06FCF510101F46FD0C2F5F106
:1024680020EE06F0FD51D926FE51DA22DF50F66F34
:1024780020EE07F0FD51D926FE51DA22DF50F76F22
:102488007DEC4AF041D7FDC1CFF1FEC1D0F1050E78
:102498000101D16F010ED26FFFEC5AF0E806D8B4F3
:1024A80033D7010165A130D720EE03F0FD51D926BD
:1024B800FE51DA22DF500201CC6F010120EE02F05A
:1024C800FD51D926FE51DA22DF500201CD6FCC51E1
:1024D8000101D26FCDC2D3F120EE05F0FD51D9260E
:1024E800FE51DA22DF500201CF6F010120EE04F025
:1024F800FD51D926FE51DA22DF500201D06FCF51AB
:102508000101D46FD0C2D5F1BBEC56F0FDD6FDC1A8
:10251800CFF1FEC1D0F1060E0101D16F010ED26FCD
:10252800FFEC5AF0E806D8B4EFD6010165A1ECD665
:1025380020EE03F0FD51D926FE51DA22DF500201C8
:10254800CC6F010120EE02F0FD51D926FE51DA22AE
:10255800DF500201CD6FCC510101CC6FCDC2CDF15E
:1025680020EE05F0FD51D926FE51DA22DF50020196
:10257800CF6F010120EE04F0FD51D926FE51DA2279
:10258800DF500201D06FCF510101CE6FD0C2CFF121
:1025980020EE06F0FD51D926FE51DA22DF50D06F29
:1025A80071EC3EF0B1D6FDC1CFF1FEC1D0F1030E02
:1025B8000101D16F000ED26FFFEC5AF0E806D8B4D3
:1025C800A3D6010120EE02F0FD51D926FE51DA22F0
:1025D800DE500001B519D8A497D6010120EE03F00A
:1025E800FD51D926FE51DA220001B451DE18D8A4D3
:1025F8008BD6A7D6FDC1CFF1FEC1D0F1030E0101E4
:10260800D16F010ED26FFFEC5AF0E806D8B47CD631
:10261800010120EE02F0FD51D926FE51DA22DE50EA
:102628000001B519D8A470D6010120EE03F0FD51C0
:10263800D926FE51DA220001B451DE18D8A464D696
:10264800010165B119D0B5C0A7F0B4C0A8F0020E59
:102658000001A96F6F0EA3EC61F0B5C0C6F1B4C05C
:10266800C7F1550E0101C86F040EC96F020ECA6F7B
:10267800AF0E45EC61F048D6E5EC60F0A3D6FDC19D
:10268800CFF1FEC1D0F1030E0101D16F000ED26F60
:10269800FFEC5AF0E806D8B437D6010120EE02F074
:1026A800FD51D926FE51DA22DE500001B519D8A411
:1026B8002BD6010120EE03F0FD51D926FE51DA2276
:1026C8000001B451DE18D8A41FD6CCEC63F01CD698
:1026D800FDC1CFF1FEC1D0F1030E0101D16F000E93
:1026E800D26FFFEC5AF0E806D8B40ED6010120EEFE
:1026F80002F0FD51D926FE51DA22DE500001B5194B
:10270800D8A402D6010120EE03F0FD51D926FE51CE
:10271800DA220001B451DE18D8A4F6D56BEC59F0D2
:10272800F3D5FDC1CFF1FEC1D0F1030E0101D16F88
:10273800000ED26FFFEC5AF0E806D8B4E5D50101D7
:1027480020EE02F0FD51D926FE51DA22DE500001BA
:10275800B519D8A4D9D5010120EE03F0FD51D92629
:10276800FE51DA220001B451DE18D8A4CDD565ECAB
:1027780060F0CAD5FDC1CFF1FEC1D0F1040E010150
:10278800D16F000ED26FFFEC5AF0E806D8B4BCD572
:10279800010120EE02F0FD51D926FE51DA22DE5069
:1027A8000001B519D8A4B0D5010120EE03F0FD5100
:1027B800D926FE51DA220001B451DE18D8A4A4D5D6
:1027C800010120EE04F0FD51D926FE51DA22DF5036
:1027D800C7EC58F099D5FDC1CFF1FEC1D0F1050E77
:1027E8000101D16F000ED26FFFEC5AF0E806D8B4A1
:1027F8008BD5010120EE02F0FD51D926FE51DA22D7
:10280800DE500001B519D8A47FD5010120EE03F0F0
:10281800FD51D926FE51DA220001B451DE18D8A4A0
:1028280073D5010120EE05F0FD51D926FE51DA22BB
:10283800DF50CB6F20EE04F0FD51D926FE51DA228D
:10284800DF50B3EC44F060D5FDC1CFF1FEC1D0F14B
:10285800080E0101D16F010ED26FFFEC5AF0E806A5
:10286800D8B452D5010120EE02F0FD51D926FE510F
:10287800DA22DE500001B519D8A446D5010120EEB0
:1028880003F0FD51D926FE51DA220001B451DE18B9
:10289800D8A43AD5010120EE03F0FD51D926FE5106
:1028A800DA22DF500201CC6F010120EE02F0FD5167
:1028B800D926FE51DA22DF500201CD6FCC51010139
:1028C800F26FCDC2F3F120EE05F0FD51D926FE518D
:1028D800DA22DF500201CF6F010120EE04F0FD5132
:1028E800D926FE51DA22DF500201D06FCF51010103
:1028F800F46FD0C2F5F120EE07F0FD51D926FE5154
:10290800DA22DF50F66F20EE08F0FD51D926FE518D
:10291800DA22DF50F76F7DEC4AF0F6D4010120EEA1
:1029280001F0FD51D926FE51DA22DF500201CC6FA9
:10293800CD6BCD51000AD8A445D5CC51530AD8B493
:10294800D5D4070AD8B42FD6010AD8B453D6030A67
:10295800D8B4BED6010AD8B492D60F0AD8B4E1D6F4
:102968002A0AD8B407D7040AD8B4EED4E30AD8B4EC
:102978008AD5090AD8B42FD72E0AD8B4C8D5600A80
:10298800D8B422D5270AD8B45FD71CD50101F66F71
:10299800F00E0101F62500018D6F8E6BFF0E8E2360
:1029A800000E906F070E8F6F8EEC58F000018D515E
:1029B8008E11D8A41BD00101F651F00FF76FF7C1A3
:1029C80097F00001986B000E9A6F070E996F79ECDB
:1029D80054F0000197510101F76FF151F219D8B481
:1029E80005D0F1C1EEF1F7516BEC5AF0050E01017B
:1029F800F619D8A403D0F15175EC64F0040E010166
:102A0800F619D8B4F1C15BFF0F0EF6651200F00E8F
:102A1800F6250001976F986BFF0E9823000E9A6FAA
:102A2800070E996F79EC54F0000197510101F76F87
:102A3800F00EF62500018D6F8E6BFF0E8E23000EB3
:102A4800906F070E8F6F8EEC58F0D3D10101F651BD
:102A5800F36FF46BF751070D120EF326000EF422F4
:102A6800F351F31813E1F451F418D8A40FD0020E5F
:102A78000001916F0101F751C6EC4DF0020E000103
:102A8800916F0101F75143EC4BF01200F651F36FCF
:102A9800F46BF751070D130EF326000EF422F351D1
:102AA800F31813E1F451F418D8A40FD0010E000163
:102AB800916F0101F751C6EC4DF0010E0001916FC5
:102AC8000101F75143EC4BF01200F651F36FF46B30
:102AD800F751070D110EF326000EF422F351F318E7
:102AE80003E1F451F418D8A41200F1AF1200F2BFB8
:102AF8001200F751070DF350120FD0EC5FF08DC0A4
:102B080097F08EC098F0000E00019A6F020E996F30
:102B180079EC54F097C0F3F198C0F4F10101F75142
:102B2800070DF350130FD0EC5FF08DC097F08EC0F7
:102B380098F0000E00019A6F020E996F79EC54F02C
:102B4800000197510101F32500019F6F0101F75121
:102B580002EC63F012000101F651F36FF46BF751C8
:102B6800070D130EF326000EF422F351F31813E1A8
:102B7800F451F418D8A40FD0020E0001916F01018E
:102B8800F7511CEC4EF0020E00018D6F0101F75158
:102B980006EC5AF01200F651F36FF46BF751070D7B
:102BA800120EF326000EF422F351F31813E1F45138
:102BB800F418D8A40FD0010E0001916F0101F7514C
:102BC8001CEC4EF0010E00018D6F0101F75106EC6F
:102BD8005AF01200F651F36FF46BF751070D110E0E
:102BE800F326000EF422F351F31803E1F451F4181C
:102BF800D8A41200F1AF1200F2BF1200F751070D6E
:102C0800F350120FD0EC5FF08DC097F08EC098F0A3
:102C1800000E00019A6F020E996F79EC54F097C07C
:102C2800F3F198C0F4F10101F751070DF350130FB8
:102C3800D0EC5FF08DC097F08EC098F0000E0001C8
:102C48009A6F020E996F79EC54F0000197510101C7
:102C5800F325F56F300EF725D96EDA6A010EDA2200
:102C6800F5C1DFFF12000101F651F36FF46BF75164
:102C7800070D130EF326000EF422F351F31813E197
:102C8800F451F418D8A40FD0000E0001916F01017F
:102C9800F75116EC48F0000E0001916F0101F75151
:102CA80009EC51F01200F651F36FF46BF751070D70
:102CB800140EF326000EF422F351F31813E1F45125
:102CC800F418D8A40FD0010E0001916F0101F7513B
:102CD80016EC48F0010E0001916F0101F75109EC63
:102CE80051F01200F651F36FF46BF751070D150E02
:102CF800F326000EF422F351F31813E1F451F418FB
:102D0800D8A40FD0020E0001916F0101F75116EC03
:102D180048F0020E0001916F0101F75109EC51F0E2
:102D28001200F651F36FF46BF751070D160EF326E8
:102D3800000EF422F351F31813E1F451F418D8A457
:102D48000FD0030E0001916F0101F75116EC48F006
:102D5800030E0001916F0101F75109EC51F01200C7
:102D6800F651F36FF46BF751070D110EF326000EB1
:102D7800F422F351F31854E1F451F418D8A41200D2
:102D8800F1AF1200F2BF1200F751070DF350120F06
:102D9800D0EC5FF08DC097F08EC098F0000E000167
:102DA8009A6F020E996F79EC54F097C0F3F198C0BE
:102DB800F4F10101F751070DF350130FD0EC5FF058
:102DC8008DC097F08EC098F0000E00019A6F020E29
:102DD800996F79EC54F0000197510101F325F56FD3
:102DE800300EF725D96EDA6A010EDA22F5C1DFFF57
:102DF80012000101F751070DF350100FD0EC5FF0EE
:102E080000018E51000AD8A412008D51020AD8B4CC
:102E18001DD6010AD8B49FD6070AD8A4120023D712
:102E280012000001A96F300E0001A925D96EDA6AD7
:102E3800010EDA22DF509F6FA06BA951010FD96EE6
:102E4800DA6ADF50A16FA26B030EA127000EA2233E
:102E58009F51A15DA251800AA36FA051800AA35976
:102E6800D8A042D0A951010FD96EDA6ADF509F6FFE
:102E7800FD0E9F25A06FA16BFF0EA123300EA92583
:102E8800D96EDA6A010EDA22DF50A26FA36BA05165
:102E9800A25DA351800AA46FA151800AA459D8A0A9
:102EA80023D0A951020D000EF324D96E020EF4208E
:102EB800DA6E010EDBBE07D0010EDB5015E1040E01
:102EC800DE5CD8B011D0A951020D000EF324D96EE2
:102ED800020EF420DA6E010EDBAEDAD1FD0EDE5CF6
:102EE800FF0EDE58D8B0D4D1A951070DF350120FF8
:102EF800D0EC5FF08DC09FF08EC0A0F00001A9510A
:102F0800070DF350130FD0EC5FF000018D519F5D5A
:102F1800D8B002D0010E01D0000EA66FA651D8A4D9
:102F2800DDD0A951020D000EF324D96E020EF42053
:102F3800DA6EDECF97F0DDCF98F0000E9A6F1E0E96
:102F4800996F79EC54F097C09FF098C0A0F00001F9
:102F5800A951070DF350130FD0EC5FF000018D510C
:102F68009F25A16F000EA021A26F300EA925D96E52
:102F7800DA6A010EDA22DF50A36FA46BA151A35DB8
:102F8800A451800AA56FA251800AA559D8B07CD057
:102F9800A951070DF350140FD0EC5FF08DC091F0DC
:102FA8008EC092F00001A951020D000EF324D96ED3
:102FB800020EF420DA6EDECF9FF0DDCFA0F09F1F67
:102FC800A01F9F4BA02B9FC093F0A0C094F0B3EC20
:102FD80062F091C097F092C098F0000E00019A6FCD
:102FE800640E996F79EC54F00001A951020D000E9E
:102FF800F324D96E020EF420DA6E97C0DEFF98C073
:10300800DDFFA951070DF350130FD0EC5FF000015D
:103018008D519F6FA06BA951070DF350130FD0EC82
:103028005FF000018D519F27000EA023300EA925C7
:10303800D96EDA6A010EDA22DF50A16FA1519F5FC3
:10304800000EA05BA951020D000EF324D96E020EEA
:10305800F420DA6EDECF97F0DDCF98F0000E9A6F8D
:103068001E0E996F79EC54F0000197519F5DA76F80
:103078009851A059A86F300EA925D96EDA6A010EA9
:10308800DA22A7C0DFFF02D1A951020D000EF324F6
:10309800D96E020EF420DA6E030EDE26000EDD2253
:1030A800A951020D000EF324D96E020EF420DA6E37
:1030B800DECF97F0DDCF98F0000E9A6F1E0E996F55
:1030C80079EC54F0010E00019727300EA925D96E2E
:1030D800DA6A010EDA229751DF5ED8D0300EA925C0
:1030E800D96EDA6A010EDA22DF509F6FA06BA95100
:1030F800070DF350130FD0EC5FF08DC0A1F08EC018
:10310800A2F00001A951020D000EF324D96E020E9F
:10311800F420DA6EDECF97F0DDCF98F0000E9A6FCC
:103128001E0E996F79EC54F000019751A15DA36FC1
:103138009851D8A09829A46BA45F9F51A35DA4516E
:10314800800AA56FA051800AA559D8B076D0A95198
:10315800070DF350140FD0EC5FF08DC091F08EC0C6
:1031680092F00001A951020D000EF324D96E020E4F
:10317800F420DA6EDECF9FF0DDCFA0F09F1FA01FF6
:103188009F4BA02B9FC093F0A0C094F0B3EC62F0CB
:1031980091C097F092C098F0000E00019A6F640EEB
:1031A800996F79EC54F00001A951020D000EF32437
:1031B800D96E020EF420DA6E97C0DEFF98C0DDFFEC
:1031C800A951070DF350130FD0EC5FF000018D519A
:1031D8009F6FA06BA951070DF350130FD0EC5FF050
:1031E80000018D519F27000EA023A951020D000E4A
:1031F800F324D96E020EF420DA6EDECF97F0DDCF1D
:1032080098F0000E9A6F1E0E996F79EC54F0000139
:1032180097519F25A16F9851A021A26F300EA92523
:10322800D96EDA6A010EDA22DF50A36FA351A15DCD
:10323800A76FA251D8A0A2051DD7A951020D000E53
:10324800F324D96E020EF420DA6E030EDE26000E89
:10325800DD22A951020D000EF324D96E020EF420CE
:10326800DA6EDECF97F0DDCF98F0000E9A6F1E0E63
:10327800996F79EC54F0010E00019727300EA925BB
:10328800D96EDA6A010EDA229751DF26000E120093
:10329800010E12000001C405D8A440D043EC5CF034
:1032A8000101505100018D5D0101CB6F51510001A9
:1032B8008E590101CC6F525100018F590101CD6F18
:1032C8005351000190590101CE6FCE5108E1B50E5E
:1032D800CB5DC40ECC59040ECD59D8A01FD065A51E
:1032E8000FD0B5C0C6F1B4C0C7F1BFC0C8F18EC118
:1032F800C9F1000ECA6FAB0E45EC61F00001BF2B9F
:1033080043EC5CF08DC050F18EC051F18FC052F18A
:1033180090C053F101018E51D8A48E070001C2510B
:1033280001016519D8B40ED0F90E0001A46F030E7F
:10333800A56F000EA66F65C1A7F0000EBFEC5DF08B
:1033480065C1C2F00001C351C419D8B413D0C4294F
:10335800D8B403D0C405D8A40BD0FB0EA46F030EB9
:10336800A56F000EA66FC4C0A7F0000EBFEC5DF0FD
:10337800C4C0C3F043EC5CF001014C5100018D5D09
:103388000101CB6F4D5100018E590101CC6F4E5197
:1033980000018F590101CD6F4F5100019059010172
:1033A800CE6FCE51CD1106E1250ECB5DF40ECC5972
:1033B800D8A07FD143EC5CF08DC04CF18EC04DF1AC
:1033C8008FC04EF190C04FF10101924B932B925157
:1033D8009311D8A46ED1904B912B6BD180A40BD0B4
:1033E80043EC5CF08DC0AAF08EC0ABF08FC0ACF09F
:1033F80090C0ADF0120043EC5CF00001AA518D5D65
:103408000101CB6F0001AB518E590101CC6F000156
:10341800AC518F590101CD6F0001AD519059010197
:10342800CE6FCE5108E1910ECB5DD00ECC59030E74
:10343800CD59D8A01200FD0E0001C46FC169B4ECCB
:1034480060F0120080A4CCD7000EC46FC16943ECB1
:103458005CF08DC0AAF08EC0ABF08FC0ACF090C00D
:10346800ADF0B5C0A7F0B4C0A8F0500E15EC61F0EF
:10347800B4EC60F0B5D780A487D043EC5CF00001D1
:10348800AA518D5D0101CB6F0001AB518E5901012D
:10349800CC6F0001AC518F590101CD6F0001AD51C6
:1034A80090590101CE6FCE51CD1106E16B0ECB5D67
:1034B800180ECC59D8A036D043EC5CF00001AA51C4
:1034C8008D5D0101CB6F0001AB518E590101CC6FAD
:1034D8000001AC518F590101CD6F0001AD519059D8
:1034E8000101CE6FCE511EE1480ECB5DE80ECC59DE
:1034F800010ECD59D8B016D0C1C0C4F00001C40522
:10350800D8A40ED060C1B4F061C1B5F0B5C0A7F0C1
:10351800B4C0A8F0520E15EC61F00101964B972B40
:10352800B4EC60F043EC5CF00001AA518D5D010140
:10353800CB6F0001AB518E590101CC6F0001AC512A
:103548008F590101CD6F0001AD5190590101CE6F26
:10355800CE5108E1910ECB5DD00ECC59030ECD595A
:10356800D8A004D00001C469B4EC60F043EC5CF06E
:103578008DC0AAF08EC0ABF08FC0ACF090C0ADF09B
:10358800000E0001C06F1200010EC06F120080A46F
:10359800FBD7C051D8B455D043EC5CF00001AA5118
:1035A8008D5D0101CB6F0001AB518E590101CC6FCC
:1035B8000001AC518F590101CD6F0001AD519059F7
:1035C8000101CE6FCE51CD1106E16B0ECB5D180E09
:1035D800CC59D8A036D043EC5CF00001AA518D5DDF
:1035E8000101CB6F0001AB518E590101CC6F000175
:1035F800AC518F590101CD6F0001AD5190590101B6
:10360800CE6FCE511EE1480ECB5DE80ECC59010EAF
:10361800CD59D8B016D0B4C060F1B5C061F1000E74
:103628000001B56FB5C0B4F0000EC46F010EC16FD4
:1036380061C1A7F060C1A8F0500E15EC61F0B4ECC0
:1036480060F00001C051D8B491D743EC5CF00001A0
:10365800AA518D5D0101CB6F0001AB518E5901015B
:10366800CC6F0001AC518F590101CD6F0001AD51F4
:1036780090590101CE6FCE5108E1900ECB5DD00E6E
:10368800CC59030ECD59D8A071D7B4C060F1B5C0DC
:1036980061F1000E0001B56FB5C0B4F0C469010E48
:1036A800C16F61C1A7F060C1A8F0510E15EC61F0BF
:1036B8005BD70001C451000AD8B4DDD6FD0AD8B4DE
:1036C800C1D6020AD8B48AD662D70101D96FD9C146
:1036D800D5F1130E0101CF654FD1060E12000A0E67
:1036E800CF5FD951D16FD26BD13BD23BF00ED217FD
:1036F800D1510F0BD213F00ED117800ED125D36FF5
:10370800EF0ED221D46FD3C191F0D4C192F0000151
:10371800936B010E2FEC5BF0000191510101D86F02
:10372800D8A91ED0D951100DF3CFD1F1F4CFD2F1D1
:10373800810ED125D36FEF0ED221D46FD3C191F072
:10374800D4C192F00001936B010E2FEC5BF00001E5
:1037580091510101D96FD929D8A40ED1070E1200B1
:10376800D051D8A402D0000E1200D929DA6FFBD0AC
:10377800DA51D16FD26BD13BD23BF00ED217D15177
:103788000F0BD213F00ED117800ED125D36FEF0E89
:10379800D221D46FD3C191F0D4C192F00001936BC0
:1037A800010E2FEC5BF0000191510101D66FD6AFED
:1037B800D9D0DA51100DF3CFD1F1F4CFD2F1820E76
:1037C800D125D36FEF0ED221D46FD3C1A4F0D4C1C9
:1037D800A5F00001A66BFF0EA76F010EBFEC5DF010
:1037E8000101DA51100DF3CFD1F1F4CFD2F1830EEC
:1037F800D125D36FEF0ED221D46FD3C1A4F0D4C199
:10380800A5F00001A66BFF0EA76F010EBFEC5DF0DF
:103818000101DA51100DF3CFD1F1F4CFD2F1840EBA
:10382800D125D36FEF0ED221D46FD3C1A4F0D4C168
:10383800A5F00001A66BFF0EA76F010EBFEC5DF0AF
:103848000101DA51100DF3CFD1F1F4CFD2F1850E89
:10385800D125D36FEF0ED221D46FD3C1A4F0D4C138
:10386800A5F00001A66BFF0EA76F010EBFEC5DF07F
:103878000101DA51D16FD26BD13BD23BF00ED21796
:10388800D1510F0BD213F00ED117800ED125D36F63
:10389800EF0ED221D46FD3C1A4F0D4C1A5F000019A
:1038A800A66B200EA76F010EBFEC5DF0000E0101A4
:1038B800D76FDA51100DF3CFD1F1F4CFD2F1D75140
:1038C800D127000ED223860ED125D36FEF0ED22139
:1038D800D46FD3C1A4F0D4C1A5F00001A66B000E2B
:1038E800A76F010EBFEC5DF00101D72B090ED7655C
:1038F800E0D7D951100DF3CFD1F1F4CFD2F1810E29
:10390800D125D36FEF0ED221D46FD3C1A4F0D4C187
:10391800A5F00001A66BDAC1A7F0010EBFEC5DF0BF
:103928000101D889D951D16FD26BD13BD23BF00E6E
:10393800D217D1510F0BD213F00ED117800ED1250B
:10394800D36FEF0ED221D46FD3C1A4F0D4C1A5F0A8
:103958000001A66BD8C1A7F0010EBFEC5DF0DAC17B
:10396800D9F104D0DA2BDA29D8A402D70101DA294F
:10397800D8A402D0040E12000A0ECF61B0D6D951D5
:10398800100DF3CFD1F1F4CFD2F1CF51D127000EE2
:10399800D223860ED125D36FEF0ED221D46FD3C197
:1039A800A4F0D4C1A5F00001A66BD0C1A7F0010E08
:1039B800BFEC5DF00101D951D16FD26BD13BD23B45
:1039C800F00ED217D1510F0BD213F00ED117800E73
:1039D800D125D36FEF0ED221D46FD3C191F0D4C1CA
:1039E80092F00001936B010E2FEC5BF000019151F6
:1039F8000101D86FD8510F0BD16FD151CF5DD8A02D
:103A080026D0CFC1D1F1010ED127D851D119F00B51
:103A1800D119D86FD951D16FD26BD13BD23BF00EAF
:103A2800D217D1510F0BD213F00ED117800ED1251A
:103A3800D36FEF0ED221D46FD3C1A4F0D4C1A5F0B7
:103A48000001A66BD8C1A7F0010EBFEC5DF0010123
:103A5800D051D8A488D6D551E9EC5EF084D6FDC102
:103A6800D9FFFEC1DAFF050EDF6002D0000E12009A
:103A7800010120EE03F0FD51D926FE51DA22DF5074
:103A88000201CC6F010120EE02F0FD51D926FE5152
:103A9800DA22DF500201CD6FCC51D26FCDC2D3F202
:103AA80010D0000ED36F000ED26F140ECF6F010E20
:103AB800D06F48D0000ED36F000ED26F000ECF6FBC
:103AC80041D0010120EE01F0FD51D926FE51DA2244
:103AD800DF500201CC6FCD6BCD51000AD8A4C6D7F8
:103AE800CC51900AD8B4E1D7010AD8B4E7D7090A6B
:103AF800D8B4D7D7010AD8B4DDD7290AD8B4D5D7CE
:103B0800010AD8B4DBD7090AD8B4CBD7010AD8B48C
:103B1800D1D7690AD8B4C9D7010AD8B4CFD7090A06
:103B2800D8B4BFD7010AD8B4C5D7290AD8B4BDD7E5
:103B3800010AD8B4C3D7090AD8B4B3D7010AD8B48C
:103B4800B9D794D7D2C2BEF1D3C2BFF1010120EEDA
:103B580005F0FD51D926FE51DA22DF500201CC6F63
:103B6800010120EE04F0FD51D926FE51DA22DF5082
:103B78000201CD6FCC510101C06FCDC2C1F118EC6B
:103B880053F00201D46FD429D8B470D7D45157EC6C
:103B980042F0010120EE01F0FD51D926FE51DA2252
:103BA800DF500201D16FD1B17FD0010EDB6F200E43
:103BB800DB25D96EDA6A020EDA22DF50DC6FDC51BF
:103BC800D8B46CD0DC517F0BD96F590ED96166D04F
:103BD800070ED919D8B406D1080ED96104D0DC5122
:103BE8005FEC5BF05BD0F80ED9250001976F986BFE
:103BF800FF0E9823000E9A6F050E996F79EC54F01A
:103C0800000197510201D86FF80ED92500018D6F78
:103C18008E6BFF0E8E23000E906F050E8F6F8EEC4D
:103C280058F000018D510201DA6F20D00201D851FD
:103C3800070DF350110FD0EC5FF000018DBF88EC39
:103C480064F00201DA51D8B4DC2B040EDA19D8A4D6
:103C580002D0020EDC5FDC515FEC5BF085EC64F0B7
:103C68001DD00201DC515FEC5BF018D0D851070D74
:103C7800F350100FD0EC5FF000018E51000AD8A469
:103C88000DD08D51010AD8B4D1D7030AD8B4D9D7E9
:103C9800010AD8B4D6D7070AD8B4E3D70201DB2B78
:103CA800130EDB6584D79ED033C2D5F2130EDB6FBB
:103CB800000ED66FD5C2DCF2010EDB650AD01F0EEE
:103CC800DB25D96EDA6A020EDA22DF50D56FD551BC
:103CD80001D0D651800BD76FDC51D8B47ED0D651E5
:103CE800D8B4DCC2D6F2DC9F590EDC6176D0070E60
:103CF800DC19D8B477D0080EDC6109D0DC05D8B45B
:103D080006D0D751DC13DC515FEC5BF066D0F80EBF
:103D1800DC250001976F986BFF0E9823000E9A6FB1
:103D2800050E996F79EC54F0000197510201D86F94
:103D3800F80EDC2500018D6F8E6BFF0E8E23000EB2
:103D4800906F050E8F6F8EEC58F000018D510201B7
:103D5800DA6F2BD00201D851070DF350110FD0ECB8
:103D68005FF000018DBF88EC64F0030E0201DA19E0
:103D7800D8B4DC070201DA51D8A402D0020EDC273D
:103D8800040EDA19D8A402D0030EDC5FD751DC1375
:103D9800DC515FEC5BF085EC64F01FD00201D75179
:103DA800DC13DC515FEC5BF0F6D7D851070DF3500C
:103DB800100FD0EC5FF000018E51000AD8A40DD08E
:103DC8008D51010AD8B4C6D7030AD8B4D3D7010A8B
:103DD800D8B4D0D7070AD8B4E1D70201DB07DB5142
:103DE800D8A466D70101BC4BBD2B010E12000001FF
:103DF80020EE02F08D51D9268E51DA22DF50916FD4
:103E0800926B20EE04F08D51D9268E51DA22DF50C4
:103E1800936FFF0E9325946F956BFF0E952320EEFD
:103E280003F08D51D9268E51DA22DF50966F976BA9
:103E3800010E9627000E972394519615986F955169
:103E48009715996F9151981906E192519919D8A42B
:103E580002D0000E120020EE01F08F51D9269051A9
:103E6800DA2210EE03F08D51E1268E51E222E7505E
:103E7800916F9151090DF3CF92F0F4CF93F08DC06B
:103E8800E1FF8EC0E2FFE6CF94F0E5CF95F09251C6
:103E98009425966F93519521976F010E9625E16EA3
:103EA800000E9721E26EDFCFE7FF20EE02F08F5180
:103EB800D9269051DA2210EE03F08D51E1268E5169
:103EC800E222E750916F9151090DF3CF92F0F4CFB0
:103ED80093F08DC0E1FF8EC0E2FFE6CF94F0E5CF0E
:103EE80095F092519425966F93519521976F020EF4
:103EF8009625E16E000E9721E26EDFCFE7FF20EEF8
:103F080003F08F51D9269051DA2210EE03F08D512B
:103F1800E1268E51E222E750916F9151090DF3CFBE
:103F280092F0F4CF93F08DC0E1FF8EC0E2FFE6CFB0
:103F380094F0E5CF95F092519425966F9351952181
:103F4800976F030E9625E16E000E9721E26EDFCF84
:103F5800E7FF20EE04F08F51D9269051DA2210EEB7
:103F680003F08D51E1268E51E222E750916F915175
:103F7800090DF3CF92F0F4CF93F08DC0E1FF8EC01E
:103F8800E2FFE6CF94F0E5CF95F092519425966F35
:103F980093519521976F040E9625E16E000E972197
:103FA800E26EDFCFE7FF20EE05F08F51D926905162
:103FB800DA2210EE03F08D51E1268E51E222E7500D
:103FC800916F9151090DF3CF92F0F4CF93F08DC01A
:103FD800E1FF8EC0E2FFE6CF94F0E5CF95F0925175
:103FE8009425966F93519521976F050E9625E16E4E
:103FF800000E9721E26EDFCFE7FF20EE06F08F512B
:10400800D9269051DA2210EE03F08D51E1268E5117
:10401800E222E750916F9151090DF3CF92F0F4CF5E
:1040280093F08DC0E1FF8EC0E2FFE6CF94F0E5CFBC
:1040380095F092519425966F93519521976F060E9E
:104048009625E16E000E9721E26EDFCFE7FF20EEA6
:1040580007F08F51D9269051DA2210EE03F08D51D6
:10406800E1268E51E222E750916F9151090DF3CF6D
:1040780092F0F4CF93F08DC0E1FF8EC0E2FFE6CF5F
:1040880094F0E5CF95F092519425966F9351952130
:10409800976F070E9625E16E000E9721E26EDFCF2F
:1040A800E7FF20EE08F08F51D9269051DA2210EE62
:1040B80003F08D51E1268E51E222E750916F915124
:1040C800090DF3CF92F0F4CF93F08DC0E1FF8EC0CD
:1040D800E2FFE6CF94F0E5CF95F092519425966FE4
:1040E80093519521976F080E9625E16E000E972142
:1040F800E26EDFCFE7FF8FC0D9FF90C0DAFF10EE86
:1041080003F08D51E1268E51E222E750916F9151D3
:10411800090DF3CF92F0F4CF93F08DC0E1FF8EC07C
:10412800E2FFE6CF94F0E5CF95F092519425E16E49
:1041380093519521E26EDFCFE7FF20EE03F08D511A
:10414800D9268E51DA22DF2A20EE04F08D51D926A5
:104158008E51DA2210EE03F08D51E1268E51E222C3
:10416800DE50E65CD8A007D020EE03F08D51D926AA
:104178008E51DA22DF6A010E120043EC5CF0010175
:10418800445100018D5D0201EF6F010145510001AD
:104198008E590201F06F0101465100018F59020149
:1041A800F16F01014751000190590201F26F0101BD
:1041B80064510001916F926B936B946B3E0E956FF7
:1041C800000E966F000E976F000E986F6FEC5CF004
:1041D8000201EF510001915D0201F0510001925975
:1041E8000201F151000193590201F2510001945961
:1041F800D8B00CD03FEC56F043EC5CF08DC044F1E5
:104208008EC045F18FC046F190C047F143EC5CF099
:104218000101405100018D5D0201EF6F0101415123
:1042280000018E590201F06F0101425100018F59BE
:104238000201F16F01014351000190590201F26F2F
:10424800F251F11106E1250EEF5DF40EF059D8A0F8
:104258000CD0BCEC54F043EC5CF08DC040F18EC047
:1042680041F18FC042F190C043F1000E0201F46F9A
:10427800F451020D690EF324F66EEE0EF420F76E7B
:10428800F86A000EF8220900F5500900F510D8B4B4
:104298004BD0F451020D690EF324F66EEE0EF420A5
:1042A800F76EF86A000EF8220900F5CFEFF2090060
:1042B800F5CFF0F2080EEF27000EF023EFC2F6FF5D
:1042C800F0C2F7FFF86A0900F5500900F510D8B4F4
:1042D8002BD0F451020D690EF324F66EEE0EF42085
:1042E800F76EF86A000EF8220900F5CFEFF2090020
:1042F800F5CFF0F2080EEF27000EF023EFC2F6FF1D
:10430800F0C2F7FFF86A0900F5CFF1F20900F5CF1E
:10431800F2F201D809D00500FA6EF151FD6EF251A2
:10432800FE6EFF6AFA5012000201F42B080EF465C3
:104338009FD7AAEC30F0000E0201F36F0101625121
:104348006311D8B4CAD0020E62250201EF6F000EC5
:10435800010163210201F06FEFC2F6FFF0C2F7FF1F
:10436800F86A0900F5500900F510D8B4B6D0F50E72
:104378000101C76F020EC86F020E62250201EF6FBE
:10438800000E010163210201F06FEFC2F6FFF0C2D7
:10439800F7FFF86A0900F5CFF1F20900F5CFF2F25C
:1043A80001D809D00500FA6EF151FD6EF251FE6E8A
:1043B800FF6AFA5012000009D8B48FD00201F551F3
:1043C800D8B48BD0070E41EC44F0F50E00018D6F88
:1043D800020E8E6F91EC64F00201F36FF351D8A4D2
:1043E8007CD0000EF46FF451020D690EF324F66EC2
:1043F800EE0EF420F76EF86A000EF8220900F55068
:104408000900F510D8B458D0F451020D690EF32400
:10441800F66EEE0EF420F76EF86A000EF822090028
:10442800F5CFEFF20900F5CFF0F2060EEF27000EF8
:10443800F023EFC2F6FFF0C2F7FFF86A0900F55063
:104448000900F510D8B438D0F50E0101FD6F020E41
:10445800FE6F0201F451020D690EF324F66EEE0EA2
:10446800F420F76EF86A000EF8220900F5CFEFF293
:104478000900F5CFF0F2060EEF27000EF023EFC289
:10448800F6FFF0C2F7FFF86A0900F5CFF1F209006C
:10449800F5CFF2F201D809D00500FA6EF151FD6EA0
:1044A800F251FE6EFF6AFA501200E806D8A404D052
:1044B800010E0201F36F05D00201F42B080EF4651A
:1044C80092D7F351D8A409D0F50E00018D6F020ED2
:1044D8008E6F93EC64F00201F36F0201F351D8B4CC
:1044E80012000101984B992B080E41EC44F0120080
:1044F8000001A86FF80E0001A825976F986BFF0EB2
:104508009823000E9A6F040E996F79EC54F000010D
:104518009751CF6F0F0ECF6502D0FF0E1200A85132
:10452800F80F030BA96FCF51070DF350110FD0EC03
:104538005FF000018D51A66FA651080BA76F69D1D6
:10454800B40ECF25D96EDA6A020EDA22DF50D8B45B
:1045580002D0010E1200000E1200A751D8B4DDD708
:10456800B40ECF25D96EDA6A020EDA22DF50D8A44B
:1045780002D0010E1200000E1200A951000AD8B490
:10458800DFD7010AD8B4E9D7C8D7DE0ECF259F6F89
:10459800A06B030EA0239FC091F0A0C092F0936B74
:1045A800000E2FEC5BF0020E000191199211D8B4A5
:1045B80002D0010E1200000E1200A951000AD8B450
:1045C800E4D7ABD7CF51070DF350120FD0EC5FF003
:1045D800300E0001CF25D96EDA6A010EDA22DE50DC
:1045E8008D19D8A402D0010E1200000E1200CF516E
:1045F800070DF350130FD0EC5FF0300E0001CF25FC
:10460800D96EDA6A010EDA22DE508D19D8A402D0EA
:10461800010E1200000E1200CF51070DF350130FB8
:10462800D0EC5FF000018D51976F986B000E9A6F78
:10463800020E996F79EC54F097C09FF098C0A0F0E3
:104648000001CF51070DF350120FD0EC5FF00001BD
:104658008D51976F986B000E9A6F020E996F79ECD7
:1046680054F0000197519F25A16F9851A021A26F86
:10467800300ECF25D96EDA6A010EDA22DF50A36F29
:10468800A46BA151A35DA451800AA56FA251800A11
:10469800A559D8A002D0010E1200000E1200A9518F
:1046A800000AD8B48FD7010AD8B4B6D7030AD8B449
:1046B8009ED733D7DE0ECF259F6FA06B030EA023A6
:1046C8009FC091F0A0C092F0936B000E2FEC5BF0AE
:1046D80000019167010E1200A951000AD8B4EAD767
:1046E8001CD7CF51070DF350130FD0EC5FF0300EED
:1046F8000001CF25D96EDA6A010EDA22DF509F6FEA
:10470800A06B8D519F1906E18E51A019D8A402D033
:10471800010E1200000E1200CF51070DF350140FB6
:10472800D0EC5FF0300E0001CF25D96EDA6A010EA9
:10473800DA22DF509F6FA06B8D519F1906E18E51D1
:10474800A019D8A402D0010E1200000E1200CF51F9
:10475800070DF350120FD0EC5FF000018EBFDDD6CD
:104768008E5104E1030E8D5DD8A0D7D6CF51070D29
:10477800F350150FD0EC5FF0300E0001CF25D96E45
:10478800DA6A010EDA22DF509F6FA06B8D519F19F4
:1047980006E18E51A019D8A402D0010E1200000E15
:1047A8001200CF51070DF350120FD0EC5FF000014B
:1047B8008EBFB3D68E5104E1040E8D5DD8A0ADD660
:1047C800CF51070DF350160FD0EC5FF0300E0001FB
:1047D800CF25D96EDA6A010EDA22DF509F6FA06BFF
:1047E8008D519F1906E18E51A019D8A402D0010E4F
:1047F8001200000E1200A951000AD8B472D7010A9B
:10480800D8B48AD7030AD8B4A2D7010AD8B4C9D76A
:1048180084D6CF51070DF350100FD0EC5FF0000194
:104828008D51000AD8B4A9D6010AD8B4C6D6030A4D
:10483800D8B435D7010AD8B44FD7070AD8B4DBD7CC
:104848006CD6FDC1D9FFFEC1DAFF030EDF6002D0CE
:10485800000E1200010120EE02F0FD51D926FE5192
:10486800DA22DE500001B519D8A4F2D7010120EEF2
:1048780003F0FD51D926FE51DA220001B451DE18A9
:10488800D8A4E6D761D1FDC1D9FFFEC1DAFF040E75
:10489800DF601DD0B5C0A7F0B4C0A8F0010E0001BC
:1048A800A96F6F0EA3EC61F0B5C0C6F1B4C0C7F133
:1048B800710E0101C86F010EC96F010ECA6FAF0EEC
:1048C80045EC61F00101A74BA82B010E1200010174
:1048D80020EE04F0FD51D926FE51DA22DF50D0EC4B
:1048E8005FF08DC0CEF28EC0CFF20201CFAF1DD0E7
:1048F800B5C0A7F0B4C0A8F0CE5100080001A96F58
:104908006F0EA3EC61F0B5C0C6F1B4C0C7F1710E6B
:104918000101C86F010EC96F0201CE5100080101E3
:10492800CA6FAF0E45EC61F0CDD70101A54BA62BA0
:10493800B5C0C6F1B4C0C7F120EE04F0FD51D926C8
:10494800FE51DA22DF50C86FCEC2C9F1970E5DEC76
:1049580061F0010120EE04F0FD51D926FE51DA2262
:10496800DF50D8A4B2D7020E1CEC58F00001916FAA
:10497800A60E926FBE0E936F060E73EC5FF0A5D76E
:10498800FDC1D9FFFEC1DAFF050EDF600FD0B5C04B
:10499800C6F1B4C0C7F1960E0101C86F010EC96F08
:1049A800010ECA6FAF0E45EC61F08CD7010120EE05
:1049B80005F0FD51D926FE51DA22DF50F86F20EEBE
:1049C80004F0FD51D926FE51DA22DF507DEC56F075
:1049D8000201CC6FCC51CE6FCF6BCFBF0FD0CF5170
:1049E80003E1CE05D8A00AD0B5C0A7F0B4C0A8F09E
:1049F800CEC2A9F06F0EA3EC61F064D7B5C0A7F0E2
:104A0800B4C0A8F0590E15EC61F0B5C0C6F1B4C039
:104A1800C7F1960E0101C86F010EC96F000ECA6F6B
:104A2800AF0E45EC61F051D7FDC1D9FFFEC1DAFFE9
:104A3800050EDF600FD0B5C0C6F1B4C0C7F18E0E49
:104A48000101C86F010EC96F010ECA6FAF0E45ECA8
:104A580061F038D7010120EE05F0FD51D926FE514D
:104A6800DA22DF50F86F20EE04F0FD51D926FE510E
:104A7800DA22DF507DEC56F00201CC6FCC51CE6FBC
:104A8800CF6BCFBF1DD0CF5103E1CE05D8A018D032
:104A9800B5C0A7F0B4C0A8F0CEC2A9F06F0EA3ECC1
:104AA80061F0B5C0C6F1B4C0C7F18E0E0101C86F80
:104AB800010EC96FCEC2CAF1AF0E45EC61F002D744
:104AC800010120EE04F0FD51D926FE51DA22DF5013
:104AD800D0EC5FF08DC0CEF28EC0CFF20201CFAF26
:104AE8001DD0B5C0A7F0B4C0A8F0CE510008000191
:104AF800A96F6F0EA3EC61F0B5C0C6F1B4C0C7F1E1
:104B08008E0E0101C86F010EC96F0201CE51000857
:104B18000101CA6FAF0E45EC61F0D4D6B5C0C6F13D
:104B2800B4C0C7F1010120EE04F0FD51D926FE51B1
:104B3800DA22DF50C86FCEC2C9F1970E5DEC61F082
:104B48000101A54BA62BC1D6010120EE01F0FD51B4
:104B5800D926FE51DA22DF500201CC6FCD6BCD5140
:104B6800000AD8A475D6CC51710AD8B48CD6FF0ADD
:104B7800D8B45AD7180AD8B403D76AD67698A90EE3
:104B880000018D6F010E8E6F92EC5FF00009D8A4C2
:104B980050D10F0120B74DD10001B951D8A407D089
:104BA800B751D8A404D0010EB76F010EB96F76883B
:104BB8009AC0D9FF9BC0DAFF080EDF6406D09AC0FE
:104BC800D9FF9BC0DAFF080EDF6E20EE01F09A5184
:104BD800D9269B51DA22DF509C6F9D6B290E9C25AC
:104BE800F66EED0E9D21F76EF86A000EF8220800A9
:104BF800F5509E6F9F6B860E9E25F66EEE0E9F21DA
:104C0800F76EF86A000EF8220800F5CFA0F0B9395F
:104C1800E8461F0B0F0BA0110F01216FB9C09CF0C4
:104C2800070E00019C17050E9D6FD8909C379D2F8D
:104C3800FCD79C510F01226F000120EE01F09A5120
:104C4800D9269B51DA22DF500F01266F000120EE92
:104C580002F09A51D9269B51DA22DF500F01276FB3
:104C6800000120EE03F09A51D9269B51DA22DF5039
:104C78000F01286F000120EE04F09A51D9269B51AC
:104C8800DA22DF500F01296F000120EE05F09A515A
:104C9800D9269B51DA22DF500F012A6F000120EE3E
:104CA80006F09A51D9269B51DA22DF500F012B6F5B
:104CB800000120EE07F09A51D9269B51DA22DF50E5
:104CC8000F012C6F000120EE08F09A51D9269B5154
:104CD800DA22DF500F012D6F9AC0D9FF9BC0DAFF8F
:104CE800DF500F0B256F20870101724B732B0001DA
:104CF80020EE01F09A51D9269B51DA22DF509FEC21
:104D080062F00009D8B41200080E55EC58F00009FA
:104D1800D8B41200260E00018D6FDBEC46F08DC072
:104D2800A2F08EC0A3F00001A251A311D8A406D00E
:104D38000101764B772B59EC64F0120020EE01F05C
:104D48009A51D9269B51DA2210EE01F0A251E126A0
:104D5800A351E222DFCFE7FF9AC0D9FF9BC0DAFF59
:104D6800A2C0E1FFA3C0E2FFDFCFE7FF20EE02F021
:104D78009A51D9269B51DA2210EE02F0A251E1266F
:104D8800A351E222DFCFE7FF20EE03F09A51D926A4
:104D98009B51DA2210EE03F0A251E126A351E22240
:104DA800DFCFE7FF20EE04F09A51D9269B51DA2293
:104DB80010EE04F0A251E126A351E222DFCFE7FF73
:104DC80020EE05F09A51D9269B51DA2210EE05F013
:104DD800A251E126A351E222DFCFE7FF20EE06F041
:104DE8009A51D9269B51DA2210EE06F0A251E126FB
:104DF800A351E222DFCFE7FF20EE07F09A51D92630
:104E08009B51DA2210EE07F0A251E126A351E222CB
:104E1800DFCFE7FF20EE08F09A51D9269B51DA221E
:104E280010EE08F0A251E126A351E222DFCFE7FFFE
:104E38001200A90E00018D6F010E8E6F9AC08FF0BF
:104E48009BC090F0FBEC1EF00009D8A407D001012C
:104E5800704B712B59EC64F07688120049EC64F0C1
:104E68000001A16FA1510101885D000E8959D8B0D8
:104E780003D0A1C088F1896B768812000101C66F42
:104E88000F0E0101C66501D01200C651070DF3507F
:104E9800100FD0EC5FF000018D510101C56F60D09B
:104EA800C651070DF350110FD0EC5FF000018DA52E
:104EB80018D0DE0E0101C625BF6FC06B030EC023DC
:104EC800BFC191F0C0C192F00001936B000E2FECAE
:104ED8005BF000019151976F0101C651A7EC53F0A7
:104EE80022D10101C651070DF350110FD0EC5FF02C
:104EF80000018DBB05D0000E0101C36F020E04D066
:104F0800000E0101C36F010EC26FC2C1C4F1C4C15A
:104F180097F0C651A7EC53F0DE0E0101C625BF6F0E
:104F2800C06B030EC023BFC1A4F0C0C1A5F000012F
:104F3800A66BC4C1A7F0000EBFEC5DF0F4D0C6515B
:104F4800070DF350110FD0EC5FF000018D51100BDD
:104F58000101C16FC1C197F0C651A7EC53F0E3D06E
:104F6800C551010AD8B49CD7030AD8B4E8D7010AB6
:104F7800D8B4E5D7D8D0C551D8B408D0050EC519CE
:104F8800D8B404D0060EC519D8A41ED0C651040D35
:104F9800020EF326000EF422290EF324F66EEE0E0E
:104FA800F420F76EF86A000EF8220800F5CFBFF17A
:104FB800010EC06FBF2B02D0D890C037BF2FFCD7CF
:104FC8000101C05192121200C651040D020EF326BF
:104FD800000EF422290EF324F66EEE0EF420F76E7E
:104FE800F86A000EF8220800F5CFBFF1010EC06F75
:104FF800BF2B02D0D890C037BF2FFCD70101C051BA
:10500800FF0A92161200C551D8B408D0050EC5196A
:10501800D8B404D0060EC519D8A41ED0C651040DA4
:10502800020EF326000EF422290EF324F66EEE0E7D
:10503800F420F76EF86A000EF8220800F5CFBFF1E9
:10504800010EC06FBF2B02D0D890C037BF2FFCD73E
:105058000101C05193121200C651040D020EF3262D
:10506800000EF422290EF324F66EEE0EF420F76EED
:10507800F86A000EF8220800F5CFBFF1010EC06FE4
:10508800BF2B02D0D890C037BF2FFCD70101C05129
:10509800FF0A93161200C551D8B408D0050EC519D9
:1050A800D8B404D0060EC519D8A41ED0C651040D14
:1050B800020EF326000EF422290EF324F66EEE0EED
:1050C800F420F76EF86A000EF8220800F5CFBFF159
:1050D800010EC06FBF2B02D0D890C037BF2FFCD7AE
:1050E8000101C05194121200C651040D020EF3269C
:1050F800000EF422290EF324F66EEE0EF420F76E5D
:10510800F86A000EF8220800F5CFBFF1010EC06F53
:10511800BF2B02D0D890C037BF2FFCD70101C05198
:10512800FF0A941612000101C651040D010EF32660
:10513800000EF422290EF324F66EEE0EF420F76E1C
:10514800F86A000EF8220800F550410AD8B413D7BF
:10515800030AD8B458D7010AD8A412009CD7000E65
:105168000001CE6F0F0ECE6501D01200CE51070D93
:10517800F350100FD0EC5FF000018D518E11D8A4C0
:1051880056D1CE51CDEC40F00101D36F940E000101
:10519800CE25D96EDA6A020EDA220101D351DE1861
:1051A800D8B43DD1000ED26F940E0001CE25D96E31
:1051B800DA6A020EDA22DF50D8B41ED0CE51070DBB
:1051C800F350120FD0EC5FF0840E0001CE25D96E9B
:1051D800DA6A020EDA22DF500101D06FD16B0001CA
:1051E8008D510101D01908E100018E510101D11939
:1051F800D8A402D0010ED26F940E0001CE25D96E2C
:10520800DA6A020EDA22DF50D8A41ED0CE51070D7A
:10521800F350130FD0EC5FF0840E0001CE25D96E49
:10522800DA6A020EDA22DF500101D06FD16B000179
:105238008D510101D01908E100018E510101D119E8
:10524800D8A402D0010ED26F0101D251D8B4DED059
:10525800840E0001CE25D96EDA6A020EDA22DF6AE0
:10526800940ECE25D96EDA6A020EDA22D3C1DFFF98
:10527800CE51070DF350110FD0EC5FF000018DB146
:1052880008D00101D351D8A402D0010E01D0000EDC
:10529800D36F0001CE51070DF350110FD0EC5FF022
:1052A80000018DA931D00101D351D8B4C0D0B40EBA
:1052B8000001CE25D96EDA6A020EDA22B40ECE25A6
:1052C800E16EE26A020EE222E750D8A402D0010E93
:1052D80001D0000EDF6EDE0ECE250101D06FD16B3E
:1052E800030ED123D0C1A4F0D1C1A5F00001A66B53
:1052F800B40ECE25D96EDA6A020EDA22DF50A76F15
:10530800000EBFEC5DF008D0B40ECE25D96EDA6A77
:10531800020EDA22D3C1DFFF0001CE51070DF35090
:10532800110FD0EC5FF000018DA73FD0B40ECE2551
:10533800D96EDA6A020EDA22DF50D8B41BD0CE5109
:10534800070DF350110FD0EC5FF000018DAD09D0BF
:10535800000EA86FCE51040DF350080F62EC4CF00C
:1053680066D0010EA86FCE51040DF350080F62EC01
:105378004CF05DD0CE51070DF350110FD0EC5FF01B
:1053880000018DAD09D0000EA86FCE51040DF35069
:10539800090F62EC4CF04BD0010EA86FCE51040DF2
:1053A800F350090F62EC4CF042D0CE51070DF35088
:1053B800110FD0EC5FF000018DAD14D0B40ECE25E6
:1053C800D96EDA6A020EDA22DF50D8A402D0010EB2
:1053D80001D0000EA86FCE51040DF350080F62ECF7
:1053E8004CF025D0B40ECE25D96EDA6A020EDA2238
:1053F800DF50D8B402D0010E01D0000EA86FCE51F4
:10540800040DF350080F62EC4CF011D0840E00012B
:10541800CE25D96EDA6A020EDA22DF2A08D0840E87
:105428000001CE25D96EDA6A020EDA22DF6A00019F
:10543800CE2B98D677980F0120B75AD1A90E000124
:10544800606F010E616F71EC4FF060C073F061C066
:1054580074F0000173517411D8B43CD120EE01F0FE
:105468007351D9267451DA22DF506C6F6D6B290E97
:105478006C25F66EED0E6D21F76EF86A000EF822B7
:105488000800F5506E6F6F6B860E6E25F66EEE0E89
:105498006F21F76EF86A000EF8220800F5CF70F059
:1054A800B939E8461F0B0F0B70110F01216FB9C0F6
:1054B8006CF0070E00016C17050E6D6FD8906C37F5
:1054C8006D2FFCD76C510F01226F000120EE01F007
:1054D8007351D9267451DA22DF500F01266F00016B
:1054E80020EE02F07351D9267451DA22DF500F01F1
:1054F800276F000120EE03F07351D9267451DA2288
:10550800DF500F01286F000120EE04F07351D926F7
:105518007451DA22DF500F01296F000120EE05F0E7
:105528007351D9267451DA22DF500F012A6F000116
:1055380020EE06F07351D9267451DA22DF500F019C
:105548002B6F000120EE07F07351D9267451DA222F
:10555800DF500F012C6F000120EE08F07351D9269F
:105568007451DA22DF500F012D6F73C0D9FF74C058
:10557800DAFFDF50256F9BEC5CF060C015F061C06E
:1055880016F062C017F063C018F0000E0001B86F83
:105598000F01208776880101724B732B000120EEE2
:1055A80001F07351D9267451DA22DF50C7EC62F04A
:1055B8000009D8B41200260E0001606FADEC47F068
:1055C80060C071F061C072F0000171517211D8A40D
:1055D80006D00101764B772B5FEC64F0120020EEC9
:1055E80001F07351D9267451DA2210EE01F071518D
:1055F800E1267251E222DFCFE7FF73C0D9FF74C002
:10560800DAFF71C0E1FF72C0E2FFDFCFE7FF20EEF3
:1056180002F07351D9267451DA2210EE02F071515A
:10562800E1267251E222DFCFE7FF20EE03F073514B
:10563800D9267451DA2210EE03F07151E126725125
:10564800E222DFCFE7FF20EE04F07351D926745130
:10565800DA2210EE04F07151E1267251E222DFCF16
:10566800E7FF20EE05F07351D9267451DA2210EEC7
:1056780005F07151E1267251E222DFCFE7FF20EEFB
:1056880006F07351D9267451DA2210EE06F07151E2
:10569800E1267251E222DFCFE7FF20EE07F07351D7
:1056A800D9267451DA2210EE07F07151E1267251B1
:1056B800E222DFCFE7FF20EE08F07351D9267451BC
:1056C800DA2210EE08F07151E1267251E222DFCFA2
:1056D800E7FF1200000E156E000E166E000E176E14
:1056E800000E186E000E0F01206F77987698120042
:1056F8007798768812000101DF6F030E0101D8192F
:10570800D8A458D0DF51070DF350130FD0EC5FF039
:10571800200E0101DF25D96EDA6A010EDA220001B6
:105728008DC0DFFFA40E0101DF25D96EDA6A020EF3
:10573800DA22010EDF6EDF51070DF350110F200B37
:10574800D0EC5FF000018D518E11D8A402D0010E6B
:1057580001D0000E916F0101DF51BCEC37F0DE0E75
:105768000101DF25D96FDA6B030EDA23D9C1A4F062
:10577800DAC1A5F00001A66BD8C1A7F0000EBFECF6
:105788005DF0010E0101D06FDF51070DF350110FCD
:10579800D0EC5FF000018D51400B0101D16F010E7B
:1057A800D26F010ED36FDF51040DF350080F56EC82
:1057B8005EF01200200EDF25D96EDA6A010EDA22B9
:1057C800DF6AD805D8A402D0010E01D0000EDE6F22
:1057D800DF51070DF350110FD0EC5FF000018DA1E0
:1057E80008D00101DE51D8A402D0010E01D0000E6C
:1057F800DE6F0101DE51D8A415D0DF51070DF3503B
:10580800120FD0EC5FF000018D518E11D8B40AD080
:10581800A40E0101DF25D96EDA6A020EDA22010E22
:10582800DF6E12000101DE51D8B438D0DF51070D08
:10583800F350120FD0EC5FF000018D518E11D8B4E7
:105848002DD0A40E0101DF25D96EDA6A020EDA2204
:10585800DF50D8A423D0DF51070DF350120FD0EC3E
:105868005FF0A40E0101DF25D96EDA6A020EDA2292
:1058780000018DC0DFFFDE0E0101DF25D96FDA6B75
:10588800030EDA23D9C1A4F0DAC1A5F00001A66B92
:10589800020EA76F000EBFEC5DF025D0A40E01012B
:1058A800DF25D96EDA6A020EDA22010EDF6EDE51CA
:1058B800D8A404D0000EDC6F020E03D0000EDC6FFB
:1058C800010EDB6FDE0EDF25D96FDA6B030EDA23EC
:1058D800D9C1A4F0DAC1A5F00001A66BDBC1A7F01D
:1058E800000EBFEC5DF0DEC1DDF10101DF51070DF7
:1058F800F350110FD0EC5FF000018DAB08D001011F
:10590800DD51D8A402D0010E01D0000EDD6FDDC13B
:1059180091F00101DF51BCEC37F00101DF51070DB7
:10592800F350110FD0EC5FF000018DA721D00101D9
:10593800DE51D8B41200DE51D8B402D0010E01D025
:10594800000ED06FDF51070DF350110FD0EC5FF050
:1059580000018D51400B0101D16F010ED26F010E74
:10596800D36FDF51040DF350080F56EC5EF01200B0
:105978000101DE51D8B402D0010E01D0000ED06F63
:10598800DF51070DF350110FD0EC5FF000018D517E
:10599800400B0101D16F010ED26F010ED36FDF51A1
:1059A800040DF350080F56EC5EF012000001A76FCB
:1059B8000001A751070DF350120FD0EC5FF08DC016
:1059C8009FF08EC0A0F00001A751070DF350130FF0
:1059D800D0EC5FF000018D519F5DD8B002D0010E70
:1059E80001D0000EA56F16D1A751070DF350120F65
:1059F800D0EC5FF000018D51976F986B000E9A6F95
:105A0800020E996F79EC54F097C09FF098C0A0F0FF
:105A18000001A751070DF350130FD0EC5FF0000100
:105A28008D51976F986B000E9A6F020E996F79ECF3
:105A380054F0000197519F25A66FA551D8B428D0DE
:105A4800A751070DF350150FD0EC5FF0300E000191
:105A5800A725D96EDA6A010EDA228D51DF5E300E83
:105A6800A725D96EDA6A010EDA22DE50A65DD8A023
:105A7800E9D0440EA725D96EDA6A020EDA22010EA1
:105A8800DF6EA751070DF350160FD0EC5FF027D04B
:105A9800A751070DF350150FD0EC5FF0300E000141
:105AA800A725D96EDA6A010EDA228D51DF26300E6B
:105AB800A725D96EDA6A010EDA22A651DE5CD8A0D3
:105AC800C1D0440EA725D96EDA6A020EDA22010E79
:105AD800DF6EA751070DF350160FD0EC5FF00001F1
:105AE8008D519F6FA06BA751020D000EF324D96E44
:105AF800020EF420DA6E9FC0DEFFA0C0DDFFA2D048
:105B0800A751020D000EF324D96E020EF420DA6EAE
:105B1800DE50DE10D8A408D0440EA725D96EDA6A64
:105B2800020EDA22020EDF6EA751020D000EF324D8
:105B3800D96E020EF420DA6EDE06000EDD5A82D02F
:105B4800A551D8B438D0A751070DF350150FD0EC94
:105B58005FF0300E0001A725D96EDA6A010EDA224D
:105B68008D51DF5E300EA725D96EDA6A010EDA2272
:105B7800DF509F6FA06BA751010FD96EDA6ADF5013
:105B8800A16FFD0EA125A26FA36BFF0EA3239F514A
:105B9800A25DA351800AA46FA051800AA459D8A07D
:105BA80051D0440EA725D96EDA6A020EDA22030E06
:105BB800DF6E010E1200A751070DF350150FD0EC40
:105BC8005FF0300E0001A725D96EDA6A010EDA22DD
:105BD8008D51DF26A751010FD96EDA6ADF509F6F0A
:105BE800FD0E9F25A06FA16BFF0EA123300EA725E8
:105BF800D96EDA6A010EDA22DF50A26FA36BA051C8
:105C0800A25DA351800AA46FA151800AA459D8B0FB
:105C1800C8D718D0440EA725D96EDA6A020EDA2240
:105C2800DF509F6FA06BA051000AD8A40BD09F51E2
:105C3800000AD8B4D9D6010AD8B462D7030AD8B4AE
:105C48007FD7010A000E120077980F0120B744D1C0
:105C5800A90E2B6E010E2C6EC6EC4FF02BC03EF039
:105C68002CC03FF03E503F10D8B428D120EE01F0B0
:105C78003E50D9263F50DA22DF50376E386A290E57
:105C88003724F66EED0E3820F76EF86A000EF8220B
:105C98000800F550396E3A6A860E3924F66EEE0E13
:105CA8003A20F76EF86A000EF8220800F5CF3BF0AC
:105CB8000001B939E8461F0B0F0B3B100F01216F8C
:105CC800B9C037F0070E3716050E386ED89037363C
:105CD800382EFCD73750226F20EE01F03E50D926DF
