:04000000FEEF03F01C
:0400080004EF04F00D
:040018000CEF04F0F5
:10002E0000370800F5501200380E0001456FF80E2B
:10003E004117408140B1FED7070E411346511200C1
:10004E00246E010103512418F80B2418036F023992
:10005E00E832070B2418D8B41200F9D70001415129
:10006E00F80B0609416F550E426FAA0E426F408182
:10007E0040B1FED7070E41131200246E000140B1AD
:10008E00FDD724C546F0000E476F4151F80B03090A
:10009E00416F550E426FAA0E426F4081070E4113FB
:1000AE0012002E0EF66E000EF76E000EF86E0900A0
:1000BE00F5C438F50900F5C439F501EE01F1230E4A
:1000CE00EE6AE806FDE100018CEF01F0000E106E05
:1000DE00000E0F6E000E0F24D96E370E1020DA6E42
:1000EE00FF0EDF6E0F4A102A1004D8A0F3D7000EB1
:1000FE001B6E000E1A6E000E196E1200246E380E54
:10010E000001456F24C546F04151F80B0309416FBC
:10011E00550E426FAA0E426F408140B1FED7070EB8
:10012E0041131BEC00F02418D8B41200E8D7080EC7
:10013E001A6003D01950D8B412001BC543F01AC56B
:10014E0044F019C545F035EC00F04151F80B0509A6
:10015E00416F550E426FAA0E426F408140B1FED7DD
:10016E00070E41131200246E0BC5D9F40CC5DAF438
:10017E00DF6A20EE01F00B50D9260C50DA22240E45
:10018E00DF6E20EE02F00B50D9260C50DA22DF6A19
:10019E0020EE03F00B50D9260C50DA22DF6A2450E1
:1001AE00D8B409D020EE01F00B50D9260C50DA222B
:1001BE00000EDB8608D020EE01F00B50D9260C5035
:1001CE00DA22F70EDF16030E010169131200460E36
:1001DE0002010B6F0B0E3D6FC794C786000E030115
:1001EE00676F0101018F040E27EC00F0000E4C6FBB
:1001FE00380E4D6F000E4E6F000E4F6F000E006FDB
:10020E00870E016F100E026F500E036F000E046FFB
:10021E00030E056F020E066F3F0E076F800E686F9E
:10022E00040E696F600E6A6F5F0E6B6F080E746F4F
:10023E00040E756F000E766F5F0E776F400E8F6F28
:10024E00400E936F830E806F060E27EC00F01200A7
:10025E00346E1A50256E246A1950286E276A266A43
:10026E0024502610296E255027102A6E000E25BE0A
:10027E00FF0E28102B6E000144512D6E2C6A455135
:10028E00306E2F6A2E6A2C502E10316E2D502F107C
:10029E00326E000E2DBEFF0E3010336E2950311807
:1002AE0007E12A50321804E12B503318D8B424D069
:1002BE0043C018F544C017F545C016F59EEC00F086
:1002CE00000E1B6E17C51AF516C519F5000140B1C3
:1002DE00FDD719C545F01AC544F01BC543F0415171
:1002EE00F80B0209416F4081070E411318C543F008
:1002FE0017C544F016C545F0000E4325D96EDA6ACF
:10030E00370EDA2234C5DFF41200100E3A6E000EEC
:10031E000401006F000E086FC79EC79CC684380E7E
:10032E000001456F030E446F43691BEC00F000099A
:10033E00D8B4CEA402D000EF04F0CEB421D0000E7B
:10034E00016E000E026E000E036E000E046E16D0CD
:10035E000450031004E10128FF0E0258D8B000EF3C
:10036E0004F0000E116E01D0112A060E1164FCD796
:10037E00010E0126000E022203220422CEA4E8D78B
:10038E00400E3A6E0001AD518F0B2009AD6F000E7D
:10039E00216E1C0E206EC79CC79EBF8CBF8EEEECCE
:1003AE0000F06DEC00F0000E086E000E076E0400FB
:1003BE00010178A1FDD77CC10DF57DC10EF520EEB2
:1003CE0004F00D50D9260E50DA22DF500F0B156EA9
:1003DE0020EE01F00D50D9260E50DA22DFA67CD188
:1003EE001EC545F01DC544F01CC543F020A60AD01D
:1003FE001550356E366A376A35501C2636501D221A
:10040E0037501E22020E1E6074D020EE01F00D50E9
:10041E00D9260E50DA22DFA82FD06CA1FED770C1DC
:10042E000BF571C10CF5000E146E14500B24356EC5
:10043E00000E0C20366E080E3524D96E000E3620B6
:10044E00DA6E18EC00F0DF6EF62AF650D8A404D05F
:10045E00F72AF750D8B4F82A142A080E1464E5D7F0
:10046E0020EE04F00B50D9260C50DA22180EDF6E57
:10047E00010EBAEC00F03DD000014551D8A403D0D6
:10048E00070E446536D020A203D035EC00F031D0F3
:10049E00000E146E2AD014500D24356E000E0E2050
:1004AE00366E080E3524D96E000E3620DA6EDF5009
:1004BE002FEC01F014500D24356E000E0E20366E0A
:1004CE00080E3524D96E000E3620DA6EDF50376EE8
:1004DE0037500726000E0822432B4351D8A404D0D0
:1004EE00442B4451D8B4452B142A1550145CD8A073
:1004FE00D2D7300E1E18D8A466D020EE01F00D50C3
:10050E00D9260E50DA22DFA830D001016CA1FDD71A
:10051E0070C10BF571C10CF5000E146E14500B2446
:10052E00356E000E0C20366E080E3524D96E000E78
:10053E003620DA6E18EC00F0DF6EF62AF650D8A4EC
:10054E0004D0F72AF750D8B4F82A142A080E1464E7
:10055E00E5D720EE04F00B50D9260C50DA22180EF7
:10056E00DF6E010EBAEC00F02ED0000E146E27D006
:10057E00040014500D24356E000E0E20366E080E3B
:10058E003524D96E000E3620DA6EDF5044EC00F0C2
:10059E0014500D24356E000E0E20366E080E3524C6
:1005AE00D96E000E3620DA6EDF50376E37500726C2
:1005BE00000E0822F62AF650D8B4F72A142A15503F
:1005CE00145CD8A0D5D7380E1E18D8A461D020EE52
:1005DE0001F00D50D9260E50DA22DFA82CD00101E1
:1005EE006CA1FDD770C10BF571C10CF5000E146E28
:1005FE0014500B24356E000E0C20366E080E35246A
:10060E00D96E000E3620DA6E1BEC00F0DF6E432B37
:10061E004351D8B4442B142A080E1464E9D720EEA3
:10062E0004F00B50D9260C50DA22180EDF6E010E94
:10063E00BAEC00F02DD0000E146E26D014500D24FE
:10064E00356E000E0E20366E080E3524D96E000E55
:10065E003620DA6EDF5085EC00F014500D24356E26
:10066E00000E0E20366E080E3524D96E000E362082
:10067E00DA6EDF50376E37500726000E0822432BF6
:10068E004351D8B4442B142A1550145CD8A0D6D795
:10069E0020EE01F00D50D9260E50DA22DFA820A848
:1006AE009CD001016CA1FDD770C10BF571C10CF589
:1006BE0020EE08F00B50D9260C50DA22010EDF6E18
:1006CE0020EE04F00B50D9260C50DA22110EDF6EFC
:1006DE00000EBAEC00F081D09EEC00F01C0E096EFC
:1006EE00050E0A6E080E0D24056E000E0E20066E07
:1006FE00000E146E0FD005C5D9F406C5DAF409C57F
:10070E00E1F40AC5E2F4DFC4E7F4094A0A2A054A0D
:10071E00062A142A1550145CD8A0EDD72104D8A4AB
:10072E000CD0380E0001456F030E446F4369000E66
:10073E0085EC00F0BF9CBF9EFF00020E2118D8A4CE
:10074E0004D0000E086E000E076E030E2118D8A4FA
:10075E0026D001016CA1FDD770C10BF571C10CF54E
:10076E0020EE08F00B50D9260C50DA220750222426
:10077E00356E08502320366E35503610D8A402D070
:10078E00010E01D0000EDF6E20EE04F00B50D926C4
:10079E000C50DA22110EDF6E000EBAEC00F0040ED1
:1007AE002118D8A41AD001016CA1FDD770C10BF588
:1007BE0071C10CF520EE08F00B50D9260C50DA2240
:1007CE00020EDF6E20EE04F00B50D9260C50DA220A
:1007DE00110EDF6E000EBAEC00F001017581E7D547
:0D07EE00424C5F56455253494F4E3D0302A9
:0807FC0058EF00F001EF05F0D9
:10082000A56220FF147F040B1701000800000000E0
:1008300000000102000000001400480800004F03FF
:080848004D494F202020200043
:10090000DF02DF02DF02DF02DF02DF02E176DF0269
:10091000DF02DF02DF02DF02DF02DF02DF02DF02CF
:10092000DF02DF02DF02DF02DF02DF02DF02DF02BF
:10093000DF02DF02DF02DF029775DF02DF02D97715
:10094000DF02DF02DF02DF02DF02DF02DF02DF029F
:10095000DF02DF02DF02DF025975DF02DF02DF02A2
:10096000DF02DF02DF02DF02DF02DF02DF02DF027F
:10097000DF02DF02DF02DF028002DF02DF02DF02CE
:10098000DF02DF02DF02DF02DF02DF02DF02DF025F
:10099000DF02DF02DF02DF028002DF02DF02DF02AE
:1009A000DF02DF02DF02DF02DF02DF02DF02DF023F
:1009B000DF02DF02DF02DF02DF02DF02DF02DF022F
:1009C000DF02DF02DF02DF02DF02DF02DF02DF021F
:1009D000DF02DF02DF02DF02DF02DF02DF02DF020F
:1009E0008002DF02DF02DF02DF02DF02DF02DF025E
:1009F000DF02DF02DF02DF02DF02DF02DF02DF02EF
:100A0000FF0009EFE3F0196E0CEF05F0020E13EF93
:100A100005F0000E13EF05F01950010AD8B406EFE7
:100A200005F009EF05F012000501675166196B6FBB
:100A3000695168196A6F6B51070DF3506A256B6F26
:100A40001F0E6B176B511200040E7BECE2F01D6E53
:100A5000B20E1E6ECA0E1F6E010E206E020E76ECD6
:100A6000E9F01200050E7BECE2F01D6E640E1E6EC6
:100A7000920E1F6E010E206E010E76ECE9F0120050
:100A80003F6AFE0E266E030E276E000E286E3FC5CF
:100A900029F5000E15ECE9F0120039ECEFF0000931
:100AA000D8A455EF05F058EF05F0010E59EF05F009
:100AB000000E120078C573F579C574F57AC575F521
:100AC000060E0501766FD0ECDFF01200376A000EDB
:100AD000306E080E316E000E326EF86A0001419FD2
:100AE00012000601CF29D8B478EF05F07AEF05F0AF
:100AF0007BEF05F0CF2B1200000E0601906F000E69
:100B0000916F000E926F000E936F1200010169B396
:100B10008CEF05F08EEF05F086EF05F0120019500E
:100B2000010AD8B496EF05F096EF05F01200196EA1
:100B300019C5ECF51200010E0501FC6F1200000E44
:100B40001DECD4F01200196E19041200196E192848
:100B50001200B9ECC3F012000501FC6B12005DEC51
:100B6000EAF0120088ECEAF0120038681200000E79
:0A0B70001200000E12001200120025
:020B7C00110066
:10FDA8000001010302020202030202030100000132
:10FDB800010101010101010101010101010101012B
:10FDC800010101010101010101010101010101011B
:10FDD800010101010101010101010101010101010B
:10FDE8000001010101010101010100010100000000
:10FDF80000000000000000000000000000000101F9
:10FE080001010103010101010101010100000000DC
:10FE180000000000010001010101010100010101D0
:10FE280001010101000101010101010001000000BF
:10FE380000000000000000000000000000010101B7
:10FE480001010101010101010000010100000000A0
:10FE58000000000001000001010100000001010193
:10FE6800010101010001010101010101010000007E
:10FE78000000000101000001010100000001010073
:10FE88000101010000010001010101010000000061
:10FE98000000000000000000000000010000000059
:10FEA8000000060404000000010600000000000233
:10FEB800068080EBEB000306807F40033C040603CA
:10FEC80080808000050680100000000606007B2068
:10FED80007FF0706050000000008000000000000FA
:10FEE80000000000000000000000000000000B43BC
:10FEF80000FF0C4301FF0D4302FF0E4303FF0F43B6
:10FF080004FF104305FF114306FF124307FF154284
:10FF1800000A16420108194204091A4205FF034162
:10FF28000101024100000541030307410504E2FF06
:10FF3800CEFFBAFFA6FF92FF7EFF6AFF56FF424C34
:10FF48005F56455253494F4E3D0B0A0908000801B8
:10FF58000000000000000000000000000000000099
:10FF680000000501000000AEDA013676010000004D
:10FF78009EDE014ADC0106020000009ED701B6326F
:10FF880001000000C8DE01DADC010402640B004253
:10FF9800D901962A010000001ADC010ADD010A03D2
:10FFA80000000052A70114C20100000050DB01004C
:10FFB8000000020282D9013CDA014A620100000015
:10FFC800D2DF017ADC01010224D001769601F21118
:10FFD80001224401000000AADC010302800A002279
:10FFE8008E01E0AA01520B00060A00B2BD010452BC
:08FFF80001A07D010C0B0000CB
:020000040001F9
:100000000501856B31EF88F005018551070DF3502F
:10001000120F05ECEBF019501D6E1E6A000E206EDB
:10002000020E1F6E47ECDAF01DC57AF51EC57BF592
:1000300005018551070DF350130F05ECEBF0195036
:100040001D6E1E6A000E206E020E1F6E47ECDAF067
:100050001D5005017A25846F836B04EF83F0855171
:10006000070DF350120F05ECEBF0CF0E05018525BF
:10007000D96EDA6A050EDA22DF507A6F7B6B19507F
:100080007A1907E11A507B19D8A449EF80F04BEF99
:1000900080F064EF80F08551070DF350110F05ECEF
:1000A000EBF019BC56EF80F059EF80F0010E5AEFDB
:1000B00080F0000E0501726F8551040DF350080F9A
:1000C00043ECD1F07BEF80F08551070DF350110F19
:1000D00005ECEBF019BC6FEF80F072EF80F0010ED1
:1000E00073EF80F0000E0501726F8551040DF3501F
:1000F0000A0F43ECD1F0300E05018525D96EDA6A7E
:10010000060EDA22020EDF6E400E8525D96EDA6AFF
:10011000060EDA22CF0E8525E16EE26A050EE22296
:10012000DE50E65CD8B097EF80F099EF80F07FEF7B
:1001300081F0CF0E8525D96EDA6A050EDA22845158
:10014000DE5CD8B0A6EF80F0A8EF80F0AAEF80F0D8
:10015000010E836F200E8525D96EDA6A060EDA222B
:10016000DF50D8B4B6EF80F0B8EF80F0F4EF80F055
:10017000CF0E8525D96EDA6A050EDA22200E852586
:10018000E16EE26A060EE222E7507B6FCF0E852514
:10019000E16EE26A050EE222E7507B257C6FDE50BD
:1001A0007C5DD8B0D6EF80F0D8EF80F0E2EF80F041
:1001B000CF0E8525D96EDA6A050EDA22FF0EDF6EC4
:1001C0002CEF81F0200E8525D96EDA6A060EDA2230
:1001D000DF507A6FCF0E8525D96EDA6A050EDA22E6
:1001E0007A51DF262CEF81F0840E8525D96EDA6AEC
:1001F000070EDA22DF06840E8525D96EDA6A070E2D
:10020000DA22DF50D8A407EF81F009EF81F02CEF5C
:1002100081F0CF0E8525D96EDA6A050EDA22DE2846
:10022000D8B415EF81F017EF81F01EEF81F0CF0EFB
:100230008525D96EDA6A050EDA22DF2A940E852525
:10024000D96EDA6A070EDA22840E8525E16EE26A3B
:10025000070EE222DFC4E7F4CF0E8525D96EDA6AF5
:10026000050EDA22400E8525E16EE26A060EE222D4
:10027000DE50E65CD8B03FEF81F041EF81F04FEF08
:1002800081F0400E8525D96EDA6A060EDA22CF0E8D
:100290008525E16EE26A050EE222DFC4E7F4CF0EA7
:1002A0008525D96EDA6A050EDA228451DE5CD8A083
:1002B0005CEF81F05EEF81F06CEF82F08351D8B497
:1002C00064EF81F066EF81F06CEF82F08551070DED
:1002D000F350110F05ECEBF019AC71EF81F074EFF6
:1002E00081F0010E75EF81F0000E0501726F8551EE
:1002F000040DF350090F43ECD1F06CEF82F0CF0EF8
:100300008525D96EDA6A050EDA22400E8525E16E62
:10031000E26A060EE222DE50E65CD8B092EF81F08F
:1003200094EF81F06CEF82F0CF0E8525D96EDA6AFA
:10033000050EDA22DE50845DD8B0A1EF81F0A3EF84
:1003400081F0A5EF81F0010E836F200E8525D96E17
:10035000DA6A060EDA22DF50D8B4B1EF81F0B3EFDB
:1003600081F0E3EF81F0CF0E8525D96EDA6A050EB4
:10037000DA22200E8525E16EE26A060EE222DE50C8
:10038000E65CD8A0C6EF81F0C8EF81F0D1EF81F034
:10039000CF0E8525D96EDA6A050EDA22DF6A1BEFE9
:1003A00082F0200E8525D96EDA6A060EDA22DF5039
:1003B0007A6FCF0E8525D96EDA6A050EDA227A5168
:1003C000DF5E1BEF82F0840E8525D96EDA6A070E98
:1003D000DA22DF06840E8525D96EDA6A070EDA2264
:1003E000DF50D8A4F6EF81F0F8EF81F01BEF82F038
:1003F000CF0E8525D96EDA6A050EDA22DF50D8B421
:1004000004EF82F006EF82F00DEF82F0CF0E85252B
:10041000D96EDA6A050EDA22DF06940E8525D96ECA
:10042000DA6A070EDA22840E8525E16EE26A070E8B
:10043000E222DFC4E7F4400E8525D96EDA6A060EA3
:10044000DA22CF0E8525E16EE26A050EE222DE5049
:10045000E65CD8B02EEF82F030EF82F03EEF82F013
:10046000400E8525D96EDA6A060EDA22CF0E852572
:10047000E16EE26A050EE222DFC4E7F4CF0E8525C5
:10048000D96EDA6A050EDA22DE50845DD8A04BEF11
:1004900082F04DEF82F06CEF82F08351D8B453EFCD
:1004A00082F055EF82F06CEF82F08551070DF3502A
:1004B000110F05ECEBF019BC60EF82F063EF82F0F6
:1004C000010E64EF82F0000E0501726F8551040D7C
:1004D000F350090F43ECD1F0CF0E05018525D96EFD
:1004E000DA6A050EDA22400E8525E16EE26A060E12
:1004F000E222DE50E618D8A480EF82F082EF82F08C
:10050000D1EF88F0300E8525D96EDA6A060EDA2230
:10051000010EDF6E31ECE7F005018551040D000E90
:10052000F324D96E070EF420DA6E19C5DEF41AC56D
:10053000DEF41BC5DEF41CC5DEF48551070DF35057
:10054000120F05ECEBF0CF0E05018525D96EDA6AA6
:10055000050EDA22DF507A6F7B6B19507A1907E1AA
:100560001A507B19D8A4B7EF82F0B9EF82F0D2EF1E
:1005700082F08551070DF350110F05ECEBF019AC2B
:10058000C4EF82F0C7EF82F0010EC8EF82F0000ED8
:100590000501726F8551040DF350080F43ECD1F043
:1005A000E9EF82F08551070DF350110F05ECEBF0E8
:1005B00019ACDDEF82F0E0EF82F0010EE1EF82F0A6
:1005C000000E0501726F8551040DF3500A0F43ECC4
:1005D000D1F0050185517A6F7B6B7C6BDE0E7A253D
:1005E000266E030E7B21276E000E7C21286ECF0E17
:1005F0008525D96EDA6A050EDA22DF50296E000EE3
:1006000015ECE9F0D1EF88F0300E8525D96EDA6A65
:10061000060EDA22DF507A6F7B6B7B51000AD8B46A
:1006200014EF83F0D1EF88F07A51000AD8B44DEF7F
:1006300088F0010AD8B44DEF88F0030AD8B484EFEB
:1006400080F0010AD8B42FEF80F0D1EF88F0855107
:100650009FECEFF0300E05018525D96EDA6A060EA3
:10066000DA22020EDF6E740E8525D96EDA6A070E65
:10067000DA22DF6A740E8525D96EDA6A070EDA226D
:10068000DF2A740E8525D96EDA6A070EDA22DE2893
:10069000D8A44DEF83F04FEF83F0AAEF83F0300E34
:1006A0008525D96EDA6A060EDA22010EDF6E31EC8C
:1006B000E7F005018551040D000EF324D96E070EF5
:1006C000F420DA6E19C5DEF41AC5DEF41BC5DEF4BB
:1006D0001CC5DEF4400E8525D96EDA6A060EDA22D4
:1006E000CF0E8525E16EE26A050EE222DFC4E7F453
:1006F0008551070DF350110F05ECEBF019AC83EFAA
:1007000083F086EF83F0010E87EF83F0000E050182
:10071000726F8551040DF350080F43ECD1F00501C1
:1007200085517A6F7B6B7C6BDE0E7A25266E030E0D
:100730007B21276E000E7C21286ECF0E8525D96E79
:10074000DA6A050EDA22DF50296E000E15ECE9F0A8
:10075000D1EF88F08551070DF350120F05ECEBF047
:1007600019500501826F400E8525D96EDA6A060E92
:10077000DA228251DE18D8A4C0EF83F0C2EF83F0F2
:1007800029EF84F0855128ECB8F00009D8B4CBEFFC
:1007900083F0CDEF83F0D1EF88F0300E0501852591
:1007A000D96EDA6A060EDA22010EDF6E31ECE7F05E
:1007B00005018551040D000EF324D96E070EF420B7
:1007C000DA6E19C5DEF41AC5DEF41BC5DEF41CC5ED
:1007D000DEF4400E8525D96EDA6A060EDA22CF0ED7
:1007E0008525E16EE26A050EE222DFC4E7F4855159
:1007F000070DF350110F05ECEBF019AC02EF84F08C
:1008000005EF84F0010E06EF84F0000E0501726F13
:100810008551040DF350080F43ECD1F005018551CB
:100820007A6F7B6B7C6BDE0E7A25266E030E7B2146
:10083000276E000E7C21286ECF0E8525D96EDA6AD0
:10084000050EDA22DF50296E000E15ECE9F0D1EF2B
:1008500088F085516DECA4F00009D8B432EF84F033
:1008600034EF84F0D1EF88F0300E05018525D96E84
:10087000DA6A060EDA22010EDF6E31ECE7F00501CE
:100880008551040D000EF324D96E070EF420DA6EA4
:1008900019C5DEF41AC5DEF41BC5DEF41CC5DEF492
:1008A000400E8525D96EDA6A060EDA22CF0E85252E
:1008B000E16EE26A050EE222DFC4E7F48551070D1E
:1008C000F350110F05ECEBF019BC69EF84F06CEFFD
:1008D00084F0010E6DEF84F0000E0501726F8551FA
:1008E000040DF350080F43ECD1F0050185517A6FE8
:1008F0007B6B7C6BDE0E7A25266E030E7B21276ECA
:10090000000E7C21286ECF0E8525D96EDA6A050E81
:10091000DA22DF50296E000E15ECE9F0D1EF88F0F5
:10092000300E05018525D96EDA6A060EDA22DF500F
:100930007A6F7B6B7B51000AD8B4A1EF84F0D1EFC2
:1009400088F07A51000AD8B44DEF88F0010AD8B483
:10095000D1EF88F0030AD8B43AEF83F0010AD8B493
:1009600027EF83F0D1EF88F08551070DF350130F77
:1009700005ECEBF0CF0E05018525D96EDA6A050E80
:10098000DA22DF507A6F7B6B19507A1907E11A501F
:100990007B19D8A4CEEF84F0D0EF84F0E7EF84F099
:1009A0008551070DF350110F05ECEBF019BCDBEF8F
:1009B00084F0DEEF84F0010EDFEF84F0000E05011D
:1009C000726F8551040DF350080F43ECD1F005010F
:1009D0008551070DF350140F05ECEBF0CF0E050118
:1009E0008525D96EDA6A050EDA22DF507A6F7B6BC5
:1009F00019507A1907E11A507B19D8A402EF85F033
:100A000004EF85F01BEF85F08551070DF350110FB2
:100A100005ECEBF019BC0FEF85F012EF85F0010E3D
:100A200013EF85F0000E0501726F8551040DF35030
:100A3000090F43ECD1F005018551070DF350150F57
:100A400005ECEBF0CF0E05018525D96EDA6A050EAF
:100A5000DA22DF507A6F7B6B19507A1907E11A504E
:100A60007B19D8A436EF85F038EF85F04FEF85F08D
:100A70008551070DF350110F05ECEBF019BC43EF56
:100A800085F046EF85F0010E47EF85F0000E050179
:100A9000726F8551040DF3500A0F43ECD1F005013C
:100AA0008551070DF350160F05ECEBF0CF0E050145
:100AB0008525D96EDA6A050EDA22DF507A6F7B6BF4
:100AC00019507A1907E11A507B19D8A46AEF85F0FA
:100AD0006CEF85F083EF85F08551070DF350110F12
:100AE00005ECEBF019BC77EF85F07AEF85F0010E9D
:100AF0007BEF85F0000E0501726F8551040DF350F8
:100B00000B0F43ECD1F0300E05018525D96EDA6A62
:100B1000060EDA22020EDF6E400E8525D96EDA6AE5
:100B2000060EDA22CF0E8525E16EE26A050EE2227C
:100B3000DE50E65CD8B09FEF85F0A1EF85F047EF7F
:100B400086F0200E8525D96EDA6A060EDA22DF508D
:100B5000D8B4ADEF85F0AFEF85F0F8EF85F0CF0EAC
:100B60008525D96EDA6A050EDA22DF507A6F7B6B43
:100B7000CF0E8525D96EDA6A050EDA22DF507C6F3A
:100B80007D6B200E8525D96EDA6A060EDA22DF50DB
:100B90007E6F7E517C27000E7D237A517C5D7D51D6
:100BA000800A7F6F7B51800A7F59D8B0DAEF85F0D9
:100BB000DCEF85F0E6EF85F0CF0E8525D96EDA6A99
:100BC000050EDA22FF0EDF6E22EF86F0200E85255D
:100BD000D96EDA6A060EDA22DF507A6FCF0E8525DB
:100BE000D96EDA6A050EDA227A51DF2622EF86F014
:100BF000840E8525D96EDA6A070EDA22DF06840EA6
:100C00008525D96EDA6A070EDA22DF50D8A40BEFF9
:100C100086F00DEF86F022EF86F0CF0E8525D96E97
:100C2000DA6A050EDA22DF2A940E8525D96EDA6A91
:100C3000070EDA22840E8525E16EE26A070EE222B3
:100C4000DFC4E7F4CF0E8525D96EDA6A050EDA2205
:100C5000400E8525E16EE26A060EE222DE50E65C79
:100C6000D8B035EF86F037EF86F0F3EF86F0400E20
:100C70008525D96EDA6A060EDA22CF0E8525E16E59
:100C8000E26A050EE222DFC4E7F4F3EF86F0CF0E4E
:100C90008525D96EDA6A050EDA22400E8525E16EC9
:100CA000E26A060EE222DE50E65CD8B05AEF86F029
:100CB0005CEF86F0F3EF86F0200E8525D96EDA6AB8
:100CC000060EDA22DF50D8B468EF86F06AEF86F0BD
:100CD000B2EF86F0CF0E8525D96EDA6A050EDA22DC
:100CE000DF507A6F7B6B200E8525D96EDA6A060E8F
:100CF000DA22DF507C6F7C517A5F000E7B5BCF0E77
:100D00008525D96EDA6A050EDA22DF507D6F7E6B9B
:100D10007A517D5D7E51800A7F6F7B51800A7F59B9
:100D2000D8B095EF86F097EF86F0A0EF86F0CF0E63
:100D30008525D96EDA6A050EDA22DF6ADCEF86F0E5
:100D4000200E8525D96EDA6A060EDA22DF507A6F18
:100D5000CF0E8525D96EDA6A050EDA227A51DF5E6A
:100D6000DCEF86F0840E8525D96EDA6A070EDA226A
:100D7000DF06840E8525D96EDA6A070EDA22DF5087
:100D8000D8A4C5EF86F0C7EF86F0DCEF86F0CF0E73
:100D90008525D96EDA6A050EDA22DF06940E8525DE
:100DA000D96EDA6A070EDA22840E8525E16EE26AD0
:100DB000070EE222DFC4E7F4400E8525D96EDA6A19
:100DC000060EDA22CF0E8525E16EE26A050EE222DA
:100DD000DE50E65CD8B0EFEF86F0F1EF86F0F3EF8F
:100DE00086F037EF86F0CF0E8525D96EDA6A050ECC
:100DF000DA22400E8525E16EE26A060EE222DE501E
:100E0000E618D8A406EF87F008EF87F0D1EF88F056
:100E1000300E8525D96EDA6A060EDA22010EDF6EF3
:100E200031ECE7F005018551040D000EF324D96E75
:100E3000070EF420DA6E19C5DEF41AC5DEF41BC500
:100E4000DEF41CC5DEF48551070DF350130F05ECDD
:100E5000EBF0CF0E05018525D96EDA6A050EDA2290
:100E6000DF507A6F7B6B19507A1907E11A507B19A2
:100E7000D8A43DEF87F03FEF87F056EF87F085511C
:100E8000070DF350110F05ECEBF019AC4AEF87F0AA
:100E90004DEF87F0010E4EEF87F0000E0501726FE7
:100EA0008551040DF350080F43ECD1F00501855135
:100EB000070DF350140F05ECEBF0CF0E050185255F
:100EC000D96EDA6A050EDA22DF507A6F7B6B195021
:100ED0007A1907E11A507B19D8A471EF87F073EFE4
:100EE00087F08AEF87F08551070DF350110F05EC5D
:100EF000EBF019AC7EEF87F081EF87F0010E82EF07
:100F000087F0000E0501726F8551040DF350090F33
:100F100043ECD1F005018551070DF350150F05EC99
:100F2000EBF0CF0E05018525D96EDA6A050EDA22BF
:100F3000DF507A6F7B6B19507A1907E11A507B19D1
:100F4000D8A4A5EF87F0A7EF87F0BEEF87F0855113
:100F5000070DF350110F05ECEBF019ACB2EF87F071
:100F6000B5EF87F0010EB6EF87F0000E0501726F46
:100F70008551040DF3500A0F43ECD1F00501855162
:100F8000070DF350160F05ECEBF0CF0E050185258C
:100F9000D96EDA6A050EDA22DF507A6F7B6B195050
:100FA0007A1907E11A507B19D8A4D9EF87F0DBEF43
:100FB00087F0F2EF87F08551070DF350110F05EC24
:100FC000EBF019ACE6EF87F0E9EF87F0010EEAEFFE
:100FD00087F0000E0501726F8551040DF3500B0F61
:100FE00043ECD1F0050185517A6F7B6B7C6BDE0E93
:100FF0007A25266E030E7B21276E000E7C21286E3B
:10100000CF0E8525D96EDA6A050EDA22DF50296EF9
:10101000000E15ECE9F0D1EF88F0300E05018525C2
:10102000D96EDA6A060EDA22DF507A6F7B6B7B515B
:10103000000AD8B41EEF88F0D1EF88F07A51000A88
:10104000D8B44DEF88F0010AD8B4D1EF88F0030A84
:10105000D8B48CEF85F0010AD8B4B4EF84F0D1EFA6
:1010600088F08551070DF350100F05ECEBF01A5086
:10107000000AD8B43EEF88F0D1EF88F01950020A88
:10108000D8B404EF80F0010AD8B490EF84F0070AD6
:10109000D8B40DEF88F0D1EF88F0D1EF88F0ABEF46
:1010A00088F08551070DF350110F05ECEBF019A2F4
:1010B0005CEF88F05EEF88F0EEEF88F00501855177
:1010C000040D000EF324D96E070EF420DA6EDEC490
:1010D0007AF5DEC47BF5DEC47CF5DEC47DF531EC4B
:1010E000E7F005017A51195C7E6F7B511A587F6FCA
:1010F0007C511B58806F7D511C58816F815180112C
:101100000BE1250E7E5DF40E7F59D8A08AEF88F0A2
:101110008CEF88F0CFEF88F0300E8525D96EDA6A33
:10112000060EDA22DF6AEEEF88F08551070DF350E4
:10113000110F05ECEBF019AAA0EF88F0A3EF88F0EF
:10114000010EA4EF88F0000E1D6E05018551D1EC53
:10115000BFF0EEEF88F0300E05018525D96EDA6A12
:10116000060EDA22DF507A6F7B6B7B51000AD8B40F
:10117000BCEF88F0EEEF88F07A51000AD8B495EF12
:1011800088F0010AD8B451EF88F0030AD8B4EEEF22
:1011900088F0010AD8B4CFEF88F0EEEF88F0EEEFD8
:1011A00088F005018551070DF350100F05ECEBF0A9
:1011B0001A50000AD8B4DFEF88F0EEEF88F019502B
:1011C000020AD8B44FEF88F0010AD8B4ABEF88F028
:1011D000070AD8B4ABEF88F0EEEF88F00501852B55
:1011E0000F0E8565F6EF88F0F8EF88F031EF88F0A4
:1011F00012003D50D8A4FFEF88F001EF89F061EFB5
:101200008AF0C3EF89F0B9C5D9F4BAC5DAF4030E90
:10121000DF600DEF89F00FEF89F01FEF89F0E8C56F
:101220006EF5E7C56FF5420E0501706F010E716F27
:10123000010E726FAF0EF7ECEEF056EF89F005017C
:1012400020EE02F0B951D926BA51DA22DF50E86F08
:1012500020EE03F0B951D926BA51DA22DF50E76FF8
:10126000FD0E266E030E276E000E286EE8C529F5CA
:10127000000E15ECE9F0FC0E266E030E276E000E34
:10128000286EE7C529F5000E15ECE9F0010E3D6E5C
:1012900050ECC6F0E8C56EF5E7C56FF5520EE1EC0F
:1012A000EEF00601D74BD82B5FECECF0010EA5EF6A
:1012B0008FF0A50E05016E6F620E6F6F200E706FBE
:1012C000FF0E716F140E726F7F0E736F040E746FCA
:1012D000EF0E0DECEFF056EF89F0480EF66E080EAB
:1012E000F76E000EF86E0800F5C46EF5490EF66E46
:1012F000080EF76E000EF86E0800F5C46FF54A0E82
:10130000F66E080EF76E000EF86E0800F5C470F564
:101310004B0EF66E080EF76E000EF86E0800F5C460
:1013200071F54C0EF66E080EF76E000EF86E0800A2
:10133000F5C472F54D0EF66E080EF76E000EF86EDF
:101340000800F5C473F54E0EF66E080EF76E000E2B
:10135000F86E0800F5C474F5E20E0DECEFF056EFF0
:1013600089F0000E05016E6F000E6F6FA50E706F95
:10137000200E716F4DECE3F00501726FB60EF7ECC5
:10138000EEF056EF89F0050120EE01F0B951D926B3
:10139000BA51DA22DF500701E46FE56BE551000A2C
:1013A000D8B4D5EF89F0E8EF89F0E4510D0AD8B44C
:1013B000B1EF89F01D0AD8B459EF89F0010AD8B409
:1013C0006DEF89F0530AD8B403EF89F0E8EF89F0A4
:1013D000000EA5EF8FF0E8C56EF5E7C56FF5A50E19
:1013E0000501706F200E716F4DECE3F00501726F17
:1013F000B60EF7ECEEF056EF89F0B9C5D9F4BAC5E0
:10140000DAF4040EDF6007EF8AF009EF8AF019EFD3
:101410008AF0E8C56EF5E7C56FF5760E0501706FC9
:10142000010E716F010E726FAF0EF7ECEEF056EF1A
:1014300089F0050120EE02F0B951D926BA51DA221D
:10144000DF50D8A426EF8AF028EF8AF07EEF8AF0EA
:1014500020EE03F0B951D926BA51DA22DF50D8A4D0
:1014600034EF8AF036EF8AF07EEF8AF020EE04F057
:10147000B951D926BA51DA22DF50BF6F4CEF8AF04A
:10148000FD8556EF89F0FD9556EF89F0FD8756EF03
:1014900089F0FD9756EF89F0BF510C0AD8B440EFA0
:1014A0008AF0010AD8B443EF8AF01D0AD8B446EF97
:1014B0008AF0010AD8B449EF8AF05FEF8AF07EEF34
:1014C0008AF0050120EE01F0B951D926BA51DA228D
:1014D000DF500701E46FE56BE551000AD8B473EF04
:1014E0008AF07EEF8AF0E4510D0AD8B4EBEF89F070
:1014F0007B0AD8B4FDEF89F07EEF8AF0B9C5D9F444
:10150000BAC5DAF4030EDF6088EF8AF08AEF8AF05A
:101510008CEF8AF0E8EF89F0050120EE02F0B95176
:10152000D926BA51DA22DE50E819D8B49AEF8AF0F7
:101530009CEF8AF09EEF8AF0E8EF89F020EE03F04E
:10154000B951D926BA51DA22E751DE18D8B4ABEF37
:101550008AF0ADEF8AF079EF8FF0E8EF89F0B9C546
:10156000D9F4BAC5DAF4040EDF60B9EF8AF0BBEF44
:101570008AF0CBEF8AF0E8C56EF5E7C56FF5730E1C
:101580000501706F010E716F010E726FAF0EF7ECF7
:10159000EEF056EF89F0050120EE04F0B951D9269E
:1015A000BA51DA22140EDF64D8EF8AF0DAEF8AF04B
:1015B000F3EF8AF0E8C56EF5E7C56FF5090E706FB9
:1015C0006F0ECBECEEF0E8C56EF5E7C56FF5730E68
:1015D0000501706F010E716F090E726FAF0EF7EC9F
:1015E000EEF056EF89F020EE04F0B951D926BA5149
:1015F000DA22DF50C8ECC7F00501BB6FE8C56EF515
:10160000E7C56FF520EE04F0B951D926BA51DA22B8
:10161000DF50706FBBC571F59B0E23ECEFF0050139
:10162000FDB715EF8BF017EF8BF056EF89F020EE3A
:1016300004F0B951D926BA51DA22DF50D8A423EFE9
:101640008BF025EF8BF056EF89F0010E7BECE2F08A
:101650001D6E760E1E6EDA0E1F6E010E206E070EC8
:1016600076ECE9F056EF89F0E7C5E3F5E8C5E4F577
:10167000FA0E266E030E276E000E286EFF0E296EE0
:10168000000E15ECE9F00501E351E411D8B44BEF7D
:101690008BF04DEF8BF074EF8BF0E4C56EF5E3C586
:1016A0006FF5510EE1ECEEF0060E0501E92507019C
:1016B000E46F000E0501EA210701E56FE4C7F6F4C7
:1016C000E5C7F7F4000EF86E02D874EF8BF0050052
:1016D000FA6E0900F550FD6E0900F550FE6E090026
:1016E000F550FF6EFA501200FF00B9C5D9F4BAC523
:1016F000DAF4050EDF607FEF8BF081EF8BF091EF76
:101700008BF0E8C56EF5E7C56FF5870E0501706FC4
:10171000010E716F010E726FAF0EF7ECEEF056EF27
:1017200089F0050120EE04F0B951D926BA51DA2228
:10173000DF50D8A49EEF8BF0A0EF8BF0ADEF8BF0D5
:10174000000E1D6E420E1E6E9B0E1F6E010E206E51
:10175000040E76ECE9F056EF89F020EE04F0B95172
:10176000D926BA51DA22080EDF64B9EF8BF0BBEF4D
:101770008BF0CAEF8BF0E8C56EF5E7C56FF5870E05
:10178000706F010E716FFC0E726FAF0EF7ECEEF022
:1017900056EF89F020EE04F0B951D926BA51DA2279
:1017A000DF500701E46FE56BD890E437E537FE0EB4
:1017B000E425E66FFF0EE521E76F360EE625F66EAF
:1017C000FF0EE721F76EF86A000EF8220900F5C453
:1017D000E8F70900F5C4E9F7110EE827000EE92340
:1017E000E8C7F6F4E9C7F7F4000EF86E0900F55003
:1017F0000900F5100900F510D8A401EF8CF003EFF3
:101800008CF017EF8CF0E8C56EF5E7C56FF5870E25
:101810000501706F20EE04F0B951D926BA51DA22D1
:10182000DF50716F000E726FC70EF7ECEEF005011E
:1018300020EE05F0B951D926BA51DA22DF50D8A4EA
:1018400024EF8CF026EF8CF039EF8CF020EE04F0D2
:10185000B951D926BA51DA22DF501D6E420E1E6EE2
:101860009B0E1F6E010E206E040E76ECE9F056EF13
:1018700089F020EE04F0B951D926BA51DA22DF50AE
:101880000701E46FE56BD890E437E537FE0EE425F9
:10189000E66FFF0EE521E76F360EE625F66EFF0ECA
:1018A000E721F76EF86A000EF8220900F5C4E8F7A0
:1018B0000900F5C4E9F7110EE827000EE923E8C78F
:1018C000F6F4E9C7F7F4000EF86E02D87DEF8CF05D
:1018D0000500FA6E0900F550FD6E0900F550FE6E28
:1018E0000900F550FF6EFA50050120EE05F0B951E0
:1018F000D926BA51DA22DF5012001FC5BDF520C526
:10190000BEF50501BD51BE11D8A489EF8CF08BEF57
:101910008CF09AEF8CF0E8C56EF5E7C56FF5870E91
:10192000706F010E716FFD0E726FAF0EF7ECEEF07F
:1019300056EF89F0E8C56EF5E7C56FF520EE04F0C7
:10194000B951D926BA51DA22DF50706F20EE05F076
:10195000B951D926BA51DA22DF50716F20EE01F069
:10196000BD51D926BE51DA22DF50726FBDC5D9F400
:10197000BEC5DAF4DF50736FC70EB5ECEEF056EF6C
:1019800089F0B9C5D9F4BAC5DAF4040EDF60CBEF3B
:101990008CF0CDEF8CF0DDEF8CF0E8C56EF5E7C58F
:1019A0006FF5780E0501706F010E716F010E726F89
:1019B000AF0EF7ECEEF056EF89F0050120EE04F0E3
:1019C000B951D926BA51DA22DF50D8A4EAEF8CF007
:1019D000ECEF8CF006EF8DF0E8C56EF5E7C56FF51E
:1019E000000E706F000E716F080E726FAC0EF7EC88
:1019F000EEF0010E1D6EDE0E1E6EC00E1F6E010E8D
:101A0000206E030E76ECE9F056EF89F020EE04F03C
:101A1000B951D926BA51DA22080EDF6412EF8DF0DF
:101A200014EF8DF023EF8DF0E8C56EF5E7C56FF587
:101A3000780E706F010E716FFC0E726FAF0EF7ECC7
:101A4000EEF056EF89F020EE04F0B951D926BA51E4
:101A5000DA22DF500701E46FE56BD890E437E53711
:101A6000FE0EE425E66FFF0EE521E76F360EE62554
:101A7000F66EFF0EE721F76EF86A000EF8220900F5
:101A8000F5C4E8F70900F5C4E9F70E0EE827000EE3
:101A9000E923E8C7F6F4E9C7F7F4000EF86E090089
:101AA000F5500900F5100900F510D8A45AEF8DF093
:101AB0005CEF8DF0A0EF8DF0E8C56EF5E7C56FF532
:101AC000050120EE04F0B951D926BA51DA22DF50CF
:101AD000706F20EE04F0B951D926BA51DA22DF50E6
:101AE0000701E46FE56BD890E437E537FE0EE42597
:101AF000E66FFF0EE521E76F360EE625F66EFF0E68
:101B0000E721F76EF86A000EF8220900F5C4E8F73D
:101B10000900F5C4E9F7E8C7F6F4E9C7F7F4000EE1
:101B2000F86E0800F5C471F5000E0501726F000E25
:101B3000736F000E746FE70E0DECEFF056EF89F047
:101B4000E8C56EF5E7C56FF5050120EE04F0B95163
:101B5000D926BA51DA22DF50706F20EE04F0B95165
:101B6000D926BA51DA22DF500701E46FE56BD8902D
:101B7000E437E537FE0EE425E66FFF0EE521E76F5B
:101B8000360EE625F66EFF0EE721F76EF86A000EB8
:101B9000F8220900F5C4E8F70900F5C4E9F7E8C739
:101BA000F6F4E9C7F7F4000EF86E0800F5C471F515
:101BB000050120EE04F0B951D926BA51DA22DF50DE
:101BC0000701EA6FEB6BD890EA37EB37FE0EEA2598
:101BD000EC6FFF0EEB21ED6F360EEC25F66EFF0E6F
:101BE000ED21F76EF86A000EF8220900F5C4EEF751
:101BF0000900F5C4EFF70E0EEE27000EEF23EEC737
:101C0000F6F4EFC7F7F4000EF86E02D816EF8EF078
:101C10000500FA6E0900F550FD6E0900F550FE6EE4
:101C20000900F550FF6EFA50010E12000501726FA7
:101C300020EE04F0B951D926BA51DA22DF5007015B
:101C4000F06FF16BD890F037F137FE0EF025F26FA0
:101C5000FF0EF121F36F360EF225F66EFF0EF32123
:101C6000F76EF86A000EF8220900F5C4F4F70900CF
:101C7000F5C4F5F70E0EF427000EF523F4C7F6F4BD
:101C8000F5C7F7F4000EF86E02D855EF8EF0050098
:101C9000FA6E0900F550FD6E0900F550FE6E090060
:101CA000F550FF6EFA50020E12000501736F20EE20
:101CB00004F0B951D926BA51DA22DF500701F66F84
:101CC000F76BD890F637F737FE0EF625F86FFF0E54
:101CD000F721F96F360EF825F66EFF0EF921F76E33
:101CE000F86A000EF8220900F5C4FAF70900F5C4F5
:101CF000FBF70E0EFA27000EFB23FAC7F6F4FBC71C
:101D0000F7F4000EF86E02D894EF8EF00500FA6E2C
:101D10000900F550FD6E0900F550FE6E0900F55002
:101D2000FF6EFA50030E12000501746FE70E0DEC02
:101D3000EFF056EF89F0B9C5D9F4BAC5DAF4040E5C
:101D4000DF60A5EF8EF0A7EF8EF0B7EF8EF0E8C55D
:101D50006EF5E7C56FF5760E0501706F010E716FB8
:101D6000010E726FAF0EF7ECEEF056EF89F0050141
:101D700020EE04F0B951D926BA51DA22DF50BF6FF4
:101D8000E7C5E3F5E8C5E4F55BEF8FF03D04D8A4C3
:101D9000CCEF8EF0CEEF8EF0E8EF89F0BF51D8B4E3
:101DA000D4EF8EF0D6EF8EF0DAEF8EF0510EBC6FDE
:101DB000DCEF8EF0500EBC6FE8C56EF5E7C56FF531
:101DC000BC51E1ECEEF0E8C56EF5E7C56FF5760EB7
:101DD0000501706F010E716F000E726FAF0EF7ECA0
:101DE000EEF00501E86BE76BFD0E266E030E276E25
:101DF000000E286EE8C529F5000E15ECE9F0FC0E82
:101E0000266E030E276E000E286EE7C529F5000E1C
:101E100015ECE9F00501BF51D8B411EF8FF013EFC5
:101E20008FF016EF8FF03D6817EF8FF03D6A010ECF
:101E3000F16F54EF89F0FD85E8C56EF5E7C56FF5E4
:101E4000760E706F010E716F000E726FAF0EF7ECB1
:101E5000EEF056EF89F0FD95E8C56EF5E7C56FF534
:101E6000760E706F010E716F000E726FAF0EF7EC91
:101E7000EEF056EF89F0FD87E8C56EF5E7C56FF522
:101E8000760E706F010E716F000E726FAF0EF7EC71
:101E9000EEF056EF89F0FD97E8C56EF5E7C56FF5F2
:101EA000760E706F010E716F000E726FAF0EF7EC51
:101EB000EEF056EF89F0BF51000AD8B4C6EF8EF0AD
:101EC0000C0AD8B41BEF8FF0010AD8B42BEF8FF0B7
:101ED0001D0AD8B43BEF8FF0010AD8B44BEF8FF056
:101EE000EE0AD8B4C6EF8EF0E8EF89F0FF0056EFA7
:101EF00089F020EE01F0B951D926BA51DA22DF502B
:101F00000701E46FE56BE551000AD8B48AEF8FF062
:101F1000E8EF89F0E4514F0AD8B434EF8BF0110A9E
:101F2000D8B476EF8FF02D0AD8B4AFEF8AF0050A57
:101F3000D8B49BEF8EF00E0AD8B4C1EF8CF0FF0A34
:101F4000D8B475EF8BF0E8EF89F012000501B26F9D
:101F5000F00E0501B225196E1A6AFF0E1A22000E44
:101F60001C6E070E1B6E2DECDDF019501A10D8A454
:101F7000BCEF8FF0BEEF8FF0DCEF8FF00501B251B8
:101F8000F00FB36FB3C51DF51E6A000E206E070E6D
:101F90001F6E47ECDAF01D500501B36FAB51AC1961
:101FA000D8B4D5EF8FF0D7EF8FF0DCEF8FF0ABC563
:101FB000A8F5B35184ECDDF0050E0501B219D8A4E3
:101FC000E4EF8FF0E6EF8FF0E9EF8FF0AB5197EC95
:101FD00005F0060E0501B219D8A4F1EF8FF0F3EF6A
:101FE0008FF057EF91F0B36B2EEF91F0AB51D8B467
:101FF000FCEF8FF0FEEF8FF03BEF90F0B3C5ADF547
:10200000070EAD17010EAE6F000EAF6FAD2B0CEFCC
:1020100090F0D890AE37AF37AD2F09EF90F00501B3
:10202000AE51AF11D8B417EF90F019EF90F03BEF2D
:1020300090F0B351040D020EF326000EF422F60EBA
:10204000F324F66EFE0EF420F76EF86A000EF82206
:102050000800F5C4ADF5010EAE6FAD2B32EF90F078
:10206000D890AE37AD2F30EF90F00501AE5104019E
:1020700001134DEF91F0B351040D020EF326000E43
:10208000F422F60EF324F66EFE0EF420F76EF86AD4
:10209000000EF8220800F5C4ADF5010EAE6FAD2BB1
:1020A00054EF90F0D890AE37AD2F52EF90F005017D
:1020B000AE51FF0A040101174DEF91F0AB51D8B4B6
:1020C00064EF90F066EF90F0A3EF90F0B3C5ADF53C
:1020D000070EAD17010EAE6F000EAF6FAD2B74EF94
:1020E00090F0D890AE37AF37AD2F71EF90F005017B
:1020F000AE51AF11D8B47FEF90F081EF90F0A3EF25
:1021000090F0B351040D020EF326000EF422F60EE9
:10211000F324F66EFE0EF420F76EF86A000EF82235
:102120000800F5C4ADF5010EAE6FAD2B9AEF90F03F
:10213000D890AE37AD2F98EF90F00501AE51040165
:1021400009134DEF91F0B351040D020EF326000E6A
:10215000F422F60EF324F66EFE0EF420F76EF86A03
:10216000000EF8220800F5C4ADF5010EAE6FAD2BE0
:10217000BCEF90F0D890AE37AD2FBAEF90F00501DC
:10218000AE51FF0A040109174DEF91F0AB51D8B4DD
:10219000CCEF90F0CEEF90F00BEF91F0B3C5ADF532
:1021A000070EAD17010EAE6F000EAF6FAD2BDCEF5B
:1021B00090F0D890AE37AF37AD2FD9EF90F0050142
:1021C000AE51AF11D8B4E7EF90F0E9EF90F00BEF1C
:1021D00091F0B351040D020EF326000EF422F60E18
:1021E000F324F66EFE0EF420F76EF86A000EF82265
:1021F0000800F5C4ADF5010EAE6FAD2B02EF91F006
:10220000D890AE37AD2F00EF91F00501AE5104012B
:1022100011134DEF91F0B351040D020EF326000E91
:10222000F422F60EF324F66EFE0EF420F76EF86A32
:10223000000EF8220800F5C4ADF5010EAE6FAD2B0F
:1022400024EF91F0D890AE37AD2F22EF91F0050139
:10225000AE51FF0A040111174DEF91F0B351040D77
:10226000010EF326000EF422F60EF324F66EFE0E97
:10227000F420F76EF86A000EF8220800F550410AC3
:10228000D8B4F6EF8FF0030AD8B45EEF90F0010AED
:10229000D8B4C6EF90F04DEF91F00501B32B070EC7
:1022A000B36555EF91F057EF91F02EEF91F0070ED7
:1022B000B219D8A45EEF91F060EF91F0C5EF92F003
:1022C000080EB36F9CEF92F0AB51D8B46AEF91F067
:1022D0006CEF91F0A9EF91F0B3C5ADF5070EAD1716
:1022E000010EAE6F000EAF6FAD2B7AEF91F0D8906C
:1022F000AE37AF37AD2F77EF91F00501AE51AF118B
:10230000D8B485EF91F087EF91F0A9EF91F0B35138
:10231000040D020EF326000EF422F60EF324F66EE0
:10232000FE0EF420F76EF86A000EF8220800F5C4DD
:10233000ADF5010EAE6FAD2BA0EF91F0D890AE379A
:10234000AD2F9EEF91F00501AE5104010113BBEFDB
:1023500092F0B351040D020EF326000EF422F60E95
:10236000F324F66EFE0EF420F76EF86A000EF822E3
:102370000800F5C4ADF5010EAE6FAD2BC2EF91F0C4
:10238000D890AE37AD2FC0EF91F00501AE51FF0AE6
:1023900004010117BBEF92F0AB51D8B4D2EF91F02A
:1023A000D4EF91F011EF92F0B3C5ADF5070EAD1774
:1023B000010EAE6F000EAF6FAD2BE2EF91F0D89033
:1023C000AE37AF37AD2FDFEF91F00501AE51AF1152
:1023D000D8B4EDEF91F0EFEF91F011EF92F0B3512F
:1023E000040D020EF326000EF422F60EF324F66E10
:1023F000FE0EF420F76EF86A000EF8220800F5C40D
:10240000ADF5010EAE6FAD2B08EF92F0D890AE3760
:10241000AD2F06EF92F00501AE5104010913BBEF99
:1024200092F0B351040D020EF326000EF422F60EC4
:10243000F324F66EFE0EF420F76EF86A000EF82212
:102440000800F5C4ADF5010EAE6FAD2B2AEF92F08A
:10245000D890AE37AD2F28EF92F00501AE51FF0AAC
:1024600004010917BBEF92F0AB51D8B43AEF92F0E8
:102470003CEF92F079EF92F0B3C5ADF5070EAD17D2
:10248000010EAE6F000EAF6FAD2B4AEF92F0D890F9
:10249000AE37AF37AD2F47EF92F00501AE51AF1118
:1024A000D8B455EF92F057EF92F079EF92F0B35124
:1024B000040D020EF326000EF422F60EF324F66E3F
:1024C000FE0EF420F76EF86A000EF8220800F5C43C
:1024D000ADF5010EAE6FAD2B70EF92F0D890AE3728
:1024E000AD2F6EEF92F00501AE5104011113BBEF59
:1024F00092F0B351040D020EF326000EF422F60EF4
:10250000F324F66EFE0EF420F76EF86A000EF82241
:102510000800F5C4ADF5010EAE6FAD2B92EF92F051
:10252000D890AE37AD2F90EF92F00501AE51FF0A73
:1025300004011117BBEF92F0B351040D010EF32605
:10254000000EF422F60EF324F66EFE0EF420F76E63
:10255000F86A000EF8220800F550410AD8B464EF7A
:1025600091F0030AD8B4CCEF91F0010AD8B434EF5B
:1025700092F0BBEF92F00501B32B0F0EB365C3EFE2
:1025800092F0C5EF92F09CEF92F00F0EB265CBEF98
:1025900092F0CDEF92F04AEF95F0F00EB2251D6E5D
:1025A0001E6AFF0E1E22000E206E070E1F6E47ECE5
:1025B000DAF01D500501B36FF00EB225196E1A6ADC
:1025C000FF0E1A22000E1C6E070E1B6E2DECDDF0A6
:1025D00029EF95F00501B251AD6FAE6BB351070D08
:1025E000120EF326000EF422AD51F31807E1AE519E
:1025F000F418D8A4FEEF92F000EF93F04AEF95F0B4
:10260000B3C5FBF5ABBF07EF93F009EF93F00FEF06
:1026100093F0000EB16F010EB06F13EF93F0000E48
:10262000B16F020EB06FB0C5FAF54AEF95F04AEF00
:1026300095F00501B251AD6FAE6BB351070D120E9F
:10264000F326000EF422AD51F31807E1AE51F41851
:10265000D8A42DEF93F02FEF93F03CEF93F0020E00
:102660001D6EB351B1ECD6F0020E1D6E0501B351D3
:1026700033ECD3F04AEF95F0B251AD6FAE6BB3517E
:10268000070D130EF326000EF422AD51F31807E1E7
:10269000AE51F418D8A44FEF93F051EF93F05EEFE2
:1026A00093F0010E1D6EB351B1ECD6F0010E1D6E0C
:1026B0000501B35133ECD3F04AEF95F0B251AD6F51
:1026C000AE6BB351070D110EF326000EF422AD517F
:1026D000F31807E1AE51F418D8A471EF93F073EF3B
:1026E00093F04AEF95F0ABAF78EF93F07AEF93F079
:1026F00017EF93F0ACBF7FEF93F081EF93F017EFFC
:1027000093F0B351070DF350120F05ECEBF019C520
:102710001DF51AC51EF5000E206E020E1F6E47EC49
:10272000DAF01DC5ADF51EC5AEF50501B351070DB7
:10273000F350130F05ECEBF019C51DF51AC51EF586
:10274000000E206E020E1F6E47ECDAF01D500501E0
:10275000AD25256EB351C5ECEFF04AEF95F00501BC
:10276000B251AD6FAE6BB351070D130EF326000ED1
:10277000F422AD51F31807E1AE51F418D8A4C3EF19
:1027800093F0C5EF93F0D2EF93F0020E1D6EB351AC
:102790001AECD7F0020E196E0501B351A2ECE7F066
:1027A0004AEF95F0B251AD6FAE6BB351070D120EFB
:1027B000F326000EF422AD51F31807E1AE51F418E0
:1027C000D8A4E5EF93F0E7EF93F0F4EF93F0010E68
:1027D0001D6EB3511AECD7F0010E196E0501B351FD
:1027E000A2ECE7F04AEF95F0B251AD6FAE6BB3518A
:1027F000070D110EF326000EF422AD51F31807E178
:10280000AE51F418D8A407EF94F009EF94F04AEF12
:1028100095F0ABAF0EEF94F010EF94F017EF93F04C
:10282000ACBF15EF94F017EF94F017EF93F0B3519E
:10283000070DF350120F05ECEBF019C51DF51AC585
:102840001EF5000E206E020E1F6E47ECDAF01DC55D
:10285000ADF51EC5AEF50501B351070DF350130FCD
:1028600005ECEBF019C51DF51AC51EF5000E206E1E
:10287000020E1F6E47ECDAF01D500501AD25AF6F5B
:10288000CF0EB325D96EDA6A050EDA22AFC5DFF4B2
:102890004AEF95F00501B251AD6FAE6BB351070D24
:1028A000130EF326000EF422AD51F31807E1AE51DA
:1028B000F418D8A45EEF94F060EF94F06DEF94F00C
:1028C000000E1D6EB35146ECD0F0000E1D6E0501DA
:1028D000B35185ECDEF04AEF95F0B251AD6FAE6BBF
:1028E000B351070D140EF326000EF422AD51F31868
:1028F00007E1AE51F418D8A480EF94F082EF94F081
:102900008FEF94F0010E1D6EB35146ECD0F0010E26
:102910001D6E0501B35185ECDEF04AEF95F0B25122
:10292000AD6FAE6BB351070D150EF326000EF422FA
:10293000AD51F31807E1AE51F418D8A4A2EF94F00A
:10294000A4EF94F0B1EF94F0020E1D6EB35146EC7B
:10295000D0F0020E1D6E0501B35185ECDEF04AEF9A
:1029600095F0B251AD6FAE6BB351070D160EF32655
:10297000000EF422AD51F31807E1AE51F418D8A4BB
:10298000C4EF94F0C6EF94F0D3EF94F0030E1D6EF5
:10299000B35146ECD0F0030E1D6E0501B35185EC2A
:1029A000DEF04AEF95F0B251AD6FAE6BB351070D4B
:1029B000110EF326000EF422AD51F31807E1AE51CB
:1029C000F418D8A4E6EF94F0E8EF94F04AEF95F00D
:1029D000ABAFEDEF94F0EFEF94F017EF93F0ACBFE7
:1029E000F4EF94F0F6EF94F017EF93F0B351070D76
:1029F000F350120F05ECEBF019C51DF51AC51EF5C5
:102A0000000E206E020E1F6E47ECDAF01DC5ADF50C
:102A10001EC5AEF50501B351070DF350130F05ECBC
:102A2000EBF019C51DF51AC51EF5000E206E020E3D
:102A30001F6E47ECDAF01D500501AD25AF6FCF0ECC
:102A4000B325D96EDA6A050EDA22AFC5DFF44AEF94
:102A500095F00501B351070DF350100F05ECEBF0A5
:102A60001A50000AD8B437EF95F04AEF95F0195094
:102A7000020AD8B419EF93F0010AD8B4AFEF93F07B
:102A8000070AD8B44AEF94F0020AD8B4EAEF92F0F9
:102A90004AEF95F0120012EF99F0B9C578F5BAC572
:102AA00079F5030E7A6F000E7B6F9BECE4F0E8067D
:102AB000D8A45DEF95F05FEF95F062EF95F0010E11
:102AC0005AEF99F0050120EE02F0B951D926BA511A
:102AD000DA22DE50E819D8A470EF95F072EF95F085
:102AE00084EF95F020EE03F0B951D926BA51DA22DD
:102AF000E751DE18D8A47FEF95F081EF95F084EFD1
:102B000095F0FD815FEF95F0FD915FEF95F0B9C510
:102B100078F5BAC579F5040E7A6F000E7B6F9BECE1
:102B2000E4F0E806D8A497EF95F099EF95F09BEFC5
:102B300095F05FEF95F0050120EE02F0B951D9262E
:102B4000BA51DA22DE50E819D8A4A9EF95F0ABEF1C
:102B500095F0DCEF95F020EE03F0B951D926BA518B
:102B6000DA22E751DE18D8A4B8EF95F0BAEF95F065
:102B7000DCEF95F020EE04F0B951D926BA51DA22F3
:102B8000080EDE18D8A4C7EF95F0C9EF95F0CBEF8B
:102B900095F081EF95F020EE04F0B951D926BA51A5
:102BA000DA22090EDE18D8A4D8EF95F0DAEF95F006
:102BB000DDEF95F084EF95F0FD91000E5AEF99F05E
:102BC000B9C578F5BAC579F5070E7A6F010E7B6F36
:102BD0009BECE4F0E806D8A4F0EF95F0F2EF95F066
:102BE000FEEF95F0E8C56EF5E7C56FF5010E05013E
:102BF000706F6F0ECBECEEF05FEF95F00501FDB15D
:102C000004EF96F006EF96F008EF96F05FEF95F080
:102C100020EE03F0B951D926BA51DA22DF50BB6F4A
:102C200020EE02F0B951D926BA51DA22DF50BC6F3A
:102C3000BB51AC6FBCC5ADF520EE05F0B951D9263E
:102C4000BA51DA22DF50BE6F20EE04F0B951D92616
:102C5000BA51DA22DF50BF6FBE51AE6FBFC5AFF5BC
:102C600020EE06F0B951D926BA51DA22DF50B06F02
:102C700020EE07F0B951D926BA51DA22DF50B16FF0
:102C800001ECD5F05FEF95F0B9C578F5BAC579F5E7
:102C9000050E7A6F010E7B6F9BECE4F0E806D8A47A
:102CA00054EF96F056EF96F058EF96F05FEF95F0F0
:102CB0000501FDB15EEF96F060EF96F062EF96F0E1
:102CC0005FEF95F020EE03F0B951D926BA51DA2220
:102CD000DF50BB6F20EE02F0B951D926BA51DA228B
:102CE000DF50BC6FBB51806FBCC581F520EE05F095
:102CF000B951D926BA51DA22DF50BE6F20EE04F066
:102D0000B951D926BA51DA22DF50BF6FBE51826F56
:102D1000BFC583F5D5ECE3F05FEF95F0B9C578F565
:102D2000BAC579F5060E7A6F010E7B6F9BECE4F065
:102D3000E806D8A49EEF96F0A0EF96F0A2EF96F0EA
:102D40005FEF95F00501FDB1A8EF96F0AAEF96F0C0
:102D5000ACEF96F05FEF95F020EE03F0B951D92675
:102D6000BA51DA22DF50BB6F20EE02F0B951D926FA
:102D7000BA51DA22DF50BC6FBB51796FBCC57AF50E
:102D800020EE05F0B951D926BA51DA22DF50BE6FD4
:102D900020EE04F0B951D926BA51DA22DF50BF6FC4
:102DA000BE517B6FBFC57CF520EE06F0B951D92628
:102DB000BA51DA22DF507D6F88ECC5F05FEF95F0F5
:102DC000B9C578F5BAC579F5030E7A6F000E7B6F39
:102DD0009BECE4F0E806D8A4F0EF96F0F2EF96F062
:102DE000F4EF96F05FEF95F0050120EE02F0B95197
:102DF000D926BA51DA22DE50E819D8A402EF97F0AA
:102E000004EF97F05FEF95F020EE03F0B951D9266B
:102E1000BA51DA22E751DE18D8B411EF97F013EF68
:102E200097F084EF95F05FEF95F0B9C578F5BAC5E6
:102E300079F5030E7A6F010E7B6F9BECE4F0E806E8
:102E4000D8A425EF97F027EF97F029EF97F05FEFE1
:102E500095F0050120EE02F0B951D926BA51DA22D7
:102E6000DE50E819D8A437EF97F039EF97F05FEF0D
:102E700095F020EE03F0B951D926BA51DA22E75184
:102E8000DE18D8B446EF97F048EF97F04AEF97F086
:102E90005FEF95F0FDB14FEF97F051EF97F06AEFCC
:102EA00097F0E8C56EF5E7C56FF5020E706F6F0E0F
:102EB000CBECEEF0E8C56EF5E7C56FF5550E0501F4
:102EC000706F040E716F020E726FAF0EF7ECEEF0C2
:102ED0005FEF95F0F5ECEDF0DDEF95F0B9C578F525
:102EE000BAC579F5030E7A6F000E7B6F9BECE4F0A8
:102EF000E806D8A47EEF97F080EF97F082EF97F086
:102F00005FEF95F0050120EE02F0B951D926BA51D4
:102F1000DA22DE50E819D8A490EF97F092EF97F0FC
:102F20005FEF95F020EE03F0B951D926BA51DA22BD
:102F3000E751DE18D8B49FEF97F0A1EF97F0A3EF19
:102F400097F05FEF95F024EC05F05FEF95F0B9C5D1
:102F500078F5BAC579F5030E7A6F000E7B6F9BEC9E
:102F6000E4F0E806D8A4B7EF97F0B9EF97F0BBEF1D
:102F700097F05FEF95F0050120EE02F0B951D926E8
:102F8000BA51DA22DE50E819D8A4C9EF97F0CBEF96
:102F900097F05FEF95F020EE03F0B951D926BA51C2
:102FA000DA22E751DE18D8B4D8EF97F0DAEF97F0CD
:102FB000DCEF97F05FEF95F06AECE7F05FEF95F0EC
:102FC000B9C578F5BAC579F5030E7A6F000E7B6F37
:102FD0009BECE4F0E806D8A4F0EF97F0F2EF97F05E
:102FE000F4EF97F05FEF95F0050120EE02F0B95194
:102FF000D926BA51DA22DE50E819D8A402EF98F0A7
:1030000004EF98F05FEF95F020EE03F0B951D92668
:10301000BA51DA22E751DE18D8B411EF98F013EF65
:1030200098F015EF98F05FEF95F0F4ECEBF05FEFB0
:1030300095F0B9C578F5BAC579F5040E7A6F000E2A
:103040007B6F9BECE4F0E806D8A429EF98F02BEF17
:1030500098F02DEF98F05FEF95F0050120EE02F06B
:10306000B951D926BA51DA22DE50E819D8A43BEF7B
:1030700098F03DEF98F05FEF95F020EE03F0B95136
:10308000D926BA51DA22E751DE18D8B44AEF98F0BF
:103090004CEF98F04EEF98F05FEF95F020EE04F0D3
:1030A000B951D926BA51DA22DF501BECE5F05FEFB7
:1030B00095F0B9C578F5BAC579F5050E7A6F000EA9
:1030C0007B6F9BECE4F0E806D8A469EF98F06BEF17
:1030D00098F06DEF98F05FEF95F0050120EE02F0AB
:1030E000B951D926BA51DA22DE50E819D8A47BEFBB
:1030F00098F07DEF98F05FEF95F020EE03F0B95176
:10310000D926BA51DA22E751DE18D8B48AEF98F0FE
:103110008CEF98F08EEF98F05FEF95F020EE05F0D1
:10312000B951D926BA51DA22DF50736F20EE04F07C
:10313000B951D926BA51DA22DF500FECCDF05FEF4A
:1031400095F0B9C578F5BAC579F5080E7A6F010E14
:103150007B6F9BECE4F0E806D8A4B1EF98F0B3EFF6
:1031600098F0B5EF98F05FEF95F0050120EE02F0D2
:10317000B951D926BA51DA22DE50E819D8A4C3EFE2
:1031800098F0C5EF98F05FEF95F020EE03F0B9519D
:10319000D926BA51DA22E751DE18D8B4D2EF98F026
:1031A000D4EF98F0D6EF98F05FEF95F020EE03F0B3
:1031B000B951D926BA51DA22DF50BB6F20EE02F0A6
:1031C000B951D926BA51DA22DF50BC6FBB51AC6F6E
:1031D000BCC5ADF520EE05F0B951D926BA51DA22B9
:1031E000DF50BE6F20EE04F0B951D926BA51DA2271
:1031F000DF50BF6FBE51AE6FBFC5AFF520EE07F019
:10320000B951D926BA51DA22DF50B06F20EE08F05A
:10321000B951D926BA51DA22DF50B16F01ECD5F09D
:103220005FEF95F0050120EE01F0B951D926BA51B2
:10323000DA22DF50BB6FBC6BBC51000AD8B423EF5D
:1032400099F0DDEF95F0BB51530AD8B44DEF95F0EE
:10325000070AD8B4E0EF96F0010AD8B415EF97F05A
:10326000030AD8B4A7EF97F0010AD8B46EEF97F02D
:103270000F0AD8B4E0EF97F02A0AD8B419EF98F003
:10328000040AD8B487EF95F0E30AD8B444EF96F077
:10329000090AD8B459EF98F02E0AD8B48EEF96F0F8
:1032A000600AD8B4E0EF95F0270AD8B4A1EF98F0FF
:1032B000DDEF95F01200050120EE01F0B951D9269D
:1032C000BA51DA22760EDE18D8A469EF99F06BEFC6
:1032D00099F0C4EF99F0B9C578F5BAC579F5040E3F
:1032E0007A6F5AEC05F0E806D8A479EF99F07BEFF5
:1032F00099F07EEF99F0010E76EF9CF0050120EE3B
:1033000002F0B951D926BA51DA22DE50E819D8A410
:103310008CEF99F08EEF99F0C1EF99F020EE03F069
:10332000B951D926BA51DA22E751DE18D8A49BEF59
:1033300099F09DEF99F0C1EF99F020EE04F0B951AA
:10334000D926BA51DA220A0EDE18D8A4AAEF99F0CB
:10335000ACEF99F0AFEF99F0FD837BEF99F020EEA1
:1033600004F0B951D926BA51DA220B0EDE18D8A4CE
:10337000BCEF99F0BEEF99F0C1EF99F0FD937BEFB0
:1033800099F0000E76EF9CF0B9C5D9F4BAC5DAF41D
:10339000050EDF60CEEF99F0D0EF99F0D2EF99F003
:1033A000C1EF99F020EE03F0B951D926BA51DA22D3
:1033B000DF50BB6F20EE02F0B951D926BA51DA22A4
:1033C000DF50BC6FBB51C16FBCC5C2F5F8EF99F0BF
:1033D000000EC26F000EC16F140EBE6F010EBF6FE4
:1033E0004BEF9AF0000EC26F000EC16F4BEF9AF0D8
:1033F00020EE01F0B951D926BA51DA22DF50BB6F65
:10340000BC6BBC51000AD8B408EF9AF0C1EF99F038
:10341000BB51900AD8B4ECEF99F0010AD8B4F6EF9A
:1034200099F0090AD8B4E8EF99F0010AD8B4F2EF9C
:1034300099F0290AD8B4ECEF99F0010AD8B4F6EF64
:1034400099F0090AD8B4E8EF99F0010AD8B4F2EF7C
:1034500099F0690AD8B4ECEF99F0010AD8B4F6EF04
:1034600099F0090AD8B4E8EF99F0010AD8B4F2EF5C
:1034700099F0290AD8B4ECEF99F0010AD8B4F6EF24
:1034800099F0090AD8B4E8EF99F0010AD8B4F2EF3C
:1034900099F0C1EF99F0C1C56CF5C2C56DF520EE8C
:1034A00005F0B951D926BA51DA22DF50BB6F20EEB0
:1034B00004F0B951D926BA51DA22DF50BC6FBB51A2
:1034C0006E6FBCC56FF566ECDBF00501C56FC529F5
:1034D000D8A46DEF9AF06FEF9AF071EF9AF0C1EF08
:1034E00099F0C551E2ECC9F00501FDA37AEF9AF01D
:1034F0007CEF9AF0BAEF9AF0C5513CECECF0000981
:10350000D8B485EF9AF087EF9AF0BAEF9AF0E8C551
:103510006EF5E7C56FF5050120EE01F0B951D9262A
:10352000BA51DA22DF50706F20EE02F0B951D9267D
:10353000BA51DA22DF50716F20EE03F0B951D9266B
:10354000BA51DA22DF50726F20EE04F0B951D92659
:10355000BA51DA22DF50736F20EE05F0B951D92647
:10356000BA51DA22DF50746FE60E0DECEFF006016F
:10357000EE4BEF2B050120EE01F0B951D926BA51DF
:10358000DA22DF50C06FC0B1C8EF9AF0CAEF9AF0EC
:103590007FEF9BF0010ECA6F130ECA65D2EF9AF04F
:1035A000D4EF9AF0D6EF9AF071EF9CF0400ECA2556
:1035B000D96EDA6A070EDA22DF50CB6FCB51D8B45E
:1035C000E4EF9AF0E6EF9AF07BEF9BF0CB517F0BA4
:1035D000C86F590EC861EFEF9AF0F1EF9AF07BEFE8
:1035E0009BF0070EC819D8A4F8EF9AF0FAEF9AF0FA
:1035F000FCEF9AF071EF9CF0080EC86102EF9BF0AF
:1036000004EF9BF009EF9BF0CB51EBECE1F07BEF8B
:103610009BF0F80EC8251D6E1E6AFF0E1E22000EBE
:10362000206E050E1F6E47ECDAF01D500501C76FC6
:10363000F80EC825196E1A6AFF0E1A22000E1C6EAB
:10364000050E1B6E2DECDDF019500501C96F5BEF07
:103650009BF00501C751070DF350110F05ECEBF07E
:1036600019AE35EF9BF037EF9BF039EF9BF09BECF9
:1036700005F00501C951D8A440EF9BF042EF9BF043
:1036800043EF9BF0CB2B040EC919D8A44AEF9BF053
:103690004CEF9BF04EEF9BF0020ECB5FCB51EBEC6F
:1036A000E1F0ACEC05F07BEF9BF00501CB51EBECCE
:1036B000E1F07BEF9BF0C751070DF350100F05ECC5
:1036C000EBF01A50000AD8B468EF9BF07BEF9BF048
:1036D0001950010AD8B429EF9BF0030AD8B439EF86
:1036E0009BF0010AD8B439EF9BF0070AD8B455EF24
:1036F0009BF07BEF9BF00501CA2BCCEF9AF053C7F0
:10370000C3F5130ECA6FCA51D8A489EF9BF08BEF93
:103710009BF08DEF9BF071EF9CF0C46BC3C5CBF5B4
:10372000010ECA6596EF9BF098EF9BF0A5EF9BF01A
:103730003F0ECA25D96EDA6A070EDA22DF50C36F50
:10374000C351800BC66FA8EF9BF0C451800BC66FAE
:10375000CB51D8B4AEEF9BF0B0EF9BF067EF9CF08D
:10376000C451D8A4B6EF9BF0B8EF9BF0BAEF9BF032
:10377000CBC5C4F5CB9F590ECB61C1EF9BF0C3EF16
:103780009BF067EF9CF0070ECB19D8A4CAEF9BF013
:10379000CCEF9BF0CEEF9BF071EF9CF0080ECB616D
:1037A000D4EF9BF0D6EF9BF0E5EF9BF0CB05D8B4C0
:1037B000DCEF9BF0DEEF9BF0E5EF9BF0C651CB1307
:1037C000CB51EBECE1F067EF9CF0F80ECB251D6ED2
:1037D0001E6AFF0E1E22000E206E050E1F6E47ECA5
:1037E000DAF01D500501C76FF80ECB25196E1A6A65
:1037F000FF0E1A22000E1C6E050E1B6E2DECDDF066
:1038000019500501C96F47EF9CF00501C751070D1D
:10381000F350110F05ECEBF019AE11EF9CF013EF24
:103820009CF015EF9CF09BEC05F0030E0501C91907
:10383000D8A41DEF9CF01FEF9CF020EF9CF0CB076D
:103840000501C951D8A427EF9CF029EF9CF02BEF7C
:103850009CF0020ECB27040EC919D8A432EF9CF0BD
:1038600034EF9CF036EF9CF0030ECB5FC651CB13C8
:10387000CB51EBECE1F0ACEC05F067EF9CF005010F
:10388000C651CB13CB51EBECE1F03BEF9CF0C751B1
:10389000070DF350100F05ECEBF01A50000AD8B4E6
:1038A00054EF9CF067EF9CF01950010AD8B405EF73
:1038B0009CF0030AD8B420EF9CF0010AD8B420EFA2
:1038C0009CF0070AD8B43FEF9CF067EF9CF005012D
:1038D000CA07CA51D8A46FEF9CF071EF9CF08DEF2E
:1038E0009BF00601EC4BED2B7BEF99F012000501EC
:1038F000656F0F0E0501656580EF9CF082EF9CF00F
:1039000084EF9CF058EF9FF06551070DF350100FB6
:1039100005ECEBF019500501646FFCEF9CF065516C
:10392000070DF350110F05ECEBF019A49AEF9CF082
:103930009CEF9CF0B5EF9CF0050165512D6E2E6A51
:103940002F6ADE0E2D241F6E030E2E20206E000E19
:103950002F20216E000EBEECE6F01F50256E0501F3
:103960006551D4ECDCF01CEF9EF005016551070DAC
:10397000F350110F05ECEBF019BAC1EF9CF0C3EF57
:103980009CF0CAEF9CF0000E0501626F020E616FA1
:10399000CFEF9CF0000E0501626F010E616F61C5F3
:1039A00063F563C525F56551D4ECDCF0050165517F
:1039B0002D6E2E6A2F6ADE0E2D24266E030E2E200B
:1039C000276E000E2F20286E63C529F5000E15EC1A
:1039D000E9F01CEF9EF06551070DF350110F05EC57
:1039E000EBF01950100B0501606F60C525F56551AE
:1039F000D4ECDCF01CEF9EF06451010AD8B48FEFD8
:103A00009CF0030AD8B4EBEF9CF0010AD8B4EBEFBA
:103A10009CF01CEF9EF06451D8B411EF9DF013EFB1
:103A20009DF025EF9DF0050E6419D8B41AEF9DF0B6
:103A30001CEF9DF025EF9DF0060E6419D8A423EF2E
:103A40009DF025EF9DF045EF9DF06551040D020EB0
:103A5000F326000EF422F60EF324F66EFE0EF4208A
:103A6000F76EF86A000EF8220800F5C42DF5010E75
:103A70002E6E2D2A3EEF9DF0D8902E362D2E3CEF47
:103A80009DF02E50C6123CEF9EF06551040D020EC3
:103A9000F326000EF422F60EF324F66EFE0EF4204A
:103AA000F76EF86A000EF8220800F5C42DF5010E35
:103AB0002E6E2D2A5EEF9DF0D8902E362D2E5CEFC7
:103AC0009DF02E50FF0AC6163CEF9EF06451D8B40C
:103AD0006CEF9DF06EEF9DF080EF9DF0050E641988
:103AE000D8B475EF9DF077EF9DF080EF9DF0060E56
:103AF0006419D8A47EEF9DF080EF9DF0A0EF9DF0BB
:103B00006551040D020EF326000EF422F60EF32486
:103B1000F66EFE0EF420F76EF86A000EF82208002A
:103B2000F5C42DF5010E2E6E2D2A99EF9DF0D8903B
:103B30002E362D2E97EF9DF02E50C7123CEF9EF0A3
:103B40006551040D020EF326000EF422F60EF32446
:103B5000F66EFE0EF420F76EF86A000EF8220800EA
:103B6000F5C42DF5010E2E6E2D2AB9EF9DF0D890DB
:103B70002E362D2EB7EF9DF02E50FF0AC7163CEFC4
:103B80009EF06451D8B4C7EF9DF0C9EF9DF0DBEF14
:103B90009DF0050E6419D8B4D0EF9DF0D2EF9DF0E2
:103BA000DBEF9DF0060E6419D8A4D9EF9DF0DBEF92
:103BB0009DF0FBEF9DF06551040D020EF326000E03
:103BC000F422F60EF324F66EFE0EF420F76EF86A79
:103BD000000EF8220800F5C42DF5010E2E6E2D2AD8
:103BE000F4EF9DF0D8902E362D2EF2EF9DF02E5052
:103BF000C8123CEF9EF06551040D020EF326000E34
:103C0000F422F60EF324F66EFE0EF420F76EF86A38
:103C1000000EF8220800F5C42DF5010E2E6E2D2A97
:103C200014EF9EF0D8902E362D2E12EF9EF02E50CF
:103C3000FF0AC8163CEF9EF005016551040D010E08
:103C4000F326000EF422F60EF324F66EFE0EF42098
:103C5000F76EF86A000EF8220800F550410AD8B451
:103C60000BEF9DF0030AD8B466EF9DF0010AD8B4BB
:103C7000C1EF9DF03CEF9EF0050E05016419D8B42C
:103C800044EF9EF046EF9EF0B4EF9EF0060E6419EE
:103C9000D8A44DEF9EF04FEF9EF039EF9FF0B4EFB8
:103CA0009EF06551040D020EF326000EF422F60E6E
:103CB000F324F66EFE0EF420F76EF86A000EF8227A
:103CC0000800F5C42DF5010E2E6E2D2A6AEF9EF028
:103CD000D8902E362D2E68EF9EF02E500401001342
:103CE00058EF9FF06551040D020EF326000EF422EA
:103CF000F60EF324F66EFE0EF420F76EF86A000E50
:103D0000F8220800F5C42DF5010E2E6E2D2A8BEF3A
:103D10009EF0D8902E362D2E89EF9EF02E50040165
:103D2000081358EF9FF06551040D020EF326000EA4
:103D3000F422F60EF324F66EFE0EF420F76EF86A07
:103D4000000EF8220800F5C42DF5010E2E6E2D2A66
:103D5000ACEF9EF0D8902E362D2EAAEF9EF02E506E
:103D60000401101358EF9FF06551040D010EF32666
:103D7000000EF422F60EF324F66EFE0EF420F76E1B
:103D8000F86A000EF8220800F550410AD8B451EF45
:103D90009EF0030AD8B472EF9EF0010AD8B493EFF4
:103DA0009EF058EF9FF06551040D020EF326000EB1
:103DB000F422F60EF324F66EFE0EF420F76EF86A87
:103DC000000EF8220800F5C42DF5010E2E6E2D2AE6
:103DD000ECEF9EF0D8902E362D2EEAEF9EF02E506E
:103DE000FF0A0401001758EF9FF06551040D020E01
:103DF000F326000EF422F60EF324F66EFE0EF420E7
:103E0000F76EF86A000EF8220800F5C42DF5010ED1
:103E10002E6E2D2A0EEF9FF0D8902E362D2E0CEF01
:103E20009FF02E50FF0A0401081758EF9FF06551CC
:103E3000040D020EF326000EF422F60EF324F66EA5
:103E4000FE0EF420F76EF86A000EF8220800F5C4A2
:103E50002DF5010E2E6E2D2A30EF9FF0D8902E36C4
:103E60002D2E2EEF9FF02E50FF0A0401101758EF51
:103E70009FF06551040D010EF326000EF422F60E9C
:103E8000F324F66EFE0EF420F76EF86A000EF822A8
:103E90000800F550410AD8B4D3EF9EF0030AD8B415
:103EA000F5EF9EF0010AD8B417EF9FF058EF9FF09E
:103EB00012000301F3A15FEF9FF061EF9FF063EF4A
:103EC0009FF010EFA2F00501F951070DF350100F0C
:103ED00005ECEBF0050E19181A10D8B472EF9FF02C
:103EE00074EF9FF085EF9FF00501F951070DF35036
:103EF000100F05ECEBF0060E19181A10D8A483EF7A
:103F00009FF085EF9FF0B6EFA1F00501F851D8B40E
:103F10008CEF9FF08EEF9FF0B6EFA1F0EBC385F52D
:103F2000866B8551866F856B0301EA510501851308
:103F3000FA51D8B49EEF9FF0A0EF9FF0A9EF9FF049
:103F4000FB51F919D8B4A7EF9FF0A9EF9FF080EFCC
:103F5000A1F0F951070DF350100F05ECEBF0060E30
:103F600019181A10D8A4B7EF9FF0B9EF9FF0AFEF70
:103F7000A0F00501F951070DF350150F05ECEBF01A
:103F800019C583F51AC584F505018351846F836BC8
:103F9000F951070DF350160F05ECEBF01950050120
:103FA00083131A50841383C581F584C582F5F951B2
:103FB000070DF350130F05ECEBF019500501835F6B
:103FC0001A50845BF951070DF350130F05ECEBF019
:103FD0001950050181271A508223F951070DF3501A
:103FE000140F05ECEBF00501835119247F6F845108
:103FF0001A20806FF951070DF350140F05ECEBF008
:1040000019500501815D7D6F1A5082597E6F600ED7
:10401000F925D96EDA6A060EDA22DF50030B020A9E
:10402000D8B415EFA0F017EFA0F055EFA0F0815134
:10403000855D82518659D8A020EFA0F022EFA0F034
:1040400055EFA0F0600EF925D96EDA6A060EDA2275
:104050000601DFA42EEFA0F030EFA0F048EFA0F0B3
:104060000501F951070DF350110F05ECEBF019ACF8
:104070003CEFA0F03FEFA0F0010E40EFA0F0000EEB
:104080000501726FF951040DF350090F43ECD1F0A3
:10409000600E0501F925D96EDA6A060EDA22DF50C4
:1040A000FC0B0209DF6ED8EFA0F0600EF925D96E87
:1040B000DA6A060EDA22DF50030B020AD8A463EF95
:1040C000A0F065EFA0F0D8EFA0F085517D5D86519E
:1040D0007E59D8A06EEFA0F070EFA0F0D8EFA0F05E
:1040E000600EF925D96EDA6A060EDA220601DFA41F
:1040F0007CEFA0F07EEFA0F0A4EFA0F00501F95155
:10410000070DF350110F05ECEBF019B68AEFA0F094
:104110008CEFA0F0A4EFA0F00501F951070DF350CA
:10412000110F05ECEBF019BC98EFA0F09BEFA0F09D
:10413000010E9CEFA0F0000E0501726FF951040D05
:10414000F350090F43ECD1F0600E0501F925D96E4B
:10415000DA6A060EDA22FC0EDF16D8EFA0F085C56B
:104160007AF586C57BF5040E05017C6FD8907B330C
:104170007A337C2FB6EFA0F07AC585F57BC586F53E
:10418000F951070DF350130F05ECEBF019C583F54A
:104190001AC584F50501F951070DF350140F05EC0C
:1041A000EBF019500501835D7F6F1A508459806FC1
:1041B000600EF925D96EDA6A060EDA22DF50030B9B
:1041C000E806D8B4E6EFA0F0E8EFA0F026EFA1F003
:1041D0008551835D86518459D8A0F1EFA0F0F3EFAB
:1041E000A0F026EFA1F0600EF925D96EDA6A060E6E
:1041F000DA220601DFA4FFEFA0F001EFA1F019EF32
:10420000A1F00501F951070DF350110F05ECEBF08A
:1042100019AC0DEFA1F010EFA1F0010E11EFA1F01C
:10422000000E0501726FF951040DF350080F43ECB5
:10423000D1F0600E0501F925D96EDA6A060EDA2290
:10424000DF50FC0B0109DF6EAEEFA1F0600EF92527
:10425000D96EDA6A060EDA22DF50030BE806D8A41C
:1042600034EFA1F036EFA1F0AEEFA1F07F51855D04
:1042700080518659D8A03FEFA1F041EFA1F0AEEFF9
:10428000A1F0600EF925D96EDA6A060EDA2206016F
:10429000DFA44DEFA1F04FEFA1F075EFA1F0050104
:1042A000F951070DF350110F05ECEBF019B65BEF68
:1042B000A1F05DEFA1F075EFA1F00501F951070D37
:1042C000F350110F05ECEBF019BC69EFA1F06CEFA6
:1042D000A1F0010E6DEFA1F0000E0501726FF95112
:1042E000040DF350080F43ECD1F0600E0501F925E1
:1042F000D96EDA6A060EDA22FC0EDF16AEEFA1F0F6
:10430000E8C56EF5E7C56FF5000E706FF929716F9E
:10431000F929726F85C573F58651746FFD0E0DEC2A
:10432000EFF0020E0501FA19D8A499EFA1F09BEF66
:10433000A1F0ACEFA1F085C52DF5F951070DF350B3
:10434000150F00ECEDF0050186512D6EF951070DAA
:10435000F350160F00ECEDF00501FA6B600EF92535
:10436000D96EDA6A060EDA220601DF840501F92B1E
:104370000F0EF965BEEFA1F0C0EFA1F0C1EFA1F003
:10438000F96BF951070DF350100F05ECEBF0050E2A
:1043900019181A10D8B4CFEFA1F0D1EFA1F0E2EFC5
:1043A000A1F00501F951070DF350100F05ECEBF0EA
:1043B000060E19181A10D8A4E0EFA1F0E2EFA1F050
:1043C00010EFA2F00501F951040D020EF326000EC4
:1043D000F422F60EF324F66EFE0EF420F76EF86A61
:1043E000000EF8220800F5C47AF5F951040D010E0B
:1043F000F326000EF422F60EF324F66EFE0EF420E1
:10440000F76EF86A000EF8220800F550080DF35018
:10441000F80F7A110301EC6FF381010E0501F86FBB
:1044200012003D04D8A417EFA2F019EFA2F068EF34
:10443000A2F031ECE7F006018851195C0501736FB9
:10444000060189511A580501746F06018A511B58DB
:104450000501756F06018B511C580501766F765169
:104460000DE1B50E735DC40E7459040E7559D8A0D4
:104470003CEFA2F03EEFA2F068EFA2F0FDA543EF03
:10448000A2F045EFA2F054EFA2F0E8C56EF5E7C543
:104490006FF5F0C570F5CFC671F5000E726FAB0EFB
:1044A000F7ECEEF00501F02B31ECE7F019C588F6DA
:1044B0001AC589F61BC58AF61CC58BF60601CF51B5
:1044C000D8B465EFA2F067EFA2F068EFA2F0CF07D3
:1044D0000501F251FD19D8B470EFA2F072EFA2F00D
:1044E0007FEFA2F0F90E266E030E276E000E286EE7
:1044F000FDC529F5000E15ECE9F0FDC5F2F5050145
:10450000F3513D18D8B487EFA2F089EFA2F0A6EFDF
:10451000A2F03D28D8B48FEFA2F091EFA2F099EF6E
:10452000A2F03D04D8A497EFA2F099EFA2F0A4EF77
:10453000A2F0FB0E266E030E276E000E286E3DC500
:1045400029F5000E15ECE9F03DC5F3F531ECE7F087
:1045500006018451195C0501736F060185511A58D3
:104560000501746F060186511B580501756F060120
:1045700087511C580501766F765175110BE1250E98
:10458000735DF40E7459D8A0C8EFA2F0CAEFA2F080
:104590005DEFA4F031ECE7F019C584F61AC585F695
:1045A0001BC586F61CC587F60601D34BD42BD35109
:1045B000D411D8A4DEEFA2F0E0EFA2F05DEFA4F0FA
:1045C000D14BD22B5DEFA4F0CEA4E9EFA2F0EBEF3C
:1045D000A2F0F7EFA2F031ECE7F019C5DFF51AC54C
:1045E000E0F51BC5E1F51CC5E2F56CEFA4F031EC7C
:1045F000E7F00501DF51195C736FE0511A58746FD1
:10460000E1511B58756FE2511C58766F76510DE1E0
:10461000910E735DD00E7459030E7559D8A013EF27
:10462000A3F015EFA3F06CEFA4F0FD0E3D6EF16961
:104630005FECECF06CEFA4F0CEA421EFA3F023EF3D
:10464000A3F0EBEFA2F03D6A0501F16931ECE7F070
:1046500019C5DFF51AC5E0F51BC5E1F51CC5E2F586
:10466000E8C56EF5E7C56FF5500EE1ECEEF05FECD6
:10467000ECF0EBEFA2F0CEA440EFA3F042EFA3F0FA
:10468000C5EFA3F031ECE7F00501DF51195C736F62
:10469000E0511A58746FE1511B58756FE2511C5864
:1046A000766F765175110BE16B0E735D180E7459B0
:1046B000D8A05DEFA3F05FEFA3F097EFA3F031EC8C
:1046C000E7F00501DF51195C736FE0511A58746F00
:1046D000E1511B58756FE2511C58766F76510BE112
:1046E000480E735DE80E7459010E7559D8B07BEF12
:1046F000A3F07DEFA3F097EFA3F0F1C53DF53D04E6
:10470000D8A485EFA3F087EFA3F095EFA3F0E3C55E
:10471000E7F5E4C5E8F5E8C56EF5E7C56FF5520EB7
:10472000E1ECEEF00601D74BD82B5FECECF031EC6E
:10473000E7F00501DF51195C736FE0511A58746F8F
:10474000E1511B58756FE2511C58766F76510DE19F
:10475000910E735DD00E7459030E7559D8A0B3EF46
:10476000A3F0B5EFA3F0B8EFA3F03D685FECECF079
:1047700031ECE7F019C5DFF51AC5E0F51BC5E1F529
:104780001CC5E2F53C6A6CEFA4F0010E3C6E6CEFC8
:10479000A4F0CEA4CEEFA3F0D0EFA3F0C5EFA3F02A
:1047A0003C50D8B4D6EFA3F0D8EFA3F025EFA4F097
:1047B00031ECE7F00501DF51195C736FE0511A58D5
:1047C000746FE1511B58756FE2511C58766F76512A
:1047D00075110BE16B0E735D180E7459D8A0F3EFD1
:1047E000A3F0F5EFA3F025EFA4F031ECE7F005011D
:1047F000DF51195C736FE0511A58746FE1511B5807
:10480000756FE2511C58766F76510BE1480E735D5F
:10481000E80E7459010E7559D8B011EFA4F013EFDA
:10482000A4F025EFA4F0E7C5E3F5E8C5E4F5E86BEF
:10483000E76B3D6A010EF16FE4C56EF5E3C56FF5F8
:10484000500EE1ECEEF05FECECF03C50D8B42BEF06
:10485000A4F02DEFA4F0B8EFA3F031ECE7F00501E0
:10486000DF51195C736FE0511A58746FE1511B5896
:10487000756FE2511C58766F76510DE1900E735DA5
:10488000D00E7459030E7559D8A049EFA4F04BEF20
:10489000A4F0B8EFA3F0E7C5E3F5E8C5E4F5E86BED
:1048A000E76B3D68010EF16FE4C56EF5E3C56FF58A
:1048B000510EE1ECEEF0B6EFA3F03D50000AD8B493
:1048C0003BEFA3F0FD0AD8B41CEFA3F0020AD8B462
:1048D000E4EFA2F0C9EFA3F012002F6ECF0E2F2449
:1048E000D96EDA6A050EDA22DF50256E266A400E8E
:1048F0002F24D96EDA6A060EDA22DF50276E286A74
:10490000030E2726000E28222550275C2850800AF7
:10491000296E2650800A2958D8A091EFA4F093EF71
:10492000A4F0E8EFA4F0400E2F24D96EDA6A060E48
:10493000DA22DF50256EFD0E2524266E276AFF0E33
:104940002722CF0E2F24D96EDA6A050EDA22DF5025
:10495000286E296A2650285C2950800A2A6E275022
:10496000800A2A58D8A0B7EFA4F0B9EFA4F0E8EF76
:10497000A4F02F50020D000EF324D96E060EF42081
:10498000DA6E010EDBBED1EFA4F0010EDB5007E1C1
:10499000040EDE5CD8B0CFEFA4F0D1EFA4F0E8EFC6
:1049A000A4F02F50020D000EF324D96E060EF42051
:1049B000DA6E010EDBAEE6EFA4F0FD0EDE5CFF0E5C
:1049C000DE58D8B0E6EFA4F0E8EFA4F0C6EFA6F00A
:1049D0002F50070DF350120F05ECEBF019C525F51C
:1049E0001AC526F52F50070DF350130F05ECEBF009
:1049F0001950255CD8A0FFEFA4F002EFA5F0010E3E
:104A000003EFA5F0000E2C6E2C50D8A40AEFA5F0F1
:104A10000CEFA5F0EAEFA5F02F50020D000EF324E5
:104A2000D96E060EF420DA6EDEC41DF5DDC41EF567
:104A3000000E206E1E0E1F6E47ECDAF01DC525F528
:104A40001EC526F52F50070DF350130F05ECEBF0A4
:104A500019502524276E000E2620286ECF0E2F24F5
:104A6000D96EDA6A050EDA22DF50296E2A6A2750DB
:104A7000295C2A50800A2B6E2850800A2B58D8B007
:104A800044EFA5F046EFA5F0C0EFA5F02F50020DC2
:104A9000000EF324D96E060EF420DA6EDEC425F57E
:104AA000DDC426F5251E261E254A262A2F50070D71
:104AB000F350140F05ECEBF025501902F3C427F561
:104AC000F4C428F51A02F350282626501902F35090
:104AD000282627C51DF528C51EF5000E206E640E7C
:104AE0001F6E47ECDAF02F50020D000EF324D96E42
:104AF000060EF420DA6E1DC5DEF41EC5DDF42F505F
:104B0000070DF350130F05ECEBF01950256E266AD4
:104B10002F50070DF350130F05ECEBF0195025261D
:104B2000000E2622CF0E2F24D96EDA6A050EDA2265
:104B3000DF50276E2750255E000E265A2F50020D9B
:104B4000000EF324D96E060EF420DA6EDEC41DF5D5
:104B5000DDC41EF5000E206E1E0E1F6E47ECDAF04F
:104B60001D50255C2D6E1E5026582E6ECF0E2F2404
:104B7000D96EDA6A050EDA222DC5DFF4C3EFA6F08E
:104B80002F50020D000EF324D96E060EF420DA6EBB
:104B9000030EDE26000EDD222F50020D000EF32440
:104BA000D96E060EF420DA6EDEC41DF5DDC41EF5E6
:104BB000000E206E1E0E1F6E47ECDAF0010E1D2651
:104BC000CF0E2F24D96EDA6A050EDA221D50DF5E71
:104BD000C3EFA6F0CF0E2F24D96EDA6A050EDA22C3
:104BE000DF50256E266A2F50070DF350130F05EC8A
:104BF000EBF019C527F51AC528F52F50020D000E48
:104C0000F324D96E060EF420DA6EDEC41DF5DDC481
:104C10001EF5000E206E1E0E1F6E47ECDAF01D50C2
:104C2000275C296E1E50D8A01E282A6A2A5E2550AD
:104C3000295C2A50800A2B6E2650800A2B58D8B047
:104C400024EFA6F026EFA6F09BEFA6F02F50020D62
:104C5000000EF324D96E060EF420DA6EDEC425F5BC
:104C6000DDC426F5251E261E254A262A2F50070DAF
:104C7000F350140F05ECEBF025501902F3C427F59F
:104C8000F4C428F51A02F350282626501902F350CE
:104C9000282627C51DF528C51EF5000E206E640EBA
:104CA0001F6E47ECDAF02F50020D000EF324D96E80
:104CB000060EF420DA6E1DC5DEF41EC5DDF42F509D
:104CC000070DF350130F05ECEBF01950256E266A13
:104CD0002F50070DF350130F05ECEBF0195025265C
:104CE000000E26222F50020D000EF324D96E060E60
:104CF000F420DA6EDEC41DF5DDC41EF5000E206E54
:104D00001E0E1F6E47ECDAF01D502524276E1E5034
:104D10002620286ECF0E2F24D96EDA6A050EDA22ED
:104D2000DF50296E2950275C2D6E2850D8A028040A
:104D30002E6EB6EFA5F02F50020D000EF324D96EA3
:104D4000060EF420DA6E030EDE26000EDD222F5052
:104D5000020D000EF324D96E060EF420DA6EDEC4C6
:104D60001DF5DDC41EF5000E206E1E0E1F6E47ECF5
:104D7000DAF0010E1D26CF0E2F24D96EDA6A050E49
:104D8000DA221D50DF26000EC7EFA6F0010E12003A
:104D90002E6EF80E2E241D6E1E6AFF0E1E22000EB1
:104DA000206E040E1F6E47ECDAF01D50466E0F0E9B
:104DB0004664DDEFA6F0DFEFA6F0E2EFA6F0FF0E0F
:104DC00001EFA9F02E50F80F030B2F6E4650070D80
:104DD000F350110F05ECEBF019502C6E2C50080B12
