:04000000FEEF03F01C
:0400080004EF04F00D
:040018000CEF04F0F5
:1000740000370800F5501200380E0001456FF80EE5
:100084004117408140B1FED7070E4113465112007B
:100094001F6E010103511F18F80B1F18036F02395B
:1000A400E832070B1F18D8B41200F9D700014151E8
:1000B400F80B0609416F550E426FAA0E426F40813C
:1000C40040B1FED7070E411312001F6E000140B16C
:1000D400FDD71FC546F0000E476F4151F80B0309C9
:1000E400416F550E426FAA0E426F4081070E4113B5
:1000F4001200740EF66E000EF76E000EF86E090014
:10010400F5C433F50900F5C434F501EE01F11E0E12
:10011400EE6AE806FDE10001AFEF01F0000E0C6E9F
:10012400000E0B6E000E0B24D96E370E0C20DA6E07
:10013400FF0EDF6E0B4A0C2A0C04D8A0F3D7000E76
:10014400166E000E156E000E146E12001F6E380E21
:100154000001456F1FC546F04151F80B0309416F7B
:10016400550E426FAA0E426F408140B1FED7070E72
:1001740041133EEC00F01F18D8B41200E8D7080E63
:10018400156003D01450D8B4120016C543F015C539
:1001940044F014C545F058EC00F04151F80B050942
:1001A400416F550E426FAA0E426F408140B1FED797
:1001B400070E411312001F6E07C5D9F408C5DAF4FF
:1001C400DF6A20EE01F00750D9260850DA22240E07
:1001D400DF6E20EE02F00750D9260850DA22DF6ADB
:1001E40020EE03F00750D9260850DA22DF6A1F50A8
:1001F400D8B409D020EE01F00750D9260850DA22ED
:10020400000EDB8608D020EE01F00750D9260850F6
:10021400DA22F70EDF16030E010169131200460EEF
:1002240002010B6F0B0E3D6FC794C786000E0301CE
:10023400676F0101018F040E4AEC00F0000E4C6F51
:10024400380E4D6F000E4E6F000E4F6F000E006F94
:10025400870E016F100E026F500E036F000E046FB5
:10026400030E056F020E066F3F0E076F800E686F58
:10027400040E696F600E6A6F5F0E6B6F080E746F09
:10028400040E756F000E766F5F0E776F400E8F6FE2
:10029400400E936F830E806F060E4AEC00F012003E
:1002A4002F6E1550206E1F6A1450236E226A216A25
:1002B4001F502110246E20502210256E000E20BEE7
:1002C400FF0E2310266E00014451286E276A455103
:1002D4002B6E2A6A296A275029102C6E28502A105E
:1002E4002D6E000E28BEFF0E2B102E6E24502C18DF
:1002F40007E125502D1804E126502E18D8B424D037
:1003040043C013F544C012F545C011F5C1EC00F02B
:10031400000E166E12C515F511C514F5000140B195
:10032400FDD714C545F015C544F016C543F0415139
:10033400F80B0209416F4081070E411313C543F0C6
:1003440012C544F011C545F0000E4325D96EDA6A92
:10035400370EDA222FC5DFF41200100E356E000EB0
:100364000401006F000E086FC79EC79CC684380E38
:100374000001456F030E446F43693EEC00F0000931
:10038400D8B4CEA402D000EF04F0400E356E0001C4
:10039400AD518F0B2009AD6F000E1C6E1C0E1B6E31
:1003A400C79CC79EBF8CBF8E11EC01F090EC00F08F
:1003B400000E046E000E036E0400010178A1FDD747
:1003C4007CC109F57DC10AF520EE04F00950D92657
:1003D4000A50DA22DF500F0B106E20EE01F00950A4
:1003E400D9260A50DA22DFA67CD119C545F018C5F2
:1003F40044F017C543F01BA60AD01050306E316A82
:10040400326A305017263150182232501922020E07
:10041400196074D020EE01F00950D9260A50DA226E
:10042400DFA82FD06CA1FED770C107F571C108F504
:10043400000E0F6E0F500724306E000E0820316E30
:10044400080E3024D96E000E3120DA6E3BEC00F039
:10045400DF6EF62AF650D8A404D0F72AF750D8B4A1
:10046400F82A0F2A080E0F64E5D720EE04F007508F
:10047400D9260850DA22180EDF6E010EDDEC00F0EA
:100484003DD000014551D8A403D0070E446536D0B1
:100494001BA203D058EC00F031D0000E0F6E2AD00E
:1004A4000F500924306E000E0A20316E080E3024DD
:1004B400D96E000E3120DA6EDF5052EC01F00F508D
:1004C4000924306E000E0A20316E080E3024D96ED5
:1004D400000E3120DA6EDF50326E32500326000EE9
:1004E4000422432B4351D8A404D0442B4451D8B400
:1004F400452B0F2A10500F5CD8A0D2D7300E1918F4
:10050400D8A466D020EE01F00950D9260A50DA2288
:10051400DFA830D001016CA1FDD770C107F571C10E
:1005240008F5000E0F6E0F500724306E000E0820E1
:10053400316E080E3024D96E000E3120DA6E3BEC99
:1005440000F0DF6EF62AF650D8A404D0F72AF7504C
:10055400D8B4F82A0F2A080E0F64E5D720EE04F069
:100564000750D9260850DA22180EDF6E010EDDEC92
:1005740000F02ED0000E0F6E27D004000F50092477
:10058400306E000E0A20316E080E3024D96E000E33
:100594003120DA6EDF5067EC00F00F500924306E22
:1005A400000E0A20316E080E3024D96E000E312060
:1005B400DA6EDF50326E32500326000E0422F62A21
:1005C400F650D8B4F72A0F2A10500F5CD8A0D5D70C
:1005D400380E1918D8A461D020EE01F00950D9269C
:1005E4000A50DA22DFA82CD001016CA1FDD770C11A
:1005F40007F571C108F5000E0F6E0F500724306E19
:10060400000E0820316E080E3024D96E000E312001
:10061400DA6E3EEC00F0DF6E432B4351D8B4442B2A
:100624000F2A080E0F64E9D720EE04F00750D926EC
:100634000850DA22180EDF6E010EDDEC00F02DD02A
:10064400000E0F6E26D00F500924306E000E0A20C3
:10065400316E080E3024D96E000E3120DA6EDF5070
:10066400A8EC00F00F500924306E000E0A20316E01
:10067400080E3024D96E000E3120DA6EDF50326E4F
:1006840032500326000E0422432B4351D8B4442B8A
:100694000F2A10500F5CD8A0D6D720EE01F00950D5
:1006A400D9260A50DA22DFA81BA89CD001016CA12C
:1006B400FDD770C107F571C108F520EE08F00750A9
:1006C400D9260850DA22010EDF6E20EE04F007501E
:1006D400D9260850DA22110EDF6E000EDDEC00F090
:1006E40081D0C1EC00F0170E056E050E066E080EE3
:1006F4000924016E000E0A20026E000E0F6E0FD048
:1007040001C5D9F402C5DAF405C5E1F406C5E2F47D
:10071400DFC4E7F4054A062A014A022A0F2A1050C8
:100724000F5CD8A0EDD71C04D8A40CD0380E00015F
:10073400456F030E446F4369000EA8EC00F0BF9CA4
:10074400BF9EFF00020E1C18D8A404D0000E046E35
:10075400000E036E030E1C18D8A426D001016CA150
:10076400FDD770C107F571C108F520EE08F00750F8
:10077400D9260850DA2203501D24306E04501E205E
:10078400316E30503110D8A402D0010E01D0000EC9
:10079400DF6E20EE04F00750D9260850DA22110E3D
:1007A400DF6E000EDDEC00F0040E1C18D8A41AD085
:1007B40001016CA1FDD770C107F571C108F520EEE8
:1007C40008F00750D9260850DA22020EDF6E20EE18
:1007D40004F00750D9260850DA22110EDF6E000EFD
:1007E400DDEC00F001017581E7D5424C5F564552BE
:0707F40053494F4E3D030184
:0807FC007BEF00F001EF05F0B6
:10082000A56120FF147F040B1701000800000000E1
:1008300000000105000000001400480800005103FA
:080848004D494F202020200043
:10090000C902C902C902C902C902C902AA76C9023A
:10091000C902C902C902C902C902C902C902C9027F
:10092000C902C902C902C902C902C902C902C9026F
:10093000C902C902C902C902B075C902C902C77792
:10094000C902C902C902C902C902C902C902C9024F
:10095000C902C902C902C9028875C902C902C9020D
:10096000C902C902C902C902C902C902C902C9022F
:10097000C902C902C902C9028002C902C902C90268
:10098000C902C902C902C902C902C902C902C9020F
:10099000C902C902C902C9028002C902C902C90248
:1009A000C902C902C902C902C902C902C902C902EF
:1009B000C902C902C902C902C902C902C902C902DF
:1009C000C902C902C902C902C902C902C902C902CF
:1009D000C902C902C902C902C902C902C902C902BF
:1009E0008002C902C902C902C902C902C902C902F8
:1009F000C902C902C902C902C902C902C902C9029F
:100A0000FF00EEEFE2F0000E396EFE0E0501606FA2
:100A1000030E616F000E626F39C563F5000EFFECC7
:100A2000E8F01200040ED2ECE1F01D6EF60E1E6E20
:100A3000C90E1F6E010E206E020ECCECE8F0120003
:100A4000050ED2ECE1F01D6E100E1E6E910E1F6EA3
:100A5000010E206E010ECCECE8F01200000E346E98
:100A6000000E456E070E466E000E476E000EF86EC5
:100A70000001419F120027ECEFF00009D8A443EFDA
:100A800005F046EF05F0010E47EF05F0000E1200ED
:100A900077C573F578C574F579C575F5090E050147
:100AA000766F68ECDFF012000601D429D8B45BEF52
:100AB00005F05DEF05F05EEF05F0D42B1200000E9F
:100AC0000601986F000E996F000E9A6F000E9B6FD3
:100AD000120001010239E832070B1200196E19C524
:100AE000E9F51200000ED4ECD3F012000501EC6918
:100AF0001200196E19041200196E1928120025EC43
:100B0000C2F01200000E3D6E1200010E3D6E12008A
:100B1000BEECE9F0120018ECEAF01200000E120030
:060B2000000E120011009E
:10FD94000001010302020202030202030100000146
:10FDA400010101010101010101010101010101013F
:10FDB400010101010101010101010101010101012F
:10FDC400010101010101010101010101010101011F
:10FDD4000001010101010101010100010100000014
:10FDE400000000000000000000000000000001010D
:10FDF40001010103010101010101010100000000F1
:10FE040000000000010001010101010100010101E4
:10FE140001010101000101010101010001000000D3
:10FE240000000000000000000000000000010101CB
:10FE340001010101010101010000010100000000B4
:10FE440000000000010000010101000000010101A7
:10FE54000101010100010101010101010100000092
:10FE64000000000101000001010100000001010087
:10FE74000101010000010001010101010000000075
:10FE8400000000000000000000000001000000006D
:10FE9400000B4300FF0C4301FF0D4302FF0E43031D
:10FEA400FF0F4304FF104305FF114306FF124307EE
:10FEB400FF1542000A16420108194204091A4205B4
:10FEC400FF0341010102410000054103030741050D
:10FED40004E4FFD0FFBCFFA8FF94FF80FF6CFF5831
:10FEE400FF44FF424C5F56455253494F4E3D0B0A67
:10FEF40009080000060404000000010600000000D8
:10FF04000002068080EBEB000306807F40033C0484
:10FF140006038080800005068010000000060600AD
:10FF24007B2007FF07060500000000080000000012
:10FF340000000000000000000000000000000000BD
:10FF4400090100000008DA016475010000000000E6
:10FF5400002EDC0108010000000000000000000089
:10FF640000000000000000000501000000D2D901DB
:10FF7400AE72010000007ADE019EDB010601000082
:10FF840000DAD4018C3C01000000A4DE015EDC0137
:10FF94000401160B006ED8013A29010000006EDB43
:10FFA400018EDC010A02000000BEA60114B30100A8
:10FFB40000003EDB010000000201A4D70128D901A2
:10FFC400CE5E010000008ADF01CEDB010101DACB45
:10FFD400012A95012A1101105701000000FEDB01DE
:10FFE4000302060A00BA89016CA901FE0A00ACDF0B
:0BFFF40001E2BC019A4A016A7C010096
:020000040001F9
:10000000000E0501856F04EF88F005018551070D8D
:10001000F350120F96ECEAF01950236E246A000E8A
:10002000266E020E256E28ECD9F023C57AF524C57C
:100030007BF505018551070DF350130F96ECEAF09F
:100040001950236E246A000E266E020E256E28ECCF
:10005000D9F0235005017A25846F000E836FFAEFE3
:1000600082F08551070DF350120F96ECEAF0CC0E9A
:1000700005018525D96EDA6A050EDA22DF507A6F1E
:100080007B6B19507A1907E11A507B19D8A44BEFF2
:1000900080F04DEF80F05FEF80F08551070DF35059
:1000A000110F96ECEAF01950400B0501726F855163
:1000B000040DF350080F05ECD0F06FEF80F0855180
:1000C000070DF350110F96ECEAF01950400B0501A3
:1000D000726F8551040DF3500A0F05ECD0F0300E0D
:1000E00005018525D96EDA6A060EDA22020EDF6E68
:1000F000400E8525D96EDA6A060EDA22CC0E8525E9
:10010000E16EE26A050EE222DE50E65CD8B08BEFCB
:1001100080F08DEF80F072EF81F0CC0E8525D96EE6
:10012000DA6A050EDA228451DE5CD8B09AEF80F0EC
:100130009CEF80F09EEF80F0010E836F200E8525EE
:10014000D96EDA6A060EDA22DF50D8B4AAEF80F050
:10015000ACEF80F0F5EF80F0CC0E8525D96EDA6A31
:10016000050EDA22DF507A6F7B6BCC0E8525D96EB7
:10017000DA6A050EDA22DF507C6F7D6B200E852552
:10018000D96EDA6A060EDA22DF507E6F7E517C2746
:10019000000E7D237A517C5D7D51800A7F6F7B51FB
:1001A000800A7F59D8B0D7EF80F0D9EF80F0E3EF25
:1001B00080F0CC0E8525D96EDA6A050EDA22FF0EA4
:1001C000DF6E1FEF81F0200E8525D96EDA6A060EEC
:1001D000DA22DF507A6FCC0E8525D96EDA6A050EE9
:1001E000DA227A51DF261FEF81F0840E8525D96E41
:1001F000DA6A070EDA22DF06840E8525D96EDA6AFE
:10020000070EDA22DF50D8A408EF81F00AEF81F060
:100210001FEF81F0CC0E8525D96EDA6A050EDA2241
:10022000DF2A940E8525D96EDA6A070EDA22840E4B
:100230008525E16EE26A070EE222DFC4E7F4CC0E08
:100240008525D96EDA6A050EDA22400E8525E16E23
:10025000E26A060EE222DE50E65CD8B032EF81F0B0
:1002600034EF81F042EF81F0400E8525D96EDA6AD5
:10027000060EDA22CC0E8525E16EE26A050EE22238
:10028000DFC4E7F4CC0E8525D96EDA6A050EDA22D2
:100290008451DE5CD8A04FEF81F051EF81F062EF26
:1002A00082F08351D8B457EF81F059EF81F062EFBB
:1002B00082F08551070DF350110F96ECEAF019AC5E
:1002C00064EF81F067EF81F0010E68EF81F0000EBE
:1002D0000501726F8551040DF350090F05ECD0F044
:1002E00062EF82F0CC0E8525D96EDA6A050EDA222D
:1002F000400E8525E16EE26A060EE222DE50E65CE3
:10030000D8B085EF81F087EF81F062EF82F0CC0EFC
:100310008525D96EDA6A050EDA22DE50845DD8B002
:1003200094EF81F096EF81F098EF81F0010E836FEA
:10033000200E8525D96EDA6A060EDA22DF50D8B48F
:10034000A4EF81F0A6EF81F0EEEF81F0CC0E8525D1
:10035000D96EDA6A050EDA22DF507A6F7B6B200ED7
:100360008525D96EDA6A060EDA22DF507C6F7C5161
:100370007A5F000E7B5BCC0E8525D96EDA6A050E9E
:10038000DA22DF507D6F7E6B7A517D5D7E51800A6F
:100390007F6F7B51800A7F59D8B0D1EF81F0D3EFC6
:1003A00081F0DCEF81F0CC0E8525D96EDA6A050E7E
:1003B000DA22DF6A18EF82F0200E8525D96EDA6A1C
:1003C000060EDA22DF507A6FCC0E8525D96EDA6AF6
:1003D000050EDA227A51DF5E18EF82F0840E852551
:1003E000D96EDA6A070EDA22DF06840E8525D96E09
:1003F000DA6A070EDA22DF50D8A401EF82F003EFA9
:1004000082F018EF82F0CC0E8525D96EDA6A050EDF
:10041000DA22DF06940E8525D96EDA6A070EDA2213
:10042000840E8525E16EE26A070EE222DFC4E7F45E
:10043000400E8525D96EDA6A060EDA22CC0E8525A5
:10044000E16EE26A050EE222DE50E65CD8B02BEFE8
:1004500082F02DEF82F03BEF82F0400E8525D96EC1
:10046000DA6A060EDA22CC0E8525E16EE26A050E06
:10047000E222DFC4E7F4CC0E8525D96EDA6A050ED8
:10048000DA22DE50845DD8A048EF82F04AEF82F095
:1004900062EF82F08351D8B450EF82F052EF82F0D5
:1004A00062EF82F08551070DF350110F96ECEAF0E0
:1004B0001950400B0501726F8551040DF350090F5F
:1004C00005ECD0F0CC0E05018525D96EDA6A050E53
:1004D000DA22400E8525E16EE26A060EE222DE5047
:1004E000E618D8A476EF82F078EF82F066EF88F015
:1004F000300E8525D96EDA6A060EDA22010EDF6E1D
:10050000B2ECE5F005018551040D000EF324D96E1F
:10051000070EF420DA6E19C5DEF41AC5DEF41BC529
:10052000DEF41CC5DEF48551070DF350120F96EC76
:10053000EAF0CC0E05018525D96EDA6A050EDA22BD
:10054000DF507A6F7B6B19507A1907E11A507B19CB
:10055000D8A4ADEF82F0AFEF82F0C8EF82F0855102
:10056000070DF350110F96ECEAF019ACBAEF82F0D8
:10057000BDEF82F0010EBEEF82F0000E0501726F3A
:100580008551040DF350080F05ECD0F0DFEF82F039
:100590008551070DF350110F96ECEAF019ACD3EF2B
:1005A00082F0D6EF82F0010ED7EF82F0000E050147
:1005B000726F8551040DF3500A0F05ECD0F0050160
:1005C00085517A6F7B6B7C6BDE0E7A25606F030E34
:1005D0007B21616F000E7C21626FCC0E8525D96E68
:1005E000DA6A050EDA22DF50636F000EFFECE8F0E6
:1005F00066EF88F0300E8525D96EDA6A060EDA22AB
:10060000DF507A6F7B6B7B51000AD8B40AEF83F01E
:1006100066EF88F07A51000AD8B420EF88F0010A1A
:10062000D8B420EF88F0030AD8B478EF80F0010A3C
:10063000D8B431EF80F066EF88F0855167ECEFF0C9
:10064000300E05018525D96EDA6A060EDA22020E11
:10065000DF6E740E8525D96EDA6A070EDA22DF6A3C
:10066000740E8525D96EDA6A070EDA22DF2A740E37
:100670008525D96EDA6A070EDA22DE28D8A443EF80
:1006800083F045EF83F0A0EF83F0300E8525D96E1F
:10069000DA6A060EDA22010EDF6EB2ECE5F0050131
:1006A0008551040D000EF324D96E070EF420DA6E86
:1006B00019C5DEF41AC5DEF41BC5DEF41CC5DEF474
:1006C000400E8525D96EDA6A060EDA22CC0E852513
:1006D000E16EE26A050EE222DFC4E7F48551070D00
:1006E000F350110F96ECEAF019AC79EF83F07CEF40
:1006F00083F0010E7DEF83F0000E0501726F8551CE
:10070000040DF350080F05ECD0F0050185517A6F08
:100710007B6B7C6BDE0E7A25606F030E7B21616F35
:10072000000E7C21626FCC0E8525D96EDA6A050E2B
:10073000DA22DF50636F000EFFECE8F066EF88F01E
:100740008551070DF350120F96ECEAF01950050190
:10075000826F400E8525D96EDA6A060EDA22825142
:10076000DE18D8A4B6EF83F0B8EF83F01FEF84F063
:1007700085515EECB6F00009D8B4C1EF83F0C3EF49
:1007800083F066EF88F0300E05018525D96EDA6AB0
:10079000060EDA22010EDF6EB2ECE5F0050185519E
:1007A000040D000EF324D96E070EF420DA6E19C57D
:1007B000DEF41AC5DEF41BC5DEF41CC5DEF4400E03
:1007C0008525D96EDA6A060EDA22CC0E8525E16E11
:1007D000E26A050EE222DFC4E7F48551070DF3500B
:1007E000110F96ECEAF019ACF8EF83F0FBEF83F011
:1007F000010EFCEF83F0000E0501726F8551040DB0
:10080000F350080F05ECD0F0050185517A6F7B6B32
:100810007C6BDE0E7A25606F030E7B21616F000E0C
:100820007C21626FCC0E8525D96EDA6A050EDA223C
:10083000DF50636F000EFFECE8F066EF88F0855143
:10084000ABECA0F00009D8B428EF84F02AEF84F0D4
:1008500066EF88F0300E05018525D96EDA6A060E3E
:10086000DA22010EDF6EB2ECE5F005018551040DD0
:10087000000EF324D96E070EF420DA6E19C5DEF4EB
:100880001AC5DEF41BC5DEF41CC5DEF4400E85255A
:10089000D96EDA6A060EDA22CC0E8525E16EE26A9E
:1008A000050EE222DFC4E7F48551070DF350110F66
:1008B00096ECEAF01950400B0501726F8551040D5A
:1008C000F350080F05ECD0F0050185517A6F7B6B72
:1008D0007C6BDE0E7A25606F030E7B21616F000E4C
:1008E0007C21626FCC0E8525D96EDA6A050EDA227C
:1008F000DF50636F000EFFECE8F066EF88F0300E1B
:1009000005018525D96EDA6A060EDA22DF507A6F84
:100910007B6B7B51000AD8B490EF84F066EF88F0CF
:100920007A51000AD8B420EF88F0010AD8B466EFF3
:1009300088F0030AD8B430EF83F0010AD8B41DEF71
:1009400083F066EF88F08551070DF350130F96EC96
:10095000EAF0CC0E05018525D96EDA6A050EDA2299
:10096000DF507A6F7B6B19507A1907E11A507B19A7
:10097000D8A4BDEF84F0BFEF84F0CFEF84F08551B1
:10098000070DF350110F96ECEAF01950400B0501DA
:10099000726F8551040DF350080F05ECD0F005017E
:1009A0008551070DF350140F96ECEAF0CC0E0501BB
:1009B0008525D96EDA6A050EDA22DF507A6F7B6BF5
:1009C00019507A1907E11A507B19D8A4EAEF84F07C
:1009D000ECEF84F0FCEF84F08551070DF350110F1C
:1009E00096ECEAF01950400B0501726F8551040D29
:1009F000F350090F05ECD0F005018551070DF350B8
:100A0000150F96ECEAF0CC0E05018525D96EDA6A51
:100A1000050EDA22DF507A6F7B6B19507A1907E1E5
:100A20001A507B19D8A417EF85F019EF85F029EF3C
:100A300085F08551070DF350110F96ECEAF019502F
:100A4000400B0501726F8551040DF3500A0F05EC40
:100A5000D0F005018551070DF350160F96ECEAF022
:100A6000CC0E05018525D96EDA6A050EDA22DF5033
:100A70007A6F7B6B19507A1907E11A507B19D8A449
:100A800044EF85F046EF85F056EF85F08551070D70
:100A9000F350110F96ECEAF01950400B0501726FFC
:100AA0008551040DF3500B0F05ECD0F0300E05010D
:100AB0008525D96EDA6A060EDA22020EDF6E400E46
:100AC0008525D96EDA6A060EDA22CC0E8525E16E0E
:100AD000E26A050EE222DE50E65CD8B072EF85F0E5
:100AE00074EF85F01AEF86F0200E8525D96EDA6A4C
:100AF000060EDA22DF50D8B480EF85F082EF85F061
:100B0000CBEF85F0CC0E8525D96EDA6A050EDA2298
:100B1000DF507A6F7B6BCC0E8525D96EDA6A050EB5
:100B2000DA22DF507C6F7D6B200E8525D96EDA6A64
:100B3000060EDA22DF507E6F7E517C27000E7D2369
:100B40007A517C5D7D51800A7F6F7B51800A7F598D
:100B5000D8B0ADEF85F0AFEF85F0B9EF85F0CC0EF2
:100B60008525D96EDA6A050EDA22FF0EDF6EF5EF03
:100B700085F0200E8525D96EDA6A060EDA22DF505E
:100B80007A6FCC0E8525D96EDA6A050EDA227A5193
:100B9000DF26F5EF85F0840E8525D96EDA6A070E1B
:100BA000DA22DF06840E8525D96EDA6A070EDA228C
:100BB000DF50D8A4DEEF85F0E0EF85F0F5EF85F0AB
:100BC000CC0E8525D96EDA6A050EDA22DF2A940E5C
:100BD0008525D96EDA6A070EDA22840E8525E16E44
:100BE000E26A070EE222DFC4E7F4CC0E8525D96E57
:100BF000DA6A050EDA22400E8525E16EE26A060EFB
:100C0000E222DE50E65CD8B008EF86F00AEF86F00C
:100C1000C6EF86F0400E8525D96EDA6A060EDA2216
:100C2000CC0E8525E16EE26A050EE222DFC4E7F410
:100C3000C6EF86F0CC0E8525D96EDA6A050EDA226B
:100C4000400E8525E16EE26A060EE222DE50E65C89
:100C5000D8B02DEF86F02FEF86F0C6EF86F0200E8D
:100C60008525D96EDA6A060EDA22DF50D8B43BEF5A
:100C700086F03DEF86F085EF86F0CC0E8525D96EA7
:100C8000DA6A050EDA22DF507A6F7B6B200E85253B
:100C9000D96EDA6A060EDA22DF507C6F7C517A5FF9
:100CA000000E7B5BCC0E8525D96EDA6A050EDA2242
:100CB000DF507D6F7E6B7A517D5D7E51800A7F6F44
:100CC0007B51800A7F59D8B068EF86F06AEF86F0D2
:100CD00073EF86F0CC0E8525D96EDA6A050EDA221E
:100CE000DF6AAFEF86F0200E8525D96EDA6A060E30
:100CF000DA22DF507A6FCC0E8525D96EDA6A050EBE
:100D0000DA227A51DF5EAFEF86F0840E8525D96E48
:100D1000DA6A070EDA22DF06840E8525D96EDA6AD2
:100D2000070EDA22DF50D8A498EF86F09AEF86F00B
:100D3000AFEF86F0CC0E8525D96EDA6A050EDA2281
:100D4000DF06940E8525D96EDA6A070EDA22840E44
:100D50008525E16EE26A070EE222DFC4E7F4400E69
:100D60008525D96EDA6A060EDA22CC0E8525E16E6B
:100D7000E26A050EE222DE50E65CD8B0C2EF86F0F1
:100D8000C4EF86F0C6EF86F00AEF86F0CC0E85251C
:100D9000D96EDA6A050EDA22400E8525E16EE26A26
:100DA000060EE222DE50E618D8A4D9EF86F0DBEF7B
:100DB00086F066EF88F0300E8525D96EDA6A060E69
:100DC000DA22010EDF6EB2ECE5F005018551040D6B
:100DD000000EF324D96E070EF420DA6E19C5DEF486
:100DE0001AC5DEF41BC5DEF41CC5DEF48551070D03
:100DF000F350130F96ECEAF0CC0E05018525D96E61
:100E0000DA6A050EDA22DF507A6F7B6B19507A1995
:100E100007E11A507B19D8A410EF87F012EF87F082
:100E200029EF87F08551070DF350110F96ECEAF08A
:100E300019AC1DEF87F020EF87F0010E21EF87F04E
:100E4000000E0501726F8551040DF350080F05EC7B
:100E5000D0F005018551070DF350140F96ECEAF020
:100E6000CC0E05018525D96EDA6A050EDA22DF502F
:100E70007A6F7B6B19507A1907E11A507B19D8A445
:100E800044EF87F046EF87F05DEF87F08551070D5F
:100E9000F350110F96ECEAF019AC51EF87F054EFD4
:100EA00087F0010E55EF87F0000E0501726F855136
:100EB000040DF350090F05ECD0F005018551070D25
:100EC000F350150F96ECEAF0CC0E05018525D96E8E
:100ED000DA6A050EDA22DF507A6F7B6B19507A19C5
:100EE00007E11A507B19D8A478EF87F07AEF87F0E2
:100EF00091EF87F08551070DF350110F96ECEAF052
:100F000019AC85EF87F088EF87F0010E89EF87F045
:100F1000000E0501726F8551040DF3500A0F05ECA8
:100F2000D0F005018551070DF350160F96ECEAF04D
:100F3000CC0E05018525D96EDA6A050EDA22DF505E
:100F40007A6F7B6B19507A1907E11A507B19D8A474
:100F5000ACEF87F0AEEF87F0C5EF87F08551070D56
:100F6000F350110F96ECEAF019ACB9EF87F0BCEF33
:100F700087F0010EBDEF87F0000E0501726F8551FD
:100F8000040DF3500B0F05ECD0F0050185517A6F7D
:100F90007B6B7C6BDE0E7A25606F030E7B21616FAD
:100FA000000E7C21626FCC0E8525D96EDA6A050EA3
:100FB000DA22DF50636F000EFFECE8F066EF88F096
:100FC000300E05018525D96EDA6A060EDA22DF5069
:100FD0007A6F7B6B7B51000AD8B4F1EF87F066EF34
:100FE00088F07A51000AD8B420EF88F0010AD8B40A
:100FF00066EF88F0030AD8B45FEF85F0010AD8B431
:10100000A3EF84F066EF88F08551070DF350100FC1
:1010100096ECEAF01A50000AD8B411EF88F066EFA7
:1010200088F01950020AD8B405EF80F0010AD8B44C
:101030007FEF84F0070AD8B4E0EF87F066EF88F01E
:1010400066EF88F08551070DF350110F96ECEAF02A
:1010500019A22DEF88F02FEF88F08AEF88F00501B4
:101060008551040D000EF324D96E070EF420DA6EBC
:10107000DEC47AF5DEC47BF5DEC47CF5DEC47DF526
:10108000B2ECE5F005017A51195C7E6F7B511A587C
:101090007F6F7C511B58806F7D511C58816F81512F
:1010A00080110BE1250E7E5DF40E7F59D8A05BEF19
:1010B00088F05DEF88F08AEF88F0300E8525D96ED4
:1010C000DA6A060EDA22DF6A8AEF88F0300E05014E
:1010D0008525D96EDA6A060EDA22DF507A6F7B6BCD
:1010E0007B51000AD8B477EF88F08AEF88F07A5104
:1010F000000AD8B48AEF88F0010AD8B422EF88F049
:10110000030AD8B48AEF88F0010AD8B48AEF88F0CD
:101110008AEF88F00501852B0F0E856592EF88F028
:1011200094EF88F004EF88F012003750D8A49BEFBA
:1011300088F09DEF88F0F5EF89F060EF89F0B9C590
:10114000D9F4BAC5DAF4030EDF60A9EF88F0ABEF8B
:1011500088F0BBEF88F0E6C56EF5E5C56FF5420E89
:101160000501706F010E716F010E726FAF0EE5EC2D
:10117000EEF0F3EF88F0050120EE02F0B951D92628
:10118000BA51DA22DF50E66F20EE03F0B951D926CA
:10119000BA51DA22DF50E56FFD0E606F030E616F0A
:1011A000000E626FE6C563F5000EFFECE8F0FC0E82
:1011B0000501606F030E616F000E626FE5C563F598
:1011C000000EFFECE8F0010E376EA5ECC5F0E6C5A9
:1011D0002EF5E5C52FF5520E76ECEEF00601DC4B50
:1011E000DD2BF5ECEBF0010EF6EF8EF0A50E050110
:1011F0006E6F610E6F6F200E706FFF0E716F140EA9
:10120000726F7F0E736F040E746FEF0EFBECEEF0D7
:10121000F3EF88F0480EF66E080EF76E000EF86ECB
:101220000800F5C46EF5490EF66E080EF76E000E56
:10123000F86E0800F5C46FF54A0EF66E080EF76EEC
:10124000000EF86E0800F5C470F54B0EF66E080E31
:10125000F76E000EF86E0800F5C471F54C0EF66ED0
:10126000080EF76E000EF86E0800F5C472F54D0E0C
:10127000F66E080EF76E000EF86E0800F5C473F5F2
:101280004E0EF66E080EF76E000EF86E0800F5C4EE
:1012900074F5E20EFBECEEF0F3EF88F0000E0501C2
:1012A0006E6F000E6F6FA50E706F200E716FA9EC40
:1012B000E2F00501726FB60EE5ECEEF0F3EF88F0A8
:1012C000050120EE01F0B951D926BA51DA22DF50DA
:1012D0000701DC6FDD6BDD51000AD8B472EF89F0D5
:1012E00085EF89F0DC510D0AD8B44EEF89F01D0A64
:1012F000D8B4F6EF88F0010AD8B40AEF89F0530A9F
:10130000D8B49FEF88F085EF89F0000EF6EF8EF0ED
:10131000E6C56EF5E5C56FF5A50E0501706F200EEB
:10132000716FA9ECE2F00501726FB60EE5ECEEF01C
:10133000F3EF88F0B9C5D9F4BAC5DAF4040EDF606A
:10134000A4EF89F0A6EF89F0B6EF89F0E6C56EF557
:10135000E5C56FF5760E0501706F010E716F010E18
:10136000726FAF0EE5ECEEF0F3EF88F0050120EEC2
:1013700002F0B951D926BA51DA22DF50D8A4C3EF0E
:1013800089F0C5EF89F012EF8AF020EE03F0B95131
:10139000D926BA51DA22DF50D8A4D1EF89F0D3EFA1
:1013A00089F012EF8AF020EE04F0B951D926BA5133
:1013B000DA22DF50BE6F0C0EBE19D8A4E2EF89F01E
:1013C000E4EF89F0E7EF89F0F385F3EF88F00D0E95
:1013D000BE19D8A4EEEF89F0F0EF89F0F3EF89F0B1
:1013E000F395F3EF88F012EF8AF0050120EE01F09B
:1013F000B951D926BA51DA22DF500701DC6FDD6B13
:10140000DD51000AD8B407EF8AF012EF8AF0DC5100
:101410000D0AD8B488EF89F07B0AD8B49AEF89F026
:1014200012EF8AF0B9C5D9F4BAC5DAF4030EDF6059
:101430001CEF8AF01EEF8AF020EF8AF085EF89F02A
:10144000050120EE02F0B951D926BA51DA22DE5058
:10145000E619D8B42EEF8AF030EF8AF032EF8AF036
:1014600085EF89F020EE03F0B951D926BA51DA227E
:10147000E551DE18D8B43FEF8AF041EF8AF0CAEFA9
:101480008EF085EF89F0B9C5D9F4BAC5DAF4040E47
:10149000DF604DEF8AF04FEF8AF05FEF8AF0E6C52C
:1014A0006EF5E5C56FF5730E0501706F010E716F76
:1014B000010E726FAF0EE5ECEEF0F3EF88F0050170
:1014C00020EE04F0B951D926BA51DA22140EDF64A5
:1014D0006CEF8AF06EEF8AF087EF8AF0E6C56EF562
:1014E000E5C56FF5090E706F6F0EB9ECEEF0E6C54D
:1014F0006EF5E5C56FF5730E0501706F010E716F26
:10150000090E726FAF0EE5ECEEF0F3EF88F020EE0F
:1015100004F0B951D926BA51DA22DF506BECC6F08B
:101520000501BB6FE6C56EF5E5C56FF520EE04F06D
:10153000B951D926BA51DA22DF50706FBBC571F5A7
:101540009B0E11ECEFF0050120EE04F0B951D92605
:10155000BA51DA22DF50D8A4B0EF8AF0B2EF8AF0A5
:10156000F3EF88F0010ED2ECE1F01D6E620E1E6EFC
:10157000D90E1F6E010E206E070ECCECE8F0F3EFD3
:1015800088F0E5C5E3F5E6C5E4F501ECCDF005012D
:10159000E351E411D8B4CFEF8AF0D1EF8AF0D8EF5D
:1015A0008AF0E4C52EF5E3C52FF5510E76ECEEF08A
:1015B000FF00B9C5D9F4BAC5DAF4050EDF60E3EF70
:1015C0008AF0E5EF8AF0F5EF8AF0E6C56EF5E5C53D
:1015D0006FF5870E0501706F010E716F010E726F4E
:1015E000AF0EE5ECEEF0F3EF88F0050120EE04F02D
:1015F000B951D926BA51DA22DF50D8A402EF8BF0C4
:1016000004EF8BF011EF8BF0000E1D6EDE0E1E6EE0
:10161000980E1F6E010E206E040ECCECE8F0F3EF76
:1016200088F020EE04F0B951D926BA51DA22090E19
:10163000DF641DEF8BF01FEF8BF02EEF8BF0E6C514
:101640006EF5E5C56FF5870E706F010E716FFC0EBC
:10165000726FAF0EE5ECEEF0F3EF88F020EE04F0E1
:10166000B951D926BA51DA22DF500701DC6FDD6BA0
:10167000D890DC37DD37FE0EDC25DE6FFF0EDD2176
:10168000DF6FD50EDE25F66EFE0EDF21F76EF86AEF
:10169000000EF8220900F5C4E0F70900F5C4E1F7EF
:1016A000110EE027000EE123E0C7F6F4E1C7F7F4DE
:1016B000000EF86E0900F5500900F5100900F5104C
:1016C000D8A465EF8BF067EF8BF07BEF8BF0E6C56E
:1016D0006EF5E5C56FF5870E0501706F20EE04F01D
:1016E000B951D926BA51DA22DF50716F000E726FEC
:1016F000C70EE5ECEEF0050120EE05F0B951D92654
:10170000BA51DA22DF50D8A488EF8BF08AEF8BF041
:101710009DEF8BF020EE04F0B951D926BA51DA22B0
:10172000DF501D6EDE0E1E6E980E1F6E010E206EB7
:10173000040ECCECE8F0F3EF88F020EE04F0B951A1
:10174000D926BA51DA22DF500701DC6FDD6BD89061
:10175000DC37DD37FE0EDC25DE6FFF0EDD21DF6FAF
:10176000D50EDE25F66EFE0EDF21F76EF86A000E4E
:10177000F8220900F5C4E0F70900F5C4E1F7110EFD
:10178000E027000EE123E0C7F6F4E1C7F7F4000E0E
:10179000F86E02D8E1EF8BF00500FA6E0900F55003
:1017A000FD6E0900F550FE6E0900F550FF6EFA500F
:1017B000050120EE05F0B951D926BA51DA22DF50E1
:1017C00012001FC5BCF520C5BDF50501BC51BD11FA
:1017D000D8A4EDEF8BF0EFEF8BF0FEEF8BF0E6C5CA
:1017E0006EF5E5C56FF5870E706F010E716FFD0E1A
:1017F000726FAF0EE5ECEEF0F3EF88F0E6C56EF534
:10180000E5C56FF520EE04F0B951D926BA51DA22B8
:10181000DF50706F20EE05F0B951D926BA51DA22A7
:10182000DF50716F20EE01F0BC51D926BD51DA2294
:10183000DF50726FBCC5D9F4BDC5DAF4DF50736FE9
:10184000C70EA3ECEEF0F3EF88F0B9C5D9F4BAC532
:10185000DAF4040EDF602FEF8CF031EF8CF041EF03
:101860008CF0E6C56EF5E5C56FF5780E0501706F75
:10187000010E716F010E726FAF0EE5ECEEF0F3EF3B
:1018800088F0050120EE04F0B951D926BA51DA22C8
:10189000DF50D8A44EEF8CF050EF8CF06AEF8CF054
:1018A000E6C56EF5E5C56FF5000E706F000E716F41
:1018B000090E726FAC0EE5ECEEF0010E1D6E0E0E11
:1018C0001E6EC00E1F6E010E206E030ECCECE8F0F3
:1018D000F3EF88F020EE04F0B951D926BA51DA229C
:1018E000090EDF6476EF8CF078EF8CF087EF8CF0E8
:1018F000E6C56EF5E5C56FF5780E706F010E716F78
:10190000FC0E726FAF0EE5ECEEF0F3EF88F020EE18
:1019100004F0B951D926BA51DA22DF500701DC6F41
:10192000DD6BD890DC37DD37FE0EDC25DE6FFF0E79
:10193000DD21DF6FD50EDE25F66EFE0EDF21F76EA0
:10194000F86A000EF8220900F5C4E0F70900F5C4B2
:10195000E1F70E0EE027000EE123E0C7F6F4E1C741
:10196000F7F4000EF86E0900F5500900F5100900B3
:10197000F510D8A4BEEF8CF0C0EF8CF004EF8DF022
:10198000E6C56EF5E5C56FF5050120EE04F0B95129
:10199000D926BA51DA22DF50706F20EE04F0B95127
:1019A000D926BA51DA22DF500701DC6FDD6BD890FF
:1019B000DC37DD37FE0EDC25DE6FFF0EDD21DF6F4D
:1019C000D50EDE25F66EFE0EDF21F76EF86A000EEC
:1019D000F8220900F5C4E0F70900F5C4E1F7E0C713
:1019E000F6F4E1C7F7F4000EF86E0800F5C471F5DF
:1019F000000E0501726F000E736F000E746FE70E1C
:101A0000FBECEEF0F3EF88F0E6C56EF5E5C56FF59B
:101A1000050120EE04F0B951D926BA51DA22DF507F
:101A2000706F20EE04F0B951D926BA51DA22DF5096
:101A30000701DC6FDD6BD890DC37DD37FE0EDC256F
:101A4000DE6FFF0EDD21DF6FD50EDE25F66EFE0E9A
:101A5000DF21F76EF86A000EF8220900F5C4E0F7FE
:101A60000900F5C4E1F7E0C7F6F4E1C7F7F4000EAA
:101A7000F86E0800F5C471F5050120EE04F0B951C7
:101A8000D926BA51DA22DF500701E26FE36BD89012
:101A9000E237E337FE0EE225E46FFF0EE321E56F48
:101AA000D50EE425F66EFE0EE521F76EF86A000EFF
:101AB000F8220900F5C4E6F70900F5C4E7F70E0EB1
:101AC000E627000EE723E6C7F6F4E7C7F7F4000EB3
:101AD000F86E02D87AEF8DF00500FA6E0900F55025
:101AE000FD6E0900F550FE6E0900F550FF6EFA50CC
:101AF000010E12000501726F20EE04F0B951D926D3
:101B0000BA51DA22DF500701E86FE96BD890E83765
:101B1000E937FE0EE825EA6FFF0EE921EB6FD50EDF
:101B2000EA25F66EFE0EEB21F76EF86A000EF8223B
:101B30000900F5C4ECF70900F5C4EDF70E0EEC272B
:101B4000000EED23ECC7F6F4EDC7F7F4000EF86EC7
:101B500002D8B9EF8DF00500FA6E0900F550FD6E60
:101B60000900F550FE6E0900F550FF6EFA50020EA6
:101B700012000501736F20EE04F0B951D926BA5155
:101B8000DA22DF500701EE6FEF6BD890EE37EF37B8
:101B9000FE0EEE25F06FFF0EEF21F16FD50EF02552
:101BA000F66EFE0EF121F76EF86A000EF8220900BB
:101BB000F5C4F2F70900F5C4F3F70E0EF227000E94
:101BC000F323F2C7F6F4F3C7F7F4000EF86E02D869
:101BD000F8EF8DF00500FA6E0900F550FD6E090072
:101BE000F550FE6E0900F550FF6EFA50030E12001C
:101BF0000501746FE70EFBECEEF0F3EF88F0B9C56A
:101C0000D9F4BAC5DAF4040EDF6009EF8EF00BEFF9
:101C10008EF01BEF8EF0E6C56EF5E5C56FF5760E1E
:101C20000501706F010E716F010E726FAF0EE5EC62
:101C3000EEF0F3EF88F0050120EE04F0B951D9265B
:101C4000BA51DA22DF50BE6FE5C5E3F5E6C5E4F52B
:101C50008AEF8EF0BE51D8A430EF8EF032EF8EF0C6
:101C600095EF8EF0000E376EF069E4C56EF5E3C5B2
:101C70006FF5760E706F010E716F000E726FAF0E02
:101C8000E5ECEEF0E6C52EF5E5C52FF5500E76EC49
:101C9000EEF0F1EF88F0BE51D8A451EF8EF053EF83
:101CA0008EF095EF8EF0E6C56EF5E5C56FF5760E14
:101CB000706F010E716F000E726FAF0EE5ECEEF0FB
:101CC000E6C52EF5E5C52FF5500E76ECEEF0000ECC
:101CD0000501E66FE6C5E5F5FD0E606F030E616F69
:101CE000000E626FE6C563F5000EFFECE8F0FC0E37
:101CF0000501606F030E616F000E626FE5C563F54D
:101D0000000EFFECE8F0000E376E010E0501F06FDB
:101D1000F1EF88F03750000AD8B495EF8EF0FF0A43
:101D2000D8B42AEF8EF04BEF8EF00C0EBE19D8A46B
:101D30009CEF8EF09EEF8EF0AEEF8EF0F385E6C551
:101D40006EF5E5C56FF5760E706F010E716F000EC2
:101D5000726FAF0EE5ECEEF0F3EF88F00D0EBE19EA
:101D6000D8A4B5EF8EF0B7EF8EF085EF89F0F3953C
:101D7000E6C56EF5E5C56FF5760E706F010E716FF5
:101D8000000E726FAF0EE5ECEEF0F3EF88F0FF009F
:101D9000F3EF88F020EE01F0B951D926BA51DA22DA
:101DA000DF500701DC6FDD6BDD51000AD8B4DBEFDB
:101DB0008EF085EF89F0DC514F0AD8B4C1EF8AF07C
:101DC000110AD8B4C7EF8EF02D0AD8B443EF8AF0C9
:101DD000050AD8B4FFEF8DF00E0AD8B425EF8CF0C9
:101DE000FF0AD8B4D9EF8AF085EF89F01200050117
:101DF000B26FF00E0501B225196E1A6AFF0E1A2293
:101E0000000E1C6E070E1B6E16ECDCF019501A103B
:101E1000D8A40DEF8FF00FEF8FF02DEF8FF00501AD
:101E2000B251F00FB36FB3C523F5246A000E266ECE
:101E3000070E256E28ECD9F023500501B36FAB5186
:101E4000AC19D8B426EF8FF028EF8FF02DEF8FF07C
:101E5000ABC5A8F5B3511CECDDF0050E0501B219B8
:101E6000D8A435EF8FF037EF8FF03AEF8FF0AB510A
:101E70006EEC05F0060E0501B219D8A442EF8FF002
:101E800044EF8FF0A9EF90F0000EB36F80EF90F069
:101E9000AB51D8B44EEF8FF050EF8FF08DEF8FF045
:101EA000B3C5ADF5070EAD17010EAE6F000EAF6FE7
:101EB000AD2B5EEF8FF0D890AE37AF37AD2F5BEF25
:101EC0008FF00501AE51AF11D8B469EF8FF06BEF11
:101ED0008FF08DEF8FF0B351040D020EF326000E3C
:101EE000F422950EF324F66EFE0EF420F76EF86AD7
:101EF000000EF8220800F5C4ADF5010EAE6FAD2B53
:101F000084EF8FF0D890AE37AD2F82EF8FF00501C0
:101F1000AE51040101139FEF90F0B351040D020E76
:101F2000F326000EF422950EF324F66EFE0EF42036
:101F3000F76EF86A000EF8220800F5C4ADF5010E40
:101F4000AE6FAD2BA6EF8FF0D890AE37AD2FA4EFCC
:101F50008FF00501AE51FF0A040101179FEF90F0C9
:101F6000AB51D8B4B6EF8FF0B8EF8FF0F5EF8FF03C
:101F7000B3C5ADF5070EAD17010EAE6F000EAF6F16
:101F8000AD2BC6EF8FF0D890AE37AF37AD2FC3EF84
:101F90008FF00501AE51AF11D8B4D1EF8FF0D3EF70
:101FA0008FF0F5EF8FF0B351040D020EF326000E03
:101FB000F422950EF324F66EFE0EF420F76EF86A06
:101FC000000EF8220800F5C4ADF5010EAE6FAD2B82
:101FD000ECEF8FF0D890AE37AD2FEAEF8FF0050120
:101FE000AE51040109139FEF90F0B351040D020E9E
:101FF000F326000EF422950EF324F66EFE0EF42066
:10200000F76EF86A000EF8220800F5C4ADF5010E6F
:10201000AE6FAD2B0EEF90F0D890AE37AD2F0CEF2A
:1020200090F00501AE51FF0A040109179FEF90F0EF
:10203000AB51D8B41EEF90F020EF90F05DEF90F030
:10204000B3C5ADF5070EAD17010EAE6F000EAF6F45
:10205000AD2B2EEF90F0D890AE37AF37AD2F2BEFE2
:1020600090F00501AE51AF11D8B439EF90F03BEFCD
:1020700090F05DEF90F0B351040D020EF326000EC8
:10208000F422950EF324F66EFE0EF420F76EF86A35
:10209000000EF8220800F5C4ADF5010EAE6FAD2BB1
:1020A00054EF90F0D890AE37AD2F52EF90F005017D
:1020B000AE51040111139FEF90F0B351040D020EC5
:1020C000F326000EF422950EF324F66EFE0EF42095
:1020D000F76EF86A000EF8220800F5C4ADF5010E9F
:1020E000AE6FAD2B76EF90F0D890AE37AD2F74EF8A
:1020F00090F00501AE51FF0A040111179FEF90F017
:10210000B351040D010EF326000EF422950EF324B4
:10211000F66EFE0EF420F76EF86A000EF822080044
:10212000F550410AD8B448EF8FF0030AD8B4B0EFA5
:102130008FF0010AD8B418EF90F09FEF90F00501EE
:10214000B32B070EB365A7EF90F0A9EF90F080EFE7
:1021500090F0070EB219D8A4B0EF90F0B2EF90F063
:1021600017EF92F0080EB36FEEEF91F0AB51D8B4C9
:10217000BCEF90F0BEEF90F0FBEF90F0B3C5ADF583
:10218000070EAD17010EAE6F000EAF6FAD2BCCEF8B
:1021900090F0D890AE37AF37AD2FC9EF90F0050172
:1021A000AE51AF11D8B4D7EF90F0D9EF90F0FBEF6C
:1021B00090F0B351040D020EF326000EF422950E9A
:1021C000F324F66EFE0EF420F76EF86A000EF82285
:1021D0000800F5C4ADF5010EAE6FAD2BF2EF90F037
:1021E000D890AE37AD2FF0EF90F00501AE5104015D
:1021F00001130DEF92F0B351040D020EF326000E01
:10220000F422950EF324F66EFE0EF420F76EF86AB3
:10221000000EF8220800F5C4ADF5010EAE6FAD2B2F
:1022200014EF91F0D890AE37AD2F12EF91F0050179
:10223000AE51FF0A040101170DEF92F0AB51D8B473
:1022400024EF91F026EF91F063EF91F0B3C5ADF577
:10225000070EAD17010EAE6F000EAF6FAD2B34EF52
:1022600091F0D890AE37AF37AD2F31EF91F0050137
:10227000AE51AF11D8B43FEF91F041EF91F063EF61
:1022800091F0B351040D020EF326000EF422950EC8
:10229000F324F66EFE0EF420F76EF86A000EF822B4
:1022A0000800F5C4ADF5010EAE6FAD2B5AEF91F0FD
:1022B000D890AE37AD2F58EF91F00501AE51040123
:1022C00009130DEF92F0B351040D020EF326000E28
:1022D000F422950EF324F66EFE0EF420F76EF86AE3
:1022E000000EF8220800F5C4ADF5010EAE6FAD2B5F
:1022F0007CEF91F0D890AE37AD2F7AEF91F00501D9
:10230000AE51FF0A040109170DEF92F0AB51D8B49A
:102310008CEF91F08EEF91F0CBEF91F0B3C5ADF56E
:10232000070EAD17010EAE6F000EAF6FAD2B9CEF19
:1023300091F0D890AE37AF37AD2F99EF91F00501FE
:10234000AE51AF11D8B4A7EF91F0A9EF91F0CBEF58
:1023500091F0B351040D020EF326000EF422950EF7
:10236000F324F66EFE0EF420F76EF86A000EF822E3
:102370000800F5C4ADF5010EAE6FAD2BC2EF91F0C4
:10238000D890AE37AD2FC0EF91F00501AE510401EA
:1023900011130DEF92F0B351040D020EF326000E4F
:1023A000F422950EF324F66EFE0EF420F76EF86A12
:1023B000000EF8220800F5C4ADF5010EAE6FAD2B8E
:1023C000E4EF91F0D890AE37AD2FE2EF91F0050138
:1023D000AE51FF0A040111170DEF92F0B351040D35
:1023E000010EF326000EF422950EF324F66EFE0E77
:1023F000F420F76EF86A000EF8220800F550410A42
:10240000D8B4B6EF90F0030AD8B41EEF91F0010AE9
:10241000D8B486EF91F00DEF92F00501B32B0F0EBB
:10242000B36515EF92F017EF92F0EEEF91F00F0E0B
:10243000B2651DEF92F01FEF92F09CEF94F0F00E5A
:10244000B225236E246AFF0E2422000E266E070E8C
:10245000256E28ECD9F023500501B36FF00EB2259C
:10246000196E1A6AFF0E1A22000E1C6E070E1B6EE2
:1024700016ECDCF07BEF94F00501B251AD6FAE6B62
:10248000B351070D120EF326000EF422AD51F318CE
:1024900007E1AE51F418D8A450EF92F052EF92F049
:1024A0009CEF94F0B3C5F9F5ABBF59EF92F05BEF39
:1024B00092F061EF92F0000EB16F010EB06F65EF18
:1024C00092F0000EB16F020EB06FB0C5F8F59CEF40
:1024D00094F09CEF94F00501B251AD6FAE6BB35127
:1024E000070D120EF326000EF422AD51F31807E18A
:1024F000AE51F418D8A47FEF92F081EF92F08EEFF6
:1025000092F0020E1D6EB351F7ECD5F0020E1D6E67
:102510000501B351E9ECD2F09CEF94F0B251AD6FEC
:10252000AE6BB351070D130EF326000EF422AD511E
:10253000F31807E1AE51F418D8A4A1EF92F0A3EF7D
:1025400092F0B0EF92F0010E1D6EB351F7ECD5F0A2
:10255000010E1D6E0501B351E9ECD2F09CEF94F031
:10256000B251AD6FAE6BB351070D110EF326000ED5
:10257000F422AD51F31807E1AE51F418D8A4C3EF1B
:1025800092F0C5EF92F09CEF94F0ABAFCAEF92F0EF
:10259000CCEF92F069EF92F0ACBFD1EF92F0D3EFB5
:1025A00092F069EF92F0B351070DF350120F96ECD1
:1025B000EAF019C523F51AC524F5000E266E020EA1
:1025C000256E28ECD9F023C5ADF524C5AEF505017F
:1025D000B351070DF350130F96ECEAF019C523F52C
:1025E0001AC524F5000E266E020E256E28ECD9F0D1
:1025F00023500501AD252B6EB351A1ECEFF09CEFFC
:1026000094F00501B251AD6FAE6BB351070D130ECF
:10261000F326000EF422AD51F31807E1AE51F41881
:10262000D8A415EF93F017EF93F024EF93F0020E78
:102630001D6EB35160ECD6F0020E196E0501B35158
:10264000BEECE7F09CEF94F0B251AD6FAE6BB351BE
:10265000070D120EF326000EF422AD51F31807E118
:10266000AE51F418D8A437EF93F039EF93F046EF5A
:1026700093F0010E1D6EB35160ECD6F0010E196E91
:102680000501B351BEECE7F09CEF94F0B251AD6F91
:10269000AE6BB351070D110EF326000EF422AD51AF
:1026A000F31807E1AE51F418D8A459EF93F05BEF9B
:1026B00093F09CEF94F0ABAF60EF93F062EF93F088
:1026C00069EF92F0ACBF67EF93F069EF93F069EFB9
:1026D00092F0B351070DF350120F96ECEAF019C5C2
:1026E00023F51AC524F5000E266E020E256E28EC81
:1026F000D9F023C5ADF524C5AEF50501B351070DDD
:10270000F350130F96ECEAF019C523F51AC524F51A
:10271000000E266E020E256E28ECD9F0235005011E
:10272000AD25AF6FCC0EB325D96EDA6A050EDA226D
:10273000AFC5DFF49CEF94F00501B251AD6FAE6B05
:10274000B351070D130EF326000EF422AD51F3180A
:1027500007E1AE51F418D8A4B0EF93F0B2EF93F0C4
:10276000BFEF93F0000E1D6EB35189ECCEF0000E5A
:102770001D6E0501B3511DECDEF09CEF94F0B251DB
:10278000AD6FAE6BB351070D140EF326000EF4229D
:10279000AD51F31807E1AE51F418D8A4D2EF93F07D
:1027A000D4EF93F0E1EF93F0010E1D6EB35189EC7D
:1027B000CEF0010E1D6E0501B3511DECDEF09CEF55
:1027C00094F0B251AD6FAE6BB351070D150EF326F9
:1027D000000EF422AD51F31807E1AE51F418D8A45D
:1027E000F4EF93F0F6EF93F003EF94F0020E1D6E0A
:1027F000B35189ECCEF0020E1D6E0501B3511DECF4
:10280000DEF09CEF94F0B251AD6FAE6BB351070D9B
:10281000160EF326000EF422AD51F31807E1AE5167
:10282000F418D8A416EF94F018EF94F025EF94F074
:10283000030E1D6EB35189ECCEF0030E1D6E050123
:10284000B3511DECDEF09CEF94F0B251AD6FAE6B66
:10285000B351070D110EF326000EF422AD51F318FB
:1028600007E1AE51F418D8A438EF94F03AEF94F0A1
:102870009CEF94F0ABAF3FEF94F041EF94F069EF31
:1028800092F0ACBF46EF94F048EF94F069EF92F00D
:10289000B351070DF350120F96ECEAF019C523F56A
:1028A0001AC524F5000E266E020E256E28ECD9F00E
:1028B00023C5ADF524C5AEF50501B351070DF350A1
:1028C000130F96ECEAF019C523F51AC524F5000E8E
:1028D000266E020E256E28ECD9F023500501AD2599
:1028E000AF6FCC0EB325D96EDA6A050EDA22AFC50A
:1028F000DFF49CEF94F00501B351070DF350100F76
:1029000096ECEAF01A50000AD8B489EF94F09CEFE4
:1029100094F01950020AD8B46BEF92F0010AD8B4BF
:1029200001EF93F0070AD8B49CEF93F0020AD8B4F1
:102930003CEF92F09CEF94F0120064EF98F0B9C570
:1029400077F5BAC578F5030E796F000E7A6F3DEC16
:10295000E4F0E806D8A4AFEF94F0B1EF94F0B4EF50
:1029600094F0010EACEF98F0050120EE02F0B951A1
:10297000D926BA51DA22DE50E619D8A4C2EF94F073
:10298000C4EF94F0D6EF94F020EE03F0B951D926BD
:10299000BA51DA22E551DE18D8A4D1EF94F0D3EF82
:1029A00094F0D6EF94F0F381B1EF94F0F391B1EF9E
:1029B00094F0B9C577F5BAC578F5040E796F000EB5
:1029C0007A6F3DECE4F0E806D8A4E9EF94F0EBEF81
:1029D00094F0EDEF94F0B1EF94F0050120EE02F0E9
:1029E000B951D926BA51DA22DE50E619D8A4FBEF44
:1029F00094F0FDEF94F02EEF95F020EE03F0B95136
:102A0000D926BA51DA22E551DE18D8A40AEF95F09A
:102A10000CEF95F02EEF95F020EE04F0B951D92689
:102A2000BA51DA22080EDE18D8A419EF95F01BEF80
:102A300095F01DEF95F0D3EF94F020EE04F0B9512E
:102A4000D926BA51DA22090EDE18D8A42AEF95F059
:102A50002CEF95F02FEF95F0D6EF94F0F391000E58
:102A6000ACEF98F0B9C577F5BAC578F5070E796F70
:102A7000010E7A6F3DECE4F0E806D8A442EF95F041
:102A800044EF95F050EF95F0E6C56EF5E5C56FF5AE
:102A9000010E0501706F6F0EB9ECEEF0B1EF94F01E
:102AA0000501F3B156EF95F058EF95F05AEF95F018
:102AB000B1EF94F020EE03F0B951D926BA51DA22E1
:102AC000DF50BB6F20EE02F0B951D926BA51DA229D
:102AD000DF50BC6FBB51AC6FBCC5ADF520EE05F04F
:102AE000B951D926BA51DA22DF50BE6F20EE04F078
:102AF000B951D926BA51DA22DF50BF6FBE51AE6F3D
:102B0000BFC5AFF520EE06F0B951D926BA51DA2289
:102B1000DF50B06F20EE07F0B951D926BA51DA2252
:102B2000DF50B16F47ECD4F0B1EF94F0B9C577F551
:102B3000BAC578F5050E796F010E7A6F3DECE4F0B9
:102B4000E806D8A4A6EF95F0A8EF95F0AAEF95F0C7
:102B5000B1EF94F00501F3B1B0EF95F0B2EF95F05D
:102B6000B4EF95F0B1EF94F020EE03F0B951D9260F
:102B7000BA51DA22DF50BB6F20EE02F0B951D926EC
:102B8000BA51DA22DF50BC6FBB51806FBCC581F5F2
:102B900020EE05F0B951D926BA51DA22DF50BE6FC6
:102BA00020EE04F0B951D926BA51DA22DF50BF6FB6
:102BB000BE51826FBFC583F576ECE3F0B1EF94F0C0
:102BC000B9C577F5BAC578F5060E796F010E7A6F3B
:102BD0003DECE4F0E806D8A4F0EF95F0F2EF95F0C4
:102BE000F4EF95F0B1EF94F00501F3B1FAEF95F041
:102BF000FCEF95F0FEEF95F0B1EF94F020EE03F0CE
:102C0000B951D926BA51DA22DF50BB6F20EE02F05B
:102C1000B951D926BA51DA22DF50BC6FBB51796F56
:102C2000BCC57AF520EE05F0B951D926BA51DA22A1
:102C3000DF50BE6F20EE04F0B951D926BA51DA2226
:102C4000DF50BF6FBE517B6FBFC57CF520EE06F035
:102C5000B951D926BA51DA22DF507D6F21ECC7F085
:102C6000B1EF94F0B9C577F5BAC578F5030E796F71
:102C7000000E7A6F3DECE4F0E806D8A442EF96F03F
:102C800044EF96F046EF96F0B1EF94F0050120EE98
:102C900002F0B951D926BA51DA22DE50E619D8A489
:102CA00054EF96F056EF96F0B1EF94F020EE03F06B
:102CB000B951D926BA51DA22E551DE18D8B463EFFA
:102CC00096F065EF96F0D6EF94F0B1EF94F0B9C5B9
:102CD00077F5BAC578F5030E796F010E7A6F3DEC82
:102CE000E4F0E806D8A477EF96F079EF96F07BEF62
:102CF00096F0B1EF94F0050120EE02F0B951D9261B
:102D0000BA51DA22DE50E619D8A489EF96F08BEF9B
:102D100096F0B1EF94F020EE03F0B951D926BA51F4
:102D2000DA22E551DE18D8B498EF96F09AEF96F0D3
:102D30009CEF96F0B1EF94F0F3B1A1EF96F0A3EF12
:102D400096F0BCEF96F0E6C56EF5E5C56FF5020EA0
:102D5000706F6F0EB9ECEEF0E6C56EF5E5C56FF578
:102D6000550E0501706F040E716F020E726FAF0E7B
:102D7000E5ECEEF0B1EF94F087ECEDF02FEF95F08D
:102D8000B9C577F5BAC578F5030E796F000E7A6F7D
:102D90003DECE4F0E806D8A4D0EF96F0D2EF96F040
:102DA000D4EF96F0B1EF94F0050120EE02F0B951A6
:102DB000D926BA51DA22DE50E619D8A4E2EF96F00D
:102DC000E4EF96F0B1EF94F020EE03F0B951D9267C
:102DD000BA51DA22E551DE18D8B4F1EF96F0F3EFEC
:102DE00096F0F5EF96F0B1EF94F012EC05F0B1EF3C
:102DF00094F0B9C577F5BAC578F5030E796F000E72
:102E00007A6F3DECE4F0E806D8A409EF97F00BEFF9
:102E100097F00DEF97F0B1EF94F0050120EE02F07E
:102E2000B951D926BA51DA22DE50E619D8A41BEFDF
:102E300097F01DEF97F0B1EF94F020EE03F0B95149
:102E4000D926BA51DA22E551DE18D8B42AEF97F024
:102E50002CEF97F02EEF97F0B1EF94F09DECE6F0A9
:102E6000B1EF94F0B9C577F5BAC578F5030E796F6F
:102E7000000E7A6F3DECE4F0E806D8A442EF97F03C
:102E800044EF97F046EF97F0B1EF94F0050120EE94
:102E900002F0B951D926BA51DA22DE50E619D8A487
:102EA00054EF97F056EF97F0B1EF94F020EE03F067
:102EB000B951D926BA51DA22E551DE18D8B463EFF8
:102EC00097F065EF97F067EF97F0B1EF94F087EC2C
:102ED000EBF0B1EF94F0B9C577F5BAC578F5040E0B
:102EE000796F000E7A6F3DECE4F0E806D8A47BEF32
:102EF00097F07DEF97F07FEF97F0B1EF94F0050139
:102F000020EE02F0B951D926BA51DA22DE50E61984
:102F1000D8A48DEF97F08FEF97F0B1EF94F020EEFB
:102F200003F0B951D926BA51DA22E551DE18D8B4E6
:102F30009CEF97F09EEF97F0A0EF97F0B1EF94F031
:102F400020EE04F0B951D926BA51DA22DF50BDEC97
:102F5000E4F0B1EF94F0B9C577F5BAC578F5050E90
:102F6000796F000E7A6F3DECE4F0E806D8A4BBEF71
:102F700097F0BDEF97F0BFEF97F0B1EF94F0050138
:102F800020EE02F0B951D926BA51DA22DE50E61904
:102F9000D8A4CDEF97F0CFEF97F0B1EF94F020EEFB
:102FA00003F0B951D926BA51DA22E551DE18D8B466
:102FB000DCEF97F0DEEF97F0E0EF97F0B1EF94F0F1
:102FC00020EE05F0B951D926BA51DA22DF502F6E22
:102FD00020EE04F0B951D926BA51DA22DF507AEC4A
:102FE000D1F0B1EF94F0B9C577F5BAC578F5080E10
:102FF000796F010E7A6F3DECE4F0E806D8A403EF98
:1030000098F005EF98F007EF98F0B1EF94F0050114
:1030100020EE02F0B951D926BA51DA22DE50E61973
:10302000D8A415EF98F017EF98F0B1EF94F020EED8
:1030300003F0B951D926BA51DA22E551DE18D8B4D5
:1030400024EF98F026EF98F028EF98F0B1EF94F085
:1030500020EE03F0B951D926BA51DA22DF50BB6F06
:1030600020EE02F0B951D926BA51DA22DF50BC6FF6
:10307000BB51AC6FBCC5ADF520EE05F0B951D926FA
:10308000BA51DA22DF50BE6F20EE04F0B951D926D2
:10309000BA51DA22DF50BF6FBE51AE6FBFC5AFF578
:1030A00020EE07F0B951D926BA51DA22DF50B06FBD
:1030B00020EE08F0B951D926BA51DA22DF50B16FAB
:1030C00047ECD4F0B1EF94F0050120EE01F0B951D6
:1030D000D926BA51DA22DF50BB6FBC6BBC51000A53
:1030E000D8B475EF98F02FEF95F0BB51530AD8B4D0
:1030F0009FEF94F0070AD8B432EF96F0010AD8B4E3
:1031000067EF96F0030AD8B4F9EF96F0010AD8B445
:10311000C0EF96F00F0AD8B432EF97F02A0AD8B46D
:103120006BEF97F0040AD8B4D9EF94F0E30AD8B45F
:1031300096EF95F0090AD8B4ABEF97F02E0AD8B401
:10314000E0EF95F0600AD8B432EF95F0270AD8B4D2
:10315000F3EF97F02FEF95F0120005016F6F0F0E50
:1031600005016F65B6EF98F0B8EF98F0BAEF98F0F8
:1031700099EF9BF06F51070DF350100F96ECEAF0AA
:10318000195005016E6F32EF99F06F51070DF35032
:10319000110F96ECEAF019A4D0EF98F0D2EF98F066
:1031A000EBEF98F005016F51676F686B696BDE0E8E
:1031B00067251F6E030E6821206E000E6921216EA7
:1031C000000E4BECE7F01F50256E05016F51BDEC72
:1031D000DBF058EF9AF005016F51070DF350110F16
:1031E00096ECEAF019BAF7EF98F0F9EF98F000EFE3
:1031F00099F0000E05016C6F020E6B6F05EF99F0F0
:10320000000E05016C6F010E6B6F6BC56DF56DC522
:1032100025F56F51BDECDBF005016F51676F686BF1
:10322000696BDE0E6725606F030E6821616F000E0B
:103230006921626F6DC563F5000EFFECE8F058EF91
:103240009AF06F51070DF350110F96ECEAF01950F8
:10325000100B05016A6F6AC525F56F51BDECDBF0F7
:1032600058EF9AF06E51010AD8B4C5EF98F0030AEE
:10327000D8B421EF99F0010AD8B421EF99F058EFB2
:103280009AF06E51D8B447EF99F049EF99F05BEF9F
:1032900099F0050E6E19D8B450EF99F052EF99F0ED
:1032A0005BEF99F0060E6E19D8A459EF99F05BEF19
:1032B00099F07CEF99F06F51040D020EF326000E89
:1032C000F422950EF324F66EFE0EF420F76EF86AE3
:1032D000000EF8220800F5C467F5010E686F672B31
:1032E00074EF99F0D8906837672F72EF99F0050165
:1032F0006851C61278EF9AF06F51040D020EF32652
:10330000000EF422950EF324F66EFE0EF420F76EF6
:10331000F86A000EF8220800F5C467F5010E686F20
:10332000672B95EF99F0D8906837672F93EF99F056
:1033300005016851FF0AC61678EF9AF06E51D8B4AD
:10334000A4EF99F0A6EF99F0B8EF99F0050E6E1979
:10335000D8B4ADEF99F0AFEF99F0B8EF99F0060E51
:103360006E19D8A4B6EF99F0B8EF99F0D9EF99F0AB
:103370006F51040D020EF326000EF422950EF32475
:10338000F66EFE0EF420F76EF86A000EF8220800C2
:10339000F5C467F5010E686F672BD1EF99F0D890EF
:1033A0006837672FCFEF99F005016851C71278EFA2
:1033B0009AF06F51040D020EF326000EF422950EC2
:1033C000F324F66EFE0EF420F76EF86A000EF82273
:1033D0000800F5C467F5010E686F672BF2EF99F0EE
:1033E000D8906837672FF0EF99F005016851FF0A10
:1033F000C71678EF9AF06E51D8B401EF9AF003EF48
:103400009AF015EF9AF0050E6E19D8B40AEF9AF0FB
:103410000CEF9AF015EF9AF0060E6E19D8A413EF80
:103420009AF015EF9AF036EF9AF06F51040D020EF4
:10343000F326000EF422950EF324F66EFE0EF42011
:10344000F76EF86A000EF8220800F5C467F5010E61
:10345000686F672B2EEF9AF0D8906837672F2CEFA4
:103460009AF005016851C81278EF9AF06F51040D77
:10347000020EF326000EF422950EF324F66EFE0ED5
:10348000F420F76EF86A000EF8220800F5C467F51C
:10349000010E686F672B4FEF9AF0D8906837672F4F
:1034A0004DEF9AF005016851FF0AC81678EF9AF0BF
:1034B00005016F51040D010EF326000EF422950E46
:1034C000F324F66EFE0EF420F76EF86A000EF82272
:1034D0000800F550410AD8B441EF99F0030AD8B476
:1034E0009EEF99F0010AD8B4FBEF99F078EF9AF0CB
:1034F000050E6E19D8B47FEF9AF081EF9AF0F2EFD3
:103500009AF0060E6E19D8A488EF9AF08AEF9AF016
:103510007AEF9BF0F2EF9AF06F51040D020EF32652
:10352000000EF422950EF324F66EFE0EF420F76ED4
:10353000F86A000EF8220800F5C467F5010E686FFE
:10354000672BA5EF9AF0D8906837672FA3EF9AF012
:10355000050168510401001399EF9BF06F51040DB0
:10356000020EF326000EF422950EF324F66EFE0EE4
:10357000F420F76EF86A000EF8220800F5C467F52B
:10358000010E686F672BC7EF9AF0D8906837672FE6
:10359000C5EF9AF0050168510401081399EF9BF0FB
:1035A0006F51040D020EF326000EF422950EF32443
:1035B000F66EFE0EF420F76EF86A000EF822080090
:1035C000F5C467F5010E686F672BE9EF9AF0D890A4
:1035D0006837672FE7EF9AF005016851040110136F
:1035E00099EF9BF06F51040D010EF326000EF422AB
:1035F000950EF324F66EFE0EF420F76EF86A000EB8
:10360000F8220800F550410AD8B48CEF9AF0030A6A
:10361000D8B4AEEF9AF0010AD8B4D0EF9AF099EF8F
:103620009BF06F51040D020EF326000EF422950E4E
:10363000F324F66EFE0EF420F76EF86A000EF82200
:103640000800F5C467F5010E686F672B2AEF9BF041
:10365000D8906837672F28EF9BF005016851FF0A63
:103660000401001799EF9BF06F51040D020EF32631
:10367000000EF422950EF324F66EFE0EF420F76E83
:10368000F86A000EF8220800F5C467F5010E686FAD
:10369000672B4DEF9BF0D8906837672F4BEF9BF06F
:1036A00005016851FF0A0401081799EF9BF06F515B
:1036B000040D020EF326000EF422950EF324F66E8E
:1036C000FE0EF420F76EF86A000EF8220800F5C42A
:1036D00067F5010E686F672B70EF9BF0D890683725
:1036E000672F6EEF9BF005016851FF0A0401101768
:1036F00099EF9BF06F51040D010EF326000EF4229A
:10370000950EF324F66EFE0EF420F76EF86A000EA6
:10371000F8220800F550410AD8B411EF9BF0030AD3
:10372000D8B434EF9BF0010AD8B457EF9BF099EF6F
:103730009BF012000301F3A1A0EF9BF0A2EF9BF01E
:10374000A4EF9BF045EF9EF00501F751070DF350F4
:10375000100F96ECEAF0050E19181A10D8B4B3EF52
:103760009BF0B5EF9BF0C6EF9BF00501F751070DFD
:10377000F350100F96ECEAF0060E19181A10D8A4A0
:10378000C4EF9BF0C6EF9BF0EAEF9DF00501F65108
:10379000D8B4CDEF9BF0CFEF9BF0EAEF9DF0EBC3F9
:1037A00085F5866B8551866F856B0301EA510501AE
:1037B0008513F851D8B4DFEF9BF0E1EF9BF0EAEF0F
:1037C0009BF0F951F719D8B4E8EF9BF0EAEF9BF0C2
:1037D000B3EF9DF0F751070DF350100F96ECEAF0A0
:1037E000060E19181A10D8A4F8EF9BF0FAEF9BF008
:1037F000E9EF9CF00501F751070DF350150F96EC1A
:10380000EAF019C583F51AC584F505018351846F63
:10381000836BF751070DF350160F96ECEAF0195031
:10382000050183131A50841383C581F584C582F57D
:10383000F751070DF350130F96ECEAF019500501FC
:10384000835F1A50845BF751070DF350130F96EC0A
:10385000EAF01950050181271A508223F751070D0C
:10386000F350140F96ECEAF00501835119247F6F91
:1038700084511A20806FF751070DF350140F96EC06
:10388000EAF019500501815D7D6F1A5082597E6FF3
:10389000700EF725D96EDA6A060EDA22DF50030BB6
:1038A000020AD8B456EF9CF058EF9CF096EF9CF0CB
:1038B0008151855D82518659D8A061EF9CF063EFFC
:1038C0009CF096EF9CF0700EF725D96EDA6A060E22
:1038D000DA220601DFA46FEF9CF071EF9CF089EF14
:1038E0009CF00501F751070DF350110F96ECEAF02B
:1038F00019AC7DEF9CF080EF9CF0010E81EF9CF005
:10390000000E0501726FF751040DF350090F05EC1D
:10391000D0F0700E0501F725D96EDA6A060EDA22AC
:10392000DF50FC0B0209DF6E12EF9DF0700EF725E1
:10393000D96EDA6A060EDA22DF50030B020AD8A427
:10394000A4EF9CF0A6EF9CF012EF9DF085517D5DF9
:1039500086517E59D8A0AFEF9CF0B1EF9CF012EFEA
:103960009DF0700EF725D96EDA6A060EDA2206018E
:10397000DFA4BDEF9CF0BFEF9CF0DEEF9CF00501F3
:10398000F751070DF350110F96ECEAF019B6CBEF93
:103990009CF0CDEF9CF0DEEF9CF00501F751070D98
:1039A000F350110F96ECEAF01950400B0501726FBD
:1039B000F751040DF350090F05ECD0F0700E05011E
:1039C000F725D96EDA6A060EDA22FC0EDF1612EF40
:1039D0009DF085C57AF586C57BF5040E05017C6FE3
:1039E000D8907B337A337C2FF0EF9CF07AC585F545
:1039F0007BC586F5F751070DF350130F96ECEAF0EF
:103A000019C583F51AC584F50501F751070DF35063
:103A1000140F96ECEAF019500501835D7F6F1A5080
:103A20008459806F700EF725D96EDA6A060EDA2295
:103A3000DF50030BE806D8B420EF9DF022EF9DF095
:103A400060EF9DF08551835D86518459D8A02BEF9E
:103A50009DF02DEF9DF060EF9DF0700EF725D96E73
:103A6000DA6A060EDA220601DFA439EF9DF03BEF99
:103A70009DF053EF9DF00501F751070DF350110F25
:103A800096ECEAF019AC47EF9DF04AEF9DF0010E7D
:103A90004BEF9DF0000E0501726FF751040DF350CE
:103AA000080F05ECD0F0700E0501F725D96EDA6A23
:103AB000060EDA22DF50FC0B0109DF6EE2EF9DF00B
:103AC000700EF725D96EDA6A060EDA22DF50030B84
:103AD000E806D8A46EEF9DF070EF9DF0E2EF9DF048
:103AE0007F51855D80518659D8A079EF9DF07BEF9D
:103AF0009DF0E2EF9DF0700EF725D96EDA6A060EA2
:103B0000DA220601DFA487EF9DF089EF9DF0A8EF90
:103B10009DF00501F751070DF350110F96ECEAF0F7
:103B200019B695EF9DF097EF9DF0A8EF9DF0050178
:103B3000F751070DF350110F96ECEAF01950400BB6
:103B40000501726FF751040DF350080F05ECD0F02A
:103B5000700E0501F725D96EDA6A060EDA22FC0E20
:103B6000DF16E2EF9DF0E6C56EF5E5C56FF5000ED8
:103B7000706FF729716FF729726F85C573F58651DC
:103B8000746FFD0EFBECEEF0020E0501F819D8A4DF
:103B9000CCEF9DF0CEEF9DF0DFEF9DF085C567F592
:103BA000F751070DF350150F76ECECF00501865137
:103BB000676FF751070DF350160F76ECECF0000E1F
:103BC0000501F86F700EF725D96EDA6A060EDA2253
:103BD0000601DF840501F72B0F0EF765F2EF9DF06C
:103BE000F4EF9DF0F6EF9DF0000EF76FF751070D23
:103BF000F350100F96ECEAF0050E19181A10D8B40D
:103C000004EF9EF006EF9EF017EF9EF00501F751CE
:103C1000070DF350100F96ECEAF0060E19181A1063
:103C2000D8A415EF9EF017EF9EF045EF9EF005012A
:103C3000F751040D020EF326000EF422950EF32424
:103C4000F66EFE0EF420F76EF86A000EF8220800F9
:103C5000F5C47AF5F751040D010EF326000EF42297
:103C6000950EF324F66EFE0EF420F76EF86A000E41
:103C7000F8220800F550080DF350F80F7A110301EF
:103C8000EC6FF381010E0501F66F1200B9C5D9F48E
:103C9000BAC5DAF4050EDF6050EF9EF052EF9EF0E9
:103CA00055EF9EF0000EAAEFA0F0050120EE03F004
:103CB000B951D926BA51DA22DF50BB6F20EE02F09B
:103CC000B951D926BA51DA22DF50BC6FBB51C16F4E
:103CD000BCC5C2F57EEF9EF0000EC26F000EC16F34
:103CE000140EBE6F010EBF6FD1EF9EF0000EC26FBB
:103CF000000EC16F000EBE6FD1EF9EF020EE01F0FE
:103D0000B951D926BA51DA22DF50BB6FBC6BBC5116
:103D1000000AD8B48EEF9EF052EF9EF0BB51900A8D
:103D2000D8B470EF9EF0010AD8B47AEF9EF0090A79
:103D3000D8B46CEF9EF0010AD8B476EF9EF0290A51
:103D4000D8B470EF9EF0010AD8B47AEF9EF0090A59
:103D5000D8B46CEF9EF0010AD8B476EF9EF0690AF1
:103D6000D8B470EF9EF0010AD8B47AEF9EF0090A39
:103D7000D8B46CEF9EF0010AD8B476EF9EF0290A11
:103D8000D8B470EF9EF0010AD8B47AEF9EF0090A19
:103D9000D8B46CEF9EF0010AD8B476EF9EF052EFE3
:103DA0009EF0C1C56CF5C2C56DF520EE05F0B951A8
:103DB000D926BA51DA22DF50BB6F20EE04F0B95198
:103DC000D926BA51DA22DF50BC6FBB516E6FBCC529
:103DD0006FF5EAECD9F00501C36FC329D8A4F3EF5E
:103DE0009EF0F5EF9EF0F7EF9EF052EF9EF0C3517C
:103DF0003AECC9F0050120EE01F0B951D926BA51CB
:103E0000DA22DF50C06FC0B108EF9FF00AEF9FF0D9
:103E1000BDEF9FF0010ECA6F400ECA25D96EDA6A57
:103E2000070EDA22DF50CB6FCB51D8B41AEF9FF0D8
:103E30001CEF9FF0B1EF9FF0CB517F0BC86F590E75
:103E4000C86125EF9FF027EF9FF0B1EF9FF0070EBD
:103E5000C819D8A42EEF9FF030EF9FF032EF9FF0FB
:103E6000A6EFA0F0080EC86138EF9FF03AEF9FF080
:103E70003FEF9FF0CB5188ECE1F0B1EF9FF0F80EEF
:103E8000C825236E246AFF0E2422000E266E050E1E
:103E9000256E28ECD9F023500501C76FF80EC82510
:103EA000196E1A6AFF0E1A22000E1C6E050E1B6E8A
:103EB00016ECDCF019500501C96F91EF9FF0050178
:103EC000C751070DF350110F96ECEAF019AE6BEFE6
:103ED0009FF06DEF9FF06FEF9FF085EC05F005010F
:103EE000C951D8A476EF9FF078EF9FF079EF9FF05B
:103EF000CB2B040EC919D8A480EF9FF082EF9FF05E
:103F000084EF9FF0020ECB5FCB5188ECE1F082ECA6
:103F100005F0B1EF9FF00501CB5188ECE1F0B1EF76
:103F20009FF0C751070DF350100F96ECEAF01A50AE
:103F3000000AD8B49EEF9FF0B1EF9FF01950010A2C
:103F4000D8B45FEF9FF0030AD8B46FEF9FF0010A77
:103F5000D8B46FEF9FF0070AD8B48BEF9FF0B1EFA2
:103F60009FF00501CA2B130ECA65B9EF9FF0BBEF96
:103F70009FF00CEF9FF0A6EFA0F053C7C4F5130E0F
:103F8000CA6F000EC56FC4C5CBF5010ECA65CBEF75
:103F90009FF0CDEF9FF0DAEF9FF03F0ECA25D96E6C
:103FA000DA6A070EDA22DF50C46FC451800BC66F85
:103FB000DDEF9FF0C551800BC66FCB51D8B4E3EF56
:103FC0009FF0E5EF9FF09CEFA0F0C551D8A4EBEF78
:103FD0009FF0EDEF9FF0EFEF9FF0CBC5C5F5CB9FC6
:103FE000590ECB61F6EF9FF0F8EF9FF09CEFA0F039
:103FF000070ECB19D8A4FFEF9FF001EFA0F003EF5D
:10400000A0F0A6EFA0F0080ECB6109EFA0F00BEF37
:10401000A0F01AEFA0F0CB05D8B411EFA0F013EF89
:10402000A0F01AEFA0F0C651CB13CB5188ECE1F011
:104030009CEFA0F0F80ECB25236E246AFF0E2422FD
:10404000000E266E050E256E28ECD9F023500501D2
:10405000C76FF80ECB25196E1A6AFF0E1A22000ED2
:104060001C6E050E1B6E16ECDCF019500501C96FB5
:104070007CEFA0F00501C751070DF350110F96EC2E
:10408000EAF019AE46EFA0F048EFA0F04AEFA0F03A
:1040900085EC05F0030E0501C919D8A452EFA0F074
:1040A00054EFA0F055EFA0F0CB070501C951D8A4FB
:1040B0005CEFA0F05EEFA0F060EFA0F0020ECB2767
:1040C000040EC919D8A467EFA0F069EFA0F06BEF58
:1040D000A0F0030ECB5FC651CB13CB5188ECE1F0BF
:1040E00082EC05F09CEFA0F00501C651CB13CB513B
:1040F00088ECE1F070EFA0F0C751070DF350100FFE
:1041000096ECEAF01A50000AD8B489EFA0F09CEFC0
:10411000A0F01950010AD8B43AEFA0F0030AD8B4BD
:1041200055EFA0F0010AD8B455EFA0F0070AD8B4B3
:1041300074EFA0F09CEFA0F00501CA07CA51D8A403
:10414000A4EFA0F0A6EFA0F0C1EF9FF00601FC4B9A
:10415000FD2B010E12002E6ECC0E2E24D96EDA6AC3
:10416000050EDA22DF500501606F616B400E2E24D0
:10417000D96EDA6A060EDA22DF50626F636B030EC5
:104180006227000E63236051625D6351800A646F91
:104190006151800A6459D8A0D0EFA0F0D2EFA0F00E
:1041A00027EFA1F0400E2E24D96EDA6A060EDA222D
:1041B000DF50606FFD0E6025616F626BFF0E622342
:1041C000CC0E2E24D96EDA6A050EDA22DF50636F28
:1041D000646B6151635D6451800A656F6251800A4E
:1041E0006559D8A0F6EFA0F0F8EFA0F027EFA1F006
:1041F0002E50020D000EF324D96E060EF420DA6E56
:10420000010EDBBE10EFA1F0010EDB5007E1040E42
:10421000DE5CD8B00EEFA1F010EFA1F027EFA1F017
:104220002E50020D000EF324D96E060EF420DA6E25
:10423000010EDBAE25EFA1F0FD0EDE5CFF0EDE58B9
:10424000D8B025EFA1F027EFA1F00AEFA3F02E5090
:10425000070DF350120F96ECEAF019C560F51AC578
:1042600061F52E50070DF350130F96ECEAF019503C
:104270000501605DD8A03FEFA1F042EFA1F0010E73
:1042800043EFA1F0000E2B6E2B50D8A44AEFA1F003
:104290004CEFA1F02CEFA2F02E50020D000EF324F3
:1042A000D96E060EF420DA6EDEC423F5DDC424F5E3
:1042B000000E266E1E0E256E28ECD9F023C560F583
:1042C00024C561F52E50070DF350130F96ECEAF05C
:1042D000195005016025626F000E6121636FCC0EDD
:1042E0002E24D96EDA6A050EDA22DF50646F656B10
:1042F0006251645D6551800A666F6351800A665938
:10430000D8B085EFA1F087EFA1F002EFA2F02E5018
:10431000070DF350140F96ECEAF019C51DF51AC5F8
:104320001EF52E50020D000EF324D96E060EF42059
:10433000DA6EDEC460F5DDC461F50501601F611F42
:10434000604B612B60C51FF561C520F57AECEFF07D
:104350001DC523F51EC524F5000E266E640E256EC0
:1043600028ECD9F02E50020D000EF324D96E060E63
:10437000F420DA6E23C5DEF424C5DDF42E50070DDB
:10438000F350130F96ECEAF019500501606F616B62
:104390002E50070DF350130F96ECEAF0195005015B
:1043A0006027000E6123CC0E2E24D96EDA6A050E2A
:1043B000DA22DF50626F6251605F000E615B2E5047
:1043C000020D000EF324D96E060EF420DA6EDEC460
:1043D00023F5DDC424F5000E266E1E0E256E28EC96
:1043E000D9F023500501605D2C6E245061592D6E6B
:1043F000CC0E2E24D96EDA6A050EDA222CC5DFF433
:1044000007EFA3F02E50020D000EF324D96E060E16
:10441000F420DA6E030EDE26000EDD222E50020D91
:10442000000EF324D96E060EF420DA6EDEC423F5F6
:10443000DDC424F5000E266E1E0E256E28ECD9F084
:10444000010E2326CC0E2E24D96EDA6A050EDA224E
:104450002350DF5E07EFA3F0CC0E2E24D96EDA6A6C
:10446000050EDA22DF50606F616B2E50070DF3509E
:10447000130F96ECEAF019C562F51AC563F52E50D4
:10448000020D000EF324D96E060EF420DA6EDEC49F
:1044900023F5DDC424F5000E266E1E0E256E28ECD5
:1044A000D9F023500501625D646F2450D8A0242800
:1044B000656B655F6051645D6551800A666F61512F
:1044C000800A6659D8B067EFA2F069EFA2F0DFEF7B
:1044D000A2F02E50070DF350140F96ECEAF019C518
:1044E0001DF51AC51EF52E50020D000EF324D96ECF
:1044F000060EF420DA6EDEC460F5DDC461F5050158
:10450000601F611F604B612B60C51FF561C520F501
:104510007AECEFF01DC523F51EC524F5000E266EBE
:10452000640E256E28ECD9F02E50020D000EF324F7
:10453000D96E060EF420DA6E23C5DEF424C5DDF450
:104540002E50070DF350130F96ECEAF019500501A9
:10455000606F616B2E50070DF350130F96ECEAF06D
:10456000195005016027000E61232E50020D000E28
:10457000F324D96E060EF420DA6EDEC423F5DDC412
:1045800024F5000E266E1E0E256E28ECD9F0235061
:1045900005016025626F24506121636FCC0E2E24CB
:1045A000D96EDA6A050EDA22DF50646F6451625DFB
:1045B0002C6E6351D8A063052D6EF8EFA1F02E503C
:1045C000020D000EF324D96E060EF420DA6E030EEF
:1045D000DE26000EDD222E50020D000EF324D96ED1
:1045E000060EF420DA6EDEC423F5DDC424F5000ED9
:1045F000266E1E0E256E28ECD9F0010E2326CC0E59
:104600002E24D96EDA6A050EDA222350DF26000E38
:104610000BEFA3F0010E12002D6EF80E2D24236E69
:10462000246AFF0E2422000E266E040E256E28EC4E
:10463000D9F02350436E0F0E436421EFA3F023EF14
:10464000A3F026EFA3F0FF0E4CEFA5F02D50F80FCE
:10465000030B2E6E4350070DF350110F96ECEAF04A
:1046600019502B6E2B50080B2C6E27EFA5F0C40EA3
:104670004324D96EDA6A070EDA22DF50D8A443EF5A
:10468000A3F046EFA3F0010E47EFA3F0000E4CEFAE
:10469000A5F02C50D8B44FEFA3F051EFA3F023EFC7
:1046A000A3F0C40E4324D96EDA6A070EDA22DF5073
:1046B000D8B45DEFA3F060EFA3F0010E61EFA3F0BB
:1046C000000E4CEFA5F02E50000AD8B437EFA3F03F
:1046D000010AD8B449EFA3F023EFA3F0435005013A
:1046E000606F616B626BDE0E60251F6E030E6121D1
:1046F000206E000E6221216E000E4BECE7F0020EE0
:104700001F182010D8A487EFA3F08AEFA3F0010EA2
:104710008BEFA3F0000E4CEFA5F02E50000AD8B49A
:104720006EEFA3F023EFA3F04350070DF350120FE9
:1047300096ECEAF0CC0E4324D96EDA6A050EDA2242
:10474000DE501918D8B4A7EFA3F0AAEFA3F0010E1A
:10475000ABEFA3F0000E4CEFA5F04350070DF35064
:10476000130F96ECEAF0CC0E4324D96EDA6A050EEC
:10477000DA22DE501918D8B4C0EFA3F0C3EFA3F0CB
:10478000010EC4EFA3F0000E4CEFA5F04350070D4F
:10479000F350130F96ECEAF01950236E246A000EC2
:1047A000266E020E256E28ECD9F023C560F524C5CF
:1047B00061F54350070DF350120F96ECEAF01950D3
:1047C000236E246A000E266E020E256E28ECD9F0A8
:1047D000235005016025626F24506121636FCC0E68
:1047E0004324D96EDA6A050EDA22DF50646F656BF6
:1047F0006251645D6551800A666F6351800A665933
:10480000D8B005EFA4F008EFA4F0010E09EFA4F072
:10481000000E4CEFA5F02E50000AD8B494EFA3F090
:10482000010AD8B4C6EFA3F0030AD8B4ADEFA3F0E1
:1048300023EFA3F043500501606F616B626BDE0EE6
:1048400060251F6E030E6121206E000E6221216E15
:10485000000E4BECE7F01F66010E30EFA4F0000EE7
:104860004CEFA5F02E50000AD8B41AEFA4F023EFB5
:10487000A3F04350070DF350130F96ECEAF0CC0E63
:104880004324D96EDA6A050EDA22DF500501606F23
:10489000616B195060190AE11A506119D8B453EFCD
:1048A000A4F056EFA4F0010E57EFA4F0000E4CEF69
:1048B000A5F04350070DF350140F96ECEAF0CC0E20
:1048C0004324D96EDA6A050EDA22DF500501606FE3
:1048D000616B195060190AE11A506119D8B473EF6D
:1048E000A4F076EFA4F0010E77EFA4F0000E4CEFE9
:1048F000A5F04350070DF350120F96ECEAF01ABEE4
:104900008BEFA4F01A5009E1030E195CD8A08BEFCD
:10491000A4F08DEFA4F023EFA3F04350070DF35064
:10492000150F96ECEAF0CC0E4324D96EDA6A050E28
:10493000DA22DF500501606F616B195060190AE1DE
:104940001A506119D8B4A7EFA4F0AAEFA4F0010E91
:10495000ABEFA4F0000E4CEFA5F04350070DF35061
:10496000120F96ECEAF01ABEBFEFA4F01A5009E15C
:10497000040E195CD8A0BFEFA4F0C1EFA4F023EFA0
:10498000A3F04350070DF350160F96ECEAF0CC0E4F
:104990004324D96EDA6A050EDA22DF500501606F12
:1049A000616B195060190AE11A506119D8B4DBEF34
:1049B000A4F0DEEFA4F0010EDFEFA4F0000E4CEF48
:1049C000A5F02E50000AD8B439EFA4F0010AD8B4EB
:1049D00059EFA4F0030AD8B479EFA4F0010AD8B4CF
:1049E000ADEFA4F023EFA3F0700E4324D96EDA6A82
:1049F000060EDA22DF50030BE806D8B402EFA5F06A
:104A000005EFA5F0010E06EFA5F0000E4CEFA5F0A6
:104A1000700E4324D96EDA6A060EDA22DF50030BD9
:104A2000020AD8B416EFA5F019EFA5F0010E1AEF9F
:104A3000A5F0000E4CEFA5F02E50000AD8B4F4EF0C
:104A4000A4F0010AD8B408EFA5F023EFA3F0435077
:104A5000070DF350100F96ECEAF01950000AD8B485
:104A600063EFA3F0010AD8B48DEFA3F0030AD8B422
:104A70000BEFA4F0010AD8B432EFA4F0070AD8B4BF
:104A8000E1EFA4F0010AD8B41CEFA5F0030AD8B4F2
:104A90001CEFA5F023EFA3F0120020EE01F025504B
:104AA000D9262650DA22DF50CDECECF00009D8B43C
:104AB0005CEFA5F05EEFA5F017EFA6F0080E1AEC7C
:104AC000E2F00009D8B467EFA5F069EFA5F017EFA1
:104AD000A6F0E90E196E060E1A6EFEECD0F019C59E
:104AE00062F51AC563F5050162516311D8A47BEF25
:104AF000A5F07DEFA5F084EFA5F00601BC4BBD2B22
:104B000054EC05F0FEEFA5F020EE01F02550D9267B
:104B10002650DA2210EE01F06251E1266351E222C2
:104B2000DFC4E7F425C5D9F426C5DAF462C5E1F49B
:104B300063C5E2F4DFC4E7F420EE02F02550D92685
:104B40002650DA2210EE02F06251E1266351E22291
:104B5000DFC4E7F420EE03F02550D9262650DA22F0
:104B600010EE03F06251E1266351E222DFC4E7F464
:104B700020EE04F02550D9262650DA2210EE04F05B
:104B80006251E1266351E222DFC4E7F420EE05F032
:104B90002550D9262650DA2210EE05F06251E12682
:104BA0006351E222DFC4E7F420EE06F02550D92657
:104BB0002650DA2210EE06F06251E1266351E2221D
:104BC000DFC4E7F420EE07F02550D9262650DA227C
:104BD00010EE07F06251E1266351E222DFC4E7F4F0
:104BE00020EE08F02550D9262650DA2210EE08F0E3
:104BF0006251E1266351E222DFC4E7F411ECE7F0F1
:104C0000276E27500501606F616B60510601D05D12
:104C1000050161510601D159D8B011EFA6F013EF8B
:104C2000A6F017EFA6F060C5D0F661C5D1F6010178
:104C30006CB11DEFA6F01FEFA6F026EFA6F006015F
:104C4000B64BB72B54EC05F066EFA7F06CAD2BEF2D
:104C5000A6F02DEFA6F030EFA6F00601C44BC52B51
:104C60003950D8A436EFA6F038EFA6F044EFA6F0FE
:104C70003850D8A43EEFA6F040EFA6F044EFA6F0DF
:104C8000010E386E010E396E70C164F571C165F5A3
:104C900039C527F57F0E271620EE01F02550D926BD
:104CA0002650DA22DF50286E296A950E2824F66EE7
:104CB000FD0E2920F76EF86A000EF8220800F55064
:104CC0002A6E2B6AF20E2A24F66EFE0E2B20F76E49
:104CD000F86A000EF8220800F5C42CF5010E2C1617
:104CE000000E2CB0800E2C6E2C50271064C5D9F409
:104CF00065C5DAF4DF6E050120EE01F06451D926B6
:104D00006551DA2210EE01F02550E1262650E2220C
:104D1000E750276E286A950E2724F66EFD0E282090
:104D2000F76EF86A000EF8220800F550296E2A6A1C
:104D3000F20E2924F66EFE0E2A20F76EF86A000E97
:104D4000F8220800F5C42BF5D8902B30DF6E20EE4A
:104D500004F06451D9266551DA2225C5E1F426C54F
:104D6000E2F4E7500F0BDF6E20EE05F06451D92618
:104D70006551DA22DF6A20EE06F06451D9266551CA
:104D8000DA22DF6A20EE07F06451D9266551DA2273
:104D9000DF6A20EE01F02550D9262650DA2210EEE7
:104DA00008F06451E1266551E222DFC4E7F420EE09
:104DB00002F02550D9262650DA2210EE09F064516F
:104DC000E1266551E222DFC4E7F420EE03F025502E
:104DD000D9262650DA2210EE0AF06451E1266551F8
:104DE000E222DFC4E7F420EE04F02550D926265055
:104DF000DA2210EE0BF06451E1266551E222DFC4A5
:104E0000E7F420EE05F02550D9262650DA2210EEE0
:104E10000CF06451E1266551E222DFC4E7F420EE94
:104E200006F02550D9262650DA2210EE0DF06451F6
:104E3000E1266551E222DFC4E7F420EE07F02550B9
:104E4000D9262650DA2210EE0EF06451E126655183
:104E5000E222DFC4E7F420EE08F02550D9262650E0
:104E6000DA2210EE0FF06451E1266551E222DFC430
